0117010490999992009010100004+69983+023367FM-12+0003ENAT V0203301N009019999999N9999999N1-00481-00671100931ADDMA1999999100891MD1710061+9999REMSYN076AAXX  01001 01049 16/// /3309 11048 21067 30089 40093 57006 6//// 333 91115;
0101010490999992009010101004+69983+023367FM-12+0003ENAT V0203401N009019999999N9999999N1-00531-00791100961ADDMA1999999100921MD1510031+9999REMSYN060AAXX  01011 01049 46/// /3409 11053 21079 30092 40096 55003;
0101010490999992009010102004+69983+023367FM-12+0003ENAT V0203501N008019999999N9999999N1-00511-00951100981ADDMA1999999100951MD1310041+9999REMSYN060AAXX  01021 01049 46/// /3508 11051 21095 30095 40098 53004;
0101010490999992009010103004+69983+023367FM-12+0003ENAT V0203601N008019999999N9999999N1-00541-00871101041ADDMA1999999101011MD1310121+9999REMSYN060AAXX  01031 01049 46/// /3608 11054 21087 30101 40104 53012;
0155010490999992009010103504+69983+023367FM-15+0003ENAT V0203601N007710060019N0060001N1-00601-00801999999ADDGA1041+003001999GA2071+006001999GF107991999999999999999999MA1100911999999MW1711REMMET064METAR ENAT 010350Z 36015KT 6000 -SN SCT010 BKN020 M06/M08 Q1009;
0101010490999992009010104004+69983+023367FM-12+0003ENAT V0203601N008019999999N9999999N1-00631-00871101131ADDMA1999999101091MD1310171+9999REMSYN060AAXX  01041 01049 46/// /3608 11063 21087 30109 40113 53017;
0145010490999992009010104504+69983+023367FM-15+0003ENAT V0203401N00871220001CN0112651N1-00601-01001999999ADDGA1021+006001999GA2071+006001999GF107991999999999999999999MA1101081999999REMMET060METAR ENAT 010450Z 34017KT 9999 FEW020 BKN020 M06/M10 Q1011;
0101010490999992009010105004+69983+023367FM-12+0003ENAT V0203501N008019999999N9999999N1-00601-01061101121ADDMA1999999101091MD1010141+9999REMSYN060AAXX  01051 01049 46/// /3508 11060 21106 30109 40112 50014;
0190010490999992009010105504+69983+023367FM-15+0003ENAT V0203601N00721010501CN0112651N1-00601-01101999999ADDGA1021+007501999GA2041+010501999GA3071+018001999GF107991999999999999999999MA1101081999999MW1161OC101491REMMET075METAR ENAT 010550Z 36014G29KT 9999 VCSH FEW025 SCT035 BKN060 M06/M11 Q1011;
0213010490999992009010106004+69983+023367FM-12+0003ENAT V0203501N009010300019N0200001N1-00581-00941101151ADDAA124005191AY171061AY221061GF108991041081008001071999KA1120N-00671MA1999999101111MD1110101+9999MW1151REMSYN100AAXX  01061 01049 11570 83509 11058 21094 30111 40115 51010 60054 71572 8487/ 333 21067 70051 91117;
0156010490999992009010106504+69983+023367FM-15+0003ENAT V0203601N006210135019N0112651N1-00601-01101999999ADDGA1021+009001999GA2071+013501999GF107991999999999999999999MA1101081999999MW1161REMMET065METAR ENAT 010650Z 36012KT 9999 VCSH FEW030 BKN045 M06/M11 Q1011;
0101010490999992009010107004+69983+023367FM-12+0003ENAT V0203601N006019999999N9999999N1-00591-00971101191ADDMA1999999101151MD1310061+9999REMSYN060AAXX  01071 01049 46/// /3606 11059 21097 30115 40119 53006;
0156010490999992009010107504+69983+023367FM-15+0003ENAT V0203601N006210135019N0112651N1-00601-01201999999ADDGA1021+007501999GA2071+013501999GF107991999999999999999999MA1101081999999MW1161REMMET065METAR ENAT 010750Z 36012KT 9999 VCSH FEW025 BKN045 M06/M12 Q1011;
0101010490999992009010108004+69983+023367FM-12+0003ENAT V0203601N007019999999N9999999N1-00591-00981101201ADDMA1999999101171MD1210081+9999REMSYN060AAXX  01081 01049 46/// /3607 11059 21098 30117 40120 52008;
0151010490999992009010108504+69983+023367FM-15+0003ENAT V0203601N006210135019N0112651N1-00601-01201999999ADDGA1021+007501999GA2071+013501999GF107991999999999999999999MA1101191999999REMMET066METAR ENAT 010850Z 36012KT 9999 -SHSN FEW025 BKN045 M06/M12 Q1012;
0161010490999992009010109004+69983+023367FM-12+0003ENAT V0200101N006010120019N0150001N1-00571-01131101221ADDAY181031AY221031GF106991051081008001071999MA1999999101181MD1210071+9999MW1851REMSYN072AAXX  01091 01049 41565 60106 11057 21113 30118 40122 52007 78582 8587/;
0158010490999992009010109504+69983+023367FM-15+0003ENAT V0203601N005710105019N0112651N1-00601-01201999999ADDGA1021+007501999GA2071+010501999GF107991999999999999999999MA1101191999999REMMET073METAR ENAT 010950Z 36011KT 9999 5000NW -SHSN FEW025 BKN035 M06/M12 Q1012;
0101010490999992009010110004+69983+023367FM-12+0003ENAT V0203301N007019999999N9999999N1-00561-00801101211ADDMA1999999101181MD1210031+9999REMSYN060AAXX  01101 01049 46/// /3307 11056 21080 30118 40121 52003;
0151010490999992009010110504+69983+023367FM-15+0003ENAT V0200201N006710105019N0112651N1-00501-00801999999ADDGA1021+007501999GA2071+010501999GF107991999999999999999999MA1101081999999REMMET066METAR ENAT 011050Z 02013KT 9999 -SHSN FEW025 BKN035 M05/M08 Q1011;
0101010490999992009010111004+69983+023367FM-12+0003ENAT V0203601N006019999999N9999999N1-00561-00861101191ADDMA1999999101161MD1010011+9999REMSYN060AAXX  01111 01049 46/// /3606 11056 21086 30116 40119 50001;
0174010490999992009010111504+69983+023367FM-15+0003ENAT V0203501N00821012001CN0112651N1-00601-00901999999ADDGA1021+005101999GA2041+012001999GA3071+018001999GF107991999999999999999999MA1101191999999REMMET073METAR ENAT 011150Z 35016KT 9999 -SHSN FEW017 SCT040 BKN060 M06/M09 Q1012;
0177010490999992009010112004+69983+023367FM-12+0003ENAT V0203501N007010042019N0120001N1-00551-00931101211ADDAY181061AY221061GF107991051041004501071999MA1999999101171MD1710011+9999MW1851REMSYN088AAXX  01121 01049 11462 73507 11055 21093 30117 40121 57001 6//// 78582 8547/ 333 91114;
0174010490999992009010112504+69983+023367FM-15+0003ENAT V0203301N00721012001CN0112651N1-00601-00801999999ADDGA1021+005101999GA2041+012001999GA3071+018001999GF107991999999999999999999MA1101191999999REMMET073METAR ENAT 011250Z 33014KT 9999 -SHSN FEW017 SCT040 BKN060 M06/M08 Q1012;
0101010490999992009010113004+69983+023367FM-12+0003ENAT V0203401N008019999999N9999999N1-00581-00771101221ADDMA1999999101181MD1410001+9999REMSYN060AAXX  01131 01049 46/// /3408 11058 21077 30118 40122 54000;
0151010490999992009010113504+69983+023367FM-15+0003ENAT V0203301N011310120019N0112651N1-00501-00801999999ADDGA1021+004501999GA2071+012001999GF107991999999999999999999MA1101191999999REMMET066METAR ENAT 011350Z 33022KT 9999 -SHSN FEW015 BKN040 M05/M08 Q1012;
0101010490999992009010114004+69983+023367FM-12+0003ENAT V0203401N011019999999N9999999N1-00541-00951101201ADDMA1999999101171MD1410001+9999REMSYN060AAXX  01141 01049 46/// /3411 11054 21095 30117 40120 54001;
0145010490999992009010114504+69983+023367FM-15+0003ENAT V0203401N008210084019N0112651N1-00501-00901999999ADDGA1021+006001999GA2071+008401999GF107991999999999999999999MA1101081999999REMMET060METAR ENAT 011450Z 34016KT 9999 FEW020 BKN028 M05/M09 Q1011;
0161010490999992009010115004+69983+023367FM-12+0003ENAT V0203501N008010120019N0250001N1-00491-01021101191ADDAY181031AY221031GF107991051081008001071999MA1999999101161MD1810011+9999MW1021REMSYN072AAXX  01151 01049 41575 73508 11049 21102 30116 40119 58001 70282 8587/;
0145010490999992009010115504+69983+023367FM-15+0003ENAT V0203601N007212200019N0112651N1-00501-01101999999ADDGA1021+006001999GA2041+010501999GF104991999999999999999999MA1101191999999REMMET060METAR ENAT 011550Z 36014KT 9999 FEW020 SCT035 M05/M11 Q1012;
0101010490999992009010116004+69983+023367FM-12+0003ENAT V0200101N006019999999N9999999N1-00571-01111101191ADDMA1999999101161MD1710021+9999REMSYN060AAXX  01161 01049 46/// /0106 11057 21111 30116 40119 57002;
0161010490999992009010116504+69983+023367FM-15+0003ENAT V0203301N007210090019N0112651N1-00501-00801999999ADDGA1021+006001999GA2071+009001999GF107991999999999999999999MA1101081999999MW1161REMMET070METAR ENAT 011650Z 33014KT 9999 VCSH FEW020 BKN030 M05/M08 Q1011 RESN;
0101010490999992009010117004+69983+023367FM-12+0003ENAT V0203301N008019999999N9999999N1-00561-00791101201ADDMA1999999101161MD1010001+9999REMSYN060AAXX  01171 01049 46/// /3308 11056 21079 30116 40120 50000;
0184010490999992009010117504+69983+023367FM-15+0003ENAT V0203201N01031012901CN0112651N1-00501-00901999999ADDGA1021+005401999GA2041+012901999GA3071+018001999GF107991999999999999999999MA1101081999999MW1161REMMET077METAR ENAT 011750Z 32020KT 9999 VCSH FEW018 SCT043 BKN066 M05/M09 Q1011 RESN;
0207010490999992009010118004+69983+023367FM-12+0003ENAT V0203301N011010120019N0250001N1-00451-01001101161ADDAA112003091AY181061AY221061GF107991051081008001071999KA1120M-00441MA1999999101131MD1810031+9999MW1151REMSYN094AAXX  01181 01049 11575 73311 11045 21100 30113 40116 58003 60032 71582 8587/ 333 11044 91116;
0179010490999992009010118504+69983+023367FM-15+0003ENAT V0203401N00981009601CN0112651N1-00501-00901999999ADDGA1021+006001999GA2041+009601999GA3071+013201999GF107991999999999999999999MA1101081999999MW1161REMMET072METAR ENAT 011850Z 34019KT 9999 VCSH FEW020 SCT032 BKN044 M05/M09 Q1011;
0101010490999992009010119004+69983+023367FM-12+0003ENAT V0203501N009019999999N9999999N1-00511-00901101171ADDMA1999999101131MD1810031+9999REMSYN060AAXX  01191 01049 46/// /3509 11051 21090 30113 40117 58003;
0145010490999992009010119504+69983+023367FM-15+0003ENAT V0200101N006710126019N0112651N1-00501-01101999999ADDGA1021+007501999GA2071+012601999GF107991999999999999999999MA1101081999999REMMET060METAR ENAT 011950Z 01013KT 9999 FEW025 BKN042 M05/M11 Q1011;
0101010490999992009010120004+69983+023367FM-12+0003ENAT V0200101N007019999999N9999999N1-00511-00991101181ADDMA1999999101151MD1510021+9999REMSYN060AAXX  01201 01049 46/// /0107 11051 21099 30115 40118 55002;
0168010490999992009010120504+69983+023367FM-15+0003ENAT V0203601N00671013501CN0112651N1-00501-01101999999ADDGA1021+009001999GA2041+013501999GA3071+030001999GF107991999999999999999999MA1101081999999REMMET067METAR ENAT 012050Z 36013KT 9999 FEW030 SCT045 BKN100 M05/M11 Q1011;
0161010490999992009010121004+69983+023367FM-12+0003ENAT V0203601N006010300019N0300001N1-00521-01001101161ADDAY121031AY221031GF107991031081008001071999MA1999999101131MD1010001+9999MW1021REMSYN072AAXX  01211 01049 41580 73606 11052 21100 30113 40116 50000 70222 8387/;
0168010490999992009010121504+69983+023367FM-15+0003ENAT V0203401N00821013501CN0112651N1-00501-01001999999ADDGA1021+009001999GA2041+013501999GA3071+030001999GF107991999999999999999999MA1101081999999REMMET067METAR ENAT 012150Z 34016KT 9999 FEW030 SCT045 BKN100 M05/M10 Q1011;
0101010490999992009010122004+69983+023367FM-12+0003ENAT V0203401N009019999999N9999999N1-00491-00921101131ADDMA1999999101101MD1810031+9999REMSYN060AAXX  01221 01049 46/// /3409 11049 21092 30110 40113 58003;
0145010490999992009010122504+69983+023367FM-15+0003ENAT V0203301N005110090019N0112651N1-00501-00901999999ADDGA1021+003001999GA2071+009001999GF107991999999999999999999MA1101021999999REMMET060METAR ENAT 012250Z 33010KT 9999 FEW010 BKN030 M05/M09 Q1010;
0101010490999992009010123004+69983+023367FM-12+0003ENAT V0203301N010019999999N9999999N1-00571-00801101081ADDMA1999999101051MD1810101+9999REMSYN060AAXX  01231 01049 46/// /3310 11057 21080 30105 40108 58010;
0145010490999992009010123504+69983+023367FM-15+0003ENAT V0203501N005110090019N0112651N1-00401-01101999999ADDGA1021+003001999GA2071+009001999GF107991999999999999999999MA1101021999999REMMET060METAR ENAT 012350Z 35010KT 9999 FEW010 BKN030 M04/M11 Q1010;
0117010490999992009010200004+69983+023367FM-12+0003ENAT V0203501N008019999999N9999999N1-00441-01121101031ADDMA1999999100991MD1710131+9999REMSYN076AAXX  02001 01049 16/// /3508 11044 21112 30099 40103 57013 6//// 333 91116;
0101010490999992009010201004+69983+023367FM-12+0003ENAT V0203501N009019999999N9999999N1-00501-00961101041ADDMA1999999101001MD1610091+9999REMSYN060AAXX  02011 01049 46/// /3509 11050 21096 30100 40104 56009;
0126010490999992009010201504+69983+023367FM-15+0003ENAT V0203501N013410060019N0040001N1-00501-01001999999ADDGA1091+006001999GF109991999999000251999999MA1101021999999REMMET057METAR ENAT 020150Z 35026KT 4000 SHSN VV020 M05/M10 Q1010;
0101010490999992009010202004+69983+023367FM-12+0003ENAT V0203501N010019999999N9999999N1-00531-00891101031ADDMA1999999101001MD1510051+9999REMSYN060AAXX  02021 01049 46/// /3510 11053 21089 30100 40103 55005;
0101010490999992009010203004+69983+023367FM-12+0003ENAT V0200101N006019999999N9999999N1-00561-01111101041ADDMA1999999101011MD1310011+9999REMSYN060AAXX  02031 01049 46/// /0106 11056 21111 30101 40104 53001;
0101010490999992009010204004+69983+023367FM-12+0003ENAT V0203601N008019999999N9999999N1-00591-01001101031ADDMA1999999101001MD1510011+9999REMSYN060AAXX  02041 01049 46/// /3608 11059 21100 30100 40103 55001;
0122010490999992009010204504+69983+023367FM-15+0003ENAT V0203501N006710060019N0112651N1-00601-01101999999ADDGA1071+006001999GF107991999999999999999999MA1101021999999REMMET053METAR ENAT 020450Z 35013KT 9999 BKN020 M06/M11 Q1010;
0101010490999992009010205004+69983+023367FM-12+0003ENAT V0203501N005019999999N9999999N1-00561-01021100991ADDMA1999999100961MD1810041+9999REMSYN060AAXX  02051 01049 46/// /3505 11056 21102 30096 40099 58004;
0145010490999992009010205504+69983+023367FM-15+0003ENAT V0203301N008210120019N0112651N1-00601-00901999999ADDGA1021+006001999GA2071+012001999GF107991999999999999999999MA1100911999999REMMET060METAR ENAT 020550Z 33016KT 9999 FEW020 BKN040 M06/M09 Q1009;
0142010490999992009010206004+69983+023367FM-12+0003ENAT V0203401N008019999999N9999999N1-00561-00951100981ADDKA1120N-00601MA1999999100941MD1710071+9999REMSYN088AAXX  02061 01049 16/// /3408 11056 21095 30094 40098 57007 6//// 333 21060 7//// 91118;
0159010490999992009010206504+69983+023367FM-15+0003ENAT V0203601N005110090019N0112651N1-00501-01201999999ADDGA1021+005401999GA2071+009001999GF107991999999999999999999MA1100911999999REMMET074METAR ENAT 020650Z 36010KT 330V040 9999 -SHSN FEW018 BKN030 M05/M12 Q1009;
0101010490999992009010207004+69983+023367FM-12+0003ENAT V0203601N005019999999N9999999N1-00551-01111100961ADDMA1999999100931MD1710071+9999REMSYN060AAXX  02071 01049 46/// /3605 11055 21111 30093 40096 57007;
0151010490999992009010207504+69983+023367FM-15+0003ENAT V0203301N005112200019N0112651N1-00601-00901999999ADDGA1021+003901999GA2041+009901999GF104991999999999999999999MA1100911999999REMMET066METAR ENAT 020750Z 33010KT 9999 -SHSN FEW013 SCT033 M06/M09 Q1009;
0101010490999992009010208004+69983+023367FM-12+0003ENAT V0203401N005019999999N9999999N1-00571-00961100961ADDMA1999999100921MD1710041+9999REMSYN060AAXX  02081 01049 46/// /3405 11057 21096 30092 40096 57004;
0174010490999992009010208504+69983+023367FM-15+0003ENAT V0203201N00771006301CN0112651N1-00501-00901999999ADDGA1021+003901999GA2041+006301999GA3071+010501999GF107991999999999999999999MA1100911999999REMMET073METAR ENAT 020850Z 32015KT 9999 -SHSN FEW013 SCT021 BKN035 M05/M09 Q1009;
0161010490999992009010209004+69983+023367FM-12+0003ENAT V0203301N009010042019N0300001N1-00501-00941100961ADDAY181031AY221031GF107991061061004501071999MA1999999100931MD1710021+9999MW1851REMSYN072AAXX  02091 01049 41480 73309 11050 21094 30093 40096 57002 78582 8667/;
0174010490999992009010209504+69983+023367FM-15+0003ENAT V0203301N00821006001CN0112651N1-00501-00901999999ADDGA1021+001801999GA2041+006001999GA3071+013501999GF107991999999999999999999MA1100911999999REMMET073METAR ENAT 020950Z 33016KT 9999 -SHSN FEW006 SCT020 BKN045 M05/M09 Q1009;
0101010490999992009010210004+69983+023367FM-12+0003ENAT V0203301N008019999999N9999999N1-00491-00891100971ADDMA1999999100931MD1410001+9999REMSYN060AAXX  02101 01049 46/// /3308 11049 21089 30093 40097 54000;
0182010490999992009010210504+69983+023367FM-15+0003ENAT V0203101N00671007501CN0112651N1-00501-00901999999ADDGA1021+003001999GA2041+007501999GA3071+009301999GF107991999999999999999999MA1100911999999REMMET081METAR ENAT 021050Z 31013KT 270V330 9999 -SHSN FEW010 SCT025 BKN031 M05/M09 Q1009;
0101010490999992009010211004+69983+023367FM-12+0003ENAT V0203101N009019999999N9999999N1-00441-00871100911ADDMA1999999100881MD1810041+9999REMSYN060AAXX  02111 01049 46/// /3109 11044 21087 30088 40091 58004;
0187010490999992009010211504+69983+023367FM-15+0003ENAT V0203201N00931006001CN0112651N1-00401-00901999999ADDGA1021+003001999GA2041+006001999GA3071+009001999GF107991999999999999999999MA1100811999999MW1161REMMET080METAR ENAT 021150Z 32018KT 290V360 9999 VCSH FEW010 SCT020 BKN030 M04/M09 Q1008;
0177010490999992009010212004+69983+023367FM-12+0003ENAT V0203201N010010042019N0300001N1-00391-00851100861ADDAY181061AY221061GF107991061061004501071999MA1999999100831MD1810091+9999MW1021REMSYN088AAXX  02121 01049 11480 73210 11039 21085 30083 40086 58009 6//// 70282 8667/ 333 91113;
0179010490999992009010212504+69983+023367FM-15+0003ENAT V0203101N01131007501CN0112651N1-00401-00901999999ADDGA1021+003001999GA2041+007501999GA3071+010201999GF107991999999999999999999MA1100811999999MW1161REMMET072METAR ENAT 021250Z 31022KT 9999 VCSH FEW010 SCT025 BKN034 M04/M09 Q1008;
0101010490999992009010213004+69983+023367FM-12+0003ENAT V0203101N012019999999N9999999N1-00331-00781100841ADDMA1999999100801MD1710131+9999REMSYN060AAXX  02131 01049 46/// /3112 11033 21078 30080 40084 57013;
0126010490999992009010213504+69983+023367FM-15+0003ENAT V0203001N010310045019N0030001N1-00301-00801999999ADDGA1091+004501999GF109991999999000251999999MA1100811999999REMMET057METAR ENAT 021350Z 30020KT 3000 SHSN VV015 M03/M08 Q1008;
0101010490999992009010214004+69983+023367FM-12+0003ENAT V0203001N009019999999N9999999N1-00331-00731100811ADDMA1999999100781MD1710101+9999REMSYN060AAXX  02141 01049 46/// /3009 11033 21073 30078 40081 57010;
0127010490999992009010214504+69983+023367FM-15+0003ENAT V0203501N009310015019N0005001N1-00301-00401999999ADDGA1091+001501999GF109991999999000251999999MA1100811999999REMMET058METAR ENAT 021450Z 35018KT 0500 +SHSN VV005 M03/M04 Q1008;
0075010490999992009010215004+69983+023367FM-12+0003ENAT V02099999999999999999N9999999N1+99999+99999999999REMSYN066AAXX  02151 01049 41X05 93509 11038 21044 30080 40084 55003 78682;
0126010490999992009010215504+69983+023367FM-15+0003ENAT V0203301N006710036019N0030001N1-00301-00501999999ADDGA1091+003601999GF109991999999000251999999MA1100811999999REMMET057METAR ENAT 021550Z 33013KT 3000 SHSN VV012 M03/M05 Q1008;
0101010490999992009010216004+69983+023367FM-12+0003ENAT V0203501N006019999999N9999999N1-00371-00441100841ADDMA1999999100811MD1510011+9999REMSYN060AAXX  02161 01049 46/// /3506 11037 21044 30081 40084 55001;
0151010490999992009010216504+69983+023367FM-15+0003ENAT V0203201N006710075019N0060001N1-00301-00401999999ADDGA1021+004501999GA2071+007501999GF107991999999999999999999MA1100811999999REMMET066METAR ENAT 021650Z 32013KT 6000 -SHSN FEW015 BKN025 M03/M04 Q1008;
0101010490999992009010217004+69983+023367FM-12+0003ENAT V0203201N007019999999N9999999N1-00331-00441100821ADDMA1999999100781MD1010001+9999REMSYN060AAXX  02171 01049 46/// /3207 11033 21044 30078 40082 50000;
0126010490999992009010217504+69983+023367FM-15+0003ENAT V0203501N005110036019N0025001N1-00401-00501999999ADDGA1091+003601999GF109991999999000251999999MA1100811999999REMMET057METAR ENAT 021750Z 35010KT 2500 SHSN VV012 M04/M05 Q1008;
0097010490999992009010218004+69983+023367FM-12+0003ENAT V02099999999999999999N9999999N1+99999+99999999999REMSYN088AAXX  02181 01049 11X25 93505 11035 21044 30079 40082 55002 60052 78582 333 11028 91115;
0127010490999992009010218504+69983+023367FM-15+0003ENAT V0203301N007210018019N0010001N1-00401-00501999999ADDGA1091+001801999GF109991999999000251999999MA1100811999999REMMET058METAR ENAT 021850Z 33014KT 1000 +SHSN VV006 M04/M05 Q1008;
0101010490999992009010219004+69983+023367FM-12+0003ENAT V0203401N007019999999N9999999N1-00391-00461100831ADDMA1999999100791MD1510011+9999REMSYN060AAXX  02191 01049 46/// /3407 11039 21046 30079 40083 55001;
0127010490999992009010219504+69983+023367FM-15+0003ENAT V0203601N006210027019N0010001N1-00401-00501999999ADDGA1091+002701999GF109991999999000251999999MA1100811999999REMMET058METAR ENAT 021950Z 36012KT 1000 +SHSN VV009 M04/M05 Q1008;
0101010490999992009010220004+69983+023367FM-12+0003ENAT V0203601N006019999999N9999999N1-00371-00441100851ADDMA1999999100821MD1210041+9999REMSYN060AAXX  02201 01049 46/// /3606 11037 21044 30082 40085 52004;
0126010490999992009010220504+69983+023367FM-15+0003ENAT V0203401N008710030019N0020001N1-00401-00501999999ADDGA1091+003001999GF109991999999000251999999MA1100811999999REMMET057METAR ENAT 022050Z 34017KT 2000 SHSN VV010 M04/M05 Q1008;
0075010490999992009010221004+69983+023367FM-12+0003ENAT V02099999999999999999N9999999N1+99999+99999999999REMSYN066AAXX  02211 01049 41X20 93408 11037 21043 30084 40087 52005 78582;
0126010490999992009010221504+69983+023367FM-15+0003ENAT V0203401N009310021019N0010001N1-00401-00401999999ADDGA1091+002101999GF109991999999000251999999MA1100811999999REMMET057METAR ENAT 022150Z 34018KT 1000 SHSN VV007 M04/M04 Q1008;
0101010490999992009010222004+69983+023367FM-12+0003ENAT V0203501N009019999999N9999999N1-00381-00431100871ADDMA1999999100841MD1210051+9999REMSYN060AAXX  02221 01049 46/// /3509 11038 21043 30084 40087 52005;
0126010490999992009010222504+69983+023367FM-15+0003ENAT V0203601N008210036019N0020001N1-00401-00401999999ADDGA1091+003601999GF109991999999000251999999MA1100811999999REMMET057METAR ENAT 022250Z 36016KT 2000 SHSN VV012 M04/M04 Q1008;
0101010490999992009010223004+69983+023367FM-12+0003ENAT V0200101N008019999999N9999999N1-00381-00471100881ADDMA1999999100851MD1210031+9999REMSYN060AAXX  02231 01049 46/// /0108 11038 21047 30085 40088 52003;
0181010490999992009010223504+69983+023367FM-15+0003ENAT V0203401N00571003601CN0060001N1-00401-00401999999ADDGA1021+001801999GA2041+003601999GA3071+005101999GF107991999999999999999999MA1100811999999REMMET080METAR ENAT 022350Z 34011KT 6000 4000SE -SHSN FEW006 SCT012 BKN017 M04/M04 Q1008;
0117010490999992009010300004+69983+023367FM-12+0003ENAT V0203401N006019999999N9999999N1-00361-00431100891ADDMA1999999100861MD1310021+9999REMSYN076AAXX  03001 01049 16/// /3406 11036 21043 30086 40089 53002 6//// 333 91112;
0127010490999992009010300204+69983+023367FM-15+0003ENAT V0203201N004610030019N0010001N1-00301-00401999999ADDGA1091+003001999GF109991999999000251999999MA1100811999999REMMET058METAR ENAT 030020Z 32009KT 1000 +SHSN VV010 M03/M04 Q1008;
0127010490999992009010300504+69983+023367FM-15+0003ENAT V0203601N003110024019N0020001N1-00301-00401999999ADDGA1091+002401999GF109991999999000251999999MA1100811999999REMMET058METAR ENAT 030050Z 36006KT 2000 +SHSN VV008 M03/M04 Q1008;
0101010490999992009010301004+69983+023367FM-12+0003ENAT V0200101N004019999999N9999999N1-00381-00471100911ADDMA1999999100871MD1310031+9999REMSYN060AAXX  03011 01049 46/// /0104 11038 21047 30087 40091 53003;
0145010490999992009010301504+69983+023367FM-15+0003ENAT V0200201N005710054019N0112651N1-00401-00501999999ADDGA1021+002101999GA2071+005401999GF107991999999999999999999MA1100911999999REMMET060METAR ENAT 030150Z 02011KT 9999 FEW007 BKN018 M04/M05 Q1009;
0101010490999992009010302004+69983+023367FM-12+0003ENAT V0203601N006019999999N9999999N1-00361-00501100931ADDMA1999999100901MD1310051+9999REMSYN060AAXX  03021 01049 46/// /3606 11036 21050 30090 40093 53005;
0173010490999992009010302504+69983+023367FM-15+0003ENAT V0203401N00511003001CN0060001N1-00401-00501999999ADDGA1021+001801999GA2041+003001999GA3071+007501999GF107991999999999999999999MA1100911999999REMMET072METAR ENAT 030250Z 34010KT 6000 SHSN FEW006 SCT010 BKN025 M04/M05 Q1009;
0101010490999992009010303004+69983+023367FM-12+0003ENAT V0203401N005019999999N9999999N1-00421-00491100941ADDMA1999999100901MD1210041+9999REMSYN060AAXX  03031 01049 46/// /3405 11042 21049 30090 40094 52004;
0175010490999992009010303504+69983+023367FM-15+0003ENAT V0200201N00411006601CN0112651N1-00401-00501999999ADDGA1021+003001999GA2041+006601999GA3071+021001999GF107991999999999999999999MA1100911999999REMMET074METAR ENAT 030350Z 02008KT 9999 FEW010 SCT022 BKN070 M04/M05 Q1009 RESHSN;
0101010490999992009010304004+69983+023367FM-12+0003ENAT V0200101N005019999999N9999999N1-00371-00511100941ADDMA1999999100901MD1010031+9999REMSYN060AAXX  03041 01049 46/// /0105 11037 21051 30090 40094 50003;
0157010490999992009010304204+69983+023367FM-15+0003ENAT V0203401N006210060019N0112651N1-00401-00501999999ADDGA1021+003001999GA2071+006001999GF107991999999999999999999MA1100911999999REMMET072METAR ENAT 030420Z 34012KT 9999 4000W -SHSN FEW010 BKN020 M04/M05 Q1009;
0174010490999992009010304504+69983+023367FM-15+0003ENAT V0203301N00671004801CN0040001N1-00401-00501999999ADDGA1021+002401999GA2041+004801999GA3071+006001999GF107991999999999999999999MA1100911999999REMMET073METAR ENAT 030450Z 33013KT 4000 -SHSN FEW008 SCT016 BKN020 M04/M05 Q1009;
0101010490999992009010305004+69983+023367FM-12+0003ENAT V0203401N006019999999N9999999N1-00391-00451100941ADDMA1999999100901MD1410001+9999REMSYN060AAXX  03051 01049 46/// /3406 11039 21045 30090 40094 54000;
0179010490999992009010305504+69983+023367FM-15+0003ENAT V0203501N00721003001CN0112651N1-00301-00501999999ADDGA1021+002101999GA2041+003001999GA3071+018001999GF107991999999999999999999MA1100911999999MW1161REMMET072METAR ENAT 030550Z 35014KT 9999 VCSH FEW007 SCT010 BKN060 M03/M05 Q1009;
0224010490999992009010306004+69983+023367FM-12+0003ENAT V0203501N005010021019N0200001N1-00331-00471100961ADDAA112007991AA224012791AY181061AY221061GF106991051061002501071999KA1120N-00441MA1999999100921MD1210021+9999MW1851REMSYN100AAXX  03061 01049 11370 63505 11033 21047 30092 40096 52002 60082 78582 8567/ 333 21044 70127 91112;
0161010490999992009010306504+69983+023367FM-15+0003ENAT V0203501N006712200019N0112651N1-00401-00501999999ADDGA1021+003601999GA2041+010501999GF104991999999999999999999MA1100911999999MW1161REMMET070METAR ENAT 030650Z 35013KT 9999 VCSH FEW012 SCT035 M04/M05 Q1009 RESN;
0101010490999992009010307004+69983+023367FM-12+0003ENAT V0203501N007019999999N9999999N1-00351-00491100981ADDMA1999999100951MD1210041+9999REMSYN060AAXX  03071 01049 46/// /3507 11035 21049 30095 40098 52004;
0126010490999992009010307504+69983+023367FM-15+0003ENAT V0203601N005710045019N0025001N1-00401-00501999999ADDGA1091+004501999GF109991999999000251999999MA1100911999999REMMET057METAR ENAT 030750Z 36011KT 2500 SHSN VV015 M04/M05 Q1009;
0101010490999992009010308004+69983+023367FM-12+0003ENAT V0203601N006019999999N9999999N1-00401-00491100991ADDMA1999999100951MD1210051+9999REMSYN060AAXX  03081 01049 46/// /3606 11040 21049 30095 40099 52005;
0126010490999992009010308504+69983+023367FM-15+0003ENAT V0203501N006710048019N0030001N1-00401-00501999999ADDGA1091+004801999GF109991999999000251999999MA1100911999999REMMET057METAR ENAT 030850Z 35013KT 3000 SHSN VV016 M04/M05 Q1009;
0075010490999992009010309004+69983+023367FM-12+0003ENAT V02099999999999999999N9999999N1+99999+99999999999REMSYN066AAXX  03091 01049 41X03 93507 11041 21051 30096 40099 50003 78582;
0159010490999992009010309504+69983+023367FM-15+0003ENAT V0200501N005112200019N0112651N1-00401-00501999999ADDGA1021+003601999GA2041+007501999GF104991999999999999999999MW1161REMMET083METAR ENAT 030950Z 05010KT 350V080 9999 3000E VCSH FEW012 SCT025 M04/M05 1010 RESN;
0101010490999992009010310004+69983+023367FM-12+0003ENAT V0203601N005019999999N9999999N1-00411-00601100971ADDMA1999999100941MD1010011+9999REMSYN060AAXX  03101 01049 46/// /3605 11041 21060 30094 40097 50001;
0156010490999992009010310204+69983+023367FM-15+0003ENAT V0203601N005112200019N0112651N1-00401-00601999999ADDGA1021+003601999GA2041+007501999GF104991999999999999999999MA1101021999999MW1161REMMET065METAR ENAT 031020Z 36010KT 9999 VCSH FEW012 SCT025 M04/M06 Q1010;
0156010490999992009010310504+69983+023367FM-15+0003ENAT V0203401N006712200019N0112651N1-00401-00601999999ADDGA1021+004501999GA2041+007501999GF104991999999999999999999MA1100911999999MW1161REMMET065METAR ENAT 031050Z 34013KT 9999 VCSH FEW015 SCT025 M04/M06 Q1009;
0101010490999992009010311004+69983+023367FM-12+0003ENAT V0203501N007019999999N9999999N1-00391-00621100971ADDMA1999999100941MD1710011+9999REMSYN060AAXX  03111 01049 46/// /3507 11039 21062 30094 40097 57001;
0163010490999992009010311504+69983+023367FM-15+0003ENAT V0203501N007712200019N0112651N1-00401-00601999999ADDGA1021+004501999GA2041+007501091GF104991999999999999999999MA1100911999999MW1161REMMET072METAR ENAT 031150Z 35015KT 9999 VCSH FEW015 SCT025CB M04/M06 Q1009 RESN;
0177010490999992009010312004+69983+023367FM-12+0003ENAT V0203501N008010300019N0300001N1-00371-00721100941ADDAY181061AY221061GF105991031031004501061999MA1999999100911MD1810051+9999MW1151REMSYN088AAXX  03121 01049 11480 53508 11037 21072 30091 40094 58005 6//// 71582 8336/ 333 91112;
0158010490999992009010312504+69983+023367FM-15+0003ENAT V0203601N005712200019N0112651N1-00401-00801999999ADDGA1021+004501999GA2041+007501091GF104991999999999999999999MA1100911999999MW1161REMMET067METAR ENAT 031250Z 36011KT 9999 VCSH FEW015 SCT025CB M04/M08 Q1009;
0101010490999992009010313004+69983+023367FM-12+0003ENAT V0203601N006019999999N9999999N1-00421-00801100941ADDMA1999999100911MD1710031+9999REMSYN060AAXX  03131 01049 46/// /3606 11042 21080 30091 40094 57003;
0176010490999992009010313504+69983+023367FM-15+0003ENAT V0203601N006710096019N0112651N1-00501-00601999999ADDGA1021+003601999GA2021+007501091GA3071+009601999GF107991999999999999999999MA1100911999999REMMET075METAR ENAT 031350Z 36013KT 9999 -SHSN FEW012 FEW025CB BKN032 M05/M06 Q1009;
0101010490999992009010314004+69983+023367FM-12+0003ENAT V0203601N007019999999N9999999N1-00531-00641100951ADDMA1999999100911MD1510031+9999REMSYN060AAXX  03141 01049 46/// /3607 11053 21064 30091 40095 55003;
0147010490999992009010314504+69983+023367FM-15+0003ENAT V0203301N008212200019N0112651N1-00401-00801999999ADDGA1041+007501091GA2041+018001999GF104991999999999999999999MA1100911999999REMMET062METAR ENAT 031450Z 33016KT 9999 SCT025CB SCT060 M04/M08 Q1009;
0161010490999992009010315004+69983+023367FM-12+0003ENAT V0203601N008010300019N0200001N1-00481-00781100941ADDAY181031AY221031GF106991031021008001061001MA1999999100911MD1410001+9999MW1151REMSYN072AAXX  03151 01049 41570 63608 11048 21078 30091 40094 54000 71582 83260;
0148010490999992009010315504+69983+023367FM-15+0003ENAT V0203301N008212200019N0112651N1-00501-00801999999ADDGA1021+004501999GA2041+007501021GF104991999999999999999999MA1100911999999REMMET063METAR ENAT 031550Z 33016KT 9999 FEW015 SCT025TCU M05/M08 Q1009;
0101010490999992009010316004+69983+023367FM-12+0003ENAT V0203301N009019999999N9999999N1-00451-00851100891ADDMA1999999100861MD1810051+9999REMSYN060AAXX  03161 01049 46/// /3309 11045 21085 30086 40089 58005;
0148010490999992009010316504+69983+023367FM-15+0003ENAT V0203301N012312200019N0112651N1-00501-00801999999ADDGA1021+006001999GA2041+009001021GF104991999999999999999999MA1100811999999REMMET063METAR ENAT 031650Z 33024KT 9999 FEW020 SCT030TCU M05/M08 Q1008;
0101010490999992009010317004+69983+023367FM-12+0003ENAT V0203301N012019999999N9999999N1-00451-00801100841ADDMA1999999100811MD1810101+9999REMSYN060AAXX  03171 01049 46/// /3312 11045 21080 30081 40084 58010;
0145010490999992009010317504+69983+023367FM-15+0003ENAT V0203601N005712200019N0112651N1-00501-01001999999ADDGA1021+006001999GA2041+009001999GF104991999999999999999999MA1100811999999REMMET060METAR ENAT 031750Z 36011KT 9999 FEW020 SCT030 M05/M10 Q1008;
0207010490999992009010318004+69983+023367FM-12+0003ENAT V0203601N005010120019N0200001N1-00521-00961100821ADDAA112003091AY181061AY221061GF106991061081008001999999KA1120M-00321MA1999999100781MD1710121+9999MW1151REMSYN094AAXX  03181 01049 11570 63605 11052 21096 30078 40082 57012 60032 71582 868// 333 11032 91116;
0145010490999992009010318504+69983+023367FM-15+0003ENAT V0203401N010312200019N0112651N1-00401-01001999999ADDGA1021+006001999GA2041+012001999GF104991999999999999999999MA1100711999999REMMET060METAR ENAT 031850Z 34020KT 9999 FEW020 SCT040 M04/M10 Q1007;
0101010490999992009010319004+69983+023367FM-12+0003ENAT V0203401N009019999999N9999999N1-00431-00961100781ADDMA1999999100741MD1710121+9999REMSYN060AAXX  03191 01049 46/// /3409 11043 21096 30074 40078 57012;
0151010490999992009010319504+69983+023367FM-15+0003ENAT V0203301N012912200019N0112651N1-00501-00901999999ADDGA1021+004501999GA2041+009001999GF104991999999999999999999MA1100711999999REMMET066METAR ENAT 031950Z 33025KT 9999 -SHSN FEW015 SCT030 M05/M09 Q1007;
0101010490999992009010320004+69983+023367FM-12+0003ENAT V0203301N011019999999N9999999N1-00491-00811100781ADDMA1999999100751MD1510061+9999REMSYN060AAXX  03201 01049 46/// /3311 11049 21081 30075 40078 55006;
0101010490999992009010321004+69983+023367FM-12+0003ENAT V0203401N010019999999N9999999N1-00501-00851100761ADDMA1999999100721MD1610061+9999REMSYN060AAXX  03211 01049 46/// /3410 11050 21085 30072 40076 56006;
0101010490999992009010322004+69983+023367FM-12+0003ENAT V0203301N012019999999N9999999N1-00471-00981100721ADDMA1999999100681MD1810061+9999REMSYN060AAXX  03221 01049 46/// /3312 11047 21098 30068 40072 58006;
0101010490999992009010323004+69983+023367FM-12+0003ENAT V0203401N009019999999N9999999N1-00561-00821100761ADDMA1999999100721MD1510021+9999REMSYN060AAXX  03231 01049 46/// /3409 11056 21082 30072 40076 55002;
0117010490999992009010400004+69983+023367FM-12+0003ENAT V0203601N006019999999N9999999N1-00571-00891100741ADDMA1999999100701MD1510021+9999REMSYN076AAXX  04001 01049 16/// /3606 11057 21089 30070 40074 55002 6//// 333 91117;
0127010490999992009010400204+69983+023367FM-15+0003ENAT V0203401N006210060019N0040001N1-00601-00901999999ADDGA1091+006001999GF109991999999000251999999MA1100711999999REMMET058METAR ENAT 040020Z 34012KT 4000 -SHSN VV020 M06/M09 Q1007;
0101010490999992009010401004+69983+023367FM-12+0003ENAT V0203501N004019999999N9999999N1-00571-00931100711ADDMA1999999100671MD1810011+9999REMSYN060AAXX  04011 01049 46/// /3504 11057 21093 30067 40071 58001;
0145010490999992009010401504+69983+023367FM-15+0003ENAT V0203201N007710075019N0112651N1-00501-01001999999ADDGA1021+006001999GA2071+007501999GF107991999999999999999999MA1100711999999REMMET060METAR ENAT 040150Z 32015KT 9999 FEW020 BKN025 M05/M10 Q1007;
0101010490999992009010402004+69983+023367FM-12+0003ENAT V0203401N005019999999N9999999N1-00531-01041100721ADDMA1999999100681MD1510041+9999REMSYN060AAXX  04021 01049 46/// /3405 11053 21104 30068 40072 55004;
0101010490999992009010403004+69983+023367FM-12+0003ENAT V0203601N005019999999N9999999N1-00541-01021100731ADDMA1999999100701MD1510001+9999REMSYN060AAXX  04031 01049 46/// /3605 11054 21102 30070 40073 55000;
0101010490999992009010404004+69983+023367FM-12+0003ENAT V0203601N007019999999N9999999N1-00541-00981100741ADDMA1999999100701MD1210031+9999REMSYN060AAXX  04041 01049 46/// /3607 11054 21098 30070 40074 52003;
0101010490999992009010405004+69983+023367FM-12+0003ENAT V0203401N007019999999N9999999N1-00551-00901100761ADDMA1999999100721MD1210041+9999REMSYN060AAXX  04051 01049 46/// /3407 11055 21090 30072 40076 52004;
0145010490999992009010405504+69983+023367FM-15+0003ENAT V0200101N005710150019N0112651N1-00501-01001999999ADDGA1021+006001999GA2071+015001999GF107991999999999999999999MA1100711999999REMMET060METAR ENAT 040550Z 01011KT 9999 FEW020 BKN050 M05/M10 Q1007;
0224010490999992009010406004+69983+023367FM-12+0003ENAT V0203601N006010120019N0200001N1-00551-00911100781ADDAA112002091AA224004191AY181061AY221061GF107991061081008001071999KA1120N-00631MA1999999100751MD1310041+9999MW1151REMSYN100AAXX  04061 01049 11570 73606 11055 21091 30075 40078 53004 60022 71582 8687/ 333 21063 70041 91112;
0145010490999992009010406504+69983+023367FM-15+0003ENAT V0203501N005112200019N0112651N1-00601-01001999999ADDGA1021+004501999GA2041+007501999GF104991999999999999999999MA1100811999999REMMET060METAR ENAT 040650Z 35010KT 9999 FEW015 SCT025 M06/M10 Q1008;
0101010490999992009010407004+69983+023367FM-12+0003ENAT V0203301N006019999999N9999999N1-00561-00861100821ADDMA1999999100791MD1310081+9999REMSYN060AAXX  04071 01049 46/// /3306 11056 21086 30079 40082 53008;
0145010490999992009010407504+69983+023367FM-15+0003ENAT V0203201N005110105019N0112651N1-00501-01001999999ADDGA1021+006001999GA2071+010501999GF107991999999999999999999MA1100811999999REMMET060METAR ENAT 040750Z 32010KT 9999 FEW020 BKN035 M05/M10 Q1008;
0101010490999992009010408004+69983+023367FM-12+0003ENAT V0203401N006019999999N9999999N1-00501-00831100861ADDMA1999999100821MD1310101+9999REMSYN060AAXX  04081 01049 46/// /3406 11050 21083 30082 40086 53010;
0145010490999992009010408504+69983+023367FM-15+0003ENAT V0201201N002610105019N0112651N1-00801-01101999999ADDGA1021+006001999GA2071+010501999GF107991999999999999999999MA1100811999999REMMET060METAR ENAT 040850Z 12005KT 9999 FEW020 BKN035 M08/M11 Q1008;
0161010490999992009010409004+69983+023367FM-12+0003ENAT V0201301N003010120019N0200001N1-00771-01071100891ADDAY181031AY221031GF106991061081008001999999MA1999999100861MD1210111+9999MW1151REMSYN072AAXX  04091 01049 41570 61303 11077 21107 30086 40089 52011 71582 868//;
0122010490999992009010409504+69983+023367FM-15+0003ENAT V0203401N005110075019N0112651N1-00501-00901999999ADDGA1071+007501999GF107991999999999999999999MA1100911999999REMMET053METAR ENAT 040950Z 34010KT 9999 BKN025 M05/M09 Q1009;
0101010490999992009010410004+69983+023367FM-12+0003ENAT V0200901N004019999999N9999999N1-00611-01021100911ADDMA1999999100871MD1210091+9999REMSYN060AAXX  04101 01049 46/// /0904 11061 21102 30087 40091 52009;
0156010490999992009010410504+69983+023367FM-15+0003ENAT V0209999V001010090019N0112651N1-00701-01001999999ADDGA1021+006001999GA2071+009001999GF107991999999999999999999MA1100911999999MW1161REMMET065METAR ENAT 041050Z VRB02KT 9999 VCSH FEW020 BKN030 M07/M10 Q1009;
0101010490999992009010411004+69983+023367FM-12+0003ENAT V0200301N004019999999N9999999N1-00701-00971100941ADDMA1999999100911MD1210081+9999REMSYN060AAXX  04111 01049 46/// /0304 11070 21097 30091 40094 52008;
0151010490999992009010411504+69983+023367FM-15+0003ENAT V0201401N002112200019N0112651N1-00701-01001999999ADDGA1021+006001999GA2041+009001999GF104991999999999999999999MA1100911999999REMMET066METAR ENAT 041150Z 14004KT 9999 -SHSN FEW020 SCT030 M07/M10 Q1009;
0177010490999992009010412004+69983+023367FM-12+0003ENAT V0201301N002010120019N0300001N1-00701-00901100961ADDAY181061AY221061GF105991051081008001001001MA1999999100931MD1210071+9999MW1851REMSYN088AAXX  04121 01049 11580 51302 11070 21090 30093 40096 52007 6//// 78582 85800 333 91110;
0156010490999992009010412504+69983+023367FM-15+0003ENAT V0209999V001012200019N0112651N1-00701-00901999999ADDGA1021+004501999GA2041+010501999GF104991999999999999999999MA1101021999999MW1161REMMET065METAR ENAT 041250Z VRB02KT 9999 VCSH FEW015 SCT035 M07/M09 Q1010;
0101010490999992009010413004+69983+023367FM-12+0003ENAT V0201701N002019999999N9999999N1-00701-00891101021ADDMA1999999100991MD1310111+9999REMSYN060AAXX  04131 01049 46/// /1702 11070 21089 30099 40102 53011;
0156010490999992009010413504+69983+023367FM-15+0003ENAT V0209999V001012200019N0112651N1-00701-00901999999ADDGA1021+006001999GA2041+010501999GF104991999999999999999999MA1100911999999MW1161REMMET065METAR ENAT 041350Z VRB02KT 9999 VCSH FEW020 SCT035 M07/M09 Q1009;
0101010490999992009010414004+69983+023367FM-12+0003ENAT V0201601N002019999999N9999999N1-00841-01121100991ADDMA1999999100961MD1010051+9999REMSYN060AAXX  04141 01049 46/// /1602 11084 21112 30096 40099 50005;
0161010490999992009010414504+69983+023367FM-15+0003ENAT V0201701N003112200019N0112651N1-00701-00901999999ADDGA1021+006001999GA2041+010501999GF104991999999999999999999MA1100911999999MW1161REMMET070METAR ENAT 041450Z 17006KT 9999 VCSH FEW020 SCT035 M07/M09 Q1009 RESN;
0101010490999992009010415004+69983+023367FM-12+0003ENAT V0201901N003019999999N9999999N1-00681-00921101001ADDMA1999999100971MD1010041+9999REMSYN060AAXX  04151 01049 46/// /1903 11068 21092 30097 40100 50004;
0133010490999992009010415504+69983+023367FM-15+0003ENAT V0201801N003112200019N0112651N1-00701-01101999999ADDGA1041+008101999GF104991999999999999999999MA1100911999999MW1161REMMET058METAR ENAT 041550Z 18006KT 9999 VCSH SCT027 M07/M11 Q1009;
0101010490999992009010416004+69983+023367FM-12+0003ENAT V0201701N003019999999N9999999N1-00741-01041100971ADDMA1999999100941MD1710051+9999REMSYN060AAXX  04161 01049 46/// /1703 11074 21104 30094 40097 57005;
0133010490999992009010416504+69983+023367FM-15+0003ENAT V0202001N002610090019N0112651N1-00701-01001999999ADDGA1071+009001999GF107991999999999999999999MA1100911999999MW1161REMMET058METAR ENAT 041650Z 20005KT 9999 VCSH BKN030 M07/M10 Q1009;
0101010490999992009010417004+69983+023367FM-12+0003ENAT V0202101N002019999999N9999999N1-00661-01001100921ADDMA1999999100881MD1810081+9999REMSYN060AAXX  04171 01049 46/// /2102 11066 21100 30088 40092 58008;
0156010490999992009010417504+69983+023367FM-15+0003ENAT V0202001N003610090019N0112651N1-00701-01101999999ADDGA1021+006001999GA2071+009001999GF107991999999999999999999MA1100811999999MW1161REMMET065METAR ENAT 041750Z 20007KT 9999 VCSH FEW020 BKN030 M07/M11 Q1008;
0207010490999992009010418004+69983+023367FM-12+0003ENAT V0201501N002010120019N0250001N1-00701-01041100851ADDAA112000591AY181061AY221061GF108991051081008001071999KA1120M-00441MA1999999100821MD1810151+9999MW1151REMSYN094AAXX  04181 01049 11575 81502 11070 21104 30082 40085 58015 69942 71582 8587/ 333 11044 91105;
0156010490999992009010418504+69983+023367FM-15+0003ENAT V0201301N001010090019N0112651N1-00701-01101999999ADDGA1021+006001999GA2071+009001999GF107991999999999999999999MA1100711999999MW1161REMMET065METAR ENAT 041850Z 13002KT 9999 VCSH FEW020 BKN030 M07/M11 Q1007;
0101010490999992009010419004+69983+023367FM-12+0003ENAT V0201701N002019999999N9999999N1-00751-01081100741ADDMA1999999100711MD1810231+9999REMSYN060AAXX  04191 01049 46/// /1702 11075 21108 30071 40074 58023;
0145010490999992009010419504+69983+023367FM-15+0003ENAT V0202001N004110180019N0112651N1-00701-01101999999ADDGA1041+010501999GA2071+018001999GF107991999999999999999999MA1100611999999REMMET060METAR ENAT 041950Z 20008KT 9999 SCT035 BKN060 M07/M11 Q1006;
0101010490999992009010420004+69983+023367FM-12+0003ENAT V0202001N004019999999N9999999N1-00641-00971100651ADDMA1999999100611MD1810271+9999REMSYN060AAXX  04201 01049 46/// /2004 11064 21097 30061 40065 58027;
0145010490999992009010420504+69983+023367FM-15+0003ENAT V0202001N005110180019N0112651N1-00501-00901999999ADDGA1021+010501999GA2071+018001999GF107991999999999999999999MA1100411999999REMMET060METAR ENAT 042050Z 20010KT 9999 FEW035 BKN060 M05/M09 Q1004;
0161010490999992009010421004+69983+023367FM-12+0003ENAT V0202001N005010300019N0300001N1-00521-00911100481ADDAY121031AY221031GF107991021021012501071999MA1999999100451MD1810371+9999MW1151REMSYN072AAXX  04211 01049 41680 72005 11052 21091 30045 40048 58037 71522 8227/;
0145010490999992009010421504+69983+023367FM-15+0003ENAT V0201801N004610150019N0112651N1-00501-00901999999ADDGA1021+010501999GA2071+015001999GF107991999999999999999999MA1100201999999REMMET060METAR ENAT 042150Z 18009KT 9999 FEW035 BKN050 M05/M09 Q1002;
0101010490999992009010422004+69983+023367FM-12+0003ENAT V0201901N004019999999N9999999N1-00461-00901100291ADDMA1999999100251MD1810461+9999REMSYN060AAXX  04221 01049 46/// /1904 11046 21090 30025 40029 58046;
0145010490999992009010422504+69983+023367FM-15+0003ENAT V0201801N004110135019N0112651N1-00401-00901999999ADDGA1021+010501999GA2071+013501999GF107991999999999999999999MA1100101999999REMMET060METAR ENAT 042250Z 18008KT 9999 FEW035 BKN045 M04/M09 Q1001;
0101010490999992009010423004+69983+023367FM-12+0003ENAT V0202201N005019999999N9999999N1-00371-00831100061ADDMA1999999100031MD1810591+9999REMSYN060AAXX  04231 01049 46/// /2205 11037 21083 30003 40006 58059;
0117010490999992009010500004+69983+023367FM-12+0003ENAT V0202001N006019999999N9999999N1-00341-00811099821ADDMA1999999099781MD1810661+9999REMSYN076AAXX  05001 01049 16/// /2006 11034 21081 39978 49982 58066 6//// 333 91111;
0145010490999992009010500204+69983+023367FM-15+0003ENAT V0202001N005110150019N0112651N1-00301-00801999999ADDGA1021+010501999GA2071+015001999GF107991999999999999999999MA1099701999999REMMET060METAR ENAT 050020Z 20010KT 9999 FEW035 BKN050 M03/M08 Q0997;
0145010490999992009010500504+69983+023367FM-15+0003ENAT V0202001N005710120019N0112651N1-00401-00701999999ADDGA1021+007501999GA2071+012001999GF107991999999999999999999MA1099491999999REMMET060METAR ENAT 050050Z 20011KT 9999 FEW025 BKN040 M04/M07 Q0995;
0120010490999992009010501004+69983+023367FM-12+0003ENAT V0202001N006019999999N9999999N1-00371-00711099571ADDMA1999999099541MD1810722+9999REMSYN060AAXX  05011 01049 46/// /2006 11037 21071 39954 49957 58072;EQDQ01+000722APC3  
0101010490999992009010502004+69983+023367FM-12+0003ENAT V0202101N007019999999N9999999N1-00291-00551099341ADDMA1999999099311MD1810721+9999REMSYN060AAXX  05021 01049 46/// /2107 11029 21055 39931 49934 58072;
0126010490999992009010502504+69983+023367FM-15+0003ENAT V0202201N004110036019N0015001N1-00301-00401999999ADDGA1091+003601999GF109991999999000251999999MA1099191999999REMMET057METAR ENAT 050250Z 22008KT 1500 SHSN VV012 M03/M04 Q0992;
0120010490999992009010503004+69983+023367FM-12+0003ENAT V0202801N006019999999N9999999N1-00061-00101099291ADDMA1999999099251MD1610532+9999REMSYN060AAXX  05031 01049 46/// /2806 11006 21010 39925 49929 56053;EQDQ01+000532APC3  
0156010490999992009010503504+69983+023367FM-15+0003ENAT V0202801N009310060019N0112651N1-00101-00201999999ADDGA1021+004501999GA2071+006001999GF107991999999999999999999MA1099191999999MW1161REMMET065METAR ENAT 050350Z 28018KT 9999 VCSH FEW015 BKN020 M01/M02 Q0992;
0101010490999992009010504004+69983+023367FM-12+0003ENAT V0203001N015019999999N9999999N1-00161-00261099251ADDMA1999999099211MD1610331+9999REMSYN060AAXX  05041 01049 46/// /3015 11016 21026 39921 49925 56033;
0185010490999992009010504504+69983+023367FM-15+0003ENAT V0202901N01291006601CN0112651N1-00101-00301999999ADDGA1021+002701999GA2041+006601999GA3071+009601999GF107991999999999999999999MA1099191999999OC102011REMMET076METAR ENAT 050450Z 29025G39KT 9999 -SHSN FEW009 SCT022 BKN032 M01/M03 Q0992;
0101010490999992009010505004+69983+023367FM-12+0003ENAT V0202901N011019999999N9999999N1-00091-00201099251ADDMA1999999099221MD1610091+9999REMSYN060AAXX  05051 01049 46/// /2911 11009 21020 39922 49925 56009;
0138010490999992009010505504+69983+023367FM-15+0003ENAT V0203101N014410036019N0030001N1-00201-00301999999ADDGA1091+003601999GF109991999999000251999999MA1099191999999OC102011REMMET061METAR ENAT 050550Z 31028G39KT 3000 -SHSN VV012 M02/M03 Q0992;
0103010490999992009010506004+69983+023367FM-12+0003ENAT V02099999999999999999N9999999N1+99999+99999999999REMSYN094AAXX  05061 01049 11X30 93012 11017 21031 39924 49928 55001 60032 78582 333 21084 70036 91121;
0138010490999992009010506504+69983+023367FM-15+0003ENAT V0203101N011810018019N0015001N1-00201-00301999999ADDGA1091+001801999GF109991999999000251999999MA1099191999999OC101801REMMET061METAR ENAT 050650Z 31023G35KT 1500 +SHSN VV006 M02/M03 Q0992;
0101010490999992009010507004+69983+023367FM-12+0003ENAT V0202901N009019999999N9999999N1-00251-00351099301ADDMA1999999099271MD1210061+9999REMSYN060AAXX  05071 01049 46/// /2909 11025 21035 39927 49930 52006;
0138010490999992009010507504+69983+023367FM-15+0003ENAT V0202901N012310015019N0010001N1-00201-00301999999ADDGA1091+001501999GF109991999999000251999999MA1099291999999OC101851REMMET061METAR ENAT 050750Z 29024G36KT 1000 +SHSN VV005 M02/M03 Q0993;
0101010490999992009010508004+69983+023367FM-12+0003ENAT V0203001N012019999999N9999999N1-00241-00301099321ADDMA1999999099291MD1210071+9999REMSYN060AAXX  05081 01049 46/// /3012 11024 21030 39929 49932 52007;
0134010490999992009010508504+69983+023367FM-15+0003ENAT V0202901N007710024019N0020001N1-00301-00401999999ADDGA1091+002401999GF109991999999000251999999MA1099291999999REMMET065METAR ENAT 050850Z 29015KT 250V310 2000 SHSN VV008 M03/M04 Q0993;
0075010490999992009010509004+69983+023367FM-12+0003ENAT V02099999999999999999N9999999N1+99999+99999999999REMSYN066AAXX  05091 01049 41X20 92911 11028 21034 39926 49930 50002 78682;
0133010490999992009010509504+69983+023367FM-15+0003ENAT V0202701N008710030019N0080001N1-00301-00401999999ADDGA1091+003001999GF109991999999000251999999MA1099191999999REMMET064METAR ENAT 050950Z 27017KT 8000N 2000W SHSN VV010 M03/M04 Q0992;
0101010490999992009010510004+69983+023367FM-12+0003ENAT V0202701N009019999999N9999999N1-00291-00351099261ADDMA1999999099221MD1810051+9999REMSYN060AAXX  05101 01049 46/// /2709 11029 21035 39922 49926 58005;
0152010490999992009010510504+69983+023367FM-15+0003ENAT V0203001N011310054019N0112651N1-00301-00501999999ADDGA1091+005401999GF109991999999000251999999MA1099191999999OC101651REMMET075METAR ENAT 051050Z 30022G32KT 270V330 9999W 2000E SHSN VV018 M03/M05 Q0992;
0101010490999992009010511004+69983+023367FM-12+0003ENAT V0203101N013019999999N9999999N1-00331-00451099231ADDMA1999999099201MD1710091+9999REMSYN060AAXX  05111 01049 46/// /3113 11033 21045 39920 49923 57009;
0146010490999992009010511504+69983+023367FM-15+0003ENAT V0202901N009810009019N0005001N1-00301-00401999999ADDGA1091+000901999GF109991999999000251999999MA1099191999999OC101901REMMET069METAR ENAT 051150Z 29019G37KT 250V340 0500 +SHSN VV003 M03/M04 Q0992;
0091010490999992009010512004+69983+023367FM-12+0003ENAT V02099999999999999999N9999999N1+99999+99999999999REMSYN082AAXX  05121 01049 11X05 93214 11036 21046 39919 49923 56007 6//// 78682 333 91120;
0137010490999992009010512504+69983+023367FM-15+0003ENAT V0203101N014410030019N0020001N1-00201-00601999999ADDGA1091+003001999GF109991999999000251999999MA1099091999999OC101951REMMET060METAR ENAT 051250Z 31028G38KT 2000 SHSN VV010 M02/M06 Q0991;
0101010490999992009010513004+69983+023367FM-12+0003ENAT V0203101N015019999999N9999999N1-00301-00621099211ADDMA1999999099181MD1710051+9999REMSYN060AAXX  05131 01049 46/// /3115 11030 21062 39918 49921 57005;
0156010490999992009010513504+69983+023367FM-15+0003ENAT V0203001N015410045019N0015001N1-00401-00601999999ADDGA1091+004501999GF109991999999000251999999MA1099191999999MW1361OC102261REMMET073METAR ENAT 051350Z 30030G44KT 270V330 1500 SHSN DRSN VV015 M04/M06 Q0992;
0101010490999992009010514004+69983+023367FM-12+0003ENAT V0203001N016019999999N9999999N1-00421-00541099251ADDMA1999999099221MD1310021+9999REMSYN060AAXX  05141 01049 46/// /3016 11042 21054 39922 49925 53002;
0156010490999992009010514504+69983+023367FM-15+0003ENAT V0203201N013410045019N0030001N1-00301-00601999999ADDGA1091+004501999GF109991999999000251999999MA1099191999999MW1361OC101751REMMET073METAR ENAT 051450Z 32026G34KT 270V350 3000 SHSN DRSN VV015 M03/M06 Q0992;
0075010490999992009010515004+69983+023367FM-12+0003ENAT V02099999999999999999N9999999N1+99999+99999999999REMSYN066AAXX  05151 01049 41X30 93214 11034 21057 39917 49921 58002 78682;
0127010490999992009010515504+69983+023367FM-15+0003ENAT V0203301N011810075019N0050001N1-00301-00601999999ADDGA1091+007501999GF109991999999000251999999MA1099191999999REMMET058METAR ENAT 051550Z 33023KT 5000 -SHSN VV025 M03/M06 Q0992;
0101010490999992009010516004+69983+023367FM-12+0003ENAT V0203301N010019999999N9999999N1-00391-00511099231ADDMA1999999099191MD1010021+9999REMSYN060AAXX  05161 01049 46/// /3310 11039 21051 39919 49923 50002;
0126010490999992009010516504+69983+023367FM-15+0003ENAT V0203201N013410045019N0030001N1-00501-00601999999ADDGA1091+004501999GF109991999999000251999999MA1099191999999REMMET057METAR ENAT 051650Z 32026KT 3000 SHSN VV015 M05/M06 Q0992;
0101010490999992009010517004+69983+023367FM-12+0003ENAT V0203201N014019999999N9999999N1-00431-00521099231ADDMA1999999099191MD1510031+9999REMSYN060AAXX  05171 01049 46/// /3214 11043 21052 39919 49923 55003;
0162010490999992009010517504+69983+023367FM-15+0003ENAT V0203201N014910120019N0080001N1-00401-00701999999ADDGA1041+007501999GA2071+012001999GF107991999999999999999999MA1099191999999OC102111REMMET069METAR ENAT 051750Z 32029G41KT 8000 -SHSN SCT025 BKN040 M04/M07 Q0992;
0207010490999992009010518004+69983+023367FM-12+0003ENAT V0203301N014010120019N0080001N1-00371-00681099251ADDAA112008991AY181061AY221061GF107991051081008001071999KA1120M-00151MA1999999099221MD1210051+9999MW1851REMSYN094AAXX  05181 01049 11558 73314 11037 21068 39922 49925 52005 60092 78582 8587/ 333 11015 91123;
0178010490999992009010518504+69983+023367FM-15+0003ENAT V0203301N013910135019N0112651N1-00401-00801999999ADDGA1021+007501999GA2071+013501999GF107991999999999999999999MA1099191999999MW1161MW2361OC101851REMMET073METAR ENAT 051850Z 33027G36KT 9999 VCSH DRSN FEW025 BKN045 M04/M08 Q0992;
0101010490999992009010519004+69983+023367FM-12+0003ENAT V0203301N014019999999N9999999N1-00381-00841099231ADDMA1999999099201MD1010011+9999REMSYN060AAXX  05191 01049 46/// /3314 11038 21084 39920 49923 50001;
0133010490999992009010519504+69983+023367FM-15+0003ENAT V0203201N015412200019N0112651N1-00401-01101999999ADDGA1041+012001999GF104991999999999999999999MA1099091999999MW1361REMMET058METAR ENAT 051950Z 32030KT 9999 DRSN SCT040 M04/M11 Q0991;
0101010490999992009010520004+69983+023367FM-12+0003ENAT V0203301N017019999999N9999999N1-00361-00861099211ADDMA1999999099171MD1810021+9999REMSYN060AAXX  05201 01049 46/// /3317 11036 21086 39917 49921 58002;
0156010490999992009010520504+69983+023367FM-15+0003ENAT V0203201N013912200019N0112651N1-00401-01001999999ADDGA1021+012001999GA2041+015001999GF104991999999999999999999MA1099191999999MW1361REMMET065METAR ENAT 052050Z 32027KT 9999 DRSN FEW040 SCT050 M04/M10 Q0992;
0161010490999992009010521004+69983+023367FM-12+0003ENAT V0203301N014010300019N0200001N1-00401-00901099261ADDAY181031AY221031GF105991041081012501071999MA1999999099231MD1510011+9999MW1151REMSYN072AAXX  05211 01049 41670 53314 11040 21090 39923 49926 55001 71582 8487/;
0156010490999992009010521504+69983+023367FM-15+0003ENAT V0203201N013412200019N0112651N1-00501-01101999999ADDGA1021+009001999GA2041+015001999GF104991999999999999999999MA1099191999999MW1361REMMET065METAR ENAT 052150Z 32026KT 9999 DRSN FEW030 SCT050 M05/M11 Q0992;
0101010490999992009010522004+69983+023367FM-12+0003ENAT V0203301N013019999999N9999999N1-00471-00951099271ADDMA1999999099241MD1310041+9999REMSYN060AAXX  05221 01049 46/// /3313 11047 21095 39924 49927 53004;
0101010490999992009010523004+69983+023367FM-12+0003ENAT V0203301N017019999999N9999999N1-00461-00921099211ADDMA1999999099181MD1010001+9999REMSYN060AAXX  05231 01049 46/// /3317 11046 21092 39918 49921 50000;
0156010490999992009010523504+69983+023367FM-15+0003ENAT V0203301N012912200019N0112651N1-00501-01101999999ADDGA1021+007501999GA2041+012001999GF104991999999999999999999MA1099191999999MW1361REMMET065METAR ENAT 052350Z 33025KT 9999 DRSN FEW025 SCT040 M05/M11 Q0992;
0117010490999992009010600004+69983+023367FM-12+0003ENAT V0203301N014019999999N9999999N1-00531-01041099321ADDMA1999999099291MD1310061+9999REMSYN076AAXX  06001 01049 16/// /3314 11053 21104 39929 49932 53006 6//// 333 91122;
0145010490999992009010600504+69983+023367FM-15+0003ENAT V0203501N009312200019N0112651N1-00601-01201999999ADDGA1021+006001999GA2041+012001999GF104991999999999999999999MA1099291999999REMMET060METAR ENAT 060050Z 35018KT 9999 FEW020 SCT040 M06/M12 Q0993;
0101010490999992009010601004+69983+023367FM-12+0003ENAT V0203601N009019999999N9999999N1-00551-01111099321ADDMA1999999099281MD1310051+9999REMSYN060AAXX  06011 01049 46/// /3609 11055 21111 39928 49932 53005;
0145010490999992009010601504+69983+023367FM-15+0003ENAT V0200101N006212200019N0112651N1-00601-01201999999ADDGA1021+006001999GA2041+012001999GF104991999999999999999999MA1099291999999REMMET060METAR ENAT 060150Z 01012KT 9999 FEW020 SCT040 M06/M12 Q0993;
0101010490999992009010602004+69983+023367FM-12+0003ENAT V0200101N009019999999N9999999N1-00641-01151099341ADDMA1999999099301MD1110131+9999REMSYN060AAXX  06021 01049 46/// /0109 11064 21115 39930 49934 51013;
0145010490999992009010602504+69983+023367FM-15+0003ENAT V0200101N007712200019N0112651N1-00601-01201999999ADDGA1021+007501999GA2041+015001999GF104991999999999999999999MA1099291999999REMMET060METAR ENAT 060250Z 01015KT 9999 FEW025 SCT050 M06/M12 Q0993;
0101010490999992009010603004+69983+023367FM-12+0003ENAT V0200101N008019999999N9999999N1-00621-01201099341ADDMA1999999099311MD1210021+9999REMSYN060AAXX  06031 01049 46/// /0108 11062 21120 39931 49934 52002;
0101010490999992009010604004+69983+023367FM-12+0003ENAT V0200101N006019999999N9999999N1-00701-01101099311ADDMA1999999099281MD1010011+9999REMSYN060AAXX  06041 01049 46/// /0106 11070 21110 39928 49931 50001;
0145010490999992009010604504+69983+023367FM-15+0003ENAT V0200201N005110150019N0112651N1-00701-01101999999ADDGA1021+007501999GA2071+015001999GF107991999999999999999999MA1099191999999REMMET060METAR ENAT 060450Z 02010KT 9999 FEW025 BKN050 M07/M11 Q0992;
0101010490999992009010605004+69983+023367FM-12+0003ENAT V0200201N005019999999N9999999N1-00721-01111099291ADDMA1999999099261MD1710051+9999REMSYN060AAXX  06051 01049 46/// /0205 11072 21111 39926 49929 57005;
0145010490999992009010605504+69983+023367FM-15+0003ENAT V0200201N006210135019N0112651N1-00701-01301999999ADDGA1021+007501999GA2071+013501999GF107991999999999999999999MA1099191999999REMMET060METAR ENAT 060550Z 02012KT 9999 FEW025 BKN045 M07/M13 Q0992;
0224010490999992009010606004+69983+023367FM-12+0003ENAT V0200601N004010300019N0300001N1-00751-01141099281ADDAA112000021AA224009191AY181061AY221061GF107991031081008001071999KA1120N-00751MA1999999099241MD1710061+9999MW1031REMSYN100AAXX  06061 01049 11580 70604 11075 21114 39924 49928 57006 69902 70382 8387/ 333 21075 70091 91117;
0168010490999992009010606504+69983+023367FM-15+0003ENAT V0200201N00361010501CN0112651N1-00801-01201999999ADDGA1021+007501999GA2041+010501999GA3071+018001999GF107991999999999999999999MA1099191999999REMMET067METAR ENAT 060650Z 02007KT 9999 FEW025 SCT035 BKN060 M08/M12 Q0992;
0101010490999992009010607004+69983+023367FM-12+0003ENAT V0200501N004019999999N9999999N1-00771-01131099261ADDMA1999999099221MD1710051+9999REMSYN060AAXX  06071 01049 46/// /0504 11077 21113 39922 49926 57005;
0164010490999992009010607504+69983+023367FM-15+0003ENAT V0200401N003610180019N0112651N1-00801-01301999999ADDGA1041+007501999GA2071+018001999GF107991999999999999999999MA1099191999999MW1161REMMET073METAR ENAT 060750Z 04007KT 340V090 9999 VCSH SCT025 BKN060 M08/M13 Q0992;
0101010490999992009010608004+69983+023367FM-12+0003ENAT V0200801N002019999999N9999999N1-00801-01221099261ADDMA1999999099231MD1710031+9999REMSYN060AAXX  06081 01049 46/// /0802 11080 21122 39923 49926 57003;
0159010490999992009010608504+69983+023367FM-15+0003ENAT V0200101N001510105019N0112651N1-00801-01401999999ADDGA1021+006001999GA2071+010501999GF107991999999999999999999MA1099191999999REMMET074METAR ENAT 060850Z 01003KT 270V090 9999 -SHSN FEW020 BKN035 M08/M14 Q0992;
0161010490999992009010609004+69983+023367FM-12+0003ENAT V0201201N001010120019N0150001N1-00841-01311099261ADDAY181031AY221031GF107991051081008001071999MA1999999099231MD1710011+9999MW1851REMSYN072AAXX  06091 01049 41565 71201 11084 21131 39923 49926 57001 78582 8587/;
0156010490999992009010609504+69983+023367FM-15+0003ENAT V0209999V001010105019N0112651N1-00801-01401999999ADDGA1021+007501999GA2071+010501999GF107991999999999999999999MA1099191999999MW1161REMMET065METAR ENAT 060950Z VRB02KT 9999 VCSH FEW025 BKN035 M08/M14 Q0992;
0101010490999992009010610004+69983+023367FM-12+0003ENAT V0200501N002019999999N9999999N1-00861-01311099271ADDMA1999999099231MD1410001+9999REMSYN060AAXX  06101 01049 46/// /0502 11086 21131 39923 49927 54001;
0156010490999992009010610504+69983+023367FM-15+0003ENAT V0209999V001510105019N0112651N1-00901-01401999999ADDGA1021+007501999GA2071+010501999GF107991999999999999999999MA1099191999999MW1161REMMET065METAR ENAT 061050Z VRB03KT 9999 VCSH FEW025 BKN035 M09/M14 Q0992;
0101010490999992009010611004+69983+023367FM-12+0003ENAT V0202501N001019999999N9999999N1-00851-01301099241ADDMA1999999099201MD1810021+9999REMSYN060AAXX  06111 01049 46/// /2501 11085 21130 39920 49924 58002;
0156010490999992009010611504+69983+023367FM-15+0003ENAT V0201801N002110135019N0112651N1-00901-01301999999ADDGA1021+007501999GA2071+013501999GF107991999999999999999999MA1099191999999MW1161REMMET065METAR ENAT 061150Z 18004KT 9999 VCSH FEW025 BKN045 M09/M13 Q0992;
0177010490999992009010612004+69983+023367FM-12+0003ENAT V0201701N002010120019N0150001N1-01021-01371099231ADDAY181061AY221061GF107991051081008001071999MA1999999099201MD1510031+9999MW1151REMSYN088AAXX  06121 01049 11565 71702 11102 21137 39920 49923 55003 6//// 71582 8587/ 333 91106;
0156010490999992009010612504+69983+023367FM-15+0003ENAT V0201601N002110150019N0112651N1-01101-01401999999ADDGA1021+007501999GA2071+015001999GF107991999999999999999999MA1099191999999MW1161REMMET065METAR ENAT 061250Z 16004KT 9999 VCSH FEW025 BKN050 M11/M14 Q0992;
0101010490999992009010613004+69983+023367FM-12+0003ENAT V0201801N002019999999N9999999N1-01091-01411099211ADDMA1999999099181MD1610051+9999REMSYN060AAXX  06131 01049 46/// /1802 11109 21141 39918 49921 56005;
0179010490999992009010613504+69983+023367FM-15+0003ENAT V0201701N00261012001CN0112651N1-01201-01501999999ADDGA1021+007501999GA2041+012001999GA3071+018001999GF107991999999999999999999MA1099191999999MW1161REMMET072METAR ENAT 061350Z 17005KT 9999 VCSH FEW025 SCT040 BKN060 M12/M15 Q0992;
0101010490999992009010614004+69983+023367FM-12+0003ENAT V0201801N003019999999N9999999N1-01151-01401099221ADDMA1999999099191MD1710011+9999REMSYN060AAXX  06141 01049 46/// /1803 11115 21140 39919 49922 57001;
0163010490999992009010614504+69983+023367FM-15+0003ENAT V0201201N001510096019N0112651N1-01201-01401999999ADDGA1021+006001999GA2071+009601999GF107991999999999999999999MA1099191999999MW1711REMMET072METAR ENAT 061450Z 12003KT 070V180 9999 -SN FEW020 BKN032 M12/M14 Q0992;
0101010490999992009010615004+69983+023367FM-12+0003ENAT V0201601N002019999999N9999999N1-01161-01411099241ADDMA1999999099211MD1510011+9999REMSYN060AAXX  06151 01049 46/// /1602 11116 21141 39921 49924 55001;
0186010490999992009010615504+69983+023367FM-15+0003ENAT V0201701N00151004501CN0112651N1-01201-01501999999ADDGA1021+003301999GA2041+004501999GA3071+007501999GF107991999999999999999999MA1099191999999MW1711REMMET079METAR ENAT 061550Z 17003KT 140V200 9999 -SN FEW011 SCT015 BKN025 M12/M15 Q0992;
0101010490999992009010616004+69983+023367FM-12+0003ENAT V0201801N001019999999N9999999N1-01211-01461099251ADDMA1999999099221MD1210041+9999REMSYN060AAXX  06161 01049 46/// /1801 11121 21146 39922 49925 52004;
0163010490999992009010616504+69983+023367FM-15+0003ENAT V0201901N003112200019N0112651N1-01301-01501999999ADDGA1021+006001999GA2041+009001999GF104991999999999999999999MA1099191999999MW1711REMMET072METAR ENAT 061650Z 19006KT 150V220 9999 -SN FEW020 SCT030 M13/M15 Q0992;
0101010490999992009010617004+69983+023367FM-12+0003ENAT V0201801N003019999999N9999999N1-01281-01481099231ADDMA1999999099201MD1010011+9999REMSYN060AAXX  06171 01049 46/// /1803 11128 21148 39920 49923 50001;
0168010490999992009010617504+69983+023367FM-15+0003ENAT V0201501N00151010501CN0112651N1-01401-01601999999ADDGA1021+006001999GA2041+010501999GA3071+027001999GF107991999999999999999999MA1099191999999REMMET067METAR ENAT 061750Z 15003KT 9999 FEW020 SCT035 BKN090 M14/M16 Q0992;
0207010490999992009010618004+69983+023367FM-12+0003ENAT V0201501N002010300019N0300001N1-01361-01561099231ADDAA112000021AY171061AY221061GF107991041081008001071999KA1120M-00731MA1999999099201MD1410001+9999MW1021REMSYN094AAXX  06181 01049 11580 71502 11136 21156 39920 49923 54001 69902 70272 8487/ 333 11073 91104;
0145010490999992009010618504+69983+023367FM-15+0003ENAT V0201701N002112200019N0112651N1-01401-01601999999ADDGA1021+006001999GA2041+027001999GF104991999999999999999999MA1099191999999REMMET060METAR ENAT 061850Z 17004KT 9999 FEW020 SCT090 M14/M16 Q0992;
0101010490999992009010619004+69983+023367FM-12+0003ENAT V0201601N002019999999N9999999N1-01361-01631099221ADDMA1999999099181MD1610031+9999REMSYN060AAXX  06191 01049 46/// /1602 11136 21163 39918 49922 56003;
0145010490999992009010619504+69983+023367FM-15+0003ENAT V0209999V001012200019N0112651N1-01301-01601999999ADDGA1021+012001999GA2041+027001999GF104991999999999999999999MA1099191999999REMMET060METAR ENAT 061950Z VRB02KT 9999 FEW040 SCT090 M13/M16 Q0992;
0101010490999992009010620004+69983+023367FM-12+0003ENAT V0201501N001019999999N9999999N1-01331-01591099241ADDMA1999999099201MD1410001+9999REMSYN060AAXX  06201 01049 46/// /1501 11133 21159 39920 49924 54001;
0122010490999992009010620504+69983+023367FM-15+0003ENAT V0201701N001512200019N0112651N1-01401-01701999999ADDGA1021+012001999GF102991999999999999999999MA1099191999999REMMET053METAR ENAT 062050Z 17003KT 9999 FEW040 M14/M17 Q0992;
0161010490999992009010621004+69983+023367FM-12+0003ENAT V0201801N003012200019N0400001N1-01351-01631099241ADDAY121031AY201031GF102991021081012501001001MA1999999099211MD1210011+9999MW1011REMSYN072AAXX  06211 01049 41682 21803 11135 21163 39921 49924 52001 70120 82800;
0130010490999992009010621504+69983+023367FM-15+0003ENAT V0201901N002112200019N0112651N1-01501-01801999999ADDGA1021+012001999GF102991999999999999999999MA1099191999999REMMET061METAR ENAT 062150Z 19004KT 160V220 9999 FEW040 M15/M18 Q0992;
0101010490999992009010622004+69983+023367FM-12+0003ENAT V0201801N002019999999N9999999N1-01461-01741099241ADDMA1999999099211MD1210031+9999REMSYN060AAXX  06221 01049 46/// /1802 11146 21174 39921 49924 52003;
0122010490999992009010622504+69983+023367FM-15+0003ENAT V0201801N003112200019N0112651N1-01501-01801999999ADDGA1021+012001999GF102991999999999999999999MA1099191999999REMMET053METAR ENAT 062250Z 18006KT 9999 FEW040 M15/M18 Q0992;
0101010490999992009010623004+69983+023367FM-12+0003ENAT V0201801N003019999999N9999999N1-01521-01771099241ADDMA1999999099201MD1410001+9999REMSYN060AAXX  06231 01049 46/// /1803 11152 21177 39920 49924 54000;
0122010490999992009010623504+69983+023367FM-15+0003ENAT V0201801N003110075019N0112651N1-01501-01801999999ADDGA1071+007501999GF107991999999999999999999MA1099191999999REMMET053METAR ENAT 062350Z 18006KT 9999 BKN025 M15/M18 Q0992;
0117010490999992009010700004+69983+023367FM-12+0003ENAT V0201701N003019999999N9999999N1-01531-01811099291ADDMA1999999099251MD1310041+9999REMSYN076AAXX  07001 01049 16/// /1703 11153 21181 39925 49929 53004 6//// 333 91104;
0134010490999992009010700504+69983+023367FM-15+0003ENAT V0201701N002610051019N0040001N1-01501-01801999999ADDGA1091+005101999GF109991999999000251999999MA1099191999999REMMET065METAR ENAT 070050Z 17005KT 110V220 4000 SHSN VV017 M15/M18 Q0992;
0101010490999992009010701004+69983+023367FM-12+0003ENAT V0201701N003019999999N9999999N1-01521-01761099271ADDMA1999999099231MD1010021+9999REMSYN060AAXX  07011 01049 46/// /1703 11152 21176 39923 49927 50002;
0134010490999992009010701504+69983+023367FM-15+0003ENAT V0201801N003110060019N0040001N1-01501-01701999999ADDGA1091+006001999GF109991999999000251999999MA1099191999999REMMET065METAR ENAT 070150Z 18006KT 120V210 4000 SHSN VV020 M15/M17 Q0992;
0101010490999992009010702004+69983+023367FM-12+0003ENAT V0201801N004019999999N9999999N1-01481-01691099241ADDMA1999999099201MD1010001+9999REMSYN060AAXX  07021 01049 46/// /1804 11148 21169 39920 49924 50000;
0126010490999992009010702504+69983+023367FM-15+0003ENAT V0201201N001510030019N0020001N1-01401-01601999999ADDGA1091+003001999GF109991999999000251999999MA1099091999999REMMET057METAR ENAT 070250Z 12003KT 2000 SHSN VV010 M14/M16 Q0991;
0101010490999992009010703004+69983+023367FM-12+0003ENAT V0201001N002019999999N9999999N1-01311-01411099161ADDMA1999999099131MD1810121+9999REMSYN060AAXX  07031 01049 46/// /1002 11131 21141 39913 49916 58012;
0135010490999992009010703504+69983+023367FM-15+0003ENAT V0200601N004110015019N0010001N1-01101-01301999999ADDGA1091+001501999GF109991999999000251999999MA1099091999999REMMET066METAR ENAT 070350Z 06008KT 020V110 1000 +SHSN VV005 M11/M13 Q0991;
0101010490999992009010704004+69983+023367FM-12+0003ENAT V0201901N003019999999N9999999N1-01011-01071099151ADDMA1999999099121MD1510111+9999REMSYN060AAXX  07041 01049 46/// /1903 11101 21107 39912 49915 55011;
0185010490999992009010704504+69983+023367FM-15+0003ENAT V0203301N01291006001CN0080001N1-00801-01101999999ADDGA1021+002701999GA2041+006001999GA3071+007501999GF107991999999999999999999MA1099091999999MW1381REMMET078METAR ENAT 070450Z 33025KT 8000 -SHSN BLSN FEW009 SCT020 BKN025 M08/M11 Q0991;
0101010490999992009010705004+69983+023367FM-12+0003ENAT V0203401N012019999999N9999999N1-00831-01111099161ADDMA1999999099121MD1510081+9999REMSYN060AAXX  07051 01049 46/// /3412 11083 21111 39912 49916 55008;
0185010490999992009010705204+69983+023367FM-15+0003ENAT V0203201N01131007501CN0080001N1-00801-01101999999ADDGA1021+004501999GA2041+007501999GA3071+009001999GF107991999999999999999999MA1099091999999MW1381REMMET078METAR ENAT 070520Z 32022KT 8000 -SHSN BLSN FEW015 SCT025 BKN030 M08/M11 Q0991;
0173010490999992009010705504+69983+023367FM-15+0003ENAT V0203301N01031010501CN0112651N1-00801-01201999999ADDGA1021+006001999GA2041+010501999GA3071+015001999GF107991999999999999999999MA1099091999999REMMET072METAR ENAT 070550Z 33020KT 9999 FEW020 SCT035 BKN050 M08/M12 Q0991 RESN;
0224010490999992009010706004+69983+023367FM-12+0003ENAT V0203201N010010300019N0080001N1-00791-01181099201ADDAA112004192AA224003692AY181061AY221061GF105991041081004501071999KA1120N-01551MA1999999099161MD1310031+9999MW1851REMSYN100AAXX  07061 01049 11458 53210 11079 21118 39916 49920 53003 60042 78582 8487/ 333 21155 70035 91117;
0178010490999992009010706504+69983+023367FM-15+0003ENAT V0203101N01031006001CN0112651N1-00801-01001999999ADDGA1021+003001999GA2041+006001999GA3071+009001999GF107991999999999999999999MA1099191999999MW1711REMMET071METAR ENAT 070650Z 31020KT 9999 -SN FEW010 SCT020 BKN030 M08/M10 Q0992;
0101010490999992009010707004+69983+023367FM-12+0003ENAT V0203101N010019999999N9999999N1-00831-01101099231ADDMA1999999099201MD1210081+9999REMSYN060AAXX  07071 01049 46/// /3110 11083 21110 39920 49923 52008;
0186010490999992009010707504+69983+023367FM-15+0003ENAT V0203101N00931006001CN0112651N1-00801-01101999999ADDGA1021+003001999GA2041+006001999GA3071+009001999GF107991999999999999999999MA1099191999999MW1711REMMET079METAR ENAT 070750Z 31018KT 270V330 9999 -SN FEW010 SCT020 BKN030 M08/M11 Q0992;
0101010490999992009010708004+69983+023367FM-12+0003ENAT V0203101N009019999999N9999999N1-00771-01201099231ADDMA1999999099201MD1010081+9999REMSYN060AAXX  07081 01049 46/// /3109 11077 21120 39920 49923 50008;
0130010490999992009010708504+69983+023367FM-15+0003ENAT V0203001N012310030019N0025001N1-00801-01001999999ADDGA1091+003001999GF109991999999000251999999MA1099191999999MW1731REMMET055METAR ENAT 070850Z 30024KT 2500 SN VV010 M08/M10 Q0992;
0075010490999992009010709004+69983+023367FM-12+0003ENAT V02099999999999999999N9999999N1+99999+99999999999REMSYN066AAXX  07091 01049 41X25 93212 11079 21092 39921 49924 50004 77372;
0177010490999992009010709504+69983+023367FM-15+0003ENAT V0203101N01231006001CN0080001N1-00701-01001999999ADDGA1021+003001999GA2041+006001999GA3071+009001999GF107991999999999999999999MA1099191999999MW1731REMMET070METAR ENAT 070950Z 31024KT 8000 SN FEW010 SCT020 BKN030 M07/M10 Q0992;
0101010490999992009010710004+69983+023367FM-12+0003ENAT V0203101N014019999999N9999999N1-00691-00971099241ADDMA1999999099211MD1010011+9999REMSYN060AAXX  07101 01049 46/// /3114 11069 21097 39921 49924 50001;
0141010490999992009010710504+69983+023367FM-15+0003ENAT V0203001N012310030019N0050001N1-00701-00901999999ADDGA1091+003001999GF109991999999000251999999MA1099191999999MW1731OC101751REMMET058METAR ENAT 071050Z 30024G34KT 5000 SN VV010 M07/M09 Q0992;
0101010490999992009010711004+69983+023367FM-12+0003ENAT V0203101N013019999999N9999999N1-00721-00891099231ADDMA1999999099201MD1010001+9999REMSYN060AAXX  07111 01049 46/// /3113 11072 21089 39920 49923 50000;
0149010490999992009010711504+69983+023367FM-15+0003ENAT V0203201N013410030019N0020001N1-00701-00801999999ADDGA1091+003001999GF109991999999000251999999MA1099191999999MW1381MW2731REMMET068METAR ENAT 071150Z 32026KT 290V350 2000 SN BLSN VV010 M07/M08 Q0992;
0117010490999992009010712004+69983+023367FM-12+0003ENAT V0203101N015019999999N9999999N1-00681-00831099251ADDMA1999999099221MD1210011+9999REMSYN076AAXX  07121 01049 16/// /3115 11068 21083 39922 49925 52001 6//// 333 91119;
0196010490999992009010712504+69983+023367FM-15+0003ENAT V0203101N01591004501CN0050001N1-00601-00801999999ADDGA1021+003001999GA2041+004501999GA3071+007501999GF107991999999999999999999MA1099191999999MW1381MW2731REMMET083METAR ENAT 071250Z 31031KT 270V330 5000 SN BLSN FEW010 SCT015 BKN025 M06/M08 Q0992;
0101010490999992009010713004+69983+023367FM-12+0003ENAT V0203101N016019999999N9999999N1-00571-00811099291ADDMA1999999099251MD1310051+9999REMSYN060AAXX  07131 01049 46/// /3116 11057 21081 39925 49929 53005;
0185010490999992009010713504+69983+023367FM-15+0003ENAT V0203101N016512200019N0080001N1-00601-00801999999ADDGA1021+003001999GA2041+008401999GF104991999999999999999999MA1099191999999MW1381MW2711OC102161REMMET080METAR ENAT 071350Z 31032G42KT 260V330 8000 -SN BLSN FEW010 SCT028 M06/M08 Q0992;
0101010490999992009010714004+69983+023367FM-12+0003ENAT V0203101N019019999999N9999999N1-00531-00881099281ADDMA1999999099251MD1210051+9999REMSYN060AAXX  07141 01049 46/// /3119 11053 21088 39925 49928 52005;
0167010490999992009010714504+69983+023367FM-15+0003ENAT V0203101N017010090019N0070001N1-00501-00801999999ADDGA1021+006001999GA2071+009001999GF107991999999999999999999MA1099291999999MW1381OC102261REMMET068METAR ENAT 071450Z 31033G44KT 7000 BLSN FEW020 BKN030 M05/M08 Q0993;
0161010490999992009010715004+69983+023367FM-12+0003ENAT V0203101N018010300019N0200001N1-00541-00931099361ADDAY171031AY231031GF106991041081004501071999MA1999999099331MD1310111+9999MW1361REMSYN072AAXX  07151 01049 41470 63118 11054 21093 39933 49936 53011 73673 8487/;
0156010490999992009010715504+69983+023367FM-15+0003ENAT V0203101N017010090019N0070001N1-00501-01001999999ADDGA1021+006001999GA2071+009001999GF107991999999999999999999MA1099491999999MW1381REMMET065METAR ENAT 071550Z 31033KT 7000 BLSN FEW020 BKN030 M05/M10 Q0995;
0101010490999992009010716004+69983+023367FM-12+0003ENAT V0203101N015019999999N9999999N1-00521-01011099551ADDMA1999999099511MD1310261+9999REMSYN060AAXX  07161 01049 46/// /3115 11052 21101 39951 49955 53026;
0156010490999992009010716504+69983+023367FM-15+0003ENAT V0203101N017010090019N0070001N1-00501-01001999999ADDGA1021+006001999GA2071+009001999GF107991999999999999999999MA1099491999999MW1381REMMET065METAR ENAT 071650Z 31033KT 7000 BLSN FEW020 BKN030 M05/M10 Q0995;
0101010490999992009010717004+69983+023367FM-12+0003ENAT V0203101N013019999999N9999999N1-00521-01011099621ADDMA1999999099581MD1310341+9999REMSYN060AAXX  07171 01049 46/// /3113 11052 21101 39958 49962 53034;
0145010490999992009010717504+69983+023367FM-15+0003ENAT V0203101N012910120019N0112651N1-00501-01101999999ADDGA1021+007501999GA2071+012001999GF107991999999999999999999MA1099591999999REMMET060METAR ENAT 071750Z 31025KT 9999 FEW025 BKN040 M05/M11 Q0996;
0136010490999992009010718004+69983+023367FM-12+0003ENAT V0203101N014019999999N9999999N1-00481-00941099651ADDKA1120M-00471MA1999999099611MD1110291+9999REMSYN082AAXX  07181 01049 16/// /3114 11048 21094 39961 49965 51029 6//// 333 11047 91125;
0145010490999992009010718504+69983+023367FM-15+0003ENAT V0203101N015410114019N0112651N1-00501-01101999999ADDGA1021+006001999GA2071+011401999GF107991999999999999999999MA1099591999999REMMET060METAR ENAT 071850Z 31030KT 9999 FEW020 BKN038 M05/M11 Q0996;
0101010490999992009010719004+69983+023367FM-12+0003ENAT V0203201N014019999999N9999999N1-00511-01021099691ADDMA1999999099651MD1010141+9999REMSYN060AAXX  07191 01049 46/// /3214 11051 21102 39965 49969 50014;
0145010490999992009010719504+69983+023367FM-15+0003ENAT V0203101N013910108019N0112651N1-00501-01101999999ADDGA1021+006001999GA2071+010801999GF107991999999999999999999MA1099701999999REMMET060METAR ENAT 071950Z 31027KT 9999 FEW020 BKN036 M05/M11 Q0997;
0101010490999992009010720004+69983+023367FM-12+0003ENAT V0203201N013019999999N9999999N1-00491-01001099811ADDMA1999999099781MD1310201+9999REMSYN060AAXX  07201 01049 46/// /3213 11049 21100 39978 49981 53020;
0145010490999992009010720504+69983+023367FM-15+0003ENAT V0203201N011810105019N0112651N1-00501-01101999999ADDGA1021+006001999GA2071+010501999GF107991999999999999999999MA1099801999999REMMET060METAR ENAT 072050Z 32023KT 9999 FEW020 BKN035 M05/M11 Q0998;
0161010490999992009010721004+69983+023367FM-12+0003ENAT V0203201N012010120019N0300001N1-00471-01041099881ADDAY121031AY221031GF107991061081008001071999MA1999999099841MD1310231+9999MW1021REMSYN072AAXX  07211 01049 41580 73212 11047 21104 39984 49988 53023 70222 8687/;
0153010490999992009010721504+69983+023367FM-15+0003ENAT V0203301N010312200019N0112651N1-00501-01301999999ADDGA1021+007501999GA2041+013501999GF104991999999999999999999MA1099801999999REMMET068METAR ENAT 072150Z 33020KT 290V360 9999 FEW025 SCT045 M05/M13 Q0998;
0101010490999992009010722004+69983+023367FM-12+0003ENAT V0203301N010019999999N9999999N1-00481-01201099871ADDMA1999999099841MD1110181+9999REMSYN060AAXX  07221 01049 46/// /3310 11048 21120 39984 49987 51018;
0145010490999992009010722504+69983+023367FM-15+0003ENAT V0203301N009812200019N0112651N1-00501-01301999999ADDGA1021+007501999GA2041+013501999GF104991999999999999999999MA1099901999999REMMET060METAR ENAT 072250Z 33019KT 9999 FEW025 SCT045 M05/M13 Q0999;
0101010490999992009010723004+69983+023367FM-12+0003ENAT V0203301N010019999999N9999999N1-00511-01171099921ADDMA1999999099891MD1110111+9999REMSYN060AAXX  07231 01049 46/// /3310 11051 21117 39989 49992 51011;
0122010490999992009010723504+69983+023367FM-15+0003ENAT V0203301N008212200019N0112651N1-00501-01301999999ADDGA1041+013501999GF104991999999999999999999MA1099801999999REMMET053METAR ENAT 072350Z 33016KT 9999 SCT045 M05/M13 Q0998;
0117010490999992009010800004+69983+023367FM-12+0003ENAT V0203401N009019999999N9999999N1-00511-01211099901ADDMA1999999099871MD1010021+9999REMSYN076AAXX  08001 01049 16/// /3409 11051 21121 39987 49990 50002 6//// 333 91120;
0122010490999992009010800504+69983+023367FM-15+0003ENAT V0203301N007712200019N0112651N1-00501-01301999999ADDGA1041+013501999GF104991999999999999999999MA1099901999999REMMET053METAR ENAT 080050Z 33015KT 9999 SCT045 M05/M13 Q0999;
0101010490999992009010801004+69983+023367FM-12+0003ENAT V0203401N007019999999N9999999N1-00491-01211099921ADDMA1999999099891MD1010051+9999REMSYN060AAXX  08011 01049 46/// /3407 11049 21121 39989 49992 50005;
0153010490999992009010801504+69983+023367FM-15+0003ENAT V0200501N002612200019N0112651N1-00601-01401999999ADDGA1021+009001999GA2041+013501999GF104991999999999999999999MA1099801999999REMMET068METAR ENAT 080150Z 05005KT 360V110 9999 FEW030 SCT045 M06/M14 Q0998;
0101010490999992009010802004+69983+023367FM-12+0003ENAT V0200501N004019999999N9999999N1-00571-01251099881ADDMA1999999099851MD1810041+9999REMSYN060AAXX  08021 01049 46/// /0504 11057 21125 39985 49988 58004;
0145010490999992009010802504+69983+023367FM-15+0003ENAT V0201701N001512200019N0112651N1-00601-01401999999ADDGA1021+009001999GA2041+013501999GF104991999999999999999999MA1099801999999REMMET060METAR ENAT 080250Z 17003KT 9999 FEW030 SCT045 M06/M14 Q0998;
0101010490999992009010803004+69983+023367FM-12+0003ENAT V0201701N001019999999N9999999N1-00651-01301099841ADDMA1999999099811MD1810061+9999REMSYN060AAXX  08031 01049 46/// /1701 11065 21130 39981 49984 58006;
0145010490999992009010803504+69983+023367FM-15+0003ENAT V0202001N003612200019N0112651N1-00801-01301999999ADDGA1021+009001999GA2041+015001999GF104991999999999999999999MA1099801999999REMMET060METAR ENAT 080350Z 20007KT 9999 FEW030 SCT050 M08/M13 Q0998;
0101010490999992009010804004+69983+023367FM-12+0003ENAT V0201901N003019999999N9999999N1-00781-01231099791ADDMA1999999099761MD1710131+9999REMSYN060AAXX  08041 01049 46/// /1903 11078 21123 39976 49979 57013;
0122010490999992009010804504+69983+023367FM-15+0003ENAT V0201601N002612200019N0112651N1-00901-01401999999ADDGA1021+010501999GF102991999999999999999999MA1099701999999REMMET053METAR ENAT 080450Z 16005KT 9999 FEW035 M09/M14 Q0997;
0101010490999992009010805004+69983+023367FM-12+0003ENAT V0201801N003019999999N9999999N1-00971-01351099731ADDMA1999999099701MD1810151+9999REMSYN060AAXX  08051 01049 46/// /1803 11097 21135 39970 49973 58015;
0122010490999992009010805504+69983+023367FM-15+0003ENAT V0201801N003112200019N0112651N1-01001-01401999999ADDGA1021+010501999GF102991999999999999999999MA1099591999999REMMET053METAR ENAT 080550Z 18006KT 9999 FEW035 M10/M14 Q0996;
0232010490999992009010806004+69983+023367FM-12+0003ENAT V0201701N004012200019N0400001N1-00991-01401099651ADDAA112000091AY111061AY201061GF103991011051012501001081KA1120N-01011MA1999999099611MD1810201+9999MW1011REMSYN100AAXX  08061 01049 11682 31704 11099 21140 39961 49965 58020 60002 70110 81508 333 21101 7//// 91112;EQDQ01  00002PRCP12
0074010490999992009010806504+69983+023367FM-15+0003ENAT V0201501N00621220001CN0099001N1-01001-01501999999ADDMA1099491999999REMMET047METAR ENAT 080650Z 15012KT CAVOK M10/M15 Q0995;
0101010490999992009010807004+69983+023367FM-12+0003ENAT V0201601N005019999999N9999999N1-00951-01461099561ADDMA1999999099531MD1810231+9999REMSYN060AAXX  08071 01049 46/// /1605 11095 21146 39953 49956 58023;
0074010490999992009010807504+69983+023367FM-15+0003ENAT V0201401N00621220001CN0099001N1-01001-01501999999ADDMA1099391999999REMMET047METAR ENAT 080750Z 14012KT CAVOK M10/M15 Q0994;
0101010490999992009010808004+69983+023367FM-12+0003ENAT V0201401N006019999999N9999999N1-00961-01491099451ADDMA1999999099411MD1810281+9999REMSYN060AAXX  08081 01049 46/// /1406 11096 21149 39941 49945 58028;
0074010490999992009010808504+69983+023367FM-15+0003ENAT V0201401N00721220001CN0099001N1-00901-01601999999ADDMA1099291999999REMMET047METAR ENAT 080850Z 14014KT CAVOK M09/M16 Q0993;
0161010490999992009010809004+69983+023367FM-12+0003ENAT V0201401N006019999999N0600001N1-00881-01471099331ADDAY121031AY201031GF105991001001999999001081MA1999999099301MD1810311+9999MW1031REMSYN072AAXX  08091 01049 41986 51406 11088 21147 39930 49933 58031 70320 80008;
0153010490999992009010809504+69983+023367FM-15+0003ENAT V0201501N004610600019N0112651N1-00701-01301999999ADDGA1021+006001999GA2081+060001999GF108991999999999999999999MA1098921999999REMMET068METAR ENAT 080950Z 15009KT 090V200 9999 FEW020 OVC200 M07/M13 Q0989;
0101010490999992009010810004+69983+023367FM-12+0003ENAT V0201301N007019999999N9999999N1-00811-01311099141ADDMA1999999099111MD1810421+9999REMSYN060AAXX  08101 01049 46/// /1307 11081 21131 39911 49914 58042;
0101010490999992009010811004+69983+023367FM-12+0003ENAT V0201501N005019999999N9999999N1-00691-01191098931ADDMA1999999098901MD1810511+9999REMSYN060AAXX  08111 01049 46/// /1505 11069 21119 39890 49893 58051;
0153010490999992009010811504+69983+023367FM-15+0003ENAT V0201601N006710600019N0112651N1-00701-01301999999ADDGA1021+006001999GA2081+060001999GF108991999999999999999999MA1098711999999REMMET068METAR ENAT 081150Z 16013KT 110V250 9999 FEW020 OVC200 M07/M13 Q0987;
0117010490999992009010812004+69983+023367FM-12+0003ENAT V0201501N005019999999N9999999N1-00691-01231098731ADDMA1999999098701MD1810601+9999REMSYN076AAXX  08121 01049 16/// /1505 11069 21123 39870 49873 58060 6//// 333 91113;
0153010490999992009010812504+69983+023367FM-15+0003ENAT V0201601N006710600019N0112651N1-00701-01301999999ADDGA1021+006001999GA2081+060001999GF108991999999999999999999MA1098711999999REMMET068METAR ENAT 081250Z 16013KT 110V250 9999 FEW020 OVC200 M07/M13 Q0987;
0101010490999992009010813004+69983+023367FM-12+0003ENAT V0201601N006019999999N9999999N1-00611-01141098541ADDMA1999999098501MD1810601+9999REMSYN060AAXX  08131 01049 46/// /1606 11061 21114 39850 49854 58060;
0145010490999992009010813504+69983+023367FM-15+0003ENAT V0201301N004610300019N0112651N1-00601-01101999999ADDGA1021+006001999GA2071+030001999GF107991999999999999999999MA1098411999999REMMET060METAR ENAT 081350Z 13009KT 9999 FEW020 BKN100 M06/M11 Q0984;
0101010490999992009010814004+69983+023367FM-12+0003ENAT V0201401N005019999999N9999999N1-00611-01071098421ADDMA1999999098391MD1610511+9999REMSYN060AAXX  08141 01049 46/// /1405 11061 21107 39839 49842 56051;
0168010490999992009010814504+69983+023367FM-15+0003ENAT V0209999V00461009001CN0112651N1-00501-01001999999ADDGA1021+006001999GA2041+009001999GA3071+012001999GF107991999999999999999999MA1098211999999REMMET067METAR ENAT 081450Z VRB09KT 9999 FEW020 SCT030 BKN040 M05/M10 Q0982;
0161010490999992009010815004+69983+023367FM-12+0003ENAT V0201601N004010300019N0400001N1-00491-00951098291ADDAY121031AY221031GF107991031051008001071999MA1999999098261MD1810441+9999MW1021REMSYN072AAXX  08151 01049 41582 71604 11049 21095 39826 49829 58044 70222 8357/;
0153010490999992009010815504+69983+023367FM-15+0003ENAT V0201901N005710150019N0112651N1-00401-00901999999ADDGA1021+006001999GA2071+015001999GF107991999999999999999999MA1098101999999REMMET068METAR ENAT 081550Z 19011KT 130V250 9999 FEW020 BKN055 M04/M09 Q0981;
0101010490999992009010816004+69983+023367FM-12+0003ENAT V0201901N006019999999N9999999N1-00451-00901098121ADDMA1999999098091MD1810411+9999REMSYN060AAXX  08161 01049 46/// /1906 11045 21090 39809 49812 58041;
0176010490999992009010816504+69983+023367FM-15+0003ENAT V0201801N00571015001CN0112651N1-00401-00901999999ADDGA1021+007501999GA2041+015001999GA3071+021001999GF107991999999999999999999MA1098001999999REMMET075METAR ENAT 081650Z 18011KT 130V240 9999 FEW025 SCT050 BKN070 M04/M09 Q0980;
0101010490999992009010817004+69983+023367FM-12+0003ENAT V0202001N007019999999N9999999N1-00431-00941098031ADDMA1999999098001MD1810391+9999REMSYN060AAXX  08171 01049 46/// /2007 11043 21094 39800 49803 58039;
0145010490999992009010817504+69983+023367FM-15+0003ENAT V0209999V002610270019N0112651N1-00401-01001999999ADDGA1041+009001999GA2071+027001999GF107991999999999999999999MA1098001999999REMMET060METAR ENAT 081750Z VRB05KT 9999 SCT030 BKN098 M04/M10 Q0980;
0226010490999992009010818004+69983+023367FM-12+0003ENAT V0201701N005010300019N0400001N1-00441-00941098051ADDAA112000091AY121061AY221061GF106991041041012501071999KA1120M-00421MA1999999098021MD1510241+9999MW1011REMSYN094AAXX  08181 01049 11682 61705 11044 21094 39802 49805 55024 60002 70122 8447/ 333 11042 91113;EQDQ01  00002PRCP12
0153010490999992009010818504+69983+023367FM-15+0003ENAT V0201201N003610240019N0112651N1-00501-01001999999ADDGA1041+009001999GA2071+024001999GF107991999999999999999999MA1098001999999REMMET068METAR ENAT 081850Z 12007KT 070V170 9999 SCT030 BKN080 M05/M10 Q0980;
0101010490999992009010819004+69983+023367FM-12+0003ENAT V0201301N003019999999N9999999N1-00451-00911098091ADDMA1999999098061MD1510041+9999REMSYN060AAXX  08191 01049 46/// /1303 11045 21091 39806 49809 55004;
0170010490999992009010819504+69983+023367FM-15+0003ENAT V0200901N002610150019N0112651N1-00401-00901999999ADDGA1041+009001999GA2071+015001999GF107991999999999999999999MA1098101999999MW1161REMMET079METAR ENAT 081950Z 09005KT 040V110 9999 7000W VCSH SCT030 BKN055 M04/M09 Q0981;
0101010490999992009010820004+69983+023367FM-12+0003ENAT V0200701N002019999999N9999999N1-00411-00841098151ADDMA1999999098121MD1310121+9999REMSYN060AAXX  08201 01049 46/// /0702 11041 21084 39812 49815 53012;
0153010490999992009010820504+69983+023367FM-15+0003ENAT V0201501N002110150019N0112651N1-00501-00901999999ADDGA1021+010501999GA2071+015001999GF107991999999999999999999MA1098101999999REMMET068METAR ENAT 082050Z 15004KT 110V180 9999 FEW035 BKN055 M05/M09 Q0981;
0161010490999992009010821004+69983+023367FM-12+0003ENAT V0201501N003010300019N0400001N1-00431-00841098131ADDAY121031AY221031GF105991031041008001071001MA1999999098091MD1010081+9999MW1011REMSYN072AAXX  08211 01049 41582 51503 11043 21084 39809 49813 50008 70122 83470;
0145010490999992009010821504+69983+023367FM-15+0003ENAT V0201801N002110135019N0112651N1-00401-00901999999ADDGA1021+007501999GA2071+013501999GF107991999999999999999999MA1098101999999REMMET060METAR ENAT 082150Z 18004KT 9999 FEW025 BKN045 M04/M09 Q0981;
0101010490999992009010822004+69983+023367FM-12+0003ENAT V0201801N002019999999N9999999N1-00391-00821098191ADDMA1999999098161MD1310101+9999REMSYN060AAXX  08221 01049 46/// /1802 11039 21082 39816 49819 53010;
0145010490999992009010822504+69983+023367FM-15+0003ENAT V0201701N003610180019N0112651N1-00301-00901999999ADDGA1021+010501999GA2071+018001999GF107991999999999999999999MA1098101999999REMMET060METAR ENAT 082250Z 17007KT 9999 FEW035 BKN060 M03/M09 Q0981;
0101010490999992009010823004+69983+023367FM-12+0003ENAT V0201701N003019999999N9999999N1-00331-00801098191ADDMA1999999098151MD1310031+9999REMSYN060AAXX  08231 01049 46/// /1703 11033 21080 39815 49819 53003;
0117010490999992009010900004+69983+023367FM-12+0003ENAT V0201701N003019999999N9999999N1-00241-00741098161ADDMA1999999098131MD1010031+9999REMSYN076AAXX  09001 01049 16/// /1703 11024 21074 39813 49816 50003 6//// 333 91107;
0145010490999992009010900504+69983+023367FM-15+0003ENAT V0201601N001510150019N0112651N1-00201-00801999999ADDGA1021+009001999GA2071+015001999GF107991999999999999999999MA1098211999999REMMET060METAR ENAT 090050Z 16003KT 9999 FEW030 BKN050 M02/M08 Q0982;
0101010490999992009010901004+69983+023367FM-12+0003ENAT V0201601N002019999999N9999999N1-00221-00761098211ADDMA1999999098181MD1310021+9999REMSYN060AAXX  09011 01049 46/// /1602 11022 21076 39818 49821 53002;
0151010490999992009010901504+69983+023367FM-15+0003ENAT V0202101N003610120019N0050001N1-00201-00601999999ADDGA1021+006001999GA2071+012001999GF107991999999999999999999MA1098211999999REMMET066METAR ENAT 090150Z 21007KT 5000 -SHSN FEW020 BKN040 M02/M06 Q0982;
0101010490999992009010902004+69983+023367FM-12+0003ENAT V0202101N004019999999N9999999N1-00141-00511098251ADDMA1999999098221MD1310071+9999REMSYN060AAXX  09021 01049 46/// /2104 11014 21051 39822 49825 53007;
0151010490999992009010902504+69983+023367FM-15+0003ENAT V0201901N003110090019N0060001N1-00101-00401999999ADDGA1021+006001999GA2071+009001999GF107991999999999999999999MA1098211999999REMMET066METAR ENAT 090250Z 19006KT 6000 -SHSN FEW020 BKN030 M01/M04 Q0982;
0101010490999992009010903004+69983+023367FM-12+0003ENAT V0201701N003019999999N9999999N1-00131-00371098291ADDMA1999999098261MD1310131+9999REMSYN060AAXX  09031 01049 46/// /1703 11013 21037 39826 49829 53013;
0151010490999992009010903504+69983+023367FM-15+0003ENAT V0202501N002110075019N0060001N1+00001-00101999999ADDGA1021+005401999GA2071+007501999GF107991999999999999999999MA1098411999999REMMET066METAR ENAT 090350Z 25004KT 6000 -SHSN FEW018 BKN025 M00/M01 Q0984;
0101010490999992009010904004+69983+023367FM-12+0003ENAT V0202801N003019999999N9999999N1+00011-00131098441ADDMA1999999098411MD1310241+9999REMSYN060AAXX  09041 01049 46/// /2803 10001 21013 39841 49844 53024;
0158010490999992009010904504+69983+023367FM-15+0003ENAT V0203301N009310075019N0080001N1+00101-00201999999ADDGA1021+004501999GA2071+007501999GF107991999999999999999999MA1098611999999MW1801REMMET067METAR ENAT 090450Z 33018KT 8000 -SHSNRA FEW015 BKN025 01/M02 Q0986;
0101010490999992009010905004+69983+023367FM-12+0003ENAT V0203201N010019999999N9999999N1+00141-00131098711ADDMA1999999098681MD1310461+9999REMSYN060AAXX  09051 01049 46/// /3210 10014 21013 39868 49871 53046;
0158010490999992009010905504+69983+023367FM-15+0003ENAT V0203201N009310090019N0080001N1+00101-00201999999ADDGA1021+006001999GA2071+009001999GF107991999999999999999999MA1098821999999MW1801REMMET067METAR ENAT 090550Z 32018KT 8000 -SHSNRA FEW020 BKN030 01/M02 Q0988;
0142010490999992009010906004+69983+023367FM-12+0003ENAT V0203201N010019999999N9999999N1+00131-00211098891ADDKA1120N-00491MA1999999098851MD1310591+9999REMSYN088AAXX  09061 01049 16/// /3210 10013 21021 39885 49889 53059 6//// 333 21049 7//// 91118;
0167010490999992009010906504+69983+023367FM-15+0003ENAT V0203101N01341009001CN0112651N1+00201-00401999999ADDGA1021+006001999GA2041+009001999GA3071+015001999GF107991999999999999999999MA1098981999999REMMET066METAR ENAT 090650Z 31026KT 9999 FEW020 SCT030 BKN050 02/M04 Q0990;
0101010490999992009010907004+69983+023367FM-12+0003ENAT V0203301N014019999999N9999999N1+00161-00381099111ADDMA1999999099081MD1310661+9999REMSYN060AAXX  09071 01049 46/// /3314 10016 21038 39908 49911 53066;
0167010490999992009010907504+69983+023367FM-15+0003ENAT V0203301N01291009001CN0112651N1+00201-00401999999ADDGA1021+006001999GA2041+009001999GA3071+015001999GF107991999999999999999999MA1099291999999REMMET066METAR ENAT 090750Z 33025KT 9999 FEW020 SCT030 BKN050 02/M04 Q0993;
0101010490999992009010908004+69983+023367FM-12+0003ENAT V0203301N012019999999N9999999N1+00141-00461099401ADDMA1999999099361MD1310681+9999REMSYN060AAXX  09081 01049 46/// /3312 10014 21046 39936 49940 53068;
0144010490999992009010908504+69983+023367FM-15+0003ENAT V0203301N008212200019N0112651N1+00101-00501999999ADDGA1021+006001999GA2041+012001999GF104991999999999999999999MA1099491999999REMMET059METAR ENAT 090850Z 33016KT 9999 FEW020 SCT040 01/M05 Q0995;
0161010490999992009010909004+69983+023367FM-12+0003ENAT V0203301N007012200019N0600001N1+00121-00521099601ADDAY121031AY211031GF104991021081008001071001MA1999999099571MD1310721+9999MW1011REMSYN072AAXX  09091 01049 41586 43307 10012 21052 39957 49960 53072 70121 82870;
0144010490999992009010909504+69983+023367FM-15+0003ENAT V0202901N006212200019N0112651N1+00201-00501999999ADDGA1021+006001999GA2041+013501999GF104991999999999999999999MA1099701999999REMMET059METAR ENAT 090950Z 29012KT 9999 FEW020 SCT045 02/M05 Q0997;
0101010490999992009010910004+69983+023367FM-12+0003ENAT V0203001N006019999999N9999999N1+00161-00471099781ADDMA1999999099751MD1110671+9999REMSYN060AAXX  09101 01049 46/// /3006 10016 21047 39975 49978 51067;
0144010490999992009010910504+69983+023367FM-15+0003ENAT V0203101N004612200019N0112651N1+00101-00401999999ADDGA1021+006001999GA2041+012301999GF104991999999999999999999MA1099801999999REMMET059METAR ENAT 091050Z 31009KT 9999 FEW020 SCT041 01/M04 Q0998;
0101010490999992009010911004+69983+023367FM-12+0003ENAT V0203101N005019999999N9999999N1+00101-00461099861ADDMA1999999099831MD1110471+9999REMSYN060AAXX  09111 01049 46/// /3105 10010 21046 39983 49986 51047;
0152010490999992009010911504+69983+023367FM-15+0003ENAT V0202901N004612200019N0112651N1+00101-00401999999ADDGA1021+006001999GA2041+009001999GF104991999999999999999999MA1099901999999REMMET067METAR ENAT 091150Z 29009KT 260V320 9999 FEW020 SCT030 01/M04 Q0999;
0177010490999992009010912004+69983+023367FM-12+0003ENAT V0202701N002010300019N0600001N1+00091-00431099961ADDAY121061AY211061GF107991021061008001071081MA1999999099931MD1110361+9999MW1031REMSYN088AAXX  09121 01049 11586 72702 10009 21043 39993 49996 51036 6//// 70321 82678 333 91118;
0153010490999992009010912504+69983+023367FM-15+0003ENAT V0201901N001510090019N0112651N1+00001-00501999999ADDGA1021+004501999GA2071+009001999GF107991999999999999999999MA1100001999999REMMET068METAR ENAT 091250Z 19003KT 140V220 9999 FEW015 BKN030 M00/M05 Q1000;
0101010490999992009010913004+69983+023367FM-12+0003ENAT V0201901N002019999999N9999999N1-00021-00431100041ADDMA1999999100001MD1310261+9999REMSYN060AAXX  09131 01049 46/// /1902 11002 21043 30000 40004 53026;
0145010490999992009010913504+69983+023367FM-15+0003ENAT V0201901N004110105019N0112651N1-00201-00601999999ADDGA1021+007501999GA2071+010501999GF107991999999999999999999MA1100001999999REMMET060METAR ENAT 091350Z 19008KT 9999 FEW025 BKN035 M02/M06 Q1000;
0101010490999992009010914004+69983+023367FM-12+0003ENAT V0202001N005019999999N9999999N1-00241-00591100091ADDMA1999999100061MD1210231+9999REMSYN060AAXX  09141 01049 46/// /2005 11024 21059 30006 40009 52023;
0145010490999992009010914504+69983+023367FM-15+0003ENAT V0201701N003110129019N0112651N1-00201-00601999999ADDGA1021+007501999GA2071+012901999GF107991999999999999999999MA1100101999999REMMET060METAR ENAT 091450Z 17006KT 9999 FEW025 BKN043 M02/M06 Q1001;
0161010490999992009010915004+69983+023367FM-12+0003ENAT V0201601N001010120019N0500001N1-00241-00581100131ADDAY121031AY211031GF107991051081008001071999MA1999999100091MD1010161+9999MW1021REMSYN072AAXX  09151 01049 41584 71601 11024 21058 30009 40013 50016 70221 8587/;
0161010490999992009010915504+69983+023367FM-15+0003ENAT V0201701N003110108019N0112651N1-00301-00501999999ADDGA1021+006001999GA2071+010801999GF107991999999999999999999MA1100101999999MW1161REMMET070METAR ENAT 091550Z 17006KT 9999 VCSH FEW020 BKN036 M03/M05 Q1001 RESN;
0101010490999992009010916004+69983+023367FM-12+0003ENAT V0201701N003019999999N9999999N1-00251-00511100161ADDMA1999999100121MD1110121+9999REMSYN060AAXX  09161 01049 46/// /1703 11025 21051 30012 40016 51012;
0145010490999992009010916504+69983+023367FM-15+0003ENAT V0201901N002110141019N0112651N1-00201-00501999999ADDGA1021+009001999GA2071+014101999GF107991999999999999999999MA1100101999999REMMET060METAR ENAT 091650Z 19004KT 9999 FEW030 BKN047 M02/M05 Q1001;
0101010490999992009010917004+69983+023367FM-12+0003ENAT V0202001N002019999999N9999999N1-00191-00451100111ADDMA1999999100071MD1010021+9999REMSYN060AAXX  09171 01049 46/// /2002 11019 21045 30007 40011 50002;
0145010490999992009010917504+69983+023367FM-15+0003ENAT V0201901N003112200019N0112651N1-00101-00501999999ADDGA1021+009001999GA2041+014401999GF104991999999999999999999MA1100001999999REMMET060METAR ENAT 091750Z 19006KT 9999 FEW030 SCT048 M01/M05 Q1000;
0226010490999992009010918004+69983+023367FM-12+0003ENAT V0201901N002010300019N0300001N1-00131-00501100061ADDAA112000091AY121061AY221061GF105991041081008001071999KA1120M+00191MA1999999100031MD1810061+9999MW1011REMSYN094AAXX  09181 01049 11580 51902 11013 21050 30003 40006 58006 69902 70122 8487/ 333 10019 91106;EQDQ01  00002PRCP12
0145010490999992009010918504+69983+023367FM-15+0003ENAT V0201601N002612200019N0112651N1-00101-00601999999ADDGA1021+010501999GA2041+015001999GF104991999999999999999999MA1100001999999REMMET060METAR ENAT 091850Z 16005KT 9999 FEW035 SCT058 M01/M06 Q1000;
0101010490999992009010919004+69983+023367FM-12+0003ENAT V0201701N002019999999N9999999N1-00091-00551100021ADDMA1999999099991MD1810141+9999REMSYN060AAXX  09191 01049 46/// /1702 11009 21055 39999 40002 58014;
0122010490999992009010919504+69983+023367FM-15+0003ENAT V0201701N003612200019N0112651N1-00101-00701999999ADDGA1021+010501999GF102991999999999999999999MA1099901999999REMMET053METAR ENAT 091950Z 17007KT 9999 FEW035 M01/M07 Q0999;
0101010490999992009010920004+69983+023367FM-12+0003ENAT V0201401N003019999999N9999999N1-00091-00601099921ADDMA1999999099881MD1810191+9999REMSYN060AAXX  09201 01049 46/// /1403 11009 21060 39988 49992 58019;
0145010490999992009010920504+69983+023367FM-15+0003ENAT V0201401N003610240019N0112651N1-00101-00701999999ADDGA1021+012001999GA2071+024001999GF107991999999999999999999MA1099701999999REMMET060METAR ENAT 092050Z 14007KT 9999 FEW040 BKN080 M01/M07 Q0997;
0161010490999992009010921004+69983+023367FM-12+0003ENAT V0201401N004010300019N0300001N1-00101-00631099761ADDAY121031AY221031GF107991011051012501071999MA1999999099731MD1810301+9999MW1031REMSYN072AAXX  09211 01049 41680 71404 11010 21063 39973 49976 58030 70322 8157/;
0144010490999992009010921504+69983+023367FM-15+0003ENAT V0201501N005710210019N0112651N1+00101-00501999999ADDGA1021+009001999GA2071+021001999GF107991999999999999999999MA1099591999999REMMET059METAR ENAT 092150Z 15011KT 9999 FEW030 BKN070 01/M05 Q0996;
0101010490999992009010922004+69983+023367FM-12+0003ENAT V0201801N004019999999N9999999N1+00051-00571099611ADDMA1999999099581MD1810411+9999REMSYN060AAXX  09221 01049 46/// /1804 10005 21057 39958 49961 58041;
0144010490999992009010922504+69983+023367FM-15+0003ENAT V0201901N003110120019N0112651N1+00001-00501999999ADDGA1021+006001999GA2071+012001999GF107991999999999999999999MA1099391999999REMMET059METAR ENAT 092250Z 19006KT 9999 FEW020 BKN040 00/M05 Q0994;
0101010490999992009010923004+69983+023367FM-12+0003ENAT V0201701N004019999999N9999999N1+00001-00411099441ADDMA1999999099401MD1810481+9999REMSYN060AAXX  09231 01049 46/// /1704 10000 21041 39940 49944 58048;
0144010490999992009010923504+69983+023367FM-15+0003ENAT V0201201N003110180019N0112651N1+00001-00501999999ADDGA1021+009001999GA2071+018001999GF107991999999999999999999MA1099191999999REMMET059METAR ENAT 092350Z 12006KT 9999 FEW030 BKN060 00/M05 Q0992;
0117010490999992009011000004+69983+023367FM-12+0003ENAT V0201401N003019999999N9999999N1+00041-00481099221ADDMA1999999099181MD1810541+9999REMSYN076AAXX  10001 01049 16/// /1403 10004 21048 39918 49922 58054 6//// 333 91110;
