0172763930999992009010100004+25733-100300FM-12+051599999V0201101N003019999999N0100001N1+02141+01491101831ADDAA106000021AY141061AY241061GF108991999999008001999999MA1999999096141MD1410001+9999MW1501REMSYN072AAXX  01001 76393 01560 81103 10214 20149 39614 40183 54000 69901 75044;
0257763930999992009010115004+25733-100300FM-12+051599999V0200801N001010009019N0020001N1+01561+01461101891ADDAA103999929AA206004191AY141031AY251031GA1051+000901071GF108991081061001501999999IA1099MA1999999096081MD1210091-0161MW1221REMSYN124AAXX  01151 76393 01220 80801 10156 20146 39608 40189 52009 60041 72245 886// 91450 333 31/// 563// 59016 69907 85703 83606;
0172763930999992009010118004+25733-100300FM-12+051599999V0201001N001019999999N0020001N1+01781+01531101711ADDAA106000021AY141061AY221061GF106991999999002501999999MA1999999096001MD1710081+9999MW1051REMSYN072AAXX  01181 76393 01320 61001 10178 20153 39600 40171 57008 69901 70542;
0223763930999992009010203004+25733-100300FM-12+051599999V0209999C000012200019N0020001N1+01801+01551101351ADDAY141031AY211031GA1021+030001031GF104991021001999999031011IA1019MA1999999095631MD1210021+9999MW1051REMSYN112AAXX  02031 76393 31920 40000 10180 20155 39563 40135 52002 70541 82031 90245 333 30/// 56055 59/// 82360 82070;
0253763930999992009010206004+25733-100300FM-12+051599999V0209999C000012200019N0020001N1+01541+01411101341ADDAY141061AY211061GF103991031001022501041001GJ102589IA1019KA1240M+02161KA2240N+01381MA1999999095601MD1410001+9999MW1051REMSYN124AAXX  02061 76393 31820 30000 10154 20141 39560 40134 54003 70541 83040 90550 333 10216 20138 30/// 55043 56050 58/// 83360;
0208763930999992009010215004+25733-100300FM-12+051599999V0202201N001012200019N0160001N1+01741+01031101341ADDGA1031+060001001GF103991001001999999001041IA1019MA1999999095571MD1210071-0511REMSYN100AAXX  02151 76393 32866 32201 10174 20103 39557 40134 52007 80004 91450 333 30/// 56997 59051 83070;EQDQ01+022502SCOLCB
0255763930999992009010218004+25733-100300FM-12+051599999V0201001N00101090001CN0140001N1+02621+01021101221ADDGA1011+014401061GA2011+018001031GF105991011041012501041041IA1019KA1120M+02731KA2240N+01021MA1999999095531MD1710041-0471REMSYN124AAXX  02181 76393 32664 51001 10262 20102 39553 40122 57004 81444 91750 333 10273 20102 30/// 56357 59047 81648 81356 83070;
0245763930999992009010221004+25733-100300FM-12+051599999V0201201N00201036001CN0100001N1+02841+01191100771ADDAY141031AY241031GA1011+015001061GA2011+018001031GF105991011051017501011051IA1019MA1999999095151MD1710381+9999MW1041REMSYN118AAXX  02211 76393 31760 51202 10284 20119 39515 40077 57038 70444 81515 92055 333 30/// 56555 58/// 81650 81356 83070;
0281763930999992009010300004+25733-100300FM-12+051599999V0201101N003010075019N0100001N1+01502+01451100741ADDAA124000091AY141061AY241061GF107991071051008001999999IA1019KA1120M+02961KA2180N+01021MA1999999095161MD1210011+9999MW1041REMSYN130AAXX  03001 76393 31560 71103 10150 20145 39516 40074 52001 70444 875// 92350 333 10296 20102 30/// 5//// 5655/ 58/// 70000 86634;EQDQ01+001503ATOT  
0270763930999992009010306004+25733-100300FM-12+051599999V0201501N001010042019N0040001N1+02101+01641100961ADDAA124000091AY121061AY221061GF105991051051004501001001GJ104329IA1019KA1240M+02961KA2240N+01021MA1999999095391MD1210101-0211MW1051REMSYN130AAXX  03061 76393 31440 51501 10210 20164 39539 40096 52010 70522 85500 90555 333 10296 20102 30/// 55072 56300 59021 70000 85614;
0217763930999992009010309004+25733-100300FM-12+051599999V0201501N002010042019N0070001N1+01941+01541100821ADDAY121031AY221031GA1071+004201061GF107991071041004501999999IA1019MA1999999095231MD1710161+0001MW1051REMSYN106AAXX  03091 76393 31457 71502 10194 20154 39523 40082 57016 70522 874// 90840 333 30/// 56300 58000 87614;
0272763930999992009010312004+25733-100300FM-12+051599999V0202701N001010021019N0060001N1+01721+01531100821ADDAA124000091AY121061AY221061GA1061+002101061GF106991061041001501001001IA1019KA1240M+02961KA2120N+01701MA1999999095181MD1310051-0421MW1051REMSYN124AAXX  03121 76393 31256 62701 10172 20153 39518 40082 53005 70522 86400 91150 333 10296 20170 30140 56300 59042 70000 86607;
0208763930999992009010315004+25733-100300FM-12+051599999V0202301N014010720019N0100001N1+01961+01281100931ADDGA1051+072001001GF105991001001999999001041IA1019MA1999999095261MD1110081-0311REMSYN100AAXX  03151 76393 32960 52314 10196 20128 39526 40093 51008 85004 91455 333 30/// 56005 59031 85074;EQDQ01+000052SCOTLC
0274763930999992009010318004+25733-100300FM-12+051599999V0202201N006012200019N0050001N1+02581+01441100891ADDAY141061AY201061GA1041+072001001GF104991001001999999001041IA1019KA1120M+02861KA2240N+01601MA1999999095241MD1410001-0291MW1051REMSYN118AAXX  03181 76393 31950 42206 10258 20144 39524 40089 54002 70540 84004 91755 333 10286 20160 30/// 56005 59029 84074;EQDQ01+000042SCOTLC
0217763930999992009010321004+25733-100300FM-12+051599999V0201201N003012200019N0080001N1+03171+01241100531ADDAY141031AY241031GA1041+060001001GF104991001001999999001041IA1019MA1999999094951MD1710291-0201MW1051REMSYN106AAXX  03211 76393 31958 41203 10317 20124 39495 40053 57029 70544 80004 92055 333 30/// 56005 59020 84070;
0306763930999992009010400004+25733-100300FM-12+051599999V0201801N001010360019N0140001N1+02761+01291100511ADDAA124000091AY141061AY241061GA1011+013801061GA2031+018001031GF107991011051012501031041IA1019KA1120M+03251KA2180N+01601MA1999999094971MD1210021-0191MW1041REMSYN142AAXX  04001 76393 31664 71801 10276 20129 39497 40051 52002 70444 81534 92350 333 10325 20160 30/// 50281 56555 59019 70000 81646 83356 83070;
0251763930999992009010406004+25733-100300FM-12+051599999V0209999C000012200019N0040001N1+01961+01171100831ADDAY101061AY201061GA1001+999999999GF100991001001999999001001GJ104629IA1019KA1240M+03251KA2240N+01601MA1999999095291MD1210131-0101MW1041REMSYN106AAXX  04061 76393 31940 00000 10196 20117 39529 40083 52013 70400 90545 333 10325 20160 30/// 55077 59010;
0217763930999992009010409004+25733-100300FM-12+051599999V0202401N001012200019N0030001N1+01841+00861100791ADDAY121031AY221031GA1011+030001031GF101991011001999999041001IA1019MA1999999095191MD1510101-0041MW1051REMSYN106AAXX  04091 76393 31930 12401 10184 20086 39519 40079 55010 70522 81040 90840 333 30/// 56050 59004 81360;
0273763930999992009010412004+25733-100300FM-12+051599999V0202001N001012200019N0030001N1+01821+00751100921ADDAA124000091AY121061AY221061GA1001+999999999GF100991001001999999001001IA1019KA1240M+03251KA2120N+01781MA1999999095271MD1210081-0091MW1051REMSYN106AAXX  04121 76393 31930 02001 10182 20075 39527 40092 52008 70522 91140 333 10325 20178 30120 59009 70000;EQDQ01  00002PRCP24
0189763930999992009010415004+25733-100300FM-12+051599999V0202301N024010240019N0020001N1+02001+00771101201ADDGA1071+024001031GF107991071001999999041001IA1019MA1999999095501MD1210231+0241REMSYN100AAXX  04151 76393 32920 72324 10200 20077 39550 40120 52023 87040 91455 333 30/// 56050 58024 87358;
0246763930999992009010418004+25733-100300FM-12+051599999V0202801N001010240019N0200001N1+02581+01001101251ADDGA1071+024001031GF107991071001022501999041IA1019KA1120M+02701KA2240N+01781MA1999999095581MD1410001+0341REMSYN112AAXX  04181 76393 32870 72801 10258 20100 39558 40125 54008 87004 91755 333 10270 20178 30/// 56050 58034 87358;EQDQ01+000002SCOMCG
0189763930999992009010421004+25733-100300FM-12+051599999V0201101N002012200019N0160001N1+03161+00911101011ADDGA1021+021001061GF104991021051022501031011IA1019MA1999999095401MD1710181+0451REMSYN100AAXX  04211 76393 32866 41102 10316 20091 39540 40101 57018 82531 92055 333 30/// 56555 58045 82657;
0284763930999992009010500004+25733-100300FM-12+051599999V0201001N002010360019N0140001N1+02641+01291101171ADDAA124000091AY141061AY241061GA1021+012901061GF106991021051012501031011IA1019KA1120M+03221KA2180N+01781MA1999999095601MD1210201+0631MW1041REMSYN136AAXX  05001 76393 31664 61002 10264 20129 39560 40117 52020 70444 82531 92350 333 10322 20178 30/// 50341 56555 58063 70000 82643 83356;
0217763930999992009010503004+25733-100300FM-12+051599999V0203601N001010054019N0080001N1+01841+01291101511ADDAY121031AY221031GA1061+005401061GF106991061051004501001001IA1019MA1999999095931MD1210331+0771MW1041REMSYN106AAXX  05031 76393 31458 63601 10184 20129 39593 40151 52033 70422 86500 90245 333 30/// 56300 58077 86618;
0270763930999992009010506004+25733-100300FM-12+051599999V0203601N001010042019N0020001N1+01461+00891101731ADDAA124000091AY141061AY221061GF108991081071004501999999GJ101749IA1019KA1240M+03221KA2240N+01421MA1999999096091MD1210161+0801MW1051REMSYN130AAXX  05061 76393 31420 83601 10146 20089 39609 40173 52016 70542 887// 90550 333 10322 20142 30/// 55029 56399 58080 70000 88619;
0253763930999992009010509004+25733-100300FM-12+051599999V0203601N003010060019N0020001N1+01201+00591101781ADDAA103000091AY121031AY221031GA1081+006001071GF108991081071008001999999IA1019MA1999999096061MD1510031+0871MW1051REMSYN112AAXX  05091 76393 21520 83603 10120 20059 39606 40178 55003 70522 887// 90840 333 30/// 568// 58087 69907 88720;EQDQ01  00002PRCP03
0191763930999992009010512004+25733-100300FM-12+051599999V0200901N001019999999N0020001N1+01141+00651101861ADDAA106000091AY121061AY221061GF108991999999004501999999MA1999999096051MD1410001+9999MW1051REMSYN072AAXX  05121 76393 11420 80901 10114 20065 39605 40186 54000 69901 70522;EQDQ01  00002PRCP06
0223763930999992009010515004+25733-100300FM-12+051599999V0200301N001010069019N0040001N1+01201+00501102051ADDAY141031AY211031GA1051+006901061GF108991051051008001021999IA1019MA1999999096201MD1210151+0701MW1051REMSYN112AAXX  05151 76393 31540 80301 10120 20050 39620 40205 52015 70541 8552/ 91450 333 30/// 5685/ 58070 85623 83456;
0233763930999992009010518004+25733-100300FM-12+051599999V0200601N001010033019N0050001N1+01301+00951101901ADDGA1061+003301061GF108991061051004501021999IA1019KA1120M+01381KA2240N+01081MA1999999096031MD1710171+0451REMSYN118AAXX  05181 76393 32450 80601 10130 20095 39603 40190 57017 8652/ 91750 333 10138 20108 30/// 5675/ 58045 86611 83456;
0253763930999992009010521004+25733-100300FM-12+051599999V0201101N003010030019N0030001N1+01241+00921101411ADDAA103000091AY151031AY241031GA1081+003001061GF108991081051004501999999IA1019MA1999999095571MD1710461+0171MW1051REMSYN112AAXX  05211 76393 21430 81103 10124 20092 39557 40141 57046 70554 885// 92055 333 30/// 563// 58017 69907 88610;EQDQ01  00002PRCP03
0172763930999992009010600004+25733-100300FM-12+051599999V0201201N003019999999N0030001N1+01071+00871101311ADDAA106000021AY141061AY221061GF108991999999002501999999MA1999999095471MD1710101+9999MW1501REMSYN072AAXX  06001 76393 01330 81203 10107 20087 39547 40131 57010 69901 75042;
0217763930999992009010603004+25733-100300FM-12+051599999V0201101N001010030019N0020001N1+01001+00701101371ADDAY141031AY221031GA1081+003001061GF108991081051002501999999IA1019MA1999999095521MD1210051-0411MW1051REMSYN106AAXX  06031 76393 31320 81101 10100 20070 39552 40137 52005 70542 885// 90250 333 30/// 56399 59041 88610;
0253763930999992009010606004+25733-100300FM-12+051599999V0201201N001010021019N0020001N1+00961+00731101171ADDAY141061AY221061GF108991081051002501999999GJ100009IA1019KA1240M+01441KA2240N+00921MA1999999095321MD1710201-0771MW1051REMSYN124AAXX  06061 76393 31320 81201 10096 20073 39532 40117 57020 70542 885// 90550 333 10144 20092 30/// 55000 56399 59077 88608;
0217763930999992009010609004+25733-100300FM-12+051599999V0209999C000010033019N0020001N1+00981+00671100861ADDAY121031AY221031GA1081+003301071GF108991081061004501999999IA1019MA1999999095021MD1710301-1041MW1051REMSYN106AAXX  06091 76393 31420 80000 10098 20067 39502 40086 57030 70522 886// 90840 333 30/// 563// 59104 88711;
0272763930999992009010612004+25733-100300FM-12+051599999V0201101N001010027019N0020001N1+00961+00691100761ADDAA124000091AY121061AY221061GA1071+002701061GF107991071051002501999999IA1019KA1240M+01441KA2120N+00901MA1999999094911MD1510111-1141MW1051REMSYN124AAXX  06121 76393 31320 71101 10096 20069 39491 40076 55011 70522 875// 91140 333 10144 20090 30090 563// 59114 70000 87609;
0223763930999992009010615004+25733-100300FM-12+051599999V0203001N00101001201CN0020001N1+00921+00731101101ADDAY141031AY221031GA1031+001801071GF108991081061001501999999IA1019MA1999999095221MD1210311-0981MW1051REMSYN112AAXX  06151 76393 31220 83001 10092 20073 39522 40110 52031 70542 886// 91450 333 30/// 5635/ 59098 83706 85608;
0274763930999992009010618004+25733-100300FM-12+051599999V0201601N001012200019N0030001N1+01681+00911101071ADDAY141061AY211061GA1021+018001031GF102991999001008001031999IA1019KA1120M+01791KA2240N+00901MA1999999095191MD1810031-0841MW1051REMSYN118AAXX  06181 76393 31530 21601 10168 20091 39519 40107 58003 70541 8003/ 91750 333 10179 20090 30/// 56959 59084 82356;EQDQ01+000002SCOTLC
0253763930999992009010621004+25733-100300FM-12+051599999V0201101N002012200019N0060001N1+02261+00951999999ADDAY141031AY241031GA1011+012901081GF102991011999012501001011IA1019MD1710251-0631MW1041REMSYN106AAXX  06211 76393 31656 21102 10226 20095 30070 49494 57025 70444 81001 92055 333 30/// 56505 59063 81843;EQDQ01+000002SCOLCGQ02+100703APOSP Q03+094943APOSLP
0245763930999992009010700004+25733-100300FM-12+051599999V0201101N003012200019N0080001N1+02101+01051100861ADDAY141061AY241061GF101991001001999999001011IA1019KA1120M+02411KA2180N+00901MA1999999095151MD1210211-0321MW1041REMSYN124AAXX  07001 76393 31958 11103 10210 20105 39515 40086 52021 70444 80001 92350 333 10241 20090 30/// 50151 56005 59032 70000;
0199763930999992009010703004+25733-100300FM-12+051599999V0203401N001012200019N0060001N1+01641+00981101011ADDAY101031AY201031GA1001+999999999GF100991001001999999001001IA1019MA1999999095331MD1210181-0191MW1041REMSYN088AAXX  07031 76393 31956 03401 10164 20098 39533 40101 52018 70400 90250 333 30/// 59019;
0287763930999992009010706004+25733-100300FM-12+051599999V0202901N001012200019N0040001N1+01421+01001101471ADDAA124000091AY101061AY201061GA1001+999999999GF100991001001999999001001GJ104749IA1019KA1240M+02411KA2240N+00901MA1999999095761MD1210431+0441MW1041REMSYN112AAXX  07061 76393 31940 02901 10142 20100 39576 40147 52043 70400 90550 333 10241 20090 30/// 55079 58044 70000;EQDQ01  00002PRCP24
0199763930999992009010709004+25733-100300FM-12+051599999V0202201N001012200019N0030001N1+01261+00901101471ADDAY141031AY241031GA1001+999999999GF100991001001999999001001IA1019MA1999999095711MD1610051+0691MW1051REMSYN088AAXX  07091 76393 31930 02201 10126 20090 39571 40147 56005 70544 90840 333 30/// 58069;
0273763930999992009010712004+25733-100300FM-12+051599999V0201601N001012200019N0030001N1+01241+00761101561ADDAA124000091AY141061AY241061GA1001+999999999GF100991001001999999001001IA1019KA1240M+02411KA2120N+01121MA1999999095751MD1310041+0841MW1051REMSYN106AAXX  07121 76393 31930 01601 10124 20076 39575 40156 53004 70544 91140 333 10241 20112 30074 58084 70000;EQDQ01  00002PRCP24
0177763930999992009010715004+25733-100300FM-12+051599999V0202101N001012200019N0100001N1+01461+00831101821ADDGA1001+999999999GF100991001001999999001001IA1019MA1999999095981MD1210231+0761REMSYN088AAXX  07151 76393 32960 02101 10146 20083 39598 40182 52023 91450 333 30/// 56999 58076;
0215763930999992009010718004+25733-100300FM-12+051599999V0202401N001012200019N0120001N1+02081+00751101671ADDGA1001+999999999GF100991001001999999001001IA1019KA1120M+02181KA2240N+01121MA1999999095841MD1710141+0651REMSYN100AAXX  07181 76393 32962 02401 10208 20075 39584 40167 57014 91750 333 10218 20112 30/// 56999 58065;
0199763930999992009010721004+25733-100300FM-12+051599999V0201201N002012200019N0120001N1+02441+00741101181ADDAY141031AY241031GA1001+999999999GF100991001001999999001001IA1019MA1999999095441MD1710041+0051MW1041REMSYN088AAXX  07211 76393 31962 01202 10244 20074 39544 40118 57004 70444 92055 333 30/// 58005;
0279763930999992009010800004+25733-100300FM-12+051599999V0201801N002012200019N0140001N1+02221+00711101101ADDAA124000091AY141061AY241061GA1001+999999999GF100991001001999999001001IA1019KA1120M+02531KA2180N+01121MA1999999095421MD1510021+0271MW1041REMSYN112AAXX  08001 76393 31964 01802 10222 20071 39542 40110 55002 70444 92350 333 10253 20112 30/// 50281 58027 70000;EQDQ01  00002PRCP24
0171763930999992009010803004+25733-100300FM-12+051599999V0202301N001012200019N0180001N1+01741+00981101151ADDGA1001+999999999GF100991001001999999001001IA1019MA1999999095491MD1410001+0161REMSYN082AAXX  08031 76393 32968 02301 10174 20098 39549 40115 54007 90255 333 30/// 58016;
0223763930999992009010806004+25733-100300FM-12+051599999V0202301N001012200019N0180001N1+01481+00751101241ADDGA1001+999999999GF100991001001999999001001GJ105709IA1019KA1240M+02531KA2240N+01121MA1999999095561MD1410001-0201REMSYN100AAXX  08061 76393 32968 02301 10148 20075 39556 40124 54007 90555 333 10253 20112 30/// 55095 59020;
0199763930999992009010809004+25733-100300FM-12+051599999V0202201N001012200019N0030001N1+01321+00691101241ADDAY141031AY241031GA1001+999999999GF100991001001999999001001IA1019MA1999999095521MD1710041-0191MW1051REMSYN088AAXX  08091 76393 31930 02201 10132 20069 39552 40124 57004 70544 90840 333 30/// 59019;
0273763930999992009010812004+25733-100300FM-12+051599999V0202401N001012200019N0030001N1+01241+00501101311ADDAA124000091AY141061AY241061GA1001+999999999GF100991001001999999001001IA1019KA1240M+02531KA2120N+01141MA1999999095541MD1010021-0211MW1051REMSYN106AAXX  08121 76393 31930 02401 10124 20050 39554 40131 50002 70544 91135 333 10253 20114 30065 59021 70000;EQDQ01  00002PRCP24
0199763930999992009010815004+25733-100300FM-12+051599999V0202001N001012200019N0060001N1+01701+00441101621ADDAY141031AY241031GA1001+999999999GF100991001001999999001001IA1019MA1999999095811MD1210271-0171MW1051REMSYN088AAXX  08151 76393 31956 02001 10170 20044 39581 40162 52027 70544 91455 333 30/// 59017;
0237763930999992009010818004+25733-100300FM-12+051599999V0200901N001012200019N0080001N1+02601+00121101511ADDAY141061AY241061GA1001+999999999GF100991001001999999001001IA1019KA1120M+02761KA2240N+01141MA1999999095741MD1710071-0101MW1051REMSYN100AAXX  08181 76393 31958 00901 10260 20012 39574 40151 57007 70544 91755 333 10276 20114 30/// 59010;
0177763930999992009010821004+25733-100300FM-12+051599999V0200401N001012200019N0100001N1+02961+00721101151ADDGA1001+999999999GF100991001001999999001001IA1019MA1999999095451MD1710291+0011REMSYN088AAXX  08211 76393 32960 00401 10296 20072 39545 40115 57029 92050 333 30/// 56999 58001;
0227763930999992009010900004+25733-100300FM-12+051599999V0200901N001012200019N0120001N1+02681+00871101021ADDGA1001+999999999GF100991001001999999001001IA1019KA1120M+03061KA2180N+01141MA1999999095411MD1510041-0011REMSYN112AAXX  09001 76393 32962 00901 10268 20087 39541 40102 55004 92350 333 10306 20114 30/// 50361 56999 59001 70000;
0199763930999992009010903004+25733-100300FM-12+051599999V0202801N001012200019N0080001N1+01941+00821101131ADDAY101031AY201031GA1001+999999999GF100991001001999999001001IA1019MA1999999095561MD1210151+0071MW1041REMSYN088AAXX  09031 76393 31958 02801 10194 20082 39556 40113 52015 70400 90250 333 30/// 58007;
0287763930999992009010906004+25733-100300FM-12+051599999V0202301N001012200019N0060001N1+01741+00861101181ADDAA124000091AY101061AY201061GA1001+999999999GF100991001001999999001001GJ105289IA1019KA1240M+03061KA2240N+01141MA1999999095581MD1210021+0021MW1041REMSYN112AAXX  09061 76393 31956 02301 10174 20086 39558 40118 52002 70400 90545 333 10306 20114 30/// 55088 58002 70000;EQDQ01  00002PRCP24
0171763930999992009010909004+25733-100300FM-12+051599999V0202901N001012200019N0180001N1+01481+00711101141ADDGA1001+999999999GF100991001001999999001001IA1019MA1999999095481MD1610101-0041REMSYN082AAXX  09091 76393 32968 02901 10148 20071 39548 40114 56010 90855 333 30/// 59004;
0245763930999992009010912004+25733-100300FM-12+051599999V0202901N001012200019N0160001N1+01341+00631101171ADDAA124000091GA1001+999999999GF100991001001999999001001IA1019KA1240M+03061KA2120N+01121MA1999999095441MD1410001-0101REMSYN100AAXX  09121 76393 32966 02901 10134 20063 39544 40117 54004 91155 333 10306 20112 30080 59010 70000;EQDQ01  00002PRCP24
0199763930999992009010915004+25733-100300FM-12+051599999V0201901N001012200019N0080001N1+01771+00471101391ADDAY141031AY241031GA1001+999999999GF100991001001999999001001IA1019MA1999999095621MD1210181-0191MW1051REMSYN088AAXX  09151 76393 31958 01901 10177 20047 39562 40139 52018 70544 91455 333 30/// 59019;
0237763930999992009010918004+25733-100300FM-12+051599999V0201101N001012200019N0050001N1+02401+01211101301ADDAY141061AY241061GA1001+999999999GF100991001001999999001001IA1019KA1120M+02501KA2240N+01121MA1999999095561MD1710061-0181MW1041REMSYN100AAXX  09181 76393 31950 01101 10240 20121 39556 40130 57006 70444 91750 333 10250 20112 30/// 59018;
0208763930999992009010921004+25733-100300FM-12+051599999V0200501N002012200019N0080001N1+02801+01421100981ADDGA1011+060001001GF101991001001999999001011IA1019MA1999999095291MD1710271-0161REMSYN100AAXX  09211 76393 32858 10502 10280 20142 39529 40098 57027 80001 92050 333 30/// 56995 59016 81070;EQDQ01+022502SCOLCB
0303763930999992009011000004+25733-100300FM-12+051599999V0201301N001012200019N0080001N1+02661+01391100901ADDAA124000091AY141061AY201061GA1011+018001031GF104991999001012501031021IA1019KA1120M+02951KA2180N+01121MA1999999095291MD1510001-0121MW1051REMSYN136AAXX  10001 76393 31658 41301 10266 20139 39529 40090 55000 70540 80032 92350 333 10295 20112 30/// 50281 56955 59012 70000 81356 83070;EQDQ01+000002SCOTLC
0236763930999992009011003004+25733-100300FM-12+051599999V0202501N001010600019N0070001N1+02181+01171100951ADDAY121031AY221031GA1071+060001001GF107991001001999999001041IA1019MA1999999095381MD1210091-0181MW1051REMSYN106AAXX  10031 76393 31957 72501 10218 20117 39538 40095 52009 70522 87004 90240 333 30/// 56005 59018 87070;EQDQ01+000072SCOTLC
0272763930999992009011006004+25733-100300FM-12+051599999V0202501N001019999999N0030001N1+01881+01191101021ADDAY141061AY241061GF107991001001999999001011GJ105049IA1019KA1240M+02951KA2240N+01121MA1999999095441MD1110061-0141MW1051REMSYN124AAXX  10061 76393 31930 72501 10188 20119 39544 40102 51006 70544 87001 90540 333 10295 20112 30/// 55084 56005 59014 87070;EQDQ01+000072SCOTLC
0236763930999992009011015004+25733-100300FM-12+051599999V0202201N001012200019N0080001N1+01841+00781101521ADDAY141031AY211031GA1041+072001001GF104991001001999999001041IA1019MA1999999095781MD1210241+0161MW1051REMSYN106AAXX  10151 76393 31958 42201 10184 20078 39578 40152 52024 70541 84004 91455 333 30/// 56005 58016 84074;EQDQ01+000042SCOTLC
0274763930999992009011018004+25733-100300FM-12+051599999V0200501N004012200019N0030001N1+02221+01181101831ADDAY141061AY201061GA1031+072001001GF103991001001999999001041IA1019KA1120M+02361KA2240N+01141MA1999999096091MD1210311+0531MW1051REMSYN118AAXX  10181 76393 31930 30504 10222 20118 39609 40183 52031 70540 83004 91755 333 10236 20114 30/// 56005 58053 83074;EQDQ01+000032SCOTLC
0223763930999992009011021004+25733-100300FM-12+051599999V0203301N002012200019N0050001N1+01921+00841101931ADDAY141031AY201031GA1021+010801061GF104991021041012501001041IA1019MA1999999096201MD1210111+1111MW1051REMSYN112AAXX  10211 76393 31650 43302 10192 20084 39620 40193 52011 70540 82404 92050 333 30/// 56395 58111 82636 82070;
0262763930999992009011100004+25733-100300FM-12+051599999V0200901N003010120019N0050001N1+01661+00441102061ADDAA124000091AY141061AY211061GF107991071041012501999999IA1019KA1120M+02401KA2180N+01121MA1999999096321MD1210121+1031MW1051REMSYN130AAXX  11001 76393 31650 70903 10166 20044 39632 40206 52012 70541 874// 92350 333 10240 20112 30/// 50341 561// 58103 70000 87640;
0217763930999992009011103004+25733-100300FM-12+051599999V0209999C000010132019N0030001N1+01541+00211102261ADDAY121031AY221031GA1081+013201071GF108991081071012501999999IA1019MA1999999096501MD1210181-1121MW1051REMSYN106AAXX  11031 76393 31630 80000 10154 20021 39650 40226 52018 70522 887// 90240 333 30/// 563// 59112 88744;
0270763930999992009011106004+25733-100300FM-12+051599999V0200301N003010120019N0030001N1+01281-00071102591ADDAA124000091AY121061AY221061GF108991081071012501999999GJ104509IA1019KA1240M+02401KA2240N+01141MA1999999096771MD1210271-1331MW1051REMSYN130AAXX  11061 76393 31630 80303 10128 21007 39677 40259 52027 70522 887// 90540 333 10240 20114 30/// 55075 563// 59133 70000 88740;
0189763930999992009011115004+25733-100300FM-12+051599999V0203201N002010078019N0160001N1+01211-00421102901ADDGA1081+007801061GF108991081051008001999999IA1019MA1999999096991MD1210121+1211REMSYN100AAXX  11151 76393 32566 83202 10121 21042 39699 40290 52012 885// 91455 333 30/// 568// 58121 88626;
0227763930999992009011118004+25733-100300FM-12+051599999V0203401N001010096019N0160001N1+01381-00411102921ADDGA1081+009601061GF108991081051008001999999IA1019KA1120M+01461KA2240N+01101MA1999999097011MD1010021+1121REMSYN112AAXX  11181 76393 32566 83401 10138 21041 39701 40292 50002 885// 91750 333 10146 20110 30/// 568// 58112 88632;
0208763930999992009011121004+25733-100300FM-12+051599999V0201801N001010720019N0190001N1+01701-00461102461ADDGA1061+072001001GF106991001001999999001041IA1019MA1999999096581MD1710431+0381REMSYN100AAXX  11211 76393 32969 61801 10170 21046 39658 40246 57043 86004 92055 333 30/// 56005 58038 86074;EQDQ01+000062SCOTLC
0253763930999992009011200004+25733-100300FM-12+051599999V0201401N001019999999N0180001N1+01701-00251102351ADDAA124000091GF106991001001999999001041IA1019KA1120M+01921KA2180N+01101MA1999999096511MD1610071+0191REMSYN124AAXX  12001 76393 32968 61401 10170 21025 39651 40235 56007 86004 92355 333 10192 20110 30/// 50561 56005 58019 70000 86074;EQDQ01+000062SCOTLC
0236763930999992009011203004+25733-100300FM-12+051599999V0200701N001010600019N0030001N1+01381-00201102381ADDAY121031AY221031GA1071+060001001GF107991001001999999001021IA1019MA1999999096551MD1210041-0051MW1051REMSYN106AAXX  12031 76393 31930 70701 10138 21020 39655 40238 52004 70522 87002 90240 333 30/// 56005 59005 87070;EQDQ01+000072SCOTLC
0272763930999992009011206004+25733-100300FM-12+051599999V0202601N001019999999N0060001N1+01121-00301102361ADDAY141061AY201061GF105991001001999999001021GJ101209IA1019KA1240M+02401KA2240N+01101MA1999999096531MD1010021-0241MW1051REMSYN124AAXX  12061 76393 31956 52601 10112 21030 39653 40236 50002 70540 85002 90550 333 10240 20110 30/// 55020 56005 59024 85070;EQDQ01+000052SCOTLC
0195763930999992009011215004+25733-100300FM-12+051599999V0209999C000012200019N0060001N1+01151-00041102321ADDAY141031AY241031GF102991011001022501031011IA1019MA1999999096421MD1710031-0571MW1041REMSYN100AAXX  12151 76393 31856 20000 10115 21004 39642 40232 57003 70444 81031 91455 333 30/// 56055 59057;
0255763930999992009011218004+25733-100300FM-12+051599999V0209999C000010600019N0060001N1+01701-00031102241ADDAY141061AY241061GA1051+060001001GF106991011001022501031041IA1019KA1120M+01831KA2240N+00801MA1999999096351MD1710071-0661MW1041REMSYN118AAXX  12181 76393 31856 60000 10170 21003 39635 40224 57007 70444 81034 91750 333 10183 20080 30/// 56055 59066 85070;
0223763930999992009011221004+25733-100300FM-12+051599999V0200601N00301220001CN0080001N1+02041+00091101801ADDAY141031AY201031GA1021+018001031GF106991041001017501041041IA1019MA1999999095951MD1710401-0631MW1031REMSYN112AAXX  12211 76393 31758 60603 10204 20009 39595 40180 57040 70340 84044 92050 333 30/// 56955 59063 82356 84070;
0199763930999992009011303004+25733-100300FM-12+051599999V0201201N003012200019N0030001N1+01481+00001101991ADDAY101031AY201031GA1001+999999999GF100991001001999999001001IA1019MA1999999096221MD1210021-0331MW1051REMSYN088AAXX  13031 76393 31930 01203 10148 20000 39622 40199 52002 70500 90240 333 30/// 59033;
0287763930999992009011306004+25733-100300FM-12+051599999V0202101N001012200019N0030001N1+01261+00281102181ADDAA124000091AY101061AY201061GA1001+999999999GF100991001001999999001001GJ105109IA1019KA1240M+02171KA2240N+01201MA1999999096391MD1210171-0141MW1051REMSYN112AAXX  13061 76393 31930 02101 10126 20028 39639 40218 52017 70500 90540 333 10217 20120 30/// 55085 59014 70000;EQDQ01  00002PRCP24
0199763930999992009011315004+25733-100300FM-12+051599999V0203601N001012200019N0080001N1+01131-00321103231ADDAY141031AY241031GA1001+999999999GF100991001001999999001001IA1019MA1999999097301MD1210201+0881MW1051REMSYN088AAXX  13151 76393 31958 03601 10113 21032 39730 40323 52020 70544 91455 333 30/// 58088;
0233763930999992009011318004+25733-100300FM-12+051599999V0201301N002012200019N0120001N1+01461-00271103151ADDAY141061AY241061GF101991001001999999001011IA1019KA1120M+01641KA2240N+00801MA1999999097221MD1710081+0871MW1041REMSYN112AAXX  13181 76393 31962 11302 10146 21027 39722 40315 57008 70444 80001 91750 333 10164 20080 30/// 56004 58087;
0171763930999992009011321004+25733-100300FM-12+051599999V0200801N001012200019N0150001N1+01841+00121102681ADDGA1001+999999999GF100991001001999999001001IA1019MA1999999096781MD1710441+0831REMSYN082AAXX  13211 76393 32965 00801 10184 20012 39678 40268 57044 92050 333 30/// 58083;
0251763930999992009011400004+25733-100300FM-12+051599999V0201201N003012200019N0100001N1+01601+00081102501ADDAA124000091GA1001+999999999GF100991001001999999001001IA1019KA1120M+02001KA2180N+00801MA1999999096651MD1710131+0631REMSYN106AAXX  14001 76393 32960 01203 10160 20008 39665 40250 57013 92350 333 10200 20080 30/// 50301 58063 70000;EQDQ01  00002PRCP24
0199763930999992009011403004+25733-100300FM-12+051599999V0203101N001012200019N0030001N1+01241+00041102451ADDAY101031AY201031GA1001+999999999GF100991001001999999001001IA1019MA1999999096621MD1610031+0401MW1051REMSYN088AAXX  14031 76393 31930 03101 10124 20004 39662 40245 56003 70500 90240 333 30/// 58040;
0287763930999992009011406004+25733-100300FM-12+051599999V0203001N001012200019N0030001N1+01001-00071102441ADDAA124000091AY101061AY201061GA1001+999999999GF100991001001999999001001GJ105529IA1019KA1240M+02001KA2240N+00961MA1999999096591MD1710031-0201MW1051REMSYN112AAXX  14061 76393 31930 03001 10100 21007 39659 40244 57003 70500 90540 333 10200 20096 30/// 55092 59020 70000;EQDQ01  00002PRCP24
0199763930999992009011409004+25733-100300FM-12+051599999V0203201N001012200019N0020001N1+00901+00011102281ADDAY101031AY201031GA1001+999999999GF100991001001999999001001IA1019MA1999999096411MD1710181+9999MW1051REMSYN088AAXX  14091 76393 31920 03201 10090 20001 39641 40228 57018 70500 90850 333 30/// 58///;
0285763930999992009011412004+25733-100300FM-12+051599999V0209999C000012200019N0020001N1+00741+00021102331ADDAA124000091AY101061AY201061GA1001+999999999GF100991001001999999001001IA1019IA2999+00309KA1240M+02001KA2120N+00601MA1999999096401MD1710011-0701MW1041REMSYN106AAXX  14121 76393 31920 00000 10074 20002 39640 40233 57001 70400 91145 333 10200 20060 30030 59070 70000;EQDQ01  00002PRCP24
0195763930999992009011415004+25733-100300FM-12+051599999V0203501N001012200019N0050001N1+00941+00011102391ADDAY141031AY241031GF101991001001999999001011IA1019MA1999999096411MD1210031-0871MW1041REMSYN100AAXX  14151 76393 31950 13501 10094 20001 39641 40239 52003 70444 80001 91455 333 30/// 56005 59087;
0233763930999992009011418004+25733-100300FM-12+051599999V0203501N001012200019N0050001N1+01521+00291102351ADDAY141061AY241061GF101991001001999999001011IA1019KA1120M+01651KA2240N+00601MA1999999096401MD1710031-0821MW1041REMSYN112AAXX  14181 76393 31950 13501 10152 20029 39640 40235 57003 70444 80001 91750 333 10165 20060 30/// 56004 59082;
0189763930999992009011421004+25733-100300FM-12+051599999V0200501N001012200019N0100001N1+01921+00561102071ADDGA1011+060001001GF101991001001999999001041IA1019MA1999999096181MD1710221-0601REMSYN100AAXX  14211 76393 32960 10501 10192 20056 39618 40207 57022 80004 92050 333 30/// 56005 59060 81070;
0275763930999992009011500004+25733-100300FM-12+051599999V0201101N002012200019N0100001N1+01861+00421102041ADDAA124000091GA1011+018001031GF103991999001999999041011IA1019KA1120M+02041KA2180N+00601MA1999999096201MD1210021-0451REMSYN130AAXX  15001 76393 32960 31102 10186 20042 39620 40204 52002 80041 92350 333 10204 20060 30/// 50271 56055 59045 70000 81356 82070;EQDQ01+000002SCOTLC
0208763930999992009011503004+25733-100300FM-12+051599999V0201401N001012200019N0150001N1+01481+00491102171ADDGA1031+072001001GF103991001001999999001041IA1019MA1999999096371MD1210171-0251REMSYN100AAXX  15031 76393 32965 31401 10148 20049 39637 40217 52017 83004 90255 333 30/// 56005 59025 83074;EQDQ01+000032SCOTLC
0261763930999992009011506004+25733-100300FM-12+051599999V0202201N001012200019N0150001N1+01301+00581102271ADDAA124000091GF103991001001999999001041GJ105289IA1019KA1240M+02041KA2240N+00601MA1999999096461MD1610091-0131REMSYN124AAXX  15061 76393 32965 32201 10130 20058 39646 40227 56009 83004 90555 333 10204 20060 30/// 55088 56005 59013 70000 83074;EQDQ01+000032SCOTLC
0217763930999992009011509004+25733-100300FM-12+051599999V0209999C000010300019N0030001N1+01161+00591102331ADDAY101031AY201031GA1061+030001031GF106991061001999999031001IA1019MA1999999096491MD1210031+0081MW1041REMSYN106AAXX  15091 76393 31930 60000 10116 20059 39649 40233 52003 70400 86030 90850 333 30/// 56050 58008 86360;
0273763930999992009011512004+25733-100300FM-12+051599999V0202001N001012200019N0020001N1+01041+00701102501ADDAA124000091AY101061AY201061GA1001+999999999GF100991001001999999001001IA1019KA1240M+02041KA2120N+00901MA1999999096611MD1210121+0211MW1041REMSYN106AAXX  15121 76393 31920 02001 10104 20070 39661 40250 52012 70400 91145 333 10204 20090 30070 58021 70000;EQDQ01  00002PRCP24
0223763930999992009011515004+25733-100300FM-12+051599999V0201801N00101220001CN0050001N1+01301+00711102791ADDAY141031AY221031GA1011+005701061GF106991011041004501001011IA1019MA1999999096861MD1210251+0431MW1051REMSYN112AAXX  15151 76393 31450 61801 10130 20071 39686 40279 52025 70542 81401 91450 333 30/// 56305 58043 81619 85070;
0255763930999992009011518004+25733-100300FM-12+051599999V0200501N002010069019N0080001N1+01701+01011102801ADDAY141061AY211061GA1051+006901061GF105991051041008001001001IA1019KA1120M+01921KA2240N+00901MA1999999096891MD1710031+0491MW1051REMSYN118AAXX  15181 76393 31558 50502 10170 20101 39689 40280 57003 70541 85400 91750 333 10192 20090 30/// 563// 58049 85623;
0245763930999992009011521004+25733-100300FM-12+051599999V0201201N00301220001CN0080001N1+01911+00971102571ADDAY141031AY241031GA1011+009301081GA2011+009301061GF107991021021008001001041IA1019MA1999999096711MD1710181+0521MW1051REMSYN118AAXX  15211 76393 31558 71203 10191 20097 39671 40257 57018 70544 82204 92055 333 30/// 56305 58052 81831 81631 85070;
0284763930999992009011600004+25733-100300FM-12+051599999V0201301N00301004801CN0050001N1+01681+01311102641ADDAA124000091AY141061AY241061GA1051+004801061GF107991051051004501031999IA1019KA1120M+02001KA2180N+00901MA1999999096801MD1210091+0601MW1051REMSYN136AAXX  16001 76393 31450 71303 10168 20131 39680 40264 52009 70544 8553/ 92350 333 10200 20090 30/// 50251 5635/ 58060 70000 85616 82356;
0234763930999992009011609004+25733-100300FM-12+051599999V0200901N004010006019N0020001N1+01341+01271102881ADDAA103006091AY161031AY221031GA1081+000601071GF108991081071000751999999IA1099MA1999999097021MD1410001+0531MW1601REMSYN112AAXX  16091 76393 21120 80904 10134 20127 39702 40288 54002 76062 887// 90855 333 31/// 56399 58053 60067 88702;
0172763930999992009011612004+25733-100300FM-12+051599999V0200901N002019999999N0020001N1+01301+01231102961ADDAA106009991AY161061AY221061GF108991999999000751999999MA1999999097071MD1410001+9999MW1601REMSYN072AAXX  16121 76393 11120 80902 10130 20123 39707 40296 54005 60101 76062;
0234763930999992009011615004+25733-100300FM-12+051599999V0201101N003010009019N0020001N1+01381+01281103321ADDAA103004091AY161031AY261031GA1081+000901071GF108991081061000751999999IA1119MA1999999097391MD1210321+0781MW1521REMSYN112AAXX  16151 76393 21120 81103 10138 20128 39739 40332 52032 75266 886// 91450 333 32/// 563// 58078 60047 88703;
0172763930999992009011618004+25733-100300FM-12+051599999V0200901N002019999999N0020001N1+01351+01301103351ADDAA106007191AY161061AY261061GF108991999999000751999999MA1999999097431MD1810041+9999MW1521REMSYN072AAXX  16181 76393 01120 80902 10135 20130 39743 40335 58004 60071 75266;
0234763930999992009011621004+25733-100300FM-12+051599999V0201401N003010006019N0020001N1+01351+01301103041ADDAA103001091AY151031AY251031GA1081+000601071GF108991081071000251999999IA1099MA1999999097131MD1710301+0421MW1501REMSYN112AAXX  16211 76393 21020 81403 10135 20130 39713 40304 57030 75055 887// 92055 333 31/// 563// 58042 60017 88702;
0172763930999992009011700004+25733-100300FM-12+051599999V0201401N003019999999N0010001N1+01301+01271102981ADDAA106003091AY151061AY251061GF108991999999000251999999MA1999999097081MD1710051+9999MW1501REMSYN072AAXX  17001 76393 01010 81403 10130 20127 39708 40298 57005 60031 75055;
0234763930999992009011703004+25733-100300FM-12+051599999V0200901N001010006019N0010001N1+01281+01211103061ADDAA103001091AY151031AY251031GA1081+000601071GF108991081071000751999999IA1099MA1999999097151MD1210071+9999MW1501REMSYN112AAXX  17031 76393 21110 80901 10128 20121 39715 40306 52007 75055 887// 90250 333 31/// 56399 58/// 60017 88702;
0172763930999992009011706004+25733-100300FM-12+051599999V0200901N001019999999N0010001N1+01241+01211102981ADDAA106002091AY151061AY251061GF108991999999000251999999MA1999999097061MD1710091+9999MW1501REMSYN072AAXX  17061 76393 01010 80901 10124 20121 39706 40298 57009 60021 75055;
0229763930999992009011709004+25733-100300FM-12+051599999V0201101N020012200019N0005001N1+01221+01151102801ADDAA103999929AW1501AZ151031GF102991999091002501001011MA1999999096891MD1610171-0131REMSYN118AAXX  17091 76393 26393 21120 10122 20115 39689 40280 56017 75055 80901 887// 90840 333 32/// 563// 59013 69907 88602;EQDQ01+000002SCOTLC
0172763930999992009011712004+25733-100300FM-12+051599999V0209999C000019999999N0020001N1+01241+01201102651ADDAA106000591AY151061AY251061GF108991999999000251999999MA1999999096751MD1710141+9999MW1501REMSYN072AAXX  17121 76393 01020 80000 10124 20120 39675 40265 57014 69951 75055;
0234763930999992009011715004+25733-100300FM-12+051599999V0209999C000010006019N0010001N1+01321+01251102651ADDAA103000991AY151031AY221031GA1081+000601071GF108991081071000751999999IA1099MA1999999096741MD1410001-0651MW1501REMSYN112AAXX  17151 76393 21110 80000 10132 20125 39674 40265 54001 75052 887// 91455 333 31/// 56399 59065 69997 88702;
0172763930999992009011718004+25733-100300FM-12+051599999V0200501N001019999999N0010001N1+01481+01321102691ADDAA106001091AY141061AY221061GF108991999999001501999999MA1999999096791MD1410001+9999MW1051REMSYN072AAXX  17181 76393 11210 80501 10148 20132 39679 40269 54005 69991 70542;
0217763930999992009011721004+25733-100300FM-12+051599999V0201501N002010045019N0020001N1+01791+01341102331ADDAY141031AY241031GA1071+004501061GF107991071051004501999999IA1099MA1999999096471MD1710321-0841MW1041REMSYN106AAXX  17211 76393 31420 71502 10179 20134 39647 40233 57032 70444 875// 92050 333 31/// 563// 59084 87615;
0284763930999992009011800004+25733-100300FM-12+051599999V0201201N001012200019N0040001N1+01721+01381102221ADDAA124002691AY141061AY241061GA1011+003301081GF103991031081004501001001IA1099KA1120M+01941KA2180N+01201MA1999999096401MD1710071-0681MW1051REMSYN136AAXX  18001 76393 31440 31201 10172 20138 39640 40222 57007 70544 83800 92350 333 10194 20120 31/// 50101 56300 59068 70026 81811 82622;
0217763930999992009011803004+25733-100300FM-12+051599999V0209999C000012200019N0020001N1+01461+01331102301ADDAY141031AY201031GA1031+001201061GF103991031051001501001001IA1019MA1999999096481MD1210081-0671MW1051REMSYN106AAXX  18031 76393 31220 30000 10146 20133 39648 40230 52008 70540 83500 90245 333 30/// 56300 59067 83604;
0251763930999992009011806004+25733-100300FM-12+051599999V0209999C000012200019N0020001N1+01341+01171102321ADDAY141061AY201061GA1001+999999999GF100991001001999999001001GJ100849IA1019KA1240M+01941KA2240N+01201MA1999999096501MD1210021-0561MW1051REMSYN106AAXX  18061 76393 31920 00000 10134 20117 39650 40232 52002 70540 90550 333 10194 20120 30/// 55014 59056;
0199763930999992009011809004+25733-100300FM-12+051599999V0202601N002012200019N0020001N1+01241+01101102321ADDAY141031AY201031GA1001+999999999GF100991001001999999001001IA1019MA1999999096471MD1610031-0421MW1051REMSYN088AAXX  18091 76393 31920 02602 10124 20110 39647 40232 56003 70540 90840 333 30/// 59042;
0254763930999992009011812004+25733-100300FM-12+051599999V0202201N001012200019N0020001N1+01241+01071102361ADDAA124000021AY141061AY241061GA1001+999999999GF100991001001999999001001IA1019KA1240M+01941KA2120N+01221MA1999999096491MD1010021-0261MW1051REMSYN106AAXX  18121 76393 31920 02201 10124 20107 39649 40236 50002 70544 91140 333 10194 20122 30090 59026 70000;
0223763930999992009011815004+25733-100300FM-12+051599999V0209999C00001036001CN0040001N1+01361+01121102591ADDAY141031AY211031GA1021+002401061GF105991021041002501021999IA1019MA1999999096801MD1210311+0061MW1051REMSYN112AAXX  18151 76393 31340 50000 10136 20112 39680 40259 52031 70541 8242/ 91450 333 30/// 5635/ 58006 82608 83456;
0283763930999992009011818004+25733-100300FM-12+051599999V0200401N00101090001CN0030001N1+01861+01311102751ADDAY141061AY211061GA1011+005401061GA2031+018001041GF105991011041004501041041IA1019KA1120M+01901KA2240N+01221MA1999999096871MD1010071+0081MW1051REMSYN130AAXX  18181 76393 31430 50401 10186 20131 39687 40275 50007 70541 81444 91750 333 10190 20122 30/// 56357 58008 81618 83456 81070;
0208763930999992009011821004+25733-100300FM-12+051599999V0200201N001010720019N0160001N1+02181+01281102361ADDGA1061+072001001GF106991001001999999001081IA1019MA1999999096541MD1710331+0071REMSYN100AAXX  18211 76393 32966 60201 10218 20128 39654 40236 57033 86008 92055 333 30/// 56005 58007 86074;EQDQ01+000062SCOTLC
0253763930999992009011900004+25733-100300FM-12+051599999V0200401N001019999999N0170001N1+02101+00821102201ADDAA124000091GF107991001001999999001041IA1019KA1120M+02421KA2180N+01221MA1999999096441MD1410001+0041REMSYN124AAXX  19001 76393 32967 70401 10210 20082 39644 40220 54010 87004 92355 333 10242 20122 30/// 50111 56005 58004 70000 87074;EQDQ01+000072SCOTLC
0217763930999992009011903004+25733-100300FM-12+051599999V0209999C000012200019N0030001N1+01681+00911102341ADDAY101031AY201031GA1021+060001001GF102991001001999999001081IA1019MA1999999096591MD1210151+0111MW1051REMSYN106AAXX  19031 76393 31930 20000 10168 20091 39659 40234 52015 70500 80008 90250 333 30/// 56005 58011 82070;
0287763930999992009011906004+25733-100300FM-12+051599999V0202001N001012200019N0020001N1+01481+00991102331ADDAA124000091AY101061AY201061GA1001+999999999GF100991001001999999001001GJ103789IA1019KA1240M+02421KA2240N+01221MA1999999096571MD1710021+0071MW1051REMSYN112AAXX  19061 76393 31920 02001 10148 20099 39657 40233 57002 70500 90550 333 10242 20122 30/// 55063 58007 70000;EQDQ01  00002PRCP24
0199763930999992009011909004+25733-100300FM-12+051599999V0202401N001012200019N0030001N1+01281+00761102211ADDAY141031AY201031GA1001+999999999GF100991001001999999001001IA1019MA1999999096421MD1710151-0051MW1051REMSYN088AAXX  19091 76393 31930 02401 10128 20076 39642 40221 57015 70540 90835 333 30/// 59005;
0273763930999992009011912004+25733-100300FM-12+051599999V0202301N001012200019N0030001N1+01301+00871102171ADDAA124000091AY141061AY201061GA1001+999999999GF100991001001999999001001IA1019KA1240M+02421KA2120N+01221MA1999999096341MD1610081-0151MW1051REMSYN106AAXX  19121 76393 31930 02301 10130 20087 39634 40217 56008 70540 91140 333 10242 20122 30082 59015 70000;EQDQ01  00002PRCP24
0199763930999992009011915004+25733-100300FM-12+051599999V0202701N001012200019N0060001N1+01701+01061102301ADDAY141031AY241031GA1001+999999999GF100991001001999999001001IA1019MA1999999096451MD1210111-0351MW1051REMSYN088AAXX  19151 76393 31956 02701 10170 20106 39645 40230 52011 70544 91450 333 30/// 59035;
0255763930999992009011918004+25733-100300FM-12+051599999V0202601N001012200019N0080001N1+02361+01041102191ADDAY141061AY241061GA1011+013201061GF101991011041012501001001IA1019KA1120M+02441KA2240N+01221MA1999999096371MD1710081-0501MW1051REMSYN118AAXX  19181 76393 31658 12601 10236 20104 39637 40219 57008 70544 81400 91750 333 10244 20122 30/// 56300 59050 81644;
0167763930999992009011921004+25733-100300FM-12+051599999V0203301N004012200019N0140001N1+02741+00301101701ADDGF101991001001999999001011IA1099MA1999999095981MD1710391-0561REMSYN094AAXX  19211 76393 32964 13304 10274 20030 39598 40170 57039 80001 92055 333 31/// 56005 59056;
0211763930999992009012000004+25733-100300FM-12+051599999V0203501N002012200019N0160001N1+02481+99999101621ADDGF101991001001999999001011IA1099KA1120M+02831KA2180N+01221MA1999999095971MD1710011-0471REMSYN112AAXX  20001 76393 32966 13502 10248 39597 40162 57001 80001 92350 333 10283 20122 31/// 50361 56005 59047 70000;
0199763930999992009012003004+25733-100300FM-12+051599999V0200201N001012200019N0080001N1+02001-00041101851ADDAY101031AY201031GA1001+999999999GF100991001001999999001001IA1019MA1999999096211MD1210241-0381MW1041REMSYN088AAXX  20031 76393 31958 00201 10200 21004 39621 40185 52024 70400 90245 333 30/// 59038;
0199763930999992009012009004+25733-100300FM-12+051599999V0202301N001012200019N0030001N1+01441+00381102101ADDAY141031AY201031GA1001+999999999GF100991001001999999001001IA1019MA1999999096371MD1210091-0051MW1051REMSYN088AAXX  20091 76393 31930 02301 10144 20038 39637 40210 52009 70540 90840 333 30/// 59005;
0254763930999992009012012004+25733-100300FM-12+051599999V0202501N003012200019N0030001N1+01361+00311102001ADDAA124000091AY141061AY201061GA1001+999999999GF100991001001999999001001IA1019KA1240M+02831MA1999999096221MD1710151-0121MW1051REMSYN100AAXX  20121 76393 31930 02503 10136 20031 39622 40200 57015 70540 91140 333 10283 30075 59012 70000;EQDQ01  00002PRCP24
0199763930999992009012015004+25733-100300FM-12+051599999V0201801N001012200019N0060001N1+01781+00701102361ADDAY141031AY241031GA1001+999999999GF100991001001999999001001IA1019MA1999999096331MD1010111-0121MW1051REMSYN088AAXX  20151 76393 31956 01801 10178 20070 39633 40236 50011 70544 91450 333 30/// 59012;
0209763930999992009012018004+25733-100300FM-12+051599999V0200301N003012200019N0120001N1+02301+00001102471ADDGA1001+999999999GF100991001001999999001001IA1019KA1120M+02471KA2240N+01261MA1999999096661MD1010131+0291REMSYN094AAXX  20181 76393 32962 00303 10230 20000 39666 40247 50013 91750 333 10247 20126 30/// 58029;
0167763930999992009012021004+25733-100300FM-12+051599999V0203301N003012200019N0160001N1+02441-00281102181ADDGF101991001001999999001011IA1019MA1999999096431MD1710231+0451REMSYN094AAXX  20211 76393 32966 13303 10244 21028 39643 40218 57023 80001 92055 333 30/// 56005 58045;
0234763930999992009012100004+25733-100300FM-12+051599999V0201101N003012200019N0160001N1+02101-00121102231ADDAA124000091GF103991031001022501031001IA1019KA1120M+02591KA2180N+01261MA1999999096511MD1210081+0541REMSYN124AAXX  21001 76393 32866 31103 10210 21012 39651 40223 52008 83030 92350 333 10259 20126 30/// 50581 56050 58054 70000 83356;
0199763930999992009012103004+25733-100300FM-12+051599999V0200501N001012200019N0080001N1+01681-00091102451ADDAY101031AY201031GA1001+999999999GF100991001001999999001001IA1019MA1999999096711MD1210201+0501MW1041REMSYN088AAXX  21031 76393 31958 00501 10168 21009 39671 40245 52020 70400 90255 333 30/// 58050;
0287763930999992009012106004+25733-100300FM-12+051599999V0209999C000012200019N0060001N1+01461+00271102551ADDAA124000091AY101061AY201061GA1001+999999999GF100991001001999999001001GJ105169IA1019KA1240M+02591KA2240N+01261MA1999999096801MD1210091+0521MW1041REMSYN112AAXX  21061 76393 31956 00000 10146 20027 39680 40255 52009 70400 90550 333 10259 20126 30/// 55086 58052 70000;EQDQ01  00002PRCP24
0171763930999992009012109004+25733-100300FM-12+051599999V0209999C000012200019N0030001N1+01221+00231102481ADDGA1001+999999999GF100991001001999999001001IA1019MA1999999096681MD1610121+0311REMSYN082AAXX  21091 76393 32930 00000 10122 20023 39668 40248 56012 90840 333 30/// 58031;
0263763930999992009012112004+25733-100300FM-12+051599999V0202501N001012200019N0030001N1+01101+00181102431ADDAA124000091GA1021+060001001GF102991001001999999001011IA1019KA1240M+02591KA2120N+01101MA1999999096581MD1710101+0361REMSYN118AAXX  21121 76393 32930 22501 10110 20018 39658 40243 57010 82001 91140 333 10259 20110 30055 56005 58036 70000 82070;EQDQ01+000022SCOTLC
0171763930999992009012115004+25733-100300FM-12+051599999V0201901N001012200019N0100001N1+01441+00231102641ADDGA1001+999999999GF100991001001999999001001IA1019MA1999999096751MD1210171+0531REMSYN082AAXX  21151 76393 32960 01901 10144 20023 39675 40264 52017 91450 333 30/// 58053;
0209763930999992009012118004+25733-100300FM-12+051599999V0200501N003012200019N0120001N1+02101+00531102521ADDGA1001+999999999GF100991001001999999001001IA1019KA1120M+02151KA2240N+01101MA1999999096651MD1710101-0011REMSYN094AAXX  21181 76393 32962 00503 10210 20053 39665 40252 57010 91750 333 10215 20110 30/// 59001;
0171763930999992009012121004+25733-100300FM-12+051599999V0201401N002012200019N0140001N1+02381+00391102071ADDGA1001+999999999GF100991001001999999001001IA1019MA1999999096281MD1710371-0151REMSYN082AAXX  21211 76393 32964 01402 10238 20039 39628 40207 57037 92055 333 30/// 59015;
0222763930999992009012200004+25733-100300FM-12+051599999V0201301N002012200019N0140001N1+02181+00281101921ADDGA1001+999999999GF100991001001999999001001IA1019KA1120M+02491KA2180N+01101MA1999999096201MD1710081-0031REMSYN107AAXX  22001 76393 32964 01302 10218 20028 39620 40192 57008 92350 333 10249 20110 30/// 50341 590031 70000;
0199763930999992009012203004+25733-100300FM-12+051599999V0209999C000012200019N0100001N1+01641+00411101991ADDAY101031AY201031GA1001+999999999GF100991001001999999001001IA1019MA1999999096291MD1210091-0421MW1041REMSYN088AAXX  22031 76393 31960 00000 10164 20041 39629 40199 52009 70400 90245 333 30/// 59042;
0251763930999992009012206004+25733-100300FM-12+051599999V0202201N001012200019N0080001N1+01461+00551102041ADDAY101061AY201061GA1001+999999999GF100991001001999999001001GJ105349IA1019KA1240M+02491KA2240N+01101MA1999999096311MD1210021+0491MW1041REMSYN106AAXX  22061 76393 31958 02201 10146 20055 39631 40204 52002 70400 90545 333 10249 20110 30/// 55089 58049;
0171763930999992009012209004+25733-100300FM-12+051599999V0209999C000012200019N0180001N1+01161+00501101881ADDGA1001+999999999GF100991001001999999001001IA1019MA1999999096111MD1710201-0571REMSYN082AAXX  22091 76393 32968 00000 10116 20050 39611 40188 57020 90855 333 30/// 59057;
0245763930999992009012212004+25733-100300FM-12+051599999V0202401N001012200019N0180001N1+01101+00331101871ADDAA124000091GA1001+999999999GF100991001001999999001001IA1019KA1240M+02491KA2120N+01081MA1999999096041MD1410001-0541REMSYN100AAXX  22121 76393 32968 02401 10110 20033 39604 40187 54007 91155 333 10249 20108 30065 59054 70000;EQDQ01  00002PRCP24
0195763930999992009012215004+25733-100300FM-12+051599999V0201801N00101220001CN0120001N1+01481+00491102041ADDGA1021+009901061GF106991021041012501001041IA1019MA1999999096181MD1210141-0571REMSYN106AAXX  22151 76393 32662 61801 10148 20049 39618 40204 52014 82404 91450 333 30/// 56305 59057 82633 84070;
0255763930999992009012218004+25733-100300FM-12+051599999V0201301N00101090001CN0150001N1+02181+00751102081ADDGA1011+014101061GA2031+018001041GF106991011041012501011041IA1019KA1120M+02561KA2240N+01081MA1999999096241MD1710061-0411REMSYN124AAXX  22181 76393 32665 61301 10218 20075 39624 40208 57006 81414 91750 333 10256 20108 30/// 56375 59041 81647 83456 82070;
0195763930999992009012221004+25733-100300FM-12+051599999V0201101N00201220001CN0060001N1+02481+00611101651ADDGA1021+018001031GF106991021001022501031061IA1019MA1999999095901MD1710341-0381REMSYN106AAXX  22211 76393 31856 61102 10248 20061 39590 40165 57034 82036 92055 333 30/// 56055 59038 82356 84070;
0281763930999992009012300004+25733-100300FM-12+051599999V0201101N002019999999N0120001N1+02401+00711101581ADDAA124000091AY141061AY241061GF106991001001999999001061IA1019KA1120M+02641KA2180N+01081MA1999999095891MD1710021-0311MW1051REMSYN130AAXX  23001 76393 31962 61102 10240 20071 39589 40158 57002 70544 86006 92350 333 10264 20108 30/// 50331 56005 59031 70000 86070;EQDQ01+000062SCOTLC
0208763930999992009012303004+25733-100300FM-12+051599999V0202601N001012200019N0150001N1+01861+00811101591ADDGA1021+072001001GF102991001001999999001041IA1019MA1999999095931MD1410001-0361REMSYN100AAXX  23031 76393 32965 22601 10186 20081 39593 40159 54004 82004 90255 333 30/// 56005 59036 82074;EQDQ01+000022SCOTLC
0244763930999992009012306004+25733-100300FM-12+051599999V0201801N001012200019N0160001N1+01741+00941101641ADDGF102991001001999999001041GJ104089IA1019KA1240M+02641KA2240N+01081MA1999999095971MD1410001-0341REMSYN118AAXX  23061 76393 32966 21801 10174 20094 39597 40164 54004 82004 90555 333 10264 20108 30/// 55068 56005 59034 82074;EQDQ01+000022SCOTLC
0217763930999992009012309004+25733-100300FM-12+051599999V0202901N001012200019N0060001N1+01501+00901101621ADDAY101031AY211031GA1041+030001031GF104991041001999999031001IA1019MA1999999095911MD1710061-0201MW1041REMSYN106AAXX  23091 76393 31956 42901 10150 20090 39591 40162 57006 70401 84030 90845 333 30/// 56050 59020 84360;
0272763930999992009012312004+25733-100300FM-12+051599999V0202701N001010057019N0040001N1+01521+00961101641ADDAA124000091AY141061AY221061GA1071+005701061GF107991071051004501999999IA1019KA1240M+02641KA2120N+01381MA1999999095881MD1710031-0161MW1041REMSYN124AAXX  23121 76393 31440 72701 10152 20096 39588 40164 57003 70442 875// 91145 333 10264 20138 30125 56399 59016 70000 87619;
0194763930999992009012315004+25733-100300FM-12+051599999V0201901N001010360019N0150001N1+01821+00961101731ADDGA1031+008401061GF108991031041008001041999IA1019MA1999999095951MD1210071-0231REMSYN105AAXX  23151 76393 32565 81901 10182 20096 39595 40173 52007 8344/ 91450 333 30/// 5635 59023 83628 85356;
0246763930999992009012318004+25733-100300FM-12+051599999V0201401N001010180019N0180001N1+02621+01141101661ADDGA1051+018001031GF105991999041999999999999IA1019KA1120M+02741KA2240N+01381MA1999999095921MD1710031-0321REMSYN112AAXX  23181 76393 32968 51401 10262 20114 39592 40166 57003 804// 91750 333 10274 20138 30/// 5605/ 59032 85356;EQDQ01+000002SCOTLC
0217763930999992009012321004+25733-100300FM-12+051599999V0201101N00201036001CN0080001N1+03081+01151101351ADDAY141031AY241031GA1031+015001061GF105991031051017501031011IA1019MA1999999095701MD1710221-0191MW1041REMSYN106AAXX  23211 76393 31758 51102 10308 20115 39570 40135 57022 70444 83531 92050 333 30/// 56555 59019 83650;
0284763930999992009012400004+25733-100300FM-12+051599999V0201201N002010360019N0120001N1+02741+01221101411ADDAA124000091AY141061AY241061GA1021+015001061GF106991021051012501031011IA1019KA1120M+03191KA2180N+01381MA1999999095821MD1210121-0071MW1041REMSYN136AAXX  24001 76393 31662 61202 10274 20122 39582 40141 52012 70444 82531 92350 333 10319 20138 30/// 50231 56555 59007 70000 82650 83356;
0217763930999992009012403004+25733-100300FM-12+051599999V0201001N001012200019N0030001N1+02381+01231101371ADDAY141031AY241031GA1021+011401081GF102991021011012501001001IA1019MA1999999095811MD1510011-0121MW1051REMSYN106AAXX  24031 76393 31630 21001 10238 20123 39581 40137 55001 70544 82100 90240 333 30/// 56300 59012 82838;
0189763930999992009012415004+25733-100300FM-12+051599999V0202701N001012200019N0120001N1+02161+01051101881ADDGA1031+011101061GF103991031041012501001001IA1019MA1999999096181MD1210101+0231REMSYN100AAXX  24151 76393 32662 32701 10216 20105 39618 40188 52010 83400 91450 333 30/// 56300 58023 83637;
0233763930999992009012418004+25733-100300FM-12+051599999V0200201N003012200019N0150001N1+02201+01161102121ADDGA1011+010201061GF102991011041012501041001IA1019KA1120M+02561KA2240N+01801MA1999999096411MD1010231+0491REMSYN118AAXX  24181 76393 32665 20203 10220 20116 39641 40212 50023 81440 91750 333 10256 20180 30/// 56350 58049 81634 81356;
0217763930999992009012421004+25733-100300FM-12+051599999V0201101N002012200019N0080001N1+02351+00921101831ADDAY141031AY241031GA1011+013801081GF101991011011012501001001IA1019MA1999999096151MD1710261+0451MW1051REMSYN106AAXX  24211 76393 31658 11102 10235 20092 39615 40183 57026 70544 81100 92055 333 30/// 56500 58045 81846;
0262763930999992009012500004+25733-100300FM-12+051599999V0201201N006012200019N0120001N1+01931+00901101841ADDAA124000091AY141061AY241061GF101991011011008001001001IA1019KA1120M+02511KA2180N+01801MA1999999096171MD1210021+0351MW1051REMSYN130AAXX  25001 76393 31562 11206 10193 20090 39617 40184 52002 70544 81100 92350 333 10251 20180 30/// 50451 56500 58035 70000 81834;
0270763930999992009012506004+25733-100300FM-12+051599999V0203501N001012200019N0030001N1+01361+00421102011ADDAA124000091AY141061AY241061GF104991041001999999051001GJ105229IA1019KA1240M+02511KA2240N+01101MA1999999096261MD1010031+0321MW1051REMSYN130AAXX  25061 76393 31930 43501 10136 20042 39626 40201 50003 70544 84050 90540 333 10251 20110 30/// 55087 56050 58032 70000 84360;
0217763930999992009012509004+25733-100300FM-12+051599999V0203101N001010300019N0030001N1+01261+00481101901ADDAY121031AY221031GA1061+030001031GF106991061001999999051001IA1019MA1999999096191MD1710071+0201MW1041REMSYN106AAXX  25091 76393 31930 63101 10126 20048 39619 40190 57007 70422 86050 90850 333 30/// 56050 58020 86360;
0272763930999992009012512004+25733-100300FM-12+051599999V0200901N001010300019N0020001N1+01201+00631101921ADDAA124000091AY121061AY221061GA1061+030001031GF106991061001999999051001IA1019KA1240M+02511KA2120N+01101MA1999999096081MD1710111+0201MW1041REMSYN124AAXX  25121 76393 31920 60901 10120 20063 39608 40192 57011 70422 86050 91148 333 10251 20110 30102 56050 58020 70000 86360;
0189763930999992009012515004+25733-100300FM-12+051599999V0200901N001012200019N0030001N1+01281+00601102031ADDGA1011+007201061GF101991011051008001001001IA1019MA1999999096171MD1610091-0011REMSYN100AAXX  25151 76393 31530 10901 10128 20060 39617 40203 56009 81500 91455 333 30/// 56300 59001 81624;
0274763930999992009012518004+25733-100300FM-12+051599999V0201301N001012200019N0040001N1+01721+00621101931ADDAY141061AY201061GA1011+072001001GF101991001001999999001041IA1019KA1120M+01801KA2240N+01101MA1999999096091MD1410001-0321MW1051REMSYN118AAXX  25181 76393 31940 11301 10172 20062 39609 40193 54008 70540 81004 91755 333 10180 20110 30/// 56005 59032 81074;EQDQ01+000012SCOTLC
0195763930999992009012521004+25733-100300FM-12+051599999V0200601N002012200019N0100001N1+01981+00791101511ADDGA1011+024001031GF102991011001022501041041IA1019MA1999999095721MD1710371-0431REMSYN106AAXX  25211 76393 32860 20602 10198 20079 39572 40151 57037 81044 92055 333 30/// 56055 59043 81358 81074;
0234763930999992009012600004+25733-100300FM-12+051599999V0201301N003012200019N0150001N1+01821+00921101411ADDAA124000091GF101991011041022501001001IA1019KA1120M+02101KA2180N+01101MA1999999095651MD1610071-0521REMSYN124AAXX  26001 76393 32865 11303 10182 20092 39565 40141 56007 81400 92355 333 10210 20110 30/// 50411 56050 59052 70000 81358;
0217763930999992009012603004+25733-100300FM-12+051599999V0202301N001012200019N0030001N1+01561+01081101441ADDAY141031AY241031GA1031+030001031GF103991031001999999051001IA1019MA1999999095701MD1110041-0531MW1051REMSYN106AAXX  26031 76393 31930 32301 10156 20108 39570 40144 51004 70544 83050 90250 333 30/// 56050 59053 83360;
0253763930999992009012606004+25733-100300FM-12+051599999V0209999C000010042019N0020001N1+01561+01081101461ADDAY141061AY241061GF107991071051004501999999GJ105409IA1019KA1240M+02511KA2240N+01101MA1999999095731MD1110031-0531MW1051REMSYN124AAXX  26061 76393 31420 70000 10156 20108 39573 40146 51003 70544 875// 90550 333 10251 20110 30/// 55090 563// 59053 87616;
0217763930999992009012609004+25733-100300FM-12+051599999V0209999C000010033019N0020001N1+01501+01161101441ADDAY121031AY221031GA1071+003301061GF107991071061004501999999IA1019MA1999999095681MD1710051-0511MW1051REMSYN106AAXX  26091 76393 31420 70000 10150 20116 39568 40144 57005 70522 876// 90850 333 30/// 563// 59051 87611;
0272763930999992009012612004+25733-100300FM-12+051599999V0209999C000010039019N0020001N1+01581+01181101461ADDAA124000091AY121061AY221061GA1081+003901061GF108991081051004501999999IA1019KA1240M+02101KA2120N+01381MA1999999095681MD1410001-0401MW1051REMSYN124AAXX  26121 76393 31420 80000 10158 20118 39568 40146 54000 70522 885// 91140 333 10210 20138 30126 563// 59040 70000 88613;
0195763930999992009012615004+25733-100300FM-12+051599999V0201901N001012200019N0130001N1+01661+01201101601ADDGA1031+004501061GF104991031041004501011001IA1019MA1999999095811MD1210131-0361REMSYN106AAXX  26151 76393 32463 41901 10166 20120 39581 40160 52013 83410 91450 333 30/// 56350 59036 83615 81456;
0233763930999992009012618004+25733-100300FM-12+051599999V0201301N002012200019N0030001N1+02141+01511101541ADDGA1011+006301061GF103991011041008001021001IA1019KA1120M+02221KA2240N+01381MA1999999095791MD1010021-0301REMSYN118AAXX  26181 76393 32530 31302 10214 20151 39579 40154 50002 81420 91750 333 10222 20138 30/// 56350 59030 81621 82456;
0217763930999992009012621004+25733-100300FM-12+051599999V0201101N002012200019N0050001N1+02551+01551101221ADDAY141031AY241031GA1011+018001081GF101991011011008001001001IA1019MA1999999095521MD1710271-0201MW1041REMSYN106AAXX  26211 76393 31550 11102 10255 20155 39552 40122 57027 70444 81100 92055 333 30/// 56500 59020 81856;
0262763930999992009012700004+25733-100300FM-12+051599999V0202001N002012200019N0080001N1+02501+01561101171ADDAA124000091AY141061AY241061GF101991011011008001001001IA1019KA1120M+02731KA2180N+01381MA1999999095531MD1210011-0121MW1051REMSYN130AAXX  27001 76393 31558 12002 10250 20156 39553 40117 52001 70544 81100 92350 333 10273 20138 30/// 50331 56500 59012 70000 81831;
0199763930999992009012703004+25733-100300FM-12+051599999V0209999C000012200019N0030001N1+02121+01531101111ADDAY141031AY241031GA1001+999999999GF100991001001999999001001IA1019MA1999999095501MD1210031-0201MW1051REMSYN088AAXX  27031 76393 31930 00000 10212 20153 39550 40111 52003 70544 90240 333 30/// 59020;
0287763930999992009012706004+25733-100300FM-12+051599999V0201001N003012200019N0030001N1+01921+01451101091ADDAA124000091AY141061AY241061GA1001+999999999GF100991001001999999001001GJ105769IA1019KA1240M+02731KA2240N+01101MA1999999095481MD1610011-0251MW1051REMSYN112AAXX  27061 76393 31930 01003 10192 20145 39548 40109 56001 70544 90540 333 10273 20110 30/// 55096 59025 70000;EQDQ01  00002PRCP24
0199763930999992009012709004+25733-100300FM-12+051599999V0209999C000012200019N0030001N1+01661+01501101211ADDAY101031AY201031GA1001+999999999GF100991001001999999001001IA1019MA1999999095541MD1210061-0141MW1051REMSYN088AAXX  27091 76393 31930 00000 10166 20150 39554 40121 52006 70500 90845 333 30/// 59014;
0272763930999992009012712004+25733-100300FM-12+051599999V0209999C000010015019N0020001N1+01701+01541101271ADDAA124000091AY141061AY221061GA1081+001501071GF108991081061001501999999IA1019KA1240M+02731KA2120N+01521MA1999999095591MD1210051-0091MW1051REMSYN124AAXX  27121 76393 31220 80000 10170 20154 39559 40127 52005 70542 886// 91145 333 10273 20152 30138 563// 59009 70000 88705;
0223763930999992009012715004+25733-100300FM-12+051599999V0202201N00101036001CN0050001N1+01861+01581101451ADDAY141031AY201031GA1041+002701061GF106991041041002501011999IA1019MA1999999095721MD1210131-0091MW1051REMSYN112AAXX  27151 76393 31350 62201 10186 20158 39572 40145 52013 70540 8441/ 91450 333 30/// 5635/ 59009 84609 82456;
0280763930999992009012718004+25733-100300FM-12+051599999V0200501N001019999999N0050001N1+02421+01641101351ADDAY141061AY211061GA1021+018001031GF105991999001008001041041IA1019KA1120M+02491KA2240N+01521MA1999999095641MD1710081-0151MW1051REMSYN124AAXX  27181 76393 31550 50501 10242 20164 39564 40135 57008 70541 80044 91750 333 10249 20152 30/// 56057 59015 82356 83070;EQDQ01+000002SCOTLC
0195763930999992009012721004+25733-100300FM-12+051599999V0201001N003012200019N0050001N1+02941+01711100891ADDAY141031AY241031GF102991001001999999001011IA1019MA1999999095261MD1710381-0261MW1051REMSYN100AAXX  27211 76393 31950 21003 10294 20171 39526 40089 57038 70544 80001 92055 333 30/// 56005 59026;
0245763930999992009012800004+25733-100300FM-12+051599999V0201101N002012200019N0080001N1+02781+01561100801ADDAY141061AY241061GF103991001001999999001021IA1019KA1120M+03031KA2180N+01521MA1999999095221MD1610041-0311MW1041REMSYN124AAXX  28001 76393 31958 31102 10278 20156 39522 40080 56004 70444 80002 92350 333 10303 20152 30/// 50191 56005 59031 70000;
0199763930999992009012803004+25733-100300FM-12+051599999V0200301N002012200019N0030001N1+02341+01511100901ADDAY101031AY201031GA1001+999999999GF100991001001999999001001IA1019MA1999999095251MD1110031-0351MW1051REMSYN088AAXX  28031 76393 31930 00302 10234 20151 39525 40090 51003 70500 90240 333 30/// 59035;
0251763930999992009012806004+25733-100300FM-12+051599999V0203601N002012200019N0030001N1+01361+00781101161ADDAY101061AY201061GA1001+999999999GF100991001001999999001001GJ105949IA1019KA1240M+03031KA2240N+01101MA1999999095581MD1210431-0101MW1051REMSYN106AAXX  28061 76393 31930 03602 10136 20078 39558 40116 52043 70500 90550 333 10303 20110 30/// 55099 59010;
0217763930999992009012809004+25733-100300FM-12+051599999V0203601N001010054019N0030001N1+01141+00601102011ADDAY121031AY221031GA1081+005401061GF108991081071004501999999IA1019MA1999999096301MD1210721+0761MW1051REMSYN106AAXX  28091 76393 31430 83601 10114 20060 39630 40201 52072 70522 887// 90850 333 30/// 563// 58076 88618;
0272763930999992009012812004+25733-100300FM-12+051599999V0202101N001010036019N0020001N1+01301+00951102221ADDAA124000091AY141061AY221061GA1081+003601061GF108991081051004501999999IA1019KA1240M+03031KA2120N+01001MA1999999096421MD1210121+0831MW1051REMSYN124AAXX  28121 76393 31420 82101 10130 20095 39642 40222 52012 70542 885// 91150 333 10303 20100 30082 563// 58083 70000 88612;
0223763930999992009012815004+25733-100300FM-12+051599999V0200801N001010057019N0120001N1+01601+01021102281ADDAY141031AY221031GA1061+005701061GF108991061041004501021999IA1019MA1999999096431MD1210011+0711MW1051REMSYN112AAXX  28151 76393 31462 80801 10160 20102 39643 40228 52001 70542 8642/ 91450 333 30/// 5635/ 58071 86619 82456;
0233763930999992009012818004+25733-100300FM-12+051599999V0200901N001012200019N0120001N1+01881+00761102191ADDGA1011+011101061GF104991011041012501001041IA1019KA1120M+02001KA2240N+01001MA1999999096351MD1710081+0711REMSYN118AAXX  28181 76393 32662 40901 10188 20076 39635 40219 57008 81404 91750 333 10200 20100 30/// 56307 58071 81637 83070;
0223763930999992009012821004+25733-100300FM-12+051599999V0201001N00501220001CN0080001N1+02061+00981101741ADDAY141031AY241031GA1021+010201081GF107991021021008001001041IA1019MA1999999095971MD1710381+0711MW1041REMSYN112AAXX  28211 76393 31558 71005 10206 20098 39597 40174 57038 70444 82204 92055 333 30/// 56505 58071 82834 85070;
0256763930999992009012900004+25733-100300FM-12+051599999V0200901N003012200019N0160001N1+01801+00581101771ADDAA124000091GA1011+012301061GF107991011051012501001041IA1019KA1120M+02261KA2180N+01001MA1999999096031MD1210061+0811REMSYN130AAXX  29001 76393 32666 70903 10180 20058 39603 40177 52006 81504 92350 333 10226 20100 30/// 50471 56505 58081 70000 81641 86070;
0199763930999992009012903004+25733-100300FM-12+051599999V0201401N001012200019N0030001N1+01541+00421101701ADDAY101031AY201031GA1001+999999999GF100991001001999999001001IA1019MA1999999095961MD1710071-0711MW1051REMSYN088AAXX  29031 76393 31930 01401 10154 20042 39596 40170 57007 70500 90240 333 30/// 59071;
0287763930999992009012906004+25733-100300FM-12+051599999V0209999C000012200019N0030001N1+01361+00561101641ADDAA124000091AY101061AY201061GA1001+999999999GF100991001001999999001001GJ103669IA1019KA1240M+02261KA2240N+01081MA1999999095881MD1710081-0301MW1051REMSYN112AAXX  29061 76393 31930 00000 10136 20056 39588 40164 57008 70500 90550 333 10226 20108 30/// 55061 59030 70000;EQDQ01  00002PRCP24
0171763930999992009012909004+25733-100300FM-12+051599999V0200401N005012200019N0150001N1+01141+00471101681ADDGA1001+999999999GF100991001001999999001001IA1019MA1999999095881MD1410001-0421REMSYN082AAXX  29091 76393 31965 00405 10114 20047 39588 40168 54000 90855 333 30/// 59042;
0245763930999992009012912004+25733-100300FM-12+051599999V0200501N005012200019N0130001N1+01021+00511101781ADDAA124000091GA1001+999999999GF100991001001999999001001IA1019KA1240M+02261KA2120N+00941MA1999999095931MD1410001-0491REMSYN100AAXX  29121 76393 32963 00505 10102 20051 39593 40178 54005 91155 333 10226 20094 30082 59049 70000;EQDQ01  00002PRCP24
0233763930999992009012918004+25733-100300FM-12+051599999V0200701N00201220001CN0140001N1+01561+00811102131ADDGA1041+007501061GF106991041041008001001041IA1019KA1120M+01721KA2240N+00941MA1999999096241MD1710061-0111REMSYN118AAXX  29181 76393 32564 60702 10156 20081 39624 40213 57006 84404 91750 333 10172 20094 30/// 56307 59011 84625 82070;
0223763930999992009012921004+25733-100300FM-12+051599999V0201101N003012200019N0060001N1+01741+00731101881ADDAY141031AY241031GA1011+010201081GF103991021021008001001011IA1019MA1999999096031MD1710211+0061MW1041REMSYN112AAXX  29211 76393 31556 31103 10174 20073 39603 40188 57021 70444 82201 92055 333 30/// 56305 58006 81834 81634;
0217763930999992009013021004+25733-100300FM-12+051599999V0201001N003010090019N0060001N1+01671+00761102771ADDAY141031AY241031GA1071+009001061GF107991071051008001999999IA1019MA1999999096891MD1710251+0861MW1041REMSYN106AAXX  30211 76393 31556 71003 10167 20076 39689 40277 57025 70444 875// 92055 333 30/// 565// 58086 87630;
0262763930999992009013100004+25733-100300FM-12+051599999V0201101N003012200019N0080001N1+01561+00351102831ADDAA124000091AY141061AY241061GF103991031051012501001001IA1019KA1120M+01861KA2180N+01021MA1999999096931MD1210041+0931MW1041REMSYN130AAXX  31001 76393 31658 31103 10156 20035 39693 40283 52004 70444 83500 92350 333 10186 20102 30/// 50341 56500 58093 70000 83640;
0217763930999992009013103004+25733-100300FM-12+051599999V0201101N001010105019N0060001N1+01461+00411102941ADDAY121031AY221031GA1071+010501061GF107991071051012501999999IA1019MA1999999097071MD1210141+0671MW1051REMSYN106AAXX  31031 76393 31656 71101 10146 20041 39707 40294 52014 70522 875// 90250 333 30/// 563// 58067 87635;
0272763930999992009013106004+25733-100300FM-12+051599999V0200501N001019999999N0040001N1+01301+00441102751ADDAY121061AY221061GF107991999051008001999999GJ101749IA1019KA1240M+01861KA2240N+01021MA1999999096901MD1710101+0351MW1051REMSYN124AAXX  31061 76393 31540 70501 10130 20044 39690 40275 57010 70522 885// 90555 333 10186 20102 30/// 55029 563// 58035 87629;EQDQ01+000082SCOTLC
0217763930999992009013109004+25733-100300FM-12+051599999V0200901N003010066019N0040001N1+01181+00531102681ADDAY141031AY241031GA1071+006601061GF107991071041008001999999IA1019MA1999999096821MD1710081+0221MW1051REMSYN106AAXX  31091 76393 31540 70903 10118 20053 39682 40268 57008 70544 874// 90840 333 30/// 563// 58022 87622;
0272763930999992009013112004+25733-100300FM-12+051599999V0200901N002010042019N0040001N1+01061+00641102621ADDAA124000091AY121061AY221061GA1081+004201061GF108991081041004501999999IA1019KA1240M+01861KA2120N+01021MA1999999096731MD1710011-0121MW1051REMSYN124AAXX  31121 76393 31440 80902 10106 20064 39673 40262 57001 70522 884// 91140 333 10186 20102 30095 563// 59012 70000 88614;
0195763930999992009013115004+25733-100300FM-12+051599999V0200701N001012200019N0120001N1+01081+00661102611ADDGA1021+004801061GF104991021041004501031001IA1019MA1999999096701MD1710031-0451REMSYN106AAXX  31151 76393 32462 40701 10108 20066 39670 40261 57003 82430 91450 333 30/// 56350 59045 82616 82356;
0296763930999992009013118004+25733-100300FM-12+051599999V0200801N001010060019N0100001N1+01401+00781102621ADDAY141061AY221061GA1061+006001061GF108991061041008001021999IA1019KA1120M+99999KA2240N+00951MA1999999096701MD1710011-0471MW1051REMSYN124AAXX  31181 76393 31560 80801 10140 20078 39670 40262 57000 70542 8642/ 91750 333 10100 20095 30/// 5635/ 59047 86620 82356;EQDQ01+000002APC3  Q02 +01002ATMX  
0217763930999992009013121004+25733-100300FM-12+051599999V0200901N002010090019N0060001N1+01651+00751102111ADDAY141031AY241031GA1071+009001061GF107991071051008001999999IA1019MA1999999096241MD1710461-0651MW1041REMSYN106AAXX  31211 76393 31556 70902 10165 20075 39624 40211 57046 70444 875// 92055 333 30/// 565// 59065 87630;
0262763930999992009020100004+25733-100300FM-12+051599999V0201101N002010075019N0080001N1+01741+00761101941ADDAA124000091AY141061AY241061GF107991071051008001999999IA1019KA1120M+01821KA2180N+01001MA1999999096111MD1710131-0821MW1041REMSYN130AAXX  01001 76393 31558 71102 10174 20076 39611 40194 57013 70444 875// 92350 333 10182 20100 30/// 50271 565// 59082 70000 87632;
0217763930999992009020103004+25733-100300FM-12+051599999V0201001N001010087019N0060001N1+01661+00801101851ADDAY121031AY221031GA1071+008701061GF107991071051008001999999IA1019MA1999999096061MD1710051-1011MW1051REMSYN106AAXX  01031 76393 31556 71001 10166 20080 39606 40185 57005 70522 875// 90250 333 30/// 563// 59101 87629;
0247763930999992009020106004+25733-100300FM-12+051599999V0202801N001012200019N0040001N1+01361+00821101731ADDAY111061AY211061GF103991031051004501001001GJ101029IA1019KA1240M+01821KA2240N+01021MA1999999095951MD1710111+9999MW1051REMSYN118AAXX  01061 76393 31440 32801 10136 20082 39595 40173 57011 70511 83500 90600 333 10182 20102 30/// 55017 56300 59095;
0217763930999992009020109004+25733-100300FM-12+051599999V0209999C000012200019N0030001N1+01201+00871101571ADDAY101031AY201031GA1011+003301081GF101991011021004501001001IA1019MA1999999095781MD1710271-1041MW1051REMSYN106AAXX  01091 76393 31430 10000 10120 20087 39578 40157 57027 70500 81200 90840 333 30/// 56300 59104 81811;
0273763930999992009020112004+25733-100300FM-12+051599999V0209999C000012200019N0030001N1+01101+00851101461ADDAA124000091AY101061AY201061GA1001+999999999GF100991001001999999001001IA1019KA1240M+01821KA2120N+01021MA1999999095651MD1710131-1081MW1051REMSYN106AAXX  01121 76393 31930 00000 10110 20085 39565 40146 57013 70500 91140 333 10182 20102 30084 59108 70000;EQDQ01  00002PRCP24
0217763930999992009020115004+25733-100300FM-12+051599999V0202201N001012200019N0020001N1+01341+00831101521ADDAY141031AY201031GA1011+024001031GF101991011001022501041001IA1019MA1999999095691MD1410001-1011MW1051REMSYN106AAXX  01151 76393 31820 12201 10134 20083 39569 40152 54004 70540 81040 91455 333 30/// 56050 59101 81358;
0261763930999992009020118004+25733-100300FM-12+051599999V0203201N001012200019N0030001N1+02161+00851101361ADDAY141061AY201061GA1011+024001031GF102991011001022501041041IA1019KA1120M+02361KA2240N+01021MA1999999095561MD1610131-1141MW1051REMSYN124AAXX  01181 76393 31830 23201 10216 20085 39556 40136 56013 70540 81044 91755 333 10236 20102 30/// 56055 59114 81358 81074;
0223763930999992009020121004+25733-100300FM-12+051599999V0201401N002012200019N0100001N1+02741+00961100921ADDAY141031AY201031GA1011+024001031GF102991011001022501041041IA1019MA1999999095211MD1710351-1031MW1051REMSYN112AAXX  01211 76393 31860 21402 10274 20096 39521 40092 57035 70540 81044 92055 333 30/// 56055 59103 81358 81074;
0234763930999992009020200004+25733-100300FM-12+051599999V0200301N003012200019N0120001N1+02481+00901100851ADDAA124000091GF101991011001022501041001IA1019KA1120M+02881KA2180N+01021MA1999999095221MD1410001-0891REMSYN124AAXX  02001 76393 32862 10303 10248 20090 39522 40085 54001 81040 92355 333 10288 20102 30/// 50251 56050 59089 70000 81358;
0199763930999992009020203004+25733-100300FM-12+051599999V0202601N001012200019N0060001N1+02101+01031101181ADDAY101031AY201031GA1001+999999999GF100991001001999999001001IA1019MA1999999095571MD1210351-0491MW1041REMSYN088AAXX  02031 76393 31956 02601 10210 20103 39557 40118 52035 70400 90250 333 30/// 59049;
0287763930999992009020206004+25733-100300FM-12+051599999V0202001N001012200019N0040001N1+01861+01171101251ADDAA124000091AY101061AY201061GA1001+999999999GF100991001001999999001001GJ105649IA1019KA1240M+02881KA2240N+01021MA1999999095641MD1210071-0311MW1041REMSYN112AAXX  02061 76393 31940 02001 10186 20117 39564 40125 52007 70400 90545 333 10288 20102 30/// 55094 59031 70000;EQDQ01  00002PRCP24
0217763930999992009020209004+25733-100300FM-12+051599999V0202701N001012200019N0030001N1+01641+00861101291ADDAY101031AY201031GA1011+007801081GF101991011051008001001001IA1019MA1999999095631MD1510011-0151MW1051REMSYN106AAXX  02091 76393 31530 12701 10164 20086 39563 40129 55001 70500 81500 90835 333 30/// 56300 59015 81826;
0272763930999992009020212004+25733-100300FM-12+051599999V0203601N006012200019N0030001N1+01381-00341101781ADDAA124000091AY101061AY201061GA1021+010501081GF102991021021012501001001IA1019KA1240M+02861KA2120N+01301MA1999999096031MD1110401+0381MW1051REMSYN124AAXX  02121 76393 31630 23606 10138 21034 39603 40178 51040 70500 82200 91140 333 10286 20130 30115 56300 58038 70000 82835;
0223763930999992009020215004+25733-100300FM-12+051599999V0200101N00501036001CN0130001N1+01281-00371102331ADDAY141031AY221031GA1021+009001061GF105991021051008001041001IA1019MA1999999096511MD1210481+0821MW1051REMSYN112AAXX  02151 76393 32563 50105 10128 21037 39651 40233 52048 70542 82540 91450 333 30/// 56350 58082 82630 83356;
0255763930999992009020218004+25733-100300FM-12+051599999V0200301N00601090001CN0120001N1+01601-00231102521ADDGA1021+013501061GA2031+018001031GF106991021041012501041041IA1019KA1120M+01781KA2240N+01261MA1999999096661MD1010151+1101REMSYN124AAXX  02181 76393 32662 60306 10160 21023 39666 40252 50015 82444 91750 333 10178 20126 30/// 56350 58110 82645 83356 81070;
0189763930999992009020221004+25733-100300FM-12+051599999V0203601N004012200019N0140001N1+02011-00471102251ADDGA1011+015001081GF102991011021012501031001IA1019MA1999999096421MD1710241+1211REMSYN100AAXX  02211 76393 32664 23604 10201 21047 39642 40225 57024 81230 92055 333 30/// 56550 58121 81850;
0234763930999992009020300004+25733-100300FM-12+051599999V0203601N003012200019N0140001N1+01881-00361102341ADDAA124000091GF101991011011012501001001IA1019KA1120M+02071KA2180N+01261MA1999999096531MD1210111+1311REMSYN124AAXX  03001 76393 32664 13603 10188 21036 39653 40234 52011 81100 92350 333 10207 20126 30/// 50641 56500 58131 70000 81850;
0199763930999992009020303004+25733-100300FM-12+051599999V0203601N001012200019N0060001N1+01441-00241102591ADDAY101031AY201031GA1001+999999999GF100991001001999999001001IA1019MA1999999096781MD1210251+1211MW1051REMSYN088AAXX  03031 76393 31956 03601 10144 21024 39678 40259 52025 70500 90250 333 30/// 58121;
0249763930999992009020306004+25733-100300FM-12+051599999V0209999C000012200019N0040001N1+01241-00021102581ADDAY101061AY201061GA1001+999999999GF100991001001999999001001IA1019KA1240M+02071KA2240N+01201MA1999999096761MD1710021-0811MW1051REMSYN112AAXX  03061 76393 31940 00000 10124 21002 39676 40258 57002 70500 90550 333 10207 20120 30/// 58112 59081 70000;
0199763930999992009020309004+25733-100300FM-12+051599999V0202501N003012200019N0030001N1+01081+00041102531ADDAY101031AY201031GA1001+999999999GF100991001001999999001001IA1019MA1999999096681MD1610081-1051MW1051REMSYN088AAXX  03091 76393 31930 02503 10108 20004 39668 40253 56008 70500 90840 333 30/// 59105;
0273763930999992009020312004+25733-100300FM-12+051599999V0202101N001012200019N0030001N1+00961-00021102531ADDAA124000091AY101061AY201061GA1001+999999999GF100991001001999999001001IA1019KA1240M+02071KA2120N+00961MA1999999096631MD1610051-0601MW1051REMSYN106AAXX  03121 76393 31930 02101 10096 21002 39663 40253 56005 70500 91140 333 10207 20096 30052 59060 70000;EQDQ01  00002PRCP24
0171763930999992009020315004+25733-100300FM-12+051599999V0202301N001012200019N0160001N1+01261+00081102741ADDGA1001+999999999GF100991001001999999001001IA1019MA1999999096811MD1210181+0151REMSYN082AAXX  03151 76393 32966 02301 10126 20008 39681 40274 52018 91450 333 30/// 58015;
0244763930999992009020318004+25733-100300FM-12+051599999V0201301N001012200019N0150001N1+01941+00221102721ADDGA1001+999999999GF100991001001999999001001IA1019KA1120M+02091KA2240N+00941MA1999999096811MD1710021+0151REMSYN094AAXX  03181 76393 32965 01301 10194 20022 39681 40272 58000 91750 333 10209 20094 30/// 58015;EQDQ01+000082APCTENQ02+000002APC3  
0159763930999992009020321004+25733-100300FM-12+051599999V0201301N002012200019N0140001N1+02361+00181102261ADDGA1001+999999999GF100991001001999999001001MA1999999096441MD1710371+0021REMSYN076AAXX  03211 76393 32964 01302 10236 20018 39644 40226 57037 92055 333 58002;
0251763930999992009020400004+25733-100300FM-12+051599999V0201501N002012200019N0100001N1+02241+00091102191ADDAA124000091GA1001+999999999GF100991001001999999001001IA1019KA1120M+02531KA2180N+00941MA1999999096441MD1410001-0091REMSYN106AAXX  04001 76393 31960 01502 10224 20009 39644 40219 54000 92350 333 10253 20094 30/// 50361 59009 70000;EQDQ01  00002PRCP24
0199763930999992009020403004+25733-100300FM-12+051599999V0209999C000012200019N0060001N1+01741+00291102331ADDAY101031AY201031GA1001+999999999GF100991001001999999001001IA1019MA1999999096611MD1210171-0171MW1041REMSYN088AAXX  04031 76393 31956 00000 10174 20029 39661 40233 52017 70400 90248 333 30/// 59017;
0287763930999992009020406004+25733-100300FM-12+051599999V0201101N001012200019N0040001N1+01461+00201102491ADDAA124000091AY101061AY201061GA1001+999999999GF100991001001999999001001GJ105649IA1019KA1240M+02531KA2240N+00941MA1999999096751MD1210141-0011MW1041REMSYN112AAXX  04061 76393 31940 01101 10146 20020 39675 40249 52014 70400 90550 333 10253 20094 30/// 55094 59001 70000;EQDQ01  00002PRCP24
0199763930999992009020409004+25733-100300FM-12+051599999V0209999C000012200019N0030001N1+01061+00371102481ADDAY101031AY201031GA1001+999999999GF100991001001999999001001IA1019MA1999999096691MD1410001+0011MW1051REMSYN088AAXX  04091 76393 31930 00000 10106 20037 39669 40248 54006 70500 90840 333 30/// 58001;
0273763930999992009020412004+25733-100300FM-12+051599999V0202601N001012200019N0030001N1+00961+00301102621ADDAA124000091AY101061AY201061GA1001+999999999GF100991001001999999001001IA1019KA1240M+02531KA2120N+00941MA1999999096751MD1210061+0121MW1051REMSYN106AAXX  04121 76393 31930 02601 10096 20030 39675 40262 52006 70500 91140 333 10253 20094 30060 58012 70000;EQDQ01  00002PRCP24
0171763930999992009020415004+25733-100300FM-12+051599999V0202601N001012200019N0130001N1+01321+00511103011ADDGA1001+999999999GF100991001001999999001001IA1019MA1999999097091MD1210341+0281REMSYN082AAXX  04151 76393 32963 02601 10132 20051 39709 40301 52034 91450 333 30/// 58028;
0209763930999992009020418004+25733-100300FM-12+051599999V0200801N003012200019N0350001N1+02061+00571103091ADDGA1001+999999999GF100991001001999999001001IA1019KA1120M+02141KA2240N+00941MA1999999097141MD1010011+0331REMSYN094AAXX  04181 76393 32981 00803 10206 20057 39714 40309 50001 91750 333 10214 20094 30/// 58033;
0217763930999992009020421004+25733-100300FM-12+051599999V0201101N004012200019N0100001N1+02341+00791102741ADDAY141031AY241031GA1011+015001081GF101991011011012501001001IA1019MA1999999096891MD1710251+0451MW1041REMSYN106AAXX  04211 76393 31660 11104 10234 20079 39689 40274 57025 70444 81100 92050 333 30/// 56400 58045 81850;
0262763930999992009020500004+25733-100300FM-12+051599999V0201201N003012200019N0100001N1+02201+00731102701ADDAA124000091AY141061AY241061GF101991011011012501001001IA1019KA1120M+02481KA2180N+00941MA1999999096921MD1210031+0481MW1041REMSYN130AAXX  05001 76393 31660 11203 10220 20073 39692 40270 52003 70444 81100 92350 333 10248 20094 30/// 50441 56500 58048 70000 81846;
0223763930999992009020503004+25733-100300FM-12+051599999V0200901N00201036001CN0060001N1+02021+00661102771ADDAY111031AY211031GA1031+013501081GF105991031011012501031001IA1019MA1999999097021MD1210101+0411MW1041REMSYN112AAXX  05031 76393 31656 50902 10202 20066 39702 40277 52010 70411 83130 90255 333 30/// 56350 58041 83845 82365;
0287763930999992009020506004+25733-100300FM-12+051599999V0200901N001012200019N0040001N1+01461+00691102841ADDAA124000091AY101061AY201061GA1001+999999999GF100991001001999999001001GJ105589IA1019KA1240M+02481KA2240N+00941MA1999999097081MD1210061+0331MW1041REMSYN112AAXX  05061 76393 31940 00901 10146 20069 39708 40284 52006 70400 90555 333 10248 20094 30/// 55093 58033 70000;EQDQ01  00002PRCP24
0263763930999992009020512004+25733-100300FM-12+051599999V0209999C000012200019N0100001N1+01121+00871102781ADDAA124000091GA1021+072001001GF102991001001999999001041IA1019KA1240M+02481KA2120N+00961MA1999999096921MD1410001+0171REMSYN118AAXX  05121 76393 31960 20000 10112 20087 39692 40278 54006 82004 91155 333 10248 20096 30080 56005 58017 70000 82074;EQDQ01+000022SCOTLC
0189763930999992009020515004+25733-100300FM-12+051599999V0202701N001010033019N0150001N1+01301+00951102941ADDGA1051+003301061GF105991051041999999001001IA1019MA1999999097031MD1210111-0091REMSYN100AAXX  05151 76393 32965 52701 10130 20095 39703 40294 52011 85400 91450 333 30/// 56300 59009 85611;
0233763930999992009020518004+25733-100300FM-12+051599999V0200201N001019999999N0040001N1+01841+01071102991ADDGA1041+007501061GF106991041041999999001041IA1019KA1120M+01941KA2240N+00961MA1999999097081MD1010051-0061REMSYN118AAXX  05181 76393 32940 60201 10184 20107 39708 40299 50005 84404 91750 333 10194 20096 30/// 56305 59006 84625 82070;
0217763930999992009020521004+25733-100300FM-12+051599999V0201501N005012200019N0060001N1+02351+01031102541ADDAY141031AY241031GA1021+012901081GF102991021021012501001001IA1019MA1999999096701MD1710381-0191MW1041REMSYN106AAXX  05211 76393 31656 21505 10235 20103 39670 40254 57038 70444 82200 92055 333 30/// 56500 59019 82843;
0249763930999992009020600004+25733-100300FM-12+051599999V0201601N003012200019N0060001N1+02341+01011102341ADDAY141061AY241061GA1001+999999999GF100991001001999999001001KA1180N+99999MA1999999096581MD1710121-0341MW1041REMSYN112AAXX  06001 76393 31956 01603 10234 20101 39658 40234 57012 70444 92350 333 20252 20096 30/// 50431 59034 70000;EQDQ01 +02522ATMN  
0171763930999992009020603004+25733-100300FM-12+051599999V0201301N001012200019N0180001N1+02101+00941102331ADDGA1001+999999999GF100991001001999999001001IA1019MA1999999096611MD1410001-0411REMSYN082AAXX  06031 76393 32968 01301 10210 20094 39661 40233 54003 90255 333 30/// 59041;
0259763930999992009020606004+25733-100300FM-12+051599999V0200901N005012200019N0140001N1+01641+00911102331ADDAA124000091GA1001+999999999GF100991001001999999001001GJ105589IA1019KA1240M+02521KA2240N+00961MA1999999096611MD1410001-0471REMSYN106AAXX  06061 76393 32964 00905 10164 20091 39661 40233 54000 90555 333 10252 20096 30/// 55093 59047 70000;EQDQ01  00002PRCP24
0199763930999992009020609004+25733-100300FM-12+051599999V0200901N001012200019N0040001N1+01381+00961102271ADDAY101031AY201031GA1001+999999999GF100991001001999999001001IA1019MA1999999096521MD1710091-0461MW1051REMSYN088AAXX  06091 76393 31940 00901 10138 20096 39652 40227 57009 70500 90850 333 30/// 59046;
0273763930999992009020612004+25733-100300FM-12+051599999V0203201N001012200019N0030001N1+01201+00941102201ADDAA124000091AY101061AY201061GA1001+999999999GF100991001001999999001001IA1019KA1240M+02521KA2120N+01081MA1999999096401MD1710121-0521MW1051REMSYN106AAXX  06121 76393 31930 03201 10120 20094 39640 40220 57012 70500 91145 333 10252 20108 30090 59052 70000;EQDQ01  00002PRCP24
0223763930999992009020615004+25733-100300FM-12+051599999V0203001N001012200019N0030001N1+01341+01081102321ADDAY141031AY211031GA1011+002401061GF103991011041002501041001IA1019MA1999999096471MD1210071-0561MW1051REMSYN112AAXX  06151 76393 31330 33001 10134 20108 39647 40232 52007 70541 81440 91450 333 30/// 56350 59056 81608 82356;
0199763930999992009020703004+25733-100300FM-12+051599999V0202501N001012200019N0030001N1+02021+00971101681ADDAY101031AY201031GA1001+999999999GF100991001001999999001001IA1019MA1999999096021MD1210041-0591MW1051REMSYN088AAXX  07031 76393 31930 02501 10202 20097 39602 40168 52004 70500 90840 333 30/// 59059;
0287763930999992009020706004+25733-100300FM-12+051599999V0200701N003012200019N0030001N1+01701+00941101741ADDAA124000091AY101061AY201061GA1001+999999999GF100991001001999999001001GJ106069IA1019KA1240M+02721KA2240N+00961MA1999999096081MD1210061-0531MW1051REMSYN112AAXX  07061 76393 31930 00703 10170 20094 39608 40174 52006 70500 90540 333 10272 20096 30/// 55101 59053 70000;EQDQ01  00002PRCP24
0199763930999992009020709004+25733-100300FM-12+051599999V0203601N001012200019N0030001N1+01401+01021101851ADDAY141031AY201031GA1001+999999999GF100991001001999999001001IA1019MA1999999096141MD1210061-0381MW1051REMSYN088AAXX  07091 76393 31930 03601 10140 20102 39614 40185 52006 70540 90848 333 30/// 59038;
0273763930999992009020712004+25733-100300FM-12+051599999V0209999C000012200019N0020001N1+01221+01041101831ADDAA124000091AY141061AY201061GA1001+999999999GF100991001001999999001001IA1019KA1240M+02721KA2120N+01081MA1999999096071MD1710071-0331MW1051REMSYN106AAXX  07121 76393 31920 00000 10122 20104 39607 40183 57007 70540 91145 333 10272 20108 30/// 59033 70000;EQDQ01  00002PRCP24
0217763930999992009020715004+25733-100300FM-12+051599999V0203001N001012200019N0020001N1+01421+01101102041ADDAY141031AY211031GA1021+003001061GF102991021041004501001001IA1019MA1999999096221MD1210151-0251MW1051REMSYN106AAXX  07151 76393 31420 23001 10142 20110 39622 40204 52015 70541 82400 91450 333 30/// 56300 59025 82610;
0255763930999992009020718004+25733-100300FM-12+051599999V0201001N001010054019N0040001N1+01801+01241102171ADDAY141061AY211061GA1061+005401061GF106991061041008001001001IA1019KA1120M+01861KA2240N+01081MA1999999096341MD1010121-0191MW1051REMSYN118AAXX  07181 76393 31540 61001 10180 20124 39634 40217 50012 70541 86400 91750 333 10186 20108 30/// 56300 59019 86618;
0223763930999992009020721004+25733-100300FM-12+051599999V0201201N00401220001CN0030001N1+02571+01301101821ADDAY141031AY241031GA1011+012001061GF107991011051012501001041IA1019MA1999999096051MD1710291-0081MW1041REMSYN112AAXX  07211 76393 31630 71204 10257 20130 39605 40182 57029 70444 81504 92055 333 30/// 56305 59008 81640 86070;
0284763930999992009020800004+25733-100300FM-12+051599999V0201501N005012200019N0040001N1+02321+01191101651ADDAA124000091AY141061AY241061GA1011+011101081GF104991011011012501001041IA1019KA1120M+02661KA2180N+01081MA1999999095941MD1710111-0041MW1041REMSYN136AAXX  08001 76393 31640 41505 10232 20119 39594 40165 57011 70444 81104 92350 333 10266 20108 30/// 50271 56405 59004 70000 81837 83070;
0199763930999992009020803004+25733-100300FM-12+051599999V0201201N008012200019N0030001N1+02121+01211101641ADDAY101031AY201031GA1001+999999999GF100991001001999999001001IA1019MA1999999095971MD1010031-0051MW1051REMSYN088AAXX  08031 76393 31930 01208 10212 20121 39597 40164 50003 70500 90240 333 30/// 59005;
0287763930999992009020806004+25733-100300FM-12+051599999V0201201N001012200019N0030001N1+01681+01151101721ADDAA124000091AY101061AY201061GA1001+999999999GF100991001001999999001001GJ103729IA1019KA1240M+02661KA2240N+00981MA1999999096051MD1210081-0031MW1041REMSYN112AAXX  08061 76393 31930 01201 10168 20115 39605 40172 52008 70400 90550 333 10266 20098 30/// 55062 59003 70000;EQDQ01  00002PRCP24
0217763930999992009020809004+25733-100300FM-12+051599999V0200901N002010027019N0030001N1+01461+01191101651ADDAY111031AY211031GA1061+002701061GF106991061051002501001001IA1019MA1999999095951MD1710101-0191MW1041REMSYN106AAXX  08091 76393 31330 60902 10146 20119 39595 40165 57010 70411 86500 90850 333 30/// 56300 59019 86609;
0272763930999992009020812004+25733-100300FM-12+051599999V0200901N001010024019N0020001N1+01401+01161101641ADDAA124000091AY141061AY221061GA1071+002401061GF107991071051002501999999IA1019KA1240M+02661KA2120N+01321MA1999999095891MD1710061-0181MW1051REMSYN124AAXX  08121 76393 31320 70901 10140 20116 39589 40164 57006 70542 875// 91145 333 10266 20132 30120 563// 59018 70000 87608;
0217763930999992009020815004+25733-100300FM-12+051599999V0200901N001010030019N0080001N1+01501+01191101671ADDAY141031AY221031GA1081+003001061GF108991081061004501999999IA1019MA1999999095881MD1410001-0341MW1051REMSYN106AAXX  08151 76393 31458 80901 10150 20119 39588 40167 54001 70542 886// 91455 333 30/// 56399 59034 88610;
0255763930999992009020818004+25733-100300FM-12+051599999V0200501N001010048019N0030001N1+01661+01191101741ADDAY141061AY221061GA1081+004801061GF108991081061004501999999IA1019KA1120M+01801KA2240N+01321MA1999999095941MD1410001-0401MW1051REMSYN118AAXX  08181 76393 31430 80501 10166 20119 39594 40174 54006 70542 886// 91755 333 10180 20132 30/// 56399 59040 88616;
0217763930999992009020821004+25733-100300FM-12+051599999V0202201N002010099019N0100001N1+02281+01221101391ADDAY141031AY211031GA1071+009901061GF107991071061004501999999IA1019MA1999999095631MD1710311-0421MW1051REMSYN106AAXX  08211 76393 31460 72202 10228 20122 39563 40139 57031 70541 876// 92055 333 30/// 56399 59042 87633;
0234763930999992009020900004+25733-100300FM-12+051599999V0201301N006019999999N0100001N1+02281+01181100981ADDAA124000091GF107991071999999999021999IA1019KA1120M+02501KA2180N+01321MA1999999095291MD1710341-0651REMSYN124AAXX  09001 76393 32960 71306 10228 20118 39529 40098 57034 87/2/ 92355 333 10250 20132 30/// 50311 56050 59065 70000 87460;
0217763930999992009020903004+25733-100300FM-12+051599999V0200901N005012200019N0040001N1+01961+01091100861ADDAY101031AY201031GA1041+030001031GF104991041001999999031001IA1019MA1999999095211MD1510081-0761MW1041REMSYN106AAXX  09031 76393 31940 40905 10196 20109 39521 40086 55008 70400 84030 90240 333 30/// 56050 59076 84360;
0251763930999992009020906004+25733-100300FM-12+051599999V0201101N002012200019N0030001N1+01721+01191100901ADDAY101061AY201061GA1001+999999999GF100991001001999999001001GJ100669IA1019KA1240M+02501KA2240N+01461MA1999999095261MD1010051-0791MW1041REMSYN106AAXX  09061 76393 31930 01102 10172 20119 39526 40090 50005 70400 90540 333 10250 20146 30/// 55011 59079;
0199763930999992009020909004+25733-100300FM-12+051599999V0203201N001012200019N0030001N1+01421+01181101081ADDAY101031AY201031GA1001+999999999GF100991001001999999001001IA1019MA1999999095391MD1210131-0561MW1051REMSYN088AAXX  09091 76393 31930 03201 10142 20118 39539 40108 52013 70500 90845 333 30/// 59056;
0273763930999992009020912004+25733-100300FM-12+051599999V0203101N001012200019N0020001N1+01361+01121101181ADDAA124000091AY141061AY201061GA1001+999999999GF100991001001999999001001IA1019KA1240M+02501KA2120N+01281MA1999999095451MD1210061-0441MW1051REMSYN106AAXX  09121 76393 31920 03101 10136 20112 39545 40118 52006 70540 91150 333 10250 20128 30100 59044 70000;EQDQ01  00002PRCP24
0195763930999992009020921004+25733-100300FM-12+051599999V0201101N001012200019N0040001N1+02781+00781101091ADDAY141031AY241031GF103991011001022501031011IA1019MA1999999095401MD1999999-0231MW1041REMSYN100AAXX  09211 76393 31840 31101 10278 20078 39540 40109 5//// 70444 81031 92055 333 30/// 56055 59023;
0262763930999992009021000004+25733-100300FM-12+051599999V0201401N003019999999N0040001N1+02551+01091101061ADDAA124000091AY141061AY241061GF107991001001999999001041IA1019KA1120M+02921KA2180N+01281MA1999999095411MD1210011+0121MW1041REMSYN130AAXX  10001 76393 31940 71403 10255 20109 39541 40106 52001 70444 80004 92355 333 10292 20128 30/// 50391 56005 58012 70000 87070;
0217763930999992009021003004+25733-100300FM-12+051599999V0201201N001012200019N0040001N1+02261+00941101001ADDAY101031AY201031GA1041+060001001GF104991001001999999001011IA1019MA1999999095421MD1210011-0211MW1041REMSYN106AAXX  10031 76393 31940 41201 10226 20094 39542 40100 52001 70400 80001 90240 333 30/// 56005 59021 84070;
0270763930999992009021006004+25733-100300FM-12+051599999V0209999C000012200019N0030001N1+01921+01161100961ADDAA124000091AY101061AY201061GF104991041001999999031001GJ105109IA1019KA1240M+02921KA2240N+01381MA1999999095371MD1810051+0111MW1041REMSYN130AAXX  10061 76393 31930 40000 10192 20116 39537 40096 58005 70400 84030 90550 333 10292 20138 30/// 55085 56050 58011 70000 84360;
0217763930999992009021009004+25733-100300FM-12+051599999V0203201N001010300019N0030001N1+01761+01091100931ADDAY111031AY211031GA1051+030001031GF105991051001999999031001IA1019MA1999999095311MD1710061-0081MW1051REMSYN106AAXX  10091 76393 31930 53201 10176 20109 39531 40093 57006 70511 85030 90850 333 30/// 56050 59008 85360;
0272763930999992009021012004+25733-100300FM-12+051599999V0209999C000010420019N0020001N1+01461+01121100881ADDAA124000091AY141061AY221061GA1061+042001031GF106991061001999999031001IA1019KA1240M+02921KA2120N+01341MA1999999095211MD1710101-0241MW1051REMSYN124AAXX  10121 76393 31920 60000 10146 20112 39521 40088 57010 70542 86030 91150 333 10292 20134 30122 56050 59024 70000 86364;
0236763930999992009021015004+25733-100300FM-12+051599999V0203101N001010720019N0030001N1+01641+01321100961ADDAY141031AY211031GA1051+072001001GF105991001001999999001041IA1019MA1999999095251MD1410001-0201MW1051REMSYN106AAXX  10151 76393 31930 53101 10164 20132 39525 40096 54004 70541 85004 91455 333 30/// 56005 59020 85074;EQDQ01+000052SCOTLC
0274763930999992009021018004+25733-100300FM-12+051599999V0201301N001010720019N0020001N1+02341+01331100851ADDAY141061AY211061GA1051+072001001GF105991001001999999001041IA1019KA1120M+02921KA2240N+01341MA1999999095151MD1110101-0391MW1051REMSYN118AAXX  10181 76393 31920 51301 10234 20133 39515 40085 51010 70541 85004 91755 333 10292 20134 30/// 56005 59039 85074;EQDQ01+000052SCOTLC
0223763930999992009021021004+25733-100300FM-12+051599999V0201001N00501220001CN0040001N1+03101+01051100391ADDAY141031AY241031GA1011+018001061GF106991011051017501001041IA1019MA1999999094771MD1710381-0631MW1051REMSYN112AAXX  10211 76393 31740 61005 10310 20105 39477 40039 57038 70544 81504 92055 333 30/// 56505 59063 81656 85070;
0306763930999992009021100004+25733-100300FM-12+051599999V0201201N001010360019N0040001N1+02801+01051100341ADDAA124000091AY141061AY241061GA1031+015001061GA2011+018001031GF107991031051017501031041IA1019KA1120M+03161KA2180N+01341MA1999999094781MD1210011-0631MW1041REMSYN142AAXX  11001 76393 31740 71201 10280 20105 39478 40034 52001 70444 83534 92350 333 10316 20134 30/// 50441 56555 59063 70000 83650 81356 83070;
0217763930999992009021103004+25733-100300FM-12+051599999V0202001N001010600019N0030001N1+02421+01081100301ADDAY141031AY241031GA1071+060001001GF107991001001999999001061IA1019MA1999999094771MD1810011-0641MW1051REMSYN106AAXX  11031 76393 31930 72001 10242 20108 39477 40030 58001 70544 80006 90250 333 30/// 56005 59064 87070;
0253763930999992009021106004+25733-100300FM-12+051599999V0200301N001019999999N0030001N1+02041+00991100601ADDAY141061AY241061GF106991001001999999001061GJ104749IA1019KA1240M+03161KA2240N+01361MA1999999095061MD1210131-0291MW1051REMSYN124AAXX  11061 76393 31930 60301 10204 20099 39506 40060 52013 70544 80006 90550 333 10316 20136 30/// 55079 56005 59029 86070;
0273763930999992009021112004+25733-100300FM-12+051599999V0209999C000012200019N0040001N1+01481+00241101681ADDAA124000091AY141061AY221061GA1001+999999999GF100991001001999999001001IA1019KA1240M+03161KA2120N+01341MA1999999095971MD1999999+0761MW1051REMSYN106AAXX  11121 76393 31940 00000 10148 20024 39597 40168 5//// 70542 91150 333 10316 20134 30118 58076 70000;EQDQ01  00002PRCP24
0245763930999992009021115004+25733-100300FM-12+051599999V0201901N00201090001CN0050001N1+01801+00381102001ADDAY141031AY211031GA1021+014101061GA2021+018001041GF106991021041012501011041IA1019MA1999999096251MD1210281+1021MW1051REMSYN118AAXX  11151 76393 31650 61902 10180 20038 39625 40200 52028 70541 82414 91450 333 30/// 56357 58102 82647 82456 82070;
0280763930999992009021118004+25733-100300FM-12+051599999V0200701N002019999999N0060001N1+02301+00161102081ADDAY141061AY221061GA1021+018001041GF106991999001999999011011IA1019KA1120M+02461KA2240N+01341MA1999999096331MD1110081+1181MW1051REMSYN124AAXX  11181 76393 31956 60702 10230 20016 39633 40208 51008 70542 80011 91750 333 10246 20134 30/// 56057 58118 82456 84070;EQDQ01+000002SCOTLC
0217763930999992009021121004+25733-100300FM-12+051599999V0201101N004010600019N0040001N1+02501+00151101791ADDAY141031AY241031GA1071+060001001GF107991001001999999001061IA1019MA1999999096091MD1710241+1321MW1051REMSYN106AAXX  11211 76393 31940 71104 10250 20015 39609 40179 57024 70544 80006 92055 333 30/// 56005 58132 87070;
0284763930999992009021200004+25733-100300FM-12+051599999V0201201N005010900019N0040001N1+02301-00101101701ADDAA124000091AY141061AY241061GA1041+018001041GF107991041001022501011041IA1019KA1120M+02661KA2180N+01341MA1999999096041MD1710051+1261MW1051REMSYN136AAXX  12001 76393 31840 71205 10230 21010 39604 40170 57005 70544 84014 92350 333 10266 20134 30/// 50591 56055 58126 70000 84456 83070;
