0262763930999992011010100004+25733-100300FM-12+051599999V0201201N002010210019N0020001N1+02441+00311100401ADDAA124000091AY141061AY221061GF108991081001022501021999IA1019KA1120M+03081KA2180N+01421MA1999999094851MD1410001+0561MW1051REMSYN130AAXX  01001 76393 31820 81202 10244 20031 39485 40040 54006 70542 8802/ 92355 333 10308 20142 30/// 5//// 56059 58056 70000 88458;
0245763930999992011010200004+25733-100300FM-12+051599999V0201101N003012200019N0020001N1+01701+00341101941ADDAY101061AY201061GF103991001001999999001061IA1019KA1120M+01841KA2180N+01341MA1999999096151MD1999999+1301MW1051REMSYN124AAXX  02001 76393 31920 31103 10170 20034 39615 40194 5//// 70500 80006 92355 333 10184 20134 30/// 50481 56005 58130 70000;
0171763930999992011010203004+25733-100300FM-12+051599999V0201101N002012200019N0010001N1+01441-00111102181ADDGA1001+999999999GF100991001001999999001001IA1019MA1999999096371MD1210221+1221REMSYN082AAXX  02031 76393 32910 01102 10144 21011 39637 40218 52022 90245 333 30/// 58122;
0251763930999992011010206004+25733-100300FM-12+051599999V0209999C000012200019N0020001N1+01261+00071102351ADDAY101061AY201061GA1001+999999999GF100991001001999999001001GJ103669IA1019KA1240M+01841KA2240N+01221MA1999999096521MD1210151+1251MW1051REMSYN106AAXX  02061 76393 31920 00000 10126 20007 39652 40235 52015 70500 90545 333 10184 20122 30/// 55061 58125;
0265763930999992011010300004+25733-100300FM-12+051599999V0201201N005012200019N0020001N1+01681+00521102091ADDAA124000091AY101061AY201061GA1001+999999999GF100991001001999999001001IA1019KA1120M+01921KA2180N+01101MA1999999096301MW1051REMSYN112AAXX  03001 76393 31920 01205 10168 20052 39630 40209 5//// 70500 92355 333 10192 20110 30/// 50631 58/// 70000;EQDQ01  00002PRCP24
0217763930999992011010303004+25733-100300FM-12+051599999V0201501N005010102019N0020001N1+01581+00751102241ADDAY121031AY221031GA1061+010201061GF106991061051012501001001IA1019MA1999999096431MD1210131+0061MW1051REMSYN106AAXX  03031 76393 31620 61505 10158 20075 39643 40224 52013 70522 86500 90255 333 30/// 56300 58006 86634;
0253763930999992011010306004+25733-100300FM-12+051599999V0201101N004012200019N0020001N1+01361+00741102211ADDAY101061AY201061GF104991041051008001001001GJ105169IA1019KA1240M+01921KA2240N+01101MA1999999096381MD1710051-0141MW1051REMSYN124AAXX  03061 76393 31520 41104 10136 20074 39638 40221 57005 70500 84500 90550 333 10192 20110 30/// 55086 56300 59014 84625;
0211763930999992011010315004+25733-100300FM-12+051599999V0201601N001010060019N0010001N1+01361+00861102271ADDAY121031AY201031GA1061+006001061GF106991061051999999001001IA1019MA1999999096251MD1410001+9999MW1041REMSYN100AAXX  03151 76393 31910 61601 10136 20086 39625 40227 54001 70420 86500 91450 333 30/// 56300 86620;
0211763930999992011010321004+25733-100300FM-12+051599999V0201201N002012200019N0010001N1+02281+01101101551ADDAY111031AY201031GA1031+014701061GF103991031061999999001001IA1019MA1999999095791MD1710351+9999MW1051REMSYN100AAXX  03211 76393 31910 31202 10228 20110 39579 40155 57035 70510 83600 92050 333 30/// 56500 83649;
0262763930999992011010400004+25733-100300FM-12+051599999V0200601N002019999999N0040001N1+02081+01091101481ADDAA124000091AY121061AY221061GF106991001001999999001021IA1019KA1120M+02381KA2180N+00641MA1999999095751MD1710041-0551MW1051REMSYN130AAXX  04001 76393 31940 60602 10208 20109 39575 40148 57004 70522 80002 92350 333 10238 20064 30/// 50191 56005 59055 70000 86070;
0234763930999992011010403004+25733-100300FM-12+051599999V0203001N002010060019N0020001N1+01821+01341101541ADDAA103001091AY121031AY221031GA1081+006001061GF108991081051004501999999IA1099MA1999999095841MD1210091-0591MW1051REMSYN112AAXX  04031 76393 21420 83002 10182 20134 39584 40154 52009 70522 885// 90255 333 31/// 565// 59059 60017 88620;
0274763930999992011010406004+25733-100300FM-12+051599999V0201201N002012200019N0020001N1+01681+01421101511ADDAA106001091AY101061AY201061GA1001+999999999GF100991001001999999001001GJ105289IA1099KA1240M+02381KA2240N+00641MA1999999095821MD1710021-0561MW1051REMSYN118AAXX  04061 76393 01920 01202 10168 20142 39582 40151 57002 60011 70500 90550 333 10238 20064 31/// 55088 59056 60007;
0217763930999992011010409004+25733-100300FM-12+051599999V0209999C000010015019N0010001N1+01501+01371101491ADDAY141031AY241031GA1051+001501071GF105991051071001501001001IA1019MA1999999095761MD1710061+9999MW1051REMSYN106AAXX  04091 76393 31210 50000 10150 20137 39576 40149 57006 70544 85700 90850 333 30/// 56300 58/// 85705;
0272763930999992011010412004+25733-100300FM-12+051599999V0202501N001012200019N0006001N1+01461+01191101501ADDAA124000891AY141061AY241061GA1031+003301071GF103991031071004501001001IA1019KA1240M+02381KA2120N+01301MA1999999095741MD1710021+9999MW1051REMSYN124AAXX  04121 76393 31406 32501 10146 20119 39574 40150 57002 70544 83700 91145 333 10238 20130 30124 56300 58/// 70008 83711;
0199763930999992011010503004+25733-100300FM-12+051599999V0201301N001012200019N0020001N1+02021+01491101361ADDAY101031AY201031GA1001+999999999GF100991001001999999001001IA1019MA1999999095711MD1210071-0131MW1051REMSYN088AAXX  05031 76393 31920 01301 10202 20149 39571 40136 52007 70500 90250 333 30/// 59013;
0251763930999992011010506004+25733-100300FM-12+051599999V0202001N001012200019N0020001N1+01801+01421101351ADDAY101061AY201061GA1001+999999999GF100991001001999999001001GJ104389IA1019KA1240M+02661KA2240N+01301MA1999999095701MD1710011-0121MW1051REMSYN106AAXX  05061 76393 31920 02001 10180 20142 39570 40135 57001 70500 90550 333 10266 20130 30/// 55073 59012;
0189763930999992011010515004+25733-100300FM-12+051599999V0200501N002012200019N0010001N1+01841+01361101901ADDAY101031AY201031GF102991001001999999031011IA1019MA1999999095911MD1210171+9999MW1041REMSYN094AAXX  05151 76393 31910 20502 10184 20136 39591 40190 52017 70400 80031 91450 333 30/// 56051;
0237763930999992011010518004+25733-100300FM-12+051599999V0200201N001012200019N0010001N1+02501+01301101691ADDAY101061AY201061GA1001+999999999GF100991001001999999001001IA1019KA1120M+02661KA2240N+01021MA1999999095961MD1210051+0051MW1041REMSYN100AAXX  05181 76393 31910 00201 10250 20130 39596 40169 52005 70400 91750 333 10266 20102 30/// 58005;
0193763930999992011010521004+25733-100300FM-12+051599999V0200301N002012200019N0010001N1+02621+01131101331ADDAY101031AY201031GA1001+999999999GF100991001001999999001001IA1019MA1999999095681MD1710281+9999MW1041REMSYN082AAXX  05211 76393 31910 00302 10262 20113 39568 40133 57028 70400 92050 333 30///;
0279763930999992011010600004+25733-100300FM-12+051599999V0200601N001012200019N0030001N1+02421+01081101431ADDAA124000091AY101061AY201061GA1001+999999999GF100991001001999999001001IA1019KA1120M+02801KA2180N+01101MA1999999095791MD1210111+0151MW1051REMSYN112AAXX  06001 76393 31930 00601 10242 20108 39579 40143 52011 70500 92355 333 10280 20110 30/// 50191 58015 70000;EQDQ01  00002PRCP24
0199763930999992011010603004+25733-100300FM-12+051599999V0202201N001012200019N0020001N1+02101+01261101571ADDAY101031AY201031GA1001+999999999GF100991001001999999001001IA1019MA1999999095941MD1210151+0231MW1051REMSYN088AAXX  06031 76393 31920 02201 10210 20126 39594 40157 52015 70500 90250 333 30/// 58023;
0247763930999992011010606004+25733-100300FM-12+051599999V0201801N001012200019N0020001N1+01881+01191101641ADDAY101061AY201061GF103991031001999999041001GJ105109IA1019KA1240M+02801KA2240N+01101MA1999999096001MD1210061+9999MW1051REMSYN118AAXX  06061 76393 31920 31801 10188 20119 39600 40164 52006 70500 83040 90550 333 10280 20110 30/// 55085 56070 58030;
0199763930999992011010615004+25733-100300FM-12+051599999V0201801N001012200019N0010001N1+01821+01081102211ADDAY101031AY201031GA1001+999999999GF100991001001999999001001IA1019MA1999999096201MD1210101+0291MW1041REMSYN088AAXX  06151 76393 31910 01801 10182 20108 39620 40221 52010 70400 91450 333 30/// 58029;
0274763930999992011010618004+25733-100300FM-12+051599999V0201201N001012200019N0010001N1+02341+01181101831ADDAY101061AY201061GA1011+014401031GF101991999001999999031001IA1019KA1120M+02781KA2240N+01461MA1999999096111MD1710091+0151MW1041REMSYN118AAXX  06181 76393 31910 11201 10234 20118 39611 40183 57009 70400 80030 91750 333 10278 20146 30/// 56010 58015 81348;EQDQ01+000002SCOTLC
0211763930999992011010621004+25733-100300FM-12+051599999V0200901N002010300019N0010001N1+02621+01141101501ADDAY121031AY221031GA1051+030001041GF105991051001999999011001IA1019MA1999999095841MD1710261+9999MW1041REMSYN100AAXX  06211 76393 31910 50902 10262 20114 39584 40150 57026 70422 85010 92050 333 30/// 56010 85460;
0262763930999992011010700004+25733-100300FM-12+051599999V0201101N003019999999N0010001N1+02461+00871101441ADDAA124000091AY121061AY221061GF107991001001999999001061IA1019KA1120M+02761KA2180N+01461MA1999999095811MD1710031+0021MW1051REMSYN130AAXX  07001 76393 31910 71103 10246 20087 39581 40144 57003 70522 80006 92350 333 10276 20146 30/// 50481 56605 58002 70000 87070;
0195763930999992011010703004+25733-100300FM-12+051599999V0200701N002012200019N0020001N1+02101+00721101601ADDAY101031AY201031GF102991021001999999041001IA1019MA1999999095971MD1210161+0031MW1051REMSYN100AAXX  07031 76393 31920 20702 10210 20072 39597 40160 52016 70500 82040 90250 333 30/// 56070 58003;
0251763930999992011010706004+25733-100300FM-12+051599999V0200701N001012200019N0020001N1+01801+00771101551ADDAY101061AY201061GA1001+999999999GF100991001001999999001001GJ104689IA1019KA1240M+02761KA2240N+01461MA1999999095921MD1710051-0081MW1051REMSYN106AAXX  07061 76393 31920 00701 10180 20077 39592 40155 57005 70500 90550 333 10276 20146 30/// 55078 59008;
0189763930999992011010715004+25733-100300FM-12+051599999V0202001N001012200019N0010001N1+01801+00941101351ADDAY101031AY201031GF102991021001999999041001IA1019MA1999999095621MD1710061+9999MW1041REMSYN094AAXX  07151 76393 31910 22001 10180 20094 39562 40135 57006 70400 82040 91450 333 30/// 56070;
0255763930999992011010718004+25733-100300FM-12+051599999V0200801N001012200019N0010001N1+02281+01061101151ADDAY101061AY201061GA1041+030001031GF104991041001999999041001IA1019KA1120M+02421KA2240N+01501MA1999999095421MD1710201-0681MW1041REMSYN118AAXX  07181 76393 31910 40801 10228 20106 39542 40115 57020 70400 84040 91750 333 10242 20150 30/// 56070 59068 84360;
0217763930999992011010721004+25733-100300FM-12+051599999V0201201N003019999999N0010001N1+02821+01081100631ADDAY121031AY221031GA1011+021001081GF106991011011999999001081IA1019MA1999999094981MD1710441+9999MW1041REMSYN106AAXX  07211 76393 31910 61203 10282 20108 39498 40063 57044 70422 81108 92050 333 30/// 56507 81857 85260;
0262763930999992011010800004+25733-100300FM-12+051599999V0200901N003019999999N0010001N1+02601+00981100571ADDAA124000091AY121061AY221061GF107991001001999999001061IA1019KA1120M+02901KA2180N+01501MA1999999094981MD1410001-0831MW1051REMSYN130AAXX  08001 76393 31910 70903 10260 20098 39498 40057 54000 70522 80006 92345 333 10290 20150 30/// 50471 56005 59083 70000 86070;
0195763930999992011010803004+25733-100300FM-12+051599999V0209999C000012200019N0010001N1+02221+01141100621ADDAY101031AY201031GF103991031001999999011001IA1019MA1999999095061MD1210081-0911MW1051REMSYN100AAXX  08031 76393 31910 30000 10222 20114 39506 40062 52008 70500 83010 90250 333 30/// 56070 59091;
0251763930999992011010806004+25733-100300FM-12+051599999V0203501N001012200019N0010001N1+01921+01341100661ADDAY101061AY201061GA1001+999999999GF100991001001999999001001GJ104989IA1019KA1240M+02901KA2240N+01501MA1999999095091MD1410001-0831MW1051REMSYN106AAXX  08061 76393 31910 03501 10192 20134 39509 40066 54000 70500 90550 333 10290 20150 30/// 55083 59083;
0261763930999992011010818004+25733-100300FM-12+051599999V0201201N00601220001CN0010001N1+02441+01411100771ADDAY121061AY221061GA1011+012601081GF107991011011012501001011IA1019KA1120M+02581KA2240N+01581MA1999999095111MD1999999-0321MW1051REMSYN124AAXX  08181 76393 31610 71206 10244 20141 39511 40077 5//// 70522 81101 91750 333 10258 20158 30/// 56305 59032 81842 86070;
0195763930999992011010821004+25733-100300FM-12+051599999V0201101N00501036001CN0010001N1+02581+01441100301ADDGA1011+014101081GF107991011021012501011081IA1019MA1999999094701MD1710411-0281REMSYN106AAXX  08211 76393 32610 71105 10258 20144 39470 40030 57041 81218 92050 333 30/// 56355 59028 81847 85270;
0262763930999992011010900004+25733-100300FM-12+051599999V0200901N003010075019N0010001N1+02221+01541100241ADDAA124000091AY121061AY221061GF107991051051008001001011IA1019KA1120M+02721KA2180N+01581MA1999999094671MD1710031-0311MW1051REMSYN130AAXX  09001 76393 31510 70903 10222 20154 39467 40024 57003 70522 85501 92350 333 10272 20158 30/// 50411 56305 59031 70000 85628;
0217763930999992011010903004+25733-100300FM-12+051599999V0201201N006010057019N0010001N1+02101+01641100211ADDAY121031AY221031GA1071+005701061GF107991071051004501001001IA1019MA1999999094661MD1710011-0431MW1051REMSYN106AAXX  09031 76393 31410 71206 10210 20164 39466 40021 57001 70522 87500 90250 333 30/// 56300 59043 87619;
0253763930999992011010906004+25733-100300FM-12+051599999V0201201N003012200019N0010001N1+01921+01611100151ADDAY101061AY201061GF102991021041004501001001GJ104149IA1019KA1240M+02721KA2240N+01581MA1999999094591MD1710071-0501MW1051REMSYN124AAXX  09061 76393 31410 21203 10192 20161 39459 40015 57007 70500 82400 90550 333 10272 20158 30/// 55069 56300 59050 82613;
0199763930999992011011003004+25733-100300FM-12+051599999V0201001N001012200019N0020001N1+01981+01021101011ADDAY101031AY201031GA1001+999999999GF100991001001999999001001IA1019MA1999999095371MD1210231+0711MW1051REMSYN088AAXX  10031 76393 31920 01001 10198 20102 39537 40101 52023 70500 90250 333 30/// 58071;
0251763930999992011011006004+25733-100300FM-12+051599999V0202101N001012200019N0020001N1+01661+00541101051ADDAY101061AY201061GA1001+999999999GF100991001001999999001001GJ105229IA1019KA1240M+02801KA2240N+01661MA1999999095371MD1410001+0781MW1051REMSYN106AAXX  10061 76393 31920 02101 10166 20054 39537 40105 54000 70500 90550 333 10280 20166 30/// 55087 58078;
0193763930999992011011015004+25733-100300FM-12+051599999V0203001N002012200019N0010001N1+99999+99999101431ADDAY101031AY201031GA1001+999999999GF100991001001999999001001IA1019MA1999999095621MD1210141+9999MW1041REMSYN082AAXX  10151 76393 31910 03002 20054 39562 40143 52014 70400 91450 333 30/// 58///;
0237763930999992011011018004+25733-100300FM-12+051599999V0203501N002012200019N0010001N1+02101+00681101331ADDAY101061AY201061GA1001+999999999GF100991001001999999001001IA1019KA1120M+02261KA2240N+01121MA1999999095561MD1710061+9999MW1041REMSYN100AAXX  10181 76393 31910 03502 10210 20068 39556 40133 57006 70400 91750 333 10226 20112 30/// 58///;
0199763930999992011011021004+25733-100300FM-12+051599999V0200901N003012200019N0010001N1+02401+01081101111ADDAY101031AY201031GA1001+999999999GF100991001001999999001001IA1019MA1999999095381MD1710181+9999MW1041REMSYN088AAXX  10211 76393 31910 00903 10240 20108 39538 40111 57018 70400 92050 333 30/// 58///;
0207763930999992011011100004+25733-100300FM-12+051599999V0200901N002012200019N0010001N1+02481+00711999999ADDGA1001+999999999GF100991001001999999001001KA1120M+02781KA2180N+01121MD1999999+0401REMSYN113AAXX  11001 76393 31910 00902 10248 20071 3 39554 40120 52016 7040 92350 333 10278 20112 30/// 50381 58040 70000;
0251763930999992011011106004+25733-100300FM-12+051599999V0201201N004012200019N0010001N1+01721+01151101741ADDAY101061AY201061GA1001+999999999GF100991001001999999001001GJ105229IA1019KA1240M+02781KA2240N+01121MA1999999096081MD1210291+0711MW1051REMSYN106AAXX  11061 76393 31910 01204 10172 20115 39608 40174 52029 70500 90550 333 10278 20112 30/// 55087 58071;
0172763930999992011011200004+25733-100300FM-12+051599999V0203301N001019999999N0003001N1+00581+00451103381ADDAA106001091AY141061AY241061GF108991999999001501999999MA1999999097301MD1210091+9999MW1051REMSYN072AAXX  12001 76393 01203 83301 10058 20045 39730 40338 52009 60011 70544;
0234763930999992011011203004+25733-100300FM-12+051599999V0200401N001010009019N0003001N1+00561+00481103531ADDAA103000991AY151031AY221031GA1081+000901071GF108991081071000751999999IA1099MA1999999097441MD1210141+1651MW1501REMSYN112AAXX  12031 76393 21103 80401 10056 20048 39744 40353 52014 75052 887// 90250 333 31/// 568// 58165 69997 88703;
0172763930999992011011206004+25733-100300FM-12+051599999V0201201N002019999999N0003001N1+00521+00481103491ADDAA106000591AY151061AY221061GF108991999999000251999999MA1999999097401MD1710041+9999MW1501REMSYN072AAXX  12061 76393 01003 81202 10052 20048 39740 40349 57004 69941 75052;
0172763930999992011011218004+25733-100300FM-12+051599999V0200801N002019999999N0003001N1+00361+00311103811ADDAA106002091AY151061AY251061GF108991999999000751999999MA1999999097671MD1410001+9999MW1501REMSYN072AAXX  12181 76393 01103 80802 10036 20031 39767 40381 54000 60021 75055;
0234763930999992011011221004+25733-100300FM-12+051599999V0200901N002010012019N0003001N1+00401+00311103471ADDAA103002091AY151031AY251031GA1081+001201071GF108991081071001501999999IA1119MA1999999097331MD1710031+0121MW1501REMSYN112AAXX  12211 76393 21203 80902 10040 20031 39733 40347 57003 75055 887// 92050 333 32/// 568// 58012 60027 88704;
0172763930999992011011300004+25733-100300FM-12+051599999V0200701N003019999999N0002001N1+00421+00381103491ADDAA106003091AY151061AY251061GF108991999999000251999999MA1999999097361MD1210031+9999MW1501REMSYN072AAXX  13001 76393 01002 80703 10042 20038 39736 40349 52003 60031 75055;
0234763930999992011011303004+25733-100300FM-12+051599999V0201201N003010006019N0002001N1+00401+00351103531ADDAA103000191AY151031AY251031GA1081+000601071GF108991081071000751999999IA1119MA1999999097401MD1210041-0041MW1051REMSYN112AAXX  13031 76393 21102 81203 10040 20035 39740 40353 52004 70555 887// 90250 333 32/// 563// 59004 69917 88702;
0172763930999992011011306004+25733-100300FM-12+051599999V0201201N002019999999N0002001N1+00321+00271103531ADDAA106000391AY151061AY251061GF108991999999000751999999MA1999999097401MD1410001+9999MW1501REMSYN072AAXX  13061 76393 01102 81202 10032 20027 39740 40353 54000 69931 75055;
0234763930999992011011321004+25733-100300FM-12+051599999V0200401N001010042019N0005001N1+00801+00481103201ADDAA103000021AY121031AY221031GA1081+004201061GF108991081061004501999999IA1099MA1999999097081MD1710381-0251MW1501REMSYN112AAXX  13211 76393 21405 80401 10080 20048 39708 40320 57038 75022 886// 92050 333 31/// 568// 59025 69907 88614;
0262763930999992011011400004+25733-100300FM-12+051599999V0200901N002010042019N0005001N1+00701+00531103131ADDAA124005291AY121061AY221061GF108991081071004501999999IA1099KA1120M+00851KA2180N+00201MA1999999097051MD1710041-0311MW1021REMSYN130AAXX  14001 76393 31405 80902 10070 20053 39705 40313 57004 70222 887// 92350 333 10085 20020 31/// 50031 568// 59031 70052 88705;
0231763930999992011011403004+25733-100300FM-12+051599999V0201201N002019999999N0003001N1+00621+00541103131ADDAA103000991AY151031AY251031GF108991999021000751051001MA1999999097071MD1210021-0331MW1501REMSYN112AAXX  14031 76393 21103 81202 10062 20054 39707 40313 52002 75055 80250 887// 333 31/// 568// 59033 69997 88703;EQDQ01+000002SCOTLC
0180763930999992011011406004+25733-100300FM-12+051599999V0200901N001019999999N0001001N1+00521+00481103051ADDAY151061AY251061GF108991999999000251999999MA1999999097001MD1710071+9999MW1501REMSYN072AAXX  14061 76393 01001 80901 10052 20048 39700 40305 57007 69911 75055;EQDQ01  00002PRCP06
0234763930999992011011415004+25733-100300FM-12+051599999V0201101N002010006019N0003001N1+00781+00661102681ADDAA106000991AY151031AY251031GA1081+000601071GF108991081071000751999999IA1099MA1999999096641MD1999999-0921MW1501REMSYN112AAXX  14151 76393 21103 81102 10078 20066 39664 40268 5//// 75055 887// 91450 333 31/// 568// 59092 69991 88702;
0255763930999992011011418004+25733-100300FM-12+051599999V0200801N002010036019N0003001N1+01061+00761102471ADDAY141061AY241061GA1081+003601071GF108991081071004501999999IA1099KA1120M+01101KA2240N+00521MA1999999096451MD1710191-1011MW1051REMSYN118AAXX  14181 76393 31403 80802 10106 20076 39645 40247 57019 70544 887// 91750 333 10110 20052 31/// 568// 59101 88712;
0217763930999992011011421004+25733-100300FM-12+051599999V0201201N001010048019N0003001N1+01241+00841102011ADDAY141031AY241031GA1071+004801061GF107991071061004501999999IA1019MA1999999096051MD1710411-1041MW1051REMSYN106AAXX  14211 76393 31403 71201 10124 20084 39605 40201 57041 70544 876// 92050 333 30/// 561// 59104 87616;
0262763930999992011011500004+25733-100300FM-12+051599999V0200401N003010021019N0001001N1+01041+00821101941ADDAA124000191AY141061AY241061GF108991081061002501999999IA1019KA1120M+01321KA2180N+00551MA1999999096021MD1710031-1031MW1051REMSYN130AAXX  15001 76393 31301 80403 10104 20082 39602 40194 57003 70544 886// 92350 333 10132 20055 30/// 50071 561// 59103 70001 88709;
0253763930999992011011521004+25733-100300FM-12+051599999V0200101N001010024019N0008001N1+01201+00991101881ADDAA103000091AY141031AY241031GA1081+002401071GF108991081071002501999999IA1099MA1999999095971MD1710261-0081MW1051REMSYN112AAXX  15211 76393 21308 80101 10120 20099 39597 40188 57026 70544 887// 92050 333 31/// 568// 59008 69907 88708;EQDQ01  00002PRCP03
0262763930999992011011600004+25733-100300FM-12+051599999V0203601N001010042019N0008001N1+01241+00921101861ADDAA124001891AY141061AY241061GF108991081071004501999999IA1019KA1120M+01341KA2180N+00801MA1999999095971MD1410001-0051MW1051REMSYN130AAXX  16001 76393 31408 83601 10124 20092 39597 40186 54000 70544 887// 92350 333 10134 20080 30/// 50031 568// 59005 70018 88713;
0217763930999992011011603004+25733-100300FM-12+051599999V0200201N001010030019N0008001N1+01181+00931101951ADDAY141031AY241031GA1081+003001071GF108991081071004501999999IA1019MA1999999096071MD1210101+9999MW1051REMSYN106AAXX  16031 76393 31408 80201 10118 20093 39607 40195 52010 70544 887// 90250 333 30/// 568// 58/// 88710;
0253763930999992011011606004+25733-100300FM-12+051599999V0201601N001010021019N0010001N1+01141+00921101821ADDAY121061AY221061GF108991081071002501999999GJ100009IA1019KA1240M+01341KA2240N+00801MA1999999095951MD1710121+9999MW1051REMSYN124AAXX  16061 76393 31310 81601 10114 20092 39595 40182 57012 70522 887// 90550 333 10134 20080 30/// 55000 568// 58/// 88709;
0237763930999992011011618004+25733-100300FM-12+051599999V0201901N001012200019N0005001N1+01561+01081101701ADDAY141061AY241061GA1001+999999999GF100991001001999999001001IA1019KA1120M+01701KA2240N+00841MA1999999095831MD1210021-0401MW1051REMSYN100AAXX  16181 76393 31905 01901 10156 20108 39583 40170 52002 70544 91745 333 10170 20084 30/// 59040;
0195763930999992011011703004+25733-100300FM-12+051599999V0209999C000012200019N0010001N1+01461+01191101371ADDAY101031AY201031GF103991031001999999011001IA1019MA1999999095611MD1210131-0461MW1051REMSYN100AAXX  17031 76393 31910 30000 10146 20119 39561 40137 52013 70500 83010 90250 333 30/// 56050 59046;
0251763930999992011011706004+25733-100300FM-12+051599999V0201901N001012200019N0010001N1+01361+01081101451ADDAY101061AY201061GA1001+999999999GF100991001001999999001001GJ104629IA1019KA1240M+02181KA2240N+00841MA1999999095691MD1210081-0261MW1051REMSYN106AAXX  17061 76393 31910 01901 10136 20108 39569 40145 52008 70500 90550 333 10218 20084 30/// 55077 59026;
0183763930999992011011715004+25733-100300FM-12+051599999V0201701N001012200019N0003001N1+01421+00811101361ADDAY141031AY241031GF102991001001999999001081MA1999999095501MD1210061-0321MW1051REMSYN094AAXX  17151 76393 31903 21701 10142 20081 39550 40136 52006 70544 80008 91450 333 56700 59032;
0233763930999992011011718004+25733-100300FM-12+051599999V0200401N001012200019N0003001N1+02101+01031101191ADDAY141061AY241061GF102991021001999999021001IA1019KA1120M+02201KA2240N+00111MA1999999095381MD1710121-0451MW1041REMSYN112AAXX  17181 76393 31903 20401 10210 20103 39538 40119 57012 70444 82020 91750 333 10220 20011 30/// 56070 59045;
0199763930999992011011721004+25733-100300FM-12+051599999V0201201N002012200019N0010001N1+02601+00981100611ADDAY141031AY241031GA1001+999999999GF100991001001999999001001IA1019MA1999999094891MD1710491-0551MW1051REMSYN088AAXX  17211 76393 31910 01202 10260 20098 39489 40061 57049 70544 92050 333 30/// 59055;
0279763930999992011011800004+25733-100300FM-12+051599999V0201201N001012200019N0030001N1+02401+00961100421ADDAA124000091AY101061AY201061GA1001+999999999GF100991001001999999001001IA1019KA1120M+02741KA2180N+01101MA1999999094781MD1710111-0701MW1051REMSYN112AAXX  18001 76393 31930 01201 10240 20096 39478 40042 57011 70500 92350 333 10274 20110 30/// 50201 59070 70000;EQDQ01  00002PRCP24
0199763930999992011011803004+25733-100300FM-12+051599999V0202101N001012200019N0010001N1+01941+00781100521ADDAY101031AY201031GA1001+999999999GF100991001001999999001001IA1019MA1999999094921MD1210141-0691MW1051REMSYN088AAXX  18031 76393 31910 02101 10194 20078 39492 40052 52014 70500 90250 333 30/// 59069;
0251763930999992011011806004+25733-100300FM-12+051599999V0202901N001012200019N0010001N1+01521+00841100571ADDAY101061AY201061GA1001+999999999GF100991001001999999001001GJ104989IA1019KA1240M+02741KA2240N+01101MA1999999094951MD1210031-0741MW1051REMSYN106AAXX  18061 76393 31910 02901 10152 20084 39495 40057 52003 70500 90550 333 10274 20110 30/// 55083 59074;
0199763930999992011011815004+25733-100300FM-12+051599999V0202501N002012200019N0003001N1+01901+00581101101ADDAY141031AY241031GA1001+999999999GF100991001001999999001001IA1019MA1999999095311MD1210391-0191MW1041REMSYN088AAXX  18151 76393 31903 02502 10190 20058 39531 40110 52039 70444 91750 333 30/// 59019;
0199763930999992011011821004+25733-100300FM-12+051599999V0200501N002012200019N0020001N1+03001+00411100971ADDAY101031AY201031GA1001+999999999GF100991001001999999001001IA1019MA1999999095331MD1710081+0441MW1041REMSYN088AAXX  18211 76393 31920 00502 10300 20041 39533 40097 57008 70400 92050 333 30/// 58044;
0279763930999992011011900004+25733-100300FM-12+051599999V0200601N002012200019N0030001N1+02441+00381101171ADDAA124000091AY101061AY201061GA1001+999999999GF100991001001999999001001IA1019KA1120M+03141KA2180N+01481MA1999999095581MD1210251+0801MW1051REMSYN112AAXX  19001 76393 31930 00602 10244 20038 39558 40117 52025 70500 92355 333 10314 20148 30/// 50611 58080 70000;EQDQ01  00002PRCP24
0199763930999992011011903004+25733-100300FM-12+051599999V0209999C000012200019N0020001N1+02021+00801101441ADDAY101031AY201031GA1001+999999999GF100991001001999999001001IA1019MA1999999095851MD1210271+0931MW1051REMSYN088AAXX  19031 76393 31920 00000 10202 20080 39585 40144 52027 70500 90250 333 30/// 58093;
0251763930999992011011906004+25733-100300FM-12+051599999V0201401N006012200019N0020001N1+01901+00631101571ADDAY101061AY201061GA1001+999999999GF100991001001999999001001GJ105289IA1019KA1240M+03141KA2240N+01481MA1999999095931MD1210081+0981MW1051REMSYN106AAXX  19061 76393 31920 01406 10190 20063 39593 40157 52008 70500 90550 333 10314 20148 30/// 55088 58098;
0217763930999992011011915004+25733-100300FM-12+051599999V0200501N002012200019N0003001N1+01421+01181101711ADDAY141031AY241031GA1031+002701041GF103991031001002501011001IA1019MA1999999095921MD1210051+0611MW1041REMSYN106AAXX  19151 76393 31303 30502 10142 20118 39592 40171 52005 70444 83010 91450 333 30/// 56010 58061 83409;
0255763930999992011011918004+25733-100300FM-12+051599999V0200901N003012200019N0003001N1+01641+01171101571ADDAY141061AY241061GA1041+005701061GF104991041061004501001001IA1019KA1120M+01761KA2240N+01221MA1999999095791MD1710131+0381MW1041REMSYN118AAXX  19181 76393 31403 40903 10164 20117 39579 40157 57013 70444 84600 91750 333 10176 20122 30/// 56100 58038 84619;
0199763930999992011011921004+25733-100300FM-12+051599999V0201101N002012200019N0005001N1+01861+01241101111ADDAY141031AY241031GA1001+999999999GF100991001001999999001001IA1019MA1999999095361MD1710431+0031MW1041REMSYN088AAXX  19211 76393 31905 01102 10186 20124 39536 40111 57043 70444 92050 333 30/// 58003;
0218763930999992011012003004+25733-100300FM-12+051599999V0200201N001012200019N0010001N1+01681+01221999999ADDAY101031AY201031GA1001+999999999GF100991001001999999001001IA1019MA1999999095261MD1210031-0591MW1051REMSYN088AAXX  20031 76393 31910 00201 10168 20122 39526 40521 52003 70500 90250 333 30/// 59059;EQDQ01 105213APOSLP
0270763930999992011012006004+25733-100300FM-12+051599999V0209999C000012200019N0010001N1+01501+01201100932ADDAY101061AY201061GA1001+999999999GF100991001001999999001001GJ105289IA1019KA1240M+02021KA2240N+01221MA1999999095221MD1710041-0711MW1051REMSYN106AAXX  20061 76393 31910 00000 10150 20120 39522 40093 57004 70500 90550 333 10202 20122 30/// 55088 59071;EQDQ01+100933APOSLP
0195763930999992011012015004+25733-100300FM-12+051599999V0203401N002012200019N0010001N1+01621+01001101181ADDAY141031AY241031GF103991001001999999001091IA1019MA1999999095411MD1210351-0511MW1051REMSYN100AAXX  20151 76393 31910 33402 10162 20100 39541 40118 52035 70544 80009 91450 333 30/// 56007 59051;
0237763930999992011012018004+25733-100300FM-12+051599999V0201101N001012200019N0003001N1+02681+00731101191ADDAY101061AY201061GA1001+999999999GF100991001001999999001001IA1019KA1120M+02861KA2240N+01281MA1999999095461MD1210051-0341MW1051REMSYN100AAXX  20181 76393 31903 01101 10268 20073 39546 40119 52005 70500 91750 333 10286 20128 30/// 59034;
0217763930999992011012021004+25733-100300FM-12+051599999V0200101N005012200019N0010001N1+02081+01161101431ADDAY111031AY211031GA1021+011401081GF102991021011012501001001IA1019MA1999999095721MD1210261+0361MW1051REMSYN106AAXX  20211 76393 31610 20105 10208 20116 39572 40143 52026 70511 82100 92045 333 30/// 56300 58036 82838;
0262763930999992011012100004+25733-100300FM-12+051599999V0203601N002012200019N0005001N1+01341+00631101791ADDAA124000091AY121061AY221061GF104991011051008001021001IA1019KA1120M+03021KA2180N+01281MA1999999096071MD1210351+0841MW1051REMSYN130AAXX  21001 76393 31505 43602 10134 20063 39607 40179 52035 70522 81520 92350 333 10302 20128 30/// 50251 56830 58084 70000 81629;
0217763930999992011012103004+25733-100300FM-12+051599999V0200401N001012200019N0010001N1+01001+00191102211ADDAY101031AY201031GA1021+009901061GF102991021041008001001001IA1019MA1999999096451MD1210381+1191MW1051REMSYN106AAXX  21031 76393 31510 20401 10100 20019 39645 40221 52038 70500 82400 90250 333 30/// 56800 58119 82633;
0251763930999992011012106004+25733-100300FM-12+051599999V0203201N002012200019N0010001N1+00821+00171102391ADDAY101061AY201061GA1001+999999999GF100991001001999999001001GJ104449IA1019KA1240M+03021KA2240N+00821MA1999999096541MD1210091+1321MW1051REMSYN106AAXX  21061 76393 31910 03202 10082 20017 39654 40239 52009 70500 90550 333 10302 20082 30/// 55074 58132;
0199763930999992011012115004+25733-100300FM-12+051599999V0209999C000012200019N0010001N1+00721-00211102061ADDAY141031AY241031GA1001+999999999GF100991001001999999001001IA1019MA1999999096091MD1710191+0681MW1051REMSYN088AAXX  21151 76393 31910 00600 10072 21021 39609 40206 57019 70544 91450 333 30/// 58068;
0237763930999992011012118004+25733-100300FM-12+051599999V0203001N002012200019N0010001N1+01181-00041101971ADDAY101061AY201061GA1001+999999999GF100991001001999999001001IA1019KA1120M+01321KA2240N+00541MA1999999096021MD1710071+0561MW1061REMSYN100AAXX  21181 76393 31910 03002 10118 21004 39602 40197 57007 70600 91750 333 10132 20054 30/// 58056;
0199763930999992011012121004+25733-100300FM-12+051599999V0201301N003012200019N0010001N1+01761+00211101351ADDAY101031AY201031GA1001+999999999GF100991001001999999001001IA1019MA1999999095481MD1710541-0241MW1061REMSYN088AAXX  21211 76393 31910 01303 10176 20021 39548 40135 57054 70600 92050 333 30/// 59024;
0279763930999992011012200004+25733-100300FM-12+051599999V0201101N002012200019N0010001N1+01621+00331101271ADDAA124000091AY101061AY201061GA1001+999999999GF100991001001999999001001IA1019KA1120M+01921KA2180N+00541MA1999999095451MD1710031-0621MW1051REMSYN112AAXX  22001 76393 31910 01102 10162 20033 39545 40127 57003 70500 92350 333 10192 20054 30/// 50331 59062 70000;EQDQ01  00002PRCP24
0199763930999992011012215004+25733-100300FM-12+051599999V0209999C000012200019N0005001N1+01001+00251102071ADDAY141031AY241031GA1001+999999999GF100991001001999999001001IA1019MA1999999096141MD1210071+0051MW1051REMSYN088AAXX  22151 76393 31905 00000 10100 20025 39614 40207 52007 70544 91445 333 30/// 58005;
0237763930999992011012218004+25733-100300FM-12+051599999V0201201N006012200019N0010001N1+01821+00141101911ADDAY101061AY201061GA1001+999999999GF100991001001999999001001IA1019KA1120M+01941KA2240N+00641MA1999999096021MD1710121+0001MW1061REMSYN100AAXX  22181 76393 31910 01206 10182 20014 39602 40191 57012 70600 91745 333 10194 20064 30/// 58000;
0279763930999992011012300004+25733-100300FM-12+051599999V0201301N005012200019N0030001N1+01821+00201101241ADDAA124000091AY101061AY201061GA1001+999999999GF100991001001999999001001IA1019KA1120M+02141KA2180N+00641MA1999999095431MD1999999-0021MW1051REMSYN112AAXX  23001 76393 31930 01305 10182 20020 39543 40124 5//// 70500 92355 333 10214 20064 30/// 50551 59002 70000;EQDQ01  00002PRCP24
0199763930999992011012303004+25733-100300FM-12+051599999V0201201N005012200019N0010001N1+01521+00341101191ADDAY101031AY201031GA1001+999999999GF100991001001999999001001IA1019MA1999999095461MD1210031+9999MW1051REMSYN088AAXX  23031 76393 31910 01205 10152 20034 39546 40119 52003 70500 90250 333 30/// 58///;
0251763930999992011012306004+25733-100300FM-12+051599999V0200901N002012200019N0010001N1+01141+00371101151ADDAY101061AY201061GA1001+999999999GF100991001001999999001001GJ105289IA1019KA1240M+02141KA2240N+00641MA1999999095411MD1710051+9999MW1051REMSYN106AAXX  23061 76393 31910 00902 10114 20037 39541 40115 57005 70500 90550 333 10214 20064 30/// 55088 58///;
0279763930999992011012400004+25733-100300FM-12+051599999V0200201N003012200019N0020001N1+01881+00501101141ADDAA124000091AY101061AY201061GA1001+999999999GF100991001001999999001001IA1019KA1120M+02601KA2180N+00701MA1999999095451MD1999999+0021MW1051REMSYN112AAXX  24001 76393 31920 00203 10188 20050 39545 40114 5//// 70500 92355 333 10260 20070 30/// 50351 58002 70000;EQDQ01  00002PRCP24
0199763930999992011012403004+25733-100300FM-12+051599999V0200201N002012200019N0010001N1+01481+00741101621ADDAY101031AY201031GA1001+999999999GF100991001001999999001001IA1019MA1999999095861MD1210411+0401MW1051REMSYN088AAXX  24031 76393 31910 00202 10148 20074 39586 40162 52041 70500 90250 333 30/// 58040;
0251763930999992011012406004+25733-100300FM-12+051599999V0209999C000012200019N0010001N1+01361+00611101611ADDAY101061AY201061GA1001+999999999GF100991001001999999001001GJ105349IA1019KA1240M+02601KA2240N+00701MA1999999095821MD1710041+0411MW1051REMSYN106AAXX  24061 76393 31910 00000 10136 20061 39582 40161 57004 70500 90550 333 10260 20070 30/// 55089 58041;
0203763930999992011012415004+25733-100300FM-12+051599999V0200501N001012200019N0010001N1+01261+00551101711ADDAY121031AY221031GA1041+030001031GF104991041001999999041001IA1019MA1999999095851MW1051REMSYN106AAXX  24151 76393 31910 40501 10126 20055 39585 40171 5//// 70522 84040 91450 333 30/// 56070 58/// 84360;
0237763930999992011012418004+25733-100300FM-12+051599999V0201101N002012200019N0010001N1+01761+00581101581ADDAY101061AY201061GA1001+999999999GF100991001001999999001001IA1019KA1120M+01881KA2240N+01101MA1999999095761MD1710091+9999MW1051REMSYN100AAXX  24181 76393 31910 01102 10176 20058 39576 40158 57009 70500 91750 333 10188 20110 30/// 58///;
0199763930999992011012421004+25733-100300FM-12+051599999V0201001N002012200019N0010001N1+02041+00781101151ADDAY101031AY201031GA1001+999999999GF100991001001999999001001IA1019MA1999999095391MD1710371+9999MW1061REMSYN088AAXX  24211 76393 31910 01002 10204 20078 39539 40115 57037 70600 92050 333 30/// 58///;
0272763930999992011012500004+25733-100300FM-12+051599999V0201101N003012200019N0020001N1+01941+00821101081ADDAA124000091AY101061AY201061GA1011+013801081GF102991011011012501031001IA1019KA1120M+02001KA2180N+01101MA1999999095351MD1710041+9999MW1051REMSYN124AAXX  25001 76393 31620 21103 10194 20082 39535 40108 57004 70500 81130 92350 333 10200 20110 30/// 50401 58/// 70000 81846;
0199763930999992011012503004+25733-100300FM-12+051599999V0201601N001012200019N0010001N1+01601+01051101251ADDAY101031AY201031GA1001+999999999GF100991001001999999001001IA1019MA1999999095541MD1210191-0321MW1051REMSYN088AAXX  25031 76393 31910 01601 10160 20105 39554 40125 52019 70500 90250 333 30/// 59032;
0251763930999992011012506004+25733-100300FM-12+051599999V0209999C000012200019N0010001N1+01321+00931101381ADDAY101061AY201061GA1001+999999999GF100991001001999999001001GJ105229IA1019KA1240M+02181KA2240N+01101MA1999999095651MD1210111-0171MW1051REMSYN106AAXX  25061 76393 31910 00000 10132 20093 39565 40138 52011 70500 90550 333 10218 20110 30/// 55087 59017;
0217763930999992011012515004+25733-100300FM-12+051599999V0203601N001012200019N0005001N1+01121+00541102111ADDAY101031AY201031GA1031+007201071GF103991031071008001001001IA1019MA1999999096251MD1210391+0401MW1051REMSYN106AAXX  25151 76393 31505 33601 10112 20054 39625 40211 52039 70500 83700 91450 333 30/// 56500 58040 83724;
0232763930999992011012518004+25733-100300FM-12+051599999V0203601N001012200019N0010001N1+01641+00411102061ADDAY101061AY201061GF101991011001999999011001IA1019KA1120M+01741KA2240N+01021MA1999999096211MD1710041+9999MW1051REMSYN111AAXX  25181 76393 31910 13601 10164 20041 39621 40206 57004 70500 81010 92050 333 10174 20102 30/// 5050 58045;
0134763930999992011012521004+25733-100300FM-12+051599999V0200401N002012200019N0010001N1+01921+00131999999ADDGF101991999999999999999999REMSYN096AAXX  25211 76393 31910 10402 10192 20013 30/// 39592 40173 56050 57029 58053 70500 81010 92050;
0279763930999992011012600004+25733-100300FM-12+051599999V0203601N003012200019N0040001N1+01661-00131101761ADDAA124000091AY101061AY201061GA1001+999999999GF100991001001999999001001IA1019KA1120M+02101KA2180N+01021MA1999999095981MD1210061+0631MW1041REMSYN112AAXX  26001 76393 31940 03603 10166 21013 39598 40176 52006 70400 92350 333 10210 20102 30/// 50421 58063 70000;EQDQ01  00002PRCP24
0199763930999992011012603004+25733-100300FM-12+051599999V0200201N002012200019N0010001N1+01321-00191102011ADDAY101031AY201031GA1001+999999999GF100991001001999999001001IA1019MA1999999096221MD1210241+0681MW1051REMSYN088AAXX  26031 76393 31910 00202 10132 21019 39622 40201 52024 70500 90250 333 30/// 58068;
0251763930999992011012606004+25733-100300FM-12+051599999V0209999C000012200019N0010001N1+01101+00551102111ADDAY101061AY201061GA1001+999999999GF100991001001999999001001GJ104749IA1019KA1240M+02101KA2240N+01021MA1999999096301MD1210081+0651MW1051REMSYN106AAXX  26061 76393 31910 00000 10110 20055 39630 40211 52008 70500 90550 333 10210 20102 30/// 55079 58065;
0195763930999992011012615004+25733-100300FM-12+051599999V0200601N001012200019N0010001N1+00941-00091102331ADDAY101031AY201031GF102991001001999999001091IA1019MA1999999096401MD1210081+0151MW1051REMSYN100AAXX  26151 76393 31910 20601 10094 21009 39640 40233 52008 70500 80009 91450 333 30/// 56005 58015;
0217763930999992011012621004+25733-100300FM-12+051599999V0201101N005010600019N0040001N1+01881+00181101821ADDAY121031AY221031GA1081+060001001GF108991001001999999001011IA1019MA1999999095971MD1710351+0051MW1051REMSYN106AAXX  26211 76393 31940 81105 10188 20018 39597 40182 57035 70522 80001 92050 333 30/// 56008 58005 88070;
0233763930999992011012700004+25733-100300FM-12+051599999V0201201N003012200019N0040001N1+01761+00211101731ADDAY121061AY221061GF104991001001999999001011IA1019KA1120M+02001KA2180N+00761MA1999999095931MD1710041-0051MW1041REMSYN112AAXX  27001 76393 31940 41203 10176 20021 39593 40173 57004 70422 80001 92350 333 10200 20076 30/// 50571 59005;
0199763930999992011012703004+25733-100300FM-12+051599999V0201101N002012200019N0010001N1+01501+00461101941ADDAY101031AY201031GA1001+999999999GF100991001001999999001001IA1019MA1999999096151MD1210221-0071MW1051REMSYN088AAXX  27031 76393 31910 01102 10150 20046 39615 40194 52022 70500 90250 333 30/// 59007;
0253763930999992011012706004+25733-100300FM-12+051599999V0201101N003012200019N0010001N1+01181+00571102121ADDAY121061AY221061GF104991041051008001001001GJ105469IA1019KA1240M+02001KA2240N+00761MA1999999096321MD1210171+0021MW1051REMSYN124AAXX  27061 76393 31510 41103 10118 20057 39632 40212 52017 70522 84500 90550 333 10200 20076 30/// 55091 56300 58002 84625;
0217763930999992011012715004+25733-100300FM-12+051599999V0209999C000010027019N0005001N1+01101+00881102551ADDAY121031AY221031GA1081+002701071GF108991081071002501999999IA1019MA1999999096641MD1210181+0241MW1051REMSYN106AAXX  27151 76393 31305 80700 10110 20088 39664 40255 52018 70522 887// 91450 333 30/// 561// 58024 88709;
0217763930999992011012721004+25733-100300FM-12+051599999V0201701N001010060019N0005001N1+01481+00991102291ADDAY121031AY221031GA1081+006001071GF108991081071008001999999IA1019MA1999999096411MD1710221+0441MW1501REMSYN106AAXX  27211 76393 31505 81701 10148 20099 39641 40229 57022 75022 887// 92050 333 30/// 568// 58044 88720;
0281763930999992011012800004+25733-100300FM-12+051599999V0201101N003019999999N0005001N1+01401+01021102191ADDAA124999929AY121061AY221061GF107991999051004501999999IA1019KA1120M+01561KA2180N+01061MA1999999096331MD1710081+0401MW1051REMSYN130AAXX  28001 76393 31405 71103 10140 20102 39633 40219 57008 70522 885// 92350 333 10156 20106 30/// 50201 568// 58040 79999 88615;EQDQ01+000082SCOTLC
0217763930999992011012803004+25733-100300FM-12+051599999V0201101N001010039019N0008001N1+01301+00981102321ADDAY121031AY221031GA1061+003901061GF106991061051004501001001IA1019MA1999999096451MD1210121+0301MW1051REMSYN106AAXX  28031 76393 31408 61101 10130 20098 39645 40232 52012 70522 86500 90250 333 30/// 56800 58030 86613;
0253763930999992011012806004+25733-100300FM-12+051599999V0209999C000019999999N0008001N1+01161+00981102341ADDAY121061AY221061GF108991081001999999021999GJ100069IA1019KA1240M+01561KA2240N+01061MA1999999096471MD1210021+0151MW1051REMSYN124AAXX  28061 76393 31908 80000 10116 20098 39647 40234 52002 70522 8802/ 90550 333 10156 20106 30/// 55001 5605/ 58015 88460;
0217763930999992011012815004+25733-100300FM-12+051599999V0200601N001010030019N0005001N1+01181+00931102531ADDAY121031AY221031GA1061+003001071GF106991061071004501999999IA1019MA1999999096441MD1210121-0201MW1051REMSYN106AAXX  28151 76393 31405 60601 10118 20093 39644 40253 52012 70522 867// 91450 333 30/// 561// 59020 86710;
0233763930999992011012818004+25733-100300FM-12+051599999V0200601N001012200019N0003001N1+01881+01071102221ADDAY141061AY241061GF101991011001999999021001IA1019KA1120M+01941KA2240N+01061MA1999999096351MD1710091-0281MW1051REMSYN112AAXX  28181 76393 31903 10601 10188 20107 39635 40222 57009 70544 81020 91750 333 10194 20106 30/// 56030 59028;
0217763930999992011012821004+25733-100300FM-12+051599999V0200601N002010600019N0005001N1+02181+00841101851ADDAY121031AY221031GA1081+060001001GF108991001001999999001011IA1019MA1999999096041MD1710311-0531MW1051REMSYN106AAXX  28211 76393 31905 80602 10218 20084 39604 40185 57031 70522 80001 92050 333 30/// 56007 59053 88070;
0199763930999992011013003004+25733-100300FM-12+051599999V0203601N002012200019N0010001N1+02061+01251101221ADDAY101031AY201031GA1001+999999999GF100991001001999999001001IA1019MA1999999095591MD1210141+9999MW1051REMSYN088AAXX  30031 76393 31910 03602 10206 20125 39559 40122 52014 70500 90250 333 30/// 58///;
0243763930999992011013006004+25733-100300FM-12+051599999V0209999C000012200019N0010001N1+01841+01361101331ADDAY101061AY201061GA1001+999999999GF100991001001999999001001IA1019KA1240M+02741KA2240N+01451MA1999999095661MD1210071+9999MW1051REMSYN106AAXX  30061 76393 31910 00000 10184 20136 39566 40133 52007 70500 90550 333 10274 20145 30/// 55/// 58///;
0195763930999992011013015004+25733-100300FM-12+051599999V0202401N003012200019N0005001N1+01921+00961101671ADDAY101031AY201031GF102991001001999999001011IA1019MA1999999095911MD1210171+9999MW1051REMSYN100AAXX  30151 76393 31905 22403 10192 20096 39591 40167 52017 70500 80001 91450 333 30/// 56005 58///;
0255763930999992011013018004+25733-100300FM-12+051599999V0203501N003010600019N0020001N1+02581+00541101631ADDAY121061AY221061GA1081+060001001GF108991001001999999001011IA1019KA1120M+02661KA2240N+01441MA1999999095901MD1710011+9999MW1051REMSYN118AAXX  30181 76393 31920 83503 10258 20054 39590 40163 57001 70522 80001 91745 333 10266 20144 30/// 56005 58/// 88070;
0245763930999992011013100004+25733-100300FM-12+051599999V0202001N002012200019N0030001N1+02661+00891101161ADDAY101061AY201061GF102991001001999999001021IA1019KA1120M+03001KA2180N+01441MA1999999095541MD1999999+0091MW1051REMSYN124AAXX  31001 76393 31930 22002 10266 20089 39554 40116 5//// 70500 80002 92355 333 10300 20144 30/// 50471 56005 58009 70000;
0199763930999992011013103004+25733-100300FM-12+051599999V0203001N001012200019N0010001N1+02161+01191101271ADDAY101031AY201031GA1001+999999999GF100991001001999999001001IA1019MA1999999095691MD1210151+0101MW1051REMSYN088AAXX  31031 76393 31910 03001 10216 20119 39569 40127 52015 70500 90250 333 30/// 58010;
0251763930999992011013106004+25733-100300FM-12+051599999V0202301N001012200019N0010001N1+01901+01181101351ADDAY101061AY201061GA1001+999999999GF100991001001999999001001GJ105529IA1019KA1240M+03001KA2240N+01441MA1999999095741MD1210051+0081MW1051REMSYN106AAXX  31061 76393 31910 02301 10190 20118 39574 40135 52005 70500 90550 333 10300 20144 30/// 55092 58008;
0195763930999992011013115004+25733-100300FM-12+051599999V0201901N001012200019N0003001N1+01761+00671101541ADDAY101031AY201031GF103991001001999999001011IA1019MA1999999095611MD1210021-0301MW1051REMSYN100AAXX  31151 76393 31903 31901 10176 20067 39561 40154 52002 70500 80001 91450 333 30/// 56007 59030;
0255763930999992011013118004+25733-100300FM-12+051599999V0202801N002010600019N0003001N1+02401+01091101121ADDAY121061AY221061GA1081+060001001GF108991001001999999001011IA1019KA1120M+02541KA2240N+01361MA1999999095431MD1710181-0471MW1051REMSYN118AAXX  31181 76393 31903 82802 10240 20109 39543 40112 57018 70522 80001 91450 333 10254 20136 30/// 56007 59047 88070;
0217763930999992011013121004+25733-100300FM-12+051599999V0200601N002019999999N0010001N1+02821+01081100611ADDAY121031AY221031GA1041+030001041GF108991041001999999021011IA1019MA1999999094971MD1710371+9999MW1051REMSYN106AAXX  31211 76393 31910 80602 10282 20108 39497 40061 57037 70522 84021 92050 333 30/// 56077 58/// 84460;
0262763930999992011020100004+25733-100300FM-12+051599999V0201101N003019999999N0010001N1+02621+01141100421ADDAA124000091AY121061AY221061GF108991061001999999011011IA1019KA1120M+02941KA2180N+01361MA1999999094851MD1710121-0691MW1051REMSYN130AAXX  01001 76393 31910 81103 10262 20114 39485 40042 57012 70522 86011 92350 333 10294 20136 30/// 50521 56077 59069 70000 86460;
0217763930999992011020103004+25733-100300FM-12+051599999V0200601N002012200019N0010001N1+02201+01451100381ADDAY101031AY201031GA1041+030001041GF104991041001999999011001IA1019MA1999999094841MD1710011-0851MW1051REMSYN106AAXX  01031 76393 31910 40602 10220 20145 39484 40038 57001 70500 84010 90250 333 30/// 56070 59085 84460;
0253763930999992011020106004+25733-100300FM-12+051599999V0200701N001010042019N0010001N1+01881+01541100391ADDAY121061AY221061GF105991051051004501001001GJ104749IA1019KA1240M+02941KA2240N+01361MA1999999094841MD1410001-0901MW1051REMSYN124AAXX  01061 76393 31410 50701 10188 20154 39484 40039 54000 70522 85500 90550 333 10294 20136 30/// 55079 56700 59090 85614;
0236763930999992011020115004+25733-100300FM-12+051599999V0203501N002010600019N0005001N1+01341+00391101271ADDAY121031AY221031GA1081+060001001GF108991001001999999001011IA1019MA1999999095541MD1210562-0071MW1051REMSYN106AAXX  01151 76393 31905 83502 10134 20039 39554 40127 52056 70522 80001 91450 333 30/// 56008 59007 88070;EQDQ01+000562APC3  
0255763930999992011020118004+25733-100300FM-12+051599999V0203601N001010600019N0010001N1+01921+00301101431ADDAY121061AY221061GA1081+060001001GF108991001001999999001011IA1019KA1120M+01981KA2240N+01341MA1999999095701MD1210161+0271MW1051REMSYN118AAXX  01181 76393 31910 83601 10192 20030 39570 40143 52016 70522 80001 91750 333 10198 20134 30/// 56007 58027 88070;
0217763930999992011020121004+25733-100300FM-12+051599999V0200901N005010600019N0010001N1+02181+00441101031ADDAY121031AY221031GA1081+060001001GF108991001001999999001011IA1019MA1999999095321MD1710381+0351MW1051REMSYN106AAXX  01211 76393 31910 80905 10218 20044 39532 40103 57038 70522 80001 92050 333 30/// 56007 58035 88070;
0262763930999992011020200004+25733-100300FM-12+051599999V0201201N006019999999N0010001N1+01581+00271101391ADDAA124000091AY121061AY221061GF108991041001999999011011IA1019KA1120M+02301KA2180N+01341MA1999999095661MD1210251+0821MW1051REMSYN130AAXX  02001 76393 31910 81206 10158 20027 39566 40139 52025 70522 84011 92345 333 10230 20134 30/// 50461 56077 58082 70000 84460;
0217763930999992011020203004+25733-100300FM-12+051599999V0201201N004012200019N0010001N1+01181+00071101821ADDAY101031AY201031GA1031+030001041GF103991031001999999021001IA1019MA1999999096051MD1210391+1211MW1051REMSYN106AAXX  02031 76393 31910 31204 10118 20007 39605 40182 52039 70500 83020 90250 333 30/// 56070 58121 83460;
0253763930999992011020206004+25733-100300FM-12+051599999V0203201N004019999999N0010001N1+00721-00301102161ADDAY121061AY221061GF108991081001999999021001GJ104509IA1019KA1240M+02301KA2240N+00721MA1999999096331MD1210281+1491MW1051REMSYN124AAXX  02061 76393 31910 83204 10072 21030 39633 40216 52028 70522 88020 90550 333 10230 20072 30/// 55075 56070 58149 88460;
0284763930999992011020312004+25733-100300FM-12+051599999V0203601N003010300019N0005001N1-00301-01121103161ADDAA124000091AY121061AY221061GA1081+030001031GF108991081001999999071999IA1099IA2999-00489KA1240M-00161KA2120N-00301MA1999999096941MD1710061+9999MW1051REMSYN124AAXX  03121 76393 31905 83603 11030 21112 39694 40316 57006 70522 8807/ 91145 333 11016 21030 31048 5608/ 58/// 70000 88360;
0255763930999992011020318004+25733-100300FM-12+051599999V0203501N003010300019N0010001N1-00041-00811103171ADDAY121061AY221061GA1081+030001041GF108991081001999999071999IA1019KA1120M-00021KA2240N-00301MA1999999096921MD1710131-0061MW1051REMSYN118AAXX  03181 76393 31910 83503 11004 21081 39692 40317 57013 70522 8807/ 91750 333 11002 21030 30/// 56080 59006 88460;
0217763930999992011020321004+25733-100300FM-12+051599999V0200501N002010300019N0020001N1+00101-00311102711ADDAY111031AY211031GA1051+030001031GF105991051001999999071001IA1019MA1999999096511MD1710411-0211MW1051REMSYN106AAXX  03211 76393 31920 50502 10010 21031 39651 40271 57041 70511 85070 92050 333 30/// 56070 59021 85360;
0217763930999992011020403004+25733-100300FM-12+051599999V0200401N002010300019N0010001N1-00301-00871102931ADDAY121031AY221031GA1081+030001031GF108991081001999999071999IA1149MA1999999096741MD1210281-0221MW1051REMSYN106AAXX  04031 76393 31910 80402 11030 21087 39674 40293 52028 70522 8807/ 90250 333 34/// 5608/ 59022 88360;
0285763930999992011020412004+25733-100300FM-12+051599999V0203601N002012200019N0005001N1-00381-01141102971ADDAA124000091AY101061AY201061GA1001+999999999GF100991001001999999001001IA1099IA2999-00509KA1240M+00181KA2120N-00381MA1999999096721MD1710011-0221MW1051REMSYN106AAXX  04121 76393 31905 03602 11038 21114 39672 40297 57001 70500 91145 333 10018 21038 31050 59022 70000;EQDQ01  00002PRCP24
0237763930999992011020418004+25733-100300FM-12+051599999V0201201N001012200019N0010001N1+00741-01521102791ADDAY101061AY201061GA1001+999999999GF100991001001999999001001IA1019KA1120M+00801KA2240N-00381MA1999999096611MD1710181-0311MW1051REMSYN100AAXX  04181 76393 31910 01201 10074 21152 39661 40279 57018 70500 91750 333 10080 21038 30/// 59031;
0199763930999992011020421004+25733-100300FM-12+051599999V0202601N001012200019N0010001N1+01241-00561102211ADDAY101031AY201031GA1001+999999999GF100991001001999999001001IA1019MA1999999096121MD1710491-0391MW1051REMSYN088AAXX  04211 76393 31910 02601 10124 21056 39612 40221 57049 70500 92050 333 30/// 59039;
0279763930999992011020500004+25733-100300FM-12+051599999V0200601N003012200019N0040001N1+01161-00831102081ADDAA124000091AY101061AY201061GA1001+999999999GF100991001001999999001001IA1019KA1120M+01361KA2180N-00381MA1999999096091MD1710031-0371MW1041REMSYN112AAXX  05001 76393 31940 00603 10116 21083 39609 40208 57003 70400 92345 333 10136 21038 30/// 50251 59037 70000;EQDQ01  00002PRCP24
0171763930999992011020503004+25733-100300FM-12+051599999V0200901N003012200019N0010001N1+00581-00531102281ADDGA1001+999999999GF100991001001999999001001IA1019MA1999999096321MD1210231-0421REMSYN082AAXX  05031 76393 32910 00903 10058 21053 39632 40228 52023 90245 333 30/// 59042;
0259763930999992011020506004+25733-100300FM-12+051599999V0209999C000012200019N0010001N1+00421-00611102341ADDAA124000091GA1001+999999999GF100991001001999999001001GJ105589IA1019KA1240M+01361KA2240N-00381MA1999999096371MD1210051-0441REMSYN106AAXX  05061 76393 32910 00000 10042 21061 39637 40234 52005 90545 333 10136 21038 30/// 55093 59044 70000;EQDQ01  00002PRCP24
0171763930999992011020509004+25733-100300FM-12+051599999V0201801N001012200019N0005001N1+00281-00691102261ADDGA1001+999999999GF100991001001999999001001IA1019MA1999999096261MD1710211+0471REMSYN082AAXX  05091 76393 32905 01801 10028 21069 39626 40226 57021 90845 333 30/// 58047;
0257763930999992011020512004+25733-100300FM-12+051599999V0202301N001012200019N0005001N1+00321-00861102191ADDAA124000091GA1001+999999999GF100991001001999999001001IA1019IA2999+00169KA1240M+01361KA2120N+00281MA1999999096141MD1710121-0581REMSYN100AAXX  05121 76393 32905 02301 10032 21086 39614 40219 57012 91145 333 10136 20028 30016 59058 70000;EQDQ01  00002PRCP24
0199763930999992011020515004+25733-100300FM-12+051599999V0202801N001012200019N0005001N1+00741-00791102221ADDAY101031AY201031GA1001+999999999GF100991001001999999001001IA1019MA1999999096151MD1210011-0641MW1051REMSYN088AAXX  05151 76393 31905 02801 10074 21079 39615 40222 52001 70500 91450 333 30/// 59064;
0237763930999992011020518004+25733-100300FM-12+051599999V0200901N002012200019N0005001N1+01501-00631101891ADDAY101061AY201061GA1001+999999999GF100991001001999999001001IA1019KA1120M+01601KA2240N+00281MA1999999095881MD1710271-0731MW1051REMSYN100AAXX  05181 76393 31905 00902 10150 21063 39588 40189 57027 70500 91750 333 10160 20028 30/// 59073;
0245763930999992011020600004+25733-100300FM-12+051599999V0201101N003012200019N0030001N1+01841-00131101101ADDAY101061AY201061GF101991001001999999001011IA1019KA1120M+02021KA2180N+00281MA1999999095311MD1999999-0781MW1051REMSYN124AAXX  06001 76393 31930 11103 10184 21013 39531 40110 5//// 70500 80001 92345 333 10202 20028 30/// 50491 56005 59078 70000;
0199763930999992011020603004+25733-100300FM-12+051599999V0209999C000012200019N0010001N1+01361-00071101111ADDAY101031AY201031GA1001+999999999GF100991001001999999001001IA1019MA1999999095361MD1210051-0961MW1051REMSYN088AAXX  06031 76393 31910 00000 10136 21007 39536 40111 52005 70500 90250 333 30/// 59096;
0251763930999992011020606004+25733-100300FM-12+051599999V0209999C000012200019N0010001N1+00981+00011101111ADDAY101061AY201061GA1001+999999999GF100991001001999999001001GJ105589IA1019KA1240M+02021KA2240N+00281MA1999999095351MD1710011-1021MW1051REMSYN106AAXX  06061 76393 31910 00000 10098 20001 39535 40111 57001 70500 90550 333 10202 20028 30/// 55093 59102;
0199763930999992011020615004+25733-100300FM-12+051599999V0202401N002012200019N0005001N1+01341-00401101431ADDAY151031AY201031GA1001+999999999GF100991001001999999001001IA1019MA1999999095461MD1210211-0691MW1051REMSYN088AAXX  06151 76393 31905 02402 10134 21040 39546 40143 52021 70550 91450 333 30/// 59069;
0237763930999992011020618004+25733-100300FM-12+051599999V0201101N002012200019N0005001N1+02321-00311101161ADDAY101061AY201061GA1001+999999999GF100991001001999999001001IA1019KA1120M+02421KA2240N+00641MA1999999095371MD1710091-0511MW1051REMSYN100AAXX  06181 76393 31905 01102 10232 21031 39537 40116 57009 70500 91750 333 10242 20064 30/// 59051;
0199763930999992011020703004+25733-100300FM-12+051599999V0202701N001012200019N0010001N1+02021+00241101251ADDAY101031AY201031GA1001+999999999GF100991001001999999001001IA1019MA1999999095591MD1210321+0231MW1051REMSYN088AAXX  07031 76393 31910 02701 10202 20024 39559 40125 52032 70500 90255 333 30/// 58023;
0251763930999992011020706004+25733-100300FM-12+051599999V0202101N001012200019N0010001N1+01621+00381101741ADDAY101061AY201061GA1001+999999999GF100991001001999999001001GJ105589IA1019KA1240M+03021KA2240N+00641MA1999999096031MD1210441+0681MW1051REMSYN106AAXX  07061 76393 31910 02101 10162 20038 39603 40174 52044 70500 90555 333 10302 20064 30/// 55093 58068;
0209763930999992011020712004+25733-100300FM-12+051599999V0200901N001012200019N0010001N1+00921-00011102671ADDGA1001+999999999GF100991001001999999001001IA1019KA1240M+03001KA2120N+00901MA1999999096721MD1210121+1471REMSYN094AAXX  07121 76393 32910 00901 10092 21001 39672 40267 52012 91150 333 10300 20090 30076 58147;
0199763930999992011020715004+25733-100300FM-12+051599999V0200901N002012200019N0010001N1+00921+00091102881ADDAY101031AY201031GA1001+999999999GF100991001001999999001001IA1019MA1999999096981MD1210261+1521MW1051REMSYN088AAXX  07151 76393 31910 00902 10092 20009 39698 40288 52026 70500 91450 333 30/// 58152;
0237763930999992011020718004+25733-100300FM-12+051599999V0201301N001012200019N0020001N1+01361-00011102831ADDAY101061AY201061GA1001+999999999GF100991001001999999001001IA1019KA1120M+01641KA2240N+00701MA1999999096911MD1710071+1541MW1051REMSYN100AAXX  07181 76393 31920 01301 10136 21001 39691 40283 57007 70500 91750 333 10164 20070 30/// 58154;
0171763930999992011020721004+25733-100300FM-12+051599999V0201401N001012200019N0030001N1+01861+00081102361ADDGA1001+999999999GF100991001001999999001001IA1019MA1999999096481MD1710431+9999REMSYN082AAXX  07211 76393 32930 01401 10186 20008 39648 40236 57043 92045 333 30/// 58///;
0279763930999992011020800004+25733-100300FM-12+051599999V0201101N003012200019N0030001N1+01721+00031102201ADDAA124000091AY101061AY201061GA1001+999999999GF100991001001999999001001IA1019KA1120M+01961KA2180N+00701MA1999999096351MD1710131+1081MW1041REMSYN112AAXX  08001 76393 31930 01103 10172 20003 39635 40220 57013 70400 92345 333 10196 20070 30/// 50441 58108 70000;EQDQ01  00002PRCP24
0199763930999992011020803004+25733-100300FM-12+051599999V0203001N001012200019N0010001N1+01361+00161102211ADDAY101031AY201031GA1001+999999999GF100991001001999999001001IA1019MA1999999096381MD1210031+0791MW1051REMSYN088AAXX  08031 76393 31910 03001 10136 20016 39638 40221 52003 70500 90255 333 30/// 58079;
0251763930999992011020806004+25733-100300FM-12+051599999V0201401N001012200019N0010001N1+01181+00171102091ADDAY101061AY201061GA1001+999999999GF100991001001999999001001GJ105589IA1019KA1240M+01961KA2240N+00701MA1999999096281MD1710101+0251MW1051REMSYN106AAXX  08061 76393 31910 01401 10118 20017 39628 40209 57010 70500 90550 333 10196 20070 30/// 55093 58025;
0255763930999992011020818004+25733-100300FM-12+051599999V0200801N001010600019N0010001N1+01561+00351101641ADDAY121061AY221061GA1051+060001001GF105991001001999999001011IA1019KA1120M+01621KA2240N+00601MA1999999095751MD1710091-1161MW1051REMSYN118AAXX  08181 76393 31910 50801 10156 20035 39575 40164 57009 70522 80001 91755 333 10162 20060 30/// 56005 59116 85070;
0195763930999992011020821004+25733-100300FM-12+051599999V0201101N003012200019N0030001N1+02141+00381101191ADDAY121031AY221031GF104991001001999999001011IA1019MA1999999095371MD1710381-1111MW1041REMSYN100AAXX  08211 76393 31930 41103 10214 20038 39537 40119 57038 70422 80001 92050 333 30/// 56005 59111;
0199763930999992011020903004+25733-100300FM-12+051599999V0203001N001012200019N0010001N1+01861+00621100931ADDAY101031AY201031GA1001+999999999GF100991001001999999001001IA1019MA1999999095251MD1210051-1131MW1051REMSYN088AAXX  09031 76393 31910 03001 10186 20062 39525 40093 52005 70500 90250 333 30/// 59113;
0251763930999992011020906004+25733-100300FM-12+051599999V0201101N002012200019N0010001N1+01421+01041100961ADDAY101061AY201061GA1001+999999999GF100991001001999999001001GJ105709IA1019KA1240M+02341KA2240N+00601MA1999999095281MD1210031-0101MW1051REMSYN106AAXX  09061 76393 31910 01102 10142 20104 39528 40096 52003 70500 90550 333 10234 20060 30/// 55095 59010;
0214763930999992011020915004+25733-100300FM-12+051599999V0200401N003019999999N0005001N1+01221+00701101711ADDGA1021+027001031GF108991021001999999081011IA1019MA1999999095881MD1210602+0041REMSYN106AAXX  09151 76393 32905 80403 10122 20070 39588 40171 52060 82081 91450 333 30/// 56207 58004 82359 86170;EQDQ01+000602APC3  
0255763930999992011020918004+25733-100300FM-12+051599999V0203601N003010360019N0003001N1+01261+00311102061ADDAY121061AY221061GA1021+011701061GF107991021051012501031081IA1019KA1120M+01361KA2240N+01061MA1999999096191MD1210311+0441MW1061REMSYN118AAXX  09181 76393 31603 73603 10126 20031 39619 40206 52031 70622 82538 91750 333 10136 20106 30/// 56277 58044 82639;
0217763930999992011020921004+25733-100300FM-12+051599999V0200401N002010360019N0005001N1+01121-00211101941ADDAY121031AY221031GA1021+011401081GF106991021081012501031021IA1019MA1999999096061MD1710131+0291MW1061REMSYN106AAXX  09211 76393 31605 60402 10112 21021 39606 40194 57013 70622 82832 92045 333 30/// 56277 58029 82838;
0262763930999992011021000004+25733-100300FM-12+051599999V0203601N002019999999N0005001N1+00821-00321102161ADDAA124000091AY121061AY221061GF107991071001999999021999IA1019KA1120M+01361KA2180N+00821MA1999999096251MD1210191+1051MW1051REMSYN130AAXX  10001 76393 31905 73602 10082 21032 39625 40216 52019 70522 8702/ 92350 333 10136 20082 30/// 50291 56070 58105 70000 87460;
0217763930999992011021003004+25733-100300FM-12+051599999V0200201N003010330019N0010001N1+00621-00291102641ADDAY121031AY221031GA1081+033001031GF108991081001999999041999IA1019MA1999999096681MD1210431+1431MW1051REMSYN106AAXX  10031 76393 31910 80203 10062 21029 39668 40264 52043 70522 8804/ 90250 333 30/// 56070 58143 88361;
0253763930999992011021006004+25733-100300FM-12+051599999V0203401N002019999999N0010001N1+00521-00611102861ADDAY121061AY221061GF108991081001999999021999GJ102709IA1019KA1240M+01361KA2240N+00521MA1999999096851MD1210171+1571MW1051REMSYN124AAXX  10061 76393 31910 83402 10052 21061 39685 40286 52017 70522 8802/ 90550 333 10136 20052 30/// 55045 5607/ 58157 88465;
0217763930999992011021015004+25733-100300FM-12+051599999V0203601N001010330019N0030001N1+00161-01161102921ADDAY121031AY221031GA1071+033001041GF107991071001999999021001IA1019MA1999999096821MD1210041+0941MW1051REMSYN106AAXX  10151 76393 31930 73601 10016 21116 39682 40292 52004 70522 87020 91450 333 30/// 56010 58094 87461;
0255763930999992011021018004+25733-100300FM-12+051599999V0200901N001010300019N0020001N1+00521-00771102851ADDAY121061AY221061GA1081+030001031GF108991081001999999071999IA1019KA1120M+00621KA2240N+00241MA1999999096751MD1710071+0561MW1051REMSYN118AAXX  10181 76393 31920 80901 10052 21077 39675 40285 57007 70522 8807/ 91750 333 10062 20024 30/// 5601/ 58056 88360;
0195763930999992011021021004+25733-100300FM-12+051599999V0200501N003012200019N0030001N1+01011-00821102351ADDAY121031AY221031GF102991021001999999031001IA1019MA1999999096311MD1710441+0251MW1051REMSYN100AAXX  10211 76393 31930 20503 10101 21082 39631 40235 57044 70522 82030 92345 333 30/// 56030 58025;
0279763930999992011021100004+25733-100300FM-12+051599999V0201101N005012200019N0030001N1+01041-00571102191ADDAA124000091AY101061AY201061GA1001+999999999GF100991001001999999001001IA1019KA1120M+01201KA2180N+00141MA1999999096191MD1310121+0931MW1041REMSYN112AAXX  11001 76393 31930 01105 10104 21057 39619 40219 53012 70400 92345 333 10120 20014 30/// 50381 58093 70000;EQDQ01  00002PRCP24
0199763930999992011021103004+25733-100300FM-12+051599999V0201101N002012200019N0010001N1+00781-00561102321ADDAY101031AY201031GA1001+999999999GF100991001001999999001001IA1019MA1999999096341MD1210151-0341MW1051REMSYN088AAXX  11031 76393 31910 01102 10078 21056 39634 40232 52015 70500 90250 333 30/// 59034;
0251763930999992011021106004+25733-100300FM-12+051599999V0201101N003012200019N0010001N1+00561-00631102411ADDAY101061AY201061GA1001+999999999GF100991001001999999001001GJ102649IA1019KA1240M+01201KA2240N+00141MA1999999096441MD1210101-0411MW1051REMSYN106AAXX  11061 76393 31910 01103 10056 21063 39644 40241 52010 70500 90550 333 10120 20014 30/// 55044 59041;
0257763930999992011021112004+25733-100300FM-12+051599999V0209999C000012200019N0020001N1+00221-00791102531ADDAA124000091GA1001+999999999GF100991001001999999001001IA1019IA2999+00029KA1240M+01181KA2120N+00101MA1999999096511MD1210111-0271REMSYN100AAXX  11121 76393 32920 02000 10022 21079 39651 40253 52011 91150 333 10118 20010 30002 59027 70000;EQDQ01  00002PRCP24
0199763930999992011021115004+25733-100300FM-12+051599999V0209999C000012200019N0005001N1+00581-00671102831ADDAY101031AY201031GA1001+999999999GF100991001001999999001001IA1019MA1999999096751MD1210241-0071MW1051REMSYN088AAXX  11151 76393 31905 00300 10058 21067 39675 40283 52024 70500 91450 333 30/// 59007;
0225763930999992011021118004+25733-100300FM-12+051599999V0200601N002012200019N0050001N1+01081-00301102821ADDAY101061AY201061GA1001+999999999GF100991001001999999001001KA1120M+01231KA2240N+00101MA1999999096771MD1210021+0021MW1051REMSYN094AAXX  11181 76393 31950 00602 10108 21030 39677 40282 52002 70500 91750 333 10123 20010 58002;
0199763930999992011021121004+25733-100300FM-12+051599999V0201201N002012200019N0010001N1+01571-00391102471ADDAY101031AY201031GA1001+999999999GF100991001001999999001001IA1019MA1999999096481MD1710291+0171MW1051REMSYN088AAXX  11211 76393 31910 01202 10157 21039 39648 40247 57029 70500 92345 333 30/// 58017;
0239763930999992011021200004+25733-100300FM-12+051599999V0200901N003012200019N0040001N1+01481-00591102481ADDAY101061AY201061GF102991001001999999001011IA1019KA1120M+01681KA2180N+00101MA1999999096551MD1310071+9999MW1041REMSYN118AAXX  12001 76393 31940 20903 10148 21059 39655 40248 53007 70400 80001 92345 333 10168 20010 30/// 50391 56005 58036;
0217763930999992011021215004+25733-100300FM-12+051599999V0209999C000010300019N0005001N1+00741-00081103441ADDAY121031AY221031GA1061+030001031GF106991061001999999041001IA1019MA1999999097351MD1210261+0601MW1051REMSYN106AAXX  12151 76393 31905 63400 10074 21008 39735 40344 52026 70522 86040 91450 333 30/// 56070 58060 86360;
0255763930999992011021218004+25733-100300FM-12+051599999V0200501N001010330019N0005001N1+01401+00111103351ADDAY121061AY221061GA1051+033001031GF105991051001999999031001IA1019KA1120M+01501KA2240N+00601MA1999999097341MD1210011+0571MW1051REMSYN118AAXX  12181 76393 31905 50501 10140 20011 39734 40335 52001 70522 85030 91750 333 10150 20060 30/// 56070 58057 85361;
0217763930999992011021221004+25733-100300FM-12+051599999V0201401N003012200019N0020001N1+01821+00201102961ADDAY101031AY201031GA1041+045001031GF104991041001999999041001IA1019MA1999999097011MD1710331+0531MW1051REMSYN106AAXX  12211 76393 31920 41403 10182 20020 39701 40296 57033 70500 84040 92055 333 30/// 56070 58053 84365;
0279763930999992011021300004+25733-100300FM-12+051599999V0201201N003012200019N0020001N1+01741+00001102861ADDAA124000091AY101061AY201061GA1001+999999999GF100991001001999999001001IA1019KA1120M+01921KA2180N+00601MA1999999096961MD1710051+0411MW1051REMSYN112AAXX  13001 76393 31920 01203 10174 20000 39696 40286 57005 70500 92355 333 10192 20060 30/// 50581 58041 70000;EQDQ01  00002PRCP24
0199763930999992011021315004+25733-100300FM-12+051599999V0209999C000012200019N0005001N1+01141+00171102911ADDAY101031AY201031GA1001+999999999GF100991001001999999001001IA1019MA1999999096881MD1210061-0531MW1051REMSYN088AAXX  13151 76393 31905 01800 10114 20017 39688 40291 52006 70500 91450 333 30/// 59053;
0237763930999992011021318004+25733-100300FM-12+051599999V0201501N001012200019N0005001N1+01821+00361102671ADDAY101061AY201061GA1001+999999999GF100991001001999999001001IA1019KA1120M+01981KA2240N+00761MA1999999096751MD1710131-0591MW1051REMSYN100AAXX  13181 76393 31905 01501 10182 20036 39675 40267 57013 70500 91750 333 10198 20076 30/// 59059;
0199763930999992011021321004+25733-100300FM-12+051599999V0201201N002012200019N0010001N1+02321+00341102161ADDAY101031AY201031GA1001+999999999GF100991001001999999001001IA1019MA1999999096321MD1710431-0691MW1051REMSYN088AAXX  13211 76393 31910 01202 10232 20034 39632 40216 57043 70500 92055 333 30/// 59069;
0279763930999992011021400004+25733-100300FM-12+051599999V0201301N004012200019N0030001N1+02321+00611101961ADDAA124000091AY101061AY201061GA1001+999999999GF100991001001999999001001IA1019KA1120M+02561KA2180N+00761MA1999999096201MD1710121-0761MW1051REMSYN112AAXX  14001 76393 31930 01304 10232 20061 39620 40196 57012 70500 92350 333 10256 20076 30/// 50431 59076 70000;EQDQ01  00002PRCP24
0199763930999992011021415004+25733-100300FM-12+051599999V0202701N001012200019N0005001N1+01581+00431102191ADDAY101031AY201031GA1001+999999999GF100991001001999999001001IA1019MA1999999096271MD1210141-0611MW1051REMSYN088AAXX  14151 76393 31905 02701 10158 20043 39627 40219 52014 70500 91450 333 30/// 59061;
0237763930999992011021418004+25733-100300FM-12+051599999V0201101N002012200019N0003001N1+02641+00441102021ADDAY101061AY201061GA1001+999999999GF100991001001999999001001IA1019KA1120M+02801KA2240N+01021MA1999999096221MD1710051-0531MW1061REMSYN100AAXX  14181 76393 31903 01102 10264 20044 39622 40202 57005 70600 91750 333 10280 20102 30/// 59053;
0195763930999992011021421004+25733-100300FM-12+051599999V0201201N003012200019N0020001N1+03101+00361101611ADDAY101031AY201031GF101991011001999999031001IA1019MA1999999095911MD1710311-0411MW1051REMSYN100AAXX  14211 76393 31920 11203 10310 20036 39591 40161 57031 70500 81030 92045 333 30/// 56050 59041;
0245763930999992011021500004+25733-100300FM-12+051599999V0201101N003012200019N0020001N1+02841+00401101511ADDAY101061AY201061GF103991001001999999001081IA1019KA1120M+03161KA2180N+01021MA1999999095901MD1710011-0301MW1041REMSYN124AAXX  15001 76393 31920 31103 10284 20040 39590 40151 57001 70400 80008 92350 333 10316 20102 30/// 50401 56005 59030 70000;
0199763930999992011021503004+25733-100300FM-12+051599999V0201301N002012200019N0010001N1+02401+00961101611ADDAY101031AY201031GA1001+999999999GF100991001001999999001001IA1019MA1999999096031MD1210131+9999MW1051REMSYN088AAXX  15031 76393 31910 01302 10240 20096 39603 40161 52013 70500 90250 333 30/// 58///;
0251763930999992011021506004+25733-100300FM-12+051599999V0200501N002012200019N0010001N1+01801+01131101741ADDAY101061AY201061GA1001+999999999GF100991001001999999001001GJ105709IA1019KA1240M+03161KA2240N+01021MA1999999096151MD1210121+9999MW1051REMSYN106AAXX  15061 76393 31910 00502 10180 20113 39615 40174 52012 70500 90550 333 10316 20102 30/// 55095 58///;
0273763930999992011021512004+25733-100300FM-12+051599999V0209999C000012200019N0010001N1+01421+01221101791ADDAA124000091AY101061AY201061GA1001+999999999GF100991001001999999001001IA1019KA1240M+03161KA2120N+01381MA1999999096051MD1999999-0081MW1051REMSYN106AAXX  15121 76393 31910 00000 10142 20122 39605 40179 5//// 70500 91155 333 10316 20138 30126 59008 70000;EQDQ01  00002PRCP24
0199763930999992011021515004+25733-100300FM-12+051599999V0209999C000012200019N0005001N1+01621+01151101971ADDAY101031AY201031GA1001+999999999GF100991001001999999001001IA1019MA1999999096181MD1210121-0091MW1041REMSYN088AAXX  15151 76393 31905 00000 10162 20115 39618 40197 52012 70400 91450 333 30/// 59009;
0237763930999992011021518004+25733-100300FM-12+051599999V0201101N001012200019N0005001N1+02461+01291101901ADDAY101061AY201061GA1001+999999999GF100991001001999999001001IA1019KA1120M+02541KA2240N+01361MA1999999096171MD1710011-0051MW1041REMSYN100AAXX  15181 76393 31905 01101 10246 20129 39617 40190 57001 70400 91750 333 10254 20136 30/// 59005;
0251763930999992011021600004+25733-100300FM-12+051599999V0201201N005012200019N0040001N1+02781+00791101381ADDAA124000091GA1001+999999999GF100991001001999999001001IA1019KA1120M+02981KA2180N+01361MA1999999095751MD1710061-0151REMSYN106AAXX  16001 76393 32940 01205 10278 20079 39575 40138 57006 92350 333 10298 20136 30/// 50691 59015 70000;EQDQ01  00002PRCP24
0244763930999992011021612004+25733-100300FM-12+051599999V0200501N001010030019N0010001N1+01661+01401101731ADDAA124000091GA1081+003001061GF108991081061004501999999IA1019KA1240M+02981KA2120N+01361MA1999999095811MD1210011-0251REMSYN118AAXX  16121 76393 32410 80501 10166 20140 39581 40173 52001 886// 91150 333 10298 20136 30126 561// 59025 70000 88610;
0217763930999992011021615004+25733-100300FM-12+051599999V0203101N001010039019N0005001N1+01721+01401101831ADDAY121031AY221031GA1081+003901061GF108991081061004501999999IA1019MA1999999095991MD1210181-0191MW1051REMSYN106AAXX  16151 76393 31405 83101 10172 20140 39599 40183 52018 70522 886// 91450 333 30/// 561// 59019 88613;
0237763930999992011021618004+25733-100300FM-12+051599999V0201501N001012200019N0002001N1+02321+01491101611ADDAY141061AY241061GA1001+999999999GF100991001001999999001001IA1019KA1120M+02501KA2240N+01661MA1999999095871MD1710081-0301MW1051REMSYN100AAXX  16181 76393 31902 01501 10232 20149 39587 40161 57008 70544 91750 333 10250 20166 30/// 59030;
0199763930999992011021621004+25733-100300FM-12+051599999V0201201N002012200019N0003001N1+02901+01251101171ADDAY141031AY241031GA1001+999999999GF100991001001999999001001IA1019MA1999999095511MD1710361-0301MW1051REMSYN088AAXX  16211 76393 31903 01202 10290 20125 39551 40117 57036 70544 92045 333 30/// 59030;
0279763930999992011021700004+25733-100300FM-12+051599999V0201101N004012200019N0030001N1+02781+01151100991ADDAA124000091AY101061AY201061GA1001+999999999GF100991001001999999001001IA1019KA1120M+03061KA2180N+01661MA1999999095401MD1710111-0351MW1051REMSYN112AAXX  17001 76393 31930 01104 10278 20115 39540 40099 57011 70500 92345 333 10306 20166 30/// 50571 59035 70000;EQDQ01  00002PRCP24
0199763930999992011021703004+25733-100300FM-12+051599999V0202401N001012200019N0010001N1+02441+01341101111ADDAY101031AY201031GA1001+999999999GF100991001001999999001001IA1019MA1999999095541MD1210141+9999MW1051REMSYN088AAXX  17031 76393 31910 02401 10244 20134 39554 40111 52014 70500 90250 333 30/// 58///;
0251763930999992011021706004+25733-100300FM-12+051599999V0200601N004012200019N0010001N1+01921+01481101171ADDAY101061AY201061GA1001+999999999GF100991001001999999001001GJ103489IA1019KA1240M+03061KA2240N+01661MA1999999095601MD1210061+9999MW1051REMSYN106AAXX  17061 76393 31910 00604 10192 20148 39560 40117 52006 70500 90550 333 10306 20166 30/// 55058 58///;
0217763930999992011021715004+25733-100300FM-12+051599999V0209999C000010036019N0005001N1+01821+01511101331ADDAY121031AY221031GA1081+003601071GF108991081061004501999999IA1019MA1999999095631MD1210141-0321MW1051REMSYN106AAXX  17151 76393 31405 80000 10182 20151 39563 40133 52014 70522 886// 91450 333 30/// 567// 59032 88712;
0233763930999992011021718004+25733-100300FM-12+051599999V0200601N001012200019N0003001N1+02381+01591101331ADDAY141061AY241061GF102991001001999999001041IA1019KA1120M+02541KA2240N+01661MA1999999095621MD1710011-0051MW1051REMSYN112AAXX  17181 76393 31903 20601 10238 20159 39562 40133 57001 70544 80004 91750 333 10254 20166 30/// 56007 59005;
0195763930999992011021721004+25733-100300FM-12+051599999V0201201N002012200019N0003001N1+02971+01511101021ADDAY141031AY241031GF101991001001999999001011IA1019MA1999999095351MD1710271-0161MW1051REMSYN100AAXX  17211 76393 31903 11202 10297 20151 39535 40102 57027 70544 80001 92050 333 30/// 56007 59016;
0245763930999992011021800004+25733-100300FM-12+051599999V0201201N006012200019N0010001N1+02901+01281100941ADDAY101061AY201061GF103991001001999999001011IA1019KA1120M+03061KA2180N+01661MA1999999095351MD1410001-0051MW1051REMSYN124AAXX  18001 76393 31910 31206 10290 20128 39535 40094 54000 70500 80001 92345 333 10306 20166 30/// 50531 56005 59005 70000;
0199763930999992011021803004+25733-100300FM-12+051599999V0203101N002012200019N0010001N1+02581+01481101081ADDAY101031AY201031GA1001+999999999GF100991001001999999001001IA1019MA1999999095521MD1210171-0021MW1051REMSYN088AAXX  18031 76393 31910 03102 10258 20148 39552 40108 52017 70500 90250 333 30/// 59002;
0251763930999992011021806004+25733-100300FM-12+051599999V0200601N002012200019N0010001N1+02101+01411101261ADDAY101061AY201061GA1001+999999999GF100991001001999999001001GJ102889IA1019KA1240M+03061KA2240N+01661MA1999999095701MD1210181+0101MW1051REMSYN106AAXX  18061 76393 31910 00602 10210 20141 39570 40126 52018 70500 90550 333 10306 20166 30/// 55048 58010;
0199763930999992011021809004+25733-100300FM-12+051599999V0200501N001012200019N0010001N1+01821+01571101261ADDAY101031AY201031GA1001+999999999GF100991001001999999001001IA1019MA1999999095661MD1710041+9999MW1051REMSYN088AAXX  18091 76393 31910 00501 10182 20157 39566 40126 57004 70500 90850 333 30/// 58///;
0272763930999992011021812004+25733-100300FM-12+051599999V0200201N001010015019N0005001N1+01701+01571101401ADDAA124000091AY121061AY221061GA1081+001501061GF108991081051001501999999IA1019KA1240M+03061KA2120N+01661MA1999999095741MD1210081+0171MW1051REMSYN124AAXX  18121 76393 31205 80201 10170 20157 39574 40140 52008 70522 885// 91150 333 10306 20166 30152 561// 58017 70000 88605;
0217763930999992011021815004+25733-100300FM-12+051599999V0203501N001010024019N0005001N1+01781+01591101651ADDAY121031AY221031GA1081+002401061GF108991081051002501999999IA1019MA1999999095931MD1210191+0301MW1051REMSYN106AAXX  18151 76393 31305 83501 10178 20159 39593 40165 52019 70522 885// 91450 333 30/// 567// 58030 88608;
0255763930999992011021818004+25733-100300FM-12+051599999V0200601N001012200019N0005001N1+02261+01621101761ADDAY121061AY221061GA1041+007801051GF104991041051002501001001IA1019KA1120M+02351KA2240N+01661MA1999999096011MD1210081+0391MW1051REMSYN118AAXX  18181 76393 31305 40601 10226 20162 39601 40176 52008 70522 84500 91750 333 10235 20166 30/// 56700 58039 84526;
0199763930999992011021821004+25733-100300FM-12+051599999V0200701N002012200019N0005001N1+02681+01671101461ADDAY101031AY201031GA1001+999999999GF100991001001999999001001IA1019MA1999999095771MD1710251+0421MW1051REMSYN088AAXX  18211 76393 31905 00702 10268 20167 39577 40146 57025 70500 92045 333 30/// 58042;
0279763930999992011021900004+25733-100300FM-12+051599999V0201101N006012200019N0010001N1+02841+01431101361ADDAA124000091AY101061AY201061GA1001+999999999GF100991001001999999001001IA1019KA1120M+02941KA2180N+01661MA1999999095741MD1310031+0391MW1051REMSYN112AAXX  19001 76393 31910 01106 10284 20143 39574 40136 53003 70500 92345 333 10294 20166 30/// 50611 58039 70000;EQDQ01  00002PRCP24
0251763930999992011021906004+25733-100300FM-12+051599999V0201101N003012200019N0010001N1+02001+01661101601ADDAY101061AY201061GA1001+999999999GF100991001001999999001001GJ101749IA1019KA1240M+02941KA2240N+01661MA1999999096011MD1210131+0311MW1041REMSYN106AAXX  19061 76393 31910 01103 10200 20166 39601 40160 52013 70400 90545 333 10294 20166 30140 55029 58031;
0217763930999992011021909004+25733-100300FM-12+051599999V0201101N002010009019N0003001N1+01781+01691101781ADDAY121031AY221031GA1081+000901071GF108991081061001501999999IA1019MA1999999095991MD1710021+0331MW1051REMSYN106AAXX  19091 76393 31203 81102 10178 20169 39599 40178 57002 70522 886// 90845 333 30/// 568// 58033 88703;
0255763930999992011021912004+25733-100300FM-12+051599999V0201101N001010009019N0005001N1+01781+01691101741ADDAY121061AY221061GA1081+000901061GF108991081051001501999999IA1019KA1240M+02941KA2120N+01661MA1999999095901MD1710091+0161MW1051REMSYN118AAXX  19121 76393 31205 81101 10178 20169 39590 40174 57009 70522 885// 91150 333 10294 20166 30152 563// 58016 88603;
0217763930999992011021915004+25733-100300FM-12+051599999V0201101N001010024019N0010001N1+01861+01651101831ADDAY141031AY241031GA1081+002401071GF108991081061002501999999IA1019MA1999999096071MD1210171+0141MW1051REMSYN106AAXX  19151 76393 31310 81101 10186 20165 39607 40183 52017 70544 886// 91450 333 30/// 563// 58014 88708;
0255763930999992011021918004+25733-100300FM-12+051599999V0201101N001010090019N0010001N1+02311+01581101751ADDAY141061AY241061GA1071+009001061GF107991071051008001999999IA1019KA1120M+02351KA2240N+01661MA1999999096031MD1010041+0011MW1051REMSYN118AAXX  19181 76393 31510 71101 10231 20158 39603 40175 50004 70544 875// 91750 333 10235 20166 30/// 563// 58001 87630;
0311763930999992011022000004+25733-100300FM-12+051599999V0201301N004012200019N0010001N1+02921+01381999999ADDAA124000091AY101061AY201061GA1001+999999999GF100991001001999999001001IA1019KA1120M+03061KA2180N+01661MA1999999095471MD1999999-0271MW1051REMSYN112AAXX  20001 76393 31910 01304 10292 20138 39547 40444 5//// 70500 92355 333 10306 20166 30/// 50571 59027 70000;EQDQ01+104443APOSLPQ02  00002PRCP24Q03 104443APOSLP
0199763930999992011022003004+25733-100300FM-12+051599999V0201201N003012200019N0010001N1+02561+01561101161ADDAY101031AY201031GA1001+999999999GF100991001001999999001001IA1019MA1999999095571MD1210101+9999MW1051REMSYN088AAXX  20031 76393 31910 01203 10256 20156 39557 40116 52010 70500 90250 333 30/// 58///;
0251763930999992011022006004+25733-100300FM-12+051599999V0201101N003012200019N0010001N1+02061+01501101211ADDAY101061AY201061GA1001+999999999GF100991001001999999001001GJ101449IA1019KA1240M+03061KA2240N+01661MA1999999095621MD1210051-0391MW1051REMSYN106AAXX  20061 76393 31910 01103 10206 20150 39562 40121 52005 70500 90550 333 10306 20166 30/// 55024 59039;
0199763930999992011022009004+25733-100300FM-12+051599999V0201001N003012200019N0010001N1+01641+01421101141ADDAY101031AY201031GA1001+999999999GF100991001001999999001001IA1019MA1999999095441MD1710181-0571MW1041REMSYN088AAXX  20091 76393 31910 01003 10164 20142 39544 40114 57018 70400 90845 333 30/// 59057;
0291763930999992011022012004+25733-100300FM-12+051599999V0200301N001010018019N0010001N1+01601+01441101071ADDAA124000091AY121061AY221061GA1081+001801071GF108991081061001501999999IA1019KA1240M+03061KA2120N+99999MA1999999095401MD1710041-0501MW1041REMSYN124AAXX  20121 76393 31210 80301 10160 20144 39540 40107 57004 70422 886// 91150 333 10306 20166 30148 561// 59050 70000 88706;EQDQ01 +01662ATMN  
0274763930999992011022018004+25733-100300FM-12+051599999V0201101N001012200019N0005001N1+02201+01561101131ADDAY101061AY201061GA1021+007801071GF102991021061008001001001IA1019KA1120M+02261KA2240N+01661MA1999999096011MD1710532-0011MW1051REMSYN118AAXX  20181 76393 31505 21101 10220 20156 39601 40113 57053 70500 82600 91450 333 10226 20166 30/// 56300 59001 82726;EQDQ01+000532APC3  
0193763930999992011022021004+25733-100300FM-12+051599999V0201401N001012200019N0005001N1+03041+01491999999ADDAY141031AY241031GA1001+999999999GF100991001001999999001001IA1019MA1999999094991MD1710421+9999MW1051REMSYN082AAXX  20211 76393 31905 01401 10304 20149 39499 57042 70544 92050 333 30/// 58///;
0279763930999992011022100004+25733-100300FM-12+051599999V0201501N001012200019N0020001N1+03061+01211100411ADDAA124000091AY141061AY241061GA1001+999999999GF100991001001999999001001IA1019KA1120M+03181KA2180N+01661MA1999999094851MD1710141-0621MW1051REMSYN112AAXX  21001 76393 31920 01501 10306 20121 39485 40041 57014 70544 92350 333 10318 20166 30/// 50581 59062 70000;EQDQ01  00002PRCP24
0199763930999992011022103004+25733-100300FM-12+051599999V0209999C000012200019N0010001N1+02661+01201100461ADDAY101031AY201031GA1001+999999999GF100991001001999999001001IA1019MA1999999094941MD1210091-0631MW1051REMSYN088AAXX  21031 76393 31910 00000 10266 20120 39494 40046 52009 70500 90250 333 30/// 59063;
0251763930999992011022106004+25733-100300FM-12+051599999V0200901N001012200019N0010001N1+02181+01431100451ADDAY101061AY201061GA1001+999999999GF100991001001999999001001GJ101449IA1019KA1240M+03181KA2240N+01541MA1999999094941MD1410001-0681MW1051REMSYN106AAXX  21061 76393 31910 00901 10218 20143 39494 40045 54000 70500 90550 333 10318 20154 30/// 55024 59068;
0151763930999992011022115004+25733-100300FM-12+051599999V0202701N001012200019N0020001N1+02191+01281999999ADDGA1001+999999999GF100991001001999999001001MA1999999094971REMSYN082AAXX  21151 76393 31920 02701 10219 20128 39497052015 70400 91450 333 30/// 59051;
0237763930999992011022118004+25733-100300FM-12+051599999V0200901N001012200019N0020001N1+02961+01341100641ADDAY101061AY201061GA1001+999999999GF100991001001999999001001IA1019KA1120M+03021KA2240N+01591MA1999999095011MD1210051-0401MW1051REMSYN100AAXX  21181 76393 31920 00901 10296 20134 39501 40064 52005 70500 91750 333 10302 20159 30/// 59040;
0199763930999992011022121004+25733-100300FM-12+051599999V0201001N006012200019N0020001N1+03281+01321100401ADDAY101031AY201031GA1001+999999999GF100991001001999999001001IA1019MA1999999094841MD1710181-0141MW1051REMSYN088AAXX  21211 76393 31920 01006 10328 20132 39484 40040 57018 70500 92045 333 30/// 59014;
0279763930999992011022200004+25733-100300FM-12+051599999V0201101N005012200019N0040001N1+03001+01331100371ADDAA124000091AY101061AY201061GA1001+999999999GF100991001001999999001001IA1019KA1120M+03421KA2180N+01591MA1999999094881MD1210041+0031MW1051REMSYN112AAXX  22001 76393 31940 01105 10300 20133 39488 40037 52004 70500 92345 333 10342 20159 30/// 50681 58003 70000;EQDQ01  00002PRCP24
0199763930999992011022203004+25733-100300FM-12+051599999V0201301N004012200019N0010001N1+02681+01421100631ADDAY101031AY201031GA1001+999999999GF100991001001999999001001IA1019MA1999999095161MD1210281+0221MW1051REMSYN088AAXX  22031 76393 31910 01304 10268 20142 39516 40063 52028 70500 90250 333 30/// 58022;
0251763930999992011022206004+25733-100300FM-12+051599999V0209999C000012200019N0010001N1+02321+01621100751ADDAY101061AY201061GA1001+999999999GF100991001001999999001001GJ102289IA1019KA1240M+03421KA2240N+01591MA1999999095261MD1210101+0321MW1051REMSYN106AAXX  22061 76393 31910 00000 10232 20162 39526 40075 52010 70500 90550 333 10342 20159 30/// 55038 58032;
0143763930999992011022209004+25733-100300FM-12+051599999V0200301N001012200019N0010001N1+02061+99999999999ADDGA1001+999999999GF100991001001999999001001REMSYN089AAXX  22091 76393 31910 00301 102060 20143 39572 40082 52001 70400 90850 333 30/// 58///;
0273763930999992011022212004+25733-100300FM-12+051599999V0209999C000012200019N0010001N1+01961+01491100971ADDAA124000091AY101061AY201061GA1001+999999999GF100991001001999999001001IA1019KA1240M+03401KA2120N+01941MA1999999095361MD1710091+0541MW1051REMSYN106AAXX  22121 76393 31910 00000 10196 20149 39536 40097 57009 70500 91150 333 10340 20194 30170 58054 70000;EQDQ01  00002PRCP24
0199763930999992011022215004+25733-100300FM-12+051599999V0200401N001012200019N0010001N1+02011+01461101301ADDAY141031AY241031GA1001+999999999GF100991001001999999001001IA1019MA1999999095631MD1210271+0671MW1051REMSYN088AAXX  22151 76393 31910 00401 10201 20146 39563 40130 52027 70544 91450 333 30/// 58067;
0255763930999992011022218004+25733-100300FM-12+051599999V0200201N001012200019N0010001N1+02341+01551101321ADDAY141061AY241061GA1011+009001081GF101991011011008001001001IA1019KA1120M+02621KA2240N+01941MA1999999095651MD1510021+0631MW1051REMSYN118AAXX  22181 76393 31510 10201 10234 20155 39565 40132 55002 70544 81100 91750 333 10262 20194 30/// 56300 58063 81830;
0217763930999992011022221004+25733-100300FM-12+051599999V0201201N007010360019N0020001N1+02781+01751101021ADDAY121031AY221031GA1021+012001081GF107991021011012501011021IA1019MA1999999095401MD1710251+0561MW1041REMSYN106AAXX  22211 76393 31620 71207 10278 20175 39540 40102 57025 70422 82112 92045 333 30/// 56355 58056 82840;
0262763930999992011022300004+25733-100300FM-12+051599999V0201201N008012200019N0020001N1+02361+01741100971ADDAA124000091AY101061AY201061GF103991031051008001001001IA1019KA1120M+02951KA2180N+01901MA1999999095381MD1710021+0501MW1041REMSYN130AAXX  23001 76393 31520 31208 10236 20174 39538 40097 57002 70400 83500 92345 333 10295 20190 30/// 50631 56300 58050 70000 83625;
0217763930999992011022303004+25733-100300FM-12+051599999V0201101N003012200019N0010001N1+02161+01681101131ADDAY101031AY201031GA1041+045001031GF104991041001999999041001IA1019MA1999999095541MD1210161+0381MW1051REMSYN106AAXX  23031 76393 31910 41103 10216 20168 39554 40113 52016 70500 84040 90250 333 30/// 56050 58038 84365;
0253763930999992011022306004+25733-100300FM-12+051599999V0201501N001010042019N0010001N1+02161+01741101151ADDAY121061AY221061GF106991061051004501001001GJ105769IA1019KA1240M+02951KA2240N+01901MA1999999095551MD1210011+0291MW1051REMSYN124AAXX  23061 76393 31410 61501 10216 20174 39555 40115 52001 70522 86500 90550 333 10295 20190 30/// 55096 56300 58029 86617;
0236763930999992011022309004+25733-100300FM-12+051599999V0200601N001010033019N0010001N1+02001+01731101121ADDAY101031AY201031GA1071+003301061GF107991999051004501999999IA1019MA1999999095491MD1710061+0221MW1041REMSYN106AAXX  23091 76393 31410 70601 10200 20173 39549 40112 57006 70400 885// 90850 333 30/// 563// 58022 87611;EQDQ01+000082SCOTLC
0272763930999992011022312004+25733-100300FM-12+051599999V0200601N001010024019N0010001N1+01961+01751101141ADDAA124000091AY121061AY221061GA1081+002401061GF108991081051002501999999IA1019KA1240M+02951KA2120N+01821MA1999999095481MD1710011+0121MW1041REMSYN124AAXX  23121 76393 31310 80601 10196 20175 39548 40114 57001 70422 885// 91145 333 10295 20182 30160 563// 58012 70000 88608;
0217763930999992011022315004+25733-100300FM-12+051599999V0201201N001010027019N0005001N1+02081+01841101271ADDAY121031AY221031GA1081+002701061GF108991081051002501999999IA1019MA1999999095601MD1210121-0031MW1051REMSYN106AAXX  23151 76393 31305 81201 10208 20184 39560 40127 52012 70522 885// 91450 333 30/// 563// 59003 88609;
0255763930999992011022318004+25733-100300FM-12+051599999V0200901N001010024019N0005001N1+02361+01801101221ADDAY111061AY211061GA1071+002401061GF107991071051002501999999IA1019KA1120M+02461KA2240N+01821MA1999999095561MD1510041-0091MW1051REMSYN118AAXX  23181 76393 31305 70901 10236 20180 39556 40122 55004 70511 875// 91750 333 10246 20182 30/// 563// 59009 87608;
0199763930999992011022321004+25733-100300FM-12+051599999V0201101N002012200019N0010001N1+02821+01731100811ADDAY101031AY201031GA1001+999999999GF100991001001999999001001IA1019MA1999999095201MD1710351-0201MW1041REMSYN088AAXX  23211 76393 31910 01102 10282 20173 39520 40081 57035 70400 92045 333 30/// 59020;
0279763930999992011022400004+25733-100300FM-12+051599999V0201201N004012200019N0030001N1+02961+01551100591ADDAA124000091AY101061AY201061GA1001+999999999GF100991001001999999001001IA1019KA1120M+03101KA2180N+01821MA1999999095041MD1710161-0341MW1041REMSYN112AAXX  24001 76393 31930 01204 10296 20155 39504 40059 57016 70400 92345 333 10310 20182 30/// 50511 59034 70000;EQDQ01  00002PRCP24
0199763930999992011022403004+25733-100300FM-12+051599999V0201101N002012200019N0010001N1+02641+01591100661ADDAY101031AY201031GA1001+999999999GF100991001001999999001001IA1019MA1999999095141MD1210101-0401MW1051REMSYN088AAXX  24031 76393 31910 01102 10264 20159 39514 40066 52010 70500 90250 333 30/// 59040;
0251763930999992011022406004+25733-100300FM-12+051599999V0201101N004012200019N0010001N1+02221+01771100651ADDAY101061AY201061GA1001+999999999GF100991001001999999001001GJ104869IA1019KA1240M+03101KA2240N+01821MA1999999095131MD1710011-0421MW1051REMSYN106AAXX  24061 76393 31910 01104 10222 20177 39513 40065 57001 70500 90550 333 10310 20182 30/// 55081 59042;
0217763930999992011022409004+25733-100300FM-12+051599999V0200301N001012200019N0010001N1+02001+01791100651ADDAY101031AY201031GA1021+002401061GF102991021051002501001001IA1019MA1999999095101MD1710031-0391MW1041REMSYN106AAXX  24091 76393 31310 20301 10200 20179 39510 40065 57003 70400 82500 90850 333 30/// 56700 59039 82608;
0266763930999992011022412004+25733-100300FM-12+051599999V0200801N001010024019N0005001N1+01981+01771100591ADDAA124000091AY121061AY221061GA1081+002401061GF108991081051002501999999IA1019KA1240M+03101KA2120N+01881MA1999999095001MD1710101+9999MW1041REMSYN118AAXX  24121 76393 31305 80801 10198 20177 39500 40059 57010 70422 885// 91150 333 10310 20188 30170 567// 70000 88608;
0199763930999992011022415004+25733-100300FM-12+051599999V0202701N001012200019N0005001N1+02241+01801100751ADDAY141031AY241031GA1001+999999999GF100991001001999999001001IA1019MA1999999095121MD1210121-0481MW1041REMSYN088AAXX  24151 76393 31905 02701 10224 20180 39512 40075 52012 70444 91450 333 30/// 59048;
0233763930999992011022418004+25733-100300FM-12+051599999V0201301N001012200019N0008001N1+03111+01201100731ADDAY141061AY241061GF101991011001999999031001IA1019KA1120M+03111KA2240N+01881MA1999999095121MD1410001-0431MW1041REMSYN112AAXX  24181 76393 31908 11301 10311 20120 39512 40073 54000 70444 81030 91750 333 10311 20188 30/// 56070 59043;
0195763930999992011022421004+25733-100300FM-12+051599999V0201101N006012200019N0010001N1+03701+00521100341ADDAY101031AY201031GF101991011001999999031001IA1019MA1999999094831MD1710291-0371MW1041REMSYN100AAXX  24211 76393 31910 11106 10370 20052 39483 40034 57029 70400 81030 92045 333 30/// 56070 59037;
0245763930999992011022500004+25733-100300FM-12+051599999V0201201N006012200019N0020001N1+03101+01311100531ADDAY101061AY201061GF101991011001999999031001IA1019KA1120M+03781KA2180N+01881MA1999999095061MD1210231+0021MW1041REMSYN124AAXX  25001 76393 31920 11206 10310 20131 39506 40053 52023 70400 81030 92350 333 10378 20188 30/// 50781 56050 58002 70000;
0199763930999992011022503004+25733-100300FM-12+051599999V0201101N003012200019N0010001N1+02761+01211100871ADDAY101031AY201031GA1001+999999999GF100991001001999999001001IA1019MA1999999095421MD1210361+0281MW1051REMSYN088AAXX  25031 76393 31910 01103 10276 20121 39542 40087 52036 70500 90250 333 30/// 58028;
0251763930999992011022506004+25733-100300FM-12+051599999V0202101N001012200019N0010001N1+02541+01461101101ADDAY101061AY201061GA1001+999999999GF100991001001999999001001GJ105949IA1019KA1240M+03781KA2240N+01881MA1999999095631MD1210211+0501MW1051REMSYN106AAXX  25061 76393 31910 02101 10254 20146 39563 40110 52021 70500 90550 333 10378 20188 30/// 55099 58050;
0199763930999992011022509004+25733-100300FM-12+051599999V0201001N001012200019N0010001N1+02281+01221101211ADDAY101031AY201031GA1001+999999999GF100991001001999999001001IA1019MA1999999095641MD1710011+0541MW1041REMSYN088AAXX  25091 76393 31910 01001 10228 20122 39564 40121 57001 70400 90850 333 30/// 58054;
0272763930999992011022512004+25733-100300FM-12+051599999V0200401N001010180019N0010001N1+02121+00561101381ADDAA124000091AY121061AY221061GA1071+018001061GF107991071051017501999999IA1019KA1240M+03781KA2120N+01721MA1999999095751MD1210111+0751MW1041REMSYN124AAXX  25121 76393 31710 70401 10212 20056 39575 40138 52011 70422 875// 91150 333 10378 20172 30162 563// 58075 70000 87656;
0223763930999992011022515004+25733-100300FM-12+051599999V0200101N00101036001CN0010001N1+02281+00091101591ADDAY121031AY221031GA1041+009001081GF107991041011022501031999IA1019MA1999999095951MD1210201+0831MW1041REMSYN112AAXX  25151 76393 31810 70101 10228 20009 39595 40159 52020 70422 8413/ 91450 333 30/// 5635/ 58083 84830 83359;
0223763930999992011022518004+25733-100300FM-12+051599999V0200101N00101036001CN0010001N1+02281+00091101591ADDAY121061AY221061GA1041+009001081GF107991041011022501031999IA1019MA1999999095951MD1210201+0831MW1041REMSYN112AAXX  25181 76393 31810 70101 10228 20009 39595 40159 52020 70422 8413/ 91450 333 30/// 5635/ 58083 84830 83359;
0211763930999992011022521004+25733-100300FM-12+051599999V0201001N006012200019N0040001N1+02981+00961101091ADDAY101031AY201031GA1011+018001081GF101991999999022501999999IA1019MA1999999095501MD1710381+0671MW1041REMSYN100AAXX  25211 76393 31840 11006 10298 20096 39550 40109 57038 70400 92045 333 30/// 56300 58067 81856;
0262763930999992011022600004+25733-100300FM-12+051599999V0201201N006012200019N0040001N1+02901+00881100901ADDAA124000091AY101061AY201061GF101991011011022501001001IA1019KA1120M+03081KA2180N+02001MA1999999095371MD1710131+0311MW1041REMSYN130AAXX  26001 76393 31840 11206 10290 20088 39537 40090 57013 70400 81100 92345 333 10308 20200 30/// 50971 56300 58031 70000 81858;
0251763930999992011022606004+25733-100300FM-12+051599999V0201201N001012200019N0010001N1+02121+01601101101ADDAY101061AY201061GA1001+999999999GF100991001001999999001001GJ105649IA1019KA1240M+03081KA2240N+02001MA1999999095551MD1210191-0081MW1041REMSYN106AAXX  26061 76393 31910 01201 10212 20160 39555 40110 52019 70400 90550 333 10308 20200 30192 55094 59008;
0193763930999992011022609004+25733-100300FM-12+051599999V0201201N006012200019N0010001N1+01841+01491101191ADDAY101031AY201031GA1001+999999999GF100991001001999999001001MA1999999095401MD1710151+9999MW1041REMSYN088AAXX  26091 76393 31910 01206 10184 20149 39540 40119 57015 70400 70850 333 30/// 59024;
0272763930999992011022612004+25733-100300FM-12+051599999V0200701N001010027019N0005001N1+01871+01641101161ADDAA124000091AY121061AY221061GA1081+002701061GF108991081051002501999999IA1019KA1240M+03081KA2120N+01841MA1999999095321MD1710081-0431MW1041REMSYN124AAXX  26121 76393 31305 80701 10187 20164 39532 40116 57008 70422 885// 91150 333 10308 20184 30174 567// 59043 70000 88609;
0144763930999992011022615004+25733-100300FM-12+051599999V0200501N003019999999N0005001N1+01921+01611999999ADDGF108991999999004501999999REMSYN106AAXX  26151 76393 31405 80503 10192 20161 1445 39547 40114 52015 70544 886/ 9 333 30/// 563// 59048 88713;
0237763930999992011022618004+25733-100300FM-12+051599999V0200301N001012200019N0005001N1+02421+01681101031ADDAY101061AY201061GA1001+999999999GF100991001001999999001001IA1019KA1120M+02541KA2240N+01801MA1999999095361MD1710111-0521MW1051REMSYN100AAXX  26181 76393 31905 00301 10242 20168 39536 40103 57011 70500 91745 333 10254 20180 30/// 59052;
0199763930999992011022621004+25733-100300FM-12+051599999V0201101N003012200019N0005001N1+02961+01621100561ADDAY101031AY201031GA1001+999999999GF100991001001999999001001IA1019MA1999999094951MD1710411-0551MW1051REMSYN088AAXX  26211 76393 31905 01103 10296 20162 39495 40056 57041 70500 92050 333 30/// 59055;
0245763930999992011022700004+25733-100300FM-12+051599999V0201201N002012200019N0010001N1+03021+01521100331ADDAY101061AY201061GF102991021001999999041001IA1019KA1120M+03201KA2180N+01801MA1999999094791MD1710161-0581MW1051REMSYN124AAXX  27001 76393 31910 21202 10302 20152 39479 40033 57016 70500 82040 92350 333 10320 20180 30/// 50651 56050 59058 70000;
0199763930999992011022709004+25733-100300FM-12+051599999V0200801N001012200019N0010001N1+02121+01791100651ADDAY101031AY201031GA1001+999999999GF100991001001999999001001IA1019MA1999999094911MD1710021-0491MW1041REMSYN088AAXX  27091 76393 31910 00801 10212 20179 39491 40065 57002 70400 90850 333 30/// 59049;
0273763930999992011022712004+25733-100300FM-12+051599999V0200801N001012200019N0010001N1+01981+01801100661ADDAA124000091AY101061AY201061GA1001+999999999GF100991001001999999001001IA1019KA1240M+03201KA2120N+01981MA1999999094871MD1710041-0451MW1041REMSYN106AAXX  27121 76393 31910 00801 10198 20180 39487 40066 57004 70400 91150 333 10320 20198 30176 59045 70000;EQDQ01  00002PRCP24
0199763930999992011022715004+25733-100300FM-12+051599999V0201901N001012200019N0005001N1+02261+01691100731ADDAY101031AY201031GA1001+999999999GF100991001001999999001001IA1019MA1999999095031MD1210161-0441MW1051REMSYN088AAXX  27151 76393 31905 01901 10226 20169 39503 40073 52016 70500 91450 333 30/// 59044;
0237763930999992011022718004+25733-100300FM-12+051599999V0201101N002012200019N0005001N1+03081+01701100551ADDAY101061AY201061GA1001+999999999GF100991001001999999001001IA1019KA1120M+03161KA2240N+01961MA1999999094961MD1710071-0401MW1051REMSYN100AAXX  27181 76393 31905 01102 10308 20170 39496 40055 57007 70500 91750 333 10316 20196 30/// 59040;
0199763930999992011022721004+25733-100300FM-12+051599999V0201301N001012200019N0010001N1+03601+00891099991ADDAY101031AY201031GA1001+999999999GF100991001001999999001001IA1019MA1999999094501MD1710461-0451MW1051REMSYN088AAXX  27211 76393 31910 01301 10360 20089 39450 49999 57046 70500 92050 333 30/// 59045;
0279763930999992011022800004+25733-100300FM-12+051599999V0201501N001012200019N0005001N1+03521+01291099831ADDAA124000091AY101061AY201061GA1001+999999999GF100991001001999999001001IA1019KA1120M+03731KA2180N+01961MA1999999094411MD1710091-0381MW1051REMSYN112AAXX  28001 76393 31905 01501 10352 20129 39441 49983 57009 70500 92350 333 10373 20196 30/// 50711 59038 70000;EQDQ01  00002PRCP24
