0262763930999992012010100004+25733-100300FM-12+051599999V0201101N001019999999N0040001N1+02181+00741101481ADDAA124000091AY101061AY201061GF106991061001999999021001IA1019KA1120M+02501KA2180N+01101MA1999999095791MD1210051+0031MW1051REMSYN130AAXX  01001 76393 31940 61101 10218 20074 39579 40148 52005 70500 86020 92350 333 10250 20110 30/// 50431 56050 58003 70000 86461;
0217763930999992012010203004+25733-100300FM-12+051599999V0203301N002010150019N0020001N1+01501+00211103471ADDAY121031AY221031GA1081+015001061GF108991081051017501999999IA1019MA1999999097571MD1210241+9999MW1041REMSYN106AAXX  02031 76393 31720 83302 10150 20021 39757 40347 52024 70422 885// 90250 333 30/// 565// 58/// 88650;
0272763930999992012010206004+25733-100300FM-12+051599999V0209999C000019999999N0020001N1+01501+00261103421ADDAY121061AY221061GF107991999051017501999999GJ100009IA1019KA1240M+02461KA2240N+01401MA1999999097521MD1710051+9999MW1041REMSYN124AAXX  02061 76393 31720 70000 10150 20026 39752 40342 57005 70422 885// 90552 333 10246 20140 30/// 55000 565// 58/// 87650;EQDQ01+000082SCOTLC
0211763930999992012010209004+25733-100300FM-12+051599999V0200201N001010138019N0020001N1+01281+00161103401ADDAY121031AY221031GA1061+013801061GF106991061051012501001001IA1019MA1999999097511MD1710011+9999MW1041REMSYN100AAXX  02091 76393 31620 60201 10128 20016 39751 40340 57001 70422 86500 90855 333 30/// 58/// 86646;
0272763930999992012010212004+25733-100300FM-12+051599999V0203601N001010144019N0020001N1+01181+00121103591ADDAA124000091AY121061AY221061GA1061+014401061GF106991061051012501001001IA1019KA1240M+02461KA2120N+01101MA1999999097661MD1210151+9999MW1041REMSYN124AAXX  02121 76393 31620 63601 10118 20012 39766 40359 52015 70422 86500 91150 333 10246 20110 30106 56500 58/// 70000 86648;
0189763930999992012010215004+25733-100300FM-12+051599999V0200301N002010123019N0060001N1+01141-00151103921ADDGA1081+012301061GF108991081051999999999999IA1019MA1999999097951MD1210291+9999REMSYN100AAXX  02151 76393 32956 80302 10114 21015 39795 40392 52029 885// 91450 333 30/// 565// 58/// 88641;
0255763930999992012010218004+25733-100300FM-12+051599999V0200401N002010360019N0050001N1+01421+00201103961ADDAY121061AY221061GA1051+036001031GF105991051001999999071001IA1019KA1120M+01521KA2240N+01101MA1999999097991MD1210041+9999MW1041REMSYN118AAXX  02181 76393 31950 50402 10142 20020 39799 40396 52004 70422 85070 91750 333 10152 20110 30/// 56050 58/// 85362;
0189763930999992012010221004+25733-100300FM-12+051599999V0200201N001012200019N0050001N1+01701+00181103641ADDGA1041+030001031GF104991041001999999071001IA1019MA1999999097691MD1710301+9999REMSYN100AAXX  02211 76393 32950 40201 10170 20018 39769 40364 57030 84070 92050 333 30/// 56050 58/// 84360;
0217763930999992012010300004+25733-100300FM-12+051599999V0201201N004012200019N0050001N1+01541+00151103541ADDGF101991011001999999011001IA1019KA1120M+01811KA2180N+01101MA1999999097621MD1710021+0291REMSYN118AAXX  03001 76393 32950 11204 10154 20015 39762 40354 57002 81010 92350 333 10181 20110 30/// 50431 56050 58029 70000;
0171763930999992012010303004+25733-100300FM-12+051599999V0201201N002012200019N0020001N1+01261-00211103621ADDGA1001+999999999GF100991001001999999001001IA1019MA1999999097701MD1210081+0131REMSYN082AAXX  03031 76393 32920 01202 10126 21021 39770 40362 52008 90252 333 30/// 58013;
0242763930999992012010306004+25733-100300FM-12+051599999V0202101N001012200019N0020001N1+01041+00091103591ADDGA1001+999999999GF100991001001999999001001GJ103129IA1019KA1240M+01811KA2240N+99999MA1999999097661MD1710041+0141REMSYN100AAXX  03061 76393 32920 02101 10104 20009 39766 40359 57004 90551 333 10181 20110 30/// 55052 58014;EQDQ01 +01102ATMN  
0171763930999992012010309004+25733-100300FM-12+051599999V0202101N001012200019N0020001N1+00781+00121103471ADDGA1001+999999999GF100991001001999999001001IA1019MA1999999097511MD1710151+0001REMSYN082AAXX  03091 76393 32920 02101 10078 20012 39751 40347 57015 90855 333 30/// 58000;
0245763930999992012010312004+25733-100300FM-12+051599999V0201601N001012200019N0020001N1+00761-00011103441ADDAA124000091GA1001+999999999GF100991001001999999001001IA1019KA1240M+01811KA2120N+00601MA1999999097441MD1710071-0221REMSYN100AAXX  03121 76393 32920 01601 10076 21001 39744 40344 57007 91150 333 10181 20060 30052 59022 70000;EQDQ01  00002PRCP24
0171763930999992012010315004+25733-100300FM-12+051599999V0201101N001012200019N0030001N1+01061+00181103541ADDGA1001+999999999GF100991001001999999001001IA1019MA1999999097511MD1210071-0441REMSYN082AAXX  03151 76393 32930 01101 10106 20018 39751 40354 52007 91455 333 30/// 59044;
0237763930999992012010318004+25733-100300FM-12+051599999V0201101N001012200019N0040001N1+01611+00211103351ADDAY101061AY201061GA1001+999999999GF100991001001999999001001IA1019KA1120M+01671KA2240N+00601MA1999999097361MD1710151-0631MW1051REMSYN100AAXX  03181 76393 31940 01101 10161 20021 39736 40335 57015 70500 91755 333 10167 20060 30/// 59063;
0171763930999992012010321004+25733-100300FM-12+051599999V0201201N004012200019N0050001N1+01901+00031102841ADDGA1001+999999999GF100991001001999999001001IA1019MA1999999096921MD1710431-0771REMSYN082AAXX  03211 76393 32950 01204 10190 20003 39692 40284 57043 92045 333 30/// 59077;
0251763930999992012010400004+25733-100300FM-12+051599999V0201201N003012200019N0050001N1+01761+00211102651ADDAA124000091GA1001+999999999GF100991001001999999001001IA1019KA1120M+02021KA2180N+00601MA1999999096791MD1710131-0831REMSYN106AAXX  04001 76393 32950 01203 10176 20021 39679 40265 57013 92350 333 10202 20060 30/// 50321 59083 70000;EQDQ01  00002PRCP24
0199763930999992012010403004+25733-100300FM-12+051599999V0203201N002012200019N0020001N1+01401+00521102671ADDAY101031AY201031GA1001+999999999GF100991001001999999001001IA1019MA1999999096841MD1210051-0861MW1051REMSYN088AAXX  04031 76393 31920 03202 10140 20052 39684 40267 52005 70500 90250 333 30/// 59086;
0251763930999992012010406004+25733-100300FM-12+051599999V0201801N001012200019N0020001N1+01221+00481102581ADDAY101061AY201061GA1001+999999999GF100991001001999999001001GJ105589IA1019KA1240M+02021KA2240N+00601MA1999999096751MD1710091-0911MW1051REMSYN106AAXX  04061 76393 31920 01801 10122 20048 39675 40258 57009 70500 90550 333 10202 20060 30/// 55093 59091;
0171763930999992012010409004+25733-100300FM-12+051599999V0202801N001012200019N0020001N1+00961+00341102341ADDGA1001+999999999GF100991001001999999001001IA1019MA1999999096491MD1710261-1021REMSYN082AAXX  04091 76393 32920 02801 10096 20034 39649 40234 57026 90850 333 30/// 59102;
0245763930999992012010412004+25733-100300FM-12+051599999V0202501N001012200019N0020001N1+00861+00361102221ADDAA124000091GA1001+999999999GF100991001001999999001001IA1019KA1240M+02021KA2120N+00701MA1999999096321MD1710171-1121REMSYN100AAXX  04121 76393 32920 02501 10086 20036 39632 40222 57017 91150 333 10202 20070 30064 59112 70000;EQDQ01  00002PRCP24
0171763930999992012010415004+25733-100300FM-12+051599999V0202401N001012200019N0040001N1+01371+00431102361ADDGA1001+999999999GF100991001001999999001001IA1019MA1999999096441MD1210121-1071REMSYN082AAXX  04151 76393 32940 02401 10137 20043 39644 40236 52012 91455 333 30/// 59107;
0205763930999992012010418004+25733-100300FM-12+051599999V0200401N001012200019N0050001N1+02301+00781102271ADDGF101991011001999999031001IA1019KA1120M+02381KA2240N+00701MA1999999096381MD1710061-0981REMSYN106AAXX  04181 76393 32950 10401 10230 20078 39638 40227 57006 81030 91755 333 10238 20070 30/// 56080 59098;
0189763930999992012010421004+25733-100300FM-12+051599999V0201101N003010300019N0050001N1+02661+00651101901ADDGA1071+030001041GF107991071001999999021999IA1019MA1999999096111MD1710281-1241REMSYN100AAXX  04211 76393 32950 71103 10266 20065 39611 40190 57028 8702/ 92050 333 30/// 5608/ 59124 87460;
0262763930999992012010500004+25733-100300FM-12+051599999V0201201N003019999999N0040001N1+02181+00651102051ADDAA124000091AY121061AY221061GF106991051001999999071081IA1019KA1120M+02741KA2180N+00701MA1999999096331MD1210221-0461MW1041REMSYN130AAXX  05001 76393 31940 61203 10218 20065 39633 40205 52022 70422 85078 92350 333 10274 20070 30/// 50251 56088 59046 70000 85360;
0195763930999992012010503004+25733-100300FM-12+051599999V0203601N002012200019N0020001N1+01701+00441102261ADDAY101031AY201031GF102991021001999999011001IA1019MA1999999096561MD1210231-0281MW1041REMSYN100AAXX  05031 76393 31920 23602 10170 20044 39656 40226 52023 70400 82010 90250 333 30/// 56080 59028;
0253763930999992012010506004+25733-100300FM-12+051599999V0209999C000012200019N0020001N1+01521+00721102391ADDAY101061AY201061GF103991031001999999031001GJ103129IA1019KA1240M+02741KA2240N+00701MA1999999096661MD1210101-0091MW1041REMSYN124AAXX  05061 76393 31920 30000 10152 20072 39666 40239 52010 70400 83030 90551 333 10274 20070 30/// 55052 56080 59009 83360;
0217763930999992012010509004+25733-100300FM-12+051599999V0201001N001012200019N0020001N1+01321+00511102371ADDAY101031AY201031GA1021+030001031GF102991021001999999041001IA1019MA1999999096591MD1710071+0101MW1041REMSYN106AAXX  05091 76393 31920 21001 10132 20051 39659 40237 57007 70400 82040 90850 333 30/// 56070 58010 82360;
0272763930999992012010512004+25733-100300FM-12+051599999V0201101N001010330019N0020001N1+01121+00491102481ADDAA124000091AY121061AY221061GA1071+033001031GF107991071001999999031001IA1019KA1240M+02741KA2120N+01061MA1999999096631MD1210041+0311MW1041REMSYN124AAXX  05121 76393 31920 71101 10112 20049 39663 40248 52004 70422 87030 91150 333 10274 20106 30100 56010 58031 70000 87361;
0211763930999992012010515004+25733-100300FM-12+051599999V0209999C000010330019N0030001N1+01381+00591102671ADDAY121031AY221031GA1061+033001031GF106991061001999999071001IA1019MA1999999096791MD1210161+0361MW1041REMSYN100AAXX  05151 76393 31930 60000 10138 20059 39679 40267 52016 70422 86070 91450 333 30/// 58036 86361;
0255763930999992012010518004+25733-100300FM-12+051599999V0200701N001019999999N0030001N1+01861+00421102551ADDAY121061AY221061GA1041+030001041GF106991041001999999011081IA1019KA1120M+01981KA2240N+01061MA1999999096681MD1710111+0291MW1041REMSYN118AAXX  05181 76393 31930 60701 10186 20042 39668 40255 57011 70422 84018 91750 333 10198 20106 30/// 56075 58029 84460;
0217763930999992012010521004+25733-100300FM-12+051599999V0200301N001010300019N0030001N1+02021+00511102161ADDAY121031AY221031GA1071+030001041GF107991071001999999021999IA1019MA1999999096351MD1710331+0241MW1051REMSYN106AAXX  05211 76393 31930 70301 10202 20051 39635 40216 57033 70522 8702/ 92045 333 30/// 5607/ 58024 87460;
0262763930999992012010600004+25733-100300FM-12+051599999V0200901N001019999999N0040001N1+01981+00551101981ADDAA124000091AY121061AY221061GF105991051001999999021001IA1019KA1120M+02171KA2180N+01061MA1999999096221MD1710131-0111MW1041REMSYN130AAXX  06001 76393 31940 50901 10198 20055 39622 40198 57013 70422 85020 92345 333 10217 20106 30/// 50331 56080 59011 70000 85460;
0273763930999992012010612004+25733-100300FM-12+051599999V0202701N001012200019N0020001N1+01041+00621101851ADDAA124000091AY101061AY201061GA1001+999999999GF100991001001999999001001IA1019KA1240M+02171KA2120N+00941MA1999999096031MD1710051-0601MW1041REMSYN106AAXX  06121 76393 31920 02701 10104 20062 39603 40185 57005 70400 91150 333 10217 20094 30088 59060 70000;EQDQ01  00002PRCP24
0171763930999992012010615004+25733-100300FM-12+051599999V0202201N001012200019N0020001N1+01461+00581101861ADDGA1001+999999999GF100991001001999999001001IA1019MA1999999096011MD1710021-0781REMSYN082AAXX  06151 76393 32920 02201 10146 20058 39601 40186 57002 91455 333 30/// 59078;
0209763930999992012010618004+25733-100300FM-12+051599999V0200601N001012200019N0050001N1+02221+00771101721ADDGA1001+999999999GF100991001001999999001001IA1019KA1120M+02291KA2240N+00941MA1999999095911MD1710101-0771REMSYN094AAXX  06181 76393 32950 00601 10222 20077 39591 40172 57010 91755 333 10229 20094 30/// 59077;
0171763930999992012010621004+25733-100300FM-12+051599999V0201301N003012200019N0050001N1+02581+00951101311ADDGA1001+999999999GF100991001001999999001001IA1019MA1999999095571MD1710341-0781REMSYN082AAXX  06211 76393 32950 01303 10258 20095 39557 40131 57034 92050 333 30/// 59078;
0279763930999992012010700004+25733-100300FM-12+051599999V0202001N002012200019N0050001N1+02301+00731101191ADDAA124000091AY101061AY201061GA1001+999999999GF100991001001999999001001IA1019KA1120M+02681KA2180N+00941MA1999999095531MD1710041-0691MW1051REMSYN112AAXX  07001 76393 31950 02002 10230 20073 39553 40119 57004 70500 92350 333 10268 20094 30/// 50521 59069 70000;EQDQ01  00002PRCP24
0199763930999992012010703004+25733-100300FM-12+051599999V0202101N002012200019N0020001N1+01901+00901101281ADDAY101031AY201031GA1001+999999999GF100991001001999999001001IA1019MA1999999095651MD1210121-0641MW1041REMSYN088AAXX  07031 76393 31920 02102 10190 20090 39565 40128 52012 70400 90251 333 30/// 59064;
0251763930999992012010706004+25733-100300FM-12+051599999V0202901N001012200019N0020001N1+01541+00951101331ADDAY101061AY201061GA1001+999999999GF100991001001999999001001GJ105469IA1019KA1240M+02681KA2240N+00941MA1999999095671MD1210021-0561MW1041REMSYN106AAXX  07061 76393 31920 02901 10154 20095 39567 40133 52002 70400 90551 333 10268 20094 30/// 55091 59056;
0245763930999992012010712004+25733-100300FM-12+051599999V0202501N002012200019N0020001N1+01241+00461101431ADDAA124000091GA1001+999999999GF100991001001999999001001IA1019KA1240M+02681KA2120N+01101MA1999999095661MD1210031-0371REMSYN100AAXX  07121 76393 32920 02502 10124 20046 39566 40143 52003 91150 333 10268 20110 30092 59037 70000;EQDQ01  00002PRCP24
0217763930999992012010715004+25733-100300FM-12+051599999V0202101N001010900019N0040001N1+01591+00391101691ADDAY121031AY221031GA1071+090001001GF107991001001999999001031IA1019MA1999999095881MD1210221-0131MW1041REMSYN106AAXX  07151 76393 31940 72101 10159 20039 39588 40169 52022 70422 80003 91455 333 30/// 56007 59013 87080;
0255763930999992012010718004+25733-100300FM-12+051599999V0201301N001010900019N0050001N1+02561+00531101691ADDAY121061AY221061GA1061+090001001GF106991001001999999001041IA1019KA1120M+02641KA2240N+01101MA1999999095901MD1210021-0011MW1041REMSYN118AAXX  07181 76393 31950 61301 10256 20053 39590 40169 52002 70422 80004 91755 333 10264 20110 30/// 56007 59001 86080;
0167763930999992012010721004+25733-100300FM-12+051599999V0201401N002012200019N0060001N1+02821+00591101281ADDGF103991011001999999041081IA1019MA1999999095581MD1710321+0011REMSYN094AAXX  07211 76393 32956 31402 10282 20059 39558 40128 57032 81048 92050 333 30/// 56055 58001;
0217763930999992012010800004+25733-100300FM-12+051599999V0201201N004012200019N0060001N1+02501+00741101241ADDGF102991021001999999011001IA1019KA1120M+02981KA2180N+01101MA1999999095611MD1210031+0081REMSYN118AAXX  08001 76393 32956 21204 10250 20074 39561 40124 52003 82010 92350 333 10298 20110 30/// 50531 56050 58008 70000;
0171763930999992012010803004+25733-100300FM-12+051599999V0201201N003012200019N0020001N1+02141+00211101311ADDGA1001+999999999GF100991001001999999001001IA1019MA1999999095721MD1210111+0071REMSYN082AAXX  08031 76393 32920 01203 10214 20021 39572 40131 52011 90252 333 30/// 58007;
0223763930999992012010806004+25733-100300FM-12+051599999V0203401N001012200019N0020001N1+01721+00661101341ADDGA1001+999999999GF100991001001999999001001GJ105349IA1019KA1240M+02981KA2240N+01101MA1999999095721MD1410001+0051REMSYN100AAXX  08061 76393 32920 03401 10172 20066 39572 40134 54000 90550 333 10298 20110 30/// 55089 58005;
0217763930999992012010809004+25733-100300FM-12+051599999V0202601N001010330019N0020001N1+01521+00491101221ADDAY121031AY221031GA1061+033001041GF106991061001999999011001IA1019MA1999999095551MD1710171-0081MW1041REMSYN106AAXX  08091 76393 31920 62601 10152 20049 39555 40122 57017 70422 86010 90850 333 30/// 56050 59008 86461;
0269763930999992012010812004+25733-100300FM-12+051599999V0202301N001012200019N0020001N1+01321+00601101211ADDAA124000091AY101061AY201061GF101991011001999999011001IA1019KA1240M+02981KA2120N+01221MA1999999095481MD1710071-0181MW1041REMSYN118AAXX  08121 76393 31920 12301 10132 20060 39548 40121 57007 70400 81010 91150 333 10298 20122 30116 56050 59018 70000;EQDQ01  00002PRCP24
0217763930999992012010815004+25733-100300FM-12+051599999V0202801N001010300019N0030001N1+01421+00681101391ADDAY121031AY221031GA1051+030001031GF106991051001999999041081IA1019MA1999999095621MD1210141-0261MW1041REMSYN106AAXX  08151 76393 31930 62801 10142 20068 39562 40139 52014 70422 85048 91455 333 30/// 56077 59026 85360;
0255763930999992012010818004+25733-100300FM-12+051599999V0200601N001010360019N0050001N1+01901+00951101331ADDAY121061AY221061GA1051+036001031GF106991051001999999041081IA1019KA1120M+02021KA2240N+01221MA1999999095561MD1710061-0341MW1041REMSYN118AAXX  08181 76393 31950 60601 10190 20095 39556 40133 57006 70422 85048 91755 333 10202 20122 30/// 56077 59034 85362;
0217763930999992012010821004+25733-100300FM-12+051599999V0200601N002010330019N0050001N1+02241+00961101001ADDAY121031AY221031GA1061+033001041GF106991061001999999021001IA1019MA1999999095271MD1710291-0311MW1051REMSYN106AAXX  08211 76393 31950 60602 10224 20096 39527 40100 57029 70522 86020 92050 333 30/// 56050 59031 86461;
0262763930999992012010900004+25733-100300FM-12+051599999V0200601N001019999999N0040001N1+02101+01231100971ADDAA124000091AY121061AY221061GF106991061001999999021001IA1019KA1120M+02361KA2180N+01221MA1999999095281MD1210011-0331MW1051REMSYN130AAXX  09001 76393 31940 60601 10210 20123 39528 40097 52001 70522 86020 92350 333 10236 20122 30/// 50351 56050 59033 70000 86461;
0217763930999992012010903004+25733-100300FM-12+051599999V0200801N001010300019N0020001N1+01901+01431101061ADDAY121031AY221031GA1071+030001041GF107991071001999999021001IA1019MA1999999095391MD1210111-0331MW1041REMSYN106AAXX  09031 76393 31920 70801 10190 20143 39539 40106 52011 70422 87020 90253 333 30/// 56050 59033 87460;
0253763930999992012010906004+25733-100300FM-12+051599999V0203101N001012200019N0020001N1+01701+01311101021ADDAY111061AY211061GF104991041001999999031001GJ101569IA1019KA1240M+02361KA2240N+01221MA1999999095351MD1710041-0371MW1041REMSYN124AAXX  09061 76393 31920 43101 10170 20131 39535 40102 57004 70411 84030 90550 333 10236 20122 30/// 55026 56070 59037 84360;
0217763930999992012010915004+25733-100300FM-12+051599999V0203401N001010066019N0020001N1+01641+01101101431ADDAY121031AY221031GA1071+006601061GF107991071051008001999999IA1019MA1999999095661MD1210251+0041MW1041REMSYN106AAXX  09151 76393 31520 73401 10164 20110 39566 40143 52025 70422 875// 91455 333 30/// 56199 58004 87622;
0261763930999992012010918004+25733-100300FM-12+051599999V0203201N00101090001CN0020001N1+02011+01191101511ADDAY121061AY221061GA1021+010201061GF107991021051012501001051IA1019KA1120M+02111KA2240N+01301MA1999999095751MD1210091+0191MW1041REMSYN124AAXX  09181 76393 31620 73201 10201 20119 39575 40151 52009 70422 82505 91755 333 10211 20130 30/// 56107 58019 82634 85075;
0195763930999992012010921004+25733-100300FM-12+051599999V0200601N003012200019N0030001N1+02261+01151101201ADDAY101031AY201031GF103991001001999999001081IA1019MA1999999095491MD1710271+0021MW1051REMSYN100AAXX  09211 76393 31930 30603 10226 20115 39549 40120 57027 70500 80008 92050 333 30/// 56007 58002;
0262763930999992012011000004+25733-100300FM-12+051599999V0200401N003010120019N0040001N1+01841+00911101341ADDAA124000091AY121061AY221061GF106991061051012501001001IA1019KA1120M+02381KA2180N+01301MA1999999095641MD1210151+0361MW1051REMSYN130AAXX  10001 76393 31640 60403 10184 20091 39564 40134 52015 70522 86500 92350 333 10238 20130 30/// 50181 56500 58036 70000 86638;
0217763930999992012011003004+25733-100300FM-12+051599999V0200601N002010105019N0020001N1+01461+00601101781ADDAY121031AY221031GA1081+010501061GF108991081051012501999999IA1019MA1999999096051MD1210411+0661MW1041REMSYN106AAXX  10031 76393 31620 80602 10146 20060 39605 40178 52041 70422 885// 90250 333 30/// 565// 58066 88635;
0253763930999992012011006004+25733-100300FM-12+051599999V0200601N001012200019N0020001N1+01201+00411101901ADDAY111061AY211061GF104991041051008001001001GJ102169IA1019KA1240M+02381KA2240N+01161MA1999999096141MD1210091+0791MW1041REMSYN124AAXX  10061 76393 31520 40601 10120 20041 39614 40190 52009 70411 84500 90551 333 10238 20116 30/// 55036 56500 58079 84633;
0199763930999992012011009004+25733-100300FM-12+051599999V0200301N003012200019N0020001N1+00781+00321101961ADDAY101031AY201031GA1001+999999999GF100991001001999999001001IA1019MA1999999096141MD1410001+0741MW1041REMSYN088AAXX  10091 76393 31920 00303 10078 20032 39614 40196 54000 70400 90850 333 30/// 58074;
0273763930999992012011012004+25733-100300FM-12+051599999V0200401N001012200019N0020001N1+00661+00181102071ADDAA124000091AY101061AY201061GA1001+999999999GF100991001001999999001001IA1019KA1240M+02381KA2120N+00601MA1999999096171MD1210031+0771MW1041REMSYN106AAXX  10121 76393 31920 00401 10066 20018 39617 40207 52003 70400 91150 333 10238 20060 30058 58077 70000;EQDQ01  00002PRCP24
0195763930999992012011015004+25733-100300FM-12+051599999V0201801N001012200019N0030001N1+01041+00441102131ADDAY111031AY211031GF102991001001999999001081IA1019MA1999999096191MD1210021+0531MW1041REMSYN100AAXX  10151 76393 31930 21801 10104 20044 39619 40213 52002 70411 80008 91455 333 30/// 56005 58053;
0233763930999992012011018004+25733-100300FM-12+051599999V0201301N001012200019N0030001N1+01941+00331101911ADDAY111061AY211061GF101991001001999999001061IA1019KA1120M+02031KA2240N+00601MA1999999096001MD1710091+0251MW1041REMSYN112AAXX  10181 76393 31930 11301 10194 20033 39600 40191 57009 70411 80006 91755 333 10203 20060 30/// 56005 58025;
0195763930999992012011021004+25733-100300FM-12+051599999V0201001N005012200019N0040001N1+02301+00371101501ADDAY101031AY201031GF102991021001999999011001IA1019MA1999999095691MD1710311+0201MW1041REMSYN100AAXX  10211 76393 31940 21005 10230 20037 39569 40150 57031 70400 82010 92045 333 30/// 56050 58020;
0245763930999992012011100004+25733-100300FM-12+051599999V0201201N004012200019N0040001N1+01861+00481101441ADDAY101061AY201061GF103991011001999999011081IA1019KA1120M+02401KA2180N+00601MA1999999095701MD1210011+0061MW1041REMSYN124AAXX  11001 76393 31940 31204 10186 20048 39570 40144 52001 70400 81018 92345 333 10240 20060 30/// 50461 56055 58006 70000;
0199763930999992012011103004+25733-100300FM-12+051599999V0201401N001012200019N0020001N1+01521+00581101451ADDAY101031AY201031GA1001+999999999GF100991001001999999001001IA1019MA1999999095741MD1210041-0311MW1051REMSYN088AAXX  11031 76393 31920 01401 10152 20058 39574 40145 52004 70500 90250 333 30/// 59031;
0223763930999992012011106004+25733-100300FM-12+051599999V0203001N001012200019N0020001N1+01181+00471101521ADDGA1001+999999999GF100991001001999999001001GJ105409IA1019KA1240M+02401KA2240N+00601MA1999999095781MD1210041-0361REMSYN100AAXX  11061 76393 32920 03001 10118 20047 39578 40152 52004 90550 333 10240 20060 30/// 55090 59036;
0171763930999992012011109004+25733-100300FM-12+051599999V0202401N001012200019N0020001N1+01061+00271101391ADDGA1001+999999999GF100991001001999999001001IA1019MA1999999095601MD1710181-0541REMSYN082AAXX  11091 76393 32920 02401 10106 20027 39560 40139 57018 90850 333 30/// 59054;
0245763930999992012011112004+25733-100300FM-12+051599999V0202901N001012200019N0020001N1+01021+00171101401ADDAA124000091GA1001+999999999GF100991001001999999001001IA1019KA1240M+02401KA2120N+00821MA1999999095571MD1710031-0601REMSYN100AAXX  11121 76393 32920 02901 10102 20017 39557 40140 57003 91150 333 10240 20082 30076 59060 70000;EQDQ01  00002PRCP24
0171763930999992012011115004+25733-100300FM-12+051599999V0202101N001012200019N0050001N1+01481+00261101491ADDGA1001+999999999GF100991001001999999001001IA1019MA1999999095631MD1210061-0561REMSYN082AAXX  11151 76393 32950 02101 10148 20026 39563 40149 52006 91455 333 30/// 59056;
0209763930999992012011118004+25733-100300FM-12+051599999V0201101N001012200019N0050001N1+02271+00531101331ADDGA1001+999999999GF100991001001999999001001IA1019KA1120M+02371KA2240N+00821MA1999999095501MD1710131-0501REMSYN094AAXX  11181 76393 32950 01101 10227 20053 39550 40133 57013 91745 333 10237 20082 30/// 59050;
0171763930999992012011121004+25733-100300FM-12+051599999V0201201N003012200019N0050001N1+02741+00391100881ADDGA1001+999999999GF100991001001999999001001IA1019MA1999999095171MD1710331-0521REMSYN082AAXX  11211 76393 32950 01203 10274 20039 39517 40088 57033 92045 333 30/// 59052;
0284763930999992012011200004+25733-100300FM-12+051599999V0202101N001012200019N0050001N1+02541+00381100731ADDGA1091+030001001GF109991091001999999011999IA1019KA1120M+02901KA2180N+00821MA1999999095101MD1710021+9999REMSYN118AAXX  12001 76393 32950 12101 10254 20038 39510 40073 57002 81010 92345 333 10290 20082 30/// 50431 56050 89060 70000;EQDQ01+000012SCOTCVQ02+000012SCOTLCQ03+000002SCOHCG
0199763930999992012011203004+25733-100300FM-12+051599999V0202201N001012200019N0020001N1+02001+00261100711ADDAY101031AY201031GA1001+999999999GF100991001001999999001001IA1019MA1999999095121MD1210021-0621MW1041REMSYN088AAXX  12031 76393 31920 02201 10200 20026 39512 40071 52002 70400 90251 333 30/// 59062;
0251763930999992012011206004+25733-100300FM-12+051599999V0203501N001012200019N0020001N1+01541+00151100851ADDAY101061AY201061GA1001+999999999GF100991001001999999001001GJ105709IA1019KA1240M+02901KA2240N+00821MA1999999095241MD1210121-0541MW1041REMSYN106AAXX  12061 76393 31920 03501 10154 20015 39524 40085 52012 70400 90551 333 10290 20082 30/// 55095 59054;
0171763930999992012011209004+25733-100300FM-12+051599999V0202501N001012200019N0020001N1+01221+00281101041ADDGA1001+999999999GF100991001001999999001001IA1019MA1999999095361MD1210121-0241REMSYN082AAXX  12091 76393 32920 02501 10122 20028 39536 40104 52012 90851 333 30/// 59024;
0289763930999992012011212004+25733-100300FM-12+051599999V0203601N001012200019N0010001N1+01281+00311101682ADDAA124000091AY101061AY201061GA1001+999999999GF100991001001999999001001IA1019KA1240M+02901KA2120N+01041MA1999999095901MD1210541+0331MW1061REMSYN106AAXX  12121 76393 31910 03601 10128 20031 39590 40168 52054 70600 91149 333 10290 20104 30096 58033 70000;EQDQ01+101683APOSLPQ02  00002PRCP24
0199763930999992012011215004+25733-100300FM-12+051599999V0200601N002012200019N0030001N1+01081+00301102341ADDAY101031AY201031GA1001+999999999GF100991001001999999001001IA1019MA1999999096471MD1210571+0841MW1051REMSYN088AAXX  12151 76393 31930 00602 10108 20030 39647 40234 52057 70500 91450 333 30/// 58084;
0249763930999992012011218004+25733-100300FM-12+051599999V0200401N003012200019N0030001N1+01281+00161102461ADDAY101061AY201061GA1001+999999999GF100991001001999999001001IA1019KA1120M+01361KA2240N+01041MA1999999096561MD1210091+1061MW1051REMSYN112AAXX  12181 76393 31930 00403 10128 20016 39656 40246 52009 70500 80008 91750 333 10136 20104 30/// 56007 58106;
0189763930999992012011221004+25733-100300FM-12+051599999V0200201N005010390019N0040001N1+01221-00091102281ADDGA1061+039001031GF106991061001999999071001IA1019MA1999999096391MD1710171+0221REMSYN100AAXX  12211 76393 32940 60205 10122 21009 39639 40228 57017 86070 92045 333 30/// 56070 58022 86363;
0262763930999992012011300004+25733-100300FM-12+051599999V0200501N003019999999N0030001N1+01001-00121102401ADDAA124000091AY121061AY221061GF107991071001999999071999IA1019KA1120M+01491KA2180N+00961MA1999999096501MD1210111+1401MW1051REMSYN130AAXX  13001 76393 31930 70503 10100 21012 39650 40240 52011 70522 8707/ 92350 333 10149 20096 30/// 50601 56070 58140 70000 87360;
0195763930999992012011303004+25733-100300FM-12+051599999V0203301N001012200019N0020001N1+00861-00201102541ADDAY101031AY201031GF102991021001999999031001IA1019MA1999999096621MD1210121+1501MW1041REMSYN100AAXX  13031 76393 31920 23301 10086 21020 39662 40254 52012 70400 82030 90250 333 30/// 56070 58150;
0251763930999992012011306004+25733-100300FM-12+051599999V0202901N001012200019N0020001N1+00701+00021102531ADDAY101061AY201061GA1001+999999999GF100991001001999999001001GJ102589IA1019KA1240M+01491KA2240N+00661MA1999999096581MD1710041+1341MW1041REMSYN106AAXX  13061 76393 31920 02901 10070 20002 39658 40253 57004 70400 90551 333 10149 20066 30/// 55043 58134;
0171763930999992012011309004+25733-100300FM-12+051599999V0202201N001012200019N0020001N1+00601-00091102471ADDGA1001+999999999GF100991001001999999001001IA1019MA1999999096491MD1710091+1131REMSYN082AAXX  13091 76393 32920 02201 10060 21009 39649 40247 57009 90850 333 30/// 58113;
0257763930999992012011312004+25733-100300FM-12+051599999V0203401N001012200019N0020001N1+00501-00211102581ADDAA124000091GA1001+999999999GF100991001001999999001001IA1019IA2999+00389KA1240M+01491KA2120N+00401MA1999999096561MD1210071+0661REMSYN100AAXX  13121 76393 32920 03401 10050 21021 39656 40258 52007 91150 333 10149 20040 30038 58066 70000;EQDQ01  00002PRCP24
0217763930999992012011315004+25733-100300FM-12+051599999V0200401N001010900019N0030001N1+00801-00171102781ADDAY121031AY221031GA1071+090001001GF107991001001999999001031IA1019MA1999999096751MD1210191+0281MW1041REMSYN106AAXX  13151 76393 31930 70401 10080 21017 39675 40278 52019 70422 80003 91455 333 30/// 56007 58028 87080;
0255763930999992012011318004+25733-100300FM-12+051599999V0201101N001010900019N0040001N1+01161-00181102661ADDAY121061AY221061GA1071+090001001GF107991001001999999001051IA1019KA1120M+01251KA2240N+00401MA1999999096651MD1710101+0091MW1041REMSYN118AAXX  13181 76393 31940 71101 10116 21018 39665 40266 57010 70422 80005 91755 333 10125 20040 30/// 56007 58009 87080;
0195763930999992012011321004+25733-100300FM-12+051599999V0201201N002012200019N0050001N1+01361+00111102411ADDAY101031AY201031GF103991001001999999001081IA1019MA1999999096441MD1710211+0051MW1051REMSYN100AAXX  13211 76393 31950 31202 10136 20011 39644 40241 57021 70500 80008 92050 333 30/// 56005 58005;
0234763930999992012011400004+25733-100300FM-12+051599999V0201201N002019999999N0060001N1+01201-00071102461ADDAA124000091GF106991061001999999031001IA1019KA1120M+01501KA2180N+00401MA1999999096521MD1210081+0021REMSYN124AAXX  14001 76393 32956 61202 10120 21007 39652 40246 52008 86030 92350 333 10150 20040 30/// 50301 56050 58002 70000 86361;
0171763930999992012011403004+25733-100300FM-12+051599999V0200601N001012200019N0020001N1+01001-00181102641ADDGA1001+999999999GF100991001001999999001001IA1019MA1999999096721MD1210201+0101REMSYN082AAXX  14031 76393 32920 00601 10100 21018 39672 40264 52020 90252 333 30/// 58010;
0219763930999992012011406004+25733-100300FM-12+051599999V0202901N001012200019N0020001N1+00781-00031102691ADDGF102991021001999999011001GJ105109IA1019KA1240M+01501KA2240N+00401MA1999999096761MD1210041+9999REMSYN112AAXX  14061 76393 32920 22901 10078 21003 39676 40269 52004 82010 90550 333 10150 20040 30/// 55085 56050 58018;
0171763930999992012011409004+25733-100300FM-12+051599999V0201801N001012200019N0020001N1+00761-00061102761ADDGA1001+999999999GF100991001001999999001001IA1019MA1999999096801MD1210041+0311REMSYN082AAXX  14091 76393 32920 01801 10076 21006 39680 40276 52004 90850 333 30/// 58031;
0257763930999992012011412004+25733-100300FM-12+051599999V0201401N001012200019N0020001N1+00661+00021102831ADDAA124000091GA1001+999999999GF100991001001999999001001IA1019IA2999+00429KA1240M+01501KA2120N+00501MA1999999096831MD1210031+0271REMSYN100AAXX  14121 76393 32920 01401 10066 20002 39683 40283 52003 91145 333 10150 20050 30042 58027 70000;EQDQ01  00002PRCP24
0217763930999992012011415004+25733-100300FM-12+051599999V0201601N001019999999N0030001N1+00901-00121103051ADDAY121031AY221031GA1041+036001031GF107991041001999999041051IA1019MA1999999097021MD1210191+0271MW1041REMSYN106AAXX  14151 76393 31930 71601 10090 21012 39702 40305 52019 70422 84045 91455 333 30/// 56017 58027 84362;
0255763930999992012011418004+25733-100300FM-12+051599999V0200701N001010900019N0030001N1+01511+00131103001ADDAY121061AY221061GA1071+090001001GF107991001001999999001061IA1019KA1120M+01571KA2240N+00501MA1999999097001MD1710021+0371MW1041REMSYN118AAXX  14181 76393 31930 70701 10151 20013 39700 40300 57002 70422 80006 91755 333 10157 20050 30/// 56001 58037 87080;
0217763930999992012011421004+25733-100300FM-12+051599999V0200601N002011050019N0040001N1+01721+00211102601ADDAY121031AY221031GA1071+105001001GF107991001001999999001061IA1019MA1999999096671MD1710331+0231MW1051REMSYN106AAXX  14211 76393 31940 70602 10172 20021 39667 40260 57033 70522 80006 92050 333 30/// 56005 58023 87081;
0217763930999992012011500004+25733-100300FM-12+051599999V0201201N003012200019N0050001N1+01721+00091102541ADDGF104991001001999999001061IA1019KA1120M+01921KA2180N+00501MA1999999096671MD1410001+0151REMSYN118AAXX  15001 76393 32950 41203 10172 20009 39667 40254 54000 80006 92352 333 10192 20050 30/// 50221 56005 58015 70000;
0199763930999992012011503004+25733-100300FM-12+051599999V0200601N001012200019N0020001N1+01441+00431102651ADDAY101031AY201031GA1001+999999999GF100991001001999999001001IA1019MA1999999096811MD1210141+0091MW1051REMSYN088AAXX  15031 76393 31920 00601 10144 20043 39681 40265 52014 70500 90250 333 30/// 58009;
0251763930999992012011506004+25733-100300FM-12+051599999V0200201N002012200019N0020001N1+01261+00481102631ADDAY101061AY201061GA1001+999999999GF100991001001999999001001GJ103549IA1019KA1240M+01921KA2240N+00501MA1999999096781MD1710031+0021MW1051REMSYN106AAXX  15061 76393 31920 00202 10126 20048 39678 40263 57003 70500 90550 333 10192 20050 30/// 55059 58002;
0189763930999992012011509004+25733-100300FM-12+051599999V0201801N001012200019N0020001N1+01041+00621102541ADDGA1021+005101061GF102991021051004501001001IA1019MA1999999096671MD1710111-0131REMSYN100AAXX  15091 76393 32420 21801 10104 20062 39667 40254 57011 82500 90850 333 30/// 56300 59013 82617;
0269763930999992012011512004+25733-100300FM-12+051599999V0202301N001012200019N0010001N1+00901+00591102521ADDAA124000091AY101061AY201061GF101991011001999999021001IA1019KA1240M+01921KA2120N+00801MA1999999096621MD1710051-0211MW1041REMSYN118AAXX  15121 76393 31910 12301 10090 20059 39662 40252 57005 70400 81020 91150 333 10192 20080 30076 56030 59021 70000;EQDQ01  00002PRCP24
0217763930999992012011515004+25733-100300FM-12+051599999V0202401N001010900019N0020001N1+01211+00531102671ADDAY121031AY221031GA1021+008401061GF105991021051008001041011IA1019MA1999999096731MD1210111-0291MW1041REMSYN106AAXX  15151 76393 31520 52401 10121 20053 39673 40267 52011 70422 82541 91455 333 30/// 56475 59029 82628;
0255763930999992012011518004+25733-100300FM-12+051599999V0200601N001012200019N0020001N1+01741+01061102551ADDAY111061AY211061GA1021+008401061GF102991021051008001001001IA1019KA1120M+01831KA2240N+00801MA1999999096641MD1710091-0351MW1041REMSYN118AAXX  15181 76393 31520 20601 10174 20106 39664 40255 57009 70411 82500 91750 333 10183 20080 30/// 56400 59035 82628;
0217763930999992012011521004+25733-100300FM-12+051599999V0200601N003012200019N0010001N1+01881+01331102151ADDAY141031AY241031GA1021+006901061GF103991021051008001011001IA1019MA1999999096301MD1710341-0371MW1051REMSYN106AAXX  15211 76393 31510 30603 10188 20133 39630 40215 57034 70544 82510 92045 333 30/// 56330 59037 82623;
0262763930999992012011600004+25733-100300FM-12+051599999V0200601N002012200019N0020001N1+01821+01411102021ADDAA124000091AY141061AY241061GF101991011051004501001001IA1019KA1120M+02081KA2180N+00801MA1999999096221MD1710081-0451MW1051REMSYN130AAXX  16001 76393 31420 10602 10182 20141 39622 40202 57008 70544 81500 92350 333 10208 20080 30/// 50211 56500 59045 70000 81617;
0217763930999992012011603004+25733-100300FM-12+051599999V0200801N001012200019N0020001N1+01621+01461102091ADDAY111031AY211031GA1041+002101061GF104991041051001501001001IA1019MA1999999096321MD1210101-0491MW1041REMSYN106AAXX  16031 76393 31220 40801 10162 20146 39632 40209 52010 70411 84500 90251 333 30/// 56500 59049 84607;
0247763930999992012011606004+25733-100300FM-12+051599999V0209999C000012200019N0020001N1+01621+01431102031ADDAY101061AY201061GF102991021001999999011001GJ105169IA1019KA1240M+02081KA2240N+00801MA1999999096271MD1710051+9999MW1051REMSYN118AAXX  16061 76393 31920 20000 10162 20143 39627 40203 57005 70500 82010 90550 333 10208 20080 30/// 55086 56050 59051;
0199763930999992012011609004+25733-100300FM-12+051599999V0202701N001012200019N0020001N1+01381+01211101911ADDAY101031AY201031GA1001+999999999GF100991001001999999001001IA1019MA1999999096131MD1710141-0541MW1051REMSYN088AAXX  16091 76393 31920 02701 10138 20121 39613 40191 57014 70500 90850 333 30/// 59054;
0272763930999992012011612004+25733-100300FM-12+051599999V0202501N001012200019N0020001N1+01321+01111101921ADDAA124000091AY101061AY201061GA1031+033001041GF103991031001999999011001IA1019KA1240M+02081KA2120N+01281MA1999999096111MD1710021-0511MW1051REMSYN124AAXX  16121 76393 31920 32501 10132 20111 39611 40192 57002 70500 83010 91150 333 10208 20128 30116 56050 59051 70000 83461;
0217763930999992012011615004+25733-100300FM-12+051599999V0202101N001012200019N0020001N1+01561+01231102011ADDAY111031AY211031GA1021+004201061GF103991021051004501001021IA1019MA1999999096211MD1210101-0521MW1041REMSYN106AAXX  16151 76393 31420 32101 10156 20123 39621 40201 52010 70411 82502 91455 333 30/// 56305 59052 82614;
0261763930999992012011618004+25733-100300FM-12+051599999V0201101N00101220001CN0020001N1+02311+01471101961ADDAY121061AY221061GA1011+010201081GF106991011021012501001041IA1019KA1120M+02371KA2240N+01281MA1999999096161MD1710051-0481MW1041REMSYN124AAXX  16181 76393 31620 61101 10231 20147 39616 40196 57005 70422 81204 91755 333 10237 20128 30/// 56305 59048 81834 85080;
0223763930999992012011621004+25733-100300FM-12+051599999V0201201N00301036001CN0020001N1+02661+01641101491ADDAY141031AY241031GA1011+012601061GF108991011041012501011071IA1019MA1999999095781MD1710381-0521MW1041REMSYN112AAXX  16211 76393 31620 81203 10266 20164 39578 40149 57038 70444 81417 92045 333 30/// 56535 59052 81642 86270;
0262763930999992012011700004+25733-100300FM-12+051599999V0200501N002010360019N0030001N1+02541+01351101391ADDAA124000091AY121061AY221061GF107991011051012501011071IA1019KA1120M+02801KA2180N+01281MA1999999095741MD1710041-0481MW1051REMSYN130AAXX  17001 76393 31630 70502 10254 20135 39574 40139 57004 70522 81517 92345 333 10280 20128 30/// 50351 56535 59048 70000 81649;
0199763930999992012011703004+25733-100300FM-12+051599999V0203101N001012200019N0020001N1+02161+01371101511ADDAY101031AY201031GA1001+999999999GF100991001001999999001001IA1019MA1999999095891MD1210151-0431MW1041REMSYN088AAXX  17031 76393 31920 03101 10216 20137 39589 40151 52015 70400 90251 333 30/// 59043;
0251763930999992012011706004+25733-100300FM-12+051599999V0201901N001012200019N0020001N1+01761+01371101481ADDAY101061AY201061GA1001+999999999GF100991001001999999001001GJ102649IA1019KA1240M+02801KA2240N+01281MA1999999095851MD1710041-0421MW1041REMSYN106AAXX  17061 76393 31920 01901 10176 20137 39585 40148 57004 70400 90552 333 10280 20128 30/// 55044 59042;
0171763930999992012011709004+25733-100300FM-12+051599999V0202701N001012200019N0020001N1+01541+01281101481ADDGA1001+999999999GF100991001001999999001001IA1019MA1999999095811MD1710041-0321REMSYN082AAXX  17091 76393 32920 02701 10154 20128 39581 40148 57004 90850 333 30/// 59032;
0273763930999992012011712004+25733-100300FM-12+051599999V0202401N002012200019N0020001N1+01601+01051101541ADDAA124000091AY101061AY201061GA1001+999999999GF100991001001999999001001IA1019KA1240M+02801KA2120N+01501MA1999999095811MD1410001-0301MW1041REMSYN106AAXX  17121 76393 31920 02402 10160 20105 39581 40154 54000 70400 91150 333 10280 20150 30144 59030 70000;EQDQ01  00002PRCP24
0195763930999992012011715004+25733-100300FM-12+051599999V0202001N001019999999N0020001N1+02201+00951101741ADDAY121031AY221031GF105991011001999999041021IA1019MA1999999095991MD1210181-0211MW1041REMSYN100AAXX  17151 76393 31920 52001 10220 20095 39599 40174 52018 70422 81042 91455 333 30/// 56055 59021;
0255763930999992012011718004+25733-100300FM-12+051599999V0202101N001012200019N0030001N1+03121+00791101671ADDAY121061AY221061GA1011+024001081GF104991011021999999001011IA1019KA1120M+03251KA2240N+01501MA1999999095961MD1710031-0201MW1041REMSYN118AAXX  17181 76393 31930 42101 10312 20079 39596 40167 57003 70422 81201 91745 333 10325 20150 30/// 56505 59020 81858;
0217763930999992012011721004+25733-100300FM-12+051599999V0200201N00301036001CN0040001N1+03221+00911101301ADDAY121031AY221031GA1011+024001081GF106991011041022501041081IA1019MA1999999095701MD1710261-0081MW1041REMSYN106AAXX  17211 76393 31840 60203 10322 20091 39570 40130 57026 70422 81448 92048 333 30/// 56555 59008 81858;
0262763930999992012011800004+25733-100300FM-12+051599999V0200201N006019999999N0040001N1+02621+00971101471ADDAA124000091AY121061AY221061GF105991031001999999011081IA1019KA1120M+03561KA2180N+01501MA1999999095911MD1210211+0171MW1041REMSYN130AAXX  18001 76393 31940 50206 10262 20097 39591 40147 52021 70422 83018 92350 333 10356 20150 30/// 50421 56055 58017 70000 83460;
0199763930999992012011803004+25733-100300FM-12+051599999V0203201N002012200019N0020001N1+02261+01231101761ADDAY101031AY201031GA1001+999999999GF100991001001999999001001IA1019MA1999999096201MD1210291+0311MW1051REMSYN088AAXX  18031 76393 31920 03202 10226 20123 39620 40176 52029 70500 90250 333 30/// 58031;
0223763930999992012011806004+25733-100300FM-12+051599999V0203201N003012200019N0020001N1+02061+01221101901ADDGA1001+999999999GF100991001001999999001001GJ105349IA1019KA1240M+03561KA2240N+01501MA1999999096301MD1210101+0451REMSYN100AAXX  18061 76393 32920 03203 10206 20122 39630 40190 52010 90550 333 10356 20150 30/// 55089 58045;
0217763930999992012011809004+25733-100300FM-12+051599999V0203601N001012200019N0020001N1+01761+01201101971ADDAY101031AY201031GA1021+006901061GF102991021051008001001001IA1019MA1999999096301MD1410001+0491MW1041REMSYN106AAXX  18091 76393 31520 23601 10176 20120 39630 40197 54000 70400 82500 90850 333 30/// 56300 58049 82623;
0272763930999992012011812004+25733-100300FM-12+051599999V0200201N002010300019N0020001N1+01661+01081102111ADDAA124000091AY121061AY221061GA1081+030001041GF108991081001999999021001IA1019KA1240M+03561KA2120N+01601MA1999999096391MD1210091+0581MW1041REMSYN124AAXX  18121 76393 31920 80202 10166 20108 39639 40211 52009 70422 88020 91150 333 10356 20160 30156 56070 58058 70000 88460;
0223763930999992012011815004+25733-100300FM-12+051599999V0200201N00101012001CN0020001N1+01611+00661102381ADDAY121031AY221031GA1041+011101061GF108991081061012501999999IA1019MA1999999096611MD1210241+0621MW1041REMSYN112AAXX  18151 76393 31620 80201 10161 20066 39661 40238 52024 70422 886// 91455 333 30/// 567// 58062 84637 84838;
0261763930999992012011818004+25733-100300FM-12+051599999V0200201N001010081019N0020001N1+01801+01131102381ADDAY121061AY221061GA1051+008101061GF108991051051008001011001IA1019KA1120M+01831KA2240N+01551MA1999999096581MD1710031+0621MW1041REMSYN124AAXX  18181 76393 31520 80201 10180 20113 39658 40238 57003 70422 85510 91745 333 10183 20155 30/// 56550 58062 85627 83360;
0223763930999992012011821004+25733-100300FM-12+051599999V0201201N00301036001CN0030001N1+02001+00811102021ADDAY121031AY221031GA1011+014701061GF107991011041012501071081IA1019MA1999999096251MD1710331+0551MW1041REMSYN112AAXX  18211 76393 31630 71203 10200 20081 39625 40202 57033 70422 81478 92045 333 30/// 56537 58055 81649 84360;
0262763930999992012011900004+25733-100300FM-12+051599999V0201201N003019999999N0040001N1+01761+00801101971ADDAA124000091AY121061AY221061GF106991041001999999071081IA1019KA1120M+02161KA2180N+01551MA1999999096211MD1710041+0301MW1041REMSYN130AAXX  19001 76393 31940 61203 10176 20080 39621 40197 57004 70422 84078 92350 333 10216 20155 30/// 50611 56037 58030 70000 84360;
0195763930999992012011903004+25733-100300FM-12+051599999V0200801N002012200019N0020001N1+01481+00671101941ADDAY101031AY201031GF102991021001999999011001IA1019MA1999999096181MD1710031-0021MW1041REMSYN100AAXX  19031 76393 31920 20802 10148 20067 39618 40194 57003 70400 82010 90253 333 30/// 56070 59002;
0251763930999992012011906004+25733-100300FM-12+051599999V0202501N001012200019N0020001N1+01361+00691101831ADDAY101061AY201061GA1001+999999999GF100991001001999999001001GJ102109IA1019KA1240M+02161KA2240N+01301MA1999999096061MD1710121-0241MW1041REMSYN106AAXX  19061 76393 31920 02501 10136 20069 39606 40183 57012 70400 90552 333 10216 20130 30/// 55035 59024;
0171763930999992012011909004+25733-100300FM-12+051599999V0202001N001012200019N0020001N1+01201+00701101771ADDGA1001+999999999GF100991001001999999001001IA1019MA1999999095961MD1710101-0341REMSYN082AAXX  19091 76393 32920 02001 10120 20070 39596 40177 57010 90850 333 30/// 59034;
0245763930999992012011912004+25733-100300FM-12+051599999V0202101N001012200019N0020001N1+01141+00771101701ADDAA124000091GA1001+999999999GF100991001001999999001001IA1019KA1240M+02161KA2120N+01101MA1999999095871MD1710091-0521REMSYN100AAXX  19121 76393 32920 02101 10114 20077 39587 40170 57009 91150 333 10216 20110 30098 59052 70000;EQDQ01  00002PRCP24
0195763930999992012011915004+25733-100300FM-12+051599999V0202801N001012200019N0030001N1+01561+00931101801ADDAY101031AY201031GF104991021001999999011041IA1019MA1999999095951MD1210081-0661MW1041REMSYN100AAXX  19151 76393 31930 42801 10156 20093 39595 40180 52008 70400 82014 91450 333 30/// 56037 59066;
0233763930999992012011918004+25733-100300FM-12+051599999V0201201N001012200019N0010001N1+02421+01161101651ADDAY101061AY201061GF102991001001999999001081IA1019KA1120M+02501KA2240N+01101MA1999999095851MD1710101-0731MW1041REMSYN112AAXX  19181 76393 31910 21201 10242 20116 39585 40165 57010 70400 80008 91750 333 10250 20110 30/// 56007 59073;
0217763930999992012011921004+25733-100300FM-12+051599999V0201101N002019999999N0020001N1+02901+01151101161ADDAY141031AY241031GA1031+030001041GF107991031001999999011081IA1019MA1999999095471MD1710381-0781MW1051REMSYN106AAXX  19211 76393 31920 71102 10290 20115 39547 40116 57038 70544 83018 92045 333 30/// 56037 59078 83460;
0262763930999992012012000004+25733-100300FM-12+051599999V0201201N003019999999N0040001N1+02661+01071101001ADDAA124000091AY121061AY221061GF108991051001999999021081IA1019KA1120M+03061KA2180N+01101MA1999999095391MD1710051-0821MW1041REMSYN130AAXX  20001 76393 31940 81203 10266 20107 39539 40100 57005 70422 85028 92345 333 10306 20110 30/// 50271 56055 59082 70000 85460;
0217763930999992012012003004+25733-100300FM-12+051599999V0200401N002012200019N0020001N1+02241+01211101041ADDAY101031AY201031GA1031+033001031GF103991031001999999031001IA1019MA1999999095481MD1210091-0701MW1041REMSYN106AAXX  20031 76393 31920 30402 10224 20121 39548 40104 52009 70400 83030 90252 333 30/// 56070 59070 83361;
0247763930999992012012006004+25733-100300FM-12+051599999V0209999C000012200019N0020001N1+01841+01321101011ADDAY101061AY201061GF101991011001999999031001GJ104869IA1019KA1240M+03061KA2240N+01101MA1999999095431MD1710051+9999MW1041REMSYN118AAXX  20061 76393 31920 10000 10184 20132 39543 40101 57005 70400 81030 90551 333 10306 20110 30/// 55081 56070 59063;
0273763930999992012012012004+25733-100300FM-12+051599999V0202301N001012200019N0010001N1+01661+01121100911ADDAA124000091AY101061AY201061GA1001+999999999GF100991001001999999001001IA1019KA1240M+03061KA2120N+01501MA1999999095241MD1710161-0631MW1041REMSYN106AAXX  20121 76393 31910 02301 10166 20112 39524 40091 57016 70400 91150 333 10306 20150 30144 59063 70000;EQDQ01  00002PRCP24
0217763930999992012012015004+25733-100300FM-12+051599999V0202701N001010750019N0020001N1+02141+01081101091ADDAY121031AY221031GA1061+075001001GF107991011001999999031041IA1019MA1999999095371MD1210131-0581MW1041REMSYN106AAXX  20151 76393 31920 72701 10214 20108 39537 40109 52013 70422 81034 91455 333 30/// 56055 59058 86075;
0233763930999992012012018004+25733-100300FM-12+051599999V0200901N001012200019N0030001N1+02871+01091101051ADDAY111061AY211061GF101991001001999999001081IA1019KA1120M+02981KA2240N+01501MA1999999095381MD1210011-0471MW1041REMSYN112AAXX  20181 76393 31930 10901 10287 20109 39538 40105 52001 70411 80008 91755 333 10298 20150 30/// 56007 59047;
0195763930999992012012021004+25733-100300FM-12+051599999V0201201N003012200019N0030001N1+03301+01261100681ADDAY101031AY201031GF102991001001999999001081IA1019MA1999999095091MD1710281-0381MW1041REMSYN100AAXX  20211 76393 31930 21203 10330 20126 39509 40068 57028 70400 80008 92050 333 30/// 56005 59038;
0262763930999992012012100004+25733-100300FM-12+051599999V0201201N004019999999N0040001N1+02981+01141100651ADDAA124000091AY121061AY221061GF105991031001999999021011IA1019KA1120M+03381KA2180N+01501MA1999999095141MD1210051-0251MW1041REMSYN130AAXX  21001 76393 31940 51204 10298 20114 39514 40065 52005 70422 83021 92350 333 10338 20150 30/// 50591 56077 59025 70000 83460;
0195763930999992012012103004+25733-100300FM-12+051599999V0200901N001012200019N0020001N1+02481+01421100841ADDAY101031AY201031GF102991021001999999011001IA1019MA1999999095351MD1210211-0131MW1041REMSYN100AAXX  21031 76393 31920 20901 10248 20142 39535 40084 52021 70400 82010 90252 333 30/// 56070 59013;
0253763930999992012012106004+25733-100300FM-12+051599999V0202201N001012200019N0020001N1+02241+01281100941ADDAY101061AY201061GF103991031001999999011001GJ105409IA1019KA1240M+03381KA2240N+01501MA1999999095421MD1210071-0011MW1041REMSYN124AAXX  21061 76393 31920 32201 10224 20128 39542 40094 52007 70400 83010 90551 333 10338 20150 30/// 55090 56070 59001 83460;
0199763930999992012012109004+25733-100300FM-12+051599999V0201801N001012200019N0010001N1+01961+01241100991ADDAY101031AY201031GA1001+999999999GF100991001001999999001001IA1019MA1999999095421MD1410001+0021MW1041REMSYN088AAXX  21091 76393 31910 01801 10196 20124 39542 40099 54000 70400 90850 333 30/// 58002;
0273763930999992012012112004+25733-100300FM-12+051599999V0202301N002012200019N0010001N1+01801+00731101071ADDAA124000091AY101061AY201061GA1001+999999999GF100991001001999999001001IA1019KA1240M+03381KA2120N+01741MA1999999095431MD1210011+0191MW1041REMSYN106AAXX  21121 76393 31910 02302 10180 20073 39543 40107 52001 70400 91150 333 10338 20174 30166 58019 70000;EQDQ01  00002PRCP24
0195763930999992012012115004+25733-100300FM-12+051599999V0202701N001012200019N0030001N1+01981+00651101301ADDAY111031AY211031GF103991011001999999031051IA1019MA1999999095621MD1210191+0251MW1041REMSYN100AAXX  21151 76393 31930 32701 10198 20065 39562 40130 52019 70411 81035 91455 333 30/// 56055 58025;
0239763930999992012012118004+25733-100300FM-12+051599999V0203401N001012200019N0030001N1+02981+01121101371ADDAY111061AY211061GF103991001001999999001081IA1019KA1120M+03011KA2240N+01741MA1999999095701MD1210081+9999MW1041REMSYN118AAXX  21181 76393 31930 33401 10298 20112 39570 40137 52008 70411 80008 91755 333 10301 20174 30/// 54207 56005 58032;
0217763930999992012012121004+25733-100300FM-12+051599999V0201101N003019999999N0040001N1+03041+01311101031ADDAY121031AY221031GA1041+030001041GF107991041001999999021081IA1019MA1999999095441MD1710271+0351MW1041REMSYN106AAXX  21211 76393 31940 71103 10304 20131 39544 40103 57027 70422 84028 92045 333 30/// 56055 58035 84460;
0262763930999992012012200004+25733-100300FM-12+051599999V0201101N004019999999N0030001N1+02601+01571100911ADDAA124000091AY121061AY221061GF107991031001999999011081IA1019KA1120M+03161KA2180N+01741MA1999999095361MD1710081+0221MW1041REMSYN130AAXX  22001 76393 31930 71104 10260 20157 39536 40091 57008 70422 83018 92345 333 10316 20174 30/// 50581 56055 58022 70000 84460;
0195763930999992012012203004+25733-100300FM-12+051599999V0201201N003012200019N0020001N1+02261+01551101001ADDAY101031AY201031GF102991021001999999011001IA1019MA1999999095461MD1210101+0111MW1041REMSYN100AAXX  22031 76393 31920 21203 10226 20155 39546 40100 52010 70400 82010 90250 333 30/// 56070 58011;
0251763930999992012012206004+25733-100300FM-12+051599999V0203101N001012200019N0020001N1+02001+01601100931ADDAY101061AY201061GA1001+999999999GF100991001001999999001001GJ104689IA1019KA1240M+03161KA2240N+01741MA1999999095371MD1710091-0051MW1041REMSYN106AAXX  22061 76393 31920 03101 10200 20160 39537 40093 57009 70400 90550 333 10316 20174 30/// 55078 59005;
0199763930999992012012209004+25733-100300FM-12+051599999V0201101N001012200019N0010001N1+01901+01531100861ADDAY101031AY201031GA1001+999999999GF100991001001999999001001IA1019MA1999999095251MD1710121+0171MW1041REMSYN088AAXX  22091 76393 31910 01101 10190 20153 39525 40086 57012 70400 90850 333 30/// 58017;
0273763930999992012012212004+25733-100300FM-12+051599999V0202501N001012200019N0010001N1+01721+01431100861ADDAA124000091AY101061AY201061GA1001+999999999GF100991001001999999001001IA1019KA1240M+03161KA2120N+01661MA1999999095211MD1710041+0221MW1041REMSYN106AAXX  22121 76393 31910 02501 10172 20143 39521 40086 57004 70400 91150 333 10316 20166 30156 58022 70000;EQDQ01  00002PRCP24
0217763930999992012012215004+25733-100300FM-12+051599999V0202501N001019999999N0010001N1+01961+01391100951ADDAY141031AY241031GA1041+030001041GF108991041001999999011081IA1019MA1999999095271MD1210061-0351MW1051REMSYN106AAXX  22151 76393 31910 82501 10196 20139 39527 40095 52006 70544 84018 91445 333 30/// 56055 59035 84460;
0245763930999992012012218004+25733-100300FM-12+051599999V0201101N004019999999N0020001N1+02621+01531100881ADDAY141061AY241061GF107991041001999999011081IA1019KA1120M+02801KA2240N+01661MA1999999095221MD1710051-0491MW1051REMSYN124AAXX  22181 76393 31920 71104 10262 20153 39522 40088 57005 70544 84018 91745 333 10280 20166 30/// 54106 56055 59049 84460;
0217763930999992012012221004+25733-100300FM-12+051599999V0201101N001010750019N0030001N1+03101+01091100661ADDAY141031AY241031GA1051+075001011GF107991021001999999011091IA1019MA1999999095061MD1710161-0381MW1051REMSYN106AAXX  22211 76393 31930 71101 10310 20109 39506 40066 57016 70544 82019 92055 333 30/// 56055 59038 85175;
0262763930999992012012300004+25733-100300FM-12+051599999V0201301N001019999999N0040001N1+02811+01541100701ADDAA124000091AY141061AY241061GF107991021001999999011061IA1019KA1120M+03231KA2180N+01661MA1999999095151MD1210091-0211MW1041REMSYN130AAXX  23001 76393 31940 71301 10281 20154 39515 40070 52009 70444 82016 92350 333 10323 20166 30/// 50561 56035 59021 70000 85080;
0171763930999992012012303004+25733-100300FM-12+051599999V0203101N001012200019N0020001N1+02261+01521100951ADDGA1001+999999999GF100991001001999999001001IA1019MA1999999095421MD1210271-0041REMSYN082AAXX  23031 76393 32920 03101 10226 20152 39542 40095 52027 90251 333 30/// 59004;
0223763930999992012012306004+25733-100300FM-12+051599999V0209999C000012200019N0020001N1+01961+01421101061ADDGA1001+999999999GF100991001001999999001001GJ102169IA1019KA1240M+03231KA2240N+01661MA1999999095501MD1210081+0131REMSYN100AAXX  23061 76393 32920 00000 10196 20142 39550 40106 52008 90550 333 10323 20166 30/// 55036 58013;
0217763930999992012012309004+25733-100300FM-12+051599999V0209999C000012200019N0010001N1+01861+01381101141ADDAY101031AY201031GA1041+030001031GF104991041001999999041001IA1019MA1999999095531MD1210031+0271MW1051REMSYN106AAXX  23091 76393 31910 40000 10186 20138 39553 40114 52003 70500 84040 90850 333 30/// 56070 58027 84360;
0273763930999992012012312004+25733-100300FM-12+051599999V0203401N001012200019N0010001N1+01821+01441101361ADDAA124000091AY101061AY201061GA1001+999999999GF100991001001999999001001IA1019KA1240M+03231KA2120N+01741MA1999999095681MD1210151+0471MW1051REMSYN106AAXX  23121 76393 31910 03401 10182 20144 39568 40136 52015 70500 91150 333 10323 20174 30162 58047 70000;EQDQ01  00002PRCP24
0189763930999992012012315004+25733-100300FM-12+051599999V0201101N001010900019N0008001N1+02031+01471101681ADDGA1021+006901061GF105991021051008001031061IA1019MA1999999095971MD1210291+0701REMSYN100AAXX  23151 76393 32508 51101 10203 20147 39597 40168 52029 82536 91455 333 30/// 56355 58070 82623;
0255763930999992012012318004+25733-100300FM-12+051599999V0201101N001012200019N0020001N1+02481+01391101591ADDAY141061AY241061GA1021+014401061GF104991021041012501031021IA1019KA1120M+02591KA2240N+01741MA1999999095901MD1710071+0681MW1051REMSYN118AAXX  23181 76393 31620 41101 10248 20139 39590 40159 57007 70544 82432 91745 333 10259 20174 30/// 56455 58068 82648;
0223763930999992012012321004+25733-100300FM-12+051599999V0201101N00601036001CN0020001N1+02521+01511101171ADDAY141031AY221031GA1021+012301061GF106991021051012501021081IA1019MA1999999095521MD1710381+0451MW1051REMSYN112AAXX  23211 76393 31620 61106 10252 20151 39552 40117 57038 70542 82528 92050 333 30/// 56455 58045 82641 83460;
0262763930999992012012400004+25733-100300FM-12+051599999V0201201N006010075019N0010001N1+02201+01551101221ADDAA124000091AY141061AY221061GF107991071051008001999999IA1019KA1120M+02741KA2180N+01741MA1999999095601MD1210081+0551MW1051REMSYN130AAXX  24001 76393 31510 71206 10220 20155 39560 40122 52008 70542 875// 92350 333 10274 20174 30/// 50251 563// 58055 70000 87627;
0217763930999992012012403004+25733-100300FM-12+051599999V0201101N006010057019N0020001N1+01961+01491101291ADDAY121031AY221031GA1081+005701061GF108991081051004501999999IA1019MA1999999095671MD1210071+0251MW1041REMSYN106AAXX  24031 76393 31420 81106 10196 20149 39567 40129 52007 70422 885// 90251 333 30/// 563// 58025 88619;
0172763930999992012012406004+25733-100300FM-12+051599999V0201701N002019999999N0010001N1+01801+01651101251ADDAA106000021AY151061AY251061GF108991999999001501999999MA1999999095601MD1710071+9999MW1501REMSYN072AAXX  24061 76393 01210 81702 10180 20165 39560 40125 57007 69901 75055;
0234763930999992012012409004+25733-100300FM-12+051599999V0201101N002010006019N0003001N1+01621+01561101201ADDAA103000021AY151031AY251031GA1081+000601071GF108991081061000751999999IA1099MA1999999095511MD1710091-0021MW1201REMSYN112AAXX  24091 76393 21103 81102 10162 20156 39551 40120 57009 72055 886// 90850 333 31/// 56999 59002 69907 88702;
0172763930999992012012412004+25733-100300FM-12+051599999V0200801N001019999999N0003001N1+01601+01541101141ADDAA106000021AY121061AY221061GF108991999999000751999999MA1999999095421MD1710091+9999MW1041REMSYN072AAXX  24121 76393 01103 80801 10160 20154 39542 40114 57009 69901 70422;
0217763930999992012012415004+25733-100300FM-12+051599999V0201601N001010021019N0003001N1+01751+01591101151ADDAY121031AY221031GA1081+002101071GF108991081061001501999999IA1019MA1999999095451MD1210031-0521MW1051REMSYN106AAXX  24151 76393 31203 81601 10175 20159 39545 40115 52003 70522 886// 91455 333 30/// 56999 59052 88707;
0255763930999992012012418004+25733-100300FM-12+051599999V0200601N001010033019N0003001N1+01971+01701101141ADDAY121061AY221061GA1081+003301061GF108991081071004501999999IA1019KA1120M+01991KA2240N+01561MA1999999095401MD1710051-0501MW1051REMSYN118AAXX  24181 76393 31403 80601 10197 20170 39540 40114 57005 70522 887// 91745 333 10199 20156 30/// 56999 59050 88611;
0217763930999992012012421004+25733-100300FM-12+051599999V0201101N004010063019N0004001N1+02201+01691100641ADDAY141031AY221031GA1081+006301071GF108991081071008001999999IA1019MA1999999094961MD1710441-0561MW1101REMSYN106AAXX  24211 76393 31504 81104 10220 20169 39496 40064 57044 71042 887// 92045 333 30/// 56999 59056 88721;
0262763930999992012012500004+25733-100300FM-12+051599999V0201101N003012200019N0010001N1+02101+01711100501ADDAA124999929AY141061AY201061GF102991021051004501001001IA1019KA1120M+02351KA2180N+01561MA1999999094861MD1710101-0741MW1051REMSYN130AAXX  25001 76393 31410 21103 10210 20171 39486 40050 57010 70540 82500 92345 333 10235 20156 30/// 50291 56300 59074 79999 82616;
0199763930999992012012503004+25733-100300FM-12+051599999V0203401N001012200019N0010001N1+01961+01621100411ADDAY141031AY201031GA1001+999999999GF100991001001999999001001IA1019MA1999999094791MD1710071-0881MW1051REMSYN088AAXX  25031 76393 31910 03401 10196 20162 39479 40041 57007 70540 90250 333 30/// 59088;
0253763930999992012012506004+25733-100300FM-12+051599999V0209999C000019999999N0010001N1+01881+01631100461ADDAY121061AY221061GF106991061001999999021001GJ100489IA1019KA1240M+02351KA2240N+01561MA1999999094841MD1210051-0761MW1051REMSYN124AAXX  25061 76393 31910 60000 10188 20163 39484 40046 52005 70522 86020 90550 333 10235 20156 30/// 55008 56030 59076 86461;
0195763930999992012012509004+25733-100300FM-12+051599999V0200601N001012200019N0010001N1+01761+01571100531ADDAY101031AY201031GF102991021001999999021001IA1019MA1999999094881MD1210041-0631MW1041REMSYN100AAXX  25091 76393 31910 20601 10176 20157 39488 40053 52004 70400 82020 90850 333 30/// 56030 59063;
0305763930999992012012512004+25733-100300FM-12+051599999V0203101N003012200019N0010001N1+01961+99999100711ADDAA124000091AY101061AY201061GA1001+999999999GF100991001001999999001001IA1019KA1240M+02351KA2120N+01701MA1999999095041MD1210161-0381MW1041REMSYN106AAXX  25121 76393 31910 03103 10196 20014 39504 40071 52016 70400 91150 333 10235 20170 30160 59038 70000;EQDQ01+000143ATOD  Q02  00002PRCP24Q03 +00143ATOD  
0217763930999992012012515004+25733-100300FM-12+051599999V0201101N001012200019N0010001N1+01911+01541101151ADDAY101031AY201031GA1011+004501061GF101991011051004501001001IA1019MA1999999095451MD1210411+0001MW1051REMSYN106AAXX  25151 76393 31410 11101 10191 20154 39545 40115 52041 70500 81500 91455 333 30/// 56200 58000 81615;
0255763930999992012012518004+25733-100300FM-12+051599999V0201601N001012200019N0020001N1+02361+01081101171ADDAY101061AY201061GA1011+015001081GF101991011011017501001001IA1019KA1120M+02421KA2240N+01701MA1999999095471MD1210021+0071MW1041REMSYN118AAXX  25181 76393 31720 11601 10236 20108 39547 40117 52002 70400 81100 91745 333 10242 20170 30/// 56500 58007 81850;
0217763930999992012012521004+25733-100300FM-12+051599999V0200601N002012200019N0040001N1+02541+00651100751ADDAY101031AY201031GA1021+021001081GF103991021011022501011001IA1019MA1999999095131MD1710341+0171MW1041REMSYN106AAXX  25211 76393 31840 30602 10254 20065 39513 40075 57034 70400 82110 92050 333 30/// 56770 58017 82857;
0262763930999992012012600004+25733-100300FM-12+051599999V0200401N003012200019N0040001N1+02281+00391100931ADDAA124000091AY101061AY201061GF102991021051022501001001IA1019KA1120M+02741KA2180N+01701MA1999999095321MD1210191+0461MW1041REMSYN130AAXX  26001 76393 31840 20403 10228 20039 39532 40093 52019 70400 82500 92345 333 10274 20170 30/// 50451 56700 58046 70000 82658;
0171763930999992012012603004+25733-100300FM-12+051599999V0200201N003012200019N0020001N1+01681+00661101351ADDGA1001+999999999GF100991001001999999001001IA1019MA1999999095721MD1210401+0931REMSYN082AAXX  26031 76393 32920 00203 10168 20066 39572 40135 52040 90251 333 30/// 58093;
0223763930999992012012606004+25733-100300FM-12+051599999V0200501N001012200019N0020001N1+01441+00741101521ADDGA1001+999999999GF100991001001999999001001GJ105589IA1019KA1240M+02741KA2240N+01401MA1999999095841MD1210121+1001REMSYN100AAXX  26061 76393 32920 00501 10144 20074 39584 40152 52012 90552 333 10274 20140 30/// 55093 58100;
0171763930999992012012609004+25733-100300FM-12+051599999V0200301N001012200019N0020001N1+01261+00741101681ADDGA1001+999999999GF100991001001999999001001IA1019MA1999999095941MD1210101+1061REMSYN082AAXX  26091 76393 32920 00301 10126 20074 39594 40168 52010 90850 333 30/// 58106;
0245763930999992012012612004+25733-100300FM-12+051599999V0202601N001012200019N0020001N1+01141+00731101831ADDAA124000091GA1001+999999999GF100991001001999999001001IA1019KA1240M+02741KA2120N+01061MA1999999096011MD1210071+0971REMSYN100AAXX  26121 76393 32920 02601 10114 20073 39601 40183 52007 91150 333 10274 20106 30092 58097 70000;EQDQ01  00002PRCP24
0171763930999992012012615004+25733-100300FM-12+051599999V0202201N001012200019N0030001N1+01461+00691101991ADDGA1001+999999999GF100991001001999999001001IA1019MA1999999096131MD1210121+0681REMSYN082AAXX  26151 76393 32930 02201 10146 20069 39613 40199 52012 91450 333 30/// 58068;
0243763930999992012012618004+25733-100300FM-12+051599999V0203101N004012200019N0030001N1+02361+00181101891ADDAY141061AY241061GA1001+999999999GF100991001001999999001001IA1019KA1120M+02441KA2240N+01061MA1999999096071MD1710061+0601MW1051REMSYN106AAXX  26181 76393 31930 03104 10236 20018 39607 40189 57006 70544 91750 333 10244 20106 30/// 54205 58060;
0171763930999992012012621004+25733-100300FM-12+051599999V0203201N003012200019N0070001N1+02641+00141101511ADDGA1001+999999999GF100991001001999999001001IA1019MA1999999095781MD1710161+0651REMSYN082AAXX  26211 76393 32957 03203 10264 20014 39578 40151 57016 92045 333 30/// 58065;
0251763930999992012012700004+25733-100300FM-12+051599999V0200301N001012200019N0060001N1+02401-00071101521ADDAA124000091GA1001+999999999GF100991001001999999001001IA1019KA1120M+02781KA2180N+01061MA1999999095851MD1210071+0531REMSYN106AAXX  27001 76393 32956 00301 10240 21007 39585 40152 52007 92345 333 10278 20106 30/// 50491 58053 70000;EQDQ01  00002PRCP24
0171763930999992012012703004+25733-100300FM-12+051599999V0200601N001012200019N0020001N1+01881+00451101741ADDGA1001+999999999GF100991001001999999001001IA1019MA1999999096091MD1210241+0371REMSYN082AAXX  27031 76393 32920 00601 10188 20045 39609 40174 52024 90252 333 30/// 58037;
0223763930999992012012706004+25733-100300FM-12+051599999V0202301N002012200019N0020001N1+01661+00491101841ADDGA1001+999999999GF100991001001999999001001GJ105829IA1019KA1240M+02781KA2240N+01061MA1999999096161MD1210071+0321REMSYN100AAXX  27061 76393 32920 02302 10166 20049 39616 40184 52007 90551 333 10278 20106 30/// 55097 58032;
0171763930999992012012709004+25733-100300FM-12+051599999V0202201N001012200019N0020001N1+01521+00491101781ADDGA1001+999999999GF100991001001999999001001IA1019MA1999999096061MD1710101+0121REMSYN082AAXX  27091 76393 32920 02201 10152 20049 39606 40178 57010 90850 333 30/// 58012;
0245763930999992012012712004+25733-100300FM-12+051599999V0202301N002012200019N0020001N1+01301+00531101781ADDAA124000091GA1001+999999999GF100991001001999999001001IA1019KA1240M+02781KA2120N+01161MA1999999096001MD1710061-0011REMSYN100AAXX  27121 76393 32920 02302 10130 20053 39600 40178 57006 91150 333 10278 20116 30104 59001 70000;EQDQ01  00002PRCP24
0171763930999992012012715004+25733-100300FM-12+051599999V0202101N001012200019N0020001N1+01671+00431101901ADDGA1001+999999999GF100991001001999999001001IA1019MA1999999096091MD1210091-0041REMSYN082AAXX  27151 76393 32920 02101 10167 20043 39609 40190 52009 91455 333 30/// 59004;
0237763930999992012012718004+25733-100300FM-12+051599999V0201601N001012200019N0020001N1+02371+00671101751ADDAY141061AY241061GA1001+999999999GF100991001001999999001001IA1019KA1120M+02491KA2240N+01161MA1999999095971MD1710121-0101MW1051REMSYN100AAXX  27181 76393 31920 01601 10237 20067 39597 40175 57012 70544 91750 333 10249 20116 30/// 59010;
0168763930999992012012721004+25733-100300FM-12+051599999V0200201N999992200019N0050001N1+99999+99999101221ADDGF101991999999999999999999IA1019MA1999999095531MD1710441-0251REMSYN076AAXX  27211 76393 32950 10276 20054 39553 40122 57044 92050 333 30/// 59025;EQDQ01+007603WOSPD 
0251763930999992012012800004+25733-100300FM-12+051599999V0201101N004012200019N0050001N1+02561+00741101091ADDAA124000091GA1001+999999999GF100991001001999999001001IA1019KA1120M+02911KA2180N+01161MA1999999095471MD1710061-0381REMSYN106AAXX  28001 76393 32950 01104 10256 20074 39547 40109 57006 92345 333 10291 20116 30/// 50561 59038 70000;EQDQ01  00002PRCP24
0171763930999992012012803004+25733-100300FM-12+051599999V0203301N001012200019N0020001N1+02041+00821101261ADDGA1001+999999999GF100991001001999999001001IA1019MA1999999095661MD1210191-0431REMSYN082AAXX  28031 76393 32920 03301 10204 20082 39566 40126 52019 90251 333 30/// 59043;
0223763930999992012012806004+25733-100300FM-12+051599999V0200401N001012200019N0020001N1+01701+00731101351ADDGA1001+999999999GF100991001001999999001001GJ105949IA1019KA1240M+02911KA2240N+01161MA1999999095731MD1210071-0431REMSYN100AAXX  28061 76393 32920 00401 10170 20073 39573 40135 52007 90550 333 10291 20116 30/// 55099 59043;
0199763930999992012012809004+25733-100300FM-12+051599999V0203101N001012200019N0010001N1+01461+00771101451ADDAY141031AY241031GA1001+999999999GF100991001001999999001001IA1019MA1999999095771MD1210041-0291MW1051REMSYN088AAXX  28091 76393 31910 03101 10146 20077 39577 40145 52004 70544 90850 333 30/// 59029;
0245763930999992012012812004+25733-100300FM-12+051599999V0202801N001012200019N0020001N1+01421+00681101681ADDAA124000091GA1001+999999999GF100991001001999999001001IA1019KA1240M+02911KA2120N+01301MA1999999095931MD1210161-0101REMSYN100AAXX  28121 76393 32920 02801 10142 20068 39593 40168 52016 91150 333 10291 20130 30118 59010 70000;EQDQ01  00002PRCP24
0171763930999992012012815004+25733-100300FM-12+051599999V0203401N001012200019N0020001N1+01551+00581102321ADDGA1001+999999999GF100991001001999999001001IA1019MA1999999096501MD1210571+0411REMSYN082AAXX  28151 76393 32920 03401 10155 20058 39650 40232 52057 91450 333 30/// 58041;
0255763930999992012012818004+25733-100300FM-12+051599999V0200101N001012200019N0030001N1+01831+00911102601ADDAY111061AY211061GA1041+011401061GF104991041051012501001001IA1019KA1120M+01931KA2240N+01301MA1999999096751MD1210251+0781MW1041REMSYN118AAXX  28181 76393 31630 40101 10183 20091 39675 40260 52025 70411 84500 91745 333 10193 20130 30/// 56100 58078 84638;
0189763930999992012012821004+25733-100300FM-12+051599999V0200301N005010081019N0050001N1+01601+00941102411ADDGA1071+008101061GF107991071051008001999999IA1019MA1999999096581MD1710171+1051REMSYN100AAXX  28211 76393 32550 70305 10160 20094 39658 40241 57017 875// 92050 333 30/// 567// 58105 87627;
0262763930999992012012900004+25733-100300FM-12+051599999V0200201N002010075019N0040001N1+01261+00741102551ADDAA124000091AY121061AY221061GF108991081051008001999999IA1019KA1120M+01941KA2180N+01241MA1999999096711MD1210131+1241MW1041REMSYN130AAXX  29001 76393 31540 80202 10126 20074 39671 40255 52013 70422 885// 92345 333 10194 20124 30/// 50431 567// 58124 70000 88621;
0234763930999992012012903004+25733-100300FM-12+051599999V0203201N002010018019N0010001N1+01081+00931102791ADDAA103001091AY151031AY251031GA1081+001801071GF108991081071001501999999IA1099MA1999999096921MD1210211+1261MW1501REMSYN112AAXX  29031 76393 21210 83202 10108 20093 39692 40279 52021 75055 887// 90255 333 31/// 567// 58126 60017 88706;
0172763930999992012012906004+25733-100300FM-12+051599999V0201801N001019999999N0004001N1+01021+00951103001ADDAA106005191AY151061AY251061GF108991999999000751999999MA1999999097081MD1210161+9999MW1501REMSYN072AAXX  29061 76393 01104 81801 10102 20095 39708 40300 52016 60051 75055;
0172763930999992012012918004+25733-100300FM-12+051599999V0200601N001019999999N0002001N1+01041+00971103071ADDAA106000591AY151061AY251061GF108991999999000751999999MA1999999097091MD1710041+9999MW1501REMSYN072AAXX  29181 76393 01102 80601 10104 20097 39709 40307 57004 69951 75055;
0234763930999992012012921004+25733-100300FM-12+051599999V0201101N003010009019N0001001N1+01061+00991102831ADDAA103000291AY151031AY251031GA1081+000901071GF108991081071000751999999IA1099MA1999999096871MD1710221+0291MW1501REMSYN112AAXX  29211 76393 21101 81103 10106 20099 39687 40283 57022 75055 887// 92045 333 31/// 568// 58029 69927 88703;
0172763930999992012013000004+25733-100300FM-12+051599999V0201001N002019999999N0002001N1+01021+00951102711ADDAA106000891AY151061AY251061GF108991999999000751999999MA1999999096761MD1710111+9999MW1501REMSYN072AAXX  30001 76393 01102 81002 10102 20095 39676 40271 57011 69971 75055;
0234763930999992012013003004+25733-100300FM-12+051599999V0200301N001010006019N0002001N1+01001+00961102761ADDAA103000991AY151031AY251031GA1081+000601071GF108991081071000251999999IA1099MA1999999096811MD1210051-0111MW1501REMSYN112AAXX  30031 76393 21002 80301 10100 20096 39681 40276 52005 75055 887// 90251 333 31/// 568// 59011 69997 88702;
0172763930999992012013006004+25733-100300FM-12+051599999V0200201N001019999999N0002001N1+01041+00971102661ADDAA106002091AY151061AY251061GF108991999999000751999999MA1999999096721MD1710091+9999MW1501REMSYN072AAXX  30061 76393 01102 80201 10104 20097 39672 40266 57009 60021 75055;
0217763930999992012013009004+25733-100300FM-12+051599999V0203201N001010006019N0003001N1+01021+99999102511ADDAY121031AY221031GA1081+000601071GF108991081061000251999999IA1099MA1999999096571MD1999999-0151MW1051REMSYN106AAXX  30091 76393 31003 83201 10102 20104 39657 40251 5//// 70522 886// 90850 333 31/// 56800 59015 88702;
0172763930999992012013012004+25733-100300FM-12+051599999V0209999C000019999999N0005001N1+01161+01091102441ADDAA106000021AY141061AY241061GF108991999999000251999999MA1999999096511MD1710061+9999MW1051REMSYN072AAXX  30121 76393 01005 80000 10116 20109 39651 40244 57006 69901 70544;
0234763930999992012013015004+25733-100300FM-12+051599999V0201601N001010012019N0005001N1+01301+01201102521ADDAA103000191AY151031AY251031GA1081+001201071GF108991081071001501999999IA1099MA1999999096591MD1210081-0541MW1501REMSYN112AAXX  30151 76393 21205 81601 10130 20120 39659 40252 52008 75055 887// 91455 333 31/// 56399 59054 69917 88704;
0180763930999992012013018004+25733-100300FM-12+051599999V0200601N001012200019N0008001N1+01781+01331102301ADDAY111061AY211061GF103991999999004501999999MA1999999096411MD1710181+9999MW1041REMSYN072AAXX  30181 76393 01408 30601 10178 20133 39641 40230 57018 69911 70411;EQDQ01  00002PRCP06
0217763930999992012013021004+25733-100300FM-12+051599999V0201401N005012200019N0010001N1+02021+01421101901ADDAY141031AY221031GA1031+007501061GF104991031041008001031001IA1019MA1999999096091MD1710321-0781MW1051REMSYN106AAXX  30211 76393 31510 41405 10202 20142 39609 40190 57032 70542 83430 92045 333 30/// 56350 59078 83625;
0284763930999992012013100004+25733-100300FM-12+051599999V0201001N005010360019N0020001N1+01841+01391101841ADDAA124001691AY141061AY221061GA1021+005701061GF106991021051004501071081IA1019KA1120M+02181KA2180N+01101MA1999999096061MD1710031-0701MW1051REMSYN136AAXX  31001 76393 31420 61005 10184 20139 39606 40184 57003 70542 82578 92346 333 10218 20110 30/// 50071 56335 59070 70016 82619 83360;
0217763930999992012013103004+25733-100300FM-12+051599999V0201201N002012200019N0020001N1+01621+01391101971ADDAY101031AY201031GA1031+002701061GF103991031051002501001001IA1019MA1999999096211MD1210151-0601MW1041REMSYN106AAXX  31031 76393 31320 31202 10162 20139 39621 40197 52015 70400 83500 90250 333 30/// 56300 59060 83609;
0223763930999992012013115004+25733-100300FM-12+051599999V0202701N001010021019N0010001N1+01571+01391102001ADDAY141031AY241031GA1051+002101061GF108991051051002501021999IA1019MA1999999096191MD1210161-0401MW1051REMSYN112AAXX  31151 76393 31310 82701 10157 20139 39619 40200 52016 70544 8552/ 91455 333 30/// 5637/ 59040 85607 83458;
0255763930999992012013118004+25733-100300FM-12+051599999V0202401N001010900019N0010001N1+01921+01341101951ADDAY141061AY241061GA1031+007201061GF107991031051008001001021IA1019KA1120M+02051KA2240N+01401MA1999999096151MD1710041-0261MW1051REMSYN118AAXX  31181 76393 31510 72401 10192 20134 39615 40195 57004 70544 83502 91745 333 10205 20140 30/// 56305 59026 83624;
0223763930999992012013121004+25733-100300FM-12+051599999V0200601N00301036001CN0008001N1+02381+01481101531ADDAY141031AY241031GA1011+011101061GF107991011041012501021081IA1019MA1999999095801MD1710351-0291MW1051REMSYN112AAXX  31211 76393 31608 70603 10238 20148 39580 40153 57035 70544 81428 92045 333 30/// 56337 59029 81637 83460;
0253763930999992012020106004+25733-100300FM-12+051599999V0209999C000012200019N0010001N1+01991+01461101671ADDAY141061AY241061GF103991031001999999011001GJ103249IA1019KA1240M+02581KA2240N+01401MA1999999096011MD1999999-0171MW1051REMSYN124AAXX  01061 76393 31910 30000 10199 20146 39601 40167 5//// 70544 83010 90550 333 10258 20140 30/// 55054 56050 59017 83461;
0199763930999992012020109004+25733-100300FM-12+051599999V0202301N001012200019N0010001N1+01681+01391101941ADDAY141031AY241031GA1001+999999999GF100991001001999999001001IA1019MA1999999095911MD1710101-0141MW1051REMSYN088AAXX  01091 76393 31910 02301 10168 20139 39591 40194 57010 70544 90850 333 30/// 59014;
0273763930999992012020112004+25733-100300FM-12+051599999V0209999C000012200019N0010001N1+01641+01241101851ADDAA124000091AY141061AY241061GA1001+999999999GF100991001001999999001001IA1019KA1240M+02581KA2120N+01561MA1999999095911MD1410001-0121MW1051REMSYN106AAXX  01121 76393 31910 00000 10164 20124 39591 40185 54000 70544 91150 333 10258 20156 30142 59012 70000;EQDQ01  00002PRCP24
0217763930999992012020115004+25733-100300FM-12+051599999V0203101N001012200019N0020001N1+01871+01101101861ADDAY111031AY211031GA1011+009601061GF103991011051008001001061IA1019MA1999999096021MD1210111-0171MW1051REMSYN106AAXX  01151 76393 31520 33101 10187 20110 39602 40186 52011 70511 81506 91455 333 30/// 56305 59017 81632;
0255763930999992012020118004+25733-100300FM-12+051599999V0203401N001012200019N0020001N1+02561+01431101791ADDAY141061AY201061GA1011+014701061GF103991011051012501001011IA1019KA1120M+02681KA2240N+01561MA1999999096051MD1710031-0101MW1051REMSYN118AAXX  01181 76393 31620 33401 10256 20143 39605 40179 57003 70540 81501 91750 333 10268 20156 30/// 56307 59010 81649;
0217763930999992012020121004+25733-100300FM-12+051599999V0201101N003010900019N0020001N1+02861+01501101481ADDAY141031AY221031GA1011+018001081GF106991011011017501011041IA1019MA1999999095821MD1710241+0021MW1041REMSYN106AAXX  01211 76393 31720 61103 10286 20150 39582 40148 57024 70442 81114 92045 333 30/// 56335 58002 81856;
0284763930999992012020200004+25733-100300FM-12+051599999V0201101N003010360019N0040001N1+02721+01471101421ADDAA124000091AY121061AY221061GA1021+015001061GF108991021051017501021081IA1019KA1120M+03041KA2180N+01561MA1999999095811MD1710011+0201MW1041REMSYN136AAXX  02001 76393 31740 81103 10272 20147 39581 40142 57001 70422 82528 92345 333 10304 20156 30/// 50491 56357 58020 70000 82650 83460;
0217763930999992012020203004+25733-100300FM-12+051599999V0201201N003010093019N0020001N1+02321+01561101601ADDAY121031AY221031GA1051+009301061GF105991051051008001001001IA1019MA1999999096011MD1210201+9999MW1041REMSYN106AAXX  02031 76393 31520 51203 10232 20156 39601 40160 52020 70422 85500 90250 333 30/// 56300 58/// 85631;
0253763930999992012020206004+25733-100300FM-12+051599999V0201101N003012200019N0020001N1+02141+01621101621ADDAY101061AY201061GF103991031051008001001001GJ105709IA1019KA1240M+03041KA2240N+01561MA1999999096021MD1210011+0011MW1041REMSYN124AAXX  02061 76393 31520 31103 10214 20162 39602 40162 52001 70400 83500 90551 333 10304 20156 30/// 55095 56300 58001 83621;
0199763930999992012020209004+25733-100300FM-12+051599999V0209999C000012200019N0010001N1+01921+01711101551ADDAY141031AY241031GA1001+999999999GF100991001001999999001001IA1019MA1999999095911MD1710111+0001MW1051REMSYN088AAXX  02091 76393 31910 00000 10192 20171 39591 40155 57011 70544 90850 333 30/// 58000;
0272763930999992012020212004+25733-100300FM-12+051599999V0209999C000012200019N0010001N1+01741+01581101541ADDAA124000091AY141061AY241061GA1021+002101071GF102991021061999999001001IA1019KA1240M+03041KA2120N+01561MA1999999095861MD1710051-0051MW1051REMSYN124AAXX  02121 76393 31910 20000 10174 20158 39586 40154 57005 70544 82600 91150 333 10304 20156 30150 56300 59005 70000 82707;
0217763930999992012020215004+25733-100300FM-12+051599999V0200701N001010030019N0010001N1+01881+01631101631ADDAY121031AY221031GA1071+003001061GF107991071051004501999999IA1019MA1999999095911MD1210051-0111MW1041REMSYN106AAXX  02151 76393 31410 70701 10188 20163 39591 40163 52005 70422 875// 91450 333 30/// 56399 59011 87610;
0207763930999992012020218004+25733-100300FM-12+051599999V0200601N001019999999N0000001N1+01841+01721101521ADDAA106000091AY151061AY251061GF108991999999001501999999MA1999999095801MD1710111+9999MW1441REMSYN072AAXX  02181 76393 01200 80601 10184 20172 39580 40152 57011 69901 74555;EQDQ01+000452PRSWM1Q02  00002PRCP06
0217763930999992012020221004+25733-100300FM-12+051599999V0201101N006010096019N0010001N1+02521+01751101061ADDAY141031AY221031GA1061+009601061GF106991061051008001001001IA1019MA1999999095381MD1710421-0441MW1051REMSYN106AAXX  02211 76393 31510 61106 10252 20175 39538 40106 57042 70542 86500 92045 333 30/// 56300 59044 86632;
0303763930999992012020300004+25733-100300FM-12+051599999V0201201N005010360019N0020001N1+02621+01591100871ADDAA124999999AY141061AY221061GA1021+012601061GF106991021051012501021001IA1019KA1120M+02781KA2180N+01561MA1999999095251MD1710131-0561MW1051REMSYN136AAXX  03001 76393 31620 61205 10262 20159 39525 40087 57013 70542 82520 92345 333 10278 20156 30/// 50281 56350 59056 79999 82642 84460;EQDQ01  99992PRCP24
0217763930999992012020303004+25733-100300FM-12+051599999V0201101N003012200019N0020001N1+02301+01631100961ADDAY101031AY201031GA1021+008401061GF102991021051008001001001IA1019MA1999999095361MD1210111-0651MW1041REMSYN106AAXX  03031 76393 31520 21103 10230 20163 39536 40096 52011 70400 82500 90250 333 30/// 56300 59065 82628;
0253763930999992012020306004+25733-100300FM-12+051599999V0201201N003010042019N0020001N1+02081+01721100991ADDAY121061AY221061GF105991051051004501001001GJ102709IA1019KA1240M+02781KA2240N+01561MA1999999095401MD1210041-0621MW1041REMSYN124AAXX  03061 76393 31420 51203 10208 20172 39540 40099 52004 70422 85500 90551 333 10278 20156 30/// 55045 56300 59062 85615;
0217763930999992012020309004+25733-100300FM-12+051599999V0200501N002010024019N0010001N1+01961+01781100901ADDAY121031AY221031GA1081+002401071GF108991081061999999999999IA1019MA1999999095291MD1710111-0621MW1051REMSYN106AAXX  03091 76393 31910 80502 10196 20178 39529 40090 57011 70522 886// 90850 333 30/// 563// 59062 88708;
0291763930999992012020312004+25733-100300FM-12+051599999V0201201N001010015019N0010001N1+01921+01801101031ADDAA124000091AY121061AY221061GA1081+001501071GF108991081061001501999999IA1019KA1240M+02781KA2120N+01861MA1999999095391MD1210101-0471MW1051REMSYN124AAXX  03121 76393 31210 81201 10192 20180 39539 40103 52010 70522 886// 91150 333 10278 20186 30180 563// 59047 79999 88705;EQDQ01  00002PRCP24
0253763930999992012020315004+25733-100300FM-12+051599999V0200701N001010021019N0010001N1+01911+01731101281ADDAA103000091AY121031AY221031GA1081+002101071GF108991081061002501999999IA1019MA1999999095601MD1710091-0311MW1051REMSYN112AAXX  03151 76393 21310 80701 10191 20173 39560 40128 57009 70522 886// 91455 333 30/// 56399 59031 69907 88707;EQDQ01  00002PRCP03
0191763930999992012020318004+25733-100300FM-12+051599999V0201101N001019999999N0010001N1+02391+01771101211ADDAA106000091AY141061AY241061GF107991999999999999999999MA1999999095531MD1710071+9999MW1051REMSYN072AAXX  03181 76393 11910 71101 10239 20177 39553 40121 57007 69901 70544;EQDQ01  00002PRCP06
0217763930999992012020321004+25733-100300FM-12+051599999V0201101N003010600019N0010001N1+02741+01741100871ADDAY141031AY221031GA1081+060001021GF108991001001999999001071IA1019MA1999999095251MD1710281-0131MW1051REMSYN106AAXX  03211 76393 31910 81103 10274 20174 39525 40087 57028 70542 80007 92045 333 30/// 56007 59013 88270;
0281763930999992012020400004+25733-100300FM-12+051599999V0201101N006019999999N0020001N1+02681+01631100891ADDAA124999999AY141061AY221061GF105991031001999999011081IA1019KA1120M+02881KA2180N+01861MA1999999095291MD1210041+0041MW1051REMSYN130AAXX  04001 76393 31920 51106 10268 20163 39529 40089 52004 70542 83018 92345 333 10288 20186 30/// 50281 56035 58004 79999 83460;EQDQ01  99992PRCP24
0217763930999992012020403004+25733-100300FM-12+051599999V0202901N001012200019N0020001N1+02381+01731101041ADDAY101031AY201031GA1031+033001041GF103991031001999999011001IA1019MA1999999095471MD1210161+0111MW1051REMSYN106AAXX  04031 76393 31920 32901 10238 20173 39547 40104 52016 70500 83010 90250 333 30/// 56030 58011 83461;
0253763930999992012020406004+25733-100300FM-12+051599999V0201201N001019999999N0010001N1+02281+01681101111ADDAY121061AY221061GF107991071001999999021001GJ103189IA1019KA1240M+02881KA2240N+01861MA1999999095531MD1210061+0131MW1051REMSYN124AAXX  04061 76393 31910 71201 10228 20168 39553 40111 52006 70522 87020 90551 333 10288 20186 30/// 55053 56030 58013 87461;
0217763930999992012020409004+25733-100300FM-12+051599999V0200601N001010330019N0010001N1+02001+01731101101ADDAY121031AY221031GA1061+033001031GF106991061001999999041001IA1019MA1999999095501MD1710031+0211MW1051REMSYN106AAXX  04091 76393 31910 60601 10200 20173 39550 40110 57003 70522 86040 90850 333 30/// 56050 58021 86361;
0272763930999992012020412004+25733-100300FM-12+051599999V0209999C000010024019N0010001N1+01981+01801101231ADDAA124000091AY121061AY221061GA1071+002401071GF107991071061002501001001IA1019KA1240M+02881KA2120N+01881MA1999999095581MD1210081+0191MW1051REMSYN124AAXX  04121 76393 31310 70000 10198 20180 39558 40123 52008 70522 87600 91150 333 10288 20188 30176 56700 58019 70000 87708;
0217763930999992012020415004+25733-100300FM-12+051599999V0203601N001010033019N0010001N1+01941+01661101561ADDAY141031AY221031GA1081+003301071GF108991081071004501999999IA1019MA1999999095871MD1210291+0281MW1051REMSYN106AAXX  04151 76393 31410 83601 10194 20166 39587 40156 52029 70542 887// 91445 333 30/// 568// 58028 88711;
0172763930999992012020418004+25733-100300FM-12+051599999V0203601N006019999999N0007001N1+01741+01411101751ADDAA106002091AY151061AY251061GF108991999999004501999999MA1999999096041MD1210171+9999MW1501REMSYN072AAXX  04181 76393 01407 83606 10174 20141 39604 40175 52017 60021 75055;
0234763930999992012020421004+25733-100300FM-12+051599999V0200301N001010060019N0008001N1+01541+01061101661ADDAA103000291AY141031AY241031GA1081+006001071GF108991081071004501999999IA1099MA1999999095921MD1710121+0671MW1051REMSYN112AAXX  04211 76393 21408 80301 10154 20106 39592 40166 57012 70544 887// 92050 333 31/// 561// 58067 69927 88720;
0180763930999992012020500004+25733-100300FM-12+051599999V0200201N003019999999N0008001N1+01301+00791101861ADDAY141061AY241061GF108991999999008001999999MA1999999096081MD1210161+9999MW1051REMSYN072AAXX  05001 76393 01508 80203 10130 20079 39608 40186 52016 69921 70544;EQDQ01  00002PRCP06
0172763930999992012020506004+25733-100300FM-12+051599999V0200201N001019999999N0003001N1+01161+00751102361ADDAA106001091AY151061AY251061GF108991999999004501999999MA1999999096491MD1210241+9999MW1501REMSYN072AAXX  05061 76393 01403 80201 10116 20075 39649 40236 52024 60011 75055;
0223763930999992012020509004+25733-100300FM-12+051599999V0200201N00301036001CN0010001N1+01141+00561102371ADDAY141031AY221031GA1031+007201061GF108991031051008001071999IA1099MA1999999096481MD1710011+0981MW1051REMSYN112AAXX  05091 76393 31510 80203 10114 20056 39648 40237 57001 70542 8357/ 90845 333 31/// 5688/ 58098 83624 85360;
0278763930999992012020512004+25733-100300FM-12+051599999V0203301N00101036001CN0010001N1+01141+00561102391ADDAA124003591AY141061AY221061GA1021+007201061GF108991021051008001021999IA1019KA1240M+02071KA2120N+01061MA1999999096481MD1410001+0901MW1051REMSYN130AAXX  05121 76393 31510 83301 10114 20056 39648 40239 54000 70542 8252/ 91145 333 10207 20106 30100 5688/ 58090 70035 82624 86460;
0223763930999992012020515004+25733-100300FM-12+051599999V0200601N001010057019N0020001N1+01071+00611102641ADDAY121031AY221031GA1051+005701061GF108991051041004501021999IA1019MA1999999096711MD1210231+0841MW1051REMSYN112AAXX  05151 76393 31420 80601 10107 20061 39671 40264 52023 70522 8542/ 91455 333 30/// 5688/ 58084 85619 83460;
0261763930999992012020518004+25733-100300FM-12+051599999V0200701N001010072019N0050001N1+01141+00561102751ADDAY121061AY221061GA1051+007201061GF108991051041008001021999IA1019KA1120M+01191KA2240N+01061MA1999999096811MD1210101+0771MW1051REMSYN124AAXX  05181 76393 31550 80701 10114 20056 39681 40275 52010 70522 8542/ 91755 333 10119 20106 30/// 5688/ 58077 85624 83460;
0223763930999992012020521004+25733-100300FM-12+051599999V0200701N00101036001CN0050001N1+01161+00451102481ADDAY121031AY221031GA1031+008701061GF108991031051008001021999IA1019MA1999999096561MD1710251+0641MW1051REMSYN112AAXX  05211 76393 31550 80701 10116 20045 39656 40248 57025 70522 8352/ 92050 333 30/// 5688/ 58064 83629 85460;
0262763930999992012020600004+25733-100300FM-12+051599999V0200401N002019999999N0040001N1+01121+00581102411ADDAA124001091AY121061AY221061GF108991081999999999021999IA1019KA1120M+01281KA2180N+01061MA1999999096501MD1710061+0421MW1051REMSYN130AAXX  06001 76393 31940 80402 10112 20058 39650 40241 57006 70522 88/2/ 92350 333 10128 20106 30/// 50111 56/8/ 58042 70010 88460;
0195763930999992012020615004+25733-100300FM-12+051599999V0203501N00101036001CN0040001N1+00961+00431102691ADDGA1021+006601061GF108991021051008001021999IA1019MA1999999096721MD1210151+0011REMSYN106AAXX  06151 76393 32540 83501 10096 20043 39672 40269 52015 8252/ 91455 333 30/// 5688/ 58001 82622 86460;
0227763930999992012020618004+25733-100300FM-12+051599999V0200401N001010060019N0050001N1+01081+00581102681ADDGA1081+006001061GF108991081041008001999999IA1019KA1120M+01101KA2240N+00881MA1999999096721MD1410001-0091REMSYN112AAXX  06181 76393 32550 80401 10108 20058 39672 40268 54000 884// 91755 333 10110 20088 30/// 568// 59009 88620;
0217763930999992012020621004+25733-100300FM-12+051599999V0201401N001010078019N0040001N1+01261+00621102261ADDAY121031AY221031GA1051+007801061GF107991071051008001021001IA1019MA1999999096331MD1710391-0231MW1051REMSYN106AAXX  06211 76393 31540 71401 10126 20062 39633 40226 57039 70522 87520 92050 333 30/// 56770 59023 85626;
0281763930999992012020700004+25733-100300FM-12+051599999V0201201N004019999999N0040001N1+01301+00671102111ADDAA124999999AY121061AY221061GF106991061001999999021001IA1019KA1120M+01501KA2180N+00881MA1999999096211MD1710121-0291MW1051REMSYN130AAXX  07001 76393 31940 61204 10130 20067 39621 40211 57012 70522 86020 92350 333 10150 20088 30/// 50261 56070 59029 79999 86461;EQDQ01  99992PRCP24
0217763930999992012020703004+25733-100300FM-12+051599999V0203601N001012200019N0020001N1+01041+00701102231ADDAY111031AY211031GA1041+030001041GF104991041001999999011001IA1019MA1999999096331MD1210121+9999MW1051REMSYN106AAXX  07031 76393 31920 43601 10104 20070 39633 40223 52012 70511 84010 90250 333 30/// 56070 58/// 84460;
0251763930999992012020706004+25733-100300FM-12+051599999V0201801N001012200019N0010001N1+00921+00691102201ADDAY141061AY241061GA1001+999999999GF100991001001999999001001GJ101809IA1019KA1240M+01501KA2240N+00881MA1999999096311MD1710021+9999MW1051REMSYN106AAXX  07061 76393 31910 01801 10092 20069 39631 40220 57002 70544 90550 333 10150 20088 30/// 55030 58///;
0199763930999992012020709004+25733-100300FM-12+051599999V0201801N001012200019N0010001N1+00821+00581102061ADDAY101031AY201031GA1001+999999999GF100991001001999999001001IA1019MA1999999096151MD1710161+9999MW1041REMSYN088AAXX  07091 76393 31910 01801 10082 20058 39615 40206 57016 70400 90850 333 30/// 58///;
0273763930999992012020712004+25733-100300FM-12+051599999V0201501N001012200019N0010001N1+00821+00581102111ADDAA124000091AY101061AY201061GA1001+999999999GF100991001001999999001001IA1019KA1240M+01501KA2120N+00641MA1999999096171MD1210021-0401MW1041REMSYN106AAXX  07121 76393 31910 01501 10082 20058 39617 40211 52002 70400 91150 333 10150 20064 30056 59040 70000;EQDQ01  00002PRCP24
0223763930999992012020715004+25733-100300FM-12+051599999V0201301N00101090001CN0020001N1+01001+00621102281ADDAY121031AY221031GA1011+004801061GF107991011051004501001051IA1019MA1999999096321MD1210151-0401MW1051REMSYN112AAXX  07151 76393 31420 71301 10100 20062 39632 40228 52015 70522 81505 91455 333 30/// 56307 59040 81616 87075;
0261763930999992012020718004+25733-100300FM-12+051599999V0201301N00101036001CN0020001N1+01581+00931102201ADDAY121061AY221061GA1011+008101061GF107991011051008001031021IA1019KA1120M+01671KA2240N+00641MA1999999096261MD1710061-0461MW1051REMSYN124AAXX  07181 76393 31520 71301 10158 20093 39626 40220 57006 70522 81532 91750 333 10167 20064 30/// 56557 59046 81627 85080;
0223763930999992012020721004+25733-100300FM-12+051599999V0201201N00401090001CN0020001N1+01601+01051102001ADDAY141031AY221031GA1011+007501061GF108991011051008001001071IA1019MA1999999096121MD1710141-0211MW1051REMSYN112AAXX  07211 76393 31520 81204 10160 20105 39612 40200 57014 70542 81507 92045 333 30/// 56307 59021 81625 87270;
0284763930999992012020800004+25733-100300FM-12+051599999V0201101N003019999999N0030001N1+01481+01031101991ADDAA124000091AY121061AY221061GA1031+030001041GF108991031001999999011071IA1019KA1120M+01801KA2180N+00641MA1999999096151MD1210031-0061MW1051REMSYN136AAXX  08001 76393 31930 81103 10148 20103 39615 40199 52003 70522 83017 92345 333 10180 20064 30/// 50111 56037 59006 70000 83460 85270;
0217763930999992012020803004+25733-100300FM-12+051599999V0201201N002010030019N0020001N1+01321+01081102261ADDAY121031AY221031GA1061+003001061GF106991061051002501001001IA1019MA1999999096431MD1210281+0101MW1051REMSYN106AAXX  08031 76393 31320 61202 10132 20108 39643 40226 52028 70522 86500 90250 333 30/// 56300 58010 86610;
0172763930999992012020806004+25733-100300FM-12+051599999V0200501N001019999999N0010001N1+01261+01161102451ADDAA106000021AY151061AY251061GF108991999999001501999999MA1999999096601MD1210171+9999MW1511REMSYN072AAXX  08061 76393 01210 80501 10126 20116 39660 40245 52017 69901 75155;
0234763930999992012020809004+25733-100300FM-12+051599999V0201801N001010006019N0003001N1+01241+01211102511ADDAA103002091AY151031AY251031GA1081+000601071GF108991081071000251999999IA1119MA1999999096641MD1210041+0491MW1501REMSYN112AAXX  08091 76393 21003 81801 10124 20121 39664 40251 52004 75055 887// 90850 333 32/// 56999 58049 60027 88702;
0172763930999992012020812004+25733-100300FM-12+051599999V0200401N001019999999N0003001N1+01181+01111102591ADDAA106050091AY151061AY251061GF108991999999000251999999MA1999999096701MD1210061+9999MW1501REMSYN072AAXX  08121 76393 01003 80401 10118 20111 39670 40259 52006 60501 75055;
0234763930999992012020815004+25733-100300FM-12+051599999V0200401N001010006019N0003001N1+01121+01081102821ADDAA103006091AY151031AY251031GA1081+000601071GF108991081071000251999999IA1099MA1999999096921MD1210221+0601MW1501REMSYN112AAXX  08151 76393 21003 80401 10112 20108 39692 40282 52022 75055 887// 91455 333 31/// 56999 58060 60067 88702;
0172763930999992012020818004+25733-100300FM-12+051599999V0200601N001019999999N0003001N1+01141+01101102891ADDAA106009991AY161061AY261061GF108991999999000251999999MA1999999096951MD1210031+9999MW1501REMSYN072AAXX  08181 76393 01003 80601 10114 20110 39695 40289 52003 60101 75066;
0240763930999992012020821004+25733-100300FM-12+051599999V0201201N00301002101CN0020001N1+01241+01031102581ADDAA103001091AY121031AY221031GA1031+002701061GF108991081071002501999999IA1099MA1999999096671MD1710281+0551MW1041REMSYN118AAXX  08211 76393 21320 81203 10124 20103 39667 40258 57028 70422 887// 92045 333 31/// 563// 58055 60017 83609 85710;
0262763930999992012020900004+25733-100300FM-12+051599999V0201201N003010012019N0010001N1+01181+01041102471ADDAA124015591AY141061AY221061GF108991081071001501999999IA1099KA1120M+01301KA2180N+01101MA1999999096561MD1710111+0411MW1051REMSYN130AAXX  09001 76393 31210 81203 10118 20104 39656 40247 57011 70542 887// 92350 333 10130 20110 31/// 50421 563// 58041 70155 88706;
0217763930999992012020903004+25733-100300FM-12+051599999V0201201N004010015019N0010001N1+01041+00931102571ADDAY141031AY241031GA1081+001501071GF108991081071001501999999IA1099MA1999999096651MD1210091+0221MW1051REMSYN106AAXX  09031 76393 31210 81204 10104 20093 39665 40257 52009 70544 887// 90250 333 31/// 563// 58022 88705;
0253763930999992012020906004+25733-100300FM-12+051599999V0201101N003010021019N0010001N1+01021+00801102581ADDAY141061AY241061GF108991081071002501999999GJ100009IA1019KA1240M+01301KA2240N+01001MA1999999096651MD1410001+0051MW1051REMSYN124AAXX  09061 76393 31310 81103 10102 20080 39665 40258 54000 70544 887// 90550 333 10130 20100 30/// 55000 563// 58005 88709;
0217763930999992012020909004+25733-100300FM-12+051599999V0201101N002010021019N0010001N1+00961+00771102411ADDAY121031AY221031GA1081+002101071GF108991081061002501999999IA1019MA1999999096481MD1710171-0161MW1041REMSYN106AAXX  09091 76393 31310 81102 10096 20077 39648 40241 57017 70422 886// 90850 333 30/// 563// 59016 88707;
0172763930999992012020912004+25733-100300FM-12+051599999V0200601N001019999999N0005001N1+00921+00841102431ADDAA106000021AY151061AY251061GF108991999999000751999999MA1999999096491MD1210011+9999MW1501REMSYN072AAXX  09121 76393 01105 80601 10092 20084 39649 40243 52001 69901 75055;
0234763930999992012020915004+25733-100300FM-12+051599999V0201201N002010009019N0003001N1+01001+00931102531ADDAA103000791AY151031AY251031GA1081+000901071GF108991081071000751999999IA1119MA1999999096571MD1210081-0331MW1511REMSYN112AAXX  09151 76393 21103 81202 10100 20093 39657 40253 52008 75155 887// 91450 333 32/// 563// 59033 69977 88703;
0172763930999992012020918004+25733-100300FM-12+051599999V0200601N001019999999N0005001N1+01061+00911102471ADDAA106000891AY141061AY221061GF108991999999001501999999MA1999999096521MD1710051+9999MW1051REMSYN072AAXX  09181 76393 01205 80601 10106 20091 39652 40247 57005 69971 70542;
0217763930999992012020921004+25733-100300FM-12+051599999V0201101N001010018019N0005001N1+01121+00971102141ADDAY141031AY221031GA1081+001801071GF108991081071001501999999IA1019MA1999999096221MD1710301-0451MW1051REMSYN106AAXX  09211 76393 31205 81101 10112 20097 39622 40214 57030 70542 887// 92045 333 30/// 563// 59045 88706;
0234763930999992012021003004+25733-100300FM-12+051599999V0200601N001010006019N0003001N1+01081+01041102051ADDAA103000491AY151031AY251031GA1081+000601071GF108991081071000251999999IA1099MA1999999096151MD1210051-0501MW1501REMSYN112AAXX  10031 76393 21003 80601 10108 20104 39615 40205 52005 75055 887// 90251 333 31/// 563// 59050 69947 88702;
0172763930999992012021006004+25733-100300FM-12+051599999V0201201N001019999999N0003001N1+01061+00991102041ADDAA106000591AY141061AY241061GF108991999999000751999999MA1999999096141MD1710011+9999MW1051REMSYN072AAXX  10061 76393 01103 81201 10106 20099 39614 40204 57001 69941 70544;
0217763930999992012021009004+25733-100300FM-12+051599999V0209999C000010012019N0005001N1+01081+99999101841ADDAY121031AY221031GA1081+001201071GF108991081071001501999999IA1099MA1999999095951MD1710191-0531MW1051REMSYN106AAXX  10091 76393 31205 80000 10108 20120 39595 40184 57019 70522 887// 90850 333 31/// 563// 59053 88704;
0253763930999992012021012004+25733-100300FM-12+051599999V0202901N001010018019N0003001N1+01121+00971101901ADDAA124001191AY121061AY221061GA1081+001801071GF108991081071001501999999IA1019KA1120N+01041MA1999999096001MD1210051-0491MW1051REMSYN118AAXX  10121 76393 31203 82901 10112 20097 39600 40190 52005 70522 887// 91150 333 20104 30098 563// 59049 70011 88706;
0195763930999992012021015004+25733-100300FM-12+051599999V0202701N001012200019N0006001N1+01241+01031102001ADDAY111031AY211031GF101991011001999999031001IA1019MA1999999096101MD1210101-0471MW1051REMSYN100AAXX  10151 76393 31906 12701 10124 20103 39610 40200 52010 70511 81030 91455 333 30/// 56050 59047;
0255763930999992012021018004+25733-100300FM-12+051599999V0200901N001012200019N0008001N1+01971+01151102001ADDAY141061AY241061GA1011+010201081GF101991011021012501001001IA1019KA1120M+02051KA2240N+01041MA1999999096141MD1210041-0381MW1051REMSYN118AAXX  10181 76393 31608 10901 10197 20115 39614 40200 52004 70544 81200 91745 333 10205 20104 30/// 56500 59038 81834;
0223763930999992012021021004+25733-100300FM-12+051599999V0200901N003012200019N0020001N1+02201+01341101821ADDAY141031AY221031GA1011+010501081GF104991041051012501001001IA1019MA1999999096021MD1710121+0201MW1051REMSYN112AAXX  10211 76393 31620 40903 10220 20134 39602 40182 57012 70542 84500 92045 333 30/// 56100 58020 81835 83637;
0284763930999992012021100004+25733-100300FM-12+051599999V0201201N003010360019N0020001N1+01681+01291101951ADDAA124000491AY121061AY221061GA1031+004801061GF108991031051004501021999IA1019KA1120M+02331KA2180N+01041MA1999999096181MD1210161+0081MW1051REMSYN136AAXX  11001 76393 31420 81203 10168 20129 39618 40195 52016 70522 8352/ 92345 333 10233 20104 30/// 50261 5675/ 58008 70004 83616 85460;
0217763930999992012021103004+25733-100300FM-12+051599999V0200601N002010033019N0010001N1+01421+01151102261ADDAY141031AY241031GA1081+003301071GF108991081061004501999999IA1019MA1999999096491MD1210311+0341MW1051REMSYN106AAXX  11031 76393 31410 80602 10142 20115 39649 40226 52031 70544 886// 90250 333 30/// 563// 58034 88711;
0253763930999992012021106004+25733-100300FM-12+051599999V0200801N001010012019N0005001N1+01301+01201102431ADDAY141061AY241061GF108991081071001501999999GJ104689IA1019KA1240M+02331KA2240N+01041MA1999999096631MD1210141+0491MW1051REMSYN124AAXX  11061 76393 31205 80801 10130 20120 39663 40243 52014 70544 887// 90551 333 10233 20104 30/// 55078 563// 58049 88704;
