0245763930999992008010100004+25733-100300FM-12+051599999V0201001N001012200019N0060001N1+02461+00331101441ADDAY141061AY241061GF102991001001999999001011IA1019KA1120M+02921KA2180N+00981MA1999999095781MD1210111+0021MW1051REMSYN124AAXX  01001 76393 31956 21001 10246 20033 39578 40144 52011 70544 80001 92355 333 10292 20098 30/// 50341 56005 58002 70000;
0199763930999992008010103004+25733-100300FM-12+051599999V0200901N001012200019N0030001N1+02061+00961101741ADDAY141031AY221031GA1001+999999999GF100991001001999999001001IA1019MA1999999096111MD1210341+0261MW1051REMSYN088AAXX  01031 76393 31930 00901 10206 20096 39611 40174 52034 70542 90250 333 30/// 58026;
0251763930999992008010106004+25733-100300FM-12+051599999V0209999C000012200019N0020001N1+01701+00731102151ADDAY141061AY221061GA1001+999999999GF100991001001999999001001GJ105229IA1019KA1240M+02921KA2240N+00981MA1999999096481MD1210371+0581MW1051REMSYN106AAXX  01061 76393 31920 00000 10170 20073 39648 40215 52037 70542 90550 333 10292 20098 30/// 55087 58058;
0217763930999992008010109004+25733-100300FM-12+051599999V0202501N002010090019N0020001N1+01481+00561102721ADDAY141031AY271031GA1081+009001061GF108991081051008001999999IA1019MA1999999096971MD1210471+1091MW1051REMSYN106AAXX  01091 76393 31520 82502 10148 20056 39697 40272 52047 70547 885// 90850 333 30/// 565// 58109 88630;
0272763930999992008010112004+25733-100300FM-12+051599999V0203601N003010066019N0040001N1+01141-00471103331ADDAA124000091AY141061AY271061GA1081+006601061GF108991081051008001999999IA1019KA1240M+02921KA2120N+01101MA1999999097471MD1210501+1611MW1051REMSYN124AAXX  01121 76393 31540 83603 10114 21047 39747 40333 52050 70547 885// 91150 333 10292 20110 30098 567// 58161 70000 88622;
0189763930999992008010115004+25733-100300FM-12+051599999V0200701N001010009019N0200001N1+01021-00941103751ADDGA1081+000901061GF108991081051000751999999IA1019MA1999999097821MD1210351+1831REMSYN100AAXX  01151 76393 32170 80701 10102 21094 39782 40375 52035 885// 91455 333 30/// 56399 58183 88603;
0227763930999992008010118004+25733-100300FM-12+051599999V0203501N001010075019N0200001N1+01121-00371103931ADDGA1081+007501061GF108991081051008001999999IA1019KA1120M+01721KA2240N+00981MA1999999097961MD1210141+2021REMSYN112AAXX  01181 76393 32570 83501 10112 21037 39796 40393 52014 885// 91755 333 10172 20098 30/// 56399 58202 88625;
0189763930999992008010121004+25733-100300FM-12+051599999V0200701N001010054019N0200001N1+01201-00661103691ADDGA1081+005401061GF108991081051004501999999IA1019MA1999999097701MD1710191+2031REMSYN100AAXX  01211 76393 32470 80701 10120 21066 39770 40369 57019 885// 92055 333 30/// 56399 58203 88618;
0234763930999992008010200004+25733-100300FM-12+051599999V0203001N001010021019N0200001N1+01161-00921103761ADDAA124000091GF108991081051002501999999IA1019KA1120M+01721KA2180N+00981MA1999999097771MD1610071+1991REMSYN124AAXX  02001 76393 32370 83001 10116 21092 39777 40376 56007 885// 92355 333 10172 20098 30/// 50441 56399 58199 70000 88608;
0223763930999992008010203004+25733-100300FM-12+051599999V0200901N003010048019N0040001N1+01101-00611103961ADDAY141031AY241031GA1071+004801061GF108991071051004501041999IA1019MA1999999097961MD1210131+1851MW1051REMSYN112AAXX  02031 76393 31440 80903 10110 21061 39796 40396 52013 70544 8754/ 90250 333 30/// 5635/ 58185 87616 81356;
0253763930999992008010206004+25733-100300FM-12+051599999V0201101N001019999999N0040001N1+01041-00311104081ADDAY141061AY241061GF107991071001999999051999GJ100009IA1019KA1240M+01721KA2240N+01071MA1999999098071MD1110111+1591MW1051REMSYN124AAXX  02061 76393 31940 71101 10104 21031 39807 40408 51011 70544 8705/ 90550 333 10172 20107 30/// 55000 5605/ 58159 87357;
0217763930999992008010209004+25733-100300FM-12+051599999V0200801N001010210019N0050001N1+00981-00521104091ADDAY141031AY241031GA1061+021001031GF106991061001999999031999IA1019MA1999999098071MD1010001+1101MW1051REMSYN106AAXX  02091 76393 31950 60801 10098 21052 39807 40409 50000 70544 8603/ 90850 333 30/// 5605/ 58110 86357;
0244763930999992008010212004+25733-100300FM-12+051599999V0201001N001012200019N0050001N1+00781-00721104161ADDAA124000091GA1011+021001031GF101991011001999999041001IA1019KA1240M+01721KA2120N+00761MA1999999098121MD1210151+0651REMSYN118AAXX  02121 76393 32950 11001 10078 21072 39812 40416 52015 81040 91150 333 10172 20076 30055 56050 58065 70000 81357;
0167763930999992008010215004+25733-100300FM-12+051599999V0200901N004012200019N0200001N1+00861-00621104521ADDGF101991001001999999001011IA1019MA1999999098441MD1210321+0621REMSYN094AAXX  02151 76393 32970 10904 10086 21062 39844 40452 52032 80001 91455 333 30/// 56005 58062;
0205763930999992008010218004+25733-100300FM-12+051599999V0201001N004012200019N0200001N1+01161-00701104481ADDGF101991001001999999001011IA1019KA1120M+01251KA2240N+00701MA1999999098401MD1710041+0511REMSYN106AAXX  02181 76393 32970 11004 10116 21070 39840 40448 57004 80001 91755 333 10125 20070 30/// 56005 58051;
0167763930999992008010221004+25733-100300FM-12+051599999V0200901N003012200019N0200001N1+01321-00751104051ADDGF101991001001999999001011IA1019MA1999999098011MD1710391+0311REMSYN094AAXX  02211 76393 32970 10903 10132 21075 39801 40405 57039 80001 92055 333 30/// 56005 58031;
0217763930999992008010300004+25733-100300FM-12+051599999V0201201N002012200019N0200001N1+01141-00411103921ADDGF102991011001022501031011IA1019KA1120M+01421KA2180N+00701MA1999999097921MD1710091+0151REMSYN118AAXX  03001 76393 32870 21202 10114 21041 39792 40392 57009 81031 92355 333 10142 20070 30/// 50521 56035 58015 70000;
0171763930999992008010315004+25733-100300FM-12+051599999V0209999C000012200019N0100001N1+00481-00351103921ADDGA1001+999999999GF100991001001999999001001IA1019MA1999999097801MD1410001-0641REMSYN082AAXX  03151 76393 32960 00000 10048 21035 39780 40392 54002 91455 333 30/// 59064;
0209763930999992008010318004+25733-100300FM-12+051599999V0200801N003012200019N0140001N1+01001-00121103751ADDGA1001+999999999GF100991001001999999001001IA1019KA1120M+01151KA2240N+00201MA1999999097641MD1610161-0761REMSYN094AAXX  03181 76393 32964 00803 10100 21012 39764 40375 56016 91755 333 10115 20020 30/// 59076;
0171763930999992008010321004+25733-100300FM-12+051599999V0200801N002012200019N0200001N1+01321+00011103271ADDGA1001+999999999GF100991001001999999001001IA1019MA1999999097221MD1710421-0791REMSYN082AAXX  03211 76393 32970 00802 10132 20001 39722 40327 57042 92055 333 30/// 59079;
0241763930999992008010400004+25733-100300FM-12+051599999V0201201N003012200019N0200001N1+01321-00371103021ADDAA124000091GF101991001001999999001041KA1120M+01501KA2180N+00201MA1999999097041MD1710181-0881REMSYN118AAXX  04001 76393 32970 11203 10132 21037 39704 40302 57018 81004 92355 333 10150 20020 50261 56005 59088 70000 81074;EQDQ01+000012SCOTLC
0199763930999992008010403004+25733-100300FM-12+051599999V0202601N001012200019N0030001N1+01121+00091102991ADDAY141031AY241031GA1001+999999999GF100991001001999999001001IA1019MA1999999097061MD1010021+0001MW1051REMSYN088AAXX  04031 76393 31930 02601 10112 20009 39706 40299 50002 70544 90250 333 30/// 58000;
0251763930999992008010406004+25733-100300FM-12+051599999V0200901N001012200019N0030001N1+00921+00091102871ADDAY101061AY201061GA1001+999999999GF100991001001999999001001GJ105409IA1019KA1240M+01421KA2240N+00951MA1999999096941MD1710121+0001MW1051REMSYN106AAXX  04061 76393 31930 00901 10092 20009 39694 40287 57012 70500 90550 333 10142 20095 30/// 55090 58000;
0199763930999992008010409004+25733-100300FM-12+051599999V0209999C000012200019N0030001N1+00721+00151102731ADDAY101031AY201031GA1001+999999999GF100991001001999999001001IA1019MA1999999096791MD1710151+0001MW1051REMSYN088AAXX  04091 76393 31930 00000 10072 20015 39679 40273 57015 70500 90850 333 30/// 58000;
0285763930999992008010412004+25733-100300FM-12+051599999V0209999C000012200019N0030001N1+00581-00021102681ADDAA124000091AY101061AY201061GA1001+999999999GF100991001001999999001001IA1019IA2999+00259KA1240M+01501KA2120N+00551MA1999999096701MD1710091+0001MW1051REMSYN106AAXX  04121 76393 31930 00000 10058 21002 39670 40268 57009 70500 91150 333 10150 20055 30025 58000 70000;EQDQ01  00002PRCP24
0199763930999992008010503004+25733-100300FM-12+051599999V0209999C000012200019N0030001N1+01641+00671102141ADDAY141031AY241031GA1001+999999999GF100991001001999999001001IA1019MA1999999096361MD1610021-0701MW1051REMSYN088AAXX  05031 76393 31930 00000 10164 20067 39636 40214 56002 70544 90250 333 30/// 59070;
0251763930999992008010506004+25733-100300FM-12+051599999V0209999C000012200019N0030001N1+01401+00741102171ADDAY141061AY241061GA1001+999999999GF100991001001999999001001GJ105349IA1019KA1240M+02321KA2240N+00551MA1999999096371MD1210011-0571MW1051REMSYN106AAXX  05061 76393 31930 00000 10140 20074 39637 40217 52001 70544 90550 333 10232 20055 30/// 55089 59057;
0199763930999992008010509004+25733-100300FM-12+051599999V0209999C000012200019N0030001N1+01141+00651102031ADDAY141031AY241031GA1001+999999999GF100991001001999999001001IA1019MA1999999096211MD1710161-0581MW1051REMSYN088AAXX  05091 76393 31930 00000 10114 20065 39621 40203 57016 70544 90850 333 30/// 59058;
0272763930999992008010512004+25733-100300FM-12+051599999V0209999C000012200019N0030001N1+01041+00621101971ADDAA124000091AY141061AY241061GA1011+060001001GF101991001001999999001011IA1019KA1240M+02321KA2120N+00941MA1999999096131MD1610081-0571MW1051REMSYN124AAXX  05121 76393 31930 10000 10104 20062 39613 40197 56008 70544 80001 91150 333 10232 20094 30062 56007 59057 70000 81070;
0180763930999992008010515004+25733-100300FM-12+051599999V0201901N001019999999N0040001N1+01421+00411999999ADDAY141031AY211031GF106991999999999999999999MD1410001+9999MW1051REMSYN106AAXX  05151 76393 31940 61901 10142 20041 54000 70541 70541 86004 86004 91455 333 30/// 56005 59059 86074;
0246763930999992008010518004+25733-100300FM-12+051599999V0200901N001012200019N0150001N1+02161+00411101941ADDGA1011+072001001GF101991001001999999001041IA1019KA1120M+02451KA2240N+00941MA1999999096111MD1410001-0311REMSYN112AAXX  05181 76393 32965 10901 10216 20041 39611 40194 54002 81004 91755 333 10245 20094 30/// 56005 59031 81074;EQDQ01+000012SCOTLC
0236763930999992008010521004+25733-100300FM-12+051599999V0201101N003012200019N0040001N1+02601+00751101481ADDAY141031AY201031GA1011+072001001GF101991001001999999001041IA1019MA1999999095731MD1710381-0711MW1051REMSYN106AAXX  05211 76393 31940 11103 10260 20075 39573 40148 57038 70540 81004 92055 333 30/// 56005 59071 81074;EQDQ01+000012SCOTLC
0253763930999992008010600004+25733-100300FM-12+051599999V0200901N001012200019N0180001N1+02401+00691101401ADDAA124000091GF101991001001999999001041IA1019KA1120M+02751KA2180N+00941MA1999999095731MD1410001-0631REMSYN124AAXX  06001 76393 32968 10901 10240 20069 39573 40140 54000 81004 92355 333 10275 20094 30/// 50241 56005 59063 70000 81074;EQDQ01+000012SCOTLC
0171763930999992008010603004+25733-100300FM-12+051599999V0209999C000012200019N0150001N1+01941+00821101491ADDGA1001+999999999GF100991001001999999001001IA1019MA1999999095851MD1210121-0511REMSYN082AAXX  06031 76393 32965 00000 10194 20082 39585 40149 52012 90250 333 30/// 59051;
0223763930999992008010606004+25733-100300FM-12+051599999V0209999C000012200019N0150001N1+01641+00861101521ADDGA1001+999999999GF100991001001999999001001GJ105049IA1019KA1240M+02751KA2240N+00941MA1999999095861MD1310011-0511REMSYN100AAXX  06061 76393 32965 00000 10164 20086 39586 40152 53001 90550 333 10275 20094 30/// 55084 59051;
0171763930999992008010609004+25733-100300FM-12+051599999V0209999C000012200019N0150001N1+01281+00851101481ADDGA1001+999999999GF100991001001999999001001IA1019MA1999999095771MD1710091-0441REMSYN082AAXX  06091 76393 32965 00000 10128 20085 39577 40148 57009 90850 333 30/// 59044;
0245763930999992008010612004+25733-100300FM-12+051599999V0209999C000012200019N0150001N1+01161+00871101421ADDAA124000091GA1001+999999999GF100991001001999999001001IA1019KA1240M+02751KA2120N+01021MA1999999095651MD1710121-0481REMSYN100AAXX  06121 76393 32965 00000 10116 20087 39565 40142 57012 91150 333 10275 20102 30080 59048 70000;EQDQ01  00002PRCP24
0199763930999992008010615004+25733-100300FM-12+051599999V0209999C000012200019N0030001N1+01461+00751101611ADDAY141031AY241031GA1001+999999999GF100991001001999999001001IA1019MA1999999095791MD1210141-0341MW1041REMSYN088AAXX  06151 76393 31930 00000 10146 20075 39579 40161 52014 70444 91455 333 30/// 59034;
0233763930999992008010618004+25733-100300FM-12+051599999V0201101N001012200019N0040001N1+02171+00931101521ADDAY141061AY241061GF101991001001999999001011IA1019KA1120M+02301KA2240N+01021MA1999999095721MD1710071-0391MW1041REMSYN112AAXX  06181 76393 31940 11101 10217 20093 39572 40152 57007 70444 80001 91755 333 10230 20102 30/// 56003 59039;
0195763930999992008010621004+25733-100300FM-12+051599999V0201001N002012200019N0080001N1+02721+00931101131ADDAY141031AY241031GF101991001001999999001011IA1019MA1999999095411MD1710311-0321MW1051REMSYN100AAXX  06211 76393 31958 11002 10272 20093 39541 40113 57031 70544 80001 92055 333 30/// 56003 59032;
0245763930999992008010700004+25733-100300FM-12+051599999V0209999C000012200019N0120001N1+02521+00891101011ADDAY141061AY241061GF101991001001999999001011IA1019KA1120M+02821KA2180N+01021MA1999999095361MD1710051-0371MW1051REMSYN124AAXX  07001 76393 31962 10000 10252 20089 39536 40101 57005 70544 80001 92355 333 10282 20102 30/// 50231 56005 59037 70000;
0202763930999992008010703004+25733-100300FM-12+051599999V0202901N001012200019N0050001N1+02021+01061101091ADDAA109999999AY141031AY221031GA1001+999999999GF100991001001999999001001MD1210121+0371MW1051REMSYN082AAXX  07031 76393 31950 02901 10202 20106 40109 52012 69548 70542 90250 333 58037;EQDQ01  95402PRCP09
0251763930999992008010706004+25733-100300FM-12+051599999V0209999C000012200019N0030001N1+01861+01171101101ADDAY141061AY241061GA1001+999999999GF100991001001999999001001GJ105049IA1019KA1240M+02821KA2240N+01021MA1999999095491MD1110011-0371MW1051REMSYN106AAXX  07061 76393 31930 00000 10186 20117 39549 40110 51001 70544 90550 333 10282 20102 30/// 55084 59037;
0199763930999992008010709004+25733-100300FM-12+051599999V0209999C000012200019N0030001N1+01441+01171101071ADDAY141031AY241031GA1001+999999999GF100991001001999999001001IA1019MA1999999095421MD1710071-0351MW1051REMSYN088AAXX  07091 76393 31930 00000 10144 20117 39542 40107 57007 70544 90850 333 30/// 59035;
0273763930999992008010712004+25733-100300FM-12+051599999V0202801N001012200019N0030001N1+01321+01121101101ADDAA124000091AY141061AY241061GA1001+999999999GF100991001001999999001001IA1019KA1240M+02821KA2120N+01241MA1999999095381MD1710041-0271MW1051REMSYN106AAXX  07121 76393 31930 02801 10132 20112 39538 40110 57004 70544 91150 333 10282 20124 30092 59027 70000;EQDQ01  00002PRCP24
0232763930999992008010715004+25733-100300FM-12+051599999V0202501N001012200019N0020001N1+01721+00881101291ADDAA118955092AY141031AY201031GA1021+072001001GF102991001001999999001041IA1019MD1310151-0261MW1051REMSYN106AAXX  07151 76393 31920 22501 10172 20088 40129 53015 69553 70540 82004 91455 333 30/// 56005 59026 82074;EQDQ01+000022SCOTLC
0274763930999992008010718004+25733-100300FM-12+051599999V0200901N001012200019N0040001N1+02381+01191101241ADDAY141061AY201061GA1021+072001001GF102991001001999999001041IA1019KA1120M+02451KA2240N+01241MA1999999095491MD1410001-0231MW1051REMSYN118AAXX  07181 76393 31940 20901 10238 20119 39549 40124 54004 70540 82004 91755 333 10245 20124 30/// 56005 59023 82074;EQDQ01+000022SCOTLC
0208763930999992008010721004+25733-100300FM-12+051599999V0200401N002010720019N0100001N1+02921+01051100771ADDGA1061+072001001GF106991001001999999001041IA1019MA1999999095111MD1710381-0301REMSYN100AAXX  07211 76393 32960 60402 10292 20105 39511 40077 57038 86004 92055 333 30/// 56005 59030 86074;EQDQ01+000062SCOTLC
0256763930999992008010800004+25733-100300FM-12+051599999V0200601N002010900019N0180001N1+02701+01081100651ADDAA124000091GA1031+024001031GF106991031001022501041031IA1019KA1120M+03081KA2180N+01241MA1999999095071MD1410001-0291REMSYN130AAXX  08001 76393 32868 60602 10270 20108 39507 40065 54004 83043 92355 333 10308 20124 30/// 50301 56055 59029 70000 83358 83074;
0199763930999992008010803004+25733-100300FM-12+051599999V0202801N001012200019N0030001N1+02301+01041100771ADDAY101031AY201031GA1001+999999999GF100991001001999999001001IA1019MA1999999095221MD1210151-0261MW1051REMSYN088AAXX  08031 76393 31930 02801 10230 20104 39522 40077 52015 70500 90250 333 30/// 59026;
0251763930999992008010806004+25733-100300FM-12+051599999V0209999C000012200019N0030001N1+01881+01041100821ADDAY101061AY201061GA1001+999999999GF100991001001999999001001GJ105169IA1019KA1240M+03081KA2240N+01241MA1999999095261MD1110041-0231MW1051REMSYN106AAXX  08061 76393 31930 00000 10188 20104 39526 40082 51004 70500 90550 333 10308 20124 30/// 55086 59023;
0199763930999992008010809004+25733-100300FM-12+051599999V0209999C000012200019N0030001N1+01661+00971100881ADDAY101031AY201031GA1001+999999999GF100991001001999999001001IA1019MA1999999095271MD1210011-0151MW1051REMSYN088AAXX  08091 76393 31930 00000 10166 20097 39527 40088 52001 70500 90850 333 30/// 59015;
0273763930999992008010812004+25733-100300FM-12+051599999V0209999C000012200019N0030001N1+01481+00881100981ADDAA124000091AY101061AY201061GA1001+999999999GF100991001001999999001001IA1019KA1240M+03081KA2120N+01481MA1999999095301MD1210031-0081MW1051REMSYN106AAXX  08121 76393 31930 00000 10148 20088 39530 40098 52003 70500 91150 333 10308 20148 30103 59008 70000;EQDQ01  00002PRCP24
0195763930999992008010815004+25733-100300FM-12+051599999V0201701N001012200019N0040001N1+02341+00041101321ADDAY141031AY241031GF101991001001999999001011IA1019MA1999999095601MD1210301+0071MW1051REMSYN100AAXX  08151 76393 31940 11701 10234 20004 39560 40132 52030 70544 80001 91455 333 30/// 56005 58007;
0233763930999992008010818004+25733-100300FM-12+051599999V0203601N002012200019N0060001N1+02891+00151101431ADDAY141061AY241061GF101991001001999999001011IA1019KA1120M+03061KA2240N+01481MA1999999095751MD1210151+0261MW1051REMSYN112AAXX  08181 76393 31956 13602 10289 20015 39575 40143 52015 70544 80001 91755 333 10306 20148 30/// 56005 58026;
0195763930999992008010821004+25733-100300FM-12+051599999V0203601N002012200019N0100001N1+02811+00631101301ADDAY141031AY241031GF102991001001999999001011IA1019MA1999999095681MD1710071+0571MW1051REMSYN100AAXX  08211 76393 31960 23602 10281 20063 39568 40130 57007 70544 80001 92055 333 30/// 56005 58057;
0217763930999992008010900004+25733-100300FM-12+051599999V0203601N001012200019N0140001N1+02481+00331101471ADDGF102991001001999999001011IA1019KA1120M+03071KA2180N+01481MA1999999095881MD1210201+0811REMSYN118AAXX  09001 76393 32964 23601 10248 20033 39588 40147 52020 80001 92355 333 10307 20148 30/// 50511 56005 58081 70000;
0199763930999992008010903004+25733-100300FM-12+051599999V0209999C000012200019N0030001N1+02161+00571101751ADDAY141031AY221031GA1001+999999999GF100991001001999999001001IA1019MA1999999096131MD1210281+0941MW1051REMSYN088AAXX  09031 76393 31930 00000 10216 20057 39613 40175 52028 70542 90250 333 30/// 58094;
0263763930999992008010906004+25733-100300FM-12+051599999V0209999C000012200019N0030001N1+01941+00471101871ADDAY141061AY241061GA1011+060001001GF101991001001999999001011GJ105229IA1019KA1240M+03071KA2240N+01481MA1999999096231MD1010071+0971MW1051REMSYN118AAXX  09061 76393 31930 10000 10194 20047 39623 40187 50007 70544 80001 90550 333 10307 20148 30/// 55087 58097 81070;
0199763930999992008010909004+25733-100300FM-12+051599999V0209999C000012200019N0030001N1+01741+00301101861ADDAY141031AY241031GA1001+999999999GF100991001001999999001001IA1019MA1999999096171MD1810061-0101MW1051REMSYN088AAXX  09091 76393 31930 00000 10174 20030 39617 40186 58006 70544 90850 333 30/// 59010;
0272763930999992008010912004+25733-100300FM-12+051599999V0201601N001012200019N0030001N1+01621+00621101881ADDAA124000091AY141061AY241061GA1011+009901061GF101991011041012501001001IA1019KA1240M+02331KA2120N+01461MA1999999096151MD1510021+0851MW1051REMSYN124AAXX  09121 76393 31630 11601 10162 20062 39615 40188 55002 70544 81400 91150 333 10233 20146 30114 56500 58085 70000 81633;
0220763930999992008010915004+25733-100300FM-12+051599999V0209999C000010600019N0060001N1+01661+00531101881ADDGA1061+060001001GF106991001001999999001021IA1019MA1999999096121MD1010031+0521MW1051REMSYN106AAXX  09151 76393 31956 60000 10166 20053 39612 40188 50003 705// 86002 91450 333 30/// 56005 58052 86070;EQDQ01+000062SCOTLC
0245763930999992008010918004+25733-100300FM-12+051599999V0202101N001012200019N0160001N1+01921+00941101771ADDGA1011+021001031GF103991031001999999031041IA1019KA1120M+03071KA2240N+01481MA1999999096011MD1710111+0261MW1051REMSYN124AAXX  09181 76393 31966 32101 10192 20094 39601 40177 57011 705// 83034 91750 333 10307 20148 30/// 56055 58026 81357 82070;
0195763930999992008010921004+25733-100300FM-12+051599999V0201201N001019999999N0070001N1+02181+00571101261ADDGA1021+018001031GF107991071001999999051041IA1019MA1999999095541MD1710471-0141REMSYN106AAXX  09211 76393 31957 71201 10218 20057 39554 40126 57047 87054 92050 333 30/// 56055 59014 82356 85070;
0253763930999992008011000004+25733-100300FM-12+051599999V0200901N001019999999N0070001N1+02061+00671101111ADDAA124000091GF107991001001999999001041IA1019KA1120M+02351KA2180N+01461MA1999999095421MD1710121-0461REMSYN124AAXX  10001 76393 32957 70901 10206 20067 39542 40111 57012 87004 92350 333 10235 20146 30/// 50355 56005 59046 70000 87070;EQDQ01+000072SCOTLC
0208763930999992008011003004+25733-100300FM-12+051599999V0203301N002010720019N0180001N1+01781+00461101121ADDGA1061+072001001GF106991001001999999001041IA1019MA1999999095451MD1410001-1611REMSYN100AAXX  10031 76393 32968 63302 10178 20046 39545 40112 54003 86004 90255 333 30/// 56005 59161 86074;EQDQ01+000062SCOTLC
0244763930999992008011006004+25733-100300FM-12+051599999V0200801N001019999999N0150001N1+01701+00561101111ADDGF105991001001999999001041GJ104389IA1019KA1240M+02351KA2240N+01461MA1999999095431MD1410001-0801REMSYN118AAXX  10061 76393 32965 50801 10170 20056 39543 40111 54002 85004 90555 333 10235 20146 30/// 55073 56005 59080 85074;EQDQ01+000052SCOTLC
0208763930999992008011009004+25733-100300FM-12+051599999V0202901N001010720019N0130001N1+01541+00561100991ADDGA1051+072001001GF105991001001999999001041IA1019MA1999999095291MD1610141-0881REMSYN100AAXX  10091 76393 32963 52901 10154 20056 39529 40099 56014 85004 90855 333 30/// 56005 59088 85074;EQDQ01+000052SCOTLC
0263763930999992008011012004+25733-100300FM-12+051599999V0202601N002012200019N0120001N1+01501+00561101051ADDAA124000091GA1041+072001001GF104991001001999999001041IA1019KA1240M+02351KA2120N+01421MA1999999095321MD1410001-0831REMSYN118AAXX  10121 76393 32962 42602 10150 20056 39532 40105 54003 84004 91155 333 10235 20142 30105 56005 59083 70000 84074;EQDQ01+000042SCOTLC
0223763930999992008011015004+25733-100300FM-12+051599999V0201201N001019999999N0100001N1+02081+00191101171ADDAY141031AY241031GA1031+060001001GF107991001001999999001091IA1019MA1999999095431MD1210111-0691MW1051REMSYN112AAXX  10151 76393 31960 71201 10208 20019 39543 40117 52011 70544 80009 91455 333 30/// 56005 59069 83070 84170;
0255763930999992008011018004+25733-100300FM-12+051599999V0203601N002010180019N0050001N1+02411+00181101331ADDAY141061AY241061GA1051+018001031GF107991051001022501031021IA1019KA1120M+02701KA2240N+01421MA1999999095611MD1110181-0401MW1051REMSYN118AAXX  10181 76393 31850 73602 10241 20018 39561 40133 51018 70544 85032 91755 333 10270 20142 30/// 56055 59040 85356;
0223763930999992008011021004+25733-100300FM-12+051599999V0200701N00201036001CN0100001N1+02371+00071101171ADDAY141031AY241031GA1021+018001061GF107991021051017501031011IA1019MA1999999095501MD1510111-0041MW1051REMSYN112AAXX  10211 76393 31760 70702 10237 20007 39550 40117 55011 70544 82531 92050 333 30/// 56555 59004 82656 84359;
0234763930999992008011100004+25733-100300FM-12+051599999V0209999C000019999999N0160001N1+02101+00071101171ADDAA124000091GF105991001001999999001061IA1019KA1120M+02601KA2180N+01421MA1999999095531MD1210031+0111REMSYN124AAXX  11001 76393 32966 50000 10210 20007 39553 40117 52003 80006 92355 333 10260 20142 30/// 50501 56005 58011 70000 85070;
0217763930999992008011103004+25733-100300FM-12+051599999V0201601N001012200019N0050001N1+01901+00431101341ADDAY141031AY221031GA1011+060001001GF102991001001999999001011IA1019MA1999999095691MD1210151+0241MW1051REMSYN106AAXX  11031 76393 31950 21601 10190 20043 39569 40134 52015 70542 80001 90250 333 30/// 56005 58024 81070;
0251763930999992008011106004+25733-100300FM-12+051599999V0209999C000012200019N0030001N1+01641+00361101481ADDAY141061AY241061GA1001+999999999GF100991001001999999001001GJ101509IA1019KA1240M+02601KA2240N+01421MA1999999095801MD1210111+0371MW1051REMSYN106AAXX  11061 76393 31930 00000 10164 20036 39580 40148 52011 70544 90550 333 10260 20142 30/// 55025 58037;
0199763930999992008011109004+25733-100300FM-12+051599999V0209999C000012200019N0030001N1+01201+00451101451ADDAY141031AY241031GA1001+999999999GF100991001001999999001001IA1019MA1999999095721MD1710081+0431MW1051REMSYN088AAXX  11091 76393 31930 00000 10120 20045 39572 40145 57008 70544 90850 333 30/// 58043;
0273763930999992008011112004+25733-100300FM-12+051599999V0201101N001012200019N0030001N1+01341+00081101461ADDAA124000091AY141061AY241061GA1001+999999999GF100991001001999999001001IA1019KA1240M+01981KA2120N+01151MA1999999095691MD1010031+0371MW1051REMSYN106AAXX  11121 76393 31930 01101 10134 20008 39569 40146 50003 70544 91150 333 10198 20115 30087 58037 70000;EQDQ01  00002PRCP24
0224763930999992008011115004+25733-100300FM-12+051599999V0209999C000012200019N0180001N1+01541+00771101551ADDGA1011+060001001GF199999001001999999001999IA1019MA1999999095741MD1010051+0311REMSYN100AAXX  11151 76393 32968 00000 10154 20077 39574 40155 50005 81004 91450 333 30/// 56005 58031 81070;EQDQ01+000002SCOTCVQ02+000002SCOHCG
0239763930999992008011118004+25733-100300FM-12+051599999V0200501N001012200019N0180001N1+02001+00631101451ADDGA1021+021001031GF102991021001999999031001IA1019KA1120M+02181KA2240N+01151MA1999999095661MD1210081+0051MW1051REMSYN118AAXX  11181 76393 31968 20501 10200 20063 39566 40145 52008 705// 82030 91750 333 10218 20115 30/// 56050 58005 82357;
0183763930999992008011121004+25733-100300FM-12+051599999V0201001N002012200019N0180001N1+02281+00201100911ADDGA1001+999999999GF100991001001999999001001IA1019MA1999999095201MD1710461-0301MW1051REMSYN088AAXX  11211 76393 31968 01002 10228 20020 39520 40091 57046 705// 92050 333 30/// 59030;
0279763930999992008011200004+25733-100300FM-12+051599999V0209999C000012200019N0160001N1+02161+00051100851ADDAA124000091AY101061AY201061GA1001+999999999GF100991001001999999001001IA1019KA1120M+02501KA2180N+01151MA1999999095191MD1010011-0341MW1051REMSYN112AAXX  12001 76393 31966 00000 10216 20005 39519 40085 50001 70500 92350 333 10250 20115 30/// 50307 59034 70000;EQDQ01  00002PRCP24
0199763930999992008011203004+25733-100300FM-12+051599999V0202801N001012200019N0060001N1+01841+00451100921ADDAY141031AY201031GA1001+999999999GF100991001001999999001001IA1019MA1999999095271MD1210081-0421MW1051REMSYN088AAXX  12031 76393 31956 02801 10184 20045 39527 40092 52008 70540 90250 333 30/// 59042;
0251763930999992008011206004+25733-100300FM-12+051599999V0209999C000012200019N0080001N1+01501+00561101031ADDAY141061AY201061GA1001+999999999GF100991001001999999001001GJ105529IA1019KA1240M+02501KA2240N+01151MA1999999095371MD1210101-0431MW1051REMSYN106AAXX  12061 76393 31958 00000 10150 20056 39537 40103 52010 70540 90550 333 10250 20115 30/// 55092 59043;
0199763930999992008011209004+25733-100300FM-12+051599999V0209999C000012200019N0080001N1+01301+00531101061ADDAY141031AY201031GA1001+999999999GF100991001001999999001001IA1019MA1999999095351MD1510021-0371MW1051REMSYN088AAXX  12091 76393 31958 00000 10130 20053 39535 40106 55002 70540 90855 333 30/// 59037;
0273763930999992008011212004+25733-100300FM-12+051599999V0209999C000012200019N0080001N1+01181+00521101161ADDAA124000091AY141061AY201061GA1001+999999999GF100991001001999999001001IA1019KA1240M+02501KA2120N+01001MA1999999095391MD1210041-0301MW1051REMSYN106AAXX  12121 76393 31958 00000 10118 20052 39539 40116 52004 70540 91150 333 10250 20100 30085 59030 70000;EQDQ01  00002PRCP24
0199763930999992008011215004+25733-100300FM-12+051599999V0202601N002012200019N0050001N1+01621+00421101301ADDAY141031AY241031GA1001+999999999GF100991001001999999001001IA1019MA1999999095501MD1210111-0241MW1041REMSYN088AAXX  12151 76393 31950 02602 10162 20042 39550 40130 52011 70444 91455 333 30/// 59024;
0237763930999992008011218004+25733-100300FM-12+051599999V0200901N002012200019N0040001N1+02441+00001101381ADDAY141061AY241061GA1001+999999999GF100991001001999999001001IA1019KA1120M+02501KA2240N+01001MA1999999095601MD1210101-0061MW1041REMSYN100AAXX  12181 76393 31940 00902 10244 20000 39560 40138 52010 70444 91755 333 10250 20100 30/// 59006;
0199763930999992008011221004+25733-100300FM-12+051599999V0203601N002012200019N0120001N1+02571-00181101141ADDAY141031AY241031GA1001+999999999GF100991001001999999001001IA1019MA1999999095441MD1710161+0241MW1041REMSYN088AAXX  12211 76393 31962 03602 10257 21018 39544 40114 57016 70444 92055 333 30/// 58024;
0279763930999992008011300004+25733-100300FM-12+051599999V0203401N001012200019N0120001N1+02301-00401101271ADDAA124000091AY141061AY241061GA1001+999999999GF100991001001999999001001IA1019KA1120M+02741KA2180N+01001MA1999999095621MD1210181-0171MW1041REMSYN112AAXX  13001 76393 31962 03401 10230 21040 39562 40127 52018 70444 92355 333 10274 20100 30/// 50461 59017 70000;EQDQ01  00002PRCP24
0199763930999992008011303004+25733-100300FM-12+051599999V0203501N001012200019N0030001N1+01941+00691101631ADDAY141031AY221031GA1001+999999999GF100991001001999999001001IA1019MA1999999095991MD1210371+0721MW1051REMSYN088AAXX  13031 76393 31930 03501 10194 20069 39599 40163 52037 70542 90250 333 30/// 58072;
0251763930999992008011306004+25733-100300FM-12+051599999V0209999C000012200019N0030001N1+01501-00412101891ADDAY141061AY241061GA1001+999999999GF100991001001999999001001GJ105589IA1019KA1240M+02601KA2240N+01201MA1999999096211MD1210221+0841MW1051REMSYN106AAXX  13061 76393 31930 00000 10150 21041 39621 40189 52022 70544 90550 333 10260 20120 30/// 55093 58084;
0144763930999992008011309004+25733-100300FM-12+051599999V0202801N002012200019N0030001N1+01421-00271999999ADDGA1001+999999999GF100991001001999999001001REMSYN090AAXX  13091 76393 31930 02802 10142 21027 3 39622 40196 55001 70544 90850 333 30/// 58087;
0171763930999992008011315004+25733-100300FM-12+051599999V0202201N001012200019N0150001N1+01241-00181102281ADDGA1001+999999999GF100991001001999999001001IA1019MA1999999096421MD1310091+0921REMSYN082AAXX  13151 76393 32965 02201 10124 21018 39642 40228 53009 91455 333 30/// 58092;
0209763930999992008011318004+25733-100300FM-12+051599999V0201001N002012200019N0200001N1+01661-00321102271ADDGA1001+999999999GF100991001001999999001001IA1019KA1120M+01801KA2240N+00981MA1999999096401MD1410001+0801REMSYN094AAXX  13181 76393 32970 01002 10166 21032 39640 40227 54002 91755 333 10180 20098 30/// 58080;
0240763930999992008011321004+25733-100300FM-12+051599999V0200901N003012200019N0200001N1+01921-00251101542ADDGA1011+072001001GF101991001001999999001041IA1019MA1999999095742MD1710661+0301REMSYN100AAXX  13211 76393 32970 10903 10192 21025 39574 40154 57066 81004 92055 333 30/// 56005 58030 81074;EQDQ01+000012SCOTLCQ02+095743APOSP Q03+101543APOSLP
0253763930999992008011400004+25733-100300FM-12+051599999V0200901N002012200019N0200001N1+01701-00321101811ADDAA124000091GF102991001001999999001041IA1019KA1120M+02051KA2180N+00981MA1999999096021MD1210281+0401REMSYN124AAXX  14001 76393 32970 20902 10170 21032 39602 40181 52028 82004 92355 333 10205 20098 30/// 50541 56005 58040 70000 82074;EQDQ01+000022SCOTLC
0171763930999992008011403004+25733-100300FM-12+051599999V0201201N001012200019N0150001N1+01541-00021102041ADDGA1001+999999999GF100991001001999999001001IA1019MA1999999096251MD1210231+0261REMSYN082AAXX  14031 76393 32965 01201 10154 21002 39625 40204 52023 90250 333 30/// 58026;
0225763930999992008011406004+25733-100300FM-12+051599999V0201101N002019999999N0150001N1+01201+00501102151ADDGF105991051001999999051001GJ105469IA1019KA1240M+02051KA2240N+00981MA1999999096351MD1210101+0141REMSYN118AAXX  14061 76393 32965 51102 10120 20050 39635 40215 52010 85050 90550 333 10205 20098 30/// 55091 56050 58014 85359;
0217763930999992008011409004+25733-100300FM-12+051599999V0200901N001010051019N0100001N1+01081+00581102201ADDAY141031AY221031GA1071+005101061GF107991071051004501999999IA1019MA1999999096361MD1810011+0141MW1051REMSYN106AAXX  14091 76393 31460 70901 10108 20058 39636 40220 58001 70542 875// 90850 333 30/// 56399 58014 87617;
0272763930999992008011412004+25733-100300FM-12+051599999V0200901N002012200019N0080001N1+01021+00761102291ADDAA124000091AY141061AY221061GA1041+002701061GF104991041051002501001001IA1019KA1240M+02051KA2120N+00901MA1999999096411MD1210051+0081MW1051REMSYN124AAXX  14121 76393 31358 40902 10102 20076 39641 40229 52005 70542 84500 91150 333 10205 20090 30080 56300 58008 70000 84609;
0189763930999992008011415004+25733-100300FM-12+051599999V0203001N001010033019N0140001N1+01061+00681102511ADDGA1051+003301061GF107991051051004501001021IA1019MA1999999096591MD1210181+0171REMSYN100AAXX  14151 76393 32464 73001 10106 20068 39659 40251 52018 85502 91455 333 30/// 56305 58017 85611;
0172763930999992008011418004+25733-100300FM-12+051599999V0200901N002019999999N0060001N1+01181+00911102511ADDAA106000021AY141061AY241061GF108991999999002501999999MA1999999096581MD1710011+9999MW1501REMSYN072AAXX  14181 76393 01356 80902 10118 20091 39658 40251 57001 69901 75044;
0189763930999992008011421004+25733-100300FM-12+051599999V0201001N002010018019N0060001N1+01141+00961102211ADDGA1081+001801061GF108991081051001501999999IA1019MA1999999096311MD1710271+0571REMSYN100AAXX  14211 76393 31256 81002 10114 20096 39631 40221 57027 885// 92055 333 30/// 563// 58057 88606;
0172763930999992008011500004+25733-100300FM-12+051599999V0200901N002019999999N0030001N1+01111+01021102221ADDAA106000021AY141061AY241061GF108991999999000751999999MA1999999096311MD1410001+9999MW1501REMSYN072AAXX  15001 76393 01130 80902 10111 20102 39631 40222 54000 69901 75044;
0228763930999992008011503004+25733-100300FM-12+051599999V0200701N002010009019N0030001N1+01071+00981102241ADDAA103000991AY141031AY251031GA1081+000901071GF108991081061000751999999IA1099MA1999999096331MD1110021+0081MW1051REMSYN106AAXX  15031 76393 21130 80702 10107 20098 39633 40224 51002 70545 886// 90250 333 31/// 58008 69997 88703;
0172763930999992008011506004+25733-100300FM-12+051599999V0201101N002019999999N0030001N1+01121+01051102221ADDAA106001091AY141061AY251061GF108991999999000751999999MA1999999096311MD1710021+9999MW1501REMSYN072AAXX  15061 76393 01130 81102 10112 20105 39631 40222 57002 69991 75045;
0234763930999992008011509004+25733-100300FM-12+051599999V0200601N002010006019N0020001N1+01121+01051102131ADDAA103002091AY151031AY251031GA1081+000601071GF108991081061000751999999IA1119MA1999999096231MD1710081-0131MW1501REMSYN112AAXX  15091 76393 21120 80602 10112 20105 39623 40213 57008 75055 886// 90850 333 32/// 563// 59013 60027 88702;
0172763930999992008011512004+25733-100300FM-12+051599999V0203601N001019999999N0020001N1+01001+00961102101ADDAA106007991AY161061AY261061GF108991999999000251999999MA1999999096201MD1310031+9999MW1521REMSYN072AAXX  15121 76393 01020 83601 10100 20096 39620 40210 53003 60081 75266;
0172763930999992008011518004+25733-100300FM-12+051599999V0200301N001019999999N0010001N1+01021+00951102181ADDAA118008991AY151061AY221061GF108991999999000751999999MA1999999096261MD1410001+9999MW1501REMSYN072AAXX  15181 76393 11110 80301 10102 20095 39626 40218 54003 60093 75052;
0172763930999992008011600004+25733-100300FM-12+051599999V0200901N002019999999N0010001N1+01081+01041101521ADDAA106007191AY151061AY221061GF108991999999000251999999MA1999999095631MD1410001+9999MW1501REMSYN072AAXX  16001 76393 01010 80902 10108 20104 39563 40152 54005 60071 75052;
0234763930999992008011603004+25733-100300FM-12+051599999V0202701N001010003019N0010001N1+00921+00881101641ADDAA103001091AY151031AY221031GA1081+000301071GF108991081061000251999999IA1099MA1999999095751MD1210121-0581MW1501REMSYN112AAXX  16031 76393 21010 82701 10092 20088 39575 40164 52012 75052 886// 90250 333 31/// 56399 59058 60017 88701;
0172763930999992008011606004+25733-100300FM-12+051599999V0202301N001019999999N0020001N1+00981+00941101551ADDAA106004191AY151061AY221061GF108991999999000751999999MA1999999095661MD1710111+9999MW1501REMSYN072AAXX  16061 76393 11120 82301 10098 20094 39566 40155 57011 60041 75052;
0217763930999992008011609004+25733-100300FM-12+051599999V0203601N001012200019N0030001N1+00921+00811101331ADDAY141031AY201031GA1021+010801061GF102991021051012501001001IA1099MA1999999095451MD1710211-0781MW1051REMSYN106AAXX  16091 76393 31630 23601 10092 20081 39545 40133 57021 70540 82500 90850 333 31/// 56300 59078 82636;
0272763930999992008011612004+25733-100300FM-12+051599999V0209999C000012200019N0040001N1+00821+00701101331ADDAA124018191AY141061AY201061GA1031+001201071GF103991031071001501001001IA1019KA1240M+01161KA2120N+00701MA1999999095441MD1510011-0761MW1051REMSYN124AAXX  16121 76393 31240 30000 10082 20070 39544 40133 55001 70540 83700 91150 333 10116 20070 30060 56300 59076 70181 83704;
0199763930999992008011615004+25733-100300FM-12+051599999V0201701N001012200019N0030001N1+01061+00911101491ADDAY141031AY241031GA1001+999999999GF100991001001999999001001IA1099MA1999999095591MD1210151-0701MW1051REMSYN088AAXX  16151 76393 31930 01701 10106 20091 39559 40149 52015 70544 91455 333 31/// 59070;
0255763930999992008011618004+25733-100300FM-12+051599999V0200901N002012200019N0050001N1+01601+01051101471ADDAY141061AY241061GA1011+005401081GF102991011011004501001011IA1099KA1120M+01751KA2240N+00701MA1999999095591MD1410001-0671MW1041REMSYN118AAXX  16181 76393 31450 20902 10160 20105 39559 40147 54000 70444 81101 91755 333 10175 20070 31/// 56404 59067 81818;
0195763930999992008011621004+25733-100300FM-12+051599999V0200901N003012200019N0060001N1+02071+00971100981ADDAY141031AY241031GF101991001001999999001011IA1099MA1999999095811MD1710411-0501MW1051REMSYN100AAXX  16211 76393 31956 10903 10207 20097 39581 40098 57041 70544 80001 92055 333 31/// 56005 59050;
0262763930999992008011700004+25733-100300FM-12+051599999V0201101N001019999999N0120001N1+01841+00911101021ADDAA124003691AY141061AY241061GF105991001001999999001061IA1099KA1120M+02181KA2180N+00701MA1999999095281MD1210101-0351MW1051REMSYN130AAXX  17001 76393 31962 51101 10184 20091 39528 40102 52010 70544 80006 92355 333 10218 20070 31/// 50201 56005 59035 70036 85070;
0220763930999992008011703004+25733-100300FM-12+051599999V0200101N001012200019N0030001N1+01521+00881101151ADDGA1041+060001001GF104991001001999999001051IA1019MA1999999095431MD1210151-0341MW1051REMSYN106AAXX  17031 76393 31930 40101 10152 20088 39543 40115 52015 705// 84005 90250 333 30/// 56005 59034 84070;EQDQ01+000042SCOTLC
0256763930999992008011706004+25733-100300FM-12+051599999V0200601N001019999999N0030001N1+01201+00911101191ADDGF107991001001999999001051GJ104869IA1019KA1240M+02181KA2240N+00701MA1999999095461MD1110031-0201MW1051REMSYN124AAXX  17061 76393 31930 70601 10120 20091 39546 40119 51003 705// 87005 90550 333 10218 20070 30/// 55081 56005 59020 87070;EQDQ01+000072SCOTLC
0220763930999992008011709004+25733-100300FM-12+051599999V0209999C000012200019N0030001N1+01001+00851101251ADDGA1031+060001001GF103991001001999999001011IA1019MA1999999095471MD1110011+0021MW1051REMSYN106AAXX  17091 76393 31930 30000 10100 20085 39547 40125 51001 705// 83001 90850 333 30/// 56005 58002 83070;EQDQ01+000032SCOTLC
0272763930999992008011712004+25733-100300FM-12+051599999V0209999C000010102019N0010001N1+01041+01001101361ADDAA124000091AY141061AY241061GA1081+010201071GF108991081061008001999999IA1019KA1240M+02181KA2120N+00761MA1999999095531MD1210061+0091MW1051REMSYN124AAXX  17121 76393 31510 80000 10104 20100 39553 40136 52006 70544 886// 91150 333 10218 20076 30075 563// 58009 70000 88734;
0217763930999992008011715004+25733-100300FM-12+051599999V0202601N001010015019N0010001N1+01201+01061101661ADDAY141031AY221031GA1081+001501061GF108991081061001501999999IA1019MA1999999095801MD1210271+0211MW1051REMSYN106AAXX  17151 76393 31210 82601 10120 20106 39580 40166 52027 70542 886// 91455 333 30/// 56399 58021 88605;
0272763930999992008011718004+25733-100300FM-12+051599999V0203601N001010015019N0010001N1+00881+00721101851ADDAA103000991AY151061AY221061GA1081+001501071GF108991081061001501999999IA1099KA1120M+01261KA2240N+00761MA1999999095951MD1210151+0361MW1501REMSYN124AAXX  17181 76393 21210 83601 10088 20072 39595 40185 52015 75052 886// 91755 333 10126 20076 31/// 56399 58036 69997 88705;
0251763930999992008011721004+25733-100300FM-12+051599999V0200301N001010018019N0010001N1+00661+00491101701ADDAA103002092AA206001092AY151031AY221031GA1081+001801071GF108991081061001501999999IA1119MA1999999095791MD1010261+0611MW1501REMSYN118AAXX  17211 76393 11210 80301 10066 20049 39579 40170 50026 60011 75052 886// 92055 333 32/// 56399 58061 60027 88706;
0172763930999992008011800004+25733-100300FM-12+051599999V0203601N001019999999N0010001N1+00541+00411101771ADDAA106003091AY151061AY221061GF108991999999001501999999MA1999999095841MD1610051+9999MW1501REMSYN072AAXX  18001 76393 01210 83601 10054 20041 39584 40177 56005 60031 75052;
0234763930999992008011803004+25733-100300FM-12+051599999V0203601N001010006019N0006001N1+00461+00421101981ADDAA103000491AY151031AY221031GA1081+000601071GF108991081061000751999999IA1099MA1999999096001MD1210161+0571MW1501REMSYN112AAXX  18031 76393 21106 83601 10046 20042 39600 40198 52016 75052 886// 90250 333 31/// 56399 58057 69947 88702;
0172763930999992008011806004+25733-100300FM-12+051599999V0203601N001019999999N0005001N1+00421+00381102021ADDAA106001091AY151061AY221061GF108991999999000251999999MA1999999096011MD1010011+9999MW1501REMSYN072AAXX  18061 76393 01005 83601 10042 20038 39601 40202 50001 60011 75052;
0234763930999992008011809004+25733-100300FM-12+051599999V0200301N001010012019N0005001N1+00501+00371101921ADDAA103001091AY151031AY221031GA1081+001201071GF108991081061001501999999IA1099MA1999999095911MD1710101+0441MW1501REMSYN112AAXX  18091 76393 21205 80301 10050 20037 39591 40192 57010 75052 886// 90850 333 31/// 56399 58044 60017 88704;
0172763930999992008011812004+25733-100300FM-12+051599999V0203401N001019999999N0005001N1+00401+00311101871ADDAA106001091AY151061AY221061GF108991999999000751999999MA1999999095841MD1510071+9999MW1501REMSYN072AAXX  18121 76393 01105 83401 10040 20031 39584 40187 55007 60011 75052;
0234763930999992008011815004+25733-100300FM-12+051599999V0200401N001010060019N0006001N1+00401+00311101971ADDAA103000991AY151031AY251031GA1081+006001071GF108991081071000751999999IA1099MA1999999095941MD1210101+0141MW1501REMSYN112AAXX  18151 76393 21106 80401 10040 20031 39594 40197 52010 75055 887// 91450 333 31/// 563// 58014 69997 88720;
0172763930999992008011818004+25733-100300FM-12+051599999V0200401N001019999999N0010001N1+00621+00451101961ADDAA106001091AY141061AY241061GF108991999999001501999999MA1999999095941MD1010001+9999MW1051REMSYN072AAXX  18181 76393 01210 80401 10062 20045 39594 40196 50000 69991 70544;
0217763930999992008011821004+25733-100300FM-12+051599999V0200601N001010048019N0030001N1+00801+00321101571ADDAY141031AY241031GA1081+004801071GF108991081071004501999999IA1019MA1999999095521MD1710421-0271MW1051REMSYN106AAXX  18211 76393 31430 80601 10080 20032 39552 40157 57042 70544 887// 92050 333 30/// 563// 59027 88716;
0279763930999992008011900004+25733-100300FM-12+051599999V0200301N001010021019N0020001N1+00721+00481101571ADDAA103000991AA224999929AY151061AY251061GF108991081071002501999999IA1019KA1120M+00951KA2180N+00341MA1999999095601MD1210081-0241MW1051REMSYN136AAXX  19001 76393 21320 80301 10072 20048 39560 40157 52008 70555 887// 92350 333 10095 20034 30/// 50304 563// 59024 69997 79999 88708;
0234763930999992008011903004+25733-100300FM-12+051599999V0200301N001010006019N0020001N1+00701+00621101981ADDAA103000991AY151031AY201031GA1081+000601071GF108991081061000751999999IA1099MA1999999096001MD1210401+0001MW1051REMSYN112AAXX  19031 76393 21120 80301 10070 20062 39600 40198 52040 70550 886// 90250 333 31/// 563// 58000 69997 88702;
0172763930999992008011906004+25733-100300FM-12+051599999V0209999C000012200019N0030001N1+00761+00391102181ADDAA106001091AY141061AY221061GF102991999999004501999999MA1999999096211MD1210211+9999MW1051REMSYN072AAXX  19061 76393 11430 20000 10076 20039 39621 40218 52021 69991 70542;
0266763930999992008011912004+25733-100300FM-12+051599999V0209999C000012200019N0030001N1+00581+00411102361ADDAA124000021AY141061AY221061GA1001+999999999GF100991001001999999001001IA1019IA2999+00309KA1240M+00761KA2120N+00481MA1999999096361MD1210171+0521MW1051REMSYN106AAXX  19121 76393 31930 00000 10058 20041 39636 40236 52017 70542 91150 333 10076 20048 30030 58052 79999;
0236763930999992008011915004+25733-100300FM-12+051599999V0201101N001012200019N0030001N1+00801+00291102741ADDAY141031AY201031GA1011+072001001GF101991001001999999001041IA1019MA1999999096711MD1210351+0771MW1051REMSYN106AAXX  19151 76393 31930 11101 10080 20029 39671 40274 52035 70540 81004 91455 333 30/// 56005 58077 81074;EQDQ01+000012SCOTLC
0255763930999992008011918004+25733-100300FM-12+051599999V0203501N002012200019N0040001N1+01221+00181102951ADDAY141061AY201061GA1011+024001031GF101991011001022501041001IA1019KA1120M+01321KA2240N+00481MA1999999096931MD1210221+0991MW1051REMSYN118AAXX  19181 76393 31840 13502 10122 20018 39693 40295 52022 70540 81040 91755 333 10132 20048 30/// 56050 58099 81358;
0189763930999992008011921004+25733-100300FM-12+051599999V0200401N001012200019N0200001N1+01461+00201102681ADDGA1031+012601061GF103991031041012501001001IA1019MA1999999096721MD1710211+1201REMSYN100AAXX  19211 76393 32670 30401 10146 20020 39672 40268 57021 83400 92055 333 30/// 56300 58120 83642;
0253763930999992008012000004+25733-100300FM-12+051599999V0200901N002012200019N0170001N1+01281+00461102601ADDAA124999999GF104991041041008001001001IA1019KA1120M+01601KA2180N+00481MA1999999096681MD1610041+1081REMSYN124AAXX  20001 76393 32567 40902 10128 20046 39668 40260 56004 84400 92355 333 10160 20048 30/// 50131 56300 58108 79999 84627;EQDQ01  99992PRCP24
0183763930999992008012003004+25733-100300FM-12+051599999V0201301N002010066019N0150001N1+01021+99999102781ADDGA1071+006601061GF108991071051008001999999IA1019MA1999999096861MD1210181+0861REMSYN094AAXX  20031 76393 32565 81302 10102 39686 40278 52018 875// 90250 333 30/// 56399 58086 87622;
0235763930999992008012006004+25733-100300FM-12+051599999V0201201N001010045019N0150001N1+00841+00391102831ADDGA1081+004501061GF108991081051004501999999GJ104629IA1019KA1240M+01601KA2240N+00481MA1999999096911MD1110051+0701REMSYN112AAXX  20061 76393 32465 81201 10084 20039 39691 40283 51005 885// 90550 333 10160 20048 30/// 55077 58070 88615;
0189763930999992008012009004+25733-100300FM-12+051599999V0200601N001010045019N0150001N1+00841+00391102751ADDGA1081+004501061GF108991081051004501999999IA1019MA1999999096801MD1710111+0611REMSYN100AAXX  20091 76393 32465 80601 10084 20039 39680 40275 57011 885// 90850 333 30/// 56399 58061 88615;
0284763930999992008012012004+25733-100300FM-12+051599999V0200901N001010030019N0100001N1+00601+00301102781ADDAA124000091AY141061AY221061GA1061+003001061GF106991061051004501001001IA1019IA2999+00389KA1240M+01601KA2120N+00481MA1999999096801MD1410001+0441MW1051REMSYN124AAXX  20121 76393 31460 60901 10060 20030 39680 40278 54000 70542 86500 91145 333 10160 20048 30038 56300 58044 70000 86610;
0217763930999992008012015004+25733-100300FM-12+051599999V0201001N003010060019N0100001N1+00721+00121102901ADDAY141031AY241031GA1051+006001061GF106991051051008001001011IA1099MA1999999096881MD1210081+0171MW1051REMSYN106AAXX  20151 76393 31560 61003 10072 20012 39688 40290 52008 70544 85501 91455 333 31/// 56405 58017 85620;
0255763930999992008012018004+25733-100300FM-12+051599999V0201001N002010057019N0120001N1+00821+00241102821ADDAY141061AY241061GA1081+005701061GF108991081051004501999999IA1099KA1120M+00901KA2240N+00481MA1999999096831MD1710031-0101MW1051REMSYN118AAXX  20181 76393 31462 81002 10082 20024 39683 40282 57003 70544 885// 91755 333 10090 20048 31/// 564// 59010 88619;
0217763930999992008012021004+25733-100300FM-12+051599999V0201001N002010087019N0120001N1+01151+00271102501ADDAY141031AY241031GA1071+008701061GF107991071051008001999999IA1099MA1999999096501MD1710351-0221MW1051REMSYN106AAXX  20211 76393 31562 71002 10115 20027 39650 40250 57035 70544 875// 92055 333 31/// 564// 59022 87629;
0256763930999992008012100004+25733-100300FM-12+051599999V0201101N002010120019N0140001N1+01181+00381102391ADDAA124000091GA1011+007801081GF107991071081008001999999IA1099KA1120M+01251KA2180N+00481MA1999999096431MD1710071-0251REMSYN130AAXX  21001 76393 32564 71102 10118 20038 39643 40239 57007 878// 92355 333 10125 20048 31/// 50251 564// 59025 70000 81826 86636;
0217763930999992008012103004+25733-100300FM-12+051599999V0201001N003012200019N0080001N1+01161+00501102351ADDAY141031AY221031GA1021+006601061GF102991021041008001001001IA1019MA1999999096421MD1610011-0441MW1051REMSYN106AAXX  21031 76393 31558 21003 10116 20050 39642 40235 56001 70542 82400 90250 333 30/// 56499 59044 82622;
0251763930999992008012106004+25733-100300FM-12+051599999V0201001N002012200019N0050001N1+00981+00671102261ADDAY141061AY221061GA1001+999999999GF100991001001999999001001GJ101449IA1019KA1240M+01251KA2240N+00481MA1999999096351MD1710071-0561MW1051REMSYN106AAXX  21061 76393 31950 01002 10098 20067 39635 40226 57007 70542 90550 333 10125 20048 30/// 55024 59056;
0196763930999992008012109004+25733-100300FM-12+051599999V0209999C000012200019N0030001N1+00761+00681102131ADDAY141031AY261031GA1031+000601071GF103991031061000751001001IA1019MD1710131-0581MW1051REMSYN100AAXX  21091 76393 31130 30000 10076 20068 40213 57013 70546 83600 90850 333 30/// 563// 59058 83702;
0285763930999992008012112004+25733-100300FM-12+051599999V0202601N001012200019N0030001N1+00641+00471102061ADDAA124000091AY141061AY221061GA1001+999999999GF100991001001999999001001IA1019IA2999+00409KA1240M+01181KA2120N+00621MA1999999096121MD1610101-0681MW1051REMSYN106AAXX  21121 76393 31930 02601 10064 20047 39612 40206 56010 70542 91150 333 10118 20062 30040 59068 70000;EQDQ01  00002PRCP24
0199763930999992008012115004+25733-100300FM-12+051599999V0202901N001012200019N0020001N1+00921+00481102241ADDAY141031AY201031GA1001+999999999GF100991001001999999001001IA1019MA1999999096271MD1310151-0611MW1051REMSYN088AAXX  21151 76393 31920 02901 10092 20048 39627 40224 53015 70540 91455 333 30/// 59061;
0227763930999992008012118004+25733-100300FM-12+051599999V0202801N001012200019N0080001N1+01561+00681102171ADDGA1011+072001001GF101991001001999999001041IA1019KA1120M+01701KA2240N+00621MA1999999096241MD1410001-0611REMSYN112AAXX  21181 76393 32958 12801 10156 20068 39624 40217 54003 81004 91755 333 10170 20062 30/// 56005 59061 81074;
0236763930999992008012121004+25733-100300FM-12+051599999V0201401N001012200019N0030001N1+02121+00711101701ADDAY141031AY201031GA1011+072001001GF101991001001999999001041IA1019MA1999999095861MD1710381-0641MW1051REMSYN106AAXX  21211 76393 31930 11401 10212 20071 39586 40170 57038 70540 81004 92055 333 30/// 56005 59064 81074;EQDQ01+000012SCOTLC
0253763930999992008012200004+25733-100300FM-12+051599999V0201201N001012200019N0180001N1+02121+00751101551ADDAA124000091GF101991001001999999001041IA1019KA1120M+02301KA2180N+00621MA1999999095791MD1610061-0641REMSYN124AAXX  22001 76393 32968 11201 10212 20075 39579 40155 56006 81004 92355 333 10230 20062 30/// 50161 56005 59064 70000 81074;EQDQ01+000012SCOTLC
0189763930999992008012203004+25733-100300FM-12+051599999V0209999C000010600019N0180001N1+01741+01021101701ADDGA1061+060001001GF106991001001999999001041IA1019MA1999999095981MD1210191-0441REMSYN100AAXX  22031 76393 32968 60000 10174 20102 39598 40170 52019 80004 90245 333 30/// 56005 59044 86070;
0275763930999992008012206004+25733-100300FM-12+051599999V0209999C00001027001CN0100001N1+01481+01031101801ADDAY141061AY221061GA1061+027001031GF107991061001999999051041GJ105529IA1019KA1240M+02301KA2240N+00621MA1999999096061MD1210081-0291MW1051REMSYN130AAXX  22061 76393 31960 70000 10148 20103 39606 40180 52008 70542 86054 90550 333 10230 20062 30/// 55092 56055 59029 86359 81070;
0199763930999992008012209004+25733-100300FM-12+051599999V0209999C000012200019N0100001N1+01201+00911101741ADDAY141031AY211031GA1001+999999999GF100991001001999999001001IA1019MA1999999095961MD1710101-0261MW1051REMSYN088AAXX  22091 76393 32960 00000 10120 20091 39596 40174 57010 70541 90850 333 30/// 59026;
0278763930999992008012212004+25733-100300FM-12+051599999V0202701N001012200019N0080001N1+01141+00731101411ADDAA124000091AY141061AY211061GA1021+014101031GF104991021001022501051041IA1019KA1240M+02301KA2120N+01001MA1999999095921MD1710041-0201MW1051REMSYN130AAXX  22121 76393 31858 42701 10114 20073 39592 40141 57004 70541 82054 91150 333 10230 20100 30090 56055 59020 70000 82347 82070;
0217763930999992008012215004+25733-100300FM-12+051599999V0202701N001010600019N0040001N1+01461+00751101861ADDAY141031AY241031GA1051+060001001GF105991001001999999001061IA1019MA1999999096011MD1210091-0261MW1051REMSYN106AAXX  22151 76393 31940 52701 10146 20075 39601 40186 52009 70544 80006 91455 333 30/// 56005 59026 85070;
0255763930999992008012218004+25733-100300FM-12+051599999V0203601N001010600019N0040001N1+02221+00901101911ADDAY141061AY241061GA1061+060001001GF107991011001022501031061IA1019KA1120M+02321KA2240N+01001MA1999999096081MD1210071-0161MW1051REMSYN118AAXX  22181 76393 31840 73601 10222 20090 39608 40191 52007 70544 81036 91755 333 10232 20100 30/// 56055 59016 86070;
0217763930999992008012221004+25733-100300FM-12+051599999V0200901N002010600019N0060001N1+02501+01061101571ADDAY141031AY241031GA1051+060001001GF106991011001022501031061IA1019MA1999999095811MD1710271-0051MW1041REMSYN106AAXX  22211 76393 31856 60902 10250 20106 39581 40157 57027 70444 81036 92055 333 30/// 56055 59005 85070;
0262763930999992008012300004+25733-100300FM-12+051599999V0201001N001010900019N0080001N1+02321+01051101561ADDAA124000091AY141061AY241061GF107991011001022501031061IA1019KA1120M+02651KA2180N+01001MA1999999095871MD1210061+9999MW1041REMSYN130AAXX  23001 76393 31858 71001 10232 20105 39587 40156 52006 70444 81036 92355 333 10265 20100 30/// 50231 56055 56008 70000 86070;
0242763930999992008012303004+25733-100300FM-12+051599999V0203501N001019999999N0050001N1+01981+01191101871ADDAY141031AY221031GA1021+018001031GF105991999001999999031021IA1019MA1999999096201MD1210331+0221MW1051REMSYN112AAXX  23031 76393 31950 53501 10198 20119 39620 40187 52033 70542 80032 90250 333 30/// 56055 58022 82356 83070;EQDQ01+000002SCOTLC
0272763930999992008012306004+25733-100300FM-12+051599999V0209999C000012200019N0050001N1+01741+01251101901ADDAY141061AY261061GF104991999001999999031001GJ104689IA1019KA1240M+02651KA2240N+01001MA1999999096211MD1010011+0151MW1051REMSYN124AAXX  23061 76393 31950 40000 10174 20125 39621 40190 50001 70546 80030 90550 333 10265 20100 30/// 55078 56050 58015 84356;EQDQ01+000002SCOTLC
0217763930999992008012309004+25733-100300FM-12+051599999V0209999C000010051019N0050001N1+01621+01111101781ADDAY141031AY251031GA1081+005101061GF108991081051004501999999IA1019MA1999999096071MD1710141+0111MW1051REMSYN106AAXX  23091 76393 31450 80000 10162 20111 39607 40178 57014 70545 885// 90850 333 30/// 565// 58011 88617;
0278763930999992008012312004+25733-100300FM-12+051599999V0209999C000012200019N0050001N1+01471+01181101651ADDAA124000091AY141061AY221061GA1011+002701061GF102991011041002501011001IA1019KA1240M+02651KA2120N+01381MA1999999095961MD1610111+0041MW1051REMSYN130AAXX  23121 76393 31350 20000 10147 20118 39596 40165 56011 70542 81410 91150 333 10265 20138 30125 56559 58004 70000 81609 81356;
0217763930999992008012315004+25733-100300FM-12+051599999V0200401N001012200019N0030001N1+01541+01171101881ADDAY141031AY201031GA1011+024001031GF101991011001022501031001IA1019MA1999999096091MD1310131+0081MW1051REMSYN106AAXX  23151 76393 31830 10401 10154 20117 39609 40188 53013 70540 81030 91455 333 30/// 56050 58008 81358;
0274763930999992008012318004+25733-100300FM-12+051599999V0201201N002012200019N0060001N1+02101+01261101651ADDAY141061AY241061GA1011+072001001GF101991001001999999001041IA1019KA1120M+02201KA2240N+01381MA1999999095971MD1610121-0111MW1051REMSYN118AAXX  23181 76393 31956 11202 10210 20126 39597 40165 56012 70544 81004 91755 333 10220 20138 30/// 56005 59011 81074;EQDQ01+000012SCOTLC
0189763930999992008012321004+25733-100300FM-12+051599999V0200901N003012200019N0100001N1+02221+01371101381ADDGA1011+008401061GF101991011041008001001001IA1019MA1999999095651MD1710321-0161REMSYN100AAXX  23211 76393 32560 10903 10222 20137 39565 40138 57032 81400 92055 333 30/// 56300 59016 81628;
0256763930999992008012400004+25733-100300FM-12+051599999V0200901N004012200019N0120001N1+02021+01351101301ADDAA124000091GA1011+024001031GF104991011001022501031041IA1019KA1120M+02341KA2180N+01381MA1999999095601MD1410001-0271REMSYN130AAXX  24001 76393 32862 40904 10202 20135 39560 40130 54005 81034 92355 333 10234 20138 30/// 50301 56055 59027 70000 81358 83074;
0201763930999992008012403004+25733-100300FM-12+051599999V0200901N001010270019N0030001N1+01461+01301101491ADDGA1071+027001031GF107991071001999999051999IA1019MA1999999095781MD1210181-0421MW1051REMSYN106AAXX  24031 76393 31930 70901 10146 20130 39578 40149 52018 705// 8705/ 90250 333 30/// 5605/ 59042 87359;
0237763930999992008012406004+25733-100300FM-12+051599999V0200901N001010021019N0020001N1+01421+01191101671ADDGF108991081061002501999999GJ105289IA1019KA1240M+02341KA2240N+01381MA1999999095931MD1210151-0181MW1051REMSYN124AAXX  24061 76393 31320 80901 10142 20119 39593 40167 52015 705// 886// 90555 333 10234 20138 30/// 55088 563// 59018 88708;
0150763930999992008012409004+25733-100300FM-12+051599999V0200901N001019999999N0008001N1+01281+01251999999ADDGF108991999999000251999999REMSYN112AAXX  24091 76393 21008 80901 10128 20125 0850 39593 40172 5000 70543 887// 9 333 30/// 563// 59014 69997 88701;
0172763930999992008012412004+25733-100300FM-12+051599999V0209999C000019999999N0008001N1+01161+01061101881ADDAA106001091AY141061AY231061GF108991999999001501999999MA1999999096041MD1210111+9999MW1051REMSYN072AAXX  24121 76393 01208 80000 10116 20106 39604 40188 52011 69991 70543;
0234763930999992008012415004+25733-100300FM-12+051599999V0203601N001010018019N0020001N1+01151+00951102261ADDAA103000491AY151031AY251031GA1081+001801061GF108991081051002501999999IA1099MA1999999096381MD1210341+0291MW1501REMSYN112AAXX  24151 76393 21320 83601 10115 20095 39638 40226 52034 75055 885// 91458 333 31/// 568// 58029 69947 88606;
0172763930999992008012418004+25733-100300FM-12+051599999V0203301N001019999999N0020001N1+01061+00911102361ADDAA106000591AY151061AY251061GF108991999999001501999999MA1999999096471MD1010091+9999MW1501REMSYN072AAXX  24181 76393 01220 83301 10106 20091 39647 40236 50009 69941 75055;
0234763930999992008012421004+25733-100300FM-12+051599999V0203301N001010018019N0020001N1+01081+00901102201ADDAA103000021AY151031AY251031GA1081+001801061GF108991081051001501999999IA1099MA1999999096301MD1710171+0751MW1051REMSYN112AAXX  24211 76393 21220 83301 10108 20090 39630 40220 57017 70555 885// 92055 333 31/// 568// 58075 69907 88606;
0172763930999992008012500004+25733-100300FM-12+051599999V0200901N001019999999N0040001N1+01101+00821102251ADDAA106000021AY141061AY241061GF108991999999002501999999MA1999999096341MD1210041+9999MW1051REMSYN072AAXX  25001 76393 11340 80901 10110 20082 39634 40225 52004 69901 70544;
0234763930999992008012503004+25733-100300FM-12+051599999V0200901N001010003019N0020001N1+00901+00901102461ADDAA103000391AY151031AY261031GA1081+000301071GF108991081071000251999999IA1099MA1999999096531MD1210191+0751MW1051REMSYN112AAXX  25031 76393 21020 80901 10090 20090 39653 40246 52019 70556 887// 90250 333 31/// 568// 58075 69937 88701;
0172763930999992008012506004+25733-100300FM-12+051599999V0203301N001019999999N0020001N1+00781+00741102561ADDAA106002091AY151061AY251061GF108991999999000251999999MA1999999096611MD1210081+9999MW1501REMSYN072AAXX  25061 76393 01020 83301 10078 20074 39661 40256 52008 60021 75055;
0234763930999992008012509004+25733-100300FM-12+051599999V0200701N001010003019N0020001N1+00741+00701102411ADDAA103002091AY151031AY251031GA1081+000301071GF108991081071000251999999IA1119MA1999999096451MD1710161+0421MW1501REMSYN112AAXX  25091 76393 21020 80701 10074 20070 39645 40241 57016 75055 887// 90850 333 32/// 568// 58042 60027 88701;
0172763930999992008012512004+25733-100300FM-12+051599999V0203401N001019999999N0020001N1+00681+00561102511ADDAA106003091AY151061AY251061GF108991999999001501999999MA1999999096521MD1210071+9999MW1501REMSYN072AAXX  25121 76393 01220 83401 10068 20056 39652 40251 52007 60031 75055;
0234763930999992008012515004+25733-100300FM-12+051599999V0209999C000010009019N0000001N1+00741+00661102531ADDAA103000191AY141031AY241031GA1081+000901071GF108991081071000751999999IA1099MA1999999096531MD1010011+0151MW1051REMSYN112AAXX  25151 76393 11100 80000 10074 20066 39653 40253 50001 70544 887// 91450 333 31/// 563// 58015 69917 88703;
0180763930999992008012518004+25733-100300FM-12+051599999V0200801N001019999999N0008001N1+01101+00851102501ADDAY141061AY241061GF108991999999002501999999MA1999999096511MD1010021+9999MW1051REMSYN072AAXX  25181 76393 11308 80801 10110 20085 39651 40250 50002 69911 70544;EQDQ01  00002PRCP06
0223763930999992008012521004+25733-100300FM-12+051599999V0200501N001010051019N0010001N1+01401+00901102191ADDAY141031AY241031GA1051+005101061GF107991051041004501001021IA1019MA1999999096251MD1710261-0051MW1051REMSYN112AAXX  25211 76393 31410 70501 10140 20090 39625 40219 57026 70544 85402 92050 333 30/// 56503 59005 85617 82070;
0306763930999992008012600004+25733-100300FM-12+051599999V0200901N001010360019N0030001N1+01261+00861102221ADDAA124000191AY141061AY241061GA1031+003901071GA2011+021001031GF108991031061004501031021IA1019KA1120M+01521KA2180N+00541MA1999999096311MD1010061-0031MW1051REMSYN142AAXX  26001 76393 31430 80901 10126 20086 39631 40222 50006 70544 83632 92350 333 10152 20054 30/// 50238 56853 59003 70001 83713 81357 84070;
0217763930999992008012603004+25733-100300FM-12+051599999V0200901N001010018019N0040001N1+01021+00871102451ADDAY141031AY221031GA1071+001801061GF107991071061001501999999IA1019MA1999999096551MD1210241+0021MW1051REMSYN106AAXX  26031 76393 31240 70901 10102 20087 39655 40245 52024 70542 876// 90250 333 30/// 56399 58002 87606;
0253763930999992008012606004+25733-100300FM-12+051599999V0200801N001010012019N0050001N1+01021+00841102501ADDAY141061AY221061GF108991081051001501999999GJ100309IA1019KA1240M+01521KA2240N+00541MA1999999096591MD1210041-0021MW1051REMSYN124AAXX  26061 76393 31250 80801 10102 20084 39659 40250 52004 70542 885// 90550 333 10152 20054 30/// 55005 56399 59002 88606;
0217763930999992008012609004+25733-100300FM-12+051599999V0209999C000010018019N0050001N1+01001+00851102441ADDAY141031AY221031GA1081+001801061GF108991081051001501999999IA1019MA1999999096521MD1710071+0071MW1051REMSYN106AAXX  26091 76393 31250 80000 10100 20085 39652 40244 57007 70542 885// 90850 333 30/// 56399 58007 88606;
0272763930999992008012612004+25733-100300FM-12+051599999V0209999C000010015019N0030001N1+00921+00761102521ADDAA124000191AY141061AY221061GA1081+001501061GF108991081051001501999999IA1019KA1240M+01521KA2120N+00801MA1999999096571MD1210051+0051MW1051REMSYN124AAXX  26121 76393 31230 80000 10092 20076 39657 40252 52005 70542 885// 91145 333 10152 20080 30070 56399 58005 70001 88605;
0217763930999992008012615004+25733-100300FM-12+051599999V0209999C000012200019N0020001N1+01081+00841102681ADDAY141031AY241031GA1041+060001001GF104991001001999999001061IA1099MA1999999096721MD1210081+0191MW1051REMSYN106AAXX  26151 76393 31920 40000 10108 20084 39672 40268 52008 70544 80006 91455 333 31/// 56005 58019 84070;
0255763930999992008012618004+25733-100300FM-12+051599999V0200901N001010600019N0020001N1+01821+01041102591ADDAY141061AY241061GA1061+060001001GF107991011001022501031061IA1099KA1120M+01971KA2240N+00801MA1999999096671MD1710051+0161MW1041REMSYN118AAXX  26181 76393 31820 70901 10182 20104 39667 40259 57005 70444 81036 91755 333 10197 20080 31/// 56055 58016 86070;
0223763930999992008012621004+25733-100300FM-12+051599999V0200901N00101220001CN0050001N1+02181+00901102181ADDAY141031AY241031GA1031+018001031GF106991031001022501031061IA1099MA1999999096341MD1710331+0091MW1051REMSYN112AAXX  26211 76393 31850 60901 10218 20090 39634 40218 57033 70544 83036 92055 333 31/// 56055 58009 83356 83070;
0262763930999992008012700004+25733-100300FM-12+051599999V0201101N002010210019N0070001N1+01901+00981102271ADDAA124000091AY141061AY241061GF107991051001022501071011IA1019KA1120M+02401KA2180N+00801MA1999999096471MD1210131+0161MW1051REMSYN130AAXX  27001 76393 31857 71102 10190 20098 39647 40227 52013 70544 85071 92355 333 10240 20080 30/// 50171 56055 58016 70000 85356;
0236763930999992008012703004+25733-100300FM-12+051599999V0200301N001012200019N0050001N1+01741+01061102411ADDAY141031AY221031GA1041+018001031GF104991999001999999041999IA1019MA1999999096641MD1210171+0091MW1051REMSYN106AAXX  27031 76393 31950 40301 10174 20106 39664 40241 52017 70542 8004/ 90250 333 30/// 56050 58009 84356;EQDQ01+000002SCOTLC
0259763930999992008012706004+25733-100300FM-12+051599999V0200501N001019999999N0030001N1+01481+01071102431ADDAY141061AY261061GF106991001001999999041999GJ103969IA1019KA1240M+02401KA2240N+00801MA1999999096661MD1210021+0071MW1051REMSYN130AAXX  27061 76393 31930 60501 10148 20107 39666 40243 52002 70546 8004/ 90550 333 10240 20080 30/// 55066 5605/ 58007 52356 84456;
0236763930999992008012709004+25733-100300FM-12+051599999V0209999C000012200019N0030001N1+01281+01041102411ADDAY141031AY221031GA1011+018001041GF101991999001999999011001IA1019MA1999999096601MD1710061+0081MW1051REMSYN106AAXX  27091 76393 31930 10000 10128 20104 39660 40241 57006 70542 80010 90850 333 30/// 56059 58008 81456;EQDQ01+000002SCOTLC
0289763930999992008012712004+25733-100300FM-12+051599999V0209999C000012200019N0030001N1+01201+00951102451ADDAA124000091AY141061AY221061GA1001+999999999GF100991001001999999001001IA1019KA1240M+01781KA2120N+01081MA1999999096601MD1310041+0031MW1051REMSYN106AAXX  27121 76393 31930 00000 10120 20095 39660 40245 53000 70542 91150 333 10178 20108 30088 58003 70000;EQDQ01+000002APC3  Q02  00002PRCP24
0236763930999992008012715004+25733-100300FM-12+051599999V0202201N001010720019N0020001N1+01461+00971102501ADDAY141031AY201031GA1061+072001001GF106991001001999999001041IA1019MA1999999096631MD1410001-0031MW1051REMSYN106AAXX  27151 76393 31920 62201 10146 20097 39663 40250 54003 70540 86004 91455 333 30/// 56005 59003 86074;EQDQ01+000062SCOTLC
0274763930999992008012718004+25733-100300FM-12+051599999V0200501N002012200019N0040001N1+02041+00911102451ADDAY141061AY211061GA1041+072001001GF104991001001999999001041IA1019KA1120M+02201KA2240N+01081MA1999999096601MD1410001-0071MW1051REMSYN118AAXX  27181 76393 31940 40502 10204 20091 39660 40245 54003 70541 84004 91755 333 10220 20108 30/// 56005 59007 84074;EQDQ01+000042SCOTLC
0208763930999992008012721004+25733-100300FM-12+051599999V0200901N002012200019N0160001N1+02241+00881102021ADDGA1041+072001001GF104991001001999999001041IA1019MA1999999096241MD1710361-0101REMSYN100AAXX  27211 76393 32966 40902 10224 20088 39624 40202 57036 84004 92055 333 30/// 56005 59010 84074;EQDQ01+000042SCOTLC
0253763930999992008012800004+25733-100300FM-12+051599999V0200701N002019999999N0200001N1+02001+00941101891ADDAA124000091GF106991001001999999001041IA1019KA1120M+02401KA2180N+01081MA1999999096161MD1710081-0311REMSYN124AAXX  28001 76393 32970 60702 10200 20094 39616 40189 57008 86004 92355 333 10240 20108 30/// 50311 56005 59031 70000 86074;EQDQ01+000062SCOTLC
0189763930999992008012803004+25733-100300FM-12+051599999V0200701N002012200019N0150001N1+01701+01201102021ADDGA1041+060001001GF104991001001999999001041IA1019MA1999999096301MD1210141-0341REMSYN100AAXX  28031 76393 32965 40702 10170 20120 39630 40202 52014 80004 90250 333 30/// 56005 59034 84070;
0225763930999992008012806004+25733-100300FM-12+051599999V0203601N001012200019N0150001N1+01401+01201101961ADDGF102991001001999999001041GJ104929IA1019KA1240M+02401KA2240N+01081MA1999999096231MD1710071-0431REMSYN118AAXX  28061 76393 32965 23601 10140 20120 39623 40196 57007 80004 90550 333 10240 20108 30/// 55082 56005 59043 82070;
0223763930999992008012809004+25733-100300FM-12+051599999V0209999C000012200019N0050001N1+01261+01191101771ADDAY141031AY201031GA1021+027001041GF104991021001999999011041IA1019MA1999999096001MD1710231-0601MW1051REMSYN112AAXX  28091 76393 31950 40000 10126 20119 39600 40177 57023 70540 82014 90850 333 30/// 56055 59060 82459 82070;
0300763930999992008012812004+25733-100300FM-12+051599999V0202101N00101090001CN0010001N1+01221+01151101641ADDAA124000091AY141061AY221061GA1021+000901071GA2021+027001041GF106991021061000751021041IA1019KA1240M+02401KA2120N+01121MA1999999095831MD1710171-0771MW1051REMSYN136AAXX  28121 76393 31110 62101 10122 20115 39583 40164 57017 70542 82624 91150 333 10240 20112 30100 56355 59077 70000 82703 82459 82070;
0217763930999992008012815004+25733-100300FM-12+051599999V0202701N001010009019N0006001N1+01261+01161101731ADDAY141031AY241031GA1081+000901071GF108991081071001501999999IA1019MA1999999095891MD1210061-0741MW1101REMSYN106AAXX  28151 76393 31206 82701 10126 20116 39589 40173 52006 71044 887// 91455 333 30/// 563// 59074 88703;
0261763930999992008012818004+25733-100300FM-12+051599999V0200901N00101090001CN0020001N1+01701+01171101491ADDAY141061AY241061GA1011+005101061GF107991011051004501001061IA1019KA1120M+01821KA2240N+01121MA1999999095671MD1710221-0931MW1101REMSYN124AAXX  28181 76393 31420 70901 10170 20117 39567 40149 57022 71044 81506 91755 333 10182 20112 30/// 56305 59093 81617 85270;
0217763930999992008012821004+25733-100300FM-12+051599999V0201001N001010600019N0040001N1+02441+01181101021ADDAY141031AY241031GA1061+060001001GF106991001001999999001061IA1019MA1999999095271MD1710401-0971MW1051REMSYN106AAXX  28211 76393 31940 61001 10244 20118 39527 40102 57040 70544 80006 92055 333 30/// 56005 59097 86070;
0262763930999992008012900004+25733-100300FM-12+051599999V0201001N002012200019N0040001N1+02481+01261100891ADDAA124000091AY141061AY241061GF106991011001022501031061IA1019KA1120M+02721KA2180N+01121MA1999999095211MD1510061-0951MW1051REMSYN130AAXX  29001 76393 31840 61002 10248 20126 39521 40089 55006 70544 81036 92355 333 10272 20112 30/// 50241 56055 59095 70000 85070;
0199763930999992008012903004+25733-100300FM-12+051599999V0202101N001012200019N0040001N1+02161+01331100921ADDAY141031AY221031GA1001+999999999GF100991001001999999001001IA1019MA1999999095291MD1210081+1011MW1051REMSYN088AAXX  29031 76393 31940 02101 10216 20133 39529 40092 52008 70542 90250 333 30/// 58101;
0251763930999992008012906004+25733-100300FM-12+051599999V0209999C000012200019N0030001N1+01841+01251100851ADDAY141061AY221061GA1001+999999999GF100991001001999999001001GJ103789IA1019KA1240M+02621KA2240N+01121MA1999999095231MD1810061-1001MW1051REMSYN106AAXX  29061 76393 31930 00000 10184 20125 39523 40085 58006 70542 90550 333 10262 20112 30/// 55063 59100;
0199763930999992008012909004+25733-100300FM-12+051599999V0202301N001012200019N0030001N1+01661+01191100801ADDAY141031AY221031GA1001+999999999GF100991001001999999001001IA1019MA1999999095161MD1710071-0841MW1051REMSYN088AAXX  29091 76393 31930 02301 10166 20119 39516 40080 57007 70542 90850 333 30/// 59084;
0272763930999992008012912004+25733-100300FM-12+051599999V0202801N001012200019N0040001N1+01721+00961100841ADDAA124000091AY141061AY261061GA1011+007501061GF101991011041008001001001IA1019KA1240M+02281KA2120N+01561MA1999999095161MD1410001-0671MW1051REMSYN124AAXX  29121 76393 31540 12801 10172 20096 39516 40084 54000 70546 81400 91150 333 10228 20156 30138 56300 59067 70000 81625;
0223763930999992008012915004+25733-100300FM-12+051599999V0209999C000019999999N0140001N1+02081+00881100991ADDAY141031AY241031GA1041+021001031GF105991041001999999041011IA1019MA1999999095291MD1210131-0601MW1051REMSYN112AAXX  29151 76393 31964 50000 10208 20088 39529 40099 52013 70544 84041 91450 333 30/// 56055 59060 84357 81070;
0264763930999992008012918004+25733-100300FM-12+051599999V0203601N999992200019N0140001N1+03121+00741100901ADDGA1021+024001031GF104991041001999999041001IA1019KA1120M+03241KA2240N+01561MA1999999095251MD1010041-0421MW1051REMSYN124AAXX  29181 76393 31964 43661 10312 20074 39525 40090 50004 705// 84040 91750 333 10324 20156 30/// 56050 59042 82358 82457;EQDQ01+006103WOSPD 
0207763930999992008012921004+25733-100300FM-12+051599999V0203601N00301036001CN0160001N1+03261+00611100551ADDGA1021+021001081GF106991021021022501051999IA1019MA1999999094981MD1710271-0291MW1051REMSYN112AAXX  29211 76393 31866 63603 10326 20061 39498 40055 57027 705// 8225/ 92050 333 30/// 5635/ 59029 82857 84359;
0278763930999992008013000004+25733-100300FM-12+051599999V0202501N00101030001CN0140001N1+02981+00241100631ADDAA124000091GA1031+024001061GA2041+030001031GF108991031051022501051041IA1019KA1120M+03361KA2180N+01561MA1999999095121MD1210141-0091REMSYN136AAXX  30001 76393 32864 82501 10298 20024 39512 40063 52014 83554 92350 333 10336 20156 30/// 50375 56355 59009 70000 83658 84360 81070;
0242763930999992008013003004+25733-100300FM-12+051599999V0201001N00201036001CN0040001N1+02561+00881101161ADDAY141031AY221031GA1031+015001061GF105991031051017501031001IA1019MA1999999095661MD1210542+0371MW1051REMSYN112AAXX  30031 76393 31740 51002 10256 20088 39566 40116 52054 70542 83530 90250 333 30/// 56350 58037 83650 82360;EQDQ01+000542APC3  
0272763930999992008013006004+25733-100300FM-12+051599999V0200701N003019999999N0100001N1+02141+01081101521ADDAY141061AY221061GF106991999051000751001001GJ104209IA1019KA1240M+03361KA2240N+01561MA1999999095981MD1210321+0751MW1051REMSYN124AAXX  30061 76393 31160 60703 10214 20108 39598 40152 52032 70542 87500 90555 333 10336 20156 30/// 55070 56300 58075 87633;EQDQ01+000072SCOTLC
0217763930999992008013009004+25733-100300FM-12+051599999V0201201N002010069019N0060001N1+01621+00921101551ADDAY141031AY221031GA1081+006901061GF108991081051008001999999IA1019MA1999999095941MD1710041+0761MW1051REMSYN106AAXX  30091 76393 31556 81202 10162 20092 39594 40155 57004 70542 885// 90850 333 30/// 56399 58076 88623;
0278763930999992008013012004+25733-100300FM-12+051599999V0200901N00201036001CN0040001N1+01221+00821101661ADDAA124000091AY141061AY221061GA1031+003901061GF107991031051004501051999IA1019KA1240M+03361KA2120N+01101MA1999999095961MD1010021+0801MW1051REMSYN130AAXX  30121 76393 31440 70902 10122 20082 39596 40166 50002 70542 8355/ 91150 333 10336 20110 30095 5639/ 58080 70000 83613 84360;
0189763930999992008013015004+25733-100300FM-12+051599999V0203601N001010075019N0120001N1+01381+00631101741ADDGA1071+007501061GF107991071051008001999999IA1019MA1999999095981MD1210021+0691REMSYN100AAXX  30151 76393 32562 73601 10138 20063 39598 40174 52002 875// 91455 333 30/// 564// 58069 87625;
0255763930999992008013018004+25733-100300FM-12+051599999V0200901N002010075019N0100001N1+01561+00811101651ADDAY141061AY241061GA1071+007501061GF107991071051008001999999IA1019KA1120M+01981KA2240N+01101MA1999999095851MD1710131+0601MW1051REMSYN118AAXX  30181 76393 31560 70902 10156 20081 39585 40165 57013 70544 875// 91755 333 10198 20110 30/// 564// 58060 87625;
0217763930999992008013021004+25733-100300FM-12+051599999V0200901N003012200019N0100001N1+01741+00761101181ADDAY141031AY241031GA1021+009601061GF102991021051008001001001IA1019MA1999999095401MD1710451+0001MW1051REMSYN106AAXX  30211 76393 32560 20903 10174 20076 39540 40118 57045 70544 82500 92055 333 30/// 56400 58000 82632;
0262763930999992008013100004+25733-100300FM-12+051599999V0200901N002012200019N0100001N1+01551+00881101031ADDAA124000091AY141061AY241061GF101991011051008001001001IA1019KA1120M+01881KA2180N+01101MA1999999095281MD1710121+0161MW1051REMSYN130AAXX  31001 76393 31560 10902 10155 20088 39528 40103 57012 70544 81500 92355 333 10188 20110 30/// 50631 56400 58016 70000 81622;
0217763930999992008013103004+25733-100300FM-12+051599999V0200701N002012200019N0080001N1+01481+01111101101ADDAY141031AY201031GA1031+003601061GF103991031051004501001001IA1019MA1999999095351MD1210071-0311MW1051REMSYN106AAXX  31031 76393 31458 30702 10148 20111 39535 40110 52007 70540 83500 90245 333 30/// 56400 59031 83612;
0253763930999992008013106004+25733-100300FM-12+051599999V0202201N001010042019N0050001N1+01461+01151101031ADDAY141061AY221061GF105991051051004501001001GJ103129IA1019KA1240M+01881KA2240N+01101MA1999999095291MD1710061-0691MW1051REMSYN124AAXX  31061 76393 31450 52201 10146 20115 39529 40103 57006 70542 85500 90550 333 10188 20110 30/// 55052 56400 59069 85610;
0217763930999992008013109004+25733-100300FM-12+051599999V0202701N001012200019N0050001N1+01301+01021100941ADDAY141031AY201031GA1021+002701061GF102991021051002501001001IA1019MA1999999095081MD1710111-0761MW1051REMSYN106AAXX  31091 76393 31350 22701 10130 20102 39508 40094 57011 70540 82500 90845 333 30/// 56300 59076 82609;
0290763930999992008013112004+25733-100300FM-12+051599999V0202501N001012200019N0040001N1+01301+00981100931ADDAA124000091AY141061AY201061GA1021+003301061GF103991021051004501031001IA1019IA2999+00109KA1240M+01881KA2120N+01141MA1999999095151MD1610031-0811MW1051REMSYN130AAXX  31121 76393 31440 32501 10130 20098 39515 40093 56003 70540 82530 91150 333 10188 20114 30010 56350 59081 70000 82611 81359;
0183763930999992008013115004+25733-100300FM-12+051599999V0200301N001012200019N0120001N1+01541+00651101471ADDGA1001+999999999GF100991001001999999001001IA1019MA1999999095671MD1210521-0311MW1051REMSYN088AAXX  31151 76393 31962 00301 10154 20065 39567 40147 52052 705// 91450 333 30/// 59031;
0221763930999992008013118004+25733-100300FM-12+051599999V0200901N001012200019N0100001N1+01921+00131101661ADDGA1001+999999999GF100991001001999999001001IA1019KA1120M+02081KA2240N+01141MA1999999095871MD1210201+0021MW1051REMSYN100AAXX  31181 76393 31960 00901 10192 20013 39587 40166 52020 705// 91750 333 10208 20114 30/// 58002;
0183763930999992008013121004+25733-100300FM-12+051599999V0203601N001012200019N0100001N1+02101-00121101571ADDGA1001+999999999GF100991001001999999001001IA1019MA1999999095821MD1710051+0421MW1051REMSYN088AAXX  31211 76393 31960 03601 10210 21012 39582 40157 57005 705// 92050 333 30/// 58042;
0263763930999992008020100004+25733-100300FM-12+051599999V0203501N001012200019N0100001N1+01941-00031101731ADDAA124000091GA1001+999999999GF100991001001999999001001IA1019KA1120M+02251KA2180N+01141MA1999999096011MD1210191+0731MW1051REMSYN112AAXX  01001 76393 31960 03501 10194 21003 39601 40173 52019 705// 92350 333 10225 20114 30/// 50295 58073 70000;EQDQ01  00002PRCP24
0199763930999992008020103004+25733-100300FM-12+051599999V0203601N001012200019N0060001N1+01401-00441102291ADDAY141031AY201031GA1001+999999999GF100991001001999999001001IA1019MA1999999096531MD1210521+1181MW1051REMSYN088AAXX  01031 76393 31956 03601 10140 21044 39653 40229 52052 70540 90245 333 30/// 58118;
0251763930999992008020106004+25733-100300FM-12+051599999V0203601N001012200019N0080001N1+01161-00181102571ADDAY141061AY201061GA1001+999999999GF100991001001999999001001GJ105769IA1019KA1240M+02251KA2240N+01141MA1999999096771MD1210241+1481MW1051REMSYN106AAXX  01061 76393 31958 03601 10116 21018 39677 40257 52024 70540 90550 333 10225 20114 30/// 55096 58148;
0199763930999992008020109004+25733-100300FM-12+051599999V0209999C000012200019N0100001N1+01041-00431102591ADDAY141031AY201031GA1001+999999999GF100991001001999999001001IA1019MA1999999096731MD1610041+1551MW1051REMSYN088AAXX  01091 76393 31960 00000 10104 21043 39673 40259 56004 70540 90850 333 30/// 58155;
0273763930999992008020112004+25733-100300FM-12+051599999V0202701N001012200019N0100001N1+00941-00261102551ADDAA124000091AY141061AY201061GA1001+999999999GF100991001001999999001001IA1019KA1240M+02251KA2120N+00721MA1999999096631MD1710101+1481MW1051REMSYN106AAXX  01121 76393 31960 02701 10094 21026 39663 40255 57010 70540 91145 333 10225 20072 30064 58148 70000;EQDQ01  00002PRCP24
0171763930999992008020115004+25733-100300FM-12+051599999V0202901N001012200019N0200001N1+01141-00371102751ADDGA1001+999999999GF100991001001999999001001IA1019MA1999999096791MD1010161+1121REMSYN082AAXX  01151 76393 32970 02901 10114 21037 39679 40275 50016 91450 333 30/// 58112;
0209763930999992008020118004+25733-100300FM-12+051599999V0200801N003012200019N0180001N1+01641-00361102561ADDGA1001+999999999GF100991001001999999001001IA1019KA1120M+02251KA2240N+00901MA1999999096631MD1710161+0761REMSYN094AAXX  01181 76393 32968 00803 10164 21036 39663 40256 57016 91750 333 10225 20090 30/// 58076;
0171763930999992008020121004+25733-100300FM-12+051599999V0201101N003012200019N0180001N1+01941+00201102071ADDGA1001+999999999GF100991001001999999001001IA1019MA1999999096211MD1710421+0391REMSYN082AAXX  01211 76393 32968 01103 10194 20020 39621 40207 57042 92050 333 30/// 58039;
0234763930999992008020200004+25733-100300FM-12+051599999V0201201N002010150019N0180001N1+01941-00161101881ADDAA124000091GF105991051041017501001001IA1019KA1120M+02121KA2180N+00721MA1999999096051MD1610161+0041REMSYN124AAXX  02001 76393 32768 51202 10194 21016 39605 40188 56016 85400 92350 333 10212 20072 30/// 50541 56300 58004 70000 85656;
0201763930999992008020215004+25733-100300FM-12+051599999V0209999C000012200019N0100001N1+01461+00311101591ADDGA1011+024001031GF101991011001999999041001IA1019MA1999999095741MD1010011+0001MW1051REMSYN106AAXX  02151 76393 31960 10000 10146 20031 39574 40159 50001 705// 81040 91450 333 30/// 56050 59000 81358;
0239763930999992008020218004+25733-100300FM-12+051599999V0201501N001012200019N0120001N1+02321+00341101591ADDGA1021+024001031GF102991021001999999051001IA1019KA1120M+02351KA2240N+00881MA1999999095771MD1010031-0861MW1051REMSYN118AAXX  02181 76393 31962 21501 10232 20034 39577 40159 50003 705// 82050 91750 333 10235 20088 30/// 56050 59086 82358;
0207763930999992008020221004+25733-100300FM-12+051599999V0200901N004012200019N0120001N1+02921+00551101141ADDGA1011+021001081GF102991011021022501041001IA1019MA1999999095421MD1710351-0791MW1051REMSYN112AAXX  02211 76393 31862 20904 10292 20055 39542 40114 57035 705// 81240 92050 333 30/// 56350 59079 81857 81359;
0251763930999992008020300004+25733-100300FM-12+051599999V0201001N002012200019N0140001N1+02461+00521101111ADDAA124000091GA1001+999999999GF100991001001999999001001IA1019KA1120M+02981KA2180N+00881MA1999999095481MD1210061-0571REMSYN106AAXX  03001 76393 32964 01002 10246 20052 39548 40111 52006 92350 333 10298 20088 30/// 50397 59057 70000;EQDQ01  00002PRCP24
0199763930999992008020303004+25733-100300FM-12+051599999V0201401N001012200019N0100001N1+02161+00721101371ADDAY141031AY201031GA1001+999999999GF100991001001999999001001IA1019MA1999999095761MD1210281+9999MW1051REMSYN088AAXX  03031 76393 31960 01401 10216 20072 39576 40137 52028 70540 90550 333 30/// 58///;
0251763930999992008020306004+25733-100300FM-12+051599999V0209999C000012200019N0080001N1+01741+00861101371ADDAY141061AY201061GA1001+999999999GF100991001001999999001001GJ105709IA1019KA1240M+02981KA2240N+00881MA1999999095761MD1410001+9999MW1051REMSYN106AAXX  03061 76393 31958 00000 10174 20086 39576 40137 54000 70540 90545 333 10298 20088 30/// 55095 58///;
0199763930999992008020309004+25733-100300FM-12+051599999V0209999C000012200019N0060001N1+01561+00811101381ADDAY141031AY201031GA1001+999999999GF100991001001999999001001IA1019MA1999999095701MD1710061+9999MW1051REMSYN088AAXX  03091 76393 31956 00000 10156 20081 39570 40138 57006 70540 90845 333 30/// 58///;
0273763930999992008020312004+25733-100300FM-12+051599999V0202501N001012200019N0050001N1+01501+00781101391ADDAA124000091AY141061AY201061GA1001+999999999GF100991001001999999001001IA1019KA1240M+02981KA2120N+01381MA1999999095671MD1710031+9999MW1051REMSYN106AAXX  03121 76393 31950 02501 10150 20078 39567 40139 57003 70540 91150 333 10298 20138 30120 58/// 70000;EQDQ01  00002PRCP24
0217763930999992008020315004+25733-100300FM-12+051599999V0202401N001012200019N0040001N1+01881+00601101501ADDAY141031AY241031GA1031+060001001GF103991001001999999001041IA1019MA1999999095741MD1210071+0001MW1051REMSYN106AAXX  03151 76393 31940 32401 10188 20060 39574 40150 52007 70544 80004 91455 333 30/// 56005 58000 83070;
0233763930999992008020318004+25733-100300FM-12+051599999V0200901N002012200019N0050001N1+02791+00781101361ADDAY141061AY241061GF101991001001999999001011IA1019KA1120M+02921KA2240N+01381MA1999999095641MD1710101-0131MW1041REMSYN112AAXX  03181 76393 31950 10902 10279 20078 39564 40136 57010 70444 80001 91755 333 10292 20138 30/// 56005 59013;
0194763930999992008020321004+25733-100300FM-12+051599999V0201001N002012200019N0100001N1+03271+00601100991ADDAY141031AY241031GF103991999999999999999999MA1999999095261MD1710381-0161MW1051REMSYN105AAXX  03211 76393 31960 31002 10327 20060 39526 40099 57038 70544 8004 92055 333 30/// 56005 59016 83070;
0227763930999992008020400004+25733-100300FM-12+051599999V0200901N002019999999N0180001N1+02951+00631100721ADDAA124000091GF106991999999999999999999KA1120M+03351KA2180N+01381MA1999999095181MD1710081-0301REMSYN123AAXX  04001 76393 32968 60902 10295 20063 39518 40072 57008 8004 92355 333 10335 20138 30/// 50581 56005 59030 70000 86070;
0171763930999992008020403004+25733-100300FM-12+051599999V0203001N001012200019N0050001N1+02561+01001100761ADDGA1001+999999999GF100991001001999999001001IA1019MA1999999095271MD1110091-0491REMSYN082AAXX  04031 76393 32950 03001 10256 20100 39527 40076 51009 90250 333 30/// 59049;
0223763930999992008020406004+25733-100300FM-12+051599999V0209999C000012200019N0050001N1+02221+01221100751ADDGA1001+999999999GF100991001001999999001001GJ105289IA1019KA1240M+03351KA2240N+01381MA1999999095251MD1610021-0511REMSYN100AAXX  04061 76393 32950 00000 10222 20122 39525 40075 56002 90550 333 10335 20138 30/// 55088 59051;
0171763930999992008020409004+25733-100300FM-12+051599999V0209999C000012200019N0030001N1+01821+01411100801ADDGA1001+999999999GF100991001001999999001001IA1019MA1999999095241MD1610011+0461REMSYN082AAXX  04091 76393 32930 00000 10182 20141 39524 40080 56001 90850 333 30/// 58046;
0245763930999992008020412004+25733-100300FM-12+051599999V0209999C000012200019N0030001N1+01681+01321100791ADDAA124000091GA1001+999999999GF100991001001999999001001IA1019KA1240M+03351KA2120N+01621MA1999999095171MD1510071-0501REMSYN100AAXX  04121 76393 32930 00000 10168 20132 39517 40079 55007 91150 333 10335 20162 30135 59050 70000;EQDQ01  00002PRCP24
0189763930999992008020415004+25733-100300FM-12+051599999V0209999C000012200019N0160001N1+02301+00731100891ADDGA1041+027001031GF104991041001999999051001IA1019MA1999999095241MD1010071-0501REMSYN100AAXX  04151 76393 32966 40000 10230 20073 39524 40089 50007 84050 91450 333 30/// 56050 59050 84359;
0239763930999992008020418004+25733-100300FM-12+051599999V0200901N003012200019N0140001N1+02941+00891100801ADDGA1031+027001031GF103991031001999999051001IA1019KA1120M+03351KA2240N+01621MA1999999095171MD1710071-0471MW1051REMSYN118AAXX  04181 76393 31964 30903 10294 20089 39517 40080 57007 705// 83050 91750 333 10335 20162 30/// 56050 59047 83359;
0189763930999992008020421004+25733-100300FM-12+051599999V0201101N003012200019N0160001N1+03461+00261100311ADDGA1041+030001031GF104991041001999999051001IA1019MA1999999094761MD1710411-0501REMSYN100AAXX  04211 76393 32966 41103 10346 20026 39476 40031 57041 84050 92050 333 30/// 56050 59050 84360;
0246763930999992008020500004+25733-100300FM-12+051599999V0200901N001012200019N0160001N1+03161+01051100141ADDAA124000091GF103991031001999999051001IA1019KA1120M+03561KA2180N+01621MA1999999094681MD1710081-0501MW1051REMSYN130AAXX  05001 76393 31966 30901 10316 20105 39468 40014 57008 705// 83050 92350 333 10356 20162 30/// 50392 56050 59050 70000 83360;
0199763930999992008020503004+25733-100300FM-12+051599999V0200701N001012200019N0080001N1+02681+01261100281ADDAY141031AY201031GA1001+999999999GF100991001001999999001001IA1019MA1999999094841MD1210161-0431MW1051REMSYN088AAXX  05031 76393 31958 00701 10268 20126 39484 40028 52016 70540 90245 333 30/// 59043;
0251763930999992008020506004+25733-100300FM-12+051599999V0203601N001012200019N0060001N1+02201+01341100421ADDAY141061AY201061GA1001+999999999GF100991001001999999001001GJ104869IA1019KA1240M+03561KA2240N+01721MA1999999094971MD1210131-0281MW1051REMSYN106AAXX  05061 76393 31956 03601 10220 20134 39497 40042 52013 70540 90550 333 10356 20172 30/// 55081 59028;
0217763930999992008020509004+25733-100300FM-12+051599999V0203501N001012200019N0040001N1+01941+01361100421ADDAY141031AY201031GA1031+005701061GF103991031051004501001001IA1019MA1999999094901MD1710071-0341MW1051REMSYN106AAXX  05091 76393 31440 33501 10194 20136 39490 40042 57007 70540 83500 90850 333 30/// 56300 59034 83619;
0272763930999992008020512004+25733-100300FM-12+051599999V0201301N001010057019N0050001N1+02021+01451100401ADDAA124000091AY141061AY211061GA1051+005701061GF105991051051004501001001IA1019KA1240M+03561KA2120N+01821MA1999999094821MD1710081-0351MW1051REMSYN124AAXX  05121 76393 31450 51301 10202 20145 39482 40040 57008 70541 85500 91150 333 10356 20182 30170 56300 59035 70000 85619;
0217763930999992008020515004+25733-100300FM-12+051599999V0203301N001012200019N0080001N1+02201+00371100531ADDAY141031AY241031GA1031+018001031GF105991031001022501031011IA1019MA1999999094921MD1210101-0321MW1041REMSYN106AAXX  05151 76393 32858 53301 10220 20037 39492 40053 52010 70444 83031 91455 333 30/// 56055 59032 83356;
0239763930999992008020518004+25733-100300FM-12+051599999V0201001N002012200019N0100001N1+03351+00521100421ADDAY141061AY241061GF101991011001022501031001IA1019KA1120M+03451KA2240N+01821MA1999999094851MD1710071+9999MW1051REMSYN118AAXX  05181 76393 31860 11002 10335 20052 39485 40042 57007 70544 81030 91755 333 10345 20182 30/// 54306 56050 59092;
0199763930999992008020521004+25733-100300FM-12+051599999V0203001N001012200019N0120001N1+03711-00231100031ADDAY141031AY241031GA1001+999999999GF100991001001999999001001IA1019MA1999999094551MD1710301-0211MW1051REMSYN088AAXX  05211 76393 31962 03001 10371 21023 39455 40003 57030 70544 92055 333 30/// 59021;
0258763930999992008020600004+25733-100300FM-12+051599999V0202701N001012200019N0160001N1+03481-00061100041ADDAA124000091GA1001+999999999GF100991001001999999001001IA1019KA1120M+03851KA2180N+01821MA1999999094631MD1210081-0051REMSYN113AAXX  06001 76393 32966 02701 10348 21006 39463 40004 52008 92355 333 10385 20182 30/// 50691 59005 70000/ 76675;EQDQ01  00002PRCP24
0224763930999992008020603004+25733-100300FM-12+051599999V0200601N001012200019N0050001N1+02061+00411100831ADDAY141031AY221031GA1001+999999999GF100991001001999999001001IA1019MA1999999095371MD1210742+0531MW1051REMSYN094AAXX  06031 76393 32950 00601 10206 20041 39537 40083 52074 70542 90250 333 30/// 54311 58053;EQDQ01+000742APC3  
0251763930999992008020606004+25733-100300FM-12+051599999V0203001N001012200019N0050001N1+01861+00151101421ADDAY141061AY221061GA1001+999999999GF100991001001999999001001GJ105709IA1019KA1240M+03751KA2240N+01861MA1999999095871MD1210501+0901MW1051REMSYN106AAXX  06061 76393 31950 03001 10186 20015 39587 40142 52050 70542 90550 333 10375 20186 30/// 55095 58090;
0199763930999992008020609004+25733-100300FM-12+051599999V0201001N001012200019N0050001N1+01541-00331101771ADDAY141031AY221031GA1001+999999999GF100991001001999999001001IA1019MA1999999096101MD1210231+1201MW1051REMSYN088AAXX  06091 76393 31950 01001 10154 21033 39610 40177 52023 70542 90850 333 30/// 58120;
0273763930999992008020612004+25733-100300FM-12+051599999V0209999C000012200019N0050001N1+01321-00181102021ADDAA124000091AY141061AY221061GA1001+999999999GF100991001001999999001001IA1019KA1240M+03851KA2120N+01261MA1999999096251MD1210151+1431MW1051REMSYN106AAXX  06121 76393 31950 00000 10132 21018 39625 40202 52015 70542 91150 333 10385 20126 30102 58143 70000;EQDQ01  00002PRCP24
0183763930999992008020615004+25733-100300FM-12+051599999V0203501N001012200019N0140001N1+01481-00601102111ADDGA1001+999999999GF100991001001999999001001IA1019MA1999999096311MD1010061-1391MW1051REMSYN088AAXX  06151 76393 31964 03501 10148 21060 39631 40211 50006 705// 91450 333 30/// 59139;
0221763930999992008020618004+25733-100300FM-12+051599999V0201201N001012200019N0140001N1+01941-00151102121ADDGA1001+999999999GF100991001001999999001001IA1019KA1120M+02101KA2240N+01261MA1999999096301MD1010011+1451MW1051REMSYN100AAXX  06181 76393 31964 01201 10194 21015 39630 40212 50001 705// 91750 333 10210 20126 30/// 58145;
0183763930999992008020621004+25733-100300FM-12+051599999V0201101N003012200019N0140001N1+02161-00271101601ADDGA1001+999999999GF100991001001999999001001IA1019MA1999999095841MD1710461+1291MW1051REMSYN088AAXX  06211 76393 31964 01103 10216 21027 39584 40160 57046 705// 92050 333 30/// 58129;
0251763930999992008020700004+25733-100300FM-12+051599999V0201801N002012200019N0160001N1+01941-00431101501ADDAA124000091GA1001+999999999GF100991001001999999001001IA1019KA1120M+02321KA2180N+01261MA1999999095781MD1710061+1151REMSYN106AAXX  07001 76393 32966 01802 10194 21043 39578 40150 57006 92350 333 10232 20126 30/// 50665 58115 70000;EQDQ01  00002PRCP24
0199763930999992008020703004+25733-100300FM-12+051599999V0200201N001012200019N0120001N1+01621-00071101561ADDAY141031AY201031GA1001+999999999GF100991001001999999001001IA1019MA1999999095851MD1210071+0481MW1051REMSYN088AAXX  07031 76393 31962 00201 10162 21007 39585 40156 52007 70540 90250 333 30/// 58048;
0251763930999992008020706004+25733-100300FM-12+051599999V0209999C000012200019N0100001N1+01461+00081101551ADDAY141061AY201061GA1001+999999999GF100991001001999999001001GJ105829IA1019KA1240M+02321KA2240N+01261MA1999999095821MD1610061-0051MW1051REMSYN106AAXX  07061 76393 31960 00000 10146 20008 39582 40155 56006 70540 90550 333 10232 20126 30/// 55097 59005;
0199763930999992008020709004+25733-100300FM-12+051599999V0209999C000012200019N0080001N1+01041+00151101591ADDAY141031AY201031GA1001+999999999GF100991001001999999001001IA1019MA1999999095821MD1410001-0281MW1051REMSYN088AAXX  07091 76393 31958 00000 10104 20015 39582 40159 54000 70540 90850 333 30/// 59028;
0273763930999992008020712004+25733-100300FM-12+051599999V0209999C000012200019N0060001N1+00941+00221101601ADDAA124000091AY141061AY201061GA1001+999999999GF100991001001999999001001IA1019KA1240M+02321KA2120N+00821MA1999999095771MD1710051-0481MW1051REMSYN106AAXX  07121 76393 31956 00000 10094 20022 39577 40160 57005 70540 91150 333 10232 20082 30070 59048 70000;EQDQ01  00002PRCP24
0217763930999992008020715004+25733-100300FM-12+051599999V0209999C000012200019N0080001N1+01371-00081101861ADDAY141031AY241031GA1041+060001001GF105991011001022501031041IA1019MA1999999096001MD1210231-0311MW1051REMSYN106AAXX  07151 76393 31858 50000 10137 21008 39600 40186 52023 70544 81034 91455 333 30/// 56055 59031 84070;
0233763930999992008020718004+25733-100300FM-12+051599999V0201501N001012200019N0060001N1+02421-00101101791ADDAY141061AY241061GF101991011001022501031001IA1019KA1120M+02571KA2240N+00821MA1999999095961MD1710041-0341MW1051REMSYN112AAXX  07181 76393 31856 11501 10242 21010 39596 40179 57004 70544 81030 91755 333 10257 20082 30/// 56050 59034;
0195763930999992008020721004+25733-100300FM-12+051599999V0201001N00101220001CN0140001N1+03031-00111101371ADDGA1031+018001031GF106991031001022501051011IA1019MA1999999095651MD1710311-0191REMSYN106AAXX  07211 76393 32864 61001 10303 21011 39565 40137 57031 83051 92055 333 30/// 56055 59019 83356 83070;
0234763930999992008020800004+25733-100300FM-12+051599999V0201201N003019999999N0160001N1+02531+00011101341ADDAA124000091GF106991001001999999001041IA1019KA1120M+03151KA2180N+00821MA1999999095711MD1210061-0071REMSYN124AAXX  08001 76393 32966 61203 10253 20001 39571 40134 52006 80004 92355 333 10315 20082 30/// 50471 56005 59007 70000 87070;
0199763930999992008020803004+25733-100300FM-12+051599999V0200901N002012200019N0050001N1+02101+00071101511ADDAY141031AY221031GA1001+999999999GF100991001001999999001001IA1019MA1999999095911MD1210211+0061MW1051REMSYN088AAXX  08031 76393 31950 00902 10210 20007 39591 40151 52021 70542 90250 333 30/// 58006;
0251763930999992008020806004+25733-100300FM-12+051599999V0202201N001012200019N0050001N1+01841+00111101521ADDAY141061AY221061GA1001+999999999GF100991001001999999001001GJ105409IA1019KA1240M+03031KA2240N+00941MA1999999095911MD1410001+0091MW1051REMSYN106AAXX  08061 76393 31950 02201 10184 20011 39591 40152 54000 70542 90550 333 10303 20094 30/// 55090 58009;
0217763930999992008020809004+25733-100300FM-12+051599999V0202701N001012200019N0050001N1+01561+00401101451ADDAY141031AY251031GA1021+011401061GF102991021041012501001001IA1019MA1999999095791MD1710121-0031MW1051REMSYN106AAXX  08091 76393 31650 22701 10156 20040 39579 40145 57012 70545 82400 90850 333 30/// 56500 59003 82638;
0273763930999992008020812004+25733-100300FM-12+051599999V0209999C000012200019N0050001N1+01421+00251101451ADDAA124000091AY141061AY221061GA1001+999999999GF100991001001999999001001IA1019KA1240M+03031KA2120N+01321MA1999999095721MD1510071-0051MW1051REMSYN106AAXX  08121 76393 31950 00000 10142 20025 39572 40145 55007 70542 91150 333 10303 20132 30095 59005 70000;EQDQ01  00002PRCP24
0195763930999992008020815004+25733-100300FM-12+051599999V0202101N001012200019N0100001N1+01811+00061101531ADDAY141031AY241031GF102991011001022501031011IA1019MA1999999095761MD1210041-0241MW1051REMSYN100AAXX  08151 76393 32860 22101 10181 20006 39576 40153 52004 70544 81031 91455 333 30/// 56055 59024;
0233763930999992008020818004+25733-100300FM-12+051599999V0200901N001012200019N0100001N1+02601+00021101431ADDAY141061AY241061GF102991011001022501031031IA1019KA1120M+02711KA2240N+01321MA1999999095691MD1710071-0271MW1051REMSYN112AAXX  08181 76393 31860 20901 10260 20002 39569 40143 57007 70544 81033 91755 333 10271 20132 30/// 56055 59027;
0189763930999992008020821004+25733-100300FM-12+051599999V0200901N002010600019N0120001N1+03001+00111100951ADDGA1051+060001001GF106991011001022501031041IA1019MA1999999095301MD1710391-0351REMSYN100AAXX  08211 76393 32862 60902 10300 20011 39530 40095 57039 81034 92055 333 30/// 56055 59035 85070;
0234763930999992008020900004+25733-100300FM-12+051599999V0201001N002010210019N0120001N1+02961+00201100871ADDAA124000091GF107991061001022501071011IA1019KA1120M+03201KA2180N+01321MA1999999095301MD1410001-0411REMSYN124AAXX  09001 76393 32862 71002 10296 20020 39530 40087 54000 86071 92355 333 10320 20132 30/// 50561 56055 59041 70000 86456;
0183763930999992008020903004+25733-100300FM-12+051599999V0202701N001012200019N0200001N1+02341+00541101031ADDGA1031+060001001GF103991001001999999001011IA1019MA1999999095491MD1210191-0421REMSYN094AAXX  09031 76393 32970 32701 10234 20054 39549 40103 52019 80001 90250 333 30/// 59042 83070;
0223763930999992008020906004+25733-100300FM-12+051599999V0209999C000012200019N0150001N1+02001+00371101121ADDGA1001+999999999GF100991001001999999001001GJ104929IA1019KA1240M+03201KA2240N+01321MA1999999095561MD1210071-0051REMSYN100AAXX  09061 76393 32965 00000 10200 20037 39556 40112 52007 90545 333 10320 20132 30/// 55082 59005;
0199763930999992008020909004+25733-100300FM-12+051599999V0209999C000012200019N0120001N1+01661+00491101081ADDAY141031AY201031GA1001+999999999GF100991001001999999001001IA1019MA1999999095471MD1710091-0321MW1051REMSYN088AAXX  09091 76393 31962 00000 10166 20049 39547 40108 57009 70540 90850 333 30/// 59032;
0195763930999992008020915004+25733-100300FM-12+051599999V0202501N001012200019N0050001N1+02101-00091101581ADDAY141031AY241031GF101991001001999999001011IA1019MA1999999095851MD1210281+0091MW1051REMSYN100AAXX  09151 76393 31950 12501 10210 21009 39585 40158 52028 70544 80001 91455 333 30/// 56005 58009;
0237763930999992008020918004+25733-100300FM-12+051599999V0200901N001012200019N0080001N1+02711+00231101671ADDAY141061AY241061GA1001+999999999GF100991001001999999001001IA1019KA1120M+02881KA2240N+01321MA1999999095451MD1010401-0241MW1051REMSYN100AAXX  09181 76393 31958 00901 10271 20023 39545 40167 50040 70544 91755 333 10288 20132 30/// 59024;
