0245763930999992010010100004+25733-100300FM-12+051599999V0200201N003012200019N0020001N1+02361+00771101521ADDAY141061AY201061GF102991001001999999001041IA1019KA1120M+02961KA2180N+01001MA1999999095851MD1210241+0021MW1051REMSYN124AAXX  01001 76393 31920 20203 10236 20077 39585 40152 52024 70540 80004 92355 333 10296 20100 30/// 50101 56005 58002 70000;
0195763930999992010010121004+25733-100300FM-12+051599999V0200701N001012200019N0040001N1+01421+00141102761ADDAY101031AY201031GF104991001001999999001011IA1019MA1999999096871MD1710311+1261MW1041REMSYN100AAXX  01211 76393 31940 40701 10142 20014 39687 40276 57031 70400 80001 92050 333 30/// 56003 58126;
0245763930999992010010200004+25733-100300FM-12+051599999V0201301N001012200019N0060001N1+01401+00431102641ADDAY101061AY201061GF103991001001999999001031IA1019KA1120M+01661KA2180N+00681MA1999999096771MD1710101+0921MW1041REMSYN124AAXX  02001 76393 31956 31301 10140 20043 39677 40264 57010 70400 80003 92350 333 10166 20068 30/// 50411 56003 58092 70000;
0195763930999992010010203004+25733-100300FM-12+051599999V0201001N002012200019N0040001N1+01061+00121102611ADDAY141031AY211031GF104991001001999999001041IA1019MA1999999096721MD1410001+9999MW1051REMSYN100AAXX  02031 76393 31940 41002 10106 20012 39672 40261 54005 70541 80004 90255 333 30/// 56005 59///;
0247763930999992010010206004+25733-100300FM-12+051599999V0200301N002012200019N0060001N1+00961+00041102641ADDAY141061AY211061GF104991001001999999001041GJ104449IA1019KA1240M+01661KA2240N+00681MA1999999096731MD1410001+9999MW1051REMSYN118AAXX  02061 76393 31956 40302 10096 20004 39673 40264 54001 70541 80004 90555 333 10166 20068 30/// 55074 56005 59///;
0283763930999992010010212004+25733-100300FM-12+051599999V0201101N001012200019N0010001N1+00581+00321102521ADDAA124000091AY101061AY201061GF103991999001999999031001IA1019IA2999+00469KA1240M+01661KA2120N+00521MA1999999096551MW1051REMSYN118AAXX  02121 76393 31910 31101 10058 20032 39655 40252 5//// 70500 82030 91150 333 10166 20052 30046 56050 58/// 70000;EQDQ01+000022SCOTLCQ02  00002PRCP24
0236763930999992010010215004+25733-100300FM-12+051599999V0209999C000010600019N0080001N1+00661+00341102711ADDAY111031AY211031GA1071+060001001GF107991001001999999001091IA1019MA1999999096701MD1210151+9999MW1051REMSYN106AAXX  02151 76393 31958 70000 10066 20034 39670 40271 52015 70511 87009 91450 333 30/// 5620/ 59/// 87070;EQDQ01+000072SCOTLC
0274763930999992010010218004+25733-100300FM-12+051599999V0200301N001010600019N0060001N1+01021+00461102561ADDAY121061AY221061GA1081+060001001GF108991001001999999001071IA1019KA1120M+01231KA2240N+00521MA1999999096561MD1710141-0621MW1051REMSYN118AAXX  02181 76393 31956 80301 10102 20046 39656 40256 57014 70522 88007 91750 333 10123 20052 30/// 56004 59062 88070;EQDQ01+000082SCOTLC
0223763930999992010010221004+25733-100300FM-12+051599999V0201401N00201036001CN0030001N1+01241+00431102211ADDAY141031AY241031GA1021+008101061GF108991021051008001021999IA1019MA1999999096261MD1710301-0211MW1041REMSYN112AAXX  02211 76393 31530 81402 10124 20043 39626 40221 57030 70444 8252/ 92055 333 30/// 5645/ 59021 82627 86456;
0284763930999992010010300004+25733-100300FM-12+051599999V0201401N002010360019N0030001N1+01171+00531102141ADDAA124000091AY141061AY241061GA1021+006301061GF108991021051008001021999IA1019KA1120M+01381KA2180N+00521MA1999999096221MD1710041-0551MW1041REMSYN136AAXX  03001 76393 31530 81402 10117 20053 39622 40214 57004 70444 8252/ 92350 333 10138 20052 30/// 50291 5635/ 59055 70000 82621 87456;
0217763930999992010010303004+25733-100300FM-12+051599999V0200901N001010048019N0020001N1+01021+00551102101ADDAY141031AY221031GA1081+004801061GF108991081061004501999999IA1019MA1999999096201MD1410001-0521MW1051REMSYN106AAXX  03031 76393 31420 80901 10102 20055 39620 40210 54002 70542 886// 90255 333 30/// 56399 59052 88616;
0253763930999992010010306004+25733-100300FM-12+051599999V0202801N001010042019N0020001N1+01001+00621102021ADDAY141061AY221061GF108991081061004501999999GJ100009IA1019KA1240M+01381KA2240N+00521MA1999999096131MD1410001-0601MW1051REMSYN124AAXX  03061 76393 31420 82801 10100 20062 39613 40202 54007 70542 886// 90555 333 10138 20052 30/// 55000 56399 59060 88613;
0217763930999992010010309004+25733-100300FM-12+051599999V0202901N001010036019N0020001N1+01001+00701101841ADDAY141031AY221031GA1081+003601061GF108991081051004501999999IA1019MA1999999095951MD1710181+9999MW1051REMSYN106AAXX  03091 76393 31420 82901 10100 20070 39595 40184 57018 70542 885// 90850 333 30/// 56399 59/// 88612;
0272763930999992010010312004+25733-100300FM-12+051599999V0209999C000010033019N0020001N1+00941+00671101851ADDAA124000091AY141061AY221061GA1071+003301061GF107991071051004501999999IA1019KA1240M+01361KA2120N+00901MA1999999095941MD1710011-0611MW1051REMSYN124AAXX  03121 76393 31420 70000 10094 20067 39594 40185 57001 70542 875// 91150 333 10136 20090 30074 56399 59061 70000 87611;
0255763930999992010010318004+25733-100300FM-12+051599999V0201201N001012200019N0020001N1+01511+00701102181ADDAY141061AY241061GA1011+008101081GF101991011011008001001001IA1019KA1120M+01671KA2240N+00801MA1999999096261MD1210061-0301MW1041REMSYN118AAXX  03181 76393 31520 11201 10151 20070 39626 40218 52006 70444 81100 91755 333 10167 20080 30/// 56600 59030 81827;
0199763930999992010010321004+25733-100300FM-12+051599999V0200601N001012200019N0020001N1+01861+00761101891ADDAY101031AY201031GA1001+999999999GF100991001001999999001001IA1019MA1999999096031MD1710231-0231MW1041REMSYN088AAXX  03211 76393 31920 00601 10186 20076 39603 40189 57023 70400 92050 333 30/// 59023;
0262763930999992010010400004+25733-100300FM-12+051599999V0200601N001012200019N0030001N1+01741+00731101981ADDAA124000091AY141061AY201061GF102991021051012501001001IA1019KA1120M+02101KA2180N+00801MA1999999096171MD1210141-0051MW1041REMSYN130AAXX  04001 76393 31630 20601 10174 20073 39617 40198 52014 70440 82500 92350 333 10210 20080 30/// 50191 56500 59005 70000 82641;
0217763930999992010010403004+25733-100300FM-12+051599999V0200401N001010075019N0020001N1+01501+00741102211ADDAY141031AY221031GA1081+007501061GF108991081061008001999999IA1019MA1999999096411MD1210241+0211MW1051REMSYN106AAXX  04031 76393 31520 80401 10150 20074 39641 40221 52024 70542 886// 90255 333 30/// 56399 58021 88625;
0253763930999992010010406004+25733-100300FM-12+051599999V0202901N001010042019N0020001N1+01361+00851102381ADDAY141061AY281061GF108991081061004501999999GJ105169IA1019KA1240M+02101KA2240N+00801MA1999999096561MD1310151+0431MW1051REMSYN124AAXX  04061 76393 31420 82901 10136 20085 39656 40238 53015 70548 886// 90555 333 10210 20080 30/// 55086 56399 58043 88617;
0217763930999992010010409004+25733-100300FM-12+051599999V0202701N001010045019N0020001N1+01241+00881102491ADDAY141031AY221031GA1071+004501061GF107991071051004501999999IA1019MA1999999096651MD1010091+0701MW1051REMSYN106AAXX  04091 76393 31420 72701 10124 20088 39665 40249 50009 70542 875// 90850 333 30/// 56399 58070 87615;
0161763930999992010010412004+25733-100300FM-12+051599999V0200101N002019999999N0030001N1+01221+00901999999ADDGF108991999999004501999999REMSYN123AAXX  04121 76393 31430 80102 10122 20090 1150 39667 40255 53002 70542 885// 333 10210 20122 30120 56399 58073 70000 88613;
0234763930999992010010415004+25733-100300FM-12+051599999V0209999C000010015019N0010001N1+01041+00931102921ADDAA103000021AY141031AY221031GA1081+001501071GF108991081071001501999999IA1099MA1999999096991MD1210321+0791MW1501REMSYN112AAXX  04151 76393 21210 80000 10104 20093 39699 40292 52032 75042 887// 91450 333 31/// 568// 58079 69907 88705;
0172763930999992010010418004+25733-100300FM-12+051599999V0200501N001019999999N0010001N1+00961+00851102991ADDAA106002091AY141061AY221061GF108991999999001501999999MA1999999097051MD1410001+9999MW1501REMSYN072AAXX  04181 76393 01210 80501 10096 20085 39705 40299 54006 60021 75042;
0234763930999992010010421004+25733-100300FM-12+051599999V0200401N002010015019N0040001N1+00901+00821102831ADDAA103000991AY121031AY221031GA1081+001501071GF108991081071000751999999IA1119MA1999999096871MD1710181+0841MW1051REMSYN112AAXX  04211 76393 21140 80402 10090 20082 39687 40283 57018 70522 887// 92040 333 32/// 564// 58084 69997 88705;
0172763930999992010010500004+25733-100300FM-12+051599999V0200801N001019999999N0006001N1+00881+00841102911ADDAA106003091AY121061AY221061GF108991999999000251999999MA1999999096931MD1210081+9999MW1501REMSYN072AAXX  05001 76393 01006 80801 10088 20084 39693 40291 52008 60031 75022;
0234763930999992010010503004+25733-100300FM-12+051599999V0200901N002010012019N0010001N1+00821+00701103001ADDAA103001091AY151031AY221031GA1081+001201071GF108991081061001501999999IA1119MA1999999097011MD1410001+0601MW1501REMSYN112AAXX  05031 76393 21210 80902 10082 20070 39701 40300 54008 75052 886// 90255 333 32/// 56399 58060 60017 88704;
0172763930999992010010506004+25733-100300FM-12+051599999V0201301N003019999999N0010001N1+00861+00501103031ADDAA106001091AY151061AY221061GF108991999999004501999999MA1999999097031MD1410001+9999MW1501REMSYN072AAXX  05061 76393 11410 81303 10086 20050 39703 40303 54002 60011 75052;
0223763930999992010010509004+25733-100300FM-12+051599999V0200101N01101001201CN0020001N1+00761+00641102981ADDAY141031AY221031GA1021+001501071GF108991081021001501999999IA1099MA1999999096981MD1710051+0351MW1051REMSYN112AAXX  05091 76393 31220 80111 10076 20064 39698 40298 57005 70542 882// 90850 333 31/// 56399 58035 82705 86608;
0172763930999992010010512004+25733-100300FM-12+051599999V0201001N002019999999N0020001N1+00661+00541102971ADDAA106000021AY151061AY221061GF108991999999001501999999MA1999999096951MD1710031+9999MW1051REMSYN072AAXX  05121 76393 01220 81002 10066 20054 39695 40297 57003 69921 70552;
0234763930999992010010515004+25733-100300FM-12+051599999V0201401N001010015019N0010001N1+00641+00521103141ADDAA103002091AY141031AY221031GA1081+001501071GF108991081061001501999999IA1099MA1999999097101MD1210151+0111MW1051REMSYN112AAXX  05151 76393 21210 81401 10064 20052 39710 40314 52015 70542 886// 91450 333 31/// 563// 58011 60027 88705;
0255763930999992010010518004+25733-100300FM-12+051599999V0201401N010010021019N0010001N1+00661+00491103111ADDAY141061AY221061GA1081+002101071GF108991081061002501999999IA1099KA1120M+00741KA2240N+00581MA1999999097071MD1410001+0021MW1051REMSYN118AAXX  05181 76393 31310 81410 10066 20049 39707 40311 54003 70542 886// 91750 333 10074 20058 31/// 563// 58002 88707;
0217763930999992010010521004+25733-100300FM-12+051599999V0200901N001010030019N0020001N1+00781+00541102781ADDAY121031AY221031GA1081+003001071GF108991081061002501999999IA1019MA1999999096751MD1710321-0121MW1051REMSYN106AAXX  05211 76393 31320 80901 10078 20054 39675 40278 57032 70522 886// 92040 333 30/// 563// 59012 88710;
0279763930999992010010600004+25733-100300FM-12+051599999V0201101N003010021019N0010001N1+00781+00581102691ADDAA103000291AA224000291AY121061AY221061GF108991081061002501999999IA1019KA1120M+00841KA2180N+00601MA1999999096671MD1710081-0261MW1051REMSYN136AAXX  06001 76393 21310 81103 10078 20058 39667 40269 57008 70522 886// 92340 333 10084 20060 30/// 50051 563// 59026 69927 70002 88708;
0253763930999992010010603004+25733-100300FM-12+051599999V0200901N002010012019N0010001N1+00681+00561102681ADDAA103000091AY151031AY241031GA1081+001201061GF108991081051001501999999IA1099MA1999999096661MD1710011-0381MW1051REMSYN112AAXX  06031 76393 21210 80902 10068 20056 39666 40268 57001 70554 885// 90250 333 31/// 563// 59038 69907 88604;EQDQ01  00002PRCP03
0191763930999992010010606004+25733-100300FM-12+051599999V0200901N001019999999N0010001N1+00701+00601102601ADDAA106000091AY141061AY241061GF108991999999001501999999MA1999999096601MD1710061+9999MW1051REMSYN072AAXX  06061 76393 01210 80901 10070 20060 39660 40260 57006 69901 70544;EQDQ01  00002PRCP06
0217763930999992010010609004+25733-100300FM-12+051599999V0209999C000010015019N0010001N1+00761+00641102341ADDAY141031AY221031GA1081+001501071GF108991081021001501999999IA1019MA1999999096351MD1710251-0631MW1051REMSYN106AAXX  06091 76393 31210 80000 10076 20064 39635 40234 57025 70542 882// 90850 333 30/// 56399 59063 88705;
0291763930999992010010612004+25733-100300FM-12+051599999V0209999C000010009019N0010001N1+00801+00721102251ADDAA124000091AY141061AY221061GA1081+000901071GF108991081021000751999999IA1019KA1240M+00841KA2120N+00741MA1999999096261MD1710341-0691MW1051REMSYN124AAXX  06121 76393 31110 80000 10080 20072 39626 40225 57034 70542 882// 91150 333 10084 20074 30072 56399 59069 79999 88703;EQDQ01  00002PRCP24
0217763930999992010010615004+25733-100300FM-12+051599999V0209999C000010015019N0010001N1+00821+00701102311ADDAY141031AY221031GA1081+001501071GF108991081061001501999999IA1019MA1999999096331MD1410001-0771MW1051REMSYN106AAXX  06151 76393 31210 80000 10082 20070 39633 40231 54007 70542 886// 91450 333 30/// 563// 59077 88705;
0255763930999992010010618004+25733-100300FM-12+051599999V0203101N001010045019N0010001N1+01101+00731102231ADDAY141061AY221061GA1081+004501071GF108991081061004501999999IA1019KA1120M+01141KA2240N+00721MA1999999096271MD1410001-0801MW1051REMSYN118AAXX  06181 76393 31410 83101 10110 20073 39627 40223 54006 70542 886// 91750 333 10114 20072 30/// 563// 59080 88715;
0242763930999992010010621004+25733-100300FM-12+051599999V0200601N002019999999N0020001N1+01501+00781101881ADDAY111031AY211031GA1011+030001031GF106991999001999999031011IA1019MA1999999095901MD1710371-0651MW1051REMSYN112AAXX  06211 76393 31920 60602 10150 20078 39590 40188 57037 70511 80031 92040 333 30/// 56057 59065 81360 85070;EQDQ01+000002SCOTLC
0297763930999992010010700004+25733-100300FM-12+051599999V0201301N001019999999N0030001N1+01461+00931101691ADDAA124999999AY121061AY221061GF107991001001999999001011IA1019KA1120M+01641KA2180N+00741MA1999999095831MD1610071-0841MW1051REMSYN130AAXX  07001 76393 31930 71301 10146 20093 39583 40169 56007 70522 87001 92340 333 10164 20074 30/// 50011 56007 59084 79999 87070;EQDQ01+000072SCOTLCQ02  99992PRCP24
0217763930999992010010703004+25733-100300FM-12+051599999V0201801N001010720019N0010001N1+01201+00871101631ADDAY141031AY211031GA1061+072001001GF106991001001999999001041IA1019MA1999999095791MD1410001-0871MW1051REMSYN106AAXX  07031 76393 31910 61801 10120 20087 39579 40163 54004 70541 80004 90255 333 30/// 56005 59087 86074;
0253763930999992010010706004+25733-100300FM-12+051599999V0202401N001019999999N0010001N1+00961+00811101601ADDAY141061AY221061GF106991001001999999001041GJ102589IA1019KA1240M+01641KA2240N+00741MA1999999095761MD1410001-0841MW1051REMSYN124AAXX  07061 76393 31910 62401 10096 20081 39576 40160 54003 70542 80004 90555 333 10164 20074 30/// 55043 56005 59084 88074;
0195763930999992010010709004+25733-100300FM-12+051599999V0202301N001012200019N0010001N1+00841+00701101601ADDAY141031AY241031GF101991001001999999001011IA1099MA1999999095741MD1710021-0611MW1051REMSYN100AAXX  07091 76393 31910 12301 10084 20070 39574 40160 57002 70544 80001 90850 333 31/// 56003 59061;
0305763930999992010010712004+25733-100300FM-12+051599999V0202101N001012200019N0020001N1+00851+00641101621ADDAA124000091AY141061AY241061GA1001+999999999GF100991001001999999001001IA1019KA1240M+99999KA2120N+99999MA1999999095711MD1710031-0551MW1051REMSYN106AAXX  07121 76393 31920 02101 10085 20064 39571 40162 57003 70544 91150 333 10064 20070 30058 59055 70000;EQDQ01  00002PRCP24Q02 +00643ATMM  Q03 +00703ATMM  
0195763930999992010010715004+25733-100300FM-12+051599999V0200401N001012200019N0030001N1+01201+00801102121ADDAY141031AY201031GF103991031001999999011001IA1019MA1999999096181MD1210471-0151MW1051REMSYN100AAXX  07151 76393 31930 30401 10120 20080 39618 40212 52047 70540 83010 91450 333 30/// 56030 59015;
0255763930999992010010718004+25733-100300FM-12+051599999V0200201N001010069019N0030001N1+01321+00771102451ADDAY141061AY201061GA1061+006901061GF106991061051008001001001IA1019KA1120M+01421KA2240N+00701MA1999999096511MD1210331+0241MW1051REMSYN118AAXX  07181 76393 31530 60201 10132 20077 39651 40245 52033 70540 86500 91750 333 10142 20070 30/// 56800 58024 86623;
0207763930999992010010721004+25733-100300FM-12+051599999V0203601N003010042019N0030001N1+00861+00411102431ADDAY121031AY221031GF108991081041004501999999IA1019MA1999999096491MD1210021+0591MW1051REMSYN112AAXX  07211 76393 31430 83603 10086 20041 39649 40243 52002 70522 884// 92040 333 30/// 54315 568// 58059 88618;
0172763930999992010010800004+25733-100300FM-12+051599999V0203601N004019999999N0030001N1+00561+00261102641ADDAA106001091AY121061AY221061GF108991999999004501999999MA1999999096681MD1210191+9999MW1501REMSYN072AAXX  08001 76393 01430 83604 10056 20026 39668 40264 52019 69991 75022;
0234763930999992010010803004+25733-100300FM-12+051599999V0200501N001010051019N0010001N1+00521+00011102861ADDAA103000021AY151031AY221031GA1081+005101061GF108991081061004501999999IA1019MA1999999096871MD1310191+1081MW1501REMSYN112AAXX  08031 76393 21410 80501 10052 20001 39687 40286 53019 75052 886// 90255 333 30/// 56399 58108 69907 88617;
0172763930999992010010806004+25733-100300FM-12+051599999V0200501N003019999999N0010001N1+00341-00191103121ADDAA106000021AY151061AY221061GF108991999999001501999999MA1999999097071MD1310201+9999MW1501REMSYN072AAXX  08061 76393 01210 80503 10034 21019 39707 40312 53020 69901 75052;
0243763930999992010010818004+25733-100300FM-12+051599999V0200201N001010060019N0050001N1+00221-00711103681ADDAY141061AY221061GA1081+006001061GF108991081061008001999999KA1120M+00301KA2240N+00081MA1999999097481MD1410001+0971MW1051REMSYN112AAXX  08181 76393 31550 80201 10022 21071 39748 40368 54006 70542 886// 91750 333 10030 20008 568// 58097 88620;
0217763930999992010010821004+25733-100300FM-12+051599999V0203101N001010024019N0040001N1+00341-00531103391ADDAY121031AY221031GA1081+002401061GF108991081041002501999999IA1019MA1999999097221MD1710261+0731MW1051REMSYN106AAXX  08211 76393 31340 83101 10034 21053 39722 40339 57026 70522 884// 92040 333 30/// 568// 58073 88608;
0270763930999992010010900004+25733-100300FM-12+051599999V0203601N003010006019N0040001N1+00301-00381103351ADDAA124000091AY121061AY221061GF108991081041000751999999GJ100669IA1019KA1120M+00601KA2180N+00051MA1999999097201MD1510021+0521MW1051REMSYN130AAXX  09001 76393 31140 83603 10030 21038 39720 40335 55002 70522 884// 92340 333 10060 20005 30/// 55011 568// 58052 70000 88604;
0217763930999992010010903004+25733-100300FM-12+051599999V0200501N001010009019N0060001N1+00221+00131103471ADDAY141031AY221031GA1081+000901061GF108991081061000751999999IA1019MA1999999097311MD1310111+0441MW1051REMSYN106AAXX  09031 76393 31156 80501 10022 20013 39731 40347 53011 70542 886// 90255 333 30/// 56399 58044 88603;
0253763930999992010010906004+25733-100300FM-12+051599999V0203401N001010006019N0060001N1+00201+00151103581ADDAY141061AY221061GF108991081061000751999999GJ100009IA1019KA1240M+00601KA2240N+00051MA1999999097421MD1310111+0351MW1051REMSYN124AAXX  09061 76393 31156 83401 10020 20015 39742 40358 53011 70542 886// 90555 333 10060 20005 30/// 55000 56399 58035 88602;
0217763930999992010010909004+25733-100300FM-12+051599999V0202401N001010015019N0020001N1+00261-00381103441ADDAY141031AY221031GA1081+001501061GF108991081051001501999999IA1019MA1999999097291MD1710131+9999MW1051REMSYN106AAXX  09091 76393 31220 82401 10026 21038 39729 40344 57013 70542 885// 90850 333 30/// 56399 58/// 88605;
0284763930999992010010912004+25733-100300FM-12+051599999V0200301N001010015019N0020001N1+00121-00551103491ADDAA124000091AY141061AY221061GA1081+001501061GF108991081051000751999999IA1019IA2999+00109KA1240M+00601KA2120N+00121MA1999999097321MD1210031+0161MW1051REMSYN124AAXX  09121 76393 31120 80301 10012 21055 39732 40349 52003 70542 885// 91150 333 10060 20012 30010 56399 58016 70000 88605;
0199763930999992010010915004+25733-100300FM-12+051599999V0200601N001012200019N0050001N1+00121-01051103621ADDAY141031AY201031GA1001+999999999GF100991001001999999001001IA1019MA1999999097431MD1210111-0051MW1051REMSYN088AAXX  09151 76393 31950 00601 10012 21105 39743 40362 52011 70540 91450 333 30/// 59005;
0215763930999992010010918004+25733-100300FM-12+051599999V0200901N003012200019N0040001N1+00721-00451103421ADDGA1001+999999999GF100991001001999999001001IA1019KA1120M+00821KA2240N+00001MA1999999097271MD1710161-0211REMSYN100AAXX  09181 76393 32940 00903 10072 21045 39727 40342 57016 91755 333 10082 20000 30/// 54306 59021;
0199763930999992010010921004+25733-100300FM-12+051599999V0201101N002012200019N0030001N1+01081-00301102981ADDAY141031AY201031GA1001+999999999GF100991001001999999001001IA1019MA1999999096891MD1710381-0331MW1051REMSYN088AAXX  09211 76393 31930 01102 10108 21030 39689 40298 57038 70540 91755 333 30/// 59033;
0279763930999992010011000004+25733-100300FM-12+051599999V0201101N003012200019N0030001N1+00901-00451102971ADDAA124000091AY141061AY201061GA1001+999999999GF100991001001999999001001IA1019KA1120M+01161KA2180N+00001MA1999999096931MD1410001-0271MW1051REMSYN112AAXX  10001 76393 31930 01103 10090 21045 39693 40297 54004 70540 92055 333 10116 20000 30/// 50351 59027 70000;EQDQ01  00002PRCP24
0199763930999992010011003004+25733-100300FM-12+051599999V0201101N002012200019N0020001N1+00541-00591103271ADDAY141031AY241031GA1001+999999999GF100991001001999999001001IA1019MA1999999097241MD1210311-0071MW1051REMSYN088AAXX  10031 76393 31920 01102 10054 21059 39724 40327 52031 70544 90250 333 30/// 59007;
0251763930999992010011006004+25733-100300FM-12+051599999V0203001N001012200019N0020001N1+00341-00531103321ADDAY141061AY241061GA1001+999999999GF100991001001999999001001GJ105289IA1019KA1240M+01161KA2240N+00001MA1999999097271MD1210031-0151MW1051REMSYN106AAXX  10061 76393 31920 03001 10034 21053 39727 40332 52003 70544 90550 333 10116 20000 30/// 55088 59015;
0199763930999992010011009004+25733-100300FM-12+051599999V0201001N001012200019N0030001N1+00241+99999103301ADDAY141031AY201031GA1001+999999999GF100991001001999999001001IA1019MA1999999097221MD1710061-0071MW1051REMSYN088AAXX  10091 76393 31930 01001 10024 20035 39722 40330 57006 70540 90850 333 30/// 59007;
0285763930999992010011012004+25733-100300FM-12+051599999V0200901N001012200019N0030001N1+00061-00081103471ADDAA124000091AY141061AY201061GA1001+999999999GF100991001001999999001001IA1099IA2999-00149KA1240M+01081KA2120N-00081MA1999999097331MD1210111+0011MW1051REMSYN106AAXX  10121 76393 31930 00901 10006 21008 39733 40347 52011 70540 91150 333 10108 21008 31014 58001 70000;EQDQ01  00002PRCP24
0217763930999992010011015004+25733-100300FM-12+051599999V0209999C000012200019N0060001N1+00181-00431103701ADDAY101031AY201031GA1011+060001001GF101991001001999999001011IA1019MA1999999097521MD1210191+0091MW1051REMSYN106AAXX  10151 76393 31956 10000 10018 21043 39752 40370 52019 70500 80001 91440 333 30/// 56005 58009 81070;
0209763930999992010011018004+25733-100300FM-12+051599999V0201101N001012200019N0060001N1+00701-00491103651ADDGA1001+999999999GF100991001001999999001001IA1019KA1120M+00801KA2240N-00081MA1999999097481MD1010041+0211REMSYN094AAXX  10181 76393 32956 01101 10070 21049 39748 40365 50004 91740 333 10080 21008 30/// 58021;
0199763930999992010011021004+25733-100300FM-12+051599999V0201201N004012200019N0040001N1+01141-00271103291ADDAY141031AY241031GA1001+999999999GF100991001001999999001001IA1019MA1999999097181MD1710301-0291MW1041REMSYN088AAXX  10211 76393 31940 01204 10114 21027 39718 40329 57030 70444 92050 333 30/// 59029;
0279763930999992010011100004+25733-100300FM-12+051599999V0201401N003012200019N0040001N1+00911-00051103201ADDAA124000091AY141061AY241061GA1001+999999999GF100991001001999999001001IA1019KA1120M+01221KA2180N-00081MA1999999097151MD1710031+0221MW1041REMSYN112AAXX  11001 76393 31940 01403 10091 21005 39715 40320 57003 70444 92350 333 10122 21008 30/// 50251 58022 70000;EQDQ01  00002PRCP24
0195763930999992010011103004+25733-100300FM-12+051599999V0201101N001012200019N0040001N1+00821-00431103181ADDAY141031AY201031GF101991001001999999001041IA1019MA1999999097171MD1410001-0071MW1051REMSYN100AAXX  11031 76393 31940 11101 10082 21043 39717 40318 54002 70540 80004 90255 333 30/// 56005 59007;
0247763930999992010011106004+25733-100300FM-12+051599999V0202501N001012200019N0040001N1+00621-00291103181ADDAY141061AY201061GF101991001001999999001041GJ105289IA1019KA1240M+01221KA2240N-00881MA1999999097181MD1410001+9999MW1051REMSYN118AAXX  11061 76393 31940 12501 10062 21029 39718 40318 54001 70540 80004 90555 333 10122 21088 30/// 55088 56005 59009;
0217763930999992010011109004+25733-100300FM-12+051599999V0201401N001012200019N0030001N1+00381-00051102991ADDAY141031AY201031GA1021+003901061GF102991021051004501999999IA1019MA1999999096971MD1810211-0251MW1051REMSYN106AAXX  11091 76393 31430 21401 10038 21005 39697 40299 58021 70540 825// 90850 333 30/// 56399 59025 82613;
0284763930999992010011112004+25733-100300FM-12+051599999V0201901N001012200019N0030001N1+00401+00081103091ADDAA124000091AY141061AY201061GA1041+003901061GF104991041041004501999999IA1019IA2999+00089KA1240M+01151KA2120N+00221MA1999999097021MD1310051-0311MW1051REMSYN124AAXX  11121 76393 31430 41901 10040 20008 39702 40309 53005 70540 844// 91150 333 10115 20022 30008 56399 59031 70000 84613;
0217763930999992010011115004+25733-100300FM-12+051599999V0202501N001010075019N0030001N1+00621-00021103191ADDAY121031AY221031GA1081+007501061GF108991081041008001999999IA1019MA1999999097101MD1210081-0421MW1051REMSYN106AAXX  11151 76393 31530 82501 10062 21002 39710 40319 52008 70522 884// 91440 333 30/// 563// 59042 88625;
0255763930999992010011118004+25733-100300FM-12+051599999V0200901N002010087019N0040001N1+01061+00371103081ADDAY111061AY211061GA1051+008701061GF105991051041008001001001IA1019KA1120M+01161KA2240N+00181MA1999999097451MD1010351-0031MW1051REMSYN118AAXX  11181 76393 31540 50902 10106 20037 39745 40308 50035 70511 85400 91740 333 10116 20018 30/// 56300 59003 85629;
0269763930999992010011200004+25733-100300FM-12+051599999V0201301N002012200019N0040001N1+01221+00571999999ADDAA124000091GF103991031051008001001001IA1019KA1120M+01561KA2180N+00181MA1999999096681MD1410001-0471REMSYN124AAXX  12001 76393 32540 31302 10122 20057 39668 40063 54001 83500 92350 333 10156 20018 30/// 50111 56300 59047 70000 83627;EQDQ01+100633APOSLPQ02 100633APOSLP
0217763930999992010011203004+25733-100300FM-12+051599999V0203201N001010042019N0020001N1+01101+00691102811ADDAY141031AY221031GA1071+004201061GF107991071061004501999999IA1019MA1999999096881MD1210201-0291MW1051REMSYN106AAXX  12031 76393 31420 73201 10110 20069 39688 40281 52020 70542 876// 90255 333 30/// 56399 59029 87614;
0253763930999992010011206004+25733-100300FM-12+051599999V0200701N001010042019N0030001N1+01021+00591102851ADDAY141061AY201061GF108991081051004501999999GJ103729IA1019KA1240M+01561KA2240N+00181MA1999999096921MD1410001-0261MW1051REMSYN124AAXX  12061 76393 31430 80701 10102 20059 39692 40285 54004 70540 885// 90555 333 10156 20018 30/// 55062 56399 59026 88614;
0253763930999992010011209004+25733-100300FM-12+051599999V0209999C000010006019N0020001N1+00941+00901102831ADDAA103000091AY151031AY221031GA1081+000601071GF108991081061000251999999IA1099MA1999999096891MD1810031-0081MW1051REMSYN112AAXX  12091 76393 21020 80000 10094 20090 39689 40283 58003 70552 886// 90850 333 31/// 56399 59008 69907 88702;EQDQ01  00002PRCP03
0172763930999992010011212004+25733-100300FM-12+051599999V0202501N001019999999N0020001N1+00921+00871102871ADDAA106002091AY151061AY221061GF108991999999000751999999MA1999999096911MD1310021+9999MW1051REMSYN072AAXX  12121 76393 01120 82501 10092 20087 39691 40287 53002 60021 70552;
0234763930999992010011215004+25733-100300FM-12+051599999V0209999C000010009019N0010001N1+00921+00851103051ADDAA103000491AY121031AY221031GA1081+000901071GF108991081071000751999999IA1099MA1999999097071MD1210161-0031MW1501REMSYN112AAXX  12151 76393 21110 80000 10092 20085 39707 40305 52016 75022 887// 91440 333 31/// 563// 59003 69947 88703;
0172763930999992010011218004+25733-100300FM-12+051599999V0200901N001019999999N0008001N1+01001+00891103111ADDAA106000591AY121061AY221061GF108991999999000751999999MA1999999097121MD1010051+9999MW1531REMSYN072AAXX  12181 76393 01108 80901 10100 20089 39712 40311 50005 69961 75322;
0272763930999992010011412004+25733-100300FM-12+051599999V0209999C000010012019N0010001N1+01221+01081101501ADDAA124000791AY141061AY241061GA1081+001201061GF108991081051001501999999IA1019KA1240M+01401KA2120N+01171MA1999999095651MD1710221-1031MW1051REMSYN124AAXX  14121 76393 31210 80000 10122 20108 39565 40150 57022 70544 885// 91150 333 10140 20117 30117 563// 59103 70007 88604;
0217763930999992010011415004+25733-100300FM-12+051599999V0202501N001010039019N0030001N1+01261+00941101531ADDAY121031AY221031GA1081+003901061GF108991081041004501999999IA1019MA1999999095681MD1510031-1071MW1051REMSYN106AAXX  14151 76393 31430 82501 10126 20094 39568 40153 55003 70522 884// 91440 333 30/// 563// 59107 88613;
0255763930999992010011418004+25733-100300FM-12+051599999V0209999C000010045019N0020001N1+01421+01081101461ADDAY121061AY221061GA1081+004501071GF108991081061004501999999IA1019KA1120M+01501KA2240N+01171MA1999999095621MD1710061-1051MW1051REMSYN118AAXX  14181 76393 31420 80000 10142 20108 39562 40146 57006 70522 886// 91740 333 10150 20117 30/// 563// 59105 88715;
0189763930999992010011421004+25733-100300FM-12+051599999V0209999C000010042019N0010001N1+01441+01101101191ADDGA1081+004201071GF108991081061004501999999IA1019MA1999999095381MD1710241-0891REMSYN100AAXX  14211 76393 32410 80000 10144 20110 39538 40119 57024 886// 92050 333 30/// 563// 59089 88714;
0234763930999992010011500004+25733-100300FM-12+051599999V0200201N001010021019N0010001N1+01401+01161101151ADDAA124000091GF108991081061002501999999IA1019KA1120M+01521KA2180N+01171MA1999999095361MD1410001-0841REMSYN124AAXX  15001 76393 32310 80201 10140 20116 39536 40115 54002 886// 92350 333 10152 20117 30/// 50051 563// 59084 70000 88710;
0217763930999992010011503004+25733-100300FM-12+051599999V0209999C000010018019N0010001N1+01381+01211101071ADDAY151031AY221031GA1081+001801061GF108991081051001501999999IA1019MA1999999095291MD1410001-0861MW1501REMSYN106AAXX  15031 76393 31210 80000 10138 20121 39529 40107 54007 75052 885// 90255 333 30/// 56399 59086 88606;
0253763930999992010011506004+25733-100300FM-12+051599999V0202901N001010021019N0010001N1+01361+01121101221ADDAY141061AY221061GF108991081051002501999999GJ100009IA1019KA1240M+01521KA2240N+01171MA1999999095431MD1210141-0701MW1051REMSYN124AAXX  15061 76393 31310 82901 10136 20112 39543 40122 52014 70542 885// 90555 333 10152 20117 30/// 55000 56399 59070 88608;
0253763930999992010011509004+25733-100300FM-12+051599999V0203201N001010003019N0020001N1+01281+01261101081ADDAA103000091AY151031AY221031GA1081+000301071GF108991081061000251999999IA1099MA1999999095291MD1810141-0581MW1051REMSYN112AAXX  15091 76393 21020 83201 10128 20126 39529 40108 58014 70552 886// 90850 333 31/// 563// 59058 69907 88701;EQDQ01  00002PRCP03
0191763930999992010011512004+25733-100300FM-12+051599999V0200301N001019999999N0020001N1+01201+01061101051ADDAA103000091AY141061AY221061GF107991999999001501999999MA1999999095261MD1510031+9999MW1051REMSYN072AAXX  15121 76393 01220 70301 10120 20106 39526 40105 55003 69907 70542;EQDQ01  00002PRCP03
0234763930999992010011515004+25733-100300FM-12+051599999V0200201N001010030019N0030001N1+01261+01051101281ADDAA103000391AY121031AY221031GA1081+003001061GF108991081041002501999999IA1099MA1999999095471MD1210211-0211MW1501REMSYN112AAXX  15151 76393 21330 80201 10126 20105 39547 40128 52021 75022 884// 91440 333 31/// 563// 59021 69937 88610;
0172763930999992010011518004+25733-100300FM-12+051599999V0203201N005019999999N0080001N1+01821+00711101161ADDAA106000391AY111061AY211061GF106991999999999999999999MA1999999095371MD1710101+9999MW1051REMSYN072AAXX  15181 76393 01958 63205 10182 20071 39537 40116 57010 69931 70511;
0189763930999992010011521004+25733-100300FM-12+051599999V0203101N006010147019N0080001N1+01881+00691101021ADDGA1071+014701061GF107991071061012501001001IA1019MA1999999095261MD1710111-0121REMSYN100AAXX  15211 76393 32658 73106 10188 20069 39526 40102 57011 87600 92050 333 30/// 563// 59012 87649;
0234763930999992010011600004+25733-100300FM-12+051599999V0203101N006010075019N0060001N1+01561+00851101281ADDAA124000391GF106991061051008001001001IA1019KA1120M+02121KA2180N+01201MA1999999095531MD1210271+0171REMSYN124AAXX  16001 76393 32556 63106 10156 20085 39553 40128 52027 86500 92350 333 10212 20120 30/// 50441 567// 58017 70003 86629;
0234763930999992010011603004+25733-100300FM-12+051599999V0203501N003010024019N0020001N1+01161+00911101581ADDAA103000021AY151031AY221031GA1081+002401061GF108991081051002501999999IA1019MA1999999095811MD1210281+0521MW1501REMSYN112AAXX  16031 76393 21320 83503 10116 20091 39581 40158 52028 75052 885// 90255 333 30/// 56399 58052 69907 88608;
0172763930999992010011606004+25733-100300FM-12+051599999V0203601N002019999999N0060001N1+01161+00791101721ADDAA106000021AY141061AY221061GF108991999999004501999999MA1999999095921MD1310111+9999MW1051REMSYN072AAXX  16061 76393 11456 83602 10116 20079 39592 40172 53011 69901 70542;
0272763930999992010011612004+25733-100300FM-12+051599999V0203201N003012200019N0030001N1+01281+00731101801ADDAA124000391AY141061AY221061GA1021+006901061GF102991021051008001999999IA1019KA1240M+02121KA2120N+01041MA1999999095951MD1210041+0691MW1051REMSYN124AAXX  16121 76393 31530 23203 10128 20073 39595 40180 52004 70542 825// 91150 333 10212 20104 30098 56399 58069 70003 82623;
0199763930999992010011615004+25733-100300FM-12+051599999V0200501N001012200019N0100001N1+01401+00861101941ADDAY101031AY201031GA1001+999999999GF100991001001999999001001IA1019MA1999999096081MD1210131+0611MW1051REMSYN088AAXX  16151 76393 31960 00501 10140 20086 39608 40194 52013 70500 91440 333 30/// 58061;
0255763930999992010011618004+25733-100300FM-12+051599999V0203101N003012200019N0060001N1+01941+00821101831ADDAY101061AY201061GA1011+013201061GF101991011041012501001001IA1019KA1120M+02001KA2240N+01041MA1999999096011MD1010071+0641MW1051REMSYN118AAXX  16181 76393 31656 13103 10194 20082 39601 40183 50007 70500 81400 91740 333 10200 20104 30/// 56500 58064 81644;
0217763930999992010011621004+25733-100300FM-12+051599999V0202701N002012200019N0050001N1+02261+00621101391ADDAY141031AY241031GA1011+015001081GF101991011011017501001001IA1019MA1999999095641MD1710371+0381MW1041REMSYN106AAXX  16211 76393 31750 12702 10226 20062 39564 40139 57037 70444 81100 92050 333 30/// 56500 58038 81850;
0245763930999992010011700004+25733-100300FM-12+051599999V0201401N001012200019N0050001N1+02081+00591101411ADDAY141061AY241061GF101991001001999999001051IA1019KA1120M+02351KA2180N+01041MA1999999095691MD1210051+0161MW1041REMSYN124AAXX  17001 76393 31950 11401 10208 20059 39569 40141 52005 70444 80005 92350 333 10235 20104 30/// 50421 56006 58016 79999;
0195763930999992010011703004+25733-100300FM-12+051599999V0200601N001012200019N0020001N1+01661+00721101511ADDAY141031AY211031GF104991001001999999001041IA1019MA1999999095811MD1210121+0001MW1051REMSYN100AAXX  17031 76393 31920 40601 10166 20072 39581 40151 52012 70541 80004 90255 333 30/// 56005 59000;
0247763930999992010011706004+25733-100300FM-12+051599999V0202701N001012200019N0020001N1+01361+00861101651ADDAY141061AY211061GF104991001001999999001041GJ105349IA1019KA1240M+02351KA2240N+01041MA1999999095921MD1310111+9999MW1051REMSYN118AAXX  17061 76393 31920 42701 10136 20086 39592 40165 53011 70541 80004 90555 333 10235 20104 30/// 55089 56005 59000;
0199763930999992010011709004+25733-100300FM-12+051599999V0202201N001012200019N0030001N1+01221+00861101671ADDAY141031AY201031GA1001+999999999GF100991001001999999001001IA1019MA1999999095901MD1710021-0011MW1051REMSYN088AAXX  17091 76393 31930 02201 10122 20086 39590 40167 57002 70540 90850 333 30/// 59001;
0273763930999992010011712004+25733-100300FM-12+051599999V0202301N001012200019N0030001N1+01041+00861101701ADDAA124000091AY141061AY201061GA1001+999999999GF100991001001999999001001IA1019KA1240M+02351KA2120N+01001MA1999999095871MD1610031-0081MW1051REMSYN106AAXX  17121 76393 31930 02301 10104 20086 39587 40170 56003 70540 91150 333 10235 20100 30080 59008 70000;EQDQ01  00002PRCP24
0217763930999992010011715004+25733-100300FM-12+051599999V0202101N001010600019N0020001N1+01271+00791101901ADDAY141031AY241031GA1071+060001021GF107991001001999999001081IA1019MA1999999096021MD1210151-0061MW1041REMSYN106AAXX  17151 76393 31920 72101 10127 20079 39602 40190 52015 70444 80008 91450 333 30/// 56005 59006 87270;
0233763930999992010011718004+25733-100300FM-12+051599999V0201001N001012200019N0020001N1+01981+00961101801ADDAY141061AY241061GF102991001001999999001011IA1019KA1120M+02081KA2240N+01001MA1999999095961MD1710061-0051MW1041REMSYN112AAXX  17181 76393 31920 21001 10198 20096 39596 40180 57006 70444 80001 91750 333 10208 20100 30/// 56005 59005;
0167763930999992010011721004+25733-100300FM-12+051599999V0200601N002012200019N0040001N1+02301+00821101361ADDGF102991001001999999001011IA1019MA1999999095571MD1710391-0071REMSYN094AAXX  17211 76393 32940 20602 10230 20082 39557 40136 57039 80001 92050 333 30/// 56005 59007;
0217763930999992010011800004+25733-100300FM-12+051599999V0201301N002012200019N0060001N1+02201+00951101281ADDGF102991001001999999001041IA1019KA1120M+02481KA2180N+01001MA1999999095571MD1410001-0121REMSYN118AAXX  18001 76393 32956 21302 10220 20095 39557 40128 54000 80004 92350 333 10248 20100 30/// 50391 56005 59012 70000;
0167763930999992010011803004+25733-100300FM-12+051599999V0202501N001012200019N0120001N1+01721+01001101371ADDGF102991001001999999001041IA1019MA1999999095691MD1310121-0121REMSYN094AAXX  18031 76393 32962 22501 10172 20100 39569 40137 53012 80004 90255 333 30/// 56005 59012;
0219763930999992010011806004+25733-100300FM-12+051599999V0203301N001012200019N0100001N1+01441+00901101401ADDGF102991001001999999001041GJ104929IA1019KA1240M+02481KA2240N+01001MA1999999095711MD1410001+9999REMSYN112AAXX  18061 76393 32960 23301 10144 20090 39571 40140 54002 80004 90555 333 10248 20100 30/// 55082 56005 59021;
0199763930999992010011809004+25733-100300FM-12+051599999V0202701N001012200019N0030001N1+01301+01061101471ADDAY141031AY201031GA1001+999999999GF100991001001999999001001IA1019MA1999999095741MD1710031-0161MW1051REMSYN088AAXX  18091 76393 31930 02701 10130 20106 39574 40147 57003 70540 90850 333 30/// 59016;
0273763930999992010011812004+25733-100300FM-12+051599999V0203101N001012200019N0030001N1+01181+00931101461ADDAA124000091AY141061AY201061GA1001+999999999GF100991001001999999001001IA1019KA1240M+02481KA2120N+01161MA1999999095671MD1310071-0201MW1051REMSYN106AAXX  18121 76393 31930 03101 10118 20093 39567 40146 53007 70540 91150 333 10248 20116 30092 59020 70000;EQDQ01  00002PRCP24
0199763930999992010011815004+25733-100300FM-12+051599999V0203101N001012200019N0040001N1+01561+00851101621ADDAY141031AY201031GA1001+999999999GF100991001001999999001001IA1019MA1999999095801MD1210131-0221MW1041REMSYN088AAXX  18151 76393 31940 03101 10156 20085 39580 40162 52013 70440 91450 333 30/// 59022;
0233763930999992010011818004+25733-100300FM-12+051599999V0202201N001012200019N0040001N1+02301+00821101551ADDAY141061AY201061GF102991001001999999001011IA1019KA1120M+02501KA2240N+01141MA1999999095761MD1410001-0201MW1041REMSYN112AAXX  18181 76393 32940 22201 10230 20082 39576 40155 54004 70440 80001 91750 333 10250 20114 30/// 56007 59020;
0199763930999992010011821004+25733-100300FM-12+051599999V0201401N002012200019N0030001N1+02801+00961101171ADDAY101031AY201031GA1001+999999999GF100991001001999999001001IA1019MA1999999095461MD1710301-0111MW1051REMSYN088AAXX  18211 76393 31930 01402 10280 20096 39546 40117 57030 70500 92040 333 30/// 59011;
0263763930999992010011900004+25733-100300FM-12+051599999V0201001N001012200019N0080001N1+02481+01121101101ADDAY101061AY201061GA1001+999999999GF100991001001999999001001GJ102469IA1019KA1120M+02921KA2180N+01141MA1999999095461MD1410001-0111MW1051REMSYN118AAXX  19001 76393 31958 01001 10248 20112 39546 40110 54000 70500 92340 333 10292 20114 30/// 50331 55041 59011 70000;
0199763930999992010011903004+25733-100300FM-12+051599999V0203101N002012200019N0040001N1+01981+01121101151ADDAY141031AY201031GA1001+999999999GF100991001001999999001001IA1019MA1999999095541MD1410001-0151MW1051REMSYN088AAXX  19031 76393 31940 03102 10198 20112 39554 40115 54008 70540 90255 333 30/// 59015;
0251763930999992010011906004+25733-100300FM-12+051599999V0202001N001012200019N0060001N1+01721+01041101341ADDAY141061AY201061GA1001+999999999GF100991001001999999001001GJ105349IA1019KA1240M+02921KA2240N+01141MA1999999095701MD1210161-0011MW1051REMSYN106AAXX  19061 76393 31956 02001 10172 20104 39570 40134 52016 70540 90555 333 10292 20114 30/// 55089 59001;
0199763930999992010011909004+25733-100300FM-12+051599999V0202301N001012200019N0030001N1+01481+00951101301ADDAY141031AY201031GA1001+999999999GF100991001001999999001001IA1019MA1999999095641MD1710061-0101MW1051REMSYN088AAXX  19091 76393 31930 02301 10148 20095 39564 40130 57006 70540 90850 333 30/// 59010;
0273763930999992010011912004+25733-100300FM-12+051599999V0202201N001012200019N0030001N1+01401+00981101261ADDAA124000091AY141061AY201061GA1001+999999999GF100991001001999999001001IA1019KA1240M+02921KA2120N+01381MA1999999095541MD1710101-0131MW1051REMSYN106AAXX  19121 76393 31930 02201 10140 20098 39554 40126 57010 70540 91150 333 10292 20138 30112 59013 70000;EQDQ01  00002PRCP24
0199763930999992010011915004+25733-100300FM-12+051599999V0201901N001012200019N0030001N1+01781+00911101371ADDAY141031AY201031GA1001+999999999GF100991001001999999001001IA1019MA1999999095601MD1410001-0201MW1041REMSYN088AAXX  19151 76393 31930 01901 10178 20091 39560 40137 54006 70440 91450 333 30/// 59020;
0205763930999992010011918004+25733-100300FM-12+051599999V0200401N001012200019N0030001N1+02521+01131101191ADDGF102991001001999999001011IA1019KA1120M+02601KA2240N+01121MA1999999095461MD1710141-0301REMSYN106AAXX  19181 76393 32930 20401 10252 20113 39546 40119 57014 80001 91750 333 10260 20112 30/// 56007 59030;
0171763930999992010011921004+25733-100300FM-12+051599999V0200601N003012200019N0020001N1+02821+01081100681ADDGA1001+999999999GF100991001001999999001001IA1019MA1999999095031MD1710431-0431REMSYN082AAXX  19211 76393 32920 00603 10282 20108 39503 40068 57043 92040 333 30/// 59043;
0279763930999992010012000004+25733-100300FM-12+051599999V0201101N001012200019N0080001N1+02601+01351100511ADDAA124000091AY101061AY201061GA1001+999999999GF100991001001999999001001IA1019KA1120M+02961KA2180N+01381MA1999999094911MD1710121-0551MW1051REMSYN112AAXX  20001 76393 31958 01101 10260 20135 39491 40051 57012 70500 92340 333 10296 20138 30/// 50441 59055 70000;EQDQ01  00002PRCP24
0199763930999992010012003004+25733-100300FM-12+051599999V0202101N001012200019N0030001N1+02111+01301100571ADDAY141031AY241031GA1001+999999999GF100991001001999999001001IA1019MA1999999095031MD1210091-0511MW1041REMSYN088AAXX  20031 76393 31930 02101 10211 20130 39503 40057 52009 70444 90255 333 30/// 59051;
0251763930999992010012006004+25733-100300FM-12+051599999V0209999C000012200019N0030001N1+01821+01321100611ADDAY141061AY241061GA1001+999999999GF100991001001999999001001GJ105349IA1019KA1240M+02961KA2240N+01381MA1999999095041MD1210011-0661MW1041REMSYN106AAXX  20061 76393 31930 00000 10182 20132 39504 40061 52001 70444 90550 333 10296 20138 30/// 55089 59066;
0171763930999992010012009004+25733-100300FM-12+051599999V0202401N001012200019N0020001N1+01661+01231100531ADDGA1001+999999999GF100991001001999999001001IA1019MA1999999094921MD1610121-0721REMSYN082AAXX  20091 76393 32920 02401 10166 20123 39492 40053 56012 90850 333 30/// 59072;
0245763930999992010012012004+25733-100300FM-12+051599999V0201901N001012200019N0020001N1+01601+00901100461ADDAA124000091GA1001+999999999GF100991001001999999001001IA1019KA1240M+02961KA2120N+01541MA1999999094811MD1710111-0731REMSYN100AAXX  20121 76393 32920 01901 10160 20090 39481 40046 57011 91150 333 10296 20154 30130 59073 70000;EQDQ01  00002PRCP24
0167763930999992010012015004+25733-100300FM-12+051599999V0202201N001012200019N0040001N1+02001+00811100601ADDGF104991001001999999001011IA1019MA1999999094911MD1210101-0691REMSYN094AAXX  20151 76393 32940 42201 10200 20081 39491 40060 52010 80001 91450 333 30/// 56007 59069;
0215763930999992010012018004+25733-100300FM-12+051599999V0201801N001012200019N0050001N1+03021+00921100441ADDGA1001+999999999GF100991001001999999001001IA1019KA1120M+03141KA2240N+01541MA1999999094801MD1710111-0661REMSYN100AAXX  20181 76393 32950 01801 10302 20092 39480 40044 57011 91750 333 10314 20154 30/// 54106 59066;
0189763930999992010012021004+25733-100300FM-12+051599999V0201101N003012200019N0040001N1+03281+00651099901ADDGA1011+060001001GF101991001001999999001011IA1019MA1999999094351MD1710451-0681REMSYN100AAXX  20211 76393 32940 11103 10328 20065 39435 49990 57045 80001 92040 333 30/// 56001 59068 81070;
0234763930999992010012100004+25733-100300FM-12+051599999V0201901N002012200019N0100001N1+03001+00641099831ADDAA124000091GF104991001001999999001011IA1019KA1120M+03401KA2180N+01501MA1999999094371MD1210021-0541REMSYN124AAXX  21001 76393 32960 41902 10300 20064 39437 49983 52002 80001 92340 333 10340 20150 30/// 50541 56001 59054 70000 84070;
0167763930999992010012103004+25733-100300FM-12+051599999V0202201N001012200019N0120001N1+02361+00621099901ADDGF101991001001999999001041IA1019MA1999999094461MD1410001-0571REMSYN094AAXX  21031 76393 32962 12201 10236 20062 39446 49990 54009 80004 90255 333 30/// 56005 59057;
0219763930999992010012106004+25733-100300FM-12+051599999V0202201N001012200019N0120001N1+01881+00601100091ADDGF101991001001999999001041GJ105349IA1019KA1240M+03401KA2240N+01501MA1999999094611MD1310151+9999REMSYN112AAXX  21061 76393 32962 12201 10188 20060 39461 40009 53015 80004 90555 333 10340 20150 30/// 55089 56005 59043;
0199763930999992010012109004+25733-100300FM-12+051599999V0202301N001012200019N0030001N1+01661+00611100291ADDAY141031AY241031GA1001+999999999GF100991001001999999001001IA1019MA1999999094731MD1210121-0191MW1041REMSYN088AAXX  21091 76393 31930 02301 10166 20061 39473 40029 52012 70444 90850 333 30/// 59019;
0273763930999992010012112004+25733-100300FM-12+051599999V0203101N001012200019N0030001N1+01631+00471100501ADDAA124000091AY141061AY241061GA1001+999999999GF100991001001999999001001IA1019KA1240M+03401KA2120N+01401MA1999999094851MD1210121+0041MW1041REMSYN106AAXX  21121 76393 31930 03101 10163 20047 39485 40050 52012 70444 92050 333 10340 20140 30130 58004 70000;EQDQ01  00002PRCP24
0199763930999992010012115004+25733-100300FM-12+051599999V0200701N001012200019N0040001N1+02001+00981100811ADDAY141031AY201031GA1001+999999999GF100991001001999999001001IA1019MA1999999095121MD1710271+0211MW1041REMSYN088AAXX  21151 76393 32940 00701 10200 20098 39512 40081 57027 70440 91450 333 30/// 58021;
0209763930999992010012118004+25733-100300FM-12+051599999V0200601N001012200019N0040001N1+02561+01381100901ADDGA1001+999999999GF100991001001999999001001IA1019KA1120M+02641KA2240N+01401MA1999999095221MD1410001+0421REMSYN094AAXX  21181 76393 32940 00601 10256 20138 39522 40090 54010 91750 333 10264 20140 30/// 58042;
0171763930999992010012121004+25733-100300FM-12+051599999V0201101N002012200019N0030001N1+02761+01331100451ADDGA1001+999999999GF100991001001999999001001IA1019MA1999999094851MD1210371+0501REMSYN082AAXX  21211 76393 32930 01102 10276 20133 39485 40045 52037 92040 333 30/// 58050;
0251763930999992010012200004+25733-100300FM-12+051599999V0200701N002012200019N0030001N1+02541+01311100461ADDAA124000091GA1001+999999999GF100991001001999999001001IA1019KA1120M+02881KA2180N+01401MA1999999094901MD1210051+0531REMSYN106AAXX  22001 76393 32930 00702 10254 20131 39490 40046 52005 92340 333 10288 20140 30/// 50411 58053 70000;EQDQ01  00002PRCP24
0199763930999992010012203004+25733-100300FM-12+051599999V0203201N001012200019N0060001N1+02201+01351100651ADDAY141031AY201031GA1001+999999999GF100991001001999999001001IA1019MA1999999095101MD1210201+0641MW1051REMSYN088AAXX  22031 76393 31956 03201 10220 20135 39510 40065 52020 70540 90255 333 30/// 58064;
0251763930999992010012206004+25733-100300FM-12+051599999V0202101N001012200019N0060001N1+01901+01321100711ADDAY141061AY201061GA1001+999999999GF100991001001999999001001GJ104929IA1019KA1240M+02881KA2240N+01401MA1999999095131MD1410001+0521MW1051REMSYN106AAXX  22061 76393 31956 02101 10190 20132 39513 40071 54003 70540 90555 333 10288 20140 30/// 55082 58052;
0171763930999992010012209004+25733-100300FM-12+051599999V0201901N001012200019N0020001N1+01641+01421100781ADDGA1001+999999999GF100991001001999999001001IA1019MA1999999095161MD1010031+0431REMSYN082AAXX  22091 76393 32920 01901 10164 20142 39516 40078 50003 90850 333 30/// 58043;
0245763930999992010012212004+25733-100300FM-12+051599999V0203001N001012200019N0030001N1+01521+01181100831ADDAA124000091GA1001+999999999GF100991001001999999001001IA1019KA1240M+02881KA2120N+01501MA1999999095171MD1310011+0321REMSYN100AAXX  22121 76393 32930 03001 10152 20118 39517 40083 53001 91150 333 10288 20150 30124 58032 70000;EQDQ01  00002PRCP24
0209763930999992010012218004+25733-100300FM-12+051599999V0201201N001012200019N0040001N1+02581+01361100831ADDGA1001+999999999GF100991001001999999001001IA1019KA1120M+02701KA2240N+01441MA1999999095151MD1410001-0071REMSYN094AAXX  22181 76393 32940 01201 10258 20136 39515 40083 54008 91750 333 10270 20144 30/// 59007;
0171763930999992010012221004+25733-100300FM-12+051599999V0200901N004012200019N0030001N1+03081+01441100301ADDGA1001+999999999GF100991001001999999001001IA1019MA1999999094681MD1710471-0171REMSYN082AAXX  22211 76393 32930 00904 10308 20144 39468 40030 57047 92040 333 30/// 59017;
0279763930999992010012300004+25733-100300FM-12+051599999V0200701N004012200019N0060001N1+02861+01101100121ADDAA124000091AY101061AY201061GA1001+999999999GF100991001001999999001001IA1019KA1120M+03201KA2180N+01501MA1999999094591MD1510091-0311MW1041REMSYN112AAXX  23001 76393 31956 00704 10286 20110 39459 40012 55009 70400 92340 333 10320 20150 30/// 50451 59031 70000;EQDQ01  00002PRCP24
0171763930999992010012303004+25733-100300FM-12+051599999V0200901N001012200019N0080001N1+02361+01081100071ADDGA1001+999999999GF100991001001999999001001IA1019MA1999999094591MD1410001-0511REMSYN082AAXX  23031 76393 32958 00901 10236 20108 39459 40007 54000 90255 333 30/// 59051;
0251763930999992010012306004+25733-100300FM-12+051599999V0200201N001012200019N0020001N1+01921+01201100021ADDAY141061AY201061GA1001+999999999GF100991001001999999001001GJ105409IA1019KA1240M+03201KA2240N+01501MA1999999094521MD1410001-0611MW1051REMSYN106AAXX  23061 76393 31920 00201 10192 20120 39452 40002 54007 70540 90555 333 10320 20150 30/// 55090 59061;
0171763930999992010012309004+25733-100300FM-12+051599999V0202101N001012200019N0030001N1+01681+01111099911ADDGA1001+999999999GF100991001001999999001001IA1019MA1999999094351MD1710171-0811REMSYN082AAXX  23091 76393 31930 02101 10168 20111 39435 49991 57017 90850 333 30/// 59081;
0245763930999992010012312004+25733-100300FM-12+051599999V0203501N001012200019N0020001N1+01561+00931099861ADDAA124000091GA1001+999999999GF100991001001999999001001IA1019KA1240M+03201KA2120N+01521MA1999999094251MD1010101-0941REMSYN100AAXX  23121 76393 32920 03501 10156 20093 39425 49986 50010 91150 333 10320 20152 30146 59094 70000;EQDQ01  00002PRCP24
0217763930999992010012315004+25733-100300FM-12+051599999V0201801N001012200019N0030001N1+02271+00401100021ADDAY141031AY241031GA1041+018001031GF106991041001017501031011IA1019MA1999999094381MD1210131-0851MW1051REMSYN106AAXX  23151 76393 31730 61801 10227 20040 39438 40002 52013 70544 84031 91450 333 30/// 56077 59085 84356;
0268763930999992010012318004+25733-100300FM-12+051599999V0201401N003012200019N0030001N1+03301+00121099881ADDAY141061AY241061GF103991001001999999001061IA1019KA1120M+99999KA2240N+99999MA1999999094291MD1710091-0861MW1051REMSYN112AAXX  23181 76393 31930 31403 10330 20012 39429 49988 57009 70544 80006 91755 333 10152 20338 30/// 56007 59086;EQDQ01 +01523ATMM  Q02 +03383ATMM  
0236763930999992010012321004+25733-100300FM-12+051599999V0201101N006010600019N0030001N1+02901+01322099581ADDAY101031AY201031GA1051+060001001GF105991001001999999001011IA1019MA1999999094061MD1710231-0621MW1041REMSYN106AAXX  23211 76393 31930 51106 10290 20132 39406 49958 57023 70400 85001 92040 333 30/// 56007 59062 85070;EQDQ01+000052SCOTLC
0281763930999992010012400004+25733-100300FM-12+051599999V0200701N002019999999N0060001N1+02481+01141099801ADDAA124000091AY111061AY211061GF105991001001999999001011IA1019KA1120M+03441KA2180N+01521MA1999999094321MD1210261-0271MW1041REMSYN130AAXX  24001 76393 31956 50702 10248 20114 39432 49980 52026 70411 85001 92340 333 10344 20152 30/// 50651 56007 59027 70000 85070;EQDQ01+000052SCOTLC
0195763930999992010012403004+25733-100300FM-12+051599999V0200501N002012200019N0060001N1+02021+00931100201ADDAY141031AY201031GF102991001001999999001041IA1019MA1999999094701MD1210381+0111MW1051REMSYN100AAXX  24031 76393 31956 20502 10202 20093 39470 40020 52038 70540 80004 90255 333 30/// 56005 58011;
0247763930999992010012406004+25733-100300FM-12+051599999V0203501N001012200019N0080001N1+01601+00731100571ADDAY141061AY201061GF102991001001999999001041GJ105169IA1019KA1240M+03441KA2240N+01521MA1999999094991MD1210291+9999MW1051REMSYN118AAXX  24061 76393 31958 23501 10160 20073 39499 40057 52029 70540 80004 90555 333 10344 20152 30/// 55086 56005 58047;
0217763930999992010012409004+25733-100300FM-12+051599999V0202601N001010087019N0030001N1+01541+00831100791ADDAY141031AY201031GA1051+008701061GF105991051041008001001001IA1019MA1999999095131MD1110141+0781MW1051REMSYN106AAXX  24091 76393 31530 52601 10154 20083 39513 40079 51014 70540 85400 90850 333 30/// 56399 58078 85629;
0245763930999992010012412004+25733-100300FM-12+051599999V0201701N001012200019N0030001N1+01461+00851100861ADDAA124000091GA1001+999999999GF100991001001999999001001IA1019KA1240M+03441KA2120N+01321MA1999999095151MD1210021+0901REMSYN100AAXX  24121 76393 32930 01701 10146 20085 39515 40086 52002 91150 333 10344 20132 30124 58090 70000;EQDQ01  00002PRCP24
0189763930999992010012415004+25733-100300FM-12+051599999V0202201N001012200019N0040001N1+01681+00831101111ADDGA1021+010501061GF102991021041012501001001IA1019MA1999999095361MD1210211+0981REMSYN100AAXX  24151 76393 32640 22201 10168 20083 39536 40111 52021 82400 91450 333 30/// 56300 58098 82635;
0227763930999992010012418004+25733-100300FM-12+051599999V0200701N001012200019N0040001N1+02041+00861101161ADDGA1021+014401061GF102991021041012501001001IA1019KA1120M+02161KA2240N+01321MA1999999095421MD1410001+1131REMSYN112AAXX  24181 76393 32640 20701 10204 20086 39542 40116 54009 82400 91750 333 10216 20132 30/// 56300 58113 82648;
0217763930999992010012421004+25733-100300FM-12+051599999V0200901N002012200019N0060001N1+02441+00491100801ADDAY141031AY241031GA1011+018001081GF101991011011017501001001IA1019MA1999999095121MD1710301+1061MW1041REMSYN106AAXX  24211 76393 31756 10902 10244 20049 39512 40080 57030 70444 81100 92050 333 30/// 56700 58106 81856;
0279763930999992010012500004+25733-100300FM-12+051599999V0201201N001012200019N0050001N1+02301+00611100831ADDAA124000091AY141061AY241061GA1001+999999999GF100991001001999999001001IA1019KA1120M+02561KA2180N+01321MA1999999095211MD1210091+0891MW1051REMSYN112AAXX  25001 76393 31950 01201 10230 20061 39521 40083 52009 70544 92350 333 10256 20132 30/// 50601 58089 70000;EQDQ01  00002PRCP24
0199763930999992010012503004+25733-100300FM-12+051599999V0200901N001012200019N0090001N1+01821+01071101171ADDAY141031AY201031GA1001+999999999GF100991001001999999001001IA1019MA1999999095531MD1210321+0831MW1051REMSYN088AAXX  25031 76393 31959 00901 10182 20107 39553 40117 52032 70540 90255 333 30/// 58083;
0251763930999992010012506004+25733-100300FM-12+051599999V0203201N001012200019N0060001N1+01581-00132101391ADDAY141061AY201061GA1001+999999999GF100991001001999999001001GJ105469IA1019KA1240M+02561KA2240N+01321MA1999999095721MD1310191+0731MW1051REMSYN106AAXX  25061 76393 31956 03201 10158 21013 39572 40139 53019 70540 90555 333 10256 20132 30/// 55091 58073;
0171763930999992010012509004+25733-100300FM-12+051599999V0202201N001012200019N0030001N1+01321+00321101511ADDGA1001+999999999GF100991001001999999001001IA1019MA1999999095791MD1010071+0661REMSYN082AAXX  25091 76393 31930 02201 10132 20032 39579 40151 50007 90850 333 30/// 58066;
0245763930999992010012512004+25733-100300FM-12+051599999V0203501N001012200019N0030001N1+01141+00101101591ADDAA124000091GA1001+999999999GF100991001001999999001001IA1019KA1240M+02561KA2120N+00821MA1999999095801MD1210011+0651REMSYN100AAXX  25121 76393 31930 03501 10114 20010 39580 40159 52001 91150 333 10256 20082 30078 58065 70000;EQDQ01  00002PRCP24
0199763930999992010012515004+25733-100300FM-12+051599999V0209999C000012200019N0040001N1+01321+00101101831ADDAY101031AY201031GA1001+999999999GF100991001001999999001001IA1019MA1999999095991MD1210191+0631MW1041REMSYN088AAXX  25151 76393 31940 00000 10132 20010 39599 40183 52019 70400 91440 333 30/// 58063;
0237763930999992010012518004+25733-100300FM-12+051599999V0200901N003012200019N0030001N1+02021+00181101771ADDAY101061AY201061GA1001+999999999GF100991001001999999001001IA1019KA1120M+02101KA2240N+00821MA1999999095931MD1710061+0511MW1041REMSYN100AAXX  25181 76393 31930 00903 10202 20018 39593 40177 57006 70400 91740 333 10210 20082 30/// 58051;
0171763930999992010012521004+25733-100300FM-12+051599999V0200901N002012200019N0060001N1+02321+00661101341ADDGA1001+999999999GF100991001001999999001001IA1019MA1999999095571MD1710361+0471REMSYN082AAXX  25211 76393 32956 00902 10232 20066 39557 40134 57036 92050 333 30/// 58047;
0251763930999992010012600004+25733-100300FM-12+051599999V0201201N002012200019N0060001N1+02161+00761101321ADDAA124000091GA1001+999999999GF100991001001999999001001IA1019KA1120M+02441KA2180N+00821MA1999999095611MD1410001+0401REMSYN106AAXX  26001 76393 32956 01202 10216 20076 39561 40132 54004 92350 333 10244 20082 30/// 50241 58040 70000;EQDQ01  00002PRCP24
0199763930999992010012603004+25733-100300FM-12+051599999V0201701N001012200019N0030001N1+01861+00851101351ADDAY141031AY201031GA1001+999999999GF100991001001999999001001IA1019MA1999999095681MD1410001+0151MW1051REMSYN088AAXX  26031 76393 31930 01701 10186 20085 39568 40135 54007 70540 90255 333 30/// 58015;
0251763930999992010012606004+25733-100300FM-12+051599999V0200501N002012200019N0040001N1+01421+00451101531ADDAY141061AY201061GA1001+999999999GF100991001001999999001001GJ105529IA1019KA1240M+02441KA2240N+00821MA1999999095831MD1210151+0111MW1051REMSYN106AAXX  26061 76393 31940 00502 10142 20045 39583 40153 52015 70540 90555 333 10244 20082 30/// 55092 58011;
0199763930999992010012609004+25733-100300FM-12+051599999V0200301N001012200019N0020001N1+01241+00641101671ADDAY141031AY201031GA1001+999999999GF100991001001999999001001IA1019MA1999999095921MD1110091+0131MW1051REMSYN088AAXX  26091 76393 31920 00301 10124 20064 39592 40167 51009 70540 90850 333 30/// 58013;
0267763930999992010012612004+25733-100300FM-12+051599999V0202801N001012200019N0030001N1+01081+00751101781ADDAA124000091AY141061AY201061GA1001+999999999GF100991001001999999001001KA1240M+02441KA2120N+00921MA1999999095961MD1210041+0161MW1051REMSYN106AAXX  26121 76393 31930 02801 10108 20075 39596 40178 52004 70540 91150 333 10244 20092 3//// 58016 70000;EQDQ01  00002PRCP24
0217763930999992010012615004+25733-100300FM-12+051599999V0201701N001010300019N0030001N1+01501+00651102021ADDAY111031AY211031GA1061+030001061GF106991061001999999071001IA1019MA1999999096171MD1210211+0181MW1041REMSYN106AAXX  26151 76393 31930 61701 10150 20065 39617 40202 52021 70411 86070 91440 333 30/// 56030 58018 86660;
0274763930999992010012618004+25733-100300FM-12+051599999V0200501N003012200019N0020001N1+01781+01031102031ADDAY111061AY211061GA1041+009301081GF104991041011008001001001IA1019KA1120M+01961KA2240N+00921MA1999999096181MD1610011+0251MW1051REMSYN118AAXX  26181 76393 31520 40503 10178 20103 39618 40203 56000 70511 84100 91740 333 10196 20092 30/// 56300 58025 84831;EQDQ01+000002APC3  
0217763930999992010012621004+25733-100300FM-12+051599999V0200901N003010081019N0030001N1+01861+01201101681ADDAY111031AY211031GA1071+008101061GF107991071051008001001001IA1019MA1999999095881MD1710301+0311MW1051REMSYN106AAXX  26211 76393 31530 70903 10186 20120 39588 40168 57030 70511 87500 92050 333 30/// 56300 58031 87627;
0234763930999992010012700004+25733-100300FM-12+051599999V0200901N002010075019N0030001N1+01901+01211101611ADDAA124000091GF108991081051008001001001IA1019KA1120M+02161KA2180N+00921MA1999999095851MD1410001+0241REMSYN124AAXX  27001 76393 32530 80902 10190 20121 39585 40161 54003 88500 92350 333 10216 20092 30/// 50331 56300 58024 70000 88628;
0217763930999992010012703004+25733-100300FM-12+051599999V0201001N005010054019N0030001N1+01811+01271101611ADDAY141031AY241031GA1081+005401061GF108991081051004501999999IA1019MA1999999095881MD1210031+0201MW1051REMSYN106AAXX  27031 76393 31430 81005 10181 20127 39588 40161 52003 70544 885// 90250 333 30/// 563// 58020 88618;
0287763930999992010012706004+25733-100300FM-12+051599999V0201101N004010012019N0020001N1+01581+01421101621ADDAA103000591AA206000591AY151061AY241061GF107991071051001501999999GJ102949IA1099KA1240M+02161KA2240N+00921MA1999999095881MD1410001+0051MW1501REMSYN136AAXX  27061 76393 01220 71104 10158 20142 39588 40162 54000 69951 75054 875// 90550 333 10216 20092 31/// 55049 563// 58005 69957 87605;
0240763930999992010012709004+25733-100300FM-12+051599999V0200301N00101001201CN0020001N1+01481+01351101551ADDAA103000021AY141031AY221031GA1021+001501071GF108991081021001501999999IA1099MA1999999095801MD1710081-0121MW1051REMSYN118AAXX  27091 76393 21220 80301 10148 20135 39580 40155 57008 70542 882// 90850 333 31/// 563// 59012 69907 82705 86608;
0172763930999992010012712004+25733-100300FM-12+051599999V0200701N001019999999N0020001N1+01541+01381101541ADDAA106000021AY141061AY221061GF107991999999001501999999MA1999999095771MD1510031+9999MW1051REMSYN072AAXX  27121 76393 11220 70701 10154 20138 39577 40154 55003 69901 70542;
0239763930999992010012718004+25733-100300FM-12+051599999V0200101N001010033019N0020001N1+01681+01421101771ADDGA1081+003301061GF108991081051002501999999IA1019KA1120M+01721KA2240N+01461MA1999999095981MD1010031-0201MW1041REMSYN118AAXX  27181 76393 31320 80101 10168 20142 39598 40177 50003 704// 885// 91740 333 10172 20146 30/// 563// 59020 88611;
0272763930999992010012812004+25733-100300FM-12+051599999V0201001N002010015019N0030001N1+01571+01411101251ADDAA124000091AY141061AY241061GA1081+001501061GF108991081051001501999999IA1019KA1240M+02141KA2120N+01571MA1999999095531MD1710081-0241MW1051REMSYN124AAXX  28121 76393 31230 81002 10157 20141 39553 40125 57008 70544 885// 91150 333 10214 20157 30157 564// 59024 70000 88605;
0217763930999992010012815004+25733-100300FM-12+051599999V0200901N001010024019N0010001N1+01621+01431101361ADDAY121031AY221031GA1081+002401071GF108991081061002501999999IA1019MA1999999095621MD1310091-0331MW1051REMSYN106AAXX  28151 76393 31310 80901 10162 20143 39562 40136 53009 70522 886// 91440 333 30/// 563// 59033 88708;
0255763930999992010012818004+25733-100300FM-12+051599999V0203201N001010039019N0010001N1+01781+01461101341ADDAY121061AY221061GA1081+003901071GF108991081061004501999999IA1019KA1120M+01861KA2240N+01571MA1999999095581MD1110041-0401MW1051REMSYN118AAXX  28181 76393 31410 83201 10178 20146 39558 40134 51004 70522 886// 91740 333 10186 20157 30/// 563// 59040 88713;
0189763930999992010012821004+25733-100300FM-12+051599999V0200701N001010093019N0020001N1+02261+01491100911ADDGA1051+009301061GF105991051051008001001001IA1019MA1999999095201MD1710381-0521REMSYN100AAXX  28211 76393 32520 50701 10226 20149 39520 40091 57038 85500 92050 333 30/// 56300 59052 85631;
0236763930999992010012900004+25733-100300FM-12+051599999V0201801N001012200019N0040001N1+02221+01381100751ADDGF103991999001999999021001IA1019KA1120M+02481KA2180N+01571MA1999999095091MD1710111-0591REMSYN118AAXX  29001 76393 32940 31801 10222 20138 39509 40075 57011 82020 92355 333 10248 20157 30/// 50131 56050 59059 70000;EQDQ01+000022SCOTLC
0195763930999992010012903004+25733-100300FM-12+051599999V0203201N003012200019N0030001N1+02041+01481100691ADDAY141031AY201031GF102991001001999999001041IA1019MA1999999095051MD1410001-0631MW1051REMSYN100AAXX  29031 76393 31930 23203 10204 20148 39505 40069 54004 70540 80004 90255 333 30/// 56005 59063;
0247763930999992010012906004+25733-100300FM-12+051599999V0201401N001012200019N0020001N1+01821+01511100671ADDAY141061AY201061GF102991001001999999001041GJ101869IA1019KA1240M+02481KA2240N+01571MA1999999095041MD1410001+9999MW1051REMSYN118AAXX  29061 76393 31920 21401 10182 20151 39504 40067 54001 70540 80004 90555 333 10248 20157 30/// 55031 56005 59055;
0199763930999992010012909004+25733-100300FM-12+051599999V0203201N001012200019N0020001N1+01561+01461100801ADDAY141031AY201031GA1001+999999999GF100991001001999999001001IA1019MA1999999095141MD1210101-0471MW1051REMSYN088AAXX  29091 76393 31920 03201 10156 20146 39514 40080 52010 70540 90850 333 30/// 59047;
0272763930999992010012912004+25733-100300FM-12+051599999V0200501N002010051019N0020001N1+01401+00981101201ADDAA124000091AY141061AY221061GA1081+005101061GF108991081051004501999999IA1019KA1240M+02481KA2120N+01381MA1999999095481MD1210341-0051MW1051REMSYN124AAXX  29121 76393 31420 80502 10140 20098 39548 40120 52034 70542 885// 91150 333 10248 20138 30134 563// 59005 70000 88617;
0239763930999992010012918004+25733-100300FM-12+051599999V0203501N001010096019N0030001N1+01461+00691101761ADDGA1081+009601061GF108991081051999999999999IA1019KA1120M+01761KA2240N+01321MA1999999095941MD1010051+0361MW1041REMSYN118AAXX  29181 76393 31930 83501 10146 20069 39594 40176 50005 704// 885// 91740 333 10176 20132 30/// 563// 58036 88632;
0189763930999992010012921004+25733-100300FM-12+051599999V0203601N002010114019N0040001N1+01681+00751101441ADDGA1071+011401061GF107991071051012501999999IA1019MA1999999095651MD1710291+0451REMSYN100AAXX  29211 76393 32640 73602 10168 20075 39565 40144 57029 875// 92045 333 30/// 563// 58045 87638;
0234763930999992010013000004+25733-100300FM-12+051599999V0200401N001010120019N0040001N1+01581+00621101491ADDAA124000091GF108991081051012501999999IA1019KA1120M+01741KA2180N+01321MA1999999095691MD1410001+0601REMSYN124AAXX  30001 76393 32640 80401 10158 20062 39569 40149 54004 885// 92350 333 10174 20132 30/// 50221 563// 58060 70000 88639;
0217763930999992010013003004+25733-100300FM-12+051599999V0203601N003010120019N0030001N1+01321+00221101661ADDAY141031AY221031GA1081+012001061GF108991081051012501999999IA1019MA1999999095861MD1310171+0811MW1051REMSYN106AAXX  30031 76393 31630 83603 10132 20022 39586 40166 53017 70542 885// 90255 333 30/// 56399 58081 88640;
0272763930999992010013006004+25733-100300FM-12+051599999V0203501N002010075019N0060001N1+01021+00071101851ADDAY141061AY221061GF108991081051008001999999GJ100009IA1019KA1240M+01741KA2240N+99999MA1999999096021MD1210161+0981MW1051REMSYN124AAXX  30061 76393 31556 83502 10102 20007 39602 40185 52016 70542 885// 90555 333 10174 20120 30/// 55000 56399 58098 88632;EQDQ01 +01202ATMN  
0217763930999992010013009004+25733-100300FM-12+051599999V0200201N002010099019N0030001N1+01001+00201102021ADDAY141031AY221031GA1081+009901061GF108991081051008001999999IA1019MA1999999096161MD1510141+1021MW1051REMSYN106AAXX  30091 76393 31530 80202 10100 20020 39616 40202 55014 70542 885// 90850 333 30/// 563// 58102 88633;
0272763930999992010013012004+25733-100300FM-12+051599999V0200501N001010087019N0030001N1+00881-00171102081ADDAA124000091AY141061AY221061GA1071+008701061GF108991071051008001999999IA1019KA1240M+01741KA2120N+00881MA1999999096181MD1210021+0701MW1051REMSYN124AAXX  30121 76393 31530 80501 10088 21017 39618 40208 52002 70542 875// 91150 333 10174 20088 30082 563// 58070 70000 87629;
0195763930999992010013015004+25733-100300FM-12+051599999V0200201N001019999999N0040001N1+00921+00201102311ADDGA1041+030001031GF108991041001999999071011IA1019MA1999999096361MD1210181+0471REMSYN106AAXX  30151 76393 32940 80201 10092 20020 39636 40231 52018 84071 91440 333 30/// 56075 58047 84360 84070;
0246763930999992010013018004+25733-100300FM-12+051599999V0203601N001010600019N0040001N1+01301+00021102231ADDGA1071+060001001GF107991001001999999001021IA1019KA1120M+01401KA2240N+00821MA1999999096291MD1710071+0491REMSYN112AAXX  30181 76393 32940 73601 10130 20002 39629 40223 57007 87002 91740 333 10140 20082 30/// 56005 58049 87070;EQDQ01+000072SCOTLC
0217763930999992010013021004+25733-100300FM-12+051599999V0201101N002010600019N0030001N1+01621+00271101931ADDAY141031AY241031GA1061+060001021GF106991001001999999001081IA1019MA1999999096031MD1710261+0381MW1041REMSYN106AAXX  30211 76393 31930 61102 10162 20027 39603 40193 57026 70444 80008 92050 333 30/// 56005 58038 86270;
0245763930999992010013100004+25733-100300FM-12+051599999V0201401N004012200019N0030001N1+01541+00321101881ADDAY141061AY241061GF104991001001999999001061IA1019KA1120M+01801KA2180N+00801MA1999999096031MD1410001+0341MW1041REMSYN124AAXX  31001 76393 31930 41404 10154 20032 39603 40188 54000 70444 80006 92350 333 10180 20080 30/// 50671 56005 58034 70000;
0195763930999992010013103004+25733-100300FM-12+051599999V0201301N002012200019N0040001N1+01121+00151101931ADDAY141031AY201031GF103991001001999999001041IA1019MA1999999096101MD1410001+0241MW1051REMSYN100AAXX  31031 76393 31940 31302 10112 20015 39610 40193 54007 70540 80004 90255 333 30/// 56005 58024;
0250763930999992010013106004+25733-100300FM-12+051599999V0201801N002012200019N0030001N1+01001+00241102051ADDAY141061AY201061GF103991001001999999001041GJ104029IA1019KA1240M+01801KA2240N+00821MA1999999096201MD1310101+9999MW1051REMSYN121AAXX  31061 76393 31930 31802 10100 20024 39620 40205 53010 70540 80004 90555 333 10180 20082 30/// 55067 56005 58018/3D;
0240763930999992010013109004+25733-100300FM-12+051599999V0201201N003012200019N0030001N1+00721+00431999999ADDAY141031AY201031GA1001+999999999GF100991001001999999001001IA1019MA1999999096201MD1410001+0041MW1051REMSYN094AAXX  31091 76393 31930 01203 10072 20043 39620 40290 56000 70540 90850 333 30/// 56999 58004;EQDQ01+102903APOSLPQ02+000062APCTEN
0272763930999992010013112004+25733-100300FM-12+051599999V0200901N003010054019N0030001N1+00641+00211102121ADDAA124000091AY141061AY221061GA1071+005401061GF107991071051004501999999IA1019KA1240M+01801KA2120N+00621MA1999999096181MD1310021+0001MW1051REMSYN124AAXX  31121 76393 31430 70903 10064 20021 39618 40212 53002 70542 875// 91150 333 10180 20062 30058 563// 58000 70000 87618;
0217763930999992010013115004+25733-100300FM-12+051599999V0201201N003010066019N0030001N1+00701+00021102321ADDAY141031AY241031GA1081+006601061GF108991081051008001999999IA1019MA1999999096341MD1210161-0021MW1051REMSYN106AAXX  31151 76393 31530 81203 10070 20002 39634 40232 52016 70544 885// 91450 333 30/// 564// 59002 88622;
0255763930999992010013118004+25733-100300FM-12+051599999V0201301N002010075019N0030001N1+00981+00221102301ADDAY141061AY241061GA1081+007501061GF108991081051008001999999IA1019KA1120M+01061KA2240N+00621MA1999999096311MD1710031+0021MW1041REMSYN118AAXX  31181 76393 31530 81302 10098 20022 39631 40230 57003 70444 885// 91750 333 10106 20062 30/// 564// 58002 88625;
0189763930999992010013121004+25733-100300FM-12+051599999V0201401N005010126019N0030001N1+01261+00241101881ADDGA1061+012601061GF106991061051012501001001IA1019MA1999999095941MD1710371-0091REMSYN100AAXX  31211 76393 32630 61405 10126 20024 39594 40188 57037 86500 92050 333 30/// 56300 59009 86642;
0279763930999992010020100004+25733-100300FM-12+051599999V0201401N002010021019N0030001N1+00941+00711101901ADDAA103000391AA224000391AY151061AY221061GF108991081051002501001001IA1099KA1120M+01381KA2180N+00621MA1999999095981MD1410001-0051MW1501REMSYN136AAXX  01001 76393 21330 81402 10094 20071 39598 40190 54004 75052 88500 95350 333 10138 20062 31/// 50141 563// 59005 69937 70003 88709;
0253763930999992010020106004+25733-100300FM-12+051599999V0201401N001012200019N0060001N1+00881+00601101031ADDAY141061AY201061GF102991021051002501001001GJ101389IA1099KA1240M+01381KA2240N+00621MA1999999095541MD1410001-0261MW1051REMSYN124AAXX  01061 76393 31356 21401 10088 20060 39554 40103 54003 70540 82500 90555 333 10138 20062 31/// 55023 56300 59026 82609;
0253763930999992010020109004+25733-100300FM-12+051599999V0201601N002012200019N0030001N1+00801+00341101701ADDAA103000091AY141031AY201031GA1011+005701061GF101991011051004501001001IA1099MA1999999095791MD1710151-0411MW1051REMSYN112AAXX  01091 76393 21430 11602 10080 20034 39579 40170 57015 70540 81500 90850 333 31/// 56399 59041 69907 81619;EQDQ01  00002PRCP03
0172763930999992010020112004+25733-100300FM-12+051599999V0200601N001012200019N0030001N1+00701+00581101731ADDAA106000591AY141061AY211061GF104991999999001501999999MA1999999095801MD1510011+9999MW1051REMSYN072AAXX  01121 76393 11230 40601 10070 20058 39580 40173 55001 69941 70541;
0217763930999992010020115004+25733-100300FM-12+051599999V0209999C000010024019N0030001N1+00801+00601101941ADDAY141031AY221031GA1081+002401061GF108991081051002501999999IA1019MA1999999095991MD1210191-0351MW1051REMSYN106AAXX  01151 76393 31330 80000 10080 20060 39599 40194 52019 70542 885// 91450 333 30/// 567// 59035 88608;
0227763930999992010020118004+25733-100300FM-12+051599999V0203201N001010066019N0020001N1+01181+00651101861ADDGA1051+006601061GF105991051051008001001001IA1019KA1120M+01341KA2240N+00681MA1999999095921MD1410001-0391REMSYN112AAXX  01181 76393 32520 53201 10118 20065 39592 40186 54007 85500 91750 333 10134 20068 30/// 56700 59039 85622;
0217763930999992010020121004+25733-100300FM-12+051599999V0200501N002012200019N0020001N1+01681+00831101481ADDAY101031AY201031GA1011+010501081GF101991011021012501001001IA1019MA1999999095601MD1710321-0341MW1051REMSYN106AAXX  01211 76393 31620 10502 10168 20083 39560 40148 57032 70500 81200 92040 333 30/// 56500 59034 81835;
0262763930999992010020200004+25733-100300FM-12+051599999V0200901N002012200019N0030001N1+01621+00881101371ADDAA124999929AY101061AY201061GF103991001001999999001011IA1019KA1120M+01881KA2180N+00681MA1999999095541MD1510061-0441MW1051REMSYN130AAXX  02001 76393 31930 30902 10162 20088 39554 40137 55006 70500 80001 92340 333 10188 20068 30/// 50011 56001 59044 79999 83070;
0195763930999992010020203004+25733-100300FM-12+051599999V0201101N001012200019N0020001N1+01281+00811101391ADDAY141031AY201031GF103991001001999999001041IA1019MA1999999095591MD1410001-0381MW1051REMSYN100AAXX  02031 76393 31920 31101 10128 20081 39559 40139 54005 70540 80004 90255 333 30/// 56005 59038;
0247763930999992010020206004+25733-100300FM-12+051599999V0200701N001012200019N0020001N1+01041+00821101511ADDAY141061AY201061GF103991001001999999001041GJ103669IA1019KA1240M+01881KA2240N+00681MA1999999095711MD1310121+9999MW1051REMSYN118AAXX  02061 76393 31920 30701 10104 20082 39571 40151 53012 70540 80004 90555 333 10188 20068 30/// 55061 56005 59023;
0199763930999992010020209004+25733-100300FM-12+051599999V0200601N001012200019N0020001N1+01001+00811101511ADDAY141031AY201031GA1001+999999999GF100991001001999999001001IA1019MA1999999095681MD1710031-0111MW1051REMSYN088AAXX  02091 76393 31920 00601 10100 20081 39568 40151 57003 70540 90850 333 30/// 59011;
0272763930999992010020212004+25733-100300FM-12+051599999V0209999C000010021019N0020001N1+01101+00921101681ADDAA124000091AY141061AY221061GA1081+002101061GF108991081041002501999999IA1019KA1240M+01881KA2120N+00921MA1999999095811MD1210131+0011MW1051REMSYN124AAXX  02121 76393 31320 80000 10110 20092 39581 40168 52013 70542 884// 91150 333 10188 20092 30074 563// 58001 70000 88607;
0217763930999992010020215004+25733-100300FM-12+051599999V0200401N001010024019N0020001N1+01101+00921101821ADDAY141031AY221031GA1081+002401071GF108991081061002501999999IA1019MA1999999095931MD1210121-0061MW1051REMSYN106AAXX  02151 76393 31320 80401 10110 20092 39593 40182 52012 70542 886// 91450 333 30/// 563// 59006 88708;
0291763930999992010020218004+25733-100300FM-12+051599999V0200601N001010015019N0010001N1+01121+01011101881ADDAA103000091AY141061AY221061GA1081+001501071GF108991081061001501999999IA1099KA1120M+01341KA2240N+00921MA1999999095991MD1410001+0071MW1051REMSYN124AAXX  02181 76393 21210 80601 10112 20101 39599 40188 54006 70542 886// 91750 333 10134 20092 31/// 563// 58007 69907 88705;EQDQ01  00002PRCP03
0253763930999992010020221004+25733-100300FM-12+051599999V0200701N001010021019N0010001N1+01261+01091101741ADDAA103000091AY121031AY221031GA1081+002101071GF108991081071002501999999IA1019MA1999999095861MD1510131+0261MW1051REMSYN112AAXX  02211 76393 21310 80701 10126 20109 39586 40174 55013 70522 887// 92040 333 30/// 563// 58026 69907 88707;EQDQ01  00002PRCP03
0172763930999992010020300004+25733-100300FM-12+051599999V0201201N001019999999N0006001N1+01301+01131101711ADDAA106000391AY151061AY251061GF108991999999002501999999MA1999999095841MD1110021+9999MW1501REMSYN072AAXX  03001 76393 01306 81201 10130 20113 39584 40171 51002 69931 75055;
0234763930999992010020303004+25733-100300FM-12+051599999V0209999C000010006019N0020001N1+01181+01111101741ADDAA103002091AY151031AY251031GA1081+000601061GF108991081071000751999999IA1119MA1999999095881MD1210041+0291MW1501REMSYN112AAXX  03031 76393 21120 80000 10118 20111 39588 40174 52004 75055 887// 90258 333 32/// 563// 58029 60027 88602;
0172763930999992010020306004+25733-100300FM-12+051599999V0201101N002019999999N0020001N1+01111+01061101571ADDAA106004191AY151061AY251061GF108991999999000751999999MA1999999095721MD1710161+9999MW1501REMSYN072AAXX  03061 76393 01120 81102 10111 20106 39572 40157 57016 60041 75055;
0234763930999992010020315004+25733-100300FM-12+051599999V0200601N001010009019N0010001N1+01121+01051100981ADDAA103000591AY141031AY221031GA1081+000901071GF108991081061000751999999IA1099MA1999999095151MD1710191-0781MW1051REMSYN112AAXX  03151 76393 21110 80601 10112 20105 39515 40098 57019 70542 886// 91450 333 31/// 563// 59078 69957 88703;
0156763930999992010020318004+25733-100300FM-12+051599999V0203601N001019999999N0008001N1+01201+01091999999ADDGF108991999999001501999999REMSYN118AAXX  03181 76393 31208 83601 10120 20109 10109 39526 52011 70542 886// 91750 333 10124 20100 31/// 563// 59073 88705;
0253763930999992010020321004+25733-100300FM-12+051599999V0202201N001010030019N0010001N1+01461+01231100921ADDAA103000091AY121031AY221031GA1081+003001071GF108991081071002501999999IA1019MA1999999095111MD1710151-0751MW1051REMSYN112AAXX  03211 76393 21310 82201 10146 20123 39511 40092 57015 70522 887// 92040 333 30/// 563// 59075 69907 88710;EQDQ01  00002PRCP03
0172763930999992010020400004+25733-100300FM-12+051599999V0200601N001019999999N0020001N1+01461+01261100721ADDAA106000021AY121061AY221061GF108991999999002501999999MA1999999094941MD1710171+9999MW1501REMSYN072AAXX  04001 76393 01320 80601 10146 20126 39494 40072 57017 69901 75022;
0217763930999992010020403004+25733-100300FM-12+051599999V0201201N001010012019N0020001N1+01381+01241100931ADDAY141031AY241031GA1061+001201061GF108991061051001501021999IA1099MA1999999095151MD1210211-0731MW1051REMSYN106AAXX  04031 76393 31220 81201 10138 20124 39515 40093 52021 70544 8652/ 90250 333 31/// 5675/ 59073 86604;
0275763930999992010020406004+25733-100300FM-12+051599999V0201201N001010360019N0010001N1+01341+01271100721ADDAY141061AY241061GA1041+000601071GF108991041071000751021999GJ100009IA1099KA1240M+01721KA2240N+01001MA1999999094961MD1710191-0761MW1051REMSYN130AAXX  04061 76393 31110 81201 10134 20127 39496 40072 57019 70544 8472/ 90555 333 10172 20100 31/// 55000 5675/ 59076 84702 84456;
0217763930999992010020409004+25733-100300FM-12+051599999V0201401N001010009019N0010001N1+01281+01181101121ADDAY141031AY221031GA1081+000901061GF108991081051000751999999IA1019MA1999999095331MD1110371+9999MW1051REMSYN106AAXX  04091 76393 31110 81401 10128 20118 39533 40112 51037 70542 885// 90855 333 30/// 56399 59/// 88603;
0272763930999992010020412004+25733-100300FM-12+051599999V0201301N001010015019N0010001N1+01241+01101100731ADDAA124002091AY141061AY221061GA1081+001501061GF108991081051001501999999IA1019KA1240M+01721KA2120N+01201MA1999999094951MD1710381-0391MW1051REMSYN124AAXX  04121 76393 31210 81301 10124 20110 39495 40073 57038 70542 885// 91155 333 10172 20120 30114 56399 59039 70020 88605;
0217763930999992010020415004+25733-100300FM-12+051599999V0209999C000010012019N0010001N1+01261+01161100901ADDAY141031AY221031GA1081+001201071GF108991081061001501999999IA1019MA1999999095111MD1410001-0041MW1051REMSYN106AAXX  04151 76393 31210 80000 10126 20116 39511 40090 54004 70542 886// 91450 333 30/// 563// 59004 88704;
0255763930999992010020418004+25733-100300FM-12+051599999V0200601N001010048019N0010001N1+01561+01161100991ADDAY141061AY221061GA1071+004801061GF107991071051004501999999IA1019KA1120M+01641KA2240N+01201MA1999999095191MD1410001-0071MW1051REMSYN118AAXX  04181 76393 31410 70601 10156 20116 39519 40099 54008 70542 875// 91750 333 10164 20120 30/// 565// 59007 87616;
0217763930999992010020421004+25733-100300FM-12+051599999V0200601N001010102019N0010001N1+01921+01091100661ADDAY121031AY221031GA1071+010201061GF107991071041012501999999IA1019MA1999999094921MD1710271-0191MW1051REMSYN106AAXX  04211 76393 31610 70601 10192 20109 39492 40066 57027 70522 874// 92040 333 30/// 563// 59019 87634;
0298763930999992010020500004+25733-100300FM-12+051599999V0200901N003010042019N0020001N1+01661+01271100801ADDAA103999999AA224999929AY121061AY221061GF108991081041004501999999IA1019KA1120M+02081KA2180N+01201MA1999999095081MD1210161+0141MW1051REMSYN136AAXX  05001 76393 21420 80903 10166 20127 39508 40080 52016 70522 884// 92340 333 10208 20120 30/// 50011 563// 58014 69907 79999 88616;EQDQ01  99992PRCP03
0217763930999992010020503004+25733-100300FM-12+051599999V0200901N001010042019N0030001N1+01561+01231101111ADDAY141031AY221031GA1071+004201061GF107991071041004501999999IA1019MA1999999095371MD1210291+0221MW1051REMSYN106AAXX  05031 76393 31430 70901 10156 20123 39537 40111 52029 70542 874// 90250 333 30/// 565// 58022 87614;
0251763930999992010020506004+25733-100300FM-12+051599999V0202001N002012200019N0030001N1+01421+01251101181ADDAY141061AY201061GA1001+999999999GF100991001001999999001001GJ101389IA1019KA1240M+02081KA2240N+01201MA1999999095441MD1210071+0491MW1051REMSYN106AAXX  05061 76393 31930 02002 10142 20125 39544 40118 52007 70540 90550 333 10208 20120 30/// 55023 58049;
0199763930999992010020509004+25733-100300FM-12+051599999V0209999C000012200019N0020001N1+01181+01071101161ADDAY141031AY201031GA1001+999999999GF100991001001999999001001IA1019MA1999999095391MD1410001+0461MW1051REMSYN088AAXX  05091 76393 31920 00000 10118 20107 39539 40116 54005 70540 90855 333 30/// 58046;
0273763930999992010020512004+25733-100300FM-12+051599999V0201601N001012200019N0020001N1+01121+00971101341ADDAA124000091AY141061AY221061GA1001+999999999GF100991001001999999001001IA1019KA1240M+02081KA2120N+01101MA1999999095531MD1310141+0581MW1051REMSYN106AAXX  05121 76393 31920 01601 10112 20097 39553 40134 53014 70542 91155 333 10208 20110 30096 58058 79999;EQDQ01  00002PRCP24
0199763930999992010020515004+25733-100300FM-12+051599999V0201701N001012200019N0020001N1+01501+00981101671ADDAY101031AY201031GA1001+999999999GF100991001001999999001001IA1019MA1999999095821MD1210291+0711MW1041REMSYN088AAXX  05151 76393 31920 01701 10150 20098 39582 40167 52029 70400 91450 333 30/// 58071;
0191763930999992010020518004+25733-100300FM-12+051599999V0201401N001012200019N0020001N1+02341+00701101641ADDGA1001+999999999GF100991001001999999001001KA1240N+01101MA1999999095831MD1410001+9999REMSYN095AAXX  05181 76393 32920 01401 10234 20070 39583 40164 54001 91750 333 102 42 20110 30/// 58064;
0199763930999992010020521004+25733-100300FM-12+051599999V0203201N005012200019N0040001N1+02681-00051101211ADDAY101031AY201031GA1001+999999999GF100991001001999999001001IA1019MA1999999095491MD1710341+0571MW1041REMSYN088AAXX  05211 76393 31940 03205 10268 21005 39549 40121 57034 70400 92040 333 30/// 58057;
0279763930999992010020600004+25733-100300FM-12+051599999V0201401N001012200019N0030001N1+02521+00571101141ADDAA124000091AY101061AY201061GA1001+999999999GF100991001001999999001001IA1019KA1120M+02751KA2180N+01101MA1999999095491MD1410001+0411MW1041REMSYN112AAXX  06001 76393 31930 01401 10252 20057 39549 40114 54000 70400 92340 333 10275 20110 30/// 50041 58041 70000;EQDQ01  00002PRCP24
0199763930999992010020603004+25733-100300FM-12+051599999V0200501N002012200019N0030001N1+02061+00891101281ADDAY141031AY201031GA1001+999999999GF100991001001999999001001IA1019MA1999999095651MD1210161+0281MW1051REMSYN088AAXX  06031 76393 31930 00502 10206 20089 39565 40128 52016 70540 90250 333 30/// 58028;
0251763930999992010020606004+25733-100300FM-12+051599999V0201201N001012200019N0020001N1+01721+00841101461ADDAY141061AY201061GA1001+999999999GF100991001001999999001001GJ105709IA1019KA1240M+02751KA2240N+01101MA1999999095821MD1210131+0381MW1051REMSYN106AAXX  06061 76393 31920 01201 10172 20084 39582 40146 52013 70540 90550 333 10275 20110 30/// 55095 58038;
0199763930999992010020609004+25733-100300FM-12+051599999V0202201N001012200019N0020001N1+01341+00831101421ADDAY141031AY201031GA1001+999999999GF100991001001999999001001IA1019MA1999999095721MD1610101+0331MW1051REMSYN088AAXX  06091 76393 31920 02201 10134 20083 39572 40142 56010 70540 90855 333 30/// 58033;
0273763930999992010020612004+25733-100300FM-12+051599999V0202201N001012200019N0020001N1+01261+00741101421ADDAA124000091AY141061AY201061GA1001+999999999GF100991001001999999001001IA1019KA1240M+02751KA2120N+01061MA1999999095661MD1410001+0131MW1051REMSYN106AAXX  06121 76393 31920 02201 10126 20074 39566 40142 54006 70540 91155 333 10275 20106 30094 58013 70000;EQDQ01  00002PRCP24
0199763930999992010020615004+25733-100300FM-12+051599999V0209999C000012200019N0020001N1+01721+00711101721ADDAY141031AY241031GA1001+999999999GF100991001001999999001001IA1019MA1999999095911MD1210251+0091MW1041REMSYN088AAXX  06151 76393 31920 00000 10172 20071 39591 40172 52025 70444 91456 333 30/// 58009;
0237763930999992010020618004+25733-100300FM-12+051599999V0201201N002012200019N0020001N1+02401+00921101661ADDAY141061AY241061GA1001+999999999GF100991001001999999001001IA1019KA1120M+02471KA2240N+01061MA1999999095881MD1710031+0051MW1041REMSYN100AAXX  06181 76393 31920 01202 10240 20092 39588 40166 57003 70444 91750 333 10247 20106 30/// 58005;
0217763930999992010020621004+25733-100300FM-12+051599999V0201201N003012200019N0030001N1+02541+00851101301ADDAY101031AY201031GA1021+060001001GF102991001001999999001011IA1019MA1999999095591MD1710291+0101MW1041REMSYN106AAXX  06211 76393 31930 21203 10254 20085 39559 40130 57029 70400 80001 92040 333 30/// 56006 58010 82070;
0281763930999992010020700004+25733-100300FM-12+051599999V0201201N003019999999N0060001N1+02401+01011101201ADDAA124000091AY111061AY211061GF105991001001999999001021IA1019KA1120M+02661KA2180N+01061MA1999999095561MD1110031+0071MW1041REMSYN130AAXX  07001 76393 31956 51203 10240 20101 39556 40120 51003 70411 85002 92340 333 10266 20106 30/// 50061 56006 58007 70000 85070;EQDQ01+000052SCOTLC
0217763930999992010020703004+25733-100300FM-12+051599999V0200701N002012200019N0020001N1+02041+01041101321ADDAY141031AY201031GA1031+012301061GF103991031051012501001001IA1019MA1999999095701MD1210141+0011MW1051REMSYN106AAXX  07031 76393 31620 30702 10204 20104 39570 40132 52014 70540 83500 90250 333 30/// 56399 58001 83641;
0253763930999992010020706004+25733-100300FM-12+051599999V0201101N003012200019N0020001N1+01721+01151101321ADDAY141061AY201061GF102991021041008001001001GJ105589IA1019KA1240M+02661KA2240N+01261MA1999999095681MD1210021-0141MW1051REMSYN124AAXX  07061 76393 31520 21103 10172 20115 39568 40132 52002 70540 82400 90550 333 10266 20126 30/// 55093 56399 59014 82623;
0217763930999992010020709004+25733-100300FM-12+051599999V0200501N001012200019N0020001N1+01381+01181101161ADDAY141031AY201031GA1021+002101061GF102991021051001501001001IA1019MA1999999095471MD1710211-0251MW1051REMSYN106AAXX  07091 76393 31220 20501 10138 20118 39547 40116 57021 70540 82500 90855 333 30/// 56300 59025 82607;
0272763930999992010020712004+25733-100300FM-12+051599999V0200201N001010018019N0010001N1+01341+01171101131ADDAA124000091AY141061AY201061GA1081+001801061GF108991081051001501999999IA1019KA1240M+02661KA2120N+01341MA1999999095391MD1410001-0271MW1051REMSYN124AAXX  07121 76393 31210 80201 10134 20117 39539 40113 54008 70540 885// 91155 333 10266 20134 30122 56399 59027 70000 88606;
0217763930999992010020715004+25733-100300FM-12+051599999V0200501N001010039019N0020001N1+01381+01071101321ADDAY141031AY211031GA1051+003901061GF105991051051004501001001IA1019MA1999999095541MD1210151-0371MW1041REMSYN106AAXX  07151 76393 31420 50501 10138 20107 39554 40132 52015 70441 85500 91450 333 30/// 56500 59037 85613;
0220763930999992010020721004+25733-100300FM-12+051599999V0201101N002010075019N0030001N1+01961+01211100891ADDAY141031AY241031GA1071+007501061GF107991071051008001999999IA1019MA1999999095141MD1710341-0451MW1041REMSYN109AAXX  07211 76393 31530 71102 10196 20121 39514 40089 57034 70444 875// 92055 333 30/// 567// 59045 87625/3D;
0265763930999992010020800004+25733-100300FM-12+051599999V0201201N002012200019N0030001N1+01931+01301100701ADDAA124000091AY141061AY241061GF105991031011008001001011IA1019KA1120M+02161KA2180N+01301MA1999999094981MD1710161-0581MW1041REMSYN133AAXX  08001 76393 31530 51202 10193 20130 39498 40070 57016 70444 83101 92350 333 10216 20130 30/// 50291 56405 59058 70000 83821/3D;
0253763930999992010020806004+25733-100300FM-12+051599999V0200601N002010042019N0020001N1+01741+01491100661ADDAY141061AY211061GF105991051041004501001001GJ102769IA1019KA1240M+02161KA2240N+01301MA1999999094991MD1710081-0691MW1051REMSYN124AAXX  08061 76393 31420 50602 10174 20149 39499 40066 57008 70541 85400 90550 333 10216 20130 30/// 55046 56399 59069 85610;
0217763930999992010020809004+25733-100300FM-12+051599999V0201101N001010024019N0020001N1+01581+01351100521ADDAY141031AY211031GA1071+002401061GF107991071051002501999999IA1019MA1999999094841MD1610151-0631MW1051REMSYN106AAXX  08091 76393 31320 71101 10158 20135 39484 40052 56015 70541 875// 90855 333 30/// 56399 59063 87608;
0272763930999992010020812004+25733-100300FM-12+051599999V0209999C000010024019N0020001N1+01521+01291100441ADDAA124000091AY141061AY221061GA1081+002401061GF108991081051002501999999IA1019KA1240M+02161KA2120N+01481MA1999999094751MD1410001-0641MW1051REMSYN124AAXX  08121 76393 31320 80000 10152 20129 39475 40044 54009 70542 885// 91155 333 10216 20148 30134 56399 59064 70000 88608;
0171763930999992010020821004+25733-100300FM-12+051599999V0201401N001012200019N0030001N1+02841+01021100351ADDGA1001+999999999GF100991001001999999001001IA1019MA1999999094711MD1710241-0431REMSYN082AAXX  08211 76393 32930 01401 10284 20102 39471 40035 57024 92050 333 30/// 59043;
0234763930999992010020900004+25733-100300FM-12+051599999V0201301N002012200019N0040001N1+02541+01311100401ADDAA124000091GF102991021051017501001001IA1019KA1120M+02941KA2180N+01441MA1999999094821MD1210111-0161REMSYN124AAXX  09001 76393 32740 21302 10254 20131 39482 40040 52011 82500 92350 333 10294 20144 30/// 50381 56600 59016 70000 82615;
0217763930999992010020903004+25733-100300FM-12+051599999V0200201N003010126019N0030001N1+02101+01071100861ADDAY141031AY211031GA1061+012601061GF106991061051012501999999IA1019MA1999999095281MD1210361+0211MW1051REMSYN106AAXX  09031 76393 31630 60203 10210 20107 39528 40086 52036 70541 865// 90250 333 30/// 56399 58021 86642;
0253763930999992010020906004+25733-100300FM-12+051599999V0200701N004010120019N0030001N1+01901+00981101211ADDAY141061AY221061GF108991081041012501999999GJ105589IA1019KA1240M+02941KA2240N+01441MA1999999095601MD1210321+0611MW1051REMSYN124AAXX  09061 76393 31630 80704 10190 20098 39560 40121 52032 70542 884// 90550 333 10294 20144 30/// 55093 563// 58061 88638;
0217763930999992010020909004+25733-100300FM-12+051599999V0203601N004010090019N0030001N1+01501+00601101411ADDAY141031AY221031GA1081+009001061GF108991081051008001999999IA1019MA1999999095731MD1310131+0891MW1051REMSYN106AAXX  09091 76393 31530 83604 10150 20060 39573 40141 53013 70542 885// 90855 333 30/// 56399 58089 88630;
0272763930999992010020912004+25733-100300FM-12+051599999V0200501N003010057019N0030001N1+01141+00561101731ADDAA124000091AY141061AY221061GA1081+005701061GF108991081051004501999999IA1019KA1240M+02941KA2120N+01101MA1999999095971MD1210241+1221MW1051REMSYN124AAXX  09121 76393 31430 80503 10114 20056 39597 40173 52024 70542 885// 91155 333 10294 20110 30108 56399 58122 70000 88619;
0217763930999992010020915004+25733-100300FM-12+051599999V0203601N003010075019N0050001N1+01001+00391102251ADDAY121031AY221031GA1081+007501061GF108991081051008001999999IA1019MA1999999096401MD1210431+1501MW1041REMSYN106AAXX  09151 76393 31550 83603 10100 20039 39640 40225 52043 70422 885// 91440 333 30/// 563// 58150 88625;
0255763930999992010020918004+25733-100300FM-12+051599999V0203601N002010081019N0040001N1+01101+00441102501ADDAY121061AY221061GA1081+008101061GF108991081051008001999999IA1019KA1120M+01121KA2240N+01021MA1999999096591MD1210191+1641MW1041REMSYN118AAXX  09181 76393 31540 83602 10110 20044 39659 40250 52019 70422 885// 91740 333 10112 20102 30/// 563// 58164 88627;
0189763930999992010020921004+25733-100300FM-12+051599999V0203601N001010129019N0040001N1+01421+00361102261ADDGA1061+012901061GF106991061051012501001001IA1019MA1999999096361MD1710231+1651REMSYN100AAXX  09211 76393 32640 63601 10142 20036 39636 40226 57023 86500 92050 333 30/// 563// 58165 86643;
0217763930999992010021009004+25733-100300FM-12+051599999V0200901N003010066019N0080001N1+00801+00151102231ADDAY141031AY221031GA1081+006601061GF108991081051008001999999IA1019MA1999999096321MD1610161+0591MW1051REMSYN106AAXX  10091 76393 31558 80903 10080 20015 39632 40223 56016 70542 885// 90855 333 30/// 56399 58059 88622;
0272763930999992010021012004+25733-100300FM-12+051599999V0201101N002010042019N0080001N1+00721+00301102201ADDAA124000091AY141061AY221061GA1081+004201061GF108991081051004501999999IA1019KA1240M+01641KA2120N+00701MA1999999096261MD1410001+0291MW1051REMSYN124AAXX  10121 76393 31458 81102 10072 20030 39626 40220 54006 70542 885// 91155 333 10164 20070 30068 56399 58029 70000 88614;
0217763930999992010021015004+25733-100300FM-12+051599999V0200901N001010066019N0020001N1+00741+00221102441ADDAY121031AY221031GA1081+006601061GF108991081051008001999999IA1019MA1999999096461MD1210201+0061MW1041REMSYN106AAXX  10151 76393 31520 80901 10074 20022 39646 40244 52020 70422 885// 91440 333 30/// 563// 58006 88622;
0217763930999992010021021004+25733-100300FM-12+051599999V0201301N001010054019N0020001N1+00861+00411102171ADDAY141031AY221031GA1081+005401061GF108991081051004501999999IA1019MA1999999096191MD1710341-0171MW1051REMSYN106AAXX  10211 76393 31420 81301 10086 20041 39619 40217 57034 70542 885// 92050 333 30/// 563// 59017 88618;
0234763930999992010021100004+25733-100300FM-12+051599999V0201301N002010075019N0020001N1+00881+00391102031ADDAA124000091GF108991081051008001999999IA1019KA1120M+00981KA2180N+00701MA1999999096071MD1710121-0241REMSYN124AAXX  11001 76393 32520 81302 10088 20039 39607 40203 57012 885// 92350 333 10098 20070 30/// 50221 563// 59024 70000 88620;
0217763930999992010021103004+25733-100300FM-12+051599999V0201201N001010045019N0030001N1+00841+00481102111ADDAY141031AY221031GA1081+004501061GF108991081051004501999999IA1019MA1999999096151MD1210081-0331MW1051REMSYN106AAXX  11031 76393 31430 81201 10084 20048 39615 40211 52008 70542 885// 90250 333 30/// 563// 59033 88615;
0253763930999992010021106004+25733-100300FM-12+051599999V0200901N001010021019N0020001N1+00741+00541101861ADDAY141061AY221061GF108991081051002501999999GJ100009IA1019KA1240M+00981KA2240N+00701MA1999999095911MD1710241-0571MW1051REMSYN124AAXX  11061 76393 31320 80901 10074 20054 39591 40186 57024 70542 885// 90550 333 10098 20070 30/// 55000 563// 59057 88605;
0217763930999992010021109004+25733-100300FM-12+051599999V0209999C000010015019N0020001N1+00761+00601101621ADDAY141031AY241031GA1081+001501061GF108991081051001501999999IA1019MA1999999095681MD1710231-0641MW1051REMSYN106AAXX  11091 76393 31220 80000 10076 20060 39568 40162 57023 70544 885// 90850 333 30/// 563// 59064 88605;
0240763930999992010021121004+25733-100300FM-12+051599999V0200501N001010900019N0020001N1+01701+00811100681ADDAA103000991AY121031AY221031GA1011+003301081GF105991011021012501011011IA1019MA1999999094871MD1710421-1321MW1041REMSYN118AAXX  11211 76393 21620 50501 10170 20081 39487 40068 57042 70422 81211 92050 333 30/// 56555 59132 69997 81811 83411;
0273763930999992010021206004+25733-100300FM-12+051599999V0201301N002012200019N0020001N1+01301+00581101491ADDAA106000091AY141061AY201061GA1001+999999999GF100991001001999999001001IA1019KA1240M+01801KA2240N+00701MA1999999095691MD1210161-0221MW1051REMSYN106AAXX  12061 76393 11920 01302 10130 20058 39569 40149 52016 69911 70540 90550 333 10180 20070 30/// 59022;EQDQ01  00002PRCP06
0199763930999992010021209004+25733-100300FM-12+051599999V0201901N001012200019N0030001N1+00921+00301101491ADDAY141031AY201031GA1001+999999999GF100991001001999999001001IA1019MA1999999095671MD1410001-0071MW1051REMSYN088AAXX  12091 76393 31930 01901 10092 20030 39567 40149 54002 70540 90855 333 30/// 59007;
0273763930999992010021212004+25733-100300FM-12+051599999V0203601N001012200019N0020001N1+00921-00011101601ADDAA124000091AY141061AY201061GA1001+999999999GF100991001001999999001001IA1019KA1240M+01881KA2120N+00861MA1999999095731MD1410001+0371MW1051REMSYN106AAXX  12121 76393 31920 03601 10092 21001 39573 40160 54006 70540 91155 333 10188 20086 30052 58037 70000;EQDQ01  00002PRCP24
0199763930999992010021215004+25733-100300FM-12+051599999V0209999C000012200019N0060001N1+01361+00371101921ADDAY101031AY201031GA1001+999999999GF100991001001999999001001IA1019MA1999999096031MD1210301+0671MW1041REMSYN088AAXX  12151 76393 31956 00000 10136 20037 39603 40192 52030 70400 91440 333 30/// 58067;
0237763930999992010021218004+25733-100300FM-12+051599999V0200901N003012200019N0030001N1+01721+00421101961ADDAY101061AY201061GA1001+999999999GF100991001001999999001001IA1019KA1120M+01841KA2240N+00701MA1999999096071MD1010041+0781MW1041REMSYN100AAXX  12181 76393 31930 00903 10172 20042 39607 40196 50004 70400 91740 333 10184 20070 30/// 58078;
0199763930999992010021221004+25733-100300FM-12+051599999V0201401N002012200019N0040001N1+02021+00701101561ADDAY101031AY201031GA1001+999999999GF100991001001999999001001IA1019MA1999999095751MD1710321+0881MW1041REMSYN088AAXX  12211 76393 31940 01402 10202 20070 39575 40156 57032 70400 92050 333 30/// 58088;
0251763930999992010021300004+25733-100300FM-12+051599999V0201301N005012200019N0040001N1+01561+01101101651ADDAA124000091GA1001+999999999GF100991001001999999001001IA1019KA1120M+02181KA2180N+00861MA1999999095871MD1210121+0621REMSYN106AAXX  13001 76393 32940 01305 10156 20110 39587 40165 52012 92350 333 10218 20086 30/// 50231 58062 70001;EQDQ01  00002PRCP24
0199763930999992010021303004+25733-100300FM-12+051599999V0203201N001012200019N0030001N1+01221+00661101871ADDAY141031AY201031GA1001+999999999GF100991001001999999001001IA1019MA1999999096091MD1210221+0561MW1051REMSYN088AAXX  13031 76393 31930 03201 10122 20066 39609 40187 52022 70540 90250 333 30/// 58056;
0251763930999992010021306004+25733-100300FM-12+051599999V0202501N001012200019N0020001N1+01101+00761101891ADDAY141061AY201061GA1001+999999999GF100991001001999999001001GJ105769IA1019KA1240M+02181KA2240N+00861MA1999999096081MD1710011+0391MW1051REMSYN106AAXX  13061 76393 31920 02501 10110 20076 39608 40189 57001 70540 90550 333 10218 20086 30/// 55096 58039;
0199763930999992010021309004+25733-100300FM-12+051599999V0200901N001012200019N0040001N1+00861+00541101811ADDAY141031AY201031GA1001+999999999GF100991001001999999001001IA1019MA1999999095961MD1610121+0291MW1051REMSYN088AAXX  13091 76393 31940 00901 10086 20054 39596 40181 56012 70540 90855 333 30/// 58029;
0273763930999992010021312004+25733-100300FM-12+051599999V0200901N001012200019N0020001N1+00701+00541101841ADDAA124000091AY141061AY201061GA1001+999999999GF100991001001999999001001IA1019KA1240M+02181KA2120N+00681MA1999999095941MD1410001+0211MW1051REMSYN106AAXX  13121 76393 31920 00901 10070 20054 39594 40184 54002 70540 91155 333 10218 20068 30054 58021 70000;EQDQ01  00002PRCP24
