0207010010999992008010100004+70933-008667FM-12+0009ENJA V0202001N008010075019N0090001N1+00141-00121100861ADDAA106000091AY161061AY211061GF105991051051008001001001MA1999999100751MD1110091+9999MW1021REMSYN088AAXX  01001 01001 11559 52008 10014 21012 30075 40086 51009 69901 70261 85500 333 91114;EQDQ01  00002PRCP06
0101010010999992008010101004+70933-008667FM-12+0009ENJA V0202001N008019999999N9999999N1+00161-00081100861ADDMA1999999100741MD1010051+9999REMSYN060AAXX  01011 01001 46/// /2008 10016 21008 30074 40086 50005;
0101010010999992008010102004+70933-008667FM-12+0009ENJA V0202101N009019999999N9999999N1+00161-00041100871ADDMA1999999100751MD1510001+9999REMSYN060AAXX  01021 01001 46/// /2109 10016 21004 30075 40087 55000;
0101010010999992008010103004+70933-008667FM-12+0009ENJA V0202001N009019999999N9999999N1+00191-00011100891ADDMA1999999100771MD1310021+9999REMSYN060AAXX  01031 01001 46/// /2009 10019 21001 30077 40089 53002;
0101010010999992008010104004+70933-008667FM-12+0009ENJA V0202001N008019999999N9999999N1+00151+00001100911ADDMA1999999100791MD1310051+9999REMSYN060AAXX  01041 01001 46/// /2008 10015 20000 30079 40091 53005;
0101010010999992008010105004+70933-008667FM-12+0009ENJA V0202001N007019999999N9999999N1+00161+00011100901ADDMA1999999100781MD1010031+9999REMSYN060AAXX  01051 01001 46/// /2007 10016 20001 30078 40090 50003;
0215010010999992008010106004+70933-008667FM-12+0009ENJA V0201801N009010042019N0120001N1+00181+00021100821ADDAA112000091AA224002891GF108991081061004501001001KA1120N+00081MA1999999100701MD1810071+9999REMSYN094AAXX  01061 01001 12462 81809 10018 20002 30070 40082 58007 69902 88600 333 20008 70029 91112;EQDQ01  00002PRCP12
0101010010999992008010107004+70933-008667FM-12+0009ENJA V0201701N013019999999N9999999N1+00221+00021100771ADDMA1999999100661MD1810141+9999REMSYN060AAXX  01071 01001 46/// /1713 10022 20002 30066 40077 58014;
0101010010999992008010108004+70933-008667FM-12+0009ENJA V0201701N013019999999N9999999N1+00231+00041100691ADDMA1999999100581MD1610201+9999REMSYN060AAXX  01081 01001 46/// /1713 10023 20004 30058 40069 56020;
0161010010999992008010109004+70933-008667FM-12+0009ENJA V0201701N014010075019N0160001N1+00261+00061100681ADDAY121031AY221031GF108991061051008001021999MA1999999100561MD1610141+9999MW1601REMSYN072AAXX  01091 01001 41566 81714 10026 20006 30056 40068 56014 76022 8652/;
0101010010999992008010110004+70933-008667FM-12+0009ENJA V0201701N014019999999N9999999N1+00261+00051100651ADDMA1999999100541MD1610121+9999REMSYN060AAXX  01101 01001 46/// /1714 10026 20005 30054 40065 56012;
0101010010999992008010111004+70933-008667FM-12+0009ENJA V0201701N013019999999N9999999N1+00251+00031100601ADDMA1999999100481MD1810101+9999REMSYN060AAXX  01111 01001 46/// /1713 10025 20003 30048 40060 58010;
0208010010999992008010112004+70933-008667FM-12+0009ENJA V0201701N013010240019N0090001N1+00251+00031100531ADDAA106000021AY161061AY221061GF108991021061002501071999MA1999999100411MD1810151+9999MW1101SA1+0059REMSYN100AAXX  01121 01001 11359 81713 10025 20003 30041 40053 58015 60001 71062 8267/ 222// 00005 333 91120;
0101010010999992008010113004+70933-008667FM-12+0009ENJA V0201701N013019999999N9999999N1+00241+00011100451ADDMA1999999100331MD1810201+9999REMSYN060AAXX  01131 01001 46/// /1713 10024 20001 30033 40045 58020;
0101010010999992008010114004+70933-008667FM-12+0009ENJA V0201601N014019999999N9999999N1+00231+00041100391ADDMA1999999100271MD1610211+9999REMSYN060AAXX  01141 01001 46/// /1614 10023 20004 30027 40039 56021;
0161010010999992008010115004+70933-008667FM-12+0009ENJA V0201601N014010240019N0080001N1+00241+00061100321ADDAY121031AY221031GF108991031061002501071999MA1999999100201MD1610211+9999MW1101REMSYN072AAXX  01151 01001 41358 81614 10024 20006 30020 40032 56021 71022 8367/;
0101010010999992008010116004+70933-008667FM-12+0009ENJA V0201701N013019999999N9999999N1+00231+00061100231ADDMA1999999100111MD1810221+9999REMSYN060AAXX  01161 01001 46/// /1713 10023 20006 30011 40023 58022;
0101010010999992008010117004+70933-008667FM-12+0009ENJA V0201601N014019999999N9999999N1+00251+00071100141ADDMA1999999100031MD1810241+9999REMSYN060AAXX  01171 01001 46/// /1614 10025 20007 30003 40014 58024;
0207010010999992008010118004+70933-008667FM-12+0009ENJA V0201601N015010240019N0060001N1+00251+00071100061ADDAA112000021AY121061AY221061GF108991031061002501071999KA1120M+00271MA1999999099941MD1710261+9999MW1101REMSYN094AAXX  01181 01001 11356 81615 10025 20007 39994 40006 57026 60002 71022 8367/ 333 10027 91120;
0101010010999992008010119004+70933-008667FM-12+0009ENJA V0201701N013019999999N9999999N1+00241+00091100021ADDMA1999999099911MD1610211+9999REMSYN060AAXX  01191 01001 46/// /1713 10024 20009 39991 40002 56021;
0101010010999992008010120004+70933-008667FM-12+0009ENJA V0201801N013019999999N9999999N1+00251+00121099981ADDMA1999999099861MD1610171+9999REMSYN060AAXX  01201 01001 46/// /1813 10025 20012 39986 49998 56017;
0101010010999992008010121004+70933-008667FM-12+0009ENJA V0201801N014019999999N9999999N1+00271+00131099921ADDMA1999999099801MD1810141+9999REMSYN060AAXX  01211 01001 46/// /1814 10027 20013 39980 49992 58014;
0101010010999992008010122004+70933-008667FM-12+0009ENJA V0201801N013019999999N9999999N1+00251+00131099871ADDMA1999999099751MD1810151+9999REMSYN060AAXX  01221 01001 46/// /1813 10025 20013 39975 49987 58015;
0101010010999992008010123004+70933-008667FM-12+0009ENJA V0201901N013019999999N9999999N1+00241+00151099841ADDMA1999999099721MD1610141+9999REMSYN060AAXX  01231 01001 46/// /1913 10024 20015 39972 49984 56014;
0188010010999992008010200004+70933-008667FM-12+0009ENJA V0201901N012010240019N0026001N1+00211+00121099861ADDAA106000021AY161061AY221061GF108991031061001501071999MA1999999099741MD1510061+9999MW1601REMSYN088AAXX  02001 01001 11226 81912 10021 20012 39974 49986 55006 69921 76062 8367/ 333 91119;
0101010010999992008010201004+70933-008667FM-12+0009ENJA V0202701N009019999999N9999999N1+00161-00091099961ADDMA1999999099851MD1310091+9999REMSYN060AAXX  02011 01001 46/// /2709 10016 21009 39985 49996 53009;
0101010010999992008010202004+70933-008667FM-12+0009ENJA V0201601N004019999999N9999999N1+00101-00121100091ADDMA1999999099971MD1310251+9999REMSYN060AAXX  02021 01001 46/// /1604 10010 21012 39997 40009 53025;
0101010010999992008010203004+70933-008667FM-12+0009ENJA V0201801N005019999999N9999999N1+00061-00071100201ADDMA1999999100081MD1310341+9999REMSYN060AAXX  02031 01001 46/// /1805 10006 21007 30008 40020 53034;
0101010010999992008010204004+70933-008667FM-12+0009ENJA V0202001N005019999999N9999999N1+00071-00041100311ADDMA1999999100201MD1110361+9999REMSYN060AAXX  02041 01001 46/// /2005 10007 21004 30020 40031 51036;
0101010010999992008010205004+70933-008667FM-12+0009ENJA V0201901N006019999999N9999999N1+00101-00031100371ADDMA1999999100261MD1110291+9999REMSYN060AAXX  02051 01001 46/// /1906 10010 21003 30026 40037 51029;
0224010010999992008010206004+70933-008667FM-12+0009ENJA V0202101N005010240019N0100001N1+00131-00101100411ADDAA112001091AA224001591AY161061AY221061GF105991031081004501071001KA1120N+00051MA1999999100291MD1110211+9999MW1011REMSYN100AAXX  02061 01001 11460 52105 10013 21010 30029 40041 51021 60012 70162 83870 333 20005 70014 91114;
0101010010999992008010207004+70933-008667FM-12+0009ENJA V0201901N006019999999N9999999N1+00131-00101100471ADDMA1999999100351MD1210151+9999REMSYN060AAXX  02071 01001 46/// /1906 10013 21010 30035 40047 52015;
0101010010999992008010208004+70933-008667FM-12+0009ENJA V0202001N005019999999N9999999N1+00141-00131100561ADDMA1999999100451MD1310181+9999REMSYN060AAXX  02081 01001 46/// /2005 10014 21013 30045 40056 53018;
0133010010999992008010209004+70933-008667FM-12+0009ENJA V0202101N006012200019N0200001N1+00151-00151100631ADDGF103991021051004501041001MA1999999100511MD1310221+9999REMSYN066AAXX  02091 01001 42470 32106 10015 21015 30051 40063 53022 82540;
0101010010999992008010210004+70933-008667FM-12+0009ENJA V0202001N005019999999N9999999N1+00111-00171100721ADDMA1999999100601MD1210251+9999REMSYN060AAXX  02101 01001 46/// /2005 10011 21017 30060 40072 52025;
0101010010999992008010211004+70933-008667FM-12+0009ENJA V0202101N005019999999N9999999N1+00111-00171100811ADDMA1999999100691MD1310251+9999REMSYN060AAXX  02111 01001 46/// /2105 10011 21017 30069 40081 53025;
0219010010999992008010212004+70933-008667FM-12+0009ENJA V0202201N004012200019N0080001N1+00091-00221100871ADDAA106000091AY101061AY201061GF102991011011004501001051MA1999999100761MD1110241+9999MW1101REMSYN100AAXX  02121 01001 11458 22204 10009 21022 30076 40087 51024 60001 71000 81105 222// 00006 333 91109;EQDQ01  00002PRCP06
0101010010999992008010213004+70933-008667FM-12+0009ENJA V0202101N007019999999N9999999N1+00101-00191100921ADDMA1999999100801MD1110201+9999REMSYN060AAXX  02131 01001 46/// /2107 10010 21019 30080 40092 51020;
0101010010999992008010214004+70933-008667FM-12+0009ENJA V0202301N003019999999N9999999N1+00071-00231100971ADDMA1999999100851MD1110161+9999REMSYN060AAXX  02141 01001 46/// /2303 10007 21023 30085 40097 51016;
0161010010999992008010215004+70933-008667FM-12+0009ENJA V0202101N006012200019N0060001N1+00071-00191101051ADDAY101031AY201031GF103991021061001501001041MA1999999100931MD1310181+9999MW1101REMSYN072AAXX  02151 01001 41256 32106 10007 21019 30093 40105 53018 71000 82604;
0101010010999992008010216004+70933-008667FM-12+0009ENJA V0202001N006019999999N9999999N1+00091-00131101131ADDMA1999999101011MD1310211+9999REMSYN060AAXX  02161 01001 46/// /2006 10009 21013 30101 40113 53021;
0101010010999992008010217004+70933-008667FM-12+0009ENJA V0202101N004019999999N9999999N1+00071-00171101181ADDMA1999999101061MD1110211+9999REMSYN060AAXX  02171 01001 46/// /2104 10007 21017 30106 40118 51021;
0226010010999992008010218004+70933-008667FM-12+0009ENJA V0202001N006010021019N0080001N1+00091-00151101231ADDAA112000091AY121061AY201061GF107991071061002501999999KA1120M+00151MA1999999101111MD1110181+9999MW1101REMSYN094AAXX  02181 01001 11358 72006 10009 21015 30111 40123 51018 60002 71020 876// 333 10015 91109;EQDQ01  00002PRCP12
0101010010999992008010219004+70933-008667FM-12+0009ENJA V0202001N004019999999N9999999N1+00051-00211101301ADDMA1999999101191MD1310171+9999REMSYN060AAXX  02191 01001 46/// /2004 10005 21021 30119 40130 53017;
0101010010999992008010220004+70933-008667FM-12+0009ENJA V0202401N001019999999N9999999N1-00031-00271101371ADDMA1999999101251MD1310191+9999REMSYN060AAXX  02201 01001 46/// /2401 11003 21027 30125 40137 53019;
0101010010999992008010221004+70933-008667FM-12+0009ENJA V0203001N001019999999N9999999N1-00141-00361101401ADDMA1999999101281MD1110171+9999REMSYN060AAXX  02211 01001 46/// /3001 11014 21036 30128 40140 51017;
0101010010999992008010222004+70933-008667FM-12+0009ENJA V0202601N001019999999N9999999N1-00161-00321101441ADDMA1999999101321MD1110131+9999REMSYN060AAXX  02221 01001 46/// /2601 11016 21032 30132 40144 51013;
0101010010999992008010223004+70933-008667FM-12+0009ENJA V0201801N002019999999N9999999N1-00021-00151101441ADDMA1999999101321MD1110071+9999REMSYN060AAXX  02231 01001 46/// /1802 11002 21015 30132 40144 51007;
0207010010999992008010300004+70933-008667FM-12+0009ENJA V0201901N003010012019N0050001N1+00081-00061101471ADDAA106000091AY121061AY221061GF108991081061001501999999MA1999999101351MD1210071+9999MW1101REMSYN088AAXX  03001 01001 11250 81903 10008 21006 30135 40147 52007 60001 71022 886// 333 91107;EQDQ01  00002PRCP06
0101010010999992008010301004+70933-008667FM-12+0009ENJA V0202001N003019999999N9999999N1+00071-00051101471ADDMA1999999101361MD1110041+9999REMSYN060AAXX  03011 01001 46/// /2003 10007 21005 30136 40147 51004;
0101010010999992008010302004+70933-008667FM-12+0009ENJA V0201901N002019999999N9999999N1+00061-00051101511ADDMA1999999101391MD1310071+9999REMSYN060AAXX  03021 01001 46/// /1902 10006 21005 30139 40151 53007;
0101010010999992008010303004+70933-008667FM-12+0009ENJA V0201701N002019999999N9999999N1+00101-00021101491ADDMA1999999101371MD1010021+9999REMSYN060AAXX  03031 01001 46/// /1702 10010 21002 30137 40149 50002;
0101010010999992008010304004+70933-008667FM-12+0009ENJA V0201901N002019999999N9999999N1+00121+00021101531ADDMA1999999101411MD1210061+9999REMSYN060AAXX  03041 01001 46/// /1902 10012 20002 30141 40153 52006;
0101010010999992008010305004+70933-008667FM-12+0009ENJA V0201801N001019999999N9999999N1+00101-00011101561ADDMA1999999101441MD1310051+9999REMSYN060AAXX  03051 01001 46/// /1801 10010 21001 30144 40156 53005;
0234010010999992008010306004+70933-008667FM-12+0009ENJA V0201801N005010006019N0008001N1+00201+00111101571ADDAA112008992AA224008692AY161061AY241061GA1091+999999999GF109991091999999999999999KA1120N-00181MA1999999101451MD1110081+9999MW1631REMSYN094AAXX  03061 01001 11/08 91805 10020 20011 30145 40157 51008 60092 76364 333 21018 70087 91107;
0101010010999992008010307004+70933-008667FM-12+0009ENJA V0201901N005019999999N9999999N1+00211+00121101611ADDMA1999999101491MD1310081+9999REMSYN060AAXX  03071 01001 46/// /1905 10021 20012 30149 40161 53008;
0101010010999992008010308004+70933-008667FM-12+0009ENJA V0201801N005019999999N9999999N1+00201+00101101661ADDMA1999999101541MD1310101+9999REMSYN060AAXX  03081 01001 46/// /1805 10020 20010 30154 40166 53010;
0171010010999992008010309004+70933-008667FM-12+0009ENJA V0201901N006010003019N0005001N1+00201+00111101691ADDAY161031AY241031GA1091+999999999GF109991091999999999999999MA1999999101571MD1110121+9999MW1451REMSYN066AAXX  03091 01001 41/05 91906 10020 20011 30157 40169 51012 74564;
0101010010999992008010310004+70933-008667FM-12+0009ENJA V0202001N007019999999N9999999N1+00201+00121101721ADDMA1999999101611MD1110111+9999REMSYN060AAXX  03101 01001 46/// /2007 10020 20012 30161 40172 51011;
0101010010999992008010311004+70933-008667FM-12+0009ENJA V0202101N007019999999N9999999N1+00201+00121101761ADDMA1999999101641MD1310101+9999REMSYN060AAXX  03111 01001 46/// /2107 10020 20012 30164 40176 53010;
0208010010999992008010312004+70933-008667FM-12+0009ENJA V0202101N008010012019N0012001N1+00231+00151101791ADDAA106004191AY161061AY241061GF108991081061001501999999MA1999999101671MD1210101+9999MW1281SA1+0059REMSYN100AAXX  03121 01001 11212 82108 10023 20015 30167 40179 52010 60041 72864 886// 222// 00005 333 91111;
0101010010999992008010313004+70933-008667FM-12+0009ENJA V0202101N008019999999N9999999N1+00241+00121101841ADDMA1999999101721MD1310121+9999REMSYN060AAXX  03131 01001 46/// /2108 10024 20012 30172 40184 53012;
0101010010999992008010314004+70933-008667FM-12+0009ENJA V0202001N007019999999N9999999N1+00221+00071101881ADDMA1999999101761MD1310121+9999REMSYN060AAXX  03141 01001 46/// /2007 10022 20007 30176 40188 53012;
0161010010999992008010315004+70933-008667FM-12+0009ENJA V0202001N008010021019N0030001N1+00201+00051101891ADDAY121031AY221031GF107991071061002501999999MA1999999101771MD1110101+9999MW1101REMSYN072AAXX  03151 01001 41330 72008 10020 20005 30177 40189 51010 71022 876//;
0101010010999992008010316004+70933-008667FM-12+0009ENJA V0201901N008019999999N9999999N1+00171+00021101921ADDMA1999999101801MD1110081+9999REMSYN060AAXX  03161 01001 46/// /1908 10017 20002 30180 40192 51008;
0101010010999992008010317004+70933-008667FM-12+0009ENJA V0202001N008019999999N9999999N1+00171+00021101921ADDMA1999999101801MD1110041+9999REMSYN060AAXX  03171 01001 46/// /2008 10017 20002 30180 40192 51004;
0207010010999992008010318004+70933-008667FM-12+0009ENJA V0202001N008010021019N0050001N1+00171+00031101961ADDAA112004191AY121061AY221061GF108991081061002501999999KA1120M+00261MA1999999101841MD1310071+9999MW1101REMSYN094AAXX  03181 01001 11350 82008 10017 20003 30184 40196 53007 60042 71022 886// 333 10026 91112;
0101010010999992008010319004+70933-008667FM-12+0009ENJA V0201801N010019999999N9999999N1+00181+00031101951ADDMA1999999101831MD1010031+9999REMSYN060AAXX  03191 01001 46/// /1810 10018 20003 30183 40195 50003;
0101010010999992008010320004+70933-008667FM-12+0009ENJA V0201701N010019999999N9999999N1+00181+00041101971ADDMA1999999101861MD1110051+9999REMSYN060AAXX  03201 01001 46/// /1710 10018 20004 30186 40197 51005;
0101010010999992008010321004+70933-008667FM-12+0009ENJA V0201701N010019999999N9999999N1+00171+00031102001ADDMA1999999101881MD1310041+9999REMSYN060AAXX  03211 01001 46/// /1710 10017 20003 30188 40200 53004;
0101010010999992008010322004+70933-008667FM-12+0009ENJA V0201601N009019999999N9999999N1+00161+00021102001ADDMA1999999101881MD1010041+9999REMSYN060AAXX  03221 01001 46/// /1609 10016 20002 30188 40200 50004;
0101010010999992008010323004+70933-008667FM-12+0009ENJA V0201501N009019999999N9999999N1+00161+00021101961ADDMA1999999101841MD1810011+9999REMSYN060AAXX  03231 01001 46/// /1509 10016 20002 30184 40196 58001;
0207010010999992008010400004+70933-008667FM-12+0009ENJA V0201601N010012200019N0060001N1+00171+00021101931ADDAA106000091AY121061AY201061GF104991041061002501001001MA1999999101811MD1810071+9999MW1101REMSYN088AAXX  04001 01001 11356 41610 10017 20002 30181 40193 58007 60001 71020 84600 333 91113;EQDQ01  00002PRCP06
0101010010999992008010401004+70933-008667FM-12+0009ENJA V0201601N008019999999N9999999N1+00161+00001101911ADDMA1999999101791MD1610081+9999REMSYN060AAXX  04011 01001 46/// /1608 10016 21000 30179 40191 56008;
0101010010999992008010402004+70933-008667FM-12+0009ENJA V0201501N008019999999N9999999N1+00151+00001101891ADDMA1999999101771MD1610071+9999REMSYN060AAXX  04021 01001 46/// /1508 10015 20000 30177 40189 56007;
0101010010999992008010403004+70933-008667FM-12+0009ENJA V0201401N008019999999N9999999N1+00161+00031101861ADDMA1999999101741MD1810071+9999REMSYN060AAXX  04031 01001 46/// /1408 10016 20003 30174 40186 58007;
0101010010999992008010404004+70933-008667FM-12+0009ENJA V0201401N007019999999N9999999N1+00161+00041101801ADDMA1999999101681MD1810111+9999REMSYN060AAXX  04041 01001 46/// /1407 10016 20004 30168 40180 58011;
0101010010999992008010405004+70933-008667FM-12+0009ENJA V0201401N008019999999N9999999N1+00161+00041101731ADDMA1999999101611MD1810161+9999REMSYN060AAXX  04051 01001 46/// /1408 10016 20004 30161 40173 58016;
0243010010999992008010406004+70933-008667FM-12+0009ENJA V0201401N008010120019N0080001N1+00161+00031101671ADDAA112000091AA224003691AY121061AY201061GF107991071051012501999999KA1120N+00141MA1999999101551MD1710191+9999MW1101REMSYN100AAXX  04061 01001 11658 71408 10016 20003 30155 40167 57019 60002 71020 875// 333 20014 70035 91111;EQDQ01  00002PRCP12
0101010010999992008010407004+70933-008667FM-12+0009ENJA V0201301N007019999999N9999999N1+00151+00011101611ADDMA1999999101501MD1610191+9999REMSYN060AAXX  04071 01001 46/// /1307 10015 20001 30150 40161 56019;
0101010010999992008010408004+70933-008667FM-12+0009ENJA V0201301N008019999999N9999999N1+00151+00021101591ADDMA1999999101471MD1610141+9999REMSYN060AAXX  04081 01001 46/// /1308 10015 20002 30147 40159 56014;
0161010010999992008010409004+70933-008667FM-12+0009ENJA V0201301N005010240019N0080001N1+00131-00011101561ADDAY121031AY221031GF107991021061004501071999MA1999999101451MD1610111+9999MW1101REMSYN072AAXX  04091 01001 41458 71305 10013 21001 30145 40156 56011 71022 8267/;
0101010010999992008010410004+70933-008667FM-12+0009ENJA V0201801N003019999999N9999999N1+00101-00041101521ADDMA1999999101401MD1810091+9999REMSYN060AAXX  04101 01001 46/// /1803 10010 21004 30140 40152 58009;
0101010010999992008010411004+70933-008667FM-12+0009ENJA V0202601N002019999999N9999999N1+00111-00031101481ADDMA1999999101361MD1810111+9999REMSYN060AAXX  04111 01001 46/// /2602 10011 21003 30136 40148 58011;
0227010010999992008010412004+70933-008667FM-12+0009ENJA V0203501N003010240019N0070001N1+00111-00031101421ADDAA106000091AY121061AY221061GF107991041061002501071999MA1999999101311MD1810141+9999MW1101SA1+0099REMSYN100AAXX  04121 01001 11357 73503 10011 21003 30131 40142 58014 60001 71022 8467/ 222// 00009 333 91110;EQDQ01  00002PRCP06
0101010010999992008010413004+70933-008667FM-12+0009ENJA V0203101N002019999999N9999999N1+00131+00001101391ADDMA1999999101271MD1610131+9999REMSYN060AAXX  04131 01001 46/// /3102 10013 21000 30127 40139 56013;
0101010010999992008010414004+70933-008667FM-12+0009ENJA V0201601N003019999999N9999999N1+00131-00011101371ADDMA1999999101251MD1610111+9999REMSYN060AAXX  04141 01001 46/// /1603 10013 21001 30125 40137 56011;
0161010010999992008010415004+70933-008667FM-12+0009ENJA V0201901N005010240019N0080001N1+00101-00031101311ADDAY171031AY221031GF108991041061004501021999MA1999999101191MD1810111+9999MW1681REMSYN072AAXX  04151 01001 41458 81905 10010 21003 30119 40131 58011 76872 8462/;
0101010010999992008010416004+70933-008667FM-12+0009ENJA V0201701N003019999999N9999999N1+00071-00051101271ADDMA1999999101151MD1810121+9999REMSYN060AAXX  04161 01001 46/// /1703 10007 21005 30115 40127 58012;
0101010010999992008010417004+70933-008667FM-12+0009ENJA V0201001N002019999999N9999999N1+00071-00051101251ADDMA1999999101141MD1610121+9999REMSYN060AAXX  04171 01001 46/// /1002 10007 21005 30114 40125 56012;
0207010010999992008010418004+70933-008667FM-12+0009ENJA V0200601N001010240019N0090001N1+00051-00071101211ADDAA112000021AY171061AY221061GF108991041061001501071999KA1120M+00181MA1999999101101MD1710101+9999MW1101REMSYN094AAXX  04181 01001 11259 80601 10005 21007 30110 40121 57010 69902 71072 8467/ 333 10018 91108;
0101010010999992008010419004+70933-008667FM-12+0009ENJA V0202201N002019999999N9999999N1+00051-00071101181ADDMA1999999101061MD1810091+9999REMSYN060AAXX  04191 01001 46/// /2202 10005 21007 30106 40118 58009;
0101010010999992008010420004+70933-008667FM-12+0009ENJA V0202301N002019999999N9999999N1+00081-00061101161ADDMA1999999101051MD1610091+9999REMSYN060AAXX  04201 01001 46/// /2302 10008 21006 30105 40116 56009;
0161010010999992008010421004+70933-008667FM-12+0009ENJA V0209999C000010240019N0150001N1+00081-00091101171ADDAY171031AY221031GF108991041061002501071999MA1999999101051MD1510041+9999MW1021REMSYN072AAXX  04211 01001 41365 80000 10008 21009 30105 40117 55004 70272 8467/;
0101010010999992008010422004+70933-008667FM-12+0009ENJA V0209999C000019999999N9999999N1+00081-00061101141ADDMA1999999101021MD1810041+9999REMSYN060AAXX  04221 01001 46/// /0000 10008 21006 30102 40114 58004;
0101010010999992008010423004+70933-008667FM-12+0009ENJA V0209999C000019999999N9999999N1+00061-00081101091ADDMA1999999100971MD1810071+9999REMSYN060AAXX  04231 01001 46/// /0000 10006 21008 30097 40109 58007;
0207010010999992008010500004+70933-008667FM-12+0009ENJA V0200401N001010240019N0150001N1+00061-00091100931ADDAA106000091AY171061AY221061GF108991041061002501071999MA1999999100931MD1810121+9999MW1021REMSYN088AAXX  05001 01001 11365 80401 10006 21009 30093 40093 58012 69901 70272 8467/ 333 91104;EQDQ01  00002PRCP06
0101010010999992008010501004+70933-008667FM-12+0009ENJA V0200801N004019999999N9999999N1+00091-00051100991ADDMA1999999100871MD1810151+9999REMSYN060AAXX  05011 01001 46/// /0804 10009 21005 30087 40099 58015;
0101010010999992008010502004+70933-008667FM-12+0009ENJA V0200801N003019999999N9999999N1+00091-00071100931ADDMA1999999100811MD1810161+9999REMSYN060AAXX  05021 01001 46/// /0803 10009 21007 30081 40093 58016;
0101010010999992008010503004+70933-008667FM-12+0009ENJA V0200801N004019999999N9999999N1+00091-00071100901ADDMA1999999100781MD1610151+9999REMSYN060AAXX  05031 01001 46/// /0804 10009 21007 30078 40090 56015;
0101010010999992008010504004+70933-008667FM-12+0009ENJA V0200201N001019999999N9999999N1+00051-00101100861ADDMA1999999100741MD1610131+9999REMSYN060AAXX  05041 01001 46/// /0201 10005 21010 30074 40086 56013;
0101010010999992008010505004+70933-008667FM-12+0009ENJA V0200301N001019999999N9999999N1+00031-00121100791ADDMA1999999100671MD1810141+9999REMSYN060AAXX  05051 01001 46/// /0301 10003 21012 30067 40079 58014;
0215010010999992008010506004+70933-008667FM-12+0009ENJA V0200801N005012200019N0250001N1+00061-00111100711ADDAA112000091AA224000021GF101991011051008001001001KA1120N+00001MA1999999100591MD1810191+9999REMSYN094AAXX  05061 01001 12575 10805 10006 21011 30059 40071 58019 69902 81500 333 20000 70000 91107;EQDQ01  00002PRCP12
0101010010999992008010507004+70933-008667FM-12+0009ENJA V0200701N004019999999N9999999N1+00051-00131100681ADDMA1999999100561MD1610181+9999REMSYN060AAXX  05071 01001 46/// /0704 10005 21013 30056 40068 56018;
0101010010999992008010508004+70933-008667FM-12+0009ENJA V0200801N005019999999N9999999N1+00061-00141100651ADDMA1999999100541MD1610141+9999REMSYN060AAXX  05081 01001 46/// /0805 10006 21014 30054 40065 56014;
0133010010999992008010509004+70933-008667FM-12+0009ENJA V0200701N005012200019N0400001N1+00071-00151100641ADDGF102991011051008001041001MA1999999100521MD1610071+9999REMSYN066AAXX  05091 01001 42582 20705 10007 21015 30052 40064 56007 81540;
0101010010999992008010510004+70933-008667FM-12+0009ENJA V0200701N006019999999N9999999N1+00101-00141100601ADDMA1999999100481MD1810081+9999REMSYN060AAXX  05101 01001 46/// /0706 10010 21014 30048 40060 58008;
0101010010999992008010511004+70933-008667FM-12+0009ENJA V0200801N007019999999N9999999N1+00121-00101100541ADDMA1999999100421MD1810111+9999REMSYN060AAXX  05111 01001 46/// /0807 10012 21010 30042 40054 58011;
0227010010999992008010512004+70933-008667FM-12+0009ENJA V0200801N008010075019N0300001N1+00141-00081100501ADDAA106000091AY121061AY211061GF107991061031008001041001MA1999999100381MD1710141+9999MW1151SA1+0069REMSYN100AAXX  05121 01001 11580 70808 10014 21008 30038 40050 57014 60001 71521 86340 222// 00006 333 91113;EQDQ01  00002PRCP06
0101010010999992008010513004+70933-008667FM-12+0009ENJA V0200701N006019999999N9999999N1+00131-00091100461ADDMA1999999100351MD1610141+9999REMSYN060AAXX  05131 01001 46/// /0706 10013 21009 30035 40046 56014;
0101010010999992008010514004+70933-008667FM-12+0009ENJA V0200701N006019999999N9999999N1+00141-00081100421ADDMA1999999100301MD1710121+9999REMSYN060AAXX  05141 01001 46/// /0706 10014 21008 30030 40042 57012;
0161010010999992008010515004+70933-008667FM-12+0009ENJA V0200801N006010240019N0300001N1+00131-00091100381ADDAY121031AY221031GF105991021031004501041001MA1999999100261MD1710121+9999MW1151REMSYN072AAXX  05151 01001 41480 50806 10013 21009 30026 40038 57012 71522 82340;
0101010010999992008010516004+70933-008667FM-12+0009ENJA V0200701N006019999999N9999999N1+00121-00071100341ADDMA1999999100221MD1710121+9999REMSYN060AAXX  05161 01001 46/// /0706 10012 21007 30022 40034 57012;
0101010010999992008010517004+70933-008667FM-12+0009ENJA V0200901N007019999999N9999999N1+00131-00051100321ADDMA1999999100211MD1610091+9999REMSYN060AAXX  05171 01001 46/// /0907 10013 21005 30021 40032 56009;
0226010010999992008010518004+70933-008667FM-12+0009ENJA V0200801N006012200019N0060001N1+00131-00041100281ADDAA112000091AY111061AY211061GF103991011061001501071001KA1120M+00151MA1999999100171MD1710091+9999MW1101REMSYN094AAXX  05181 01001 11256 30806 10013 21004 30017 40028 57009 60002 71011 81670 333 10015 91110;EQDQ01  00002PRCP12
0101010010999992008010519004+70933-008667FM-12+0009ENJA V0200801N006019999999N9999999N1+00141-00041100251ADDMA1999999100141MD1810081+9999REMSYN060AAXX  05191 01001 46/// /0806 10014 21004 30014 40025 58008;
0101010010999992008010520004+70933-008667FM-12+0009ENJA V0200801N006019999999N9999999N1+00161+00011100241ADDMA1999999100131MD1610081+9999REMSYN060AAXX  05201 01001 46/// /0806 10016 20001 30013 40024 56008;
0101010010999992008010521004+70933-008667FM-12+0009ENJA V0200801N008019999999N9999999N1+00171-00061100211ADDMA1999999100091MD1810081+9999REMSYN060AAXX  05211 01001 46/// /0808 10017 21006 30009 40021 58008;
0101010010999992008010522004+70933-008667FM-12+0009ENJA V0200901N007019999999N9999999N1+00171-00081100201ADDMA1999999100081MD1710061+9999REMSYN060AAXX  05221 01001 46/// /0907 10017 21008 30008 40020 57006;
0101010010999992008010523004+70933-008667FM-12+0009ENJA V0200801N008019999999N9999999N1+00171-00031100161ADDMA1999999100041MD1710091+9999REMSYN060AAXX  05231 01001 46/// /0808 10017 21003 30004 40016 57009;
0179010010999992008010600004+70933-008667FM-12+0009ENJA V0200801N006012200019N0250001N1+00201-00081100121ADDAA106000091GF103991021051004501041001MA1999999100001MD1810091+9999REMSYN082AAXX  06001 01001 12475 30806 10020 21008 30000 40012 58009 60001 82540 333 91110;EQDQ01  00002PRCP06
0101010010999992008010601004+70933-008667FM-12+0009ENJA V0200801N006019999999N9999999N1+00211-00121100071ADDMA1999999099951MD1810131+9999REMSYN060AAXX  06011 01001 46/// /0806 10021 21012 39995 40007 58013;
0101010010999992008010602004+70933-008667FM-12+0009ENJA V0200701N008019999999N9999999N1+00221-00141100021ADDMA1999999099911MD1810141+9999REMSYN060AAXX  06021 01001 46/// /0708 10022 21014 39991 40002 58014;
0101010010999992008010603004+70933-008667FM-12+0009ENJA V0200701N009019999999N9999999N1+00231-00191099981ADDMA1999999099861MD1610141+9999REMSYN060AAXX  06031 01001 46/// /0709 10023 21019 39986 49998 56014;
0101010010999992008010604004+70933-008667FM-12+0009ENJA V0200801N010019999999N9999999N1+00221-00081099941ADDMA1999999099831MD1610131+9999REMSYN060AAXX  06041 01001 46/// /0810 10022 21008 39983 49994 56013;
0101010010999992008010605004+70933-008667FM-12+0009ENJA V0200801N011019999999N9999999N1+00201-00041099881ADDMA1999999099771MD1810131+9999REMSYN060AAXX  06051 01001 46/// /0811 10020 21004 39977 49988 58013;
0231010010999992008010606004+70933-008667FM-12+0009ENJA V0200801N009010075019N0250001N1+00201-00011099831ADDAA112000091AA224000091GF108991071051008001999999KA1120N+00121MA1999999099721MD1810141+9999REMSYN094AAXX  06061 01001 12575 80809 10020 21001 39972 49983 58014 60002 875// 333 20012 70000 91114;EQDQ01  00002PRCP24Q02  00002PRCP12
0101010010999992008010607004+70933-008667FM-12+0009ENJA V0200701N010019999999N9999999N1+00231-00051099781ADDMA1999999099661MD1810161+9999REMSYN060AAXX  06071 01001 46/// /0710 10023 21005 39966 49978 58016;
0101010010999992008010608004+70933-008667FM-12+0009ENJA V0200701N009019999999N9999999N1+00251-00011099731ADDMA1999999099611MD1710161+9999REMSYN060AAXX  06081 01001 46/// /0709 10025 21001 39961 49973 57016;
0133010010999992008010609004+70933-008667FM-12+0009ENJA V0200701N008010042019N0200001N1+00211+00011099701ADDGF108991061031004501071999MA1999999099591MD1610141+9999REMSYN066AAXX  06091 01001 42470 80708 10021 20001 39959 49970 56014 8637/;
0101010010999992008010610004+70933-008667FM-12+0009ENJA V0200701N008019999999N9999999N1+00191-00011099671ADDMA1999999099561MD1610101+9999REMSYN060AAXX  06101 01001 46/// /0708 10019 21001 39956 49967 56010;
0101010010999992008010611004+70933-008667FM-12+0009ENJA V0200801N010019999999N9999999N1+00201+00021099631ADDMA1999999099521MD1810101+9999REMSYN060AAXX  06111 01001 46/// /0810 10020 20002 39952 49963 58010;
0227010010999992008010612004+70933-008667FM-12+0009ENJA V0200801N009010060019N0050001N1+00211+00031099601ADDAA106000091AY121061AY221061GF108991081081001501999999MA1999999099491MD1810101+9999MW1101SA1+0069REMSYN100AAXX  06121 01001 11250 80809 10021 20003 39949 49960 58010 60001 71022 888// 222// 00006 333 91115;EQDQ01  00002PRCP06
0101010010999992008010613004+70933-008667FM-12+0009ENJA V0200801N009019999999N9999999N1+00221+00051099571ADDMA1999999099451MD1610111+9999REMSYN060AAXX  06131 01001 46/// /0809 10022 20005 39945 49957 56011;
0101010010999992008010614004+70933-008667FM-12+0009ENJA V0200801N009019999999N9999999N1+00201+00041099531ADDMA1999999099421MD1710091+9999REMSYN060AAXX  06141 01001 46/// /0809 10020 20004 39942 49953 57009;
0161010010999992008010615004+70933-008667FM-12+0009ENJA V0200801N008010012019N0040001N1+00191+00051099511ADDAY161031AY221031GF108991081071001501999999MA1999999099391MD1710091+9999MW1631REMSYN072AAXX  06151 01001 41240 80808 10019 20005 39939 49951 57009 76362 887//;
0101010010999992008010616004+70933-008667FM-12+0009ENJA V0200701N008019999999N9999999N1+00191+00051099461ADDMA1999999099341MD1810111+9999REMSYN060AAXX  06161 01001 46/// /0708 10019 20005 39934 49946 58011;
0101010010999992008010617004+70933-008667FM-12+0009ENJA V0200801N008019999999N9999999N1+00221+00091099461ADDMA1999999099351MD1610081+9999REMSYN060AAXX  06171 01001 46/// /0808 10022 20009 39935 49946 56008;
0207010010999992008010618004+70933-008667FM-12+0009ENJA V0200801N007010012019N0050001N1+00201+00081099441ADDAA112001091AY161061AY221061GF108991081071001501999999KA1120M+00251MA1999999099321MD1610071+9999MW1101REMSYN094AAXX  06181 01001 11250 80807 10020 20008 39932 49944 56007 60012 71062 887// 333 10025 91112;
0101010010999992008010619004+70933-008667FM-12+0009ENJA V0200801N005019999999N9999999N1+00211+00101099431ADDMA1999999099311MD1810031+9999REMSYN060AAXX  06191 01001 46/// /0805 10021 20010 39931 49943 58003;
0101010010999992008010620004+70933-008667FM-12+0009ENJA V0202201N002019999999N9999999N1+00201+00091099421ADDMA1999999099301MD1610041+9999REMSYN060AAXX  06201 01001 46/// /2202 10020 20009 39930 49942 56004;
0101010010999992008010621004+70933-008667FM-12+0009ENJA V0202001N002019999999N9999999N1+00201+00091099411ADDMA1999999099291MD1710031+9999REMSYN060AAXX  06211 01001 46/// /2002 10020 20009 39929 49941 57003;
0101010010999992008010622004+70933-008667FM-12+0009ENJA V0200701N002019999999N9999999N1+00201+00091099381ADDMA1999999099261MD1810051+9999REMSYN060AAXX  06221 01001 46/// /0702 10020 20009 39926 49938 58005;
0101010010999992008010623004+70933-008667FM-12+0009ENJA V0200701N004019999999N9999999N1+00201+00091099331ADDMA1999999099221MD1810081+9999REMSYN060AAXX  06231 01001 46/// /0704 10020 20009 39922 49933 58008;
0188010010999992008010700004+70933-008667FM-12+0009ENJA V0200401N002010012019N0020001N1+00211+00101099301ADDAA106000021AY161061AY221061GF108991081061001501999999MA1999999099181MD1810111+9999MW1601REMSYN088AAXX  07001 01001 11220 80402 10021 20010 39918 49930 58011 69901 76062 886// 333 91110;
0101010010999992008010701004+70933-008667FM-12+0009ENJA V0200601N003019999999N9999999N1+00181+00071099271ADDMA1999999099161MD1610111+9999REMSYN060AAXX  07011 01001 46/// /0603 10018 20007 39916 49927 56011;
0101010010999992008010702004+70933-008667FM-12+0009ENJA V0200701N007019999999N9999999N1+00151+00031099251ADDMA1999999099131MD1610091+9999REMSYN060AAXX  07021 01001 46/// /0707 10015 20003 39913 49925 56009;
0101010010999992008010703004+70933-008667FM-12+0009ENJA V0200801N008019999999N9999999N1+00131+00011099231ADDMA1999999099111MD1610071+9999REMSYN060AAXX  07031 01001 46/// /0808 10013 20001 39911 49923 56007;
0101010010999992008010704004+70933-008667FM-12+0009ENJA V0200801N006019999999N9999999N1+00171+00041099221ADDMA1999999099101MD1610051+9999REMSYN060AAXX  07041 01001 46/// /0806 10017 20004 39910 49922 56005;
0101010010999992008010705004+70933-008667FM-12+0009ENJA V0200701N006019999999N9999999N1+00201+00081099191ADDMA1999999099081MD1710051+9999REMSYN060AAXX  07051 01001 46/// /0706 10020 20008 39908 49919 57005;
0224010010999992008010706004+70933-008667FM-12+0009ENJA V0200801N008010060019N0080001N1+00211+00071099181ADDAA112000021AA224001591AY161061AY221061GF106991061081001501001001KA1120N+00111MA1999999099071MD1710041+9999MW1011REMSYN100AAXX  07061 01001 11258 60808 10021 20007 39907 49918 57004 69922 70162 86800 333 20011 70014 91110;
0101010010999992008010707004+70933-008667FM-12+0009ENJA V0200701N009019999999N9999999N1+00251+00101099161ADDMA1999999099051MD1810061+9999REMSYN060AAXX  07071 01001 46/// /0709 10025 20010 39905 49916 58006;
0101010010999992008010708004+70933-008667FM-12+0009ENJA V0200601N007019999999N9999999N1+00271+00111099161ADDMA1999999099051MD1610041+9999REMSYN060AAXX  07081 01001 46/// /0607 10027 20011 39905 49916 56004;
0161010010999992008010709004+70933-008667FM-12+0009ENJA V0200801N009010012019N0050001N1+00301+00151099191ADDAY121031AY221031GF108991081061001501999999MA1999999099071MD1510001+9999MW1101REMSYN072AAXX  07091 01001 41250 80809 10030 20015 39907 49919 55000 71022 886//;
0101010010999992008010710004+70933-008667FM-12+0009ENJA V0200801N008019999999N9999999N1+00281+00131099251ADDMA1999999099141MD1310101+9999REMSYN060AAXX  07101 01001 46/// /0808 10028 20013 39914 49925 53010;
0101010010999992008010711004+70933-008667FM-12+0009ENJA V0200701N006019999999N9999999N1+00241+00121099291ADDMA1999999099171MD1210131+9999REMSYN060AAXX  07111 01001 46/// /0706 10024 20012 39917 49929 52013;
0208010010999992008010712004+70933-008667FM-12+0009ENJA V0200801N009010240019N0060001N1+00301+00161099321ADDAA106000591AY161061AY221061GF107991011051001501071999MA1999999099211MD1110131+9999MW1601SA1+0089REMSYN100AAXX  07121 01001 11256 70809 10030 20016 39921 49932 51013 69961 76062 8157/ 222// 00008 333 91112;
0101010010999992008010713004+70933-008667FM-12+0009ENJA V0200901N010019999999N9999999N1+00291+00141099321ADDMA1999999099201MD1110061+9999REMSYN060AAXX  07131 01001 46/// /0910 10029 20014 39920 49932 51006;
0101010010999992008010714004+70933-008667FM-12+0009ENJA V0200801N010019999999N9999999N1+00281+00131099301ADDMA1999999099191MD1010021+9999REMSYN060AAXX  07141 01001 46/// /0810 10028 20013 39919 49930 50002;
0161010010999992008010715004+70933-008667FM-12+0009ENJA V0200801N009010240019N0040001N1+00271+00131099321ADDAY161031AY221031GF107991031051001501071999MA1999999099211MD1310011+9999MW1101REMSYN072AAXX  07151 01001 41240 70809 10027 20013 39921 49932 53001 71062 8357/;
0101010010999992008010716004+70933-008667FM-12+0009ENJA V0200701N008019999999N9999999N1+00311+00141099301ADDMA1999999099181MD1810021+9999REMSYN060AAXX  07161 01001 46/// /0708 10031 20014 39918 49930 58002;
0101010010999992008010717004+70933-008667FM-12+0009ENJA V0200701N007019999999N9999999N1+00301+00131099301ADDMA1999999099181MD1810011+9999REMSYN060AAXX  07171 01001 46/// /0707 10030 20013 39918 49930 58001;
0207010010999992008010718004+70933-008667FM-12+0009ENJA V0200701N008010021019N0050001N1+00291+00131099341ADDAA112000591AY161061AY221061GF107991051051002501051071KA1120M+00341MA1999999099221MD1310011+9999MW1101REMSYN094AAXX  07181 01001 11350 70708 10029 20013 39922 49934 53001 69962 71062 85557 333 10034 91113;
0101010010999992008010719004+70933-008667FM-12+0009ENJA V0200801N008019999999N9999999N1+00331+00151099321ADDMA1999999099211MD1010031+9999REMSYN060AAXX  07191 01001 46/// /0808 10033 20015 39921 49932 50003;
0101010010999992008010720004+70933-008667FM-12+0009ENJA V0200701N007019999999N9999999N1+00341+00151099331ADDMA1999999099211MD1110031+9999REMSYN060AAXX  07201 01001 46/// /0707 10034 20015 39921 49933 51003;
0101010010999992008010721004+70933-008667FM-12+0009ENJA V0200701N009019999999N9999999N1+00351+00171099331ADDMA1999999099221MD1510001+9999REMSYN060AAXX  07211 01001 46/// /0709 10035 20017 39922 49933 55000;
0101010010999992008010722004+70933-008667FM-12+0009ENJA V0200701N010019999999N9999999N1+00281+00131099361ADDMA1999999099241MD1310031+9999REMSYN060AAXX  07221 01001 46/// /0710 10028 20013 39924 49936 53003;
0101010010999992008010723004+70933-008667FM-12+0009ENJA V0200801N007019999999N9999999N1+00241+00111099371ADDMA1999999099251MD1210041+9999REMSYN060AAXX  07231 01001 46/// /0807 10024 20011 39925 49937 52004;
0188010010999992008010800004+70933-008667FM-12+0009ENJA V0200801N006010240019N0038001N1+00221+00111099391ADDAA106000021AY121061AY221061GF108991021061001501071999MA1999999099281MD1210051+9999MW1601REMSYN088AAXX  08001 01001 11238 80806 10022 20011 39928 49939 52005 69911 76022 8267/ 333 91113;
0101010010999992008010801004+70933-008667FM-12+0009ENJA V0201001N006019999999N9999999N1+00201+00091099441ADDMA1999999099321MD1310081+9999REMSYN060AAXX  08011 01001 46/// /1006 10020 20009 39932 49944 53008;
0101010010999992008010802004+70933-008667FM-12+0009ENJA V0201101N004019999999N9999999N1+00181+00071099501ADDMA1999999099381MD1310131+9999REMSYN060AAXX  08021 01001 46/// /1104 10018 20007 39938 49950 53013;
0101010010999992008010803004+70933-008667FM-12+0009ENJA V0200401N002019999999N9999999N1+00231+00131099521ADDMA1999999099401MD1110131+9999REMSYN060AAXX  08031 01001 46/// /0402 10023 20013 39940 49952 51013;
0101010010999992008010804004+70933-008667FM-12+0009ENJA V0200301N001019999999N9999999N1+00201+00091099541ADDMA1999999099431MD1110111+9999REMSYN060AAXX  08041 01001 46/// /0301 10020 20009 39943 49954 51011;
0101010010999992008010805004+70933-008667FM-12+0009ENJA V0200601N003019999999N9999999N1+00181+00071099561ADDMA1999999099451MD1210071+9999REMSYN060AAXX  08051 01001 46/// /0603 10018 20007 39945 49956 52007;
0224010010999992008010806004+70933-008667FM-12+0009ENJA V0200901N004010240019N0042001N1+00181+00071099601ADDAA112000021AA224000891AY161061AY221061GF108991031051001501071999KA1120N+00171MA1999999099481MD1210081+9999MW1101REMSYN100AAXX  08061 01001 11242 80904 10018 20007 39948 49960 52008 69922 71062 8357/ 333 20017 70008 91109;
0101010010999992008010807004+70933-008667FM-12+0009ENJA V0200601N001019999999N9999999N1+00161+00051099631ADDMA1999999099511MD1310081+9999REMSYN060AAXX  08071 01001 46/// /0601 10016 20005 39951 49963 53008;
0101010010999992008010808004+70933-008667FM-12+0009ENJA V0200801N002019999999N9999999N1+00141+00031099681ADDMA1999999099571MD1310111+9999REMSYN060AAXX  08081 01001 46/// /0802 10014 20003 39957 49968 53011;
0161010010999992008010809004+70933-008667FM-12+0009ENJA V0200901N001010240019N0050001N1+00121+00001099731ADDAY121031AY221031GF105991021051001501071001MA1999999099611MD1310131+9999MW1101REMSYN072AAXX  08091 01001 41250 50901 10012 20000 39961 49973 53013 71022 82570;
0101010010999992008010810004+70933-008667FM-12+0009ENJA V0202001N002019999999N9999999N1+00121+00011099771ADDMA1999999099651MD1110141+9999REMSYN060AAXX  08101 01001 46/// /2002 10012 20001 39965 49977 51014;
0101010010999992008010811004+70933-008667FM-12+0009ENJA V0202201N002019999999N9999999N1+00131+00021099811ADDMA1999999099701MD1210141+9999REMSYN060AAXX  08111 01001 46/// /2202 10013 20002 39970 49981 52014;
0208010010999992008010812004+70933-008667FM-12+0009ENJA V0203401N001010090019N0220001N1+00151+00031099831ADDAA106000891AY181061AY221061GF106991061081004501061001MA1999999099711MD1110101+9999MW1251SA1+0089REMSYN100AAXX  08121 01001 11472 63401 10015 20003 39971 49983 51010 69971 72582 86860 222// 00008 333 91109;
0101010010999992008010813004+70933-008667FM-12+0009ENJA V0200201N001019999999N9999999N1+00151+00021099841ADDMA1999999099721MD1110071+9999REMSYN060AAXX  08131 01001 46/// /0201 10015 20002 39972 49984 51007;
0101010010999992008010814004+70933-008667FM-12+0009ENJA V0200401N001019999999N9999999N1+00131+00001099841ADDMA1999999099721MD1110021+9999REMSYN060AAXX  08141 01001 46/// /0401 10013 20000 39972 49984 51002;
0161010010999992008010815004+70933-008667FM-12+0009ENJA V0200601N005010021019N0100001N1+00111-00021099841ADDAY181031AY221031GF107991061031002501061999MA1999999099721MD1110011+9999MW1801REMSYN072AAXX  08151 01001 41360 70605 10011 21002 39972 49984 51001 78082 8636/;
0101010010999992008010816004+70933-008667FM-12+0009ENJA V0200901N006019999999N9999999N1+00131+00011099861ADDMA1999999099741MD1310021+9999REMSYN060AAXX  08161 01001 46/// /0906 10013 20001 39974 49986 53002;
0101010010999992008010817004+70933-008667FM-12+0009ENJA V0201301N004019999999N9999999N1+00121+00001099911ADDMA1999999099791MD1310071+9999REMSYN060AAXX  08171 01001 46/// /1304 10012 20000 39979 49991 53007;
0207010010999992008010818004+70933-008667FM-12+0009ENJA V0201301N004010060019N0200001N1+00071-00051099991ADDAA112000891AY181061AY221061GF107991061081002501061999KA1120M+00181MA1999999099871MD1310151+9999MW1021REMSYN094AAXX  08181 01001 11370 71304 10007 21005 39987 49999 53015 69972 70282 8686/ 333 10018 91108;
0101010010999992008010819004+70933-008667FM-12+0009ENJA V0201001N003019999999N9999999N1+00081-00041100011ADDMA1999999099901MD1110161+9999REMSYN060AAXX  08191 01001 46/// /1003 10008 21004 39990 40001 51016;
0101010010999992008010820004+70933-008667FM-12+0009ENJA V0200801N003019999999N9999999N1+00111-00031100021ADDMA1999999099911MD1110111+9999REMSYN060AAXX  08201 01001 46/// /0803 10011 21003 39991 40002 51011;
0133010010999992008010821004+70933-008667FM-12+0009ENJA V0200801N006010120019N0300001N1+00151-00031100051ADDGF107991071081008001999999MA1999999099931MD1210061+9999REMSYN066AAXX  08211 01001 42580 70806 10015 21003 39993 40005 52006 878//;
0101010010999992008010822004+70933-008667FM-12+0009ENJA V0200801N005019999999N9999999N1+00171-00011100051ADDMA1999999099931MD1210031+9999REMSYN060AAXX  08221 01001 46/// /0805 10017 21001 39993 40005 52003;
0101010010999992008010823004+70933-008667FM-12+0009ENJA V0200701N005019999999N9999999N1+00191+00001100061ADDMA1999999099941MD1110041+9999REMSYN060AAXX  08231 01001 46/// /0705 10019 20000 39994 40006 51004;
0179010010999992008010900004+70933-008667FM-12+0009ENJA V0200801N006012200019N0400001N1+00201-00011100041ADDAA106000091GF103991021081008001061001MA1999999099931MD1810011+9999REMSYN082AAXX  09001 01001 12582 30806 10020 21001 39993 40004 58001 60001 82860 333 91108;EQDQ01  00002PRCP06
0101010010999992008010901004+70933-008667FM-12+0009ENJA V0200601N005019999999N9999999N1+00201+00011100041ADDMA1999999099921MD1810011+9999REMSYN060AAXX  09011 01001 46/// /0605 10020 20001 39992 40004 58001;
0101010010999992008010902004+70933-008667FM-12+0009ENJA V0200601N005019999999N9999999N1+00211-00011100011ADDMA1999999099891MD1810051+9999REMSYN060AAXX  09021 01001 46/// /0605 10021 21001 39989 40001 58005;
0101010010999992008010903004+70933-008667FM-12+0009ENJA V0200701N007019999999N9999999N1+00251+00011100001ADDMA1999999099891MD1710031+9999REMSYN060AAXX  09031 01001 46/// /0707 10025 20001 39989 40000 57003;
0101010010999992008010904004+70933-008667FM-12+0009ENJA V0200601N007019999999N9999999N1+00251+00021099961ADDMA1999999099841MD1810081+9999REMSYN060AAXX  09041 01001 46/// /0607 10025 20002 39984 49996 58008;
0101010010999992008010905004+70933-008667FM-12+0009ENJA V0200701N009019999999N9999999N1+00271+00071099931ADDMA1999999099811MD1810081+9999REMSYN060AAXX  09051 01001 46/// /0709 10027 20007 39981 49993 58008;
0215010010999992008010906004+70933-008667FM-12+0009ENJA V0200701N008010240019N0400001N1+00281+00061099911ADDAA112000091AA224000891GF105991031081008001061081KA1120N+00071MA1999999099791MD1610101+9999REMSYN094AAXX  09061 01001 12582 50708 10028 20006 39979 49991 56010 60002 83868 333 20007 70007 91113;EQDQ01  00002PRCP12
0101010010999992008010907004+70933-008667FM-12+0009ENJA V0200701N008019999999N9999999N1+00291+00081099931ADDMA1999999099811MD1510031+9999REMSYN060AAXX  09071 01001 46/// /0708 10029 20008 39981 49993 55003;
0101010010999992008010908004+70933-008667FM-12+0009ENJA V0200701N008019999999N9999999N1+00281+00081099921ADDMA1999999099811MD1610011+9999REMSYN060AAXX  09081 01001 46/// /0708 10028 20008 39981 49992 56001;
0133010010999992008010909004+70933-008667FM-12+0009ENJA V0200701N010010090019N0250001N1+00301+00101099931ADDGF107991051081004501071999MA1999999099811MD1110021+9999REMSYN066AAXX  09091 01001 42475 70710 10030 20010 39981 49993 51002 8587/;
0101010010999992008010910004+70933-008667FM-12+0009ENJA V0200701N010019999999N9999999N1+00301+00081099961ADDMA1999999099851MD1310041+9999REMSYN060AAXX  09101 01001 46/// /0710 10030 20008 39985 49996 53004;
0101010010999992008010911004+70933-008667FM-12+0009ENJA V0200701N011019999999N9999999N1+00321+00101099981ADDMA1999999099871MD1210061+9999REMSYN060AAXX  09111 01001 46/// /0711 10032 20010 39987 49998 52006;
0199010010999992008010912004+70933-008667FM-12+0009ENJA V0200701N011010090019N0200001N1+00301+00061100011ADDAA106000091GF108991051081004501071999MA1999999099891MD1110081+9999SA1+0089REMSYN094AAXX  09121 01001 12470 80711 10030 20006 39989 40001 51008 69901 8587/ 222// 00008 333 91116;EQDQ01  00002PRCP06
0101010010999992008010913004+70933-008667FM-12+0009ENJA V0200701N011019999999N9999999N1+00321+00061100021ADDMA1999999099901MD1210051+9999REMSYN060AAXX  09131 01001 46/// /0711 10032 20006 39990 40002 52005;
0101010010999992008010914004+70933-008667FM-12+0009ENJA V0200701N011019999999N9999999N1+00321+00051100031ADDMA1999999099911MD1110051+9999REMSYN060AAXX  09141 01001 46/// /0711 10032 20005 39991 40003 51005;
0161010010999992008010915004+70933-008667FM-12+0009ENJA V0200701N011010090019N0250001N1+00301+00051100041ADDAY181031AY221031GF108991061081004501071999MA1999999099921MD1210031+9999MW1251REMSYN072AAXX  09151 01001 41475 80711 10030 20005 39992 40004 52003 72582 8687/;
0101010010999992008010916004+70933-008667FM-12+0009ENJA V0200801N012019999999N9999999N1+00301+00001100061ADDMA1999999099941MD1310041+9999REMSYN060AAXX  09161 01001 46/// /0812 10030 20000 39994 40006 53004;
0101010010999992008010917004+70933-008667FM-12+0009ENJA V0200801N013019999999N9999999N1+00261+00041100061ADDMA1999999099941MD1110031+9999REMSYN060AAXX  09171 01001 46/// /0813 10026 20004 39994 40006 51003;
0207010010999992008010918004+70933-008667FM-12+0009ENJA V0200701N011010240019N0280001N1+00261+00031100111ADDAA112000021AY181061AY221061GF106991031081008001071001KA1120M+00341MA1999999099991MD1310071+9999MW1011REMSYN094AAXX  09181 01001 11578 60711 10026 20003 39999 40011 53007 69902 70182 83870 333 10034 91117;
0101010010999992008010919004+70933-008667FM-12+0009ENJA V0200701N010019999999N9999999N1+00211+00031100131ADDMA1999999100021MD1310071+9999REMSYN060AAXX  09191 01001 46/// /0710 10021 20003 30002 40013 53007;
0101010010999992008010920004+70933-008667FM-12+0009ENJA V0200701N011019999999N9999999N1+00191+00011100191ADDMA1999999100071MD1310131+9999REMSYN060AAXX  09201 01001 46/// /0711 10019 20001 30007 40019 53013;
0101010010999992008010921004+70933-008667FM-12+0009ENJA V0200701N011019999999N9999999N1+00181-00051100281ADDMA1999999100171MD1310181+9999REMSYN060AAXX  09211 01001 46/// /0711 10018 21005 30017 40028 53018;
0101010010999992008010922004+70933-008667FM-12+0009ENJA V0200701N013019999999N9999999N1+00181-00071100331ADDMA1999999100211MD1110201+9999REMSYN060AAXX  09221 01001 46/// /0713 10018 21007 30021 40033 51020;
0101010010999992008010923004+70933-008667FM-12+0009ENJA V0200701N016019999999N9999999N1+00191-00121100371ADDMA1999999100251MD1110181+9999REMSYN060AAXX  09231 01001 46/// /0716 10019 21012 30025 40037 51018;
0179010010999992008011000004+70933-008667FM-12+0009ENJA V0200701N016010240019N0250001N1+00171-00161100401ADDAA106000091GF108991041081008001071999MA1999999100291MD1110111+9999REMSYN082AAXX  10001 01001 12575 80716 10017 21016 30029 40040 51011 60001 8487/ 333 91121;EQDQ01  00002PRCP06
0101010010999992008011001004+70933-008667FM-12+0009ENJA V0200701N012019999999N9999999N1+00141-00181100471ADDMA1999999100361MD1310141+9999REMSYN060AAXX  10011 01001 46/// /0712 10014 21018 30036 40047 53014;
0101010010999992008011002004+70933-008667FM-12+0009ENJA V0200701N012019999999N9999999N1+00121-00231100471ADDMA1999999100351MD1110101+9999REMSYN060AAXX  10021 01001 46/// /0712 10012 21023 30035 40047 51010;
0101010010999992008011003004+70933-008667FM-12+0009ENJA V0200701N013019999999N9999999N1+00041-00261100461ADDMA1999999100351MD1010061+9999REMSYN060AAXX  10031 01001 46/// /0713 10004 21026 30035 40046 50006;
0101010010999992008011004004+70933-008667FM-12+0009ENJA V0200701N008019999999N9999999N1+00021-00331100491ADDMA1999999100381MD1310031+9999REMSYN060AAXX  10041 01001 46/// /0708 10002 21033 30038 40049 53003;
0101010010999992008011005004+70933-008667FM-12+0009ENJA V0200901N009019999999N9999999N1+00041-00371100431ADDMA1999999100311MD1810041+9999REMSYN060AAXX  10051 01001 46/// /0909 10004 21037 30031 40043 58004;
0215010010999992008011006004+70933-008667FM-12+0009ENJA V0200901N010012200019N0300001N1-00011-00341100491ADDAA112000091AA224000021GF103991021081008001071001KA1120N-00031MA1999999100381MD1310031+9999REMSYN094AAXX  10061 01001 12580 30910 11001 21034 30038 40049 53003 60002 82870 333 21003 70000 91120;EQDQ01  00002PRCP12
0101010010999992008011007004+70933-008667FM-12+0009ENJA V0200901N010019999999N9999999N1-00041-00371100531ADDMA1999999100421MD1310041+9999REMSYN060AAXX  10071 01001 46/// /0910 11004 21037 30042 40053 53004;
0101010010999992008011008004+70933-008667FM-12+0009ENJA V0202701N003019999999N9999999N1-00041-00411100581ADDMA1999999100471MD1110151+9999REMSYN060AAXX  10081 01001 46/// /2703 11004 21041 30047 40058 51015;
0133010010999992008011009004+70933-008667FM-12+0009ENJA V0200901N004010120019N0250001N1-00051-00411100631ADDGF108991071081008001071999MA1999999100511MD1210141+9999REMSYN066AAXX  10091 01001 42575 80904 11005 21041 30051 40063 52014 8787/;
0101010010999992008011010004+70933-008667FM-12+0009ENJA V0203301N004019999999N9999999N1-00081-00481100651ADDMA1999999100531MD1110111+9999REMSYN060AAXX  10101 01001 46/// /3304 11008 21048 30053 40065 51011;
0101010010999992008011011004+70933-008667FM-12+0009ENJA V0201901N004019999999N9999999N1-00071-00511100671ADDMA1999999100551MD1110091+9999REMSYN060AAXX  10111 01001 46/// /1904 11007 21051 30055 40067 51009;
0199010010999992008011012004+70933-008667FM-12+0009ENJA V0203401N005010090019N0300001N1-00061-00441100671ADDAA106000091GF107991071081004501999999MA1999999100551MD1110041+9999SA1+0079REMSYN094AAXX  10121 01001 12480 73405 11006 21044 30055 40067 51004 60001 878// 222// 00007 333 91113;EQDQ01  00002PRCP06
0101010010999992008011013004+70933-008667FM-12+0009ENJA V0202501N003019999999N9999999N1-00081-00461100661ADDMA1999999100541MD1010011+9999REMSYN060AAXX  10131 01001 46/// /2503 11008 21046 30054 40066 50001;
0101010010999992008011014004+70933-008667FM-12+0009ENJA V0202201N004019999999N9999999N1-00071-00461100631ADDMA1999999100511MD1810041+9999REMSYN060AAXX  10141 01001 46/// /2204 11007 21046 30051 40063 58004;
0133010010999992008011015004+70933-008667FM-12+0009ENJA V0201101N004010090019N0250001N1-00051-00341100671ADDGF107991071081004501001001MA1999999100551MD1510001+9999REMSYN066AAXX  10151 01001 42475 71104 11005 21034 30055 40067 55000 87800;
0101010010999992008011016004+70933-008667FM-12+0009ENJA V0202201N003019999999N9999999N1-00061-00431100661ADDMA1999999100551MD1510001+9999REMSYN060AAXX  10161 01001 46/// /2203 11006 21043 30055 40066 55000;
0101010010999992008011017004+70933-008667FM-12+0009ENJA V0203301N005019999999N9999999N1-00041-00421100641ADDMA1999999100521MD1010011+9999REMSYN060AAXX  10171 01001 46/// /3305 11004 21042 30052 40064 50001;
0198010010999992008011018004+70933-008667FM-12+0009ENJA V0200701N007010090019N0300001N1+00001-00401100661ADDAA112000091GF107991071081004501001001KA1120M+00001MA1999999100541MD1510011+9999REMSYN088AAXX  10181 01001 12480 70707 10000 21040 30054 40066 55001 60002 87800 333 10000 91112;EQDQ01  00002PRCP12
0101010010999992008011019004+70933-008667FM-12+0009ENJA V0200401N003019999999N9999999N1-00031-00431100691ADDMA1999999100571MD1310031+9999REMSYN060AAXX  10191 01001 46/// /0403 11003 21043 30057 40069 53003;
0101010010999992008011020004+70933-008667FM-12+0009ENJA V0203301N004019999999N9999999N1-00081-00431100741ADDMA1999999100621MD1310101+9999REMSYN060AAXX  10201 01001 46/// /3304 11008 21043 30062 40074 53010;
0101010010999992008011021004+70933-008667FM-12+0009ENJA V0200501N004019999999N9999999N1-00041-00431100771ADDMA1999999100651MD1210111+9999REMSYN060AAXX  10211 01001 46/// /0504 11004 21043 30065 40077 52011;
0101010010999992008011022004+70933-008667FM-12+0009ENJA V0200601N004019999999N9999999N1-00051-00361100791ADDMA1999999100671MD1110101+9999REMSYN060AAXX  10221 01001 46/// /0604 11005 21036 30067 40079 51010;
0101010010999992008011023004+70933-008667FM-12+0009ENJA V0202601N004019999999N9999999N1-00041-00451100751ADDMA1999999100631MD1010011+9999REMSYN060AAXX  10231 01001 46/// /2604 11004 21045 30063 40075 50001;
0179010010999992008011100004+70933-008667FM-12+0009ENJA V0201901N003010090019N0300001N1-00081-00431100741ADDAA106000091GF107991071081004501001001MA1999999100621MD1810031+9999REMSYN082AAXX  11001 01001 12480 71903 11008 21043 30062 40074 58003 60001 87800 333 91112;EQDQ01  00002PRCP06
0101010010999992008011101004+70933-008667FM-12+0009ENJA V0203201N006019999999N9999999N1-00131-00511100721ADDMA1999999100611MD1610071+9999REMSYN060AAXX  11011 01001 46/// /3206 11013 21051 30061 40072 56007;
0101010010999992008011102004+70933-008667FM-12+0009ENJA V0203501N002019999999N9999999N1-00141-00501100741ADDMA1999999100621MD1510011+9999REMSYN060AAXX  11021 01001 46/// /3502 11014 21050 30062 40074 55001;
0101010010999992008011103004+70933-008667FM-12+0009ENJA V0201001N009019999999N9999999N1-00081-00471100731ADDMA1999999100611MD1610011+9999REMSYN060AAXX  11031 01001 46/// /1009 11008 21047 30061 40073 56001;
0101010010999992008011104004+70933-008667FM-12+0009ENJA V0202901N006019999999N9999999N1-00181-00601100701ADDMA1999999100581MD1810021+9999REMSYN060AAXX  11041 01001 46/// /2906 11018 21060 30058 40070 58002;
0101010010999992008011105004+70933-008667FM-12+0009ENJA V0203101N006019999999N9999999N1-00171-00571100711ADDMA1999999100591MD1510031+9999REMSYN060AAXX  11051 01001 46/// /3106 11017 21057 30059 40071 55003;
0231010010999992008011106004+70933-008667FM-12+0009ENJA V0202901N002010090019N0300001N1-00231-00591100741ADDAA112000091AA224000091GF107991071081004501999999KA1120N-00241MA1999999100631MD1310011+9999REMSYN094AAXX  11061 01001 12480 72902 11023 21059 30063 40074 53001 60002 878// 333 21024 70000 91112;EQDQ01  00002PRCP24Q02  00002PRCP12
0101010010999992008011107004+70933-008667FM-12+0009ENJA V0203101N004019999999N9999999N1-00261-00601100751ADDMA1999999100631MD1210051+9999REMSYN060AAXX  11071 01001 46/// /3104 11026 21060 30063 40075 52005;
0101010010999992008011108004+70933-008667FM-12+0009ENJA V0203501N003019999999N9999999N1-00211-00571100761ADDMA1999999100641MD1110051+9999REMSYN060AAXX  11081 01001 46/// /3503 11021 21057 30064 40076 51005;
0133010010999992008011109004+70933-008667FM-12+0009ENJA V0202701N002012200019N0300001N1-00331-00671100791ADDGF103991031081004501001001MA1999999100671MD1310051+9999REMSYN066AAXX  11091 01001 42480 32702 11033 21067 30067 40079 53005 83800;
0101010010999992008011110004+70933-008667FM-12+0009ENJA V0202301N003019999999N9999999N1-00241-00651100801ADDMA1999999100681MD1210051+9999REMSYN060AAXX  11101 01001 46/// /2303 11024 21065 30068 40080 52005;
0101010010999992008011111004+70933-008667FM-12+0009ENJA V0202501N005019999999N9999999N1-00261-00651100811ADDMA1999999100691MD1110041+9999REMSYN060AAXX  11111 01001 46/// /2505 11026 21065 30069 40081 51004;
0199010010999992008011112004+70933-008667FM-12+0009ENJA V0202501N002010240019N0240001N1-00241-00611100831ADDAA106000091GF105991041081008001061001MA1999999100711MD1310041+9999SA1+0059REMSYN094AAXX  11121 01001 12574 52502 11024 21061 30071 40083 53004 60001 84860 222// 00005 333 91107;EQDQ01  00002PRCP06
0101010010999992008011113004+70933-008667FM-12+0009ENJA V0202901N004019999999N9999999N1-00241-00561100841ADDMA1999999100721MD1310041+9999REMSYN060AAXX  11131 01001 46/// /2904 11024 21056 30072 40084 53004;
0101010010999992008011114004+70933-008667FM-12+0009ENJA V0200601N004019999999N9999999N1-00171-00441100871ADDMA1999999100751MD1210071+9999REMSYN060AAXX  11141 01001 46/// /0604 11017 21044 30075 40087 52007;
0161010010999992008011115004+70933-008667FM-12+0009ENJA V0202801N002010240019N0150001N1-00201-00501100881ADDAY181031AY221031GF106991041031004501061021MA1999999100761MD1210051+9999MW1851REMSYN072AAXX  11151 01001 41465 62802 11020 21050 30076 40088 52005 78582 84362;
0101010010999992008011116004+70933-008667FM-12+0009ENJA V0203601N006019999999N9999999N1-00211-00641100901ADDMA1999999100781MD1110061+9999REMSYN060AAXX  11161 01001 46/// /3606 11021 21064 30078 40090 51006;
0101010010999992008011117004+70933-008667FM-12+0009ENJA V0200101N009019999999N9999999N1-00261-00821100931ADDMA1999999100811MD1310061+9999REMSYN060AAXX  11171 01001 46/// /0109 11026 21082 30081 40093 53006;
0207010010999992008011118004+70933-008667FM-12+0009ENJA V0203601N007010090019N0300001N1-00301-00851100941ADDAA112000021AY181061AY221061GF105991051081004501001001KA1120M-00161MA1999999100821MD1110051+9999MW1021REMSYN094AAXX  11181 01001 11480 53607 11030 21085 30082 40094 51005 69902 70282 85800 333 11016 91112;
0101010010999992008011119004+70933-008667FM-12+0009ENJA V0200901N009019999999N9999999N1-00281-00581100971ADDMA1999999100851MD1310071+9999REMSYN060AAXX  11191 01001 46/// /0909 11028 21058 30085 40097 53007;
0101010010999992008011120004+70933-008667FM-12+0009ENJA V0203601N004019999999N9999999N1-00301-00741101031ADDMA1999999100911MD1310101+9999REMSYN060AAXX  11201 01001 46/// /3604 11030 21074 30091 40103 53010;
0101010010999992008011121004+70933-008667FM-12+0009ENJA V0203601N010019999999N9999999N1-00411-00641101031ADDMA1999999100911MD1110101+9999REMSYN060AAXX  11211 01001 46/// /3610 11041 21064 30091 40103 51010;
0101010010999992008011122004+70933-008667FM-12+0009ENJA V0200101N012019999999N9999999N1-00421-00761101071ADDMA1999999100951MD1110101+9999REMSYN060AAXX  11221 01001 46/// /0112 11042 21076 30095 40107 51010;
0101010010999992008011123004+70933-008667FM-12+0009ENJA V0200201N010019999999N9999999N1-00461-00831101141ADDMA1999999101021MD1310101+9999REMSYN060AAXX  11231 01001 46/// /0210 11046 21083 30102 40114 53010;
0188010010999992008011200004+70933-008667FM-12+0009ENJA V0200101N010010120019N0300001N1-00531-00891101151ADDAA106000021AY181061AY231061GF107991071081008001999999MA1999999101031MD1110121+9999MW1851REMSYN088AAXX  12001 01001 11580 70110 11053 21089 30103 40115 51012 69901 78583 878// 333 91117;
0101010010999992008011201004+70933-008667FM-12+0009ENJA V0203601N010019999999N9999999N1-00621-01031101121ADDMA1999999101001MD1010051+9999REMSYN060AAXX  12011 01001 46/// /3610 11062 21103 30100 40112 50005;
0101010010999992008011202004+70933-008667FM-12+0009ENJA V0200101N010019999999N9999999N1-00651-01051101141ADDMA1999999101021MD1210011+9999REMSYN060AAXX  12021 01001 46/// /0110 11065 21105 30102 40114 52001;
0101010010999992008011203004+70933-008667FM-12+0009ENJA V0203601N009019999999N9999999N1-00661-01031101141ADDMA1999999101021MD1610011+9999REMSYN060AAXX  12031 01001 46/// /3609 11066 21103 30102 40114 56001;
0101010010999992008011204004+70933-008667FM-12+0009ENJA V0203601N009019999999N9999999N1-00671-01051101121ADDMA1999999101001MD1010001+9999REMSYN060AAXX  12041 01001 46/// /3609 11067 21105 30100 40112 50000;
0101010010999992008011205004+70933-008667FM-12+0009ENJA V0203601N009019999999N9999999N1-00671-01041101131ADDMA1999999101011MD1510011+9999REMSYN060AAXX  12051 01001 46/// /3609 11067 21104 30101 40113 55001;
0224010010999992008011206004+70933-008667FM-12+0009ENJA V0203601N009010090019N0050001N1-00681-01101101141ADDAA112000021AA224000021AY181061AY231061GF108991081081004501999999KA1120N-00701MA1999999101021MD1510001+9999MW1851REMSYN100AAXX  12061 01001 11450 83609 11068 21110 30102 40114 55000 69912 78583 888// 333 21070 70001 91115;
0101010010999992008011207004+70933-008667FM-12+0009ENJA V0203601N011019999999N9999999N1-00691-01051101161ADDMA1999999101041MD1310041+9999REMSYN060AAXX  12071 01001 46/// /3611 11069 21105 30104 40116 53004;
0101010010999992008011208004+70933-008667FM-12+0009ENJA V0203601N010019999999N9999999N1-00691-01141101211ADDMA1999999101091MD1310071+9999REMSYN060AAXX  12081 01001 46/// /3610 11069 21114 30109 40121 53007;
0161010010999992008011209004+70933-008667FM-12+0009ENJA V0200101N009010042019N0040001N1-00711-01161101231ADDAY181031AY231031GF107991071031004501999999MA1999999101111MD1310091+9999MW1851REMSYN072AAXX  12091 01001 41440 70109 11071 21116 30111 40123 53009 78583 873//;
0101010010999992008011210004+70933-008667FM-12+0009ENJA V0200101N010019999999N9999999N1-00711-01061101261ADDMA1999999101141MD1110091+9999REMSYN060AAXX  12101 01001 46/// /0110 11071 21106 30114 40126 51009;
0101010010999992008011211004+70933-008667FM-12+0009ENJA V0203601N010019999999N9999999N1-00691-01061101281ADDMA1999999101161MD1210081+9999REMSYN060AAXX  12111 01001 46/// /3610 11069 21106 30116 40128 52008;
0208010010999992008011212004+70933-008667FM-12+0009ENJA V0203601N010010075019N0100001N1-00721-01091101301ADDAA106000021AY181061AY231061GF107991061031008001061999MA1999999101171MD1110061+9999MW1851SA1+0029REMSYN100AAXX  12121 01001 11560 73610 11072 21109 30117 40130 51006 69901 78583 8636/ 222// 00002 333 91117;
0101010010999992008011213004+70933-008667FM-12+0009ENJA V0203601N012019999999N9999999N1-00731-01101101301ADDMA1999999101181MD1110051+9999REMSYN060AAXX  12131 01001 46/// /3612 11073 21110 30118 40130 51005;
0101010010999992008011214004+70933-008667FM-12+0009ENJA V0200101N012019999999N9999999N1-00751-01191101321ADDMA1999999101191MD1210031+9999REMSYN060AAXX  12141 01001 46/// /0112 11075 21119 30119 40132 52003;
0161010010999992008011215004+70933-008667FM-12+0009ENJA V0203601N013010120019N0200001N1-00751-01211101291ADDAY181031AY221031GF106991051081008001061001MA1999999101161MD1810011+9999MW1261REMSYN072AAXX  12151 01001 41570 63613 11075 21121 30116 40129 58001 72682 85860;
0101010010999992008011216004+70933-008667FM-12+0009ENJA V0203601N013019999999N9999999N1-00761-01111101301ADDMA1999999101181MD1710011+9999REMSYN060AAXX  12161 01001 46/// /3613 11076 21111 30118 40130 57001;
0101010010999992008011217004+70933-008667FM-12+0009ENJA V0203501N012019999999N9999999N1-00791-01171101291ADDMA1999999101171MD1610031+9999REMSYN060AAXX  12171 01001 46/// /3512 11079 21117 30117 40129 56003;
0207010010999992008011218004+70933-008667FM-12+0009ENJA V0203401N013010075019N0030001N1-00831-01141101311ADDAA112000021AY181061AY231061GF107991071031008001999999KA1120M-00681MA1999999101191MD1310031+9999MW1851REMSYN094AAXX  12181 01001 11530 73413 11083 21114 30119 40131 53003 69902 78583 873// 333 11068 91119;
0101010010999992008011219004+70933-008667FM-12+0009ENJA V0203401N012019999999N9999999N1-00831-01201101311ADDMA1999999101181MD1210011+9999REMSYN060AAXX  12191 01001 46/// /3412 11083 21120 30118 40131 52001;
0101010010999992008011220004+70933-008667FM-12+0009ENJA V0203401N013019999999N9999999N1-00851-01141101301ADDMA1999999101181MD1010011+9999REMSYN060AAXX  12201 01001 46/// /3413 11085 21114 30118 40130 50001;
0101010010999992008011221004+70933-008667FM-12+0009ENJA V0203401N014019999999N9999999N1-00871-01241101311ADDMA1999999101181MD1510011+9999REMSYN060AAXX  12211 01001 46/// /3414 11087 21124 30118 40131 55001;
0101010010999992008011222004+70933-008667FM-12+0009ENJA V0203401N015019999999N9999999N1-00851-01271101291ADDMA1999999101171MD1810021+9999REMSYN060AAXX  12221 01001 46/// /3415 11085 21127 30117 40129 58002;
0101010010999992008011223004+70933-008667FM-12+0009ENJA V0203401N014019999999N9999999N1-00861-01291101301ADDMA1999999101171MD1410001+9999REMSYN060AAXX  12231 01001 46/// /3414 11086 21129 30117 40130 54000;
0188010010999992008011300004+70933-008667FM-12+0009ENJA V0203601N012010120019N0040001N1-00881-01151101301ADDAA106000021AY181061AY231061GF108991071081008001999999MA1999999101171MD1610011+9999MW1851REMSYN088AAXX  13001 01001 11540 83612 11088 21115 30117 40130 56001 69911 78583 878// 333 91122;
0101010010999992008011301004+70933-008667FM-12+0009ENJA V0203401N012019999999N9999999N1-00851-01231101311ADDMA1999999101191MD1310031+9999REMSYN060AAXX  13011 01001 46/// /3412 11085 21123 30119 40131 53003;
0101010010999992008011302004+70933-008667FM-12+0009ENJA V0203401N015019999999N9999999N1-00901-01211101261ADDMA1999999101141MD1810031+9999REMSYN060AAXX  13021 01001 46/// /3415 11090 21121 30114 40126 58003;
0101010010999992008011303004+70933-008667FM-12+0009ENJA V0203401N013019999999N9999999N1-00911-01261101251ADDMA1999999101131MD1810041+9999REMSYN060AAXX  13031 01001 46/// /3413 11091 21126 30113 40125 58004;
0101010010999992008011304004+70933-008667FM-12+0009ENJA V0203401N012019999999N9999999N1-00951-01311101251ADDMA1999999101121MD1610071+9999REMSYN060AAXX  13041 01001 46/// /3412 11095 21131 30112 40125 56007;
0101010010999992008011305004+70933-008667FM-12+0009ENJA V0203401N015019999999N9999999N1-00971-01391101251ADDMA1999999101131MD1510011+9999REMSYN060AAXX  13051 01001 46/// /3415 11097 21139 30113 40125 55001;
0224010010999992008011306004+70933-008667FM-12+0009ENJA V0203501N013010090019N0070001N1-00971-01301101231ADDAA112000021AA224000021AY181061AY231061GF108991071081004501999999KA1120N-00981MA1999999101111MD1810021+9999MW1851REMSYN100AAXX  13061 01001 11457 83513 11097 21130 30111 40123 58002 69912 78583 878// 333 21098 70001 91122;
0101010010999992008011307004+70933-008667FM-12+0009ENJA V0203501N012019999999N9999999N1-01001-01401101261ADDMA1999999101141MD1310011+9999REMSYN060AAXX  13071 01001 46/// /3512 11100 21140 30114 40126 53001;
0101010010999992008011308004+70933-008667FM-12+0009ENJA V0203501N011019999999N9999999N1-01011-01451101231ADDMA1999999101101MD1810031+9999REMSYN060AAXX  13081 01001 46/// /3511 11101 21145 30110 40123 58003;
0161010010999992008011309004+70933-008667FM-12+0009ENJA V0203501N011010120019N0200001N1-01021-01401101231ADDAY181031AY231031GF107991071081008001999999MA1999999101101MD1810011+9999MW1161REMSYN072AAXX  13091 01001 41570 73511 11102 21140 30110 40123 58001 71683 878//;
0101010010999992008011310004+70933-008667FM-12+0009ENJA V0203501N011019999999N9999999N1-01031-01421101251ADDMA1999999101131MD1510001+9999REMSYN060AAXX  13101 01001 46/// /3511 11103 21142 30113 40125 55000;
0101010010999992008011311004+70933-008667FM-12+0009ENJA V0203401N012019999999N9999999N1-01051-01471101211ADDMA1999999101091MD1810021+9999REMSYN060AAXX  13111 01001 46/// /3412 11105 21147 30109 40121 58002;
0186010010999992008011312004+70933-008667FM-12+0009ENJA V0203401N012010120019N0200001N1-01051-01461101181ADDAA106000021GF107991071081008001999999MA1999999101061MD1810041+9999SA1-0039REMSYN100AAXX  13121 01001 11570 73412 11105 21146 30106 40118 58004 69901 7//83 878// 222// 01003 333 91120;
0101010010999992008011313004+70933-008667FM-12+0009ENJA V0203401N012019999999N9999999N1-01071-01501101121ADDMA1999999101001MD1810131+9999REMSYN060AAXX  13131 01001 46/// /3412 11107 21150 30100 40112 58013;
0101010010999992008011314004+70933-008667FM-12+0009ENJA V0203501N010019999999N9999999N1-01081-01491101141ADDMA1999999101011MD1510071+9999REMSYN060AAXX  13141 01001 46/// /3510 11108 21149 30101 40114 55007;
0161010010999992008011315004+70933-008667FM-12+0009ENJA V0203501N010010120019N0300001N1-01091-01541101121ADDAY131031AY221031GF107991071081008001999999MA1999999101001MD1610061+9999MW1151REMSYN072AAXX  13151 01001 41580 73510 11109 21154 30100 40112 56006 71532 878//;
0101010010999992008011316004+70933-008667FM-12+0009ENJA V0203501N010019999999N9999999N1-01091-01521101111ADDMA1999999100981MD1810021+9999REMSYN060AAXX  13161 01001 46/// /3510 11109 21152 30098 40111 58002;
0101010010999992008011317004+70933-008667FM-12+0009ENJA V0203401N009019999999N9999999N1-01131-01561101081ADDMA1999999100961MD1810051+9999REMSYN060AAXX  13171 01001 46/// /3409 11113 21156 30096 40108 58005;
0188010010999992008011318004+70933-008667FM-12+0009ENJA V0203401N010010090019N0030001N1-01161-01451101061ADDAA112000021AY181061AY231061GF108991071081004501999999MA1999999100941MD1710061+9999MW1851REMSYN088AAXX  13181 01001 11430 83410 11116 21145 30094 40106 57006 69912 78583 878// 333 91120;
0101010010999992008011319004+70933-008667FM-12+0009ENJA V0203501N008019999999N9999999N1-01151-01521101031ADDMA1999999100911MD1810081+9999REMSYN060AAXX  13191 01001 46/// /3508 11115 21152 30091 40103 58008;
0101010010999992008011320004+70933-008667FM-12+0009ENJA V0203401N007019999999N9999999N1+99999+99999101011ADDMA1999999100881MD1710081+9999REMSYN060AAXX  13201 01001 46/// /3407 1//// 2//// 30088 40101 57008;
0101010010999992008011321004+70933-008667FM-12+0009ENJA V0203401N005019999999N9999999N1-01141-01651101021ADDMA1999999100901MD1510041+9999REMSYN060AAXX  13211 01001 46/// /3405 11114 21165 30090 40102 55004;
0101010010999992008011322004+70933-008667FM-12+0009ENJA V0203501N007019999999N9999999N1-01121-01471100961ADDMA1999999100841MD1810071+9999REMSYN060AAXX  13221 01001 46/// /3507 11112 21147 30084 40096 58007;
0101010010999992008011323004+70933-008667FM-12+0009ENJA V0203201N005019999999N9999999N1-01101-01551100901ADDMA1999999100781MD1810111+9999REMSYN060AAXX  13231 01001 46/// /3205 11110 21155 30078 40090 58011;
0188010010999992008011400004+70933-008667FM-12+0009ENJA V0203501N005010120019N0040001N1-01101-01561100851ADDAA106000021AY181061AY231061GF107991051081008001061999MA1999999100731MD1610171+9999MW1161REMSYN088AAXX  14001 01001 11540 73505 11110 21156 30073 40085 56017 69911 71683 8586/ 333 91116;
0101010010999992008011401004+70933-008667FM-12+0009ENJA V0203301N005019999999N9999999N1-01081-01491100801ADDMA1999999100681MD1610151+9999REMSYN060AAXX  14011 01001 46/// /3305 11108 21149 30068 40080 56015;
0101010010999992008011402004+70933-008667FM-12+0009ENJA V0203301N007019999999N9999999N1-01091-01531100761ADDMA1999999100641MD1710131+9999REMSYN060AAXX  14021 01001 46/// /3307 11109 21153 30064 40076 57013;
0101010010999992008011403004+70933-008667FM-12+0009ENJA V0203301N008019999999N9999999N1-01081-01401100701ADDMA1999999100581MD1810151+9999REMSYN060AAXX  14031 01001 46/// /3308 11108 21140 30058 40070 58015;
0101010010999992008011404004+70933-008667FM-12+0009ENJA V0202801N007019999999N9999999N1-01061-01461100681ADDMA1999999100551MD1610131+9999REMSYN060AAXX  14041 01001 46/// /2807 11106 21146 30055 40068 56013;
0101010010999992008011405004+70933-008667FM-12+0009ENJA V0202701N005019999999N9999999N1-01071-01391100651ADDMA1999999100521MD1610121+9999REMSYN060AAXX  14051 01001 46/// /2705 11107 21139 30052 40065 56012;
0142010010999992008011406004+70933-008667FM-12+0009ENJA V0202801N007019999999N9999999N1-01061-01501100611ADDKA1120N-01151MA1999999100481MD1810101+9999REMSYN088AAXX  14061 01001 16/// /2807 11106 21150 30048 40061 58010 6//// 333 21115 7//// 91116;
0101010010999992008011407004+70933-008667FM-12+0009ENJA V0202801N006019999999N9999999N1-01061-01591100581ADDMA1999999100451MD1710101+9999REMSYN060AAXX  14071 01001 46/// /2806 11106 21159 30045 40058 57010;
0101010010999992008011408004+70933-008667FM-12+0009ENJA V0202601N008019999999N9999999N1-01041-01441100531ADDMA1999999100411MD1710111+9999REMSYN060AAXX  14081 01001 46/// /2608 11104 21144 30041 40053 57011;
0161010010999992008011409004+70933-008667FM-12+0009ENJA V0202901N006010090019N0080001N1-01051-01511100481ADDAY181031AY231031GF107991061081004501061999MA1999999100361MD1810121+9999MW1161REMSYN072AAXX  14091 01001 41458 72906 11105 21151 30036 40048 58012 71683 8686/;
0101010010999992008011410004+70933-008667FM-12+0009ENJA V0202701N006019999999N9999999N1-01031-01551100451ADDMA1999999100321MD1710131+9999REMSYN060AAXX  14101 01001 46/// /2706 11103 21155 30032 40045 57013;
0101010010999992008011411004+70933-008667FM-12+0009ENJA V0202401N008019999999N9999999N1-01021-01391100391ADDMA1999999100271MD1710141+9999REMSYN060AAXX  14111 01001 46/// /2408 11102 21139 30027 40039 57014;
0208010010999992008011412004+70933-008667FM-12+0009ENJA V0202601N008010060019N0030001N1-01011-01441100321ADDAA106000891AY181061AY231061GF107991071081002501999999MA1999999100201MD1810161+9999MW1841SA1-0019REMSYN100AAXX  14121 01001 11330 72608 11101 21144 30020 40032 58016 69981 78483 878// 222// 01001 333 91116;
0101010010999992008011413004+70933-008667FM-12+0009ENJA V0202601N008019999999N9999999N1-01021-01341100241ADDMA1999999100121MD1810201+9999REMSYN060AAXX  14131 01001 46/// /2608 11102 21134 30012 40024 58020;
0101010010999992008011414004+70933-008667FM-12+0009ENJA V0202601N006019999999N9999999N1-00981-01471100131ADDMA1999999100011MD1810261+9999REMSYN060AAXX  14141 01001 46/// /2606 11098 21147 30001 40013 58026;
0161010010999992008011415004+70933-008667FM-12+0009ENJA V0202301N008010060019N0030001N1-00981-01301100031ADDAY181031AY231031GF107991071081002501999999MA1999999099911MD1810291+9999MW1851REMSYN072AAXX  14151 01001 41330 72308 11098 21130 39991 40003 58029 78583 878//;
0101010010999992008011416004+70933-008667FM-12+0009ENJA V0202301N010019999999N9999999N1-00981-01321099931ADDMA1999999099811MD1710321+9999REMSYN060AAXX  14161 01001 46/// /2310 11098 21132 39981 49993 57032;
0101010010999992008011417004+70933-008667FM-12+0009ENJA V0202301N009019999999N9999999N1-00951-01221099811ADDMA1999999099691MD1810321+9999REMSYN060AAXX  14171 01001 46/// /2309 11095 21122 39969 49981 58032;
0207010010999992008011418004+70933-008667FM-12+0009ENJA V0202201N006010060019N0100001N1-00891-01231099711ADDAA112001091AY181061AY231061GF107991071081002501999999KA1120M-00891MA1999999099591MD1610321+9999MW1851REMSYN094AAXX  14181 01001 11360 72206 11089 21123 39959 49971 56032 60012 78583 878// 333 11089 91115;
0101010010999992008011419004+70933-008667FM-12+0009ENJA V0202301N004019999999N9999999N1-00821-01131099551ADDMA1999999099431MD1810371+9999REMSYN060AAXX  14191 01001 46/// /2304 11082 21113 39943 49955 58037;
0101010010999992008011420004+70933-008667FM-12+0009ENJA V0203601N001019999999N9999999N1-00761-01011099421ADDMA1999999099301MD1810391+9999REMSYN060AAXX  14201 01001 46/// /3601 11076 21101 39930 49942 58039;
0101010010999992008011421004+70933-008667FM-12+0009ENJA V0201801N002019999999N9999999N1-00731-01171099321ADDMA1999999099201MD1610401+9999REMSYN060AAXX  14211 01001 46/// /1802 11073 21117 39920 49932 56040;
0101010010999992008011422004+70933-008667FM-12+0009ENJA V0200101N002019999999N9999999N1-00731-01121099251ADDMA1999999099131MD1610301+9999REMSYN060AAXX  14221 01001 46/// /0102 11073 21112 39913 49925 56030;
0101010010999992008011423004+70933-008667FM-12+0009ENJA V0200201N005019999999N9999999N1-00711-01121099281ADDMA1999999099161MD1510141+9999REMSYN060AAXX  14231 01001 46/// /0205 11071 21112 39916 49928 55014;
0188010010999992008011500004+70933-008667FM-12+0009ENJA V0200101N009010120019N0200001N1-00671-01051099311ADDAA106000391AY181061AY231061GF108991081081008001999999MA1999999099191MD1510001+9999MW1361REMSYN088AAXX  15001 01001 11570 80109 11067 21105 39919 49931 55000 69931 73683 888// 333 91113;
0101010010999992008011501004+70933-008667FM-12+0009ENJA V0203501N009019999999N9999999N1-00711-01201099341ADDMA1999999099221MD1210091+9999REMSYN060AAXX  15011 01001 46/// /3509 11071 21120 39922 49934 52009;
0101010010999992008011502004+70933-008667FM-12+0009ENJA V0203601N008019999999N9999999N1-00701-00941099351ADDMA1999999099231MD1110071+9999REMSYN060AAXX  15021 01001 46/// /3608 11070 21094 39923 49935 51007;
0101010010999992008011503004+70933-008667FM-12+0009ENJA V0203601N012019999999N9999999N1-00691-00871099371ADDMA1999999099251MD1110061+9999REMSYN060AAXX  15031 01001 46/// /3612 11069 21087 39925 49937 51006;
0101010010999992008011504004+70933-008667FM-12+0009ENJA V0203601N011019999999N9999999N1-00751-00981099421ADDMA1999999099301MD1310081+9999REMSYN060AAXX  15041 01001 46/// /3611 11075 21098 39930 49942 53008;
0101010010999992008011505004+70933-008667FM-12+0009ENJA V0203501N010019999999N9999999N1-00771-01151099451ADDMA1999999099331MD1310101+9999REMSYN060AAXX  15051 01001 46/// /3510 11077 21115 39933 49945 53010;
0224010010999992008011506004+70933-008667FM-12+0009ENJA V0203401N010010090019N0030001N1-00811-01201099481ADDAA112000591AA224001891AY181061AY231061GF107991071081004501999999KA1120N-00891MA1999999099361MD1110111+9999MW1381REMSYN100AAXX  15061 01001 11430 73410 11081 21120 39936 49948 51011 69942 73883 878// 333 21089 70018 91119;
0101010010999992008011507004+70933-008667FM-12+0009ENJA V0203601N010019999999N9999999N1-00831-01231099491ADDMA1999999099371MD1110071+9999REMSYN060AAXX  15071 01001 46/// /3610 11083 21123 39937 49949 51007;
0101010010999992008011508004+70933-008667FM-12+0009ENJA V0203501N011019999999N9999999N1-00861-01281099501ADDMA1999999099381MD1110051+9999REMSYN060AAXX  15081 01001 46/// /3511 11086 21128 39938 49950 51005;
0161010010999992008011509004+70933-008667FM-12+0009ENJA V0203501N010010090019N0200001N1-00831-01291099521ADDAY181031AY231031GF107991071081004501001001MA1999999099401MD1310041+9999MW1361REMSYN072AAXX  15091 01001 41470 73510 11083 21129 39940 49952 53004 73683 87800;
0101010010999992008011511004+70933-008667FM-12+0009ENJA V0203401N007019999999N9999999N1-00801-01261099561ADDMA1999999099441MD1210061+9999REMSYN060AAXX  15111 01001 46/// /3407 11080 21126 39944 49956 52006;
0208010010999992008011512004+70933-008667FM-12+0009ENJA V0203501N007010075019N0120001N1-00801-01261099551ADDAA106000021AY181061AY231061GF107991071031008001999999MA1999999099431MD1010031+9999MW1851SA1-0019REMSYN100AAXX  15121 01001 11562 73507 11080 21126 39943 49955 50003 69911 78583 873// 222// 01001 333 91118;
0101010010999992008011513004+70933-008667FM-12+0009ENJA V0203401N007019999999N9999999N1-00831-01201099541ADDMA1999999099421MD1010001+9999REMSYN060AAXX  15131 01001 46/// /3407 11083 21120 39942 49954 50000;
0161010010999992008011515004+70933-008667FM-12+0009ENJA V0203301N009010075019N0140001N1-00921-01271099551ADDAY181031AY231031GF107991061021008001061999MA1999999099431MD1510001+9999MW1361REMSYN072AAXX  15151 01001 41564 73309 11092 21127 39943 49955 55000 73683 8626/;
0101010010999992008011516004+70933-008667FM-12+0009ENJA V0203501N010019999999N9999999N1-00971-01391099561ADDMA1999999099431MD1310011+9999REMSYN060AAXX  15161 01001 46/// /3510 11097 21139 39943 49956 53001;
0101010010999992008011517004+70933-008667FM-12+0009ENJA V0203401N010019999999N9999999N1-00991-01431099521ADDMA1999999099401MD1810011+9999REMSYN060AAXX  15171 01001 46/// /3410 11099 21143 39940 49952 58001;
0207010010999992008011518004+70933-008667FM-12+0009ENJA V0203301N011010075019N0060001N1-01011-01351099491ADDAA112000021AY181061AY231061GF107991061021008001061999KA1120M-00781MA1999999099371MD1810061+9999MW1361REMSYN094AAXX  15181 01001 11556 73311 11101 21135 39937 49949 58006 69922 73683 8626/ 333 11078 91120;
0101010010999992008011519004+70933-008667FM-12+0009ENJA V0203301N010019999999N9999999N1-01031-01421099481ADDMA1999999099361MD1610071+9999REMSYN060AAXX  15191 01001 46/// /3310 11103 21142 39936 49948 56007;
0101010010999992008011520004+70933-008667FM-12+0009ENJA V0203301N009019999999N9999999N1-01041-01501099481ADDMA1999999099361MD1610041+9999REMSYN060AAXX  15201 01001 46/// /3309 11104 21150 39936 49948 56004;
0101010010999992008011521004+70933-008667FM-12+0009ENJA V0203401N009019999999N9999999N1-01041-01391099501ADDMA1999999099381MD1310011+9999REMSYN060AAXX  15211 01001 46/// /3409 11104 21139 39938 49950 53001;
0101010010999992008011522004+70933-008667FM-12+0009ENJA V0203301N010019999999N9999999N1-01041-01491099481ADDMA1999999099361MD1010001+9999REMSYN060AAXX  15221 01001 46/// /3310 11104 21149 39936 49948 50000;
0101010010999992008011523004+70933-008667FM-12+0009ENJA V0203501N010019999999N9999999N1-01021-01401099451ADDMA1999999099331MD1810031+9999REMSYN060AAXX  15231 01001 46/// /3510 11102 21140 39933 49945 58003;
0188010010999992008011600004+70933-008667FM-12+0009ENJA V0203301N009010075019N0005001N1-00991-01511099461ADDAA106000021AY181061AY231061GF108991081031008001999999MA1999999099341MD1510041+9999MW1851REMSYN088AAXX  16001 01001 11505 83309 11099 21151 39934 49946 55004 69911 78583 883// 333 91119;
0101010010999992008011601004+70933-008667FM-12+0009ENJA V0203401N010019999999N9999999N1-01001-01341099481ADDMA1999999099361MD1510001+9999REMSYN060AAXX  16011 01001 46/// /3410 11100 21134 39936 49948 55000;
0101010010999992008011602004+70933-008667FM-12+0009ENJA V0203401N011019999999N9999999N1-01071-01351099511ADDMA1999999099391MD1310061+9999REMSYN060AAXX  16021 01001 46/// /3411 11107 21135 39939 49951 53006;
0101010010999992008011603004+70933-008667FM-12+0009ENJA V0203401N010019999999N9999999N1-01091-01331099531ADDMA1999999099411MD1210071+9999REMSYN060AAXX  16031 01001 46/// /3410 11109 21133 39941 49953 52007;
0101010010999992008011604004+70933-008667FM-12+0009ENJA V0203401N011019999999N9999999N1-01081-01431099551ADDMA1999999099421MD1110061+9999REMSYN060AAXX  16041 01001 46/// /3411 11108 21143 39942 49955 51006;
0101010010999992008011605004+70933-008667FM-12+0009ENJA V0203401N010019999999N9999999N1-01071-01481099581ADDMA1999999099461MD1310071+9999REMSYN060AAXX  16051 01001 46/// /3410 11107 21148 39946 49958 53007;
0224010010999992008011606004+70933-008667FM-12+0009ENJA V0203401N010010075019N0050001N1-01071-01491099601ADDAA112000591AA224000891AY181061AY231061GF108991081031008001999999KA1120N-01121MA1999999099481MD1210061+9999MW1851REMSYN100AAXX  16061 01001 11550 83410 11107 21149 39948 49960 52006 69952 78583 883// 333 21112 70007 91121;
0101010010999992008011607004+70933-008667FM-12+0009ENJA V0203301N008019999999N9999999N1-01041-01491099651ADDMA1999999099531MD1310111+9999REMSYN060AAXX  16071 01001 46/// /3308 11104 21149 39953 49965 53011;
0101010010999992008011608004+70933-008667FM-12+0009ENJA V0203501N009019999999N9999999N1-01051-01561099681ADDMA1999999099561MD1310101+9999REMSYN060AAXX  16081 01001 46/// /3509 11105 21156 39956 49968 53010;
0161010010999992008011609004+70933-008667FM-12+0009ENJA V0203401N006010075019N0100001N1-01031-01591099721ADDAY181031AY231031GF108991081031008001999999MA1999999099591MD1110121+9999MW1851REMSYN072AAXX  16091 01001 41560 83406 11103 21159 39959 49972 51012 78583 883//;
0101010010999992008011610004+70933-008667FM-12+0009ENJA V0202701N007019999999N9999999N1-01021-01551099731ADDMA1999999099601MD1110071+9999REMSYN060AAXX  16101 01001 46/// /2707 11102 21155 39960 49973 51007;
0101010010999992008011611004+70933-008667FM-12+0009ENJA V0202801N007019999999N9999999N1-01011-01621099781ADDMA1999999099661MD1310101+9999REMSYN060AAXX  16111 01001 46/// /2807 11101 21162 39966 49978 53010;
0208010010999992008011612004+70933-008667FM-12+0009ENJA V0202901N007010120019N0100001N1-01041-01571099791ADDAA106000021AY181061AY231061GF107991061081008001061999MA1999999099661MD1110071+9999MW1361SA1-0039REMSYN100AAXX  16121 01001 11560 72907 11104 21157 39966 49979 51007 69911 73683 8686/ 222// 01003 333 91119;
0101010010999992008011613004+70933-008667FM-12+0009ENJA V0202801N006019999999N9999999N1-01031-01561099801ADDMA1999999099681MD1110081+9999REMSYN060AAXX  16131 01001 46/// /2806 11103 21156 39968 49980 51008;
0101010010999992008011614004+70933-008667FM-12+0009ENJA V0203001N007019999999N9999999N1-01041-01671099801ADDMA1999999099671MD1010011+9999REMSYN060AAXX  16141 01001 46/// /3007 11104 21167 39967 49980 50001;
0161010010999992008011615004+70933-008667FM-12+0009ENJA V0203001N005010120019N0150001N1-01031-01641099821ADDAY181031AY231031GF107991071081008001999999MA1999999099691MD1210031+9999MW1851REMSYN072AAXX  16151 01001 41565 73005 11103 21164 39969 49982 52003 78583 878//;
0101010010999992008011616004+70933-008667FM-12+0009ENJA V0203501N006019999999N9999999N1-01021-01561099791ADDMA1999999099671MD1810011+9999REMSYN060AAXX  16161 01001 46/// /3506 11102 21156 39967 49979 58001;
0101010010999992008011617004+70933-008667FM-12+0009ENJA V0203601N005019999999N9999999N1-01021-01571099821ADDMA1999999099701MD1310031+9999REMSYN060AAXX  16171 01001 46/// /3605 11102 21157 39970 49982 53003;
0207010010999992008011618004+70933-008667FM-12+0009ENJA V0202701N004010075019N0300001N1-01021-01611099871ADDAA112000021AY181061AY231061GF107991071051008001999999KA1120M-01001MA1999999099751MD1310061+9999MW1021REMSYN094AAXX  16181 01001 11580 72704 11102 21161 39975 49987 53006 69912 70283 875// 333 11100 91115;
0101010010999992008011619004+70933-008667FM-12+0009ENJA V0202101N002019999999N9999999N1-01021-01601099901ADDMA1999999099781MD1110101+9999REMSYN060AAXX  16191 01001 46/// /2102 11102 21160 39978 49990 51010;
0101010010999992008011620004+70933-008667FM-12+0009ENJA V0202501N002019999999N9999999N1-01021-01561099891ADDMA1999999099761MD1010061+9999REMSYN060AAXX  16201 01001 46/// /2502 11102 21156 39976 49989 50006;
0101010010999992008011621004+70933-008667FM-12+0009ENJA V0202401N002019999999N9999999N1-01001-01531099901ADDMA1999999099781MD1110021+9999REMSYN060AAXX  16211 01001 46/// /2402 11100 21153 39978 49990 51002;
0101010010999992008011622004+70933-008667FM-12+0009ENJA V0202401N003019999999N9999999N1-01001-01561099871ADDMA1999999099751MD1810021+9999REMSYN060AAXX  16221 01001 46/// /2403 11100 21156 39975 49987 58002;
0101010010999992008011623004+70933-008667FM-12+0009ENJA V0202501N002019999999N9999999N1-01031-01581099841ADDMA1999999099721MD1810041+9999REMSYN060AAXX  16231 01001 46/// /2502 11103 21158 39972 49984 58004;
0179010010999992008011700004+70933-008667FM-12+0009ENJA V0200101N002012200019N0500001N1-01121-01581099831ADDAA106000091GF104991011051012501051051MA1999999099711MD1610061+9999REMSYN082AAXX  17001 01001 12684 40102 11112 21158 39971 49983 56006 60001 81555 333 91107;EQDQ01  00002PRCP06
0101010010999992008011701004+70933-008667FM-12+0009ENJA V0203501N004019999999N9999999N1-00951-01501099801ADDMA1999999099681MD1710071+9999REMSYN060AAXX  17011 01001 46/// /3504 11095 21150 39968 49980 57007;
0101010010999992008011702004+70933-008667FM-12+0009ENJA V0203601N005019999999N9999999N1-00951-01471099761ADDMA1999999099641MD1810081+9999REMSYN060AAXX  17021 01001 46/// /3605 11095 21147 39964 49976 58008;
0101010010999992008011703004+70933-008667FM-12+0009ENJA V0203601N005019999999N9999999N1-00981-01491099741ADDMA1999999099621MD1710101+9999REMSYN060AAXX  17031 01001 46/// /3605 11098 21149 39962 49974 57010;
0101010010999992008011704004+70933-008667FM-12+0009ENJA V0203601N005019999999N9999999N1-00931-01431099721ADDMA1999999099601MD1610091+9999REMSYN060AAXX  17041 01001 46/// /3605 11093 21143 39960 49972 56009;
0101010010999992008011705004+70933-008667FM-12+0009ENJA V0200101N005019999999N9999999N1-00901-01371099691ADDMA1999999099571MD1610071+9999REMSYN060AAXX  17051 01001 46/// /0105 11090 21137 39957 49969 56007;
0215010010999992008011706004+70933-008667FM-12+0009ENJA V0203601N007012200019N0500001N1-00841-01281099631ADDAA112000091AA224000021GF103991011051012501001081KA1120N-01131MA1999999099511MD1810101+9999REMSYN094AAXX  17061 01001 12684 33607 11084 21128 39951 49963 58010 60002 81508 333 21113 70001 91110;EQDQ01  00002PRCP12
0101010010999992008011707004+70933-008667FM-12+0009ENJA V0203501N004019999999N9999999N1-00781-01301099651ADDMA1999999099531MD1510061+9999REMSYN060AAXX  17071 01001 46/// /3504 11078 21130 39953 49965 55006;
0101010010999992008011708004+70933-008667FM-12+0009ENJA V0203201N003019999999N9999999N1-00781-01331099681ADDMA1999999099561MD1510011+9999REMSYN060AAXX  17081 01001 46/// /3203 11078 21133 39956 49968 55001;
0161010010999992008011709004+70933-008667FM-12+0009ENJA V0203601N001010120019N0200001N1-00831-01291099701ADDAY121031AY201031GF108991061051012501071999MA1999999099581MD1210071+9999MW1701REMSYN072AAXX  17091 01001 41670 83601 11083 21129 39958 49970 52007 77020 8657/;
0101010010999992008011710004+70933-008667FM-12+0009ENJA V0202801N001019999999N9999999N1-00791-01141099771ADDMA1999999099651MD1310121+9999REMSYN060AAXX  17101 01001 46/// /2801 11079 21114 39965 49977 53012;
0101010010999992008011711004+70933-008667FM-12+0009ENJA V0202401N003019999999N9999999N1-00711-00971099781ADDMA1999999099661MD1110101+9999REMSYN060AAXX  17111 01001 46/// /2403 11071 21097 39966 49978 51010;
0208010010999992008011712004+70933-008667FM-12+0009ENJA V0201101N005010120019N0550001N1-00641-00911099821ADDAA106000021AY171061AY221061GF108991061051012501071999MA1999999099701MD1110121+9999MW1021SA1-0039REMSYN100AAXX  17121 01001 11685 81105 11064 21091 39970 49982 51012 69921 70272 8657/ 222// 01003 333 91112;
0101010010999992008011714004+70933-008667FM-12+0009ENJA V0201001N010019999999N9999999N1-00531-00751099841ADDMA1999999099721MD1010061+9999REMSYN060AAXX  17141 01001 46/// /1010 11053 21075 39972 49984 50006;
0161010010999992008011715004+70933-008667FM-12+0009ENJA V0200901N011010075019N0300001N1-00491-00691099841ADDAY121031AY221031GF108991061051008001071999MA1999999099721MD1110021+9999MW1021REMSYN072AAXX  17151 01001 41580 80911 11049 21069 39972 49984 51002 70222 8657/;
0101010010999992008011716004+70933-008667FM-12+0009ENJA V0200801N013019999999N9999999N1-00481-00641099771ADDMA1999999099651MD1810091+9999REMSYN060AAXX  17161 01001 46/// /0813 11048 21064 39965 49977 58009;
0101010010999992008011717004+70933-008667FM-12+0009ENJA V0200801N012019999999N9999999N1-00401-00581099751ADDMA1999999099631MD1810091+9999REMSYN060AAXX  17171 01001 46/// /0812 11040 21058 39963 49975 58009;
0207010010999992008011718004+70933-008667FM-12+0009ENJA V0200801N012010075019N0200001N1-00311-00481099721ADDAA112000021AY121061AY221061GF108991061051008001071999KA1120M-00291MA1999999099601MD1610121+9999MW1021REMSYN094AAXX  17181 01001 11570 80812 11031 21048 39960 49972 56012 69922 70222 8657/ 333 11029 91116;
0101010010999992008011719004+70933-008667FM-12+0009ENJA V0200901N012019999999N9999999N1-00181-00361099711ADDMA1999999099591MD1610061+9999REMSYN060AAXX  17191 01001 46/// /0912 11018 21036 39959 49971 56006;
0101010010999992008011720004+70933-008667FM-12+0009ENJA V0201001N010019999999N9999999N1-00101-00241099681ADDMA1999999099561MD1710071+9999REMSYN060AAXX  17201 01001 46/// /1010 11010 21024 39956 49968 57007;
0101010010999992008011721004+70933-008667FM-12+0009ENJA V0201501N008019999999N9999999N1+00051-00151099641ADDMA1999999099531MD1810071+9999REMSYN060AAXX  17211 01001 46/// /1508 10005 21015 39953 49964 58007;
0101010010999992008011722004+70933-008667FM-12+0009ENJA V0201501N009019999999N9999999N1+00091-00181099641ADDMA1999999099521MD1610071+9999REMSYN060AAXX  17221 01001 46/// /1509 10009 21018 39952 49964 56007;
0101010010999992008011723004+70933-008667FM-12+0009ENJA V0201501N010019999999N9999999N1+00121-00211099631ADDMA1999999099511MD1610051+9999REMSYN060AAXX  17231 01001 46/// /1510 10012 21021 39951 49963 56005;
0207010010999992008011800004+70933-008667FM-12+0009ENJA V0201701N011010075019N0300001N1+00151-00231099621ADDAA106000091AY181061AY231061GF108991051051008001071999MA1999999099501MD1710031+9999MW1021REMSYN088AAXX  18001 01001 11580 81711 10015 21023 39950 49962 57003 69901 70283 8557/ 333 91116;EQDQ01  00002PRCP06
0101010010999992008011801004+70933-008667FM-12+0009ENJA V0201601N010019999999N9999999N1+00151-00201099591ADDMA1999999099471MD1810051+9999REMSYN060AAXX  18011 01001 46/// /1610 10015 21020 39947 49959 58005;
0101010010999992008011802004+70933-008667FM-12+0009ENJA V0201601N010019999999N9999999N1+00151-00191099581ADDMA1999999099461MD1710051+9999REMSYN060AAXX  18021 01001 46/// /1610 10015 21019 39946 49958 57005;
0101010010999992008011803004+70933-008667FM-12+0009ENJA V0201601N009019999999N9999999N1+00161-00171099561ADDMA1999999099451MD1610061+9999REMSYN060AAXX  18031 01001 46/// /1609 10016 21017 39945 49956 56006;
0101010010999992008011804004+70933-008667FM-12+0009ENJA V0201601N009019999999N9999999N1+00161-00151099541ADDMA1999999099421MD1810051+9999REMSYN060AAXX  18041 01001 46/// /1609 10016 21015 39942 49954 58005;
0101010010999992008011805004+70933-008667FM-12+0009ENJA V0201601N010019999999N9999999N1+00161-00181099501ADDMA1999999099381MD1810081+9999REMSYN060AAXX  18051 01001 46/// /1610 10016 21018 39938 49950 58008;
0243010010999992008011806004+70933-008667FM-12+0009ENJA V0201601N010010075019N0060001N1+00161-00191099461ADDAA112000091AA224000391AY121061AY221061GF108991061051008001071999KA1120N-00321MA1999999099341MD1810101+9999MW1101REMSYN100AAXX  18061 01001 11556 81610 10016 21019 39934 49946 58010 69902 71022 8657/ 333 21032 70002 91113;EQDQ01  00002PRCP12
0101010010999992008011807004+70933-008667FM-12+0009ENJA V0201601N011019999999N9999999N1+00191-00221099431ADDMA1999999099321MD1610101+9999REMSYN060AAXX  18071 01001 46/// /1611 10019 21022 39932 49943 56010;
0101010010999992008011808004+70933-008667FM-12+0009ENJA V0201601N010019999999N9999999N1+00161-00201099391ADDMA1999999099271MD1810111+9999REMSYN060AAXX  18081 01001 46/// /1610 10016 21020 39927 49939 58011;
0161010010999992008011809004+70933-008667FM-12+0009ENJA V0201601N008010120019N0060001N1+00161-00201099361ADDAY121031AY221031GF107991061081008001071999MA1999999099251MD1710091+9999MW1101REMSYN072AAXX  18091 01001 41556 71608 10016 21020 39925 49936 57009 71022 8687/;
0101010010999992008011810004+70933-008667FM-12+0009ENJA V0201501N008019999999N9999999N1+00171-00171099321ADDMA1999999099201MD1710121+9999REMSYN060AAXX  18101 01001 46/// /1508 10017 21017 39920 49932 57012;
0101010010999992008011811004+70933-008667FM-12+0009ENJA V0201501N010019999999N9999999N1+00191-00191099251ADDMA1999999099141MD1810141+9999REMSYN060AAXX  18111 01001 46/// /1510 10019 21019 39914 49925 58014;
0227010010999992008011812004+70933-008667FM-12+0009ENJA V0201401N006010090019N0080001N1+00171-00161099161ADDAA106000091AY121061AY221061GF107991071081004501001001MA1999999099041MD1810211+9999MW1101SA1-0049REMSYN100AAXX  18121 01001 11458 71406 10017 21016 39904 49916 58021 60001 71022 87800 222// 01004 333 91114;EQDQ01  00002PRCP06
0101010010999992008011813004+70933-008667FM-12+0009ENJA V0201301N009019999999N9999999N1+00201-00131099031ADDMA1999999098921MD1810291+9999REMSYN060AAXX  18131 01001 46/// /1309 10020 21013 39892 49903 58029;
0101010010999992008011814004+70933-008667FM-12+0009ENJA V0201301N007019999999N9999999N1+00191-00151098921ADDMA1999999098801MD1810331+9999REMSYN060AAXX  18141 01001 46/// /1307 10019 21015 39880 49892 58033;
0161010010999992008011815004+70933-008667FM-12+0009ENJA V0201301N012010090019N0080001N1+00231-00121098781ADDAY121031AY221031GF108991081081004501999999MA1999999098671MD1810381+9999MW1101REMSYN072AAXX  18151 01001 41458 81312 10023 21012 39867 49878 58038 71022 888//;
0101010010999992008011816004+70933-008667FM-12+0009ENJA V0201201N011019999999N9999999N1+00231-00161098641ADDMA1999999098531MD1810381+9999REMSYN060AAXX  18161 01001 46/// /1211 10023 21016 39853 49864 58038;
0101010010999992008011817004+70933-008667FM-12+0009ENJA V0201101N011019999999N9999999N1+00211-00121098511ADDMA1999999098401MD1610401+9999REMSYN060AAXX  18171 01001 46/// /1111 10021 21012 39840 49851 56040;
0226010010999992008011818004+70933-008667FM-12+0009ENJA V0201001N011010090019N0080001N1+00191-00141098411ADDAA112000091AY121061AY221061GF107991071081004501999999KA1120M+00241MA1999999098291MD1610371+9999MW1101REMSYN094AAXX  18181 01001 11458 71011 10019 21014 39829 49841 56037 60002 71022 878// 333 10024 91116;EQDQ01  00002PRCP12
0101010010999992008011819004+70933-008667FM-12+0009ENJA V0201001N013019999999N9999999N1+00221-00161098311ADDMA1999999098201MD1610341+9999REMSYN060AAXX  18191 01001 46/// /1013 10022 21016 39820 49831 56034;
0101010010999992008011820004+70933-008667FM-12+0009ENJA V0201101N012019999999N9999999N1+00211-00121098231ADDMA1999999098121MD1610281+9999REMSYN060AAXX  18201 01001 46/// /1112 10021 21012 39812 49823 56028;
0101010010999992008011821004+70933-008667FM-12+0009ENJA V0201001N012019999999N9999999N1+00201-00111098181ADDMA1999999098071MD1610221+9999REMSYN060AAXX  18211 01001 46/// /1012 10020 21011 39807 49818 56022;
0101010010999992008011822004+70933-008667FM-12+0009ENJA V0200901N012019999999N9999999N1+00181-00091098111ADDMA1999999098001MD1810201+9999REMSYN060AAXX  18221 01001 46/// /0912 10018 21009 39800 49811 58020;
0101010010999992008011823004+70933-008667FM-12+0009ENJA V0201101N012019999999N9999999N1+00151-00021098081ADDMA1999999097971MD1610161+9999REMSYN060AAXX  18231 01001 46/// /1112 10015 21002 39797 49808 56016;
0207010010999992008011900004+70933-008667FM-12+0009ENJA V0201001N012010060019N0050001N1+00171-00021098021ADDAA106000091AY121061AY221061GF108991081081002501999999MA1999999097911MD1610161+9999MW1101REMSYN088AAXX  19001 01001 11350 81012 10017 21002 39791 49802 56016 60001 71022 888// 333 91118;EQDQ01  00002PRCP06
0101010010999992008011901004+70933-008667FM-12+0009ENJA V0201001N012019999999N9999999N1+00191-00041097971ADDMA1999999097861MD1810131+9999REMSYN060AAXX  19011 01001 46/// /1012 10019 21004 39786 49797 58013;
0101010010999992008011902004+70933-008667FM-12+0009ENJA V0200901N011019999999N9999999N1+99999+99999097971ADDMA1999999097861MD1610111+9999REMSYN060AAXX  19021 01001 46/// /0911 1//// 2//// 39786 49797 56011;
0101010010999992008011903004+70933-008667FM-12+0009ENJA V0200901N012019999999N9999999N1+00171-00061097951ADDMA1999999097831MD1610081+9999REMSYN060AAXX  19031 01001 46/// /0912 10017 21006 39783 49795 56008;
0101010010999992008011904004+70933-008667FM-12+0009ENJA V0200901N011019999999N9999999N1+00181-00061097921ADDMA1999999097801MD1810061+9999REMSYN060AAXX  19041 01001 46/// /0911 10018 21006 39780 49792 58006;
0101010010999992008011905004+70933-008667FM-12+0009ENJA V0200801N009019999999N9999999N1+00151-00031097921ADDMA1999999097801MD1610051+9999REMSYN060AAXX  19051 01001 46/// /0809 10015 21003 39780 49792 56005;
