0188010010999992011010100004+70933-008667FM-12+0009ENJA V0203401N011010120019N0050001N1-00561-00981102641ADDAA106000021AY181061AY231061GF108991081081008001999999MA1999999102521MD1210171+9999MW1851REMSYN088AAXX  01001 01001 11550 83411 11056 21098 30252 40264 52017 69901 78583 888// 333 91121;
0101010010999992011010101004+70933-008667FM-12+0009ENJA V0203301N010019999999N9999999N1-00541-00951102681ADDMA1999999102561MD1210161+9999REMSYN060AAXX  01011 01001 46/// /3310 11054 21095 30256 40268 52016;
0101010010999992011010102004+70933-008667FM-12+0009ENJA V0203401N012019999999N9999999N1-00521-00991102721ADDMA1999999102601MD1210141+9999REMSYN060AAXX  01021 01001 46/// /3412 11052 21099 30260 40272 52014;
0101010010999992011010103004+70933-008667FM-12+0009ENJA V0203401N010019999999N9999999N1-00521-00961102761ADDMA1999999102641MD1210121+9999REMSYN060AAXX  01031 01001 46/// /3410 11052 21096 30264 40276 52012;
0101010010999992011010104004+70933-008667FM-12+0009ENJA V0203401N010019999999N9999999N1-00511-00941102801ADDMA1999999102681MD1310121+9999REMSYN060AAXX  01041 01001 46/// /3410 11051 21094 30268 40280 53012;
0101010010999992011010105004+70933-008667FM-12+0009ENJA V0203401N011019999999N9999999N1-00511-00931102821ADDMA1999999102701MD1210101+9999REMSYN060AAXX  01051 01001 46/// /3411 11051 21093 30270 40282 52010;
0272010010999992011010106004+70933-008667FM-12+0009ENJA V0203401N009010120019N0100001N1-00501-00931102881ADDAA112000021AA224000591AJ199991999999999AY181061AY231061GF106991061081008001001001IA1289KA1999N-00651MA1999999102761MD1310111+9999MW1011REMSYN106AAXX  01061 01001 11560 63409 11050 21093 30276 40288 53011 69902 70183 86800 333 21065 44999 70005 91118;EQDQ01  09962SNDP  
0101010010999992011010107004+70933-008667FM-12+0009ENJA V0203401N008019999999N9999999N1-00501-00961102871ADDMA1999999102751MD1010071+9999REMSYN060AAXX  01071 01001 46/// /3408 11050 21096 30275 40287 50007;
0101010010999992011010108004+70933-008667FM-12+0009ENJA V0203401N008019999999N9999999N1-00501-00941102911ADDMA1999999102791MD1210091+9999REMSYN060AAXX  01081 01001 46/// /3408 11050 21094 30279 40291 52009;
0161010010999992011010109004+70933-008667FM-12+0009ENJA V0203301N009012200019N0300001N1-00521-00961102921ADDAY121031AY211031GF104991021081002501071001MA1999999102801MD1210041+9999MW1011REMSYN072AAXX  01091 01001 41380 43309 11052 21096 30280 40292 52004 70121 82870;
0101010010999992011010110004+70933-008667FM-12+0009ENJA V0203301N010019999999N9999999N1-00531-00961102911ADDMA1999999102791MD1110041+9999REMSYN060AAXX  01101 01001 46/// /3310 11053 21096 30279 40291 51004;
0101010010999992011010111004+70933-008667FM-12+0009ENJA V0203401N008019999999N9999999N1-00531-00971102951ADDMA1999999102831MD1210031+9999REMSYN060AAXX  01111 01001 46/// /3408 11053 21097 30283 40295 52003;
0227010010999992011010112004+70933-008667FM-12+0009ENJA V0203401N007012200019N0400001N1-00521-00921102951ADDAA106000091AY121061AY201061GF102991011081004501001011MA1999999102831MD1210031+9999MW1011SA1-0049REMSYN100AAXX  01121 01001 11482 23407 11052 21092 30283 40295 52003 60001 70120 81801 222// 01004 333 91114;EQDQ01  00002PRCP06
0101010010999992011010113004+70933-008667FM-12+0009ENJA V0203401N005019999999N9999999N1-00521-00901102971ADDMA1999999102851MD1210061+9999REMSYN060AAXX  01131 01001 46/// /3405 11052 21090 30285 40297 52006;
0101010010999992011010114004+70933-008667FM-12+0009ENJA V0203101N003019999999N9999999N1-00541-00951102951ADDMA1999999102831MD1010011+9999REMSYN060AAXX  01141 01001 46/// /3103 11054 21095 30283 40295 50001;
0101010010999992011010115004+70933-008667FM-12+0009ENJA V0203001N002019999999N9999999N1-00561-00941102941ADDMA1999999102821MD1010011+9999REMSYN060AAXX  01151 01001 46/// /3002 11056 21094 30282 40294 50001;
0101010010999992011010116004+70933-008667FM-12+0009ENJA V0202901N001019999999N9999999N1-00571-00971102921ADDMA1999999102801MD1710061+9999REMSYN060AAXX  01161 01001 46/// /2901 11057 21097 30280 40292 57006;
0101010010999992011010117004+70933-008667FM-12+0009ENJA V0202501N003019999999N9999999N1-00561-00931102881ADDMA1999999102761MD1710071+9999REMSYN060AAXX  01171 01001 46/// /2503 11056 21093 30276 40288 57007;
0226010010999992011010118004+70933-008667FM-12+0009ENJA V0202801N004012200019N0300001N1-00481-00911102831ADDAA112000091AY101061AY201061GF101991011081008001001011KA1120M-00481MA1999999102711MD1710111+9999MW1021REMSYN094AAXX  01181 01001 11580 12804 11048 21091 30271 40283 57011 60002 70200 81801 333 11048 91111;EQDQ01  00002PRCP12
0101010010999992011010119004+70933-008667FM-12+0009ENJA V0202801N008019999999N9999999N1-00421-00761102801ADDMA1999999102681MD1510121+9999REMSYN060AAXX  01191 01001 46/// /2808 11042 21076 30268 40280 55012;
0101010010999992011010120004+70933-008667FM-12+0009ENJA V0202801N006019999999N9999999N1-00311-00731102761ADDMA1999999102641MD1510121+9999REMSYN060AAXX  01201 01001 46/// /2806 11031 21073 30264 40276 55012;
0101010010999992011010121004+70933-008667FM-12+0009ENJA V0202401N003019999999N9999999N1-00301-00811102751ADDMA1999999102631MD1610091+9999REMSYN060AAXX  01211 01001 46/// /2403 11030 21081 30263 40275 56009;
0101010010999992011010122004+70933-008667FM-12+0009ENJA V0202601N003019999999N9999999N1-00311-00771102671ADDMA1999999102551MD1810131+9999REMSYN060AAXX  01221 01001 46/// /2603 11031 21077 30255 40267 58013;
0101010010999992011010123004+70933-008667FM-12+0009ENJA V0202501N002019999999N9999999N1-00281-00781102631ADDMA1999999102511MD1810131+9999REMSYN060AAXX  01231 01001 46/// /2502 11028 21078 30251 40263 58013;
0207010010999992011010200004+70933-008667FM-12+0009ENJA V0202301N003010150019N0300001N1-00281-00761102561ADDAA106000091AY121061AY201061GF108991081081012501999999MA1999999102441MD1710191+9999MW1031REMSYN088AAXX  02001 01001 11680 82303 11028 21076 30244 40256 57019 60001 70320 888// 333 91113;EQDQ01  00002PRCP06
0101010010999992011010201004+70933-008667FM-12+0009ENJA V0202301N003019999999N9999999N1-00271-00731102471ADDMA1999999102351MD1810201+9999REMSYN060AAXX  02011 01001 46/// /2303 11027 21073 30235 40247 58020;
0101010010999992011010202004+70933-008667FM-12+0009ENJA V0202301N004019999999N9999999N1-00261-00771102411ADDMA1999999102291MD1710221+9999REMSYN060AAXX  02021 01001 46/// /2304 11026 21077 30229 40241 57022;
0101010010999992011010203004+70933-008667FM-12+0009ENJA V0202301N005019999999N9999999N1-00261-00741102351ADDMA1999999102231MD1810211+9999REMSYN060AAXX  02031 01001 46/// /2305 11026 21074 30223 40235 58021;
0101010010999992011010204004+70933-008667FM-12+0009ENJA V0202201N006019999999N9999999N1-00231-00661102231ADDMA1999999102111MD1810241+9999REMSYN060AAXX  02041 01001 46/// /2206 11023 21066 30211 40223 58024;
0101010010999992011010205004+70933-008667FM-12+0009ENJA V0202301N006019999999N9999999N1-00231-00711102141ADDMA1999999102021MD1810271+9999REMSYN060AAXX  02051 01001 46/// /2306 11023 21071 30202 40214 58027;
0304010010999992011010206004+70933-008667FM-12+0009ENJA V0202301N005010150019N0300001N1-00221-00681102091ADDAA112000091AA224000091AJ199991999999999AY121061AY221061GF108991081081012501999999IA1289KA1999N-00511MA1999999101971MD1610261+9999MW1021REMSYN106AAXX  02061 01001 11680 82305 11022 21068 30197 40209 56026 60002 70222 888// 333 21051 44999 70000 91112;EQDQ01  00002PRCP24Q02  00002PRCP12Q03  09962SNDP  
0101010010999992011010207004+70933-008667FM-12+0009ENJA V0202301N005019999999N9999999N1-00201-00571102021ADDMA1999999101901MD1610211+9999REMSYN060AAXX  02071 01001 46/// /2305 11020 21057 30190 40202 56021;
0101010010999992011010208004+70933-008667FM-12+0009ENJA V0202001N007019999999N9999999N1-00181-00501101951ADDMA1999999101831MD1710191+9999REMSYN060AAXX  02081 01001 46/// /2007 11018 21050 30183 40195 57019;
0161010010999992011010209004+70933-008667FM-12+0009ENJA V0201801N006010120019N0200001N1-00151-00431101891ADDAY181031AY221031GF108991081081008001999999MA1999999101771MD1710201+9999MW1831REMSYN072AAXX  02091 01001 41570 81806 11015 21043 30177 40189 57020 78382 888//;
0101010010999992011010210004+70933-008667FM-12+0009ENJA V0201701N008019999999N9999999N1-00121-00421101821ADDMA1999999101701MD1710201+9999REMSYN060AAXX  02101 01001 46/// /1708 11012 21042 30170 40182 57020;
0101010010999992011010211004+70933-008667FM-12+0009ENJA V0201801N008019999999N9999999N1-00121-00351101761ADDMA1999999101641MD1710191+9999REMSYN060AAXX  02111 01001 46/// /1808 11012 21035 30164 40176 57019;
0208010010999992011010212004+70933-008667FM-12+0009ENJA V0201601N006010090019N0200001N1-00111-00291101711ADDAA106000021AY181061AY221061GF107991071081004501999999MA1999999101591MD1710181+9999MW1801SA1+0019REMSYN100AAXX  02121 01001 11470 71606 11011 21029 30159 40171 57018 69901 78082 878// 222// 00001 333 91109;
0101010010999992011010213004+70933-008667FM-12+0009ENJA V0201701N007019999999N9999999N1-00111-00271101621ADDMA1999999101501MD1810201+9999REMSYN060AAXX  02131 01001 46/// /1707 11011 21027 30150 40162 58020;
0101010010999992011010214004+70933-008667FM-12+0009ENJA V0201401N007019999999N9999999N1-00111-00211101581ADDMA1999999101461MD1710181+9999REMSYN060AAXX  02141 01001 46/// /1407 11011 21021 30146 40158 57018;
0101010010999992011010215004+70933-008667FM-12+0009ENJA V0201401N007019999999N9999999N1-00061-00211101481ADDMA1999999101361MD1810231+9999REMSYN060AAXX  02151 01001 46/// /1407 11006 21021 30136 40148 58023;
0101010010999992011010216004+70933-008667FM-12+0009ENJA V0201401N008019999999N9999999N1-00051-00161101371ADDMA1999999101251MD1810251+9999REMSYN060AAXX  02161 01001 46/// /1408 11005 21016 30125 40137 58025;
0101010010999992011010217004+70933-008667FM-12+0009ENJA V0201601N006019999999N9999999N1-00061-00181101301ADDMA1999999101181MD1710281+9999REMSYN060AAXX  02171 01001 46/// /1606 11006 21018 30118 40130 57028;
0207010010999992011010218004+70933-008667FM-12+0009ENJA V0202001N005010090019N0300001N1-00091-00271101251ADDAA112000021AY181061AY251061GF107991051081004501001081KA1120M-00041MA1999999101131MD1610231+9999MW1011REMSYN094AAXX  02181 01001 11480 72005 11009 21027 30113 40125 56023 69902 70185 85808 333 11004 91110;
0101010010999992011010219004+70933-008667FM-12+0009ENJA V0202001N006019999999N9999999N1-00141-00391101221ADDMA1999999101101MD1610151+9999REMSYN060AAXX  02191 01001 46/// /2006 11014 21039 30110 40122 56015;
0101010010999992011010220004+70933-008667FM-12+0009ENJA V0202101N004019999999N9999999N1-00181-00511101191ADDMA1999999101071MD1710111+9999REMSYN060AAXX  02201 01001 46/// /2104 11018 21051 30107 40119 57011;
0101010010999992011010221004+70933-008667FM-12+0009ENJA V0201901N004019999999N9999999N1-00181-00501101141ADDMA1999999101021MD1710111+9999REMSYN060AAXX  02211 01001 46/// /1904 11018 21050 30102 40114 57011;
0101010010999992011010222004+70933-008667FM-12+0009ENJA V0202201N003019999999N9999999N1-00211-00451101091ADDMA1999999100971MD1710131+9999REMSYN060AAXX  02221 01001 46/// /2203 11021 21045 30097 40109 57013;
0101010010999992011010223004+70933-008667FM-12+0009ENJA V0202301N002019999999N9999999N1-00221-00381101021ADDMA1999999100901MD1710161+9999REMSYN060AAXX  02231 01001 46/// /2302 11022 21038 30090 40102 57016;
0188010010999992011010300004+70933-008667FM-12+0009ENJA V0201901N004010021019N0150001N1-00171-00371100951ADDAA106000021AY171061AY211061GF107991061061002501001081MA1999999100831MD1710191+9999MW1771REMSYN088AAXX  03001 01001 11365 71904 11017 21037 30083 40095 57019 69901 77771 86608 333 91107;
0101010010999992011010301004+70933-008667FM-12+0009ENJA V0201801N005019999999N9999999N1-00161-00401100891ADDMA1999999100771MD1710201+9999REMSYN060AAXX  03011 01001 46/// /1805 11016 21040 30077 40089 57020;
0101010010999992011010302004+70933-008667FM-12+0009ENJA V0201701N003019999999N9999999N1-00151-00351100891ADDMA1999999100771MD1510131+9999REMSYN060AAXX  03021 01001 46/// /1703 11015 21035 30077 40089 55013;
0101010010999992011010303004+70933-008667FM-12+0009ENJA V0202601N001019999999N9999999N1-00171-00351100861ADDMA1999999100741MD1610091+9999REMSYN060AAXX  03031 01001 46/// /2601 11017 21035 30074 40086 56009;
0101010010999992011010304004+70933-008667FM-12+0009ENJA V0203201N001019999999N9999999N1-00191-00341100801ADDMA1999999100681MD1810091+9999REMSYN060AAXX  03041 01001 46/// /3201 11019 21034 30068 40080 58009;
0101010010999992011010305004+70933-008667FM-12+0009ENJA V0203201N002019999999N9999999N1-00201-00331100701ADDMA1999999100581MD1810191+9999REMSYN060AAXX  03051 01001 46/// /3202 11020 21033 30058 40070 58019;
0256010010999992011010306004+70933-008667FM-12+0009ENJA V0200201N001010042019N0060001N1-00211-00351100641ADDAA112000021AA224000021AJ199991999999999GF108991071061004501999999IA1289KA1999N-00231MA1999999100521MD1810221+9999MW1771REMSYN106AAXX  03061 01001 11456 80201 11021 21035 30052 40064 58022 69912 777// 876// 333 21023 44999 70001 91106;EQDQ01  09962SNDP  
0101010010999992011010307004+70933-008667FM-12+0009ENJA V0200101N002019999999N9999999N1-00111-00211100611ADDMA1999999100491MD1610181+9999REMSYN060AAXX  03071 01001 46/// /0102 11011 21021 30049 40061 56018;
0101010010999992011010308004+70933-008667FM-12+0009ENJA V0200901N004019999999N9999999N1-00011-00101100641ADDMA1999999100521MD1510061+9999REMSYN060AAXX  03081 01001 46/// /0904 11001 21010 30052 40064 55006;
0161010010999992011010309004+70933-008667FM-12+0009ENJA V0200601N002010012019N0200001N1+00001-00091100661ADDAY171031AY221031GF107991071051001501999999MA1999999100541MD1310021+9999MW1021REMSYN072AAXX  03091 01001 41270 70602 10000 21009 30054 40066 53002 70272 875//;
0101010010999992011010310004+70933-008667FM-12+0009ENJA V0200801N003019999999N9999999N1+00011-00121100671ADDMA1999999100551MD1210051+9999REMSYN060AAXX  03101 01001 46/// /0803 10001 21012 30055 40067 52005;
0101010010999992011010311004+70933-008667FM-12+0009ENJA V0200601N003019999999N9999999N1+00011-00231100661ADDMA1999999100541MD1210021+9999REMSYN060AAXX  03111 01001 46/// /0603 10001 21023 30054 40066 52002;
0208010010999992011010312004+70933-008667FM-12+0009ENJA V0203201N002010240019N0250001N1-00061-00351100651ADDAA106000591AY171061AY221061GF107991031051008001071999MA1999999100531MD1710011+9999MW1021SA1+0009REMSYN100AAXX  03121 01001 11575 73202 11006 21035 30053 40065 57001 69941 70272 8357/ 222// 00000 333 91107;
0101010010999992011010313004+70933-008667FM-12+0009ENJA V0203401N003019999999N9999999N1-00011-00391100651ADDMA1999999100531MD1710011+9999REMSYN060AAXX  03131 01001 46/// /3403 11001 21039 30053 40065 57001;
0101010010999992011010314004+70933-008667FM-12+0009ENJA V0203601N011019999999N9999999N1-00101-00191100641ADDMA1999999100521MD1710021+9999REMSYN060AAXX  03141 01001 46/// /3611 11010 21019 30052 40064 57002;
0161010010999992011010315004+70933-008667FM-12+0009ENJA V0203601N009010090019N9999999N1-00131-00231100691ADDAY181031AY221031GF107991071081004501999999MA1999999100571MD1310041+9999MW1851REMSYN072AAXX  03151 01001 414// 73609 11013 21023 30057 40069 53004 78582 878//;
0101010010999992011010316004+70933-008667FM-12+0009ENJA V0200101N010019999999N9999999N1-00131-00241100651ADDMA1999999100531MD1810011+9999REMSYN060AAXX  03161 01001 46/// /0110 11013 21024 30053 40065 58001;
0101010010999992011010317004+70933-008667FM-12+0009ENJA V0203601N010019999999N9999999N1-00121-00231100681ADDMA1999999100561MD1310021+9999REMSYN060AAXX  03171 01001 46/// /3610 11012 21023 30056 40068 53002;
0207010010999992011010318004+70933-008667FM-12+0009ENJA V0203601N012010021019N0026001N1-00171-00251100691ADDAA112000591AY181061AY231061GF108991081031002501999999KA1120M+00021MA1999999100571MD1510011+9999MW1851REMSYN094AAXX  03181 01001 11326 83612 11017 21025 30057 40069 55001 69952 78583 883// 333 10002 91117;
0101010010999992011010319004+70933-008667FM-12+0009ENJA V0203601N015019999999N9999999N1-00291-00381100761ADDMA1999999100641MD1310111+9999REMSYN060AAXX  03191 01001 46/// /3615 11029 21038 30064 40076 53011;
0101010010999992011010320004+70933-008667FM-12+0009ENJA V0203501N015019999999N9999999N1-00341-00461100831ADDMA1999999100711MD1310151+9999REMSYN060AAXX  03201 01001 46/// /3515 11034 21046 30071 40083 53015;
0101010010999992011010321004+70933-008667FM-12+0009ENJA V0203501N014019999999N9999999N1-00331-00461100891ADDMA1999999100771MD1310191+9999REMSYN060AAXX  03211 01001 46/// /3514 11033 21046 30077 40089 53019;
0101010010999992011010322004+70933-008667FM-12+0009ENJA V0203501N014019999999N9999999N1-00331-00441100911ADDMA1999999100791MD1210161+9999REMSYN060AAXX  03221 01001 46/// /3514 11033 21044 30079 40091 52016;
0101010010999992011010323004+70933-008667FM-12+0009ENJA V0203501N015019999999N9999999N1-00311-00421100961ADDMA1999999100841MD1210131+9999REMSYN060AAXX  03231 01001 46/// /3515 11031 21042 30084 40096 52013;
0188010010999992011010400004+70933-008667FM-12+0009ENJA V0203401N013010042019N0026001N1-00351-00471101011ADDAA106000891AY181061AY231061GF108991081031004501999999MA1999999100891MD1210121+9999MW1851REMSYN088AAXX  04001 01001 11426 83413 11035 21047 30089 40101 52012 69971 78583 883// 333 91122;
0101010010999992011010401004+70933-008667FM-12+0009ENJA V0203501N014019999999N9999999N1-00321-00491101041ADDMA1999999100921MD1210131+9999REMSYN060AAXX  04011 01001 46/// /3514 11032 21049 30092 40104 52013;
0101010010999992011010402004+70933-008667FM-12+0009ENJA V0203501N014019999999N9999999N1-00301-00421101071ADDMA1999999100951MD1210111+9999REMSYN060AAXX  04021 01001 46/// /3514 11030 21042 30095 40107 52011;
0101010010999992011010403004+70933-008667FM-12+0009ENJA V0203601N013019999999N9999999N1-00291-00391101071ADDMA1999999100951MD1010071+9999REMSYN060AAXX  04031 01001 46/// /3613 11029 21039 30095 40107 50007;
0101010010999992011010404004+70933-008667FM-12+0009ENJA V0203601N016019999999N9999999N1-00311-00401101111ADDMA1999999100991MD1210071+9999REMSYN060AAXX  04041 01001 46/// /3616 11031 21040 30099 40111 52007;
0101010010999992011010405004+70933-008667FM-12+0009ENJA V0203601N016019999999N9999999N1-00361-00451101161ADDMA1999999101041MD1310091+9999REMSYN060AAXX  04051 01001 46/// /3616 11036 21045 30104 40116 53009;
0272010010999992011010406004+70933-008667FM-12+0009ENJA V0203501N015010042019N0010001N1-00391-00521101191ADDAA112002091AA224002091AJ199991999999999AY181061AY231061GF108991081031004501999999IA1249KA1999N-00391MA1999999101071MD1210121+9999MW1861REMSYN106AAXX  04061 01001 11410 83515 11039 21052 30107 40119 52012 60022 78683 883// 333 21039 48999 70021 91124;EQDQ01  09962SNDP  
0101010010999992011010407004+70933-008667FM-12+0009ENJA V0203601N016019999999N9999999N1-00401-00581101241ADDMA1999999101121MD1210141+9999REMSYN060AAXX  04071 01001 46/// /3616 11040 21058 30112 40124 52014;
0101010010999992011010408004+70933-008667FM-12+0009ENJA V0203601N015019999999N9999999N1-00391-00611101281ADDMA1999999101161MD1210121+9999REMSYN060AAXX  04081 01001 46/// /3615 11039 21061 30116 40128 52012;
0161010010999992011010409004+70933-008667FM-12+0009ENJA V0203601N016010090019N0060001N1-00371-00601101301ADDAY181031AY231031GF108991081081004501999999MA1999999101181MD1210111+9999MW1361REMSYN072AAXX  04091 01001 41456 83616 11037 21060 30118 40130 52011 73683 888//;
0101010010999992011010410004+70933-008667FM-12+0009ENJA V0203601N015019999999N9999999N1-00371-00571101331ADDMA1999999101211MD1210091+9999REMSYN060AAXX  04101 01001 46/// /3615 11037 21057 30121 40133 52009;
0101010010999992011010411004+70933-008667FM-12+0009ENJA V0203601N014019999999N9999999N1-00351-00651101381ADDMA1999999101261MD1210111+9999REMSYN060AAXX  04111 01001 46/// /3614 11035 21065 30126 40138 52011;
0208010010999992011010412004+70933-008667FM-12+0009ENJA V0203601N014010075019N0200001N1-00361-00641101391ADDAA106000021AY181061AY231061GF107991071051008001999999MA1999999101271MD1110081+9999MW1361SA1-0049REMSYN100AAXX  04121 01001 11570 73614 11036 21064 30127 40139 51008 69911 73683 875// 222// 01004 333 91124;
0101010010999992011010413004+70933-008667FM-12+0009ENJA V0203601N013019999999N9999999N1-00371-00691101401ADDMA1999999101281MD1110071+9999REMSYN060AAXX  04131 01001 46/// /3613 11037 21069 30128 40140 51007;
0101010010999992011010414004+70933-008667FM-12+0009ENJA V0203601N012019999999N9999999N1-00381-00801101431ADDMA1999999101311MD1310041+9999REMSYN060AAXX  04141 01001 46/// /3612 11038 21080 30131 40143 53004;
0161010010999992011010415004+70933-008667FM-12+0009ENJA V0203601N010010120019N0150001N1-00411-00791101451ADDAY131031AY221031GF107991071081008001999999MA1999999101331MD1310061+9999MW1021REMSYN072AAXX  04151 01001 41565 73610 11041 21079 30133 40145 53006 70232 878//;
0101010010999992011010416004+70933-008667FM-12+0009ENJA V0203601N012019999999N9999999N1-00421-00831101461ADDMA1999999101341MD1210061+9999REMSYN060AAXX  04161 01001 46/// /3612 11042 21083 30134 40146 52006;
0101010010999992011010417004+70933-008667FM-12+0009ENJA V0203601N010019999999N9999999N1-00461-00871101461ADDMA1999999101341MD1010031+9999REMSYN060AAXX  04171 01001 46/// /3610 11046 21087 30134 40146 50003;
0207010010999992011010418004+70933-008667FM-12+0009ENJA V0203601N012010120019N0150001N1-00491-00971101481ADDAA112000021AY181061AY231061GF106991061081008001001001KA1120M-00341MA1999999101361MD1310031+9999MW1021REMSYN094AAXX  04181 01001 11565 63612 11049 21097 30136 40148 53003 69912 70283 86800 333 11034 91121;
0101010010999992011010419004+70933-008667FM-12+0009ENJA V0203601N011019999999N9999999N1-00511-01081101511ADDMA1999999101391MD1310051+9999REMSYN060AAXX  04191 01001 46/// /3611 11051 21108 30139 40151 53005;
0101010010999992011010420004+70933-008667FM-12+0009ENJA V0203501N011019999999N9999999N1-00511-01061101471ADDMA1999999101351MD1010021+9999REMSYN060AAXX  04201 01001 46/// /3511 11051 21106 30135 40147 50002;
0101010010999992011010421004+70933-008667FM-12+0009ENJA V0203601N009019999999N9999999N1-00521-00951101521ADDMA1999999101401MD1310041+9999REMSYN060AAXX  04211 01001 46/// /3609 11052 21095 30140 40152 53004;
0101010010999992011010422004+70933-008667FM-12+0009ENJA V0203601N009019999999N9999999N1-00521-01011101501ADDMA1999999101381MD1510011+9999REMSYN060AAXX  04221 01001 46/// /3609 11052 21101 30138 40150 55001;
0101010010999992011010423004+70933-008667FM-12+0009ENJA V0203401N008019999999N9999999N1-00581-01141101531ADDMA1999999101411MD1110061+9999REMSYN060AAXX  04231 01001 46/// /3408 11058 21114 30141 40153 51006;
0207010010999992011010500004+70933-008667FM-12+0009ENJA V0200101N008010090019N0150001N1-00601-01141101501ADDAA106000091AY181061AY221061GF108991081081004501999999MA1999999101381MD1710011+9999MW1021REMSYN088AAXX  05001 01001 11465 80108 11060 21114 30138 40150 57001 69901 70282 888// 333 91118;EQDQ01  00002PRCP06
0101010010999992011010501004+70933-008667FM-12+0009ENJA V0200101N008019999999N9999999N1-00611-01111101481ADDMA1999999101361MD1810021+9999REMSYN060AAXX  05011 01001 46/// /0108 11061 21111 30136 40148 58002;
0101010010999992011010502004+70933-008667FM-12+0009ENJA V0203601N009019999999N9999999N1-00611-01231101481ADDMA1999999101361MD1610051+9999REMSYN060AAXX  05021 01001 46/// /3609 11061 21123 30136 40148 56005;
0101010010999992011010503004+70933-008667FM-12+0009ENJA V0203501N008019999999N9999999N1-00621-01281101451ADDMA1999999101331MD1810051+9999REMSYN060AAXX  05031 01001 46/// /3508 11062 21128 30133 40145 58005;
0101010010999992011010504004+70933-008667FM-12+0009ENJA V0203601N011019999999N9999999N1-00641-01191101441ADDMA1999999101321MD1810041+9999REMSYN060AAXX  05041 01001 46/// /3611 11064 21119 30132 40144 58004;
0101010010999992011010505004+70933-008667FM-12+0009ENJA V0203601N010019999999N9999999N1-00661-01401101411ADDMA1999999101291MD1710071+9999REMSYN060AAXX  05051 01001 46/// /3610 11066 21140 30129 40141 57007;
0288010010999992011010506004+70933-008667FM-12+0009ENJA V0203501N008010120019N0200001N1-00691-01141101381ADDAA112000091AA224000021AJ199991999999999AY181061AY221061GF108991081081008001999999IA1289KA1999N-00691MA1999999101261MD1710071+9999MW1021REMSYN106AAXX  05061 01001 11570 83508 11069 21114 30126 40138 57007 69902 70282 888// 333 21069 44999 70001 91115;EQDQ01  00002PRCP12Q02  09962SNDP  
0101010010999992011010507004+70933-008667FM-12+0009ENJA V0203601N009019999999N9999999N1-00671-01041101381ADDMA1999999101261MD1610061+9999REMSYN060AAXX  05071 01001 46/// /3609 11067 21104 30126 40138 56006;
0101010010999992011010508004+70933-008667FM-12+0009ENJA V0203601N010019999999N9999999N1-00721-01201101411ADDMA1999999101291MD1510001+9999REMSYN060AAXX  05081 01001 46/// /3610 11072 21120 30129 40141 55000;
0161010010999992011010509004+70933-008667FM-12+0009ENJA V0203601N010010120019N0100001N1-00761-01081101421ADDAY181031AY221031GF107991071081008001999999MA1999999101301MD1210041+9999MW1851REMSYN072AAXX  05091 01001 41560 73610 11076 21108 30130 40142 52004 78582 878//;
0101010010999992011010510004+70933-008667FM-12+0009ENJA V0203401N008019999999N9999999N1-00741-01091101391ADDMA1999999101271MD1010011+9999REMSYN060AAXX  05101 01001 46/// /3408 11074 21109 30127 40139 50001;
0101010010999992011010511004+70933-008667FM-12+0009ENJA V0203501N010019999999N9999999N1-00771-01191101321ADDMA1999999101201MD1810091+9999REMSYN060AAXX  05111 01001 46/// /3510 11077 21119 30120 40132 58009;
0208010010999992011010512004+70933-008667FM-12+0009ENJA V0203601N012010042019N0001001N1-00831-00951101311ADDAA106000591AY181061AY231061GF108991081031004501999999MA1999999101191MD1710111+9999MW1861SA1-0059REMSYN100AAXX  05121 01001 11401 83612 11083 21095 30119 40131 57011 69951 78683 883// 222// 01005 333 91120;
0101010010999992011010513004+70933-008667FM-12+0009ENJA V0203501N014019999999N9999999N1-00811-00991101271ADDMA1999999101151MD1610111+9999REMSYN060AAXX  05131 01001 46/// /3514 11081 21099 30115 40127 56011;
0101010010999992011010514004+70933-008667FM-12+0009ENJA V0203601N015019999999N9999999N1-00871-01021101261ADDMA1999999101141MD1710051+9999REMSYN060AAXX  05141 01001 46/// /3615 11087 21102 30114 40126 57005;
0101010010999992011010515004+70933-008667FM-12+0009ENJA V0203601N012019999999N9999999N1-00841-01141101271ADDMA1999999101151MD1610041+9999REMSYN060AAXX  05151 01001 46/// /3612 11084 21114 30115 40127 56004;
0101010010999992011010516004+70933-008667FM-12+0009ENJA V0200101N010019999999N9999999N1-00881-01181101171ADDMA1999999101051MD1810101+9999REMSYN060AAXX  05161 01001 46/// /0110 11088 21118 30105 40117 58010;
0101010010999992011010517004+70933-008667FM-12+0009ENJA V0200101N012019999999N9999999N1-00811-00901101171ADDMA1999999101051MD1810101+9999REMSYN060AAXX  05171 01001 46/// /0112 11081 21090 30105 40117 58010;
0136010010999992011010518004+70933-008667FM-12+0009ENJA V0200101N017019999999N9999999N1-00891-00991101151ADDKA1120M-00661MA1999999101031MD1610121+9999REMSYN082AAXX  05181 01001 16/// /0117 11089 21099 30103 40115 56012 6//// 333 11066 91126;
0101010010999992011010519004+70933-008667FM-12+0009ENJA V0200101N018019999999N9999999N1-00951-01071101211ADDMA1999999101091MD1310031+9999REMSYN060AAXX  05191 01001 46/// /0118 11095 21107 30109 40121 53003;
0101010010999992011010520004+70933-008667FM-12+0009ENJA V0200101N017019999999N9999999N1-01041-01181101241ADDMA1999999101121MD1310071+9999REMSYN060AAXX  05201 01001 46/// /0117 11104 21118 30112 40124 53007;
0101010010999992011010521004+70933-008667FM-12+0009ENJA V0203601N017019999999N9999999N1-01101-01281101291ADDMA1999999101171MD1310141+9999REMSYN060AAXX  05211 01001 46/// /3617 11110 21128 30117 40129 53014;
0101010010999992011010522004+70933-008667FM-12+0009ENJA V0203601N019019999999N9999999N1-01121-01331101231ADDMA1999999101111MD1010031+9999REMSYN060AAXX  05221 01001 46/// /3619 11112 21133 30111 40123 50003;
0101010010999992011010523004+70933-008667FM-12+0009ENJA V0203601N019019999999N9999999N1-01141-01271101171ADDMA1999999101051MD1810081+9999REMSYN060AAXX  05231 01001 46/// /3619 11114 21127 30105 40117 58008;
0188010010999992011010600004+70933-008667FM-12+0009ENJA V0203601N017010042019N0009001N1-01141-01361101141ADDAA106000891AY181061AY231061GF108991081031004501999999MA1999999101021MD1710151+9999MW1851REMSYN088AAXX  06001 01001 11409 83617 11114 21136 30102 40114 57015 69981 78583 883// 333 91129;
0101010010999992011010601004+70933-008667FM-12+0009ENJA V0203601N018019999999N9999999N1-01181-01391101081ADDMA1999999100961MD1710151+9999REMSYN060AAXX  06011 01001 46/// /3618 11118 21139 30096 40108 57015;
0101010010999992011010602004+70933-008667FM-12+0009ENJA V0203601N016019999999N9999999N1-01191-01401101041ADDMA1999999100921MD1710121+9999REMSYN060AAXX  06021 01001 46/// /3616 11119 21140 30092 40104 57012;
0101010010999992011010603004+70933-008667FM-12+0009ENJA V0203601N019019999999N9999999N1-01161-01321100951ADDMA1999999100831MD1810181+9999REMSYN060AAXX  06031 01001 46/// /3619 11116 21132 30083 40095 58018;
0101010010999992011010604004+70933-008667FM-12+0009ENJA V0203601N021019999999N9999999N1-01131-01261100871ADDMA1999999100751MD1810211+9999REMSYN060AAXX  06041 01001 46/// /3621 11113 21126 30075 40087 58021;
0101010010999992011010605004+70933-008667FM-12+0009ENJA V0203601N019019999999N9999999N1-01091-01201100771ADDMA1999999100651MD1610271+9999REMSYN060AAXX  06051 01001 46/// /3619 11109 21120 30065 40077 56027;
0255010010999992011010606004+70933-008667FM-12+0009ENJA V0203601N021010042019N0003001N1-01111-01291100741ADDAA106001091AJ199991999999999AY181061AY271061GF108991081071004501999999IA1249KA1999N-01201MA1999999100621MD1610211+9999MW1711REMSYN100AAXX  06061 01001 11403 83621 11111 21129 30062 40074 56021 69991 77187 887// 333 21120 48999 91131;EQDQ01  09962SNDP  
0101010010999992011010607004+70933-008667FM-12+0009ENJA V0203601N019019999999N9999999N1-01051-01251100691ADDMA1999999100571MD1610181+9999REMSYN060AAXX  06071 01001 46/// /3619 11105 21125 30057 40069 56018;
0101010010999992011010608004+70933-008667FM-12+0009ENJA V0203601N021019999999N9999999N1-01011-01171100601ADDMA1999999100481MD1810171+9999REMSYN060AAXX  06081 01001 46/// /3621 11101 21117 30048 40060 58017;
0161010010999992011010609004+70933-008667FM-12+0009ENJA V0200101N019010042019N0004001N1-00901-01021100471ADDAY181031AY271031GF108991081071004501999999MA1999999100351MD1810261+9999MW1711REMSYN072AAXX  06091 01001 41404 80119 11090 21102 30035 40047 58026 77187 887//;
0101010010999992011010610004+70933-008667FM-12+0009ENJA V0203601N022019999999N9999999N1-00831-00941100311ADDMA1999999100191MD1810381+9999REMSYN060AAXX  06101 01001 46/// /3622 11083 21094 30019 40031 58038;
0101010010999992011010611004+70933-008667FM-12+0009ENJA V0203601N022019999999N9999999N1-00731-00831100221ADDMA1999999100101MD1810381+9999REMSYN060AAXX  06111 01001 46/// /3622 11073 21083 30010 40022 58038;
0103010010999992011010612004+70933-008667FM-12+0009ENJA V02099999999999999999N9999999N1-00601-00691999999REMSYN094AAXX  06121 01001 11X02 93620 11060 21069 30007 40019 56029 60021 77173 222// 01012 333 91135;
0101010010999992011010613004+70933-008667FM-12+0009ENJA V0200101N023019999999N9999999N1-00541-00621100111ADDMA1999999099991MD1810201+9999REMSYN060AAXX  06131 01001 46/// /0123 11054 21062 39999 40011 58020;
0101010010999992011010614004+70933-008667FM-12+0009ENJA V0200201N025019999999N9999999N1-00571-00651099981ADDMA1999999099861MD1810231+9999REMSYN060AAXX  06141 01001 46/// /0225 11057 21065 39986 49998 58023;
0101010010999992011010615004+70933-008667FM-12+0009ENJA V0200101N025019999999N9999999N1-00521-00581099941ADDMA1999999099821MD1610251+9999REMSYN060AAXX  06151 01001 46/// /0125 11052 21058 39982 49994 56025;
0101010010999992011010616004+70933-008667FM-12+0009ENJA V0200201N021019999999N9999999N1-00491-00551099911ADDMA1999999099791MD1610201+9999REMSYN060AAXX  06161 01001 46/// /0221 11049 21055 39979 49991 56020;
0101010010999992011010617004+70933-008667FM-12+0009ENJA V0200301N025019999999N9999999N1-00451-00511099901ADDMA1999999099781MD1710081+9999REMSYN060AAXX  06171 01001 46/// /0325 11045 21051 39978 49990 57008;
0097010010999992011010618004+70933-008667FM-12+0009ENJA V02099999999999999999N9999999N1-00431-00481999999REMSYN088AAXX  06181 01001 11X00 90223 11043 21048 39987 49999 53005 60092 77373 333 11041 91137;
0101010010999992011010619004+70933-008667FM-12+0009ENJA V0200201N025019999999N9999999N1-00461-00521100071ADDMA1999999099951MD1310161+9999REMSYN060AAXX  06191 01001 46/// /0225 11046 21052 39995 40007 53016;
0101010010999992011010620004+70933-008667FM-12+0009ENJA V0200201N025019999999N9999999N1-00481-00541100181ADDMA1999999100061MD1110281+9999REMSYN060AAXX  06201 01001 46/// /0225 11048 21054 30006 40018 51028;
0101010010999992011010621004+70933-008667FM-12+0009ENJA V0200101N024019999999N9999999N1-00461-00511100331ADDMA1999999100211MD1310341+9999REMSYN060AAXX  06211 01001 46/// /0124 11046 21051 30021 40033 53034;
0101010010999992011010622004+70933-008667FM-12+0009ENJA V0200101N024019999999N9999999N1-00441-00491100421ADDMA1999999100301MD1110351+9999REMSYN060AAXX  06221 01001 46/// /0124 11044 21049 30030 40042 51035;
0101010010999992011010623004+70933-008667FM-12+0009ENJA V0200101N024019999999N9999999N1-00431-00481100431ADDMA1999999100311MD1110251+9999REMSYN060AAXX  06231 01001 46/// /0124 11043 21048 30031 40043 51025;
0091010010999992011010700004+70933-008667FM-12+0009ENJA V02099999999999999999N9999999N1-00431-00481999999REMSYN082AAXX  07001 01001 11X00 90125 11043 21048 30047 40059 53027 60081 78573 333 91138;
0101010010999992011010701004+70933-008667FM-12+0009ENJA V0200101N021019999999N9999999N1-00451-00511100681ADDMA1999999100561MD1310271+9999REMSYN060AAXX  07011 01001 46/// /0121 11045 21051 30056 40068 53027;
0101010010999992011010702004+70933-008667FM-12+0009ENJA V0200101N019019999999N9999999N1-00471-00531100761ADDMA1999999100641MD1110331+9999REMSYN060AAXX  07021 01001 46/// /0119 11047 21053 30064 40076 51033;
0101010010999992011010703004+70933-008667FM-12+0009ENJA V0200101N021019999999N9999999N1-00461-00531100771ADDMA1999999100651MD1110171+9999REMSYN060AAXX  07031 01001 46/// /0121 11046 21053 30065 40077 51017;
0101010010999992011010704004+70933-008667FM-12+0009ENJA V0200101N018019999999N9999999N1-00461-00531100781ADDMA1999999100661MD1010111+9999REMSYN060AAXX  07041 01001 46/// /0118 11046 21053 30066 40078 50011;
0101010010999992011010705004+70933-008667FM-12+0009ENJA V0200101N019019999999N9999999N1-00461-00531100751ADDMA1999999100631MD1010011+9999REMSYN060AAXX  07051 01001 46/// /0119 11046 21053 30063 40075 50001;
0272010010999992011010706004+70933-008667FM-12+0009ENJA V0200101N018010120019N0050001N1-00471-00541100791ADDAA112007991AA224017091AJ199991999999999AY181061AY231061GF108991081081008001999999IA1289KA1999N-00481MA1999999100671MD1010021+9999MW1361REMSYN106AAXX  07061 01001 11550 80118 11047 21054 30067 40079 50002 60082 73683 888// 333 21048 44999 70169 91131;EQDQ01  09962SNDP  
0101010010999992011010707004+70933-008667FM-12+0009ENJA V0200201N017019999999N9999999N1-00481-00551100841ADDMA1999999100721MD1310061+9999REMSYN060AAXX  07071 01001 46/// /0217 11048 21055 30072 40084 53006;
0101010010999992011010708004+70933-008667FM-12+0009ENJA V0203601N013019999999N9999999N1-00481-00561100901ADDMA1999999100781MD1310151+9999REMSYN060AAXX  07081 01001 46/// /3613 11048 21056 30078 40090 53015;
0101010010999992011010709004+70933-008667FM-12+0009ENJA V0200101N016019999999N9999999N1-00491-00591100921ADDMA1999999100801MD1310131+9999REMSYN060AAXX  07091 01001 46/// /0116 11049 21059 30080 40092 53013;
0101010010999992011010710004+70933-008667FM-12+0009ENJA V0200201N016019999999N9999999N1-00491-00591100951ADDMA1999999100831MD1310121+9999REMSYN060AAXX  07101 01001 46/// /0216 11049 21059 30083 40095 53012;
0101010010999992011010711004+70933-008667FM-12+0009ENJA V0200101N019019999999N9999999N1-00471-00581100951ADDMA1999999100831MD1310051+9999REMSYN060AAXX  07111 01001 46/// /0119 11047 21058 30083 40095 53005;
0227010010999992011010712004+70933-008667FM-12+0009ENJA V0200101N017010240019N0150001N1-00521-00661100871ADDAA106000091AY131061AY221061GF106991041081008001041081MA1999999100751MD1810051+9999MW1151SA1-0049REMSYN100AAXX  07121 01001 11565 60117 11052 21066 30075 40087 58005 60001 71532 84848 222// 01004 333 91130;EQDQ01  00002PRCP06
0101010010999992011010713004+70933-008667FM-12+0009ENJA V0200101N012019999999N9999999N1-00501-00651100931ADDMA1999999100811MD1510031+9999REMSYN060AAXX  07131 01001 46/// /0112 11050 21065 30081 40093 55003;
0101010010999992011010714004+70933-008667FM-12+0009ENJA V0200201N014019999999N9999999N1-00491-00671100931ADDMA1999999100811MD1510021+9999REMSYN060AAXX  07141 01001 46/// /0214 11049 21067 30081 40093 55002;
0101010010999992011010715004+70933-008667FM-12+0009ENJA V0203601N017019999999N9999999N1-00491-00721100831ADDMA1999999100711MD1810031+9999REMSYN060AAXX  07151 01001 46/// /3617 11049 21072 30071 40083 58003;
0101010010999992011010716004+70933-008667FM-12+0009ENJA V0200101N016019999999N9999999N1-00501-00781100911ADDMA1999999100791MD1510021+9999REMSYN060AAXX  07161 01001 46/// /0116 11050 21078 30079 40091 55002;
0101010010999992011010717004+70933-008667FM-12+0009ENJA V0200201N018019999999N9999999N1-00481-00851100891ADDMA1999999100771MD1510041+9999REMSYN060AAXX  07171 01001 46/// /0218 11048 21085 30077 40089 55004;
0226010010999992011010718004+70933-008667FM-12+0009ENJA V0200101N014010120019N0200001N1-00471-00731100841ADDAA112000091AY121061AY221061GF106991051081008001041001KA1120M-00451MA1999999100721MD1010001+9999MW1021REMSYN094AAXX  07181 01001 11570 60114 11047 21073 30072 40084 50000 60002 70222 85840 333 11045 91126;EQDQ01  00002PRCP12
0101010010999992011010719004+70933-008667FM-12+0009ENJA V0203601N011019999999N9999999N1-00411-00681100861ADDMA1999999100741MD1810051+9999REMSYN060AAXX  07191 01001 46/// /3611 11041 21068 30074 40086 58005;
0101010010999992011010720004+70933-008667FM-12+0009ENJA V0200101N014019999999N9999999N1-00441-00611100921ADDMA1999999100801MD1310031+9999REMSYN060AAXX  07201 01001 46/// /0114 11044 21061 30080 40092 53003;
0101010010999992011010721004+70933-008667FM-12+0009ENJA V0200101N011019999999N9999999N1-00441-00781100921ADDMA1999999100801MD1110091+9999REMSYN060AAXX  07211 01001 46/// /0111 11044 21078 30080 40092 51009;
0101010010999992011010722004+70933-008667FM-12+0009ENJA V0200401N012019999999N9999999N1-00471-00611100921ADDMA1999999100801MD1010061+9999REMSYN060AAXX  07221 01001 46/// /0412 11047 21061 30080 40092 50006;
0101010010999992011010723004+70933-008667FM-12+0009ENJA V0203601N011019999999N9999999N1-00431-00781100901ADDMA1999999100781MD1810011+9999REMSYN060AAXX  07231 01001 46/// /3611 11043 21078 30078 40090 58001;
0207010010999992011010800004+70933-008667FM-12+0009ENJA V0203601N010010150019N0150001N1-00451-00791100901ADDAA106000091AY121061AY221061GF108991081081012501999999MA1999999100781MD1710021+9999MW1021REMSYN088AAXX  08001 01001 11665 83610 11045 21079 30078 40090 57002 60001 70222 888// 333 91121;EQDQ01  00002PRCP06
0101010010999992011010801004+70933-008667FM-12+0009ENJA V0200101N009019999999N9999999N1-00461-00691100881ADDMA1999999100761MD1710041+9999REMSYN060AAXX  08011 01001 46/// /0109 11046 21069 30076 40088 57004;
0101010010999992011010802004+70933-008667FM-12+0009ENJA V0200201N007019999999N9999999N1-00471-00711100841ADDMA1999999100721MD1810061+9999REMSYN060AAXX  08021 01001 46/// /0207 11047 21071 30072 40084 58006;
0101010010999992011010803004+70933-008667FM-12+0009ENJA V0200101N007019999999N9999999N1-00521-00641100831ADDMA1999999100711MD1510071+9999REMSYN060AAXX  08031 01001 46/// /0107 11052 21064 30071 40083 55007;
0101010010999992011010804004+70933-008667FM-12+0009ENJA V0200201N007019999999N9999999N1-00481-00621100771ADDMA1999999100651MD1810111+9999REMSYN060AAXX  08041 01001 46/// /0207 11048 21062 30065 40077 58011;
0101010010999992011010805004+70933-008667FM-12+0009ENJA V0203601N008019999999N9999999N1-00481-00731100741ADDMA1999999100621MD1810101+9999REMSYN060AAXX  08051 01001 46/// /3608 11048 21073 30062 40074 58010;
0272010010999992011010806004+70933-008667FM-12+0009ENJA V0203501N007010042019N0060001N1-00521-00721100711ADDAA112000891AA224000891AJ199991999999999AY181061AY231061GF108991081031004501999999IA1249KA1999N-00541MA1999999100591MD1710121+9999MW1851REMSYN106AAXX  08061 01001 11456 83507 11052 21072 30059 40071 57012 69972 78583 883// 333 21054 48999 70007 91117;EQDQ01  09962SNDP  
0101010010999992011010807004+70933-008667FM-12+0009ENJA V0203601N007019999999N9999999N1-00581-00731100711ADDMA1999999100591MD1510071+9999REMSYN060AAXX  08071 01001 46/// /3607 11058 21073 30059 40071 55007;
0101010010999992011010808004+70933-008667FM-12+0009ENJA V0203401N007019999999N9999999N1-00551-00771100701ADDMA1999999100581MD1510041+9999REMSYN060AAXX  08081 01001 46/// /3407 11055 21077 30058 40070 55004;
0161010010999992011010809004+70933-008667FM-12+0009ENJA V0203501N007010042019N0100001N1-00571-00831100701ADDAY181031AY231031GF108991081031004501999999MA1999999100581MD1710011+9999MW1361REMSYN072AAXX  08091 01001 41460 83507 11057 21083 30058 40070 57001 73683 883//;
0101010010999992011010810004+70933-008667FM-12+0009ENJA V0203501N005019999999N9999999N1-00581-00861100701ADDMA1999999100581MD1410001+9999REMSYN060AAXX  08101 01001 46/// /3505 11058 21086 30058 40070 54001;
0101010010999992011010811004+70933-008667FM-12+0009ENJA V0203401N008019999999N9999999N1-00591-00811100641ADDMA1999999100521MD1810071+9999REMSYN060AAXX  08111 01001 46/// /3408 11059 21081 30052 40064 58007;
0208010010999992011010812004+70933-008667FM-12+0009ENJA V0203301N007010090019N0100001N1-00591-00851100611ADDAA106000591AY181061AY231061GF107991071081004501999999MA1999999100491MD1810081+9999MW1851SA1-0069REMSYN100AAXX  08121 01001 11460 73307 11059 21085 30049 40061 58008 69961 78583 878// 222// 01006 333 91112;
0101010010999992011010813004+70933-008667FM-12+0009ENJA V0203301N006019999999N9999999N1-00581-00791100631ADDMA1999999100511MD1510071+9999REMSYN060AAXX  08131 01001 46/// /3306 11058 21079 30051 40063 55007;
0101010010999992011010814004+70933-008667FM-12+0009ENJA V0203301N009019999999N9999999N1-00551-00721100581ADDMA1999999100461MD1810051+9999REMSYN060AAXX  08141 01001 46/// /3309 11055 21072 30046 40058 58005;
0101010010999992011010815004+70933-008667FM-12+0009ENJA V0203501N006019999999N9999999N1-00531-00721100601ADDMA1999999100481MD1510011+9999REMSYN060AAXX  08151 01001 46/// /3506 11053 21072 30048 40060 55001;
0101010010999992011010816004+70933-008667FM-12+0009ENJA V0203601N004019999999N9999999N1-00571-00811100571ADDMA1999999100451MD1610061+9999REMSYN060AAXX  08161 01001 46/// /3604 11057 21081 30045 40057 56006;
0101010010999992011010817004+70933-008667FM-12+0009ENJA V0203501N005019999999N9999999N1-00521-00831100571ADDMA1999999100451MD1810011+9999REMSYN060AAXX  08171 01001 46/// /3505 11052 21083 30045 40057 58001;
0207010010999992011010818004+70933-008667FM-12+0009ENJA V0203401N006010042019N0010001N1-00541-00731100601ADDAA112000891AY181061AY231061GF108991081031004501999999KA1120M-00501MA1999999100481MD1510001+9999MW1861REMSYN094AAXX  08181 01001 11410 83406 11054 21073 30048 40060 55000 69972 78683 883// 333 11050 91111;
0101010010999992011010819004+70933-008667FM-12+0009ENJA V0200101N016019999999N9999999N1-00631-00721100641ADDMA1999999100521MD1310081+9999REMSYN060AAXX  08191 01001 46/// /0116 11063 21072 30052 40064 53008;
0101010010999992011010820004+70933-008667FM-12+0009ENJA V0200101N016019999999N9999999N1-00681-00761100721ADDMA1999999100601MD1310161+9999REMSYN060AAXX  08201 01001 46/// /0116 11068 21076 30060 40072 53016;
0101010010999992011010821004+70933-008667FM-12+0009ENJA V0203601N013019999999N9999999N1-00711-00791100781ADDMA1999999100661MD1310181+9999REMSYN060AAXX  08211 01001 46/// /3613 11071 21079 30066 40078 53018;
0101010010999992011010822004+70933-008667FM-12+0009ENJA V0203601N014019999999N9999999N1-00761-00851100831ADDMA1999999100711MD1210191+9999REMSYN060AAXX  08221 01001 46/// /3614 11076 21085 30071 40083 52019;
0101010010999992011010823004+70933-008667FM-12+0009ENJA V0203501N014019999999N9999999N1-00781-00861100881ADDMA1999999100761MD1210161+9999REMSYN060AAXX  08231 01001 46/// /3514 11078 21086 30076 40088 52016;
0188010010999992011010900004+70933-008667FM-12+0009ENJA V0203501N013010042019N0000001N1-00761-00841100881ADDAA106003091AY181061AY271061GF108991081071004501999999MA1999999100761MD1110091+9999MW1731REMSYN088AAXX  09001 01001 11400 83513 11076 21084 30076 40088 51009 60031 77387 887// 333 91123;
0101010010999992011010901004+70933-008667FM-12+0009ENJA V0203501N014019999999N9999999N1-00681-00751100831ADDMA1999999100711MD1010001+9999REMSYN060AAXX  09011 01001 46/// /3514 11068 21075 30071 40083 50000;
0101010010999992011010902004+70933-008667FM-12+0009ENJA V0200101N013019999999N9999999N1-00611-00681100831ADDMA1999999100711MD1710041+9999REMSYN060AAXX  09021 01001 46/// /0113 11061 21068 30071 40083 57004;
0101010010999992011010903004+70933-008667FM-12+0009ENJA V0200101N015019999999N9999999N1-00561-00631100781ADDMA1999999100661MD1810081+9999REMSYN060AAXX  09031 01001 46/// /0115 11056 21063 30066 40078 58008;
0101010010999992011010904004+70933-008667FM-12+0009ENJA V0200101N014019999999N9999999N1-00631-00721100841ADDMA1999999100721MD1510011+9999REMSYN060AAXX  09041 01001 46/// /0114 11063 21072 30072 40084 55001;
0101010010999992011010905004+70933-008667FM-12+0009ENJA V0200101N016019999999N9999999N1-00671-00771100871ADDMA1999999100751MD1310051+9999REMSYN060AAXX  09051 01001 46/// /0116 11067 21077 30075 40087 53005;
0272010010999992011010906004+70933-008667FM-12+0009ENJA V0200101N016010120019N0010001N1-00731-00841100941ADDAA112006191AA224006691AJ199991999999999AY181061AY271061GF106991061081008001001001IA1299KA1999N-00791MA1999999100821MD1310181+9999MW1851REMSYN106AAXX  09061 01001 11510 60116 11073 21084 30082 40094 53018 60062 78587 86800 333 21079 49999 70067 91124;EQDQ01  09962SNDP  
0101010010999992011010907004+70933-008667FM-12+0009ENJA V0200101N015019999999N9999999N1-00751-00851101011ADDMA1999999100891MD1310171+9999REMSYN060AAXX  09071 01001 46/// /0115 11075 21085 30089 40101 53017;
0101010010999992011010908004+70933-008667FM-12+0009ENJA V0203601N013019999999N9999999N1-00761-00871101051ADDMA1999999100931MD1210171+9999REMSYN060AAXX  09081 01001 46/// /3613 11076 21087 30093 40105 52017;
0161010010999992011010909004+70933-008667FM-12+0009ENJA V0203601N013010120019N0010001N1-00721-00841101091ADDAY181031AY231031GF106991061081008001001001MA1999999100971MD1010141+9999MW1381REMSYN072AAXX  09091 01001 41510 63613 11072 21084 30097 40109 50014 73883 86800;
0101010010999992011010910004+70933-008667FM-12+0009ENJA V0203601N013019999999N9999999N1-00721-00851101091ADDMA1999999100971MD1010081+9999REMSYN060AAXX  09101 01001 46/// /3613 11072 21085 30097 40109 50008;
0101010010999992011010911004+70933-008667FM-12+0009ENJA V0203601N015019999999N9999999N1-00691-00831101051ADDMA1999999100931MD1010011+9999REMSYN060AAXX  09111 01001 46/// /3615 11069 21083 30093 40105 50001;
0208010010999992011010912004+70933-008667FM-12+0009ENJA V0203601N014010090019N0100001N1-00661-00821101001ADDAA106000021AY181061AY231061GF106991051081004501071001MA1999999100881MD1810081+9999MW1361SA1-0129REMSYN100AAXX  09121 01001 11460 63614 11066 21082 30088 40100 58008 69901 73683 85870 222// 01012 333 91123;
0101010010999992011010913004+70933-008667FM-12+0009ENJA V0203601N014019999999N9999999N1-00591-00771100971ADDMA1999999100851MD1610131+9999REMSYN060AAXX  09131 01001 46/// /3614 11059 21077 30085 40097 56013;
0101010010999992011010914004+70933-008667FM-12+0009ENJA V0203501N014019999999N9999999N1-00541-00731100921ADDMA1999999100801MD1710131+9999REMSYN060AAXX  09141 01001 46/// /3514 11054 21073 30080 40092 57013;
0101010010999992011010915004+70933-008667FM-12+0009ENJA V0203401N013019999999N9999999N1-00491-00701100891ADDMA1999999100771MD1710111+9999REMSYN060AAXX  09151 01001 46/// /3413 11049 21070 30077 40089 57011;
0101010010999992011010916004+70933-008667FM-12+0009ENJA V0203301N013019999999N9999999N1-00431-00601100861ADDMA1999999100741MD1610111+9999REMSYN060AAXX  09161 01001 46/// /3313 11043 21060 30074 40086 56011;
0101010010999992011010917004+70933-008667FM-12+0009ENJA V0203401N013019999999N9999999N1-00361-00501100791ADDMA1999999100671MD1810121+9999REMSYN060AAXX  09171 01001 46/// /3413 11036 21050 30067 40079 58012;
0207010010999992011010918004+70933-008667FM-12+0009ENJA V0203401N010010090019N0100001N1-00261-00401100801ADDAA112000021AY131061AY221061GF107991071081004501999999KA1120M-00261MA1999999100681MD1510091+9999MW1361REMSYN094AAXX  09181 01001 11460 73410 11026 21040 30068 40080 55009 69912 73632 878// 333 11026 91121;
0101010010999992011010919004+70933-008667FM-12+0009ENJA V0203401N009019999999N9999999N1-00151-00271100801ADDMA1999999100681MD1510061+9999REMSYN060AAXX  09191 01001 46/// /3409 11015 21027 30068 40080 55006;
0101010010999992011010920004+70933-008667FM-12+0009ENJA V0203501N007019999999N9999999N1-00021-00131100791ADDMA1999999100671MD1010011+9999REMSYN060AAXX  09201 01001 46/// /3507 11002 21013 30067 40079 50001;
0101010010999992011010921004+70933-008667FM-12+0009ENJA V0203601N006019999999N9999999N1+00001-00191100811ADDMA1999999100691MD1510011+9999REMSYN060AAXX  09211 01001 46/// /3606 10000 21019 30069 40081 55001;
0101010010999992011010922004+70933-008667FM-12+0009ENJA V0200401N008019999999N9999999N1-00011-00281100871ADDMA1999999100751MD1310071+9999REMSYN060AAXX  09221 01001 46/// /0408 11001 21028 30075 40087 53007;
0101010010999992011010923004+70933-008667FM-12+0009ENJA V0200401N010019999999N9999999N1+00001-00311100921ADDMA1999999100801MD1310141+9999REMSYN060AAXX  09231 01001 46/// /0410 10000 21031 30080 40092 53014;
0207010010999992011011000004+70933-008667FM-12+0009ENJA V0200501N013012200019N0200001N1-00031-00341100941ADDAA106000091AY131061AY211061GF103991021081004501071001MA1999999100821MD1310141+9999MW1021REMSYN088AAXX  10001 01001 11470 30513 11003 21034 30082 40094 53014 60001 70231 82870 333 91121;EQDQ01  00002PRCP06
0101010010999992011011001004+70933-008667FM-12+0009ENJA V0200801N005019999999N9999999N1-00011-00361100991ADDMA1999999100871MD1310121+9999REMSYN060AAXX  10011 01001 46/// /0805 11001 21036 30087 40099 53012;
0101010010999992011011002004+70933-008667FM-12+0009ENJA V0203601N005019999999N9999999N1-00081-00421101041ADDMA1999999100921MD1310141+9999REMSYN060AAXX  10021 01001 46/// /3605 11008 21042 30092 40104 53014;
0101010010999992011011003004+70933-008667FM-12+0009ENJA V0200101N005019999999N9999999N1-00121-00481101121ADDMA1999999101001MD1310181+9999REMSYN060AAXX  10031 01001 46/// /0105 11012 21048 30100 40112 53018;
0101010010999992011011004004+70933-008667FM-12+0009ENJA V0200301N010019999999N9999999N1-00191-00531101211ADDMA1999999101091MD1310221+9999REMSYN060AAXX  10041 01001 46/// /0310 11019 21053 30109 40121 53022;
0101010010999992011011005004+70933-008667FM-12+0009ENJA V0200201N011019999999N9999999N1-00221-00561101261ADDMA1999999101141MD1110201+9999REMSYN060AAXX  10051 01001 46/// /0211 11022 21056 30114 40126 51020;
0288010010999992011011006004+70933-008667FM-12+0009ENJA V0200101N017012200019N0090001N1-00331-00591101221ADDAA112000091AA224000021AJ199991999999999AY131061AY201061GF102991021021008001001001IA1289KA1999N-00331MA1999999101101MD1010091+9999MW1361REMSYN106AAXX  10061 01001 11559 20117 11033 21059 30110 40122 50009 60002 73630 82200 333 21033 44999 70001 91122;EQDQ01  00002PRCP12Q02  09962SNDP  
0101010010999992011011007004+70933-008667FM-12+0009ENJA V0200101N013019999999N9999999N1-00321-00661101351ADDMA1999999101231MD1310161+9999REMSYN060AAXX  10071 01001 46/// /0113 11032 21066 30123 40135 53016;
0101010010999992011011008004+70933-008667FM-12+0009ENJA V0200101N014019999999N9999999N1-00331-00571101331ADDMA1999999101211MD1010081+9999REMSYN060AAXX  10081 01001 46/// /0114 11033 21057 30121 40133 50008;
0161010010999992011011009004+70933-008667FM-12+0009ENJA V0200101N013010240019N0040001N1-00331-00571101431ADDAY181031AY231031GF105991041081008001071001MA1999999101311MD1110221+9999MW1851REMSYN072AAXX  10091 01001 41540 50113 11033 21057 30131 40143 51022 78583 84870;
0101010010999992011011010004+70933-008667FM-12+0009ENJA V0200101N010019999999N9999999N1-00311-00801101521ADDMA1999999101401MD1310151+9999REMSYN060AAXX  10101 01001 46/// /0110 11031 21080 30140 40152 53015;
0101010010999992011011011004+70933-008667FM-12+0009ENJA V0200201N013019999999N9999999N1-00331-00681101561ADDMA1999999101441MD1110221+9999REMSYN060AAXX  10111 01001 46/// /0213 11033 21068 30144 40156 51022;
0208010010999992011011012004+70933-008667FM-12+0009ENJA V0200101N015010120019N0150001N1-00321-00751101551ADDAA106000021AY181061AY231061GF106991051081008001061011MA1999999101431MD1010111+9999MW1851SA1-0089REMSYN100AAXX  10121 01001 11565 60115 11032 21075 30143 40155 50011 69901 78583 85861 222// 01008 333 91125;
0101010010999992011011013004+70933-008667FM-12+0009ENJA V0200101N012019999999N9999999N1-00291-00861101561ADDMA1999999101441MD1010041+9999REMSYN060AAXX  10131 01001 46/// /0112 11029 21086 30144 40156 50004;
0101010010999992011011014004+70933-008667FM-12+0009ENJA V0200201N009019999999N9999999N1-00291-00881101611ADDMA1999999101491MD1310051+9999REMSYN060AAXX  10141 01001 46/// /0209 11029 21088 30149 40161 53005;
0161010010999992011011015004+70933-008667FM-12+0009ENJA V0200201N012010090019N0120001N1-00271-00881101621ADDAY181031AY231031GF106991051081004501061001MA1999999101501MD1310071+9999MW1361REMSYN072AAXX  10151 01001 41462 60212 11027 21088 30150 40162 53007 73683 85860;
0101010010999992011011016004+70933-008667FM-12+0009ENJA V0200201N014019999999N9999999N1-00381-00581101601ADDMA1999999101481MD1310041+9999REMSYN060AAXX  10161 01001 46/// /0214 11038 21058 30148 40160 53004;
0101010010999992011011017004+70933-008667FM-12+0009ENJA V0200101N014019999999N9999999N1-00291-00671101571ADDMA1999999101451MD1810031+9999REMSYN060AAXX  10171 01001 46/// /0114 11029 21067 30145 40157 58003;
0207010010999992011011018004+70933-008667FM-12+0009ENJA V0200201N010012200019N0300001N1-00291-00751101651ADDAA112000021AY181061AY231061GF103991021081008001061001KA1120M-00251MA1999999101531MD1310031+9999MW1011REMSYN094AAXX  10181 01001 11580 30210 11029 21075 30153 40165 53003 69902 70183 82860 333 11025 91125;
0101010010999992011011019004+70933-008667FM-12+0009ENJA V0200301N011019999999N9999999N1-00291-00901101701ADDMA1999999101581MD1310111+9999REMSYN060AAXX  10191 01001 46/// /0311 11029 21090 30158 40170 53011;
0101010010999992011011020004+70933-008667FM-12+0009ENJA V0200201N013019999999N9999999N1-00291-00791101711ADDMA1999999101591MD1110151+9999REMSYN060AAXX  10201 01001 46/// /0213 11029 21079 30159 40171 51015;
0101010010999992011011021004+70933-008667FM-12+0009ENJA V0200101N012019999999N9999999N1-00421-00521101751ADDMA1999999101631MD1110111+9999REMSYN060AAXX  10211 01001 46/// /0112 11042 21052 30163 40175 51011;
0101010010999992011011022004+70933-008667FM-12+0009ENJA V0200101N014019999999N9999999N1-00411-00511101791ADDMA1999999101671MD1310081+9999REMSYN060AAXX  10221 01001 46/// /0114 11041 21051 30167 40179 53008;
0101010010999992011011023004+70933-008667FM-12+0009ENJA V0200101N012019999999N9999999N1-00371-00611101811ADDMA1999999101691MD1310101+9999REMSYN060AAXX  10231 01001 46/// /0112 11037 21061 30169 40181 53010;
0188010010999992011011100004+70933-008667FM-12+0009ENJA V0200101N011012200019N0080001N1-00351-00671101831ADDAA106000591AY181061AY231061GF104991031031004501061001MA1999999101711MD1110081+9999MW1851REMSYN088AAXX  11001 01001 11458 40111 11035 21067 30171 40183 51008 69941 78583 83360 333 91123;
0101010010999992011011101004+70933-008667FM-12+0009ENJA V0203601N013019999999N9999999N1-00361-00591101881ADDMA1999999101761MD1310091+9999REMSYN060AAXX  11011 01001 46/// /3613 11036 21059 30176 40188 53009;
0101010010999992011011102004+70933-008667FM-12+0009ENJA V0203601N011019999999N9999999N1-00361-00641101931ADDMA1999999101811MD1310121+9999REMSYN060AAXX  11021 01001 46/// /3611 11036 21064 30181 40193 53012;
0101010010999992011011103004+70933-008667FM-12+0009ENJA V0203601N012019999999N9999999N1-00411-00751101921ADDMA1999999101801MD1010101+9999REMSYN060AAXX  11031 01001 46/// /3612 11041 21075 30180 40192 50010;
0101010010999992011011104004+70933-008667FM-12+0009ENJA V0203601N013019999999N9999999N1-00411-00701101941ADDMA1999999101821MD1110061+9999REMSYN060AAXX  11041 01001 46/// /3613 11041 21070 30182 40194 51006;
0101010010999992011011105004+70933-008667FM-12+0009ENJA V0203601N011019999999N9999999N1-00401-00681101971ADDMA1999999101851MD1310041+9999REMSYN060AAXX  11051 01001 46/// /3611 11040 21068 30185 40197 53004;
0272010010999992011011106004+70933-008667FM-12+0009ENJA V0203601N011012200019N0060001N1-00401-00701101971ADDAA112000591AA224000591AJ199991999999999AY181061AY231061GF104991031081004501061001IA1249KA1999N-00431MA1999999101851MD1210051+9999MW1851REMSYN106AAXX  11061 01001 11456 43611 11040 21070 30185 40197 52005 69942 78583 83860 333 21043 48999 70004 91119;EQDQ01  09962SNDP  
0101010010999992011011107004+70933-008667FM-12+0009ENJA V0203601N012019999999N9999999N1-00401-00671102001ADDMA1999999101881MD1310061+9999REMSYN060AAXX  11071 01001 46/// /3612 11040 21067 30188 40200 53006;
0101010010999992011011108004+70933-008667FM-12+0009ENJA V0203501N012019999999N9999999N1-00401-00671102051ADDMA1999999101931MD1310081+9999REMSYN060AAXX  11081 01001 46/// /3512 11040 21067 30193 40205 53008;
0161010010999992011011109004+70933-008667FM-12+0009ENJA V0203501N012010090019N0060001N1-00431-00671102101ADDAY181031AY231031GF107991071081004501999999MA1999999101981MD1310141+9999MW1851REMSYN072AAXX  11091 01001 41456 73512 11043 21067 30198 40210 53014 78583 878//;
0101010010999992011011110004+70933-008667FM-12+0009ENJA V0203501N011019999999N9999999N1-00411-00641102121ADDMA1999999102001MD1210131+9999REMSYN060AAXX  11101 01001 46/// /3511 11041 21064 30200 40212 52013;
0101010010999992011011111004+70933-008667FM-12+0009ENJA V0203501N012019999999N9999999N1-00411-00621102161ADDMA1999999102041MD1110121+9999REMSYN060AAXX  11111 01001 46/// /3512 11041 21062 30204 40216 51012;
0208010010999992011011112004+70933-008667FM-12+0009ENJA V0203601N011010090019N0070001N1-00401-00661102181ADDAA106000021AY181061AY231061GF107991061081004501061999MA1999999102061MD1210081+9999MW1851SA1-0089REMSYN100AAXX  11121 01001 11457 73611 11040 21066 30206 40218 52008 69901 78583 8686/ 222// 01008 333 91118;
0101010010999992011011113004+70933-008667FM-12+0009ENJA V0203601N010019999999N9999999N1-00411-00741102171ADDMA1999999102051MD1010051+9999REMSYN060AAXX  11131 01001 46/// /3610 11041 21074 30205 40217 50005;
0101010010999992011011114004+70933-008667FM-12+0009ENJA V0203501N010019999999N9999999N1-00431-00671102191ADDMA1999999102071MD1210031+9999REMSYN060AAXX  11141 01001 46/// /3510 11043 21067 30207 40219 52003;
0161010010999992011011115004+70933-008667FM-12+0009ENJA V0203501N008010090019N0070001N1-00371-00691102191ADDAY181031AY231031GF106991051081004501001081MA1999999102071MD1210011+9999MW1361REMSYN072AAXX  11151 01001 41457 63508 11037 21069 30207 40219 52001 73683 85808;
0101010010999992011011116004+70933-008667FM-12+0009ENJA V0203501N009019999999N9999999N1-00371-00711102211ADDMA1999999102091MD1210031+9999REMSYN060AAXX  11161 01001 46/// /3509 11037 21071 30209 40221 52003;
0101010010999992011011117004+70933-008667FM-12+0009ENJA V0203501N008019999999N9999999N1-00341-00641102201ADDMA1999999102081MD1010001+9999REMSYN060AAXX  11171 01001 46/// /3508 11034 21064 30208 40220 50000;
0207010010999992011011118004+70933-008667FM-12+0009ENJA V0203601N010010090019N0100001N1-00321-00661102211ADDAA112000021AY131061AY221061GF106991061081004501001001KA1120M-00311MA1999999102091MD1210021+9999MW1021REMSYN094AAXX  11181 01001 11460 63610 11032 21066 30209 40221 52002 60002 70232 86800 333 11031 91116;
0101010010999992011011119004+70933-008667FM-12+0009ENJA V0203601N008019999999N9999999N1-00351-00551102221ADDMA1999999102101MD1410001+9999REMSYN060AAXX  11191 01001 46/// /3608 11035 21055 30210 40222 54001;
0101010010999992011011120004+70933-008667FM-12+0009ENJA V0203601N010019999999N9999999N1-00331-00741102221ADDMA1999999102101MD1010031+9999REMSYN060AAXX  11201 01001 46/// /3610 11033 21074 30210 40222 50003;
0101010010999992011011121004+70933-008667FM-12+0009ENJA V0203601N009019999999N9999999N1-00361-00591102251ADDMA1999999102131MD1310041+9999REMSYN060AAXX  11211 01001 46/// /3609 11036 21059 30213 40225 53004;
0101010010999992011011122004+70933-008667FM-12+0009ENJA V0200201N007019999999N9999999N1-00361-00671102241ADDMA1999999102121MD1210031+9999REMSYN060AAXX  11221 01001 46/// /0207 11036 21067 30212 40224 52003;
0101010010999992011011123004+70933-008667FM-12+0009ENJA V0203501N008019999999N9999999N1-00331-00681102231ADDMA1999999102111MD1010011+9999REMSYN060AAXX  11231 01001 46/// /3508 11033 21068 30211 40223 50001;
0207010010999992011011200004+70933-008667FM-12+0009ENJA V0200101N006012200019N0150001N1-00351-00651102221ADDAA106000091AY181061AY231061GF104991041031008001001001MA1999999102101MD1710031+9999MW1021REMSYN088AAXX  12001 01001 11565 40106 11035 21065 30210 40222 57003 69901 70283 84300 333 91115;EQDQ01  00002PRCP06
0101010010999992011011201004+70933-008667FM-12+0009ENJA V0203401N008019999999N9999999N1-00351-00691102201ADDMA1999999102081MD1710041+9999REMSYN060AAXX  12011 01001 46/// /3408 11035 21069 30208 40220 57004;
0101010010999992011011202004+70933-008667FM-12+0009ENJA V0203601N006019999999N9999999N1-00351-00811102211ADDMA1999999102091MD1710021+9999REMSYN060AAXX  12021 01001 46/// /3606 11035 21081 30209 40221 57002;
0101010010999992011011203004+70933-008667FM-12+0009ENJA V0203501N008019999999N9999999N1-00331-00561102221ADDMA1999999102101MD1410001+9999REMSYN060AAXX  12031 01001 46/// /3508 11033 21056 30210 40222 54000;
0101010010999992011011204004+70933-008667FM-12+0009ENJA V0200101N008019999999N9999999N1-00391-00711102201ADDMA1999999102081MD1010001+9999REMSYN060AAXX  12041 01001 46/// /0108 11039 21071 30208 40220 50000;
0101010010999992011011205004+70933-008667FM-12+0009ENJA V0200201N007019999999N9999999N1-00481-00551102201ADDMA1999999102081MD1410001+9999REMSYN060AAXX  12051 01001 46/// /0207 11048 21055 30208 40220 54001;
0272010010999992011011206004+70933-008667FM-12+0009ENJA V0200101N008012200019N0100001N1-00431-00611102181ADDAA112002092AA224001592AJ199991999999999AY181061AY231061GF104991041081004501001001IA1299KA1999N-00501MA1999999102061MD1710041+9999MW1361REMSYN106AAXX  12061 01001 11460 40108 11043 21061 30206 40218 57004 60022 73683 84800 333 21050 49999 70015 91114;EQDQ01  09962SNDP  
0101010010999992011011207004+70933-008667FM-12+0009ENJA V0200101N010019999999N9999999N1-00481-00611102181ADDMA1999999102061MD1710021+9999REMSYN060AAXX  12071 01001 46/// /0110 11048 21061 30206 40218 57002;
0101010010999992011011208004+70933-008667FM-12+0009ENJA V0203601N008019999999N9999999N1-00431-00741102221ADDMA1999999102101MD1310031+9999REMSYN060AAXX  12081 01001 46/// /3608 11043 21074 30210 40222 53003;
0161010010999992011011209004+70933-008667FM-12+0009ENJA V0203601N008010090019N0060001N1-00461-00901102251ADDAY181031AY231031GF105991051081004501001001MA1999999102131MD1310071+9999MW1361REMSYN072AAXX  12091 01001 41456 53608 11046 21090 30213 40225 53007 73683 85800;
0101010010999992011011210004+70933-008667FM-12+0009ENJA V0203601N009019999999N9999999N1-00481-00791102241ADDMA1999999102121MD1010061+9999REMSYN060AAXX  12101 01001 46/// /3609 11048 21079 30212 40224 50006;
0101010010999992011011211004+70933-008667FM-12+0009ENJA V0203501N007019999999N9999999N1-00461-00841102221ADDMA1999999102101MD1010011+9999REMSYN060AAXX  12111 01001 46/// /3507 11046 21084 30210 40222 50001;
0227010010999992011011212004+70933-008667FM-12+0009ENJA V0203601N010012200019N0150001N1-00491-00721102191ADDAA106000091AY181061AY231061GF103991031081004501001001MA1999999102071MD1710051+9999MW1361SA1-0089REMSYN100AAXX  12121 01001 11465 33610 11049 21072 30207 40219 57005 69911 73683 83800 222// 01008 333 91117;EQDQ01  00002PRCP06
0101010010999992011011213004+70933-008667FM-12+0009ENJA V0203601N010019999999N9999999N1-00491-00751102171ADDMA1999999102051MD1710071+9999REMSYN060AAXX  12131 01001 46/// /3610 11049 21075 30205 40217 57007;
0101010010999992011011214004+70933-008667FM-12+0009ENJA V0203501N009019999999N9999999N1-00481-00781102131ADDMA1999999102011MD1710081+9999REMSYN060AAXX  12141 01001 46/// /3509 11048 21078 30201 40213 57008;
0161010010999992011011215004+70933-008667FM-12+0009ENJA V0203401N008012200019N0100001N1-00491-00911102141ADDAY131031AY221031GF104991041081004501001001MA1999999102021MD1510051+9999MW1361REMSYN072AAXX  12151 01001 41460 43408 11049 21091 30202 40214 55005 73632 84800;
0101010010999992011011216004+70933-008667FM-12+0009ENJA V0203501N007019999999N9999999N1-00491-00931102111ADDMA1999999101991MD1710061+9999REMSYN060AAXX  12161 01001 46/// /3507 11049 21093 30199 40211 57006;
0101010010999992011011217004+70933-008667FM-12+0009ENJA V0203501N007019999999N9999999N1-00471-00921102081ADDMA1999999101961MD1810051+9999REMSYN060AAXX  12171 01001 46/// /3507 11047 21092 30196 40208 58005;
0207010010999992011011218004+70933-008667FM-12+0009ENJA V0203301N008010120019N0100001N1-00431-00861102041ADDAA112000021AY181061AY231061GF107991071081008001001001KA1120M-00421MA1999999101921MD1710101+9999MW1261REMSYN094AAXX  12181 01001 11560 73308 11043 21086 30192 40204 57010 69922 72683 87800 333 11042 91117;
0101010010999992011011219004+70933-008667FM-12+0009ENJA V0203401N007019999999N9999999N1-00431-00841102021ADDMA1999999101901MD1710101+9999REMSYN060AAXX  12191 01001 46/// /3407 11043 21084 30190 40202 57010;
0101010010999992011011220004+70933-008667FM-12+0009ENJA V0203301N008019999999N9999999N1-00431-00691101971ADDMA1999999101851MD1710111+9999REMSYN060AAXX  12201 01001 46/// /3308 11043 21069 30185 40197 57011;
0101010010999992011011221004+70933-008667FM-12+0009ENJA V0200101N006019999999N9999999N1-00431-00761101941ADDMA1999999101821MD1710101+9999REMSYN060AAXX  12211 01001 46/// /0106 11043 21076 30182 40194 57010;
0101010010999992011011222004+70933-008667FM-12+0009ENJA V0203601N006019999999N9999999N1-00421-00881101931ADDMA1999999101811MD1610081+9999REMSYN060AAXX  12221 01001 46/// /3606 11042 21088 30181 40193 56008;
0101010010999992011011223004+70933-008667FM-12+0009ENJA V0200101N007019999999N9999999N1-00391-00791101901ADDMA1999999101781MD1610081+9999REMSYN060AAXX  12231 01001 46/// /0107 11039 21079 30178 40190 56008;
0188010010999992011011300004+70933-008667FM-12+0009ENJA V0203401N005012200019N0400001N1-00441-00831101901ADDAA106000021AY181061AY211061GF102991021081008001001001MA1999999101781MD1710041+9999MW1011REMSYN088AAXX  13001 01001 11582 23405 11044 21083 30178 40190 57004 69911 70181 82800 333 91114;
0101010010999992011011301004+70933-008667FM-12+0009ENJA V0203501N002019999999N9999999N1-00561-00811101891ADDMA1999999101771MD1710041+9999REMSYN060AAXX  13011 01001 46/// /3502 11056 21081 30177 40189 57004;
0101010010999992011011302004+70933-008667FM-12+0009ENJA V0200101N004019999999N9999999N1-00461-00841101841ADDMA1999999101721MD1810051+9999REMSYN060AAXX  13021 01001 46/// /0104 11046 21084 30172 40184 58005;
0101010010999992011011303004+70933-008667FM-12+0009ENJA V0203501N004019999999N9999999N1-00441-00751101811ADDMA1999999101691MD1810091+9999REMSYN060AAXX  13031 01001 46/// /3504 11044 21075 30169 40181 58009;
0101010010999992011011304004+70933-008667FM-12+0009ENJA V0203601N005019999999N9999999N1-00441-00901101791ADDMA1999999101671MD1610101+9999REMSYN060AAXX  13041 01001 46/// /3605 11044 21090 30167 40179 56010;
0101010010999992011011305004+70933-008667FM-12+0009ENJA V0203601N006019999999N9999999N1-00421-00821101761ADDMA1999999101641MD1710081+9999REMSYN060AAXX  13051 01001 46/// /3606 11042 21082 30164 40176 57008;
0272010010999992011011306004+70933-008667FM-12+0009ENJA V0203601N005012200019N0200001N1-00431-00861101741ADDAA112000021AA224000591AJ199991999999999AY181061AY201061GF103991031081004501001001IA1299KA1999N-00571MA1999999101621MD1710071+9999MW1031REMSYN106AAXX  13061 01001 11470 33605 11043 21086 30162 40174 57007 69922 70380 83800 333 21057 49999 70004 91109;EQDQ01  09962SNDP  
0101010010999992011011307004+70933-008667FM-12+0009ENJA V0203601N005019999999N9999999N1-00441-00971101711ADDMA1999999101591MD1710081+9999REMSYN060AAXX  13071 01001 46/// /3605 11044 21097 30159 40171 57008;
0101010010999992011011308004+70933-008667FM-12+0009ENJA V0203401N006019999999N9999999N1-00421-00911101681ADDMA1999999101561MD1710081+9999REMSYN060AAXX  13081 01001 46/// /3406 11042 21091 30156 40168 57008;
0161010010999992011011309004+70933-008667FM-12+0009ENJA V0203601N007010090019N0200001N1-00411-00811101671ADDAY111031AY201031GF105991051081004501001001MA1999999101551MD1710071+9999MW1031REMSYN072AAXX  13091 01001 41470 53607 11041 21081 30155 40167 57007 70310 85800;
0101010010999992011011310004+70933-008667FM-12+0009ENJA V0203601N006019999999N9999999N1-00401-00881101651ADDMA1999999101531MD1710061+9999REMSYN060AAXX  13101 01001 46/// /3606 11040 21088 30153 40165 57006;
0101010010999992011011311004+70933-008667FM-12+0009ENJA V0203501N007019999999N9999999N1-00401-00891101611ADDMA1999999101491MD1810061+9999REMSYN060AAXX  13111 01001 46/// /3507 11040 21089 30149 40161 58006;
0227010010999992011011312004+70933-008667FM-12+0009ENJA V0203601N005012200019N0300001N1-00411-00911101561ADDAA106000091AY111061AY201061GF103991031081004501001001MA1999999101441MD1810111+9999MW1151SA1-0089REMSYN100AAXX  13121 01001 11480 33605 11041 21091 30144 40156 58011 60001 71510 83800 222// 01008 333 91111;EQDQ01  00002PRCP06
0101010010999992011011313004+70933-008667FM-12+0009ENJA V0203501N007019999999N9999999N1-00461-00781101521ADDMA1999999101401MD1710131+9999REMSYN060AAXX  13131 01001 46/// /3507 11046 21078 30140 40152 57013;
0101010010999992011011314004+70933-008667FM-12+0009ENJA V0200101N007019999999N9999999N1-00421-00881101481ADDMA1999999101361MD1710141+9999REMSYN060AAXX  13141 01001 46/// /0107 11042 21088 30136 40148 57014;
0161010010999992011011315004+70933-008667FM-12+0009ENJA V0203601N005010042019N0010001N1-00461-00801101421ADDAY181031AY231031GF105991051091004501001001MA1999999101301MD1810141+9999MW1871REMSYN072AAXX  13151 01001 41410 53605 11046 21080 30130 40142 58014 78783 85900;
0101010010999992011011316004+70933-008667FM-12+0009ENJA V0200101N009019999999N9999999N1-00431-00981101391ADDMA1999999101271MD1710131+9999REMSYN060AAXX  13161 01001 46/// /0109 11043 21098 30127 40139 57013;
0101010010999992011011317004+70933-008667FM-12+0009ENJA V0200201N005019999999N9999999N1-00471-01051101351ADDMA1999999101231MD1710131+9999REMSYN060AAXX  13171 01001 46/// /0205 11047 21105 30123 40135 57013;
0207010010999992011011318004+70933-008667FM-12+0009ENJA V0203501N009012200019N0200001N1-00461-00691101301ADDAA112000021AY181061AY231061GF104991041081008001001001KA1120M-00381MA1999999101181MD1710121+9999MW1031REMSYN094AAXX  13181 01001 11570 43509 11046 21069 30118 40130 57012 69902 70383 84800 333 11038 91113;
0101010010999992011011319004+70933-008667FM-12+0009ENJA V0203501N008019999999N9999999N1-00481-00761101291ADDMA1999999101171MD1710101+9999REMSYN060AAXX  13191 01001 46/// /3508 11048 21076 30117 40129 57010;
0101010010999992011011320004+70933-008667FM-12+0009ENJA V0203601N008019999999N9999999N1-00451-00901101241ADDMA1999999101121MD1710111+9999REMSYN060AAXX  13201 01001 46/// /3608 11045 21090 30112 40124 57011;
0101010010999992011011321004+70933-008667FM-12+0009ENJA V0203501N007019999999N9999999N1-00471-00931101221ADDMA1999999101101MD1710071+9999REMSYN060AAXX  13211 01001 46/// /3507 11047 21093 30110 40122 57007;
0101010010999992011011322004+70933-008667FM-12+0009ENJA V0203501N005019999999N9999999N1-00501-00951101211ADDMA1999999101091MD1610081+9999REMSYN060AAXX  13221 01001 46/// /3505 11050 21095 30109 40121 56008;
0101010010999992011011323004+70933-008667FM-12+0009ENJA V0203401N006019999999N9999999N1-00521-01031101161ADDMA1999999101041MD1810081+9999REMSYN060AAXX  13231 01001 46/// /3406 11052 21103 30104 40116 58008;
0188010010999992011011400004+70933-008667FM-12+0009ENJA V0203401N006010120019N0200001N1-00521-00961101111ADDAA106000021AY181061AY221061GF107991071081008001999999MA1999999100991MD1810111+9999MW1851REMSYN088AAXX  14001 01001 11570 73406 11052 21096 30099 40111 58011 69901 78582 878// 333 91114;
0101010010999992011011401004+70933-008667FM-12+0009ENJA V0203401N008019999999N9999999N1-00541-01001101051ADDMA1999999100931MD1710161+9999REMSYN060AAXX  14011 01001 46/// /3408 11054 21100 30093 40105 57016;
0101010010999992011011402004+70933-008667FM-12+0009ENJA V0203301N008019999999N9999999N1-00551-00991101001ADDMA1999999100881MD1710161+9999REMSYN060AAXX  14021 01001 46/// /3308 11055 21099 30088 40100 57016;
0101010010999992011011403004+70933-008667FM-12+0009ENJA V0203401N007019999999N9999999N1-00511-00971100931ADDMA1999999100811MD1810181+9999REMSYN060AAXX  14031 01001 46/// /3407 11051 21097 30081 40093 58018;
0101010010999992011011404004+70933-008667FM-12+0009ENJA V0200101N008019999999N9999999N1-00511-00841100881ADDMA1999999100761MD1810161+9999REMSYN060AAXX  14041 01001 46/// /0108 11051 21084 30076 40088 58016;
0101010010999992011011405004+70933-008667FM-12+0009ENJA V0200101N005019999999N9999999N1-00501-00981100851ADDMA1999999100731MD1710161+9999REMSYN060AAXX  14051 01001 46/// /0105 11050 21098 30073 40085 57016;
0224010010999992011011406004+70933-008667FM-12+0009ENJA V0200101N005010120019N0250001N1-00511-00971100801ADDAA112000021AA224000021AY181061AY221061GF107991051081008001071999KA1999N-00561MA1999999100681MD1710131+9999MW1021REMSYN100AAXX  14061 01001 11575 70105 11051 21097 30068 40080 57013 69902 70282 8587/ 333 21056 79999 91111;
0101010010999992011011407004+70933-008667FM-12+0009ENJA V0203501N006019999999N9999999N1-00511-00971100771ADDMA1999999100651MD1710111+9999REMSYN060AAXX  14071 01001 46/// /3506 11051 21097 30065 40077 57011;
0101010010999992011011408004+70933-008667FM-12+0009ENJA V0203501N007019999999N9999999N1-00521-01001100731ADDMA1999999100611MD1710111+9999REMSYN060AAXX  14081 01001 46/// /3507 11052 21100 30061 40073 57011;
0161010010999992011011409004+70933-008667FM-12+0009ENJA V0203601N007010240019N0250001N1-00521-01031100721ADDAY121031AY221031GF107991041081008001071999MA1999999100601MD1610081+9999MW1021REMSYN072AAXX  14091 01001 41575 73607 11052 21103 30060 40072 56008 70222 8487/;
0101010010999992011011410004+70933-008667FM-12+0009ENJA V0200101N005019999999N9999999N1-00541-00991100701ADDMA1999999100581MD1710071+9999REMSYN060AAXX  14101 01001 46/// /0105 11054 21099 30058 40070 57007;
0101010010999992011011411004+70933-008667FM-12+0009ENJA V0203501N002019999999N9999999N1-00561-01071100641ADDMA1999999100521MD1810091+9999REMSYN060AAXX  14111 01001 46/// /3502 11056 21107 30052 40064 58009;
0219010010999992011011412004+70933-008667FM-12+0009ENJA V0203401N003010240019N0250001N1-00591-01051100601ADDAA106000091AY121061AY221061GF107991011051008001071999MA1999999100481MD1810121+9999MW1021REMSYN100AAXX  14121 01001 11575 73403 11059 21105 30048 40060 58012 60001 70222 8157/ 222// 01011 333 91110;EQDQ01  00002PRCP06
0101010010999992011011413004+70933-008667FM-12+0009ENJA V0209999C000019999999N9999999N1-00671-01111100611ADDMA1999999100491MD1510091+9999REMSYN060AAXX  14131 01001 46/// /0000 11067 21111 30049 40061 55009;
0101010010999992011011414004+70933-008667FM-12+0009ENJA V0203601N001019999999N9999999N1-00491-01061100591ADDMA1999999100471MD1710061+9999REMSYN060AAXX  14141 01001 46/// /3601 11049 21106 30047 40059 57006;
0101010010999992011011415004+70933-008667FM-12+0009ENJA V0200801N007019999999N9999999N1-00481-00961100541ADDMA1999999100421MD1810071+9999REMSYN060AAXX  14151 01001 46/// /0807 11048 21096 30042 40054 58007;
0101010010999992011011416004+70933-008667FM-12+0009ENJA V0200901N007019999999N9999999N1-00461-01011100491ADDMA1999999100371MD1810121+9999REMSYN060AAXX  14161 01001 46/// /0907 11046 21101 30037 40049 58012;
0101010010999992011011417004+70933-008667FM-12+0009ENJA V0201001N007019999999N9999999N1-00451-01011100461ADDMA1999999100341MD1710131+9999REMSYN060AAXX  14171 01001 46/// /1007 11045 21101 30034 40046 57013;
0226010010999992011011418004+70933-008667FM-12+0009ENJA V0200901N008010240019N0500001N1-00441-01051100421ADDAA112000091AY121061AY221061GF107991011051012501071071KA1120M-00441MA1999999100301MD1710111+9999MW1021REMSYN094AAXX  14181 01001 11684 70908 11044 21105 30030 40042 57011 60002 70222 81577 333 11044 91110;EQDQ01  00002PRCP12
0101010010999992011011419004+70933-008667FM-12+0009ENJA V0200901N008019999999N9999999N1-00431-00981100361ADDMA1999999100241MD1810131+9999REMSYN060AAXX  14191 01001 46/// /0908 11043 21098 30024 40036 58013;
0101010010999992011011420004+70933-008667FM-12+0009ENJA V0200901N009019999999N9999999N1-00421-01041100331ADDMA1999999100211MD1710121+9999REMSYN060AAXX  14201 01001 46/// /0909 11042 21104 30021 40033 57012;
0101010010999992011011421004+70933-008667FM-12+0009ENJA V0200901N008019999999N9999999N1-00421-01001100311ADDMA1999999100191MD1610111+9999REMSYN060AAXX  14211 01001 46/// /0908 11042 21100 30019 40031 56011;
0101010010999992011011422004+70933-008667FM-12+0009ENJA V0200901N010019999999N9999999N1-00401-00971100271ADDMA1999999100151MD1710091+9999REMSYN060AAXX  14221 01001 46/// /0910 11040 21097 30015 40027 57009;
0101010010999992011011423004+70933-008667FM-12+0009ENJA V0200901N011019999999N9999999N1-00371-00911100211ADDMA1999999100091MD1810121+9999REMSYN060AAXX  14231 01001 46/// /0911 11037 21091 30009 40021 58012;
0207010010999992011011500004+70933-008667FM-12+0009ENJA V0200701N009010600019N0300001N1-00411-00951100151ADDAA106000091AY131061AY221061GF105991011051012501051061MA1999999100031MD1810161+9999MW1361REMSYN088AAXX  15001 01001 11680 50709 11041 21095 30003 40015 58016 60001 73632 81556 333 91114;EQDQ01  00002PRCP06
0101010010999992011011501004+70933-008667FM-12+0009ENJA V0200701N011019999999N9999999N1-00391-00871100101ADDMA1999999099981MD1710181+9999REMSYN060AAXX  15011 01001 46/// /0711 11039 21087 39998 40010 57018;
0101010010999992011011502004+70933-008667FM-12+0009ENJA V0200801N010019999999N9999999N1-00371-00811100031ADDMA1999999099911MD1710181+9999REMSYN060AAXX  15021 01001 46/// /0810 11037 21081 39991 40003 57018;
0101010010999992011011503004+70933-008667FM-12+0009ENJA V0200701N012019999999N9999999N1-00371-00801099961ADDMA1999999099841MD1810201+9999REMSYN060AAXX  15031 01001 46/// /0712 11037 21080 39984 49996 58020;
0101010010999992011011504004+70933-008667FM-12+0009ENJA V0200701N012019999999N9999999N1-00351-00751099881ADDMA1999999099761MD1810221+9999REMSYN060AAXX  15041 01001 46/// /0712 11035 21075 39976 49988 58022;
0101010010999992011011505004+70933-008667FM-12+0009ENJA V0200701N012019999999N9999999N1-00371-00771099841ADDMA1999999099721MD1710191+9999REMSYN060AAXX  15051 01001 46/// /0712 11037 21077 39972 49984 57019;
0304010010999992011011506004+70933-008667FM-12+0009ENJA V0200701N014010240019N0200001N1-00381-00781099661ADDAA112000091AA224000091AJ199991999999999AY131061AY221061GF108991011051008001071999IA1249KA1999N-00451MA1999999099541MD1810301+9999MW1361REMSYN106AAXX  15061 01001 11570 80714 11038 21078 39954 49966 58030 60002 73632 8157/ 333 21045 48999 70000 91119;EQDQ01  00002PRCP24Q02  00002PRCP12Q03  09962SNDP  
0101010010999992011011507004+70933-008667FM-12+0009ENJA V0200801N013019999999N9999999N1-00361-00801099641ADDMA1999999099521MD1810231+9999REMSYN060AAXX  15071 01001 46/// /0813 11036 21080 39952 49964 58023;
0101010010999992011011508004+70933-008667FM-12+0009ENJA V0200701N015019999999N9999999N1-00331-00891099601ADDMA1999999099481MD1610231+9999REMSYN060AAXX  15081 01001 46/// /0715 11033 21089 39948 49960 56023;
0161010010999992011011509004+70933-008667FM-12+0009ENJA V0200701N016010210019N0200001N1-00301-00891099511ADDAY131031AY221031GF108991081001022501071999MA1999999099391MD1810141+9999MW1381REMSYN072AAXX  15091 01001 41870 80716 11030 21089 39939 49951 58014 73832 8807/;
0101010010999992011011510004+70933-008667FM-12+0009ENJA V0200701N013019999999N9999999N1-00311-00741099451ADDMA1999999099331MD1810191+9999REMSYN060AAXX  15101 01001 46/// /0713 11031 21074 39933 49945 58019;
0101010010999992011011511004+70933-008667FM-12+0009ENJA V0200701N015019999999N9999999N1-00371-00521099351ADDMA1999999099231MD1710251+9999REMSYN060AAXX  15111 01001 46/// /0715 11037 21052 39923 49935 57025;
0208010010999992011011512004+70933-008667FM-12+0009ENJA V0200701N017010042019N0005001N1-00401-00501099261ADDAA106000021AY171061AY231061GF108991061071004501011999MA1999999099141MD1810251+9999MW1711SA1-0099REMSYN100AAXX  15121 01001 11405 80717 11040 21050 39914 49926 58025 69911 77173 8671/ 222// 01009 333 91123;
0101010010999992011011513004+70933-008667FM-12+0009ENJA V0200701N016019999999N9999999N1-00361-00461099151ADDMA1999999099031MD1810301+9999REMSYN060AAXX  15131 01001 46/// /0716 11036 21046 39903 49915 58030;
0101010010999992011011514004+70933-008667FM-12+0009ENJA V0200701N016019999999N9999999N1-00371-00471099051ADDMA1999999098931MD1810301+9999REMSYN060AAXX  15141 01001 46/// /0716 11037 21047 39893 49905 58030;
0101010010999992011011515004+70933-008667FM-12+0009ENJA V0200701N016019999999N9999999N1-00361-00491098981ADDMA1999999098861MD1610281+9999REMSYN060AAXX  15151 01001 46/// /0716 11036 21049 39886 49898 56028;
0101010010999992011011516004+70933-008667FM-12+0009ENJA V0200501N019019999999N9999999N1-00341-00451098841ADDMA1999999098721MD1810311+9999REMSYN060AAXX  15161 01001 46/// /0519 11034 21045 39872 49884 58031;
0101010010999992011011517004+70933-008667FM-12+0009ENJA V0200601N016019999999N9999999N1-00241-00401098781ADDMA1999999098661MD1810291+9999REMSYN060AAXX  15171 01001 46/// /0616 11024 21040 39866 49878 58029;
0207010010999992011011518004+70933-008667FM-12+0009ENJA V0200201N008010120019N0060001N1-00141-00391098671ADDAA112000391AY171061AY231061GF107991071031012501999999KA1120M-00121MA1999999098551MD1810301+9999MW1381REMSYN094AAXX  15181 01001 11656 70208 11014 21039 39855 49867 58030 69932 73873 873// 333 11012 91128;
0101010010999992011011519004+70933-008667FM-12+0009ENJA V0200101N009019999999N9999999N1-00091-00441098631ADDMA1999999098511MD1710201+9999REMSYN060AAXX  15191 01001 46/// /0109 11009 21044 39851 49863 57020;
0101010010999992011011520004+70933-008667FM-12+0009ENJA V0200201N010019999999N9999999N1-00181-00501098601ADDMA1999999098481MD1810161+9999REMSYN060AAXX  15201 01001 46/// /0210 11018 21050 39848 49860 58016;
0101010010999992011011521004+70933-008667FM-12+0009ENJA V0200101N011019999999N9999999N1-00161-00451098551ADDMA1999999098431MD1710131+9999REMSYN060AAXX  15211 01001 46/// /0111 11016 21045 39843 49855 57013;
0101010010999992011011522004+70933-008667FM-12+0009ENJA V0200501N013019999999N9999999N1-00031-00341098471ADDMA1999999098351MD1810161+9999REMSYN060AAXX  15221 01001 46/// /0513 11003 21034 39835 49847 58016;
0101010010999992011011523004+70933-008667FM-12+0009ENJA V0200101N010019999999N9999999N1-00131-00351098461ADDMA1999999098341MD1610131+9999REMSYN060AAXX  15231 01001 46/// /0110 11013 21035 39834 49846 56013;
0188010010999992011011600004+70933-008667FM-12+0009ENJA V0200501N013010075019N0100001N1+00001-00361098361ADDAA106000021AY171061AY231061GF108991081051008001999999MA1999999098241MD1810181+9999MW1781REMSYN088AAXX  16001 01001 11560 80513 10000 21036 39824 49836 58018 60001 77873 885// 333 91123;
0101010010999992011011601004+70933-008667FM-12+0009ENJA V0200601N009019999999N9999999N1+00121-00411098291ADDMA1999999098181MD1810171+9999REMSYN060AAXX  16011 01001 46/// /0609 10012 21041 39818 49829 58017;
0101010010999992011011602004+70933-008667FM-12+0009ENJA V0203601N010019999999N9999999N1+00051-00421098231ADDMA1999999098121MD1610231+9999REMSYN060AAXX  16021 01001 46/// /3610 10005 21042 39812 49823 56023;
0101010010999992011011603004+70933-008667FM-12+0009ENJA V0200201N009019999999N9999999N1+00061-00421098161ADDMA1999999098051MD1610201+9999REMSYN060AAXX  16031 01001 46/// /0209 10006 21042 39805 49816 56020;
0101010010999992011011604004+70933-008667FM-12+0009ENJA V0203501N008019999999N9999999N1+00031-00371098111ADDMA1999999098001MD1610181+9999REMSYN060AAXX  16041 01001 46/// /3508 10003 21037 39800 49811 56018;
0101010010999992011011605004+70933-008667FM-12+0009ENJA V0203601N013019999999N9999999N1-00081-00331098101ADDMA1999999097981MD1610121+9999REMSYN060AAXX  16051 01001 46/// /3613 11008 21033 39798 49810 56012;
0272010010999992011011606004+70933-008667FM-12+0009ENJA V0203601N011010120019N0150001N1+00021-00341098041ADDAA112000021AA224000391AJ199991999999999AY121061AY221061GF108991081051012501999999IA1289KA1999N-00231MA1999999097931MD1710121+9999MW1021REMSYN106AAXX  16061 01001 11665 83611 10002 21034 39793 49804 57012 60002 70222 885// 333 21023 44999 70003 91124;EQDQ01  09962SNDP  
0101010010999992011011607004+70933-008667FM-12+0009ENJA V0203601N011019999999N9999999N1+00011-00311098021ADDMA1999999097911MD1810081+9999REMSYN060AAXX  16071 01001 46/// /3611 10001 21031 39791 49802 58008;
0101010010999992011011608004+70933-008667FM-12+0009ENJA V0203301N006019999999N9999999N1+00071-00281097961ADDMA1999999097851MD1810121+9999REMSYN060AAXX  16081 01001 46/// /3306 10007 21028 39785 49796 58012;
0161010010999992011011609004+70933-008667FM-12+0009ENJA V0203401N010010075019N0200001N1+00101-00281097921ADDAY121031AY221031GF108991081051008001999999MA1999999097811MD1810121+9999MW1021REMSYN072AAXX  16091 01001 41570 83410 10010 21028 39781 49792 58012 70222 885//;
0101010010999992011011610004+70933-008667FM-12+0009ENJA V0203501N011019999999N9999999N1+00091-00241097841ADDMA1999999097731MD1810191+9999REMSYN060AAXX  16101 01001 46/// /3511 10009 21024 39773 49784 58019;
0101010010999992011011611004+70933-008667FM-12+0009ENJA V0203501N013019999999N9999999N1+00031-00231097831ADDMA1999999097721MD1610141+9999REMSYN060AAXX  16111 01001 46/// /3513 10003 21023 39772 49783 56014;
0208010010999992011011612004+70933-008667FM-12+0009ENJA V0203501N010010075019N0150001N1+00111-00171097801ADDAA106000021AY161061AY221061GF108991051051008001021999MA1999999097691MD1610121+9999MW1601SA1-0029REMSYN100AAXX  16121 01001 11565 83510 10011 21017 39769 49780 56012 60001 76062 8552/ 222// 01002 333 91119;
0101010010999992011011613004+70933-008667FM-12+0009ENJA V0200101N003019999999N9999999N1+00311-00051097811ADDMA1999999097701MD1510031+9999REMSYN060AAXX  16131 01001 46/// /0103 10031 21005 39770 49781 55003;
0101010010999992011011614004+70933-008667FM-12+0009ENJA V0200401N007019999999N9999999N1+00321-00081097771ADDMA1999999097661MD1710061+9999REMSYN060AAXX  16141 01001 46/// /0407 10032 21008 39766 49777 57006;
0161010010999992011011615004+70933-008667FM-12+0009ENJA V0200201N005010090019N0250001N1+00361-00101097771ADDAY161031AY221031GF107991071081004501999999MA1999999097661MD1710031+9999MW1021REMSYN072AAXX  16151 01001 41475 70205 10036 21010 39766 49777 57003 70262 878//;
0101010010999992011011616004+70933-008667FM-12+0009ENJA V0203101N004019999999N9999999N1+00291-00131097751ADDMA1999999097641MD1710071+9999REMSYN060AAXX  16161 01001 46/// /3104 10029 21013 39764 49775 57007;
0101010010999992011011617004+70933-008667FM-12+0009ENJA V0203101N008019999999N9999999N1+00211-00091097721ADDMA1999999097611MD1810051+9999REMSYN060AAXX  16171 01001 46/// /3108 10021 21009 39761 49772 58005;
0207010010999992011011618004+70933-008667FM-12+0009ENJA V0203201N008010120019N0200001N1+00251-00081097741ADDAA112000021AY161061AY221061GF107991071081008001001001KA1120M+00401MA1999999097631MD1510031+9999MW1021REMSYN094AAXX  16181 01001 11570 73208 10025 21008 39763 49774 55003 69902 70262 87800 333 10040 91115;
0101010010999992011011619004+70933-008667FM-12+0009ENJA V0203501N010019999999N9999999N1+00211-00081097771ADDMA1999999097661MD1310031+9999REMSYN060AAXX  16191 01001 46/// /3510 10021 21008 39766 49777 53003;
0101010010999992011011620004+70933-008667FM-12+0009ENJA V0203501N009019999999N9999999N1+00181-00061097811ADDMA1999999097701MD1310091+9999REMSYN060AAXX  16201 01001 46/// /3509 10018 21006 39770 49781 53009;
0101010010999992011011621004+70933-008667FM-12+0009ENJA V0203501N006019999999N9999999N1+00221+00011097851ADDMA1999999097741MD1310111+9999REMSYN060AAXX  16211 01001 46/// /3506 10022 20001 39774 49785 53011;
0101010010999992011011622004+70933-008667FM-12+0009ENJA V0200501N005019999999N9999999N1+00281+00071097891ADDMA1999999097781MD1210121+9999REMSYN060AAXX  16221 01001 46/// /0505 10028 20007 39778 49789 52012;
0101010010999992011011623004+70933-008667FM-12+0009ENJA V0200701N005019999999N9999999N1+00271+00071097911ADDMA1999999097801MD1210101+9999REMSYN060AAXX  16231 01001 46/// /0705 10027 20007 39780 49791 52010;
0207010010999992011011700004+70933-008667FM-12+0009ENJA V0201001N003010240019N0200001N1+00341+00051097951ADDAA106000091AY161061AY221061GF107991021081008001071001MA1999999097841MD1310101+9999MW1021REMSYN088AAXX  17001 01001 11570 71003 10034 20005 39784 49795 53010 69901 70262 82870 333 91114;EQDQ01  00002PRCP06
0101010010999992011011701004+70933-008667FM-12+0009ENJA V0203601N004019999999N9999999N1+00311+00071098011ADDMA1999999097901MD1310131+9999REMSYN060AAXX  17011 01001 46/// /3604 10031 20007 39790 49801 53013;
0101010010999992011011702004+70933-008667FM-12+0009ENJA V0203401N007019999999N9999999N1+00191-00011098041ADDMA1999999097931MD1310131+9999REMSYN060AAXX  17021 01001 46/// /3407 10019 21001 39793 49804 53013;
0101010010999992011011703004+70933-008667FM-12+0009ENJA V0203301N008019999999N9999999N1+00191-00021098081ADDMA1999999097971MD1310131+9999REMSYN060AAXX  17031 01001 46/// /3308 10019 21002 39797 49808 53013;
0101010010999992011011704004+70933-008667FM-12+0009ENJA V0203501N010019999999N9999999N1+00121-00041098131ADDMA1999999098021MD1310111+9999REMSYN060AAXX  17041 01001 46/// /3510 10012 21004 39802 49813 53011;
0101010010999992011011705004+70933-008667FM-12+0009ENJA V0203501N014019999999N9999999N1+00111-00041098131ADDMA1999999098021MD1010081+9999REMSYN060AAXX  17051 01001 46/// /3514 10011 21004 39802 49813 50008;
0288010010999992011011706004+70933-008667FM-12+0009ENJA V0203501N012010240019N0300001N1+00081-00061098201ADDAA112000091AA224000021AJ199991999999999AY121061AY221061GF107991031081008001071001IA1289KA1999N+00081MA1999999098091MD1110131+9999MW1021REMSYN106AAXX  17061 01001 11580 73512 10008 21006 39809 49820 51013 60002 70222 83870 333 20008 44999 79999 91121;EQDQ01  00002PRCP12Q02  09962SNDP  
0101010010999992011011707004+70933-008667FM-12+0009ENJA V0203501N013019999999N9999999N1+00061-00051098241ADDMA1999999098131MD1010121+9999REMSYN060AAXX  17071 01001 46/// /3513 10006 21005 39813 49824 50012;
0101010010999992011011708004+70933-008667FM-12+0009ENJA V0203501N013019999999N9999999N1+00051-00051098311ADDMA1999999098201MD1110181+9999REMSYN060AAXX  17081 01001 46/// /3513 10005 21005 39820 49831 51018;
0161010010999992011011709004+70933-008667FM-12+0009ENJA V0203501N014010060019N0100001N1+00061-00041098311ADDAY121031AY221031GF108991081081002501999999MA1999999098201MD1010111+9999MW1021REMSYN072AAXX  17091 01001 41360 83514 10006 21004 39820 49831 50011 70222 888//;
0101010010999992011011710004+70933-008667FM-12+0009ENJA V0200101N014019999999N9999999N1+00061-00051098501ADDMA1999999098381MD1310251+9999REMSYN060AAXX  17101 01001 46/// /0114 10006 21005 39838 49850 53025;
0101010010999992011011711004+70933-008667FM-12+0009ENJA V0203601N012019999999N9999999N1+00041-00071098491ADDMA1999999098371MD1110171+9999REMSYN060AAXX  17111 01001 46/// /3612 10004 21007 39837 49849 51017;
0208010010999992011011712004+70933-008667FM-12+0009ENJA V0203601N015010060019N0050001N1+00031-00091098511ADDAA106000021AY181061AY221061GF107991061081002501071001MA1999999098391MD1110181+9999MW1851SA1+0019REMSYN100AAXX  17121 01001 11350 73615 10003 21009 39839 49851 51018 69911 78582 86870 222// 00001 333 91122;
0101010010999992011011713004+70933-008667FM-12+0009ENJA V0203501N014019999999N9999999N1+00011-00101098581ADDMA1999999098461MD1310081+9999REMSYN060AAXX  17131 01001 46/// /3514 10001 21010 39846 49858 53008;
0101010010999992011011714004+70933-008667FM-12+0009ENJA V0203601N015019999999N9999999N1+00011-00101098631ADDMA1999999098511MD1310151+9999REMSYN060AAXX  17141 01001 46/// /3615 10001 21010 39851 49863 53015;
0161010010999992011011715004+70933-008667FM-12+0009ENJA V0203501N012010060019N0040001N1+00001-00101098681ADDAY181031AY221031GF108991081081002501999999MA1999999098561MD1110161+9999MW1851REMSYN072AAXX  17151 01001 41340 83512 10000 21010 39856 49868 51016 78582 888//;
0101010010999992011011716004+70933-008667FM-12+0009ENJA V0203501N015019999999N9999999N1-00021-00121098711ADDMA1999999098591MD1310141+9999REMSYN060AAXX  17161 01001 46/// /3515 11002 21012 39859 49871 53014;
0101010010999992011011717004+70933-008667FM-12+0009ENJA V0203601N015019999999N9999999N1-00041-00131098721ADDMA1999999098601MD1110091+9999REMSYN060AAXX  17171 01001 46/// /3615 11004 21013 39860 49872 51009;
0207010010999992011011718004+70933-008667FM-12+0009ENJA V0203601N015010021019N0020001N1-00051-00141098771ADDAA112001091AY181061AY231061GF107991071031002501999999KA1120M+00091MA1999999098651MD1310101+9999MW1861REMSYN094AAXX  17181 01001 11320 73615 11005 21014 39865 49877 53010 60012 78683 873// 333 10009 91123;
0101010010999992011011719004+70933-008667FM-12+0009ENJA V0203501N014019999999N9999999N1-00071-00151098801ADDMA1999999098681MD1310081+9999REMSYN060AAXX  17191 01001 46/// /3514 11007 21015 39868 49880 53008;
0101010010999992011011720004+70933-008667FM-12+0009ENJA V0203601N017019999999N9999999N1-00071-00151098851ADDMA1999999098731MD1310131+9999REMSYN060AAXX  17201 01001 46/// /3617 11007 21015 39873 49885 53013;
0101010010999992011011721004+70933-008667FM-12+0009ENJA V0203601N014019999999N9999999N1-00061-00171098921ADDMA1999999098801MD1310151+9999REMSYN060AAXX  17211 01001 46/// /3614 11006 21017 39880 49892 53015;
0101010010999992011011722004+70933-008667FM-12+0009ENJA V0203601N015019999999N9999999N1-00081-00191098971ADDMA1999999098851MD1310181+9999REMSYN060AAXX  17221 01001 46/// /3615 11008 21019 39885 49897 53018;
0101010010999992011011723004+70933-008667FM-12+0009ENJA V0203601N017019999999N9999999N1-00101-00211098971ADDMA1999999098851MD1110121+9999REMSYN060AAXX  17231 01001 46/// /3617 11010 21021 39885 49897 51012;
0188010010999992011011800004+70933-008667FM-12+0009ENJA V0203601N018010060019N0025001N1-00111-00211099001ADDAA106003091AY181061AY231061GF108991081081002501999999MA1999999098881MD1310081+9999MW1851REMSYN088AAXX  18001 01001 11325 83618 11011 21021 39888 49900 53008 60031 78583 888// 333 91125;
0101010010999992011011801004+70933-008667FM-12+0009ENJA V0203601N017019999999N9999999N1-00131-00211099071ADDMA1999999098951MD1310101+9999REMSYN060AAXX  18011 01001 46/// /3617 11013 21021 39895 49907 53010;
0101010010999992011011802004+70933-008667FM-12+0009ENJA V0203601N019019999999N9999999N1-00161-00261099131ADDMA1999999099011MD1310171+9999REMSYN060AAXX  18021 01001 46/// /3619 11016 21026 39901 49913 53017;
0101010010999992011011803004+70933-008667FM-12+0009ENJA V0203601N018019999999N9999999N1-00181-00281099211ADDMA1999999099091MD1110211+9999REMSYN060AAXX  18031 01001 46/// /3618 11018 21028 39909 49921 51021;
0101010010999992011011804004+70933-008667FM-12+0009ENJA V0203601N018019999999N9999999N1-00211-00311099261ADDMA1999999099141MD1110191+9999REMSYN060AAXX  18041 01001 46/// /3618 11021 21031 39914 49926 51019;
0101010010999992011011805004+70933-008667FM-12+0009ENJA V0203601N016019999999N9999999N1-00211-00321099361ADDMA1999999099241MD1310231+9999REMSYN060AAXX  18051 01001 46/// /3616 11021 21032 39924 49936 53023;
0272010010999992011011806004+70933-008667FM-12+0009ENJA V0203601N014010021019N0035001N1-00211-00341099481ADDAA112006191AA224007691AJ199991999999999AY181061AY271061GF108991071071002501021999IA1289KA1999N-00231MA1999999099361MD1310271+9999MW1711REMSYN106AAXX  18061 01001 11335 83614 11021 21034 39936 49948 53027 60062 77187 8772/ 333 21023 44999 70076 91126;EQDQ01  09962SNDP  
0101010010999992011011807004+70933-008667FM-12+0009ENJA V0203601N014019999999N9999999N1-00221-00341099561ADDMA1999999099441MD1210301+9999REMSYN060AAXX  18071 01001 46/// /3614 11022 21034 39944 49956 52030;
0101010010999992011011808004+70933-008667FM-12+0009ENJA V0203601N013019999999N9999999N1-00261-00401099661ADDMA1999999099541MD1310301+9999REMSYN060AAXX  18081 01001 46/// /3613 11026 21040 39954 49966 53030;
0161010010999992011011809004+70933-008667FM-12+0009ENJA V0203501N012010021019N0035001N1-00261-00401099781ADDAY171031AY231031GF108991071071002501021999MA1999999099661MD1310301+9999MW1771REMSYN072AAXX  18091 01001 41335 83512 11026 21040 39966 49978 53030 77773 8772/;
0101010010999992011011811004+70933-008667FM-12+0009ENJA V0203401N013019999999N9999999N1-00291-00431099961ADDMA1999999099841MD1310301+9999REMSYN060AAXX  18111 01001 46/// /3413 11029 21043 39984 49996 53030;
0208010010999992011011812004+70933-008667FM-12+0009ENJA V0203401N011010021019N0040001N1-00311-00451100081ADDAA106001091AY171061AY231061GF108991081071002501999999MA1999999099961MD1310311+9999MW1711SA1-0029REMSYN100AAXX  18121 01001 11340 83411 11031 21045 39996 40008 53031 60011 77173 887// 222// 01002 333 91123;
0101010010999992011011813004+70933-008667FM-12+0009ENJA V0203401N015019999999N9999999N1-00321-00481100191ADDMA1999999100071MD1310331+9999REMSYN060AAXX  18131 01001 46/// /3415 11032 21048 30007 40019 53033;
0101010010999992011011814004+70933-008667FM-12+0009ENJA V0203401N011019999999N9999999N1-00341-00491100341ADDMA1999999100221MD1310381+9999REMSYN060AAXX  18141 01001 46/// /3411 11034 21049 30022 40034 53038;
0161010010999992011011815004+70933-008667FM-12+0009ENJA V0203501N010010021019N0070001N1-00391-00531100481ADDAY171031AY231031GF108991081071002501999999MA1999999100361MD1310401+9999MW1711REMSYN072AAXX  18151 01001 41357 83510 11039 21053 30036 40048 53040 77173 887//;
0101010010999992011011816004+70933-008667FM-12+0009ENJA V0203401N012019999999N9999999N1-00411-00541100581ADDMA1999999100461MD1310401+9999REMSYN060AAXX  18161 01001 46/// /3412 11041 21054 30046 40058 53040;
0101010010999992011011817004+70933-008667FM-12+0009ENJA V0203501N012019999999N9999999N1-00441-00561100651ADDMA1999999100531MD1110321+9999REMSYN060AAXX  18171 01001 46/// /3512 11044 21056 30053 40065 51032;
0207010010999992011011818004+70933-008667FM-12+0009ENJA V0203401N011010021019N0150001N1-00461-00591100771ADDAA112001091AY171061AY261061GF107991071061002501999999KA1120M-00211MA1999999100651MD1310281+9999MW1771REMSYN094AAXX  18181 01001 11365 73411 11046 21059 30065 40077 53028 60012 77776 876// 333 11021 91121;
0101010010999992011011819004+70933-008667FM-12+0009ENJA V0203501N010019999999N9999999N1-00491-00671100881ADDMA1999999100761MD1310291+9999REMSYN060AAXX  18191 01001 46/// /3510 11049 21067 30076 40088 53029;
0101010010999992011011820004+70933-008667FM-12+0009ENJA V0203401N012019999999N9999999N1-00511-00831100931ADDMA1999999100811MD1110271+9999REMSYN060AAXX  18201 01001 46/// /3412 11051 21083 30081 40093 51027;
0101010010999992011011821004+70933-008667FM-12+0009ENJA V0203501N010019999999N9999999N1-00521-00851101051ADDMA1999999100931MD1310281+9999REMSYN060AAXX  18211 01001 46/// /3510 11052 21085 30093 40105 53028;
0101010010999992011011822004+70933-008667FM-12+0009ENJA V0203401N009019999999N9999999N1-00521-00831101161ADDMA1999999101041MD1310281+9999REMSYN060AAXX  18221 01001 46/// /3409 11052 21083 30104 40116 53028;
0101010010999992011011823004+70933-008667FM-12+0009ENJA V0203401N010019999999N9999999N1-00541-00871101281ADDMA1999999101161MD1310361+9999REMSYN060AAXX  18231 01001 46/// /3410 11054 21087 30116 40128 53036;
0188010010999992011011900004+70933-008667FM-12+0009ENJA V0203501N011012200019N0500001N1-00561-00881101331ADDAA106000021AY171061AY221061GF104991041081004501001001MA1999999101211MD1110281+9999MW1011REMSYN088AAXX  19001 01001 11484 43511 11056 21088 30121 40133 51028 69901 70172 84800 333 91118;
0101010010999992011011901004+70933-008667FM-12+0009ENJA V0203501N008019999999N9999999N1-00561-00881101421ADDMA1999999101301MD1310261+9999REMSYN060AAXX  19011 01001 46/// /3508 11056 21088 30130 40142 53026;
0101010010999992011011902004+70933-008667FM-12+0009ENJA V0203601N006019999999N9999999N1-00571-00891101481ADDMA1999999101361MD1310201+9999REMSYN060AAXX  19021 01001 46/// /3606 11057 21089 30136 40148 53020;
