0188010010999992012010100004+70933-008667FM-12+0009ENJA V0201001N006010021019N0030001N1+00171+00121096611ADDAA106002091AY161061AY221061GF108991081071002501999999MA1999999096501MD1710221+9999MW1611REMSYN088AAXX  01001 01001 11330 81006 10017 20012 39650 49661 57022 60021 76162 887// 333 91109;
0101010010999992012010101004+70933-008667FM-12+0009ENJA V0201001N005019999999N9999999N1+00141+00091096541ADDMA1999999096431MD1710221+9999REMSYN060AAXX  01011 01001 46/// /1005 10014 20009 39643 49654 57022;
0101010010999992012010102004+70933-008667FM-12+0009ENJA V0200901N005019999999N9999999N1+00161+00111096451ADDMA1999999096341MD1810241+9999REMSYN060AAXX  01021 01001 46/// /0905 10016 20011 39634 49645 58024;
0101010010999992012010103004+70933-008667FM-12+0009ENJA V0200801N005019999999N9999999N1+00201+00151096361ADDMA1999999096251MD1810261+9999REMSYN060AAXX  01031 01001 46/// /0805 10020 20015 39625 49636 58026;
0101010010999992012010104004+70933-008667FM-12+0009ENJA V0200701N004019999999N9999999N1+00201+00151096261ADDMA1999999096151MD1810291+9999REMSYN060AAXX  01041 01001 46/// /0704 10020 20015 39615 49626 58029;
0101010010999992012010105004+70933-008667FM-12+0009ENJA V0201001N005019999999N9999999N1+00191+00141096171ADDMA1999999096061MD1710271+9999REMSYN060AAXX  01051 01001 46/// /1005 10019 20014 39606 49617 57027;
0272010010999992012010106004+70933-008667FM-12+0009ENJA V0201101N003010021019N0050001N1+00151+00101096091ADDAA112004191AA224005191AJ199991999999999AY161061AY221061GF108991081071002501999999IA1309KA1999N+00051MA1999999095981MD1710271+9999MW1631REMSYN106AAXX  01061 01001 11350 81103 10015 20010 39598 49609 57027 60042 76362 887// 333 20005 42999 70052 91108;EQDQ01  09962SNDP  
0101010010999992012010107004+70933-008667FM-12+0009ENJA V0201901N002019999999N9999999N1+00061+00011096051ADDMA1999999095941MD1710211+9999REMSYN060AAXX  01071 01001 46/// /1902 10006 20001 39594 49605 57021;
0101010010999992012010108004+70933-008667FM-12+0009ENJA V0202001N004019999999N9999999N1+00031-00011096081ADDMA1999999095971MD1510081+9999REMSYN060AAXX  01081 01001 46/// /2004 10003 21001 39597 49608 55008;
0161010010999992012010109004+70933-008667FM-12+0009ENJA V0201901N005010021019N0050001N1+00051+00011096161ADDAY171031AY261031GF108991081071002501999999MA1999999096051MD1310071+9999MW1611REMSYN072AAXX  01091 01001 41350 81905 10005 20001 39605 49616 53007 76176 887//;
0101010010999992012010110004+70933-008667FM-12+0009ENJA V0201801N005019999999N9999999N1+00071+00041096241ADDMA1999999096131MD1310201+9999REMSYN060AAXX  01101 01001 46/// /1805 10007 20004 39613 49624 53020;
0101010010999992012010111004+70933-008667FM-12+0009ENJA V0201901N008019999999N9999999N1+00131+00051096331ADDMA1999999096221MD1310251+9999REMSYN060AAXX  01111 01001 46/// /1908 10013 20005 39622 49633 53025;
0208010010999992012010112004+70933-008667FM-12+0009ENJA V0201701N010010021019N0130001N1+00131+00031096401ADDAA106005191AY171061AY261061GF108991081051002501999999MA1999999096291MD1210241+9999MW1021SA1+0079REMSYN100AAXX  01121 01001 11363 81710 10013 20003 39629 49640 52024 60051 70276 885// 222// 00007 333 91112;
0101010010999992012010113004+70933-008667FM-12+0009ENJA V0201801N010019999999N9999999N1+00131-00011096461ADDMA1999999096351MD1210221+9999REMSYN060AAXX  01131 01001 46/// /1810 10013 21001 39635 49646 52022;
0101010010999992012010114004+70933-008667FM-12+0009ENJA V0201601N008019999999N9999999N1+00141+00031096511ADDMA1999999096401MD1210181+9999REMSYN060AAXX  01141 01001 46/// /1608 10014 20003 39640 49651 52018;
0161010010999992012010115004+70933-008667FM-12+0009ENJA V0201601N006010021019N0070001N1+00131+00041096541ADDAY161031AY221031GF108991081071002501999999MA1999999096431MD1210151+9999MW1611REMSYN072AAXX  01151 01001 41357 81606 10013 20004 39643 49654 52015 76162 887//;
0101010010999992012010116004+70933-008667FM-12+0009ENJA V0201301N005019999999N9999999N1+00131+00071096541ADDMA1999999096431MD1010081+9999REMSYN060AAXX  01161 01001 46/// /1305 10013 20007 39643 49654 50008;
0101010010999992012010117004+70933-008667FM-12+0009ENJA V0201301N006019999999N9999999N1+00131+00071096521ADDMA1999999096411MD1010011+9999REMSYN060AAXX  01171 01001 46/// /1306 10013 20007 39641 49652 50001;
0207010010999992012010118004+70933-008667FM-12+0009ENJA V0201101N003010021019N0050001N1+00131+00071096511ADDAA112000021AY161061AY241061GF108991081071002501999999KA1120M+00151MA1999999096401MD1710031+9999MW1101REMSYN094AAXX  01181 01001 11350 81103 10013 20007 39640 49651 57003 69912 71064 887// 333 10015 91113;
0101010010999992012010119004+70933-008667FM-12+0009ENJA V0200501N001019999999N9999999N1+00121+00061096521ADDMA1999999096411MD1710011+9999REMSYN060AAXX  01191 01001 46/// /0501 10012 20006 39641 49652 57001;
0101010010999992012010120004+70933-008667FM-12+0009ENJA V0200901N003019999999N9999999N1+00121+00061096561ADDMA1999999096451MD1310041+9999REMSYN060AAXX  01201 01001 46/// /0903 10012 20006 39645 49656 53004;
0101010010999992012010121004+70933-008667FM-12+0009ENJA V0201701N002019999999N9999999N1+00121+00061096611ADDMA1999999096501MD1310101+9999REMSYN060AAXX  01211 01001 46/// /1702 10012 20006 39650 49661 53010;
0101010010999992012010122004+70933-008667FM-12+0009ENJA V0201901N003019999999N9999999N1+00071+00021096701ADDMA1999999096591MD1310171+9999REMSYN060AAXX  01221 01001 46/// /1903 10007 20002 39659 49670 53017;
0101010010999992012010123004+70933-008667FM-12+0009ENJA V0201001N002019999999N9999999N1+00061+00021096811ADDMA1999999096701MD1310261+9999REMSYN060AAXX  01231 01001 46/// /1002 10006 20002 39670 49681 53026;
0207010010999992012010200004+70933-008667FM-12+0009ENJA V0202001N008010021019N0080001N1+00021-00031096971ADDAA106000091AY161061AY241061GF107991071071002501999999MA1999999096861MD1310361+9999MW1101REMSYN088AAXX  02001 01001 11358 72008 10002 21003 39686 49697 53036 69901 71064 877// 333 91111;EQDQ01  00002PRCP06
0101010010999992012010201004+70933-008667FM-12+0009ENJA V0201901N007019999999N9999999N1+00001-00101097101ADDMA1999999096991MD1310411+9999REMSYN060AAXX  02011 01001 46/// /1907 10000 21010 39699 49710 53041;
0101010010999992012010202004+70933-008667FM-12+0009ENJA V0201801N006019999999N9999999N1-00011-00101097211ADDMA1999999097101MD1310391+9999REMSYN060AAXX  02021 01001 46/// /1806 11001 21010 39710 49721 53039;
0101010010999992012010203004+70933-008667FM-12+0009ENJA V0201701N004019999999N9999999N1+00001-00061097301ADDMA1999999097191MD1310331+9999REMSYN060AAXX  02031 01001 46/// /1704 10000 21006 39719 49730 53033;
0101010010999992012010204004+70933-008667FM-12+0009ENJA V0201601N005019999999N9999999N1+00041-00031097381ADDMA1999999097271MD1210281+9999REMSYN060AAXX  02041 01001 46/// /1605 10004 21003 39727 49738 52028;
0101010010999992012010205004+70933-008667FM-12+0009ENJA V0201101N006019999999N9999999N1+00041-00021097451ADDMA1999999097341MD1210241+9999REMSYN060AAXX  02051 01001 46/// /1106 10004 21002 39734 49745 52024;
0288010010999992012010206004+70933-008667FM-12+0009ENJA V0201101N006010021019N0050001N1+00071+00011097501ADDAA112000091AA224000021AJ199991999999999AY151061AY241061GF108991081071002501999999IA1289KA1999N-00011MA1999999097391MD1210201+9999MW1101REMSYN106AAXX  02061 01001 11350 81106 10007 20001 39739 49750 52020 69902 71054 887// 333 21001 44999 70001 91110;EQDQ01  00002PRCP12Q02  09962SNDP  
0101010010999992012010207004+70933-008667FM-12+0009ENJA V0200901N003019999999N9999999N1+00101+00031097541ADDMA1999999097431MD1210161+9999REMSYN060AAXX  02071 01001 46/// /0903 10010 20003 39743 49754 52016;
0101010010999992012010208004+70933-008667FM-12+0009ENJA V0200801N006019999999N9999999N1+00171+00071097571ADDMA1999999097461MD1210121+9999REMSYN060AAXX  02081 01001 46/// /0806 10017 20007 39746 49757 52012;
0161010010999992012010209004+70933-008667FM-12+0009ENJA V0200701N005010090019N0100001N1+00191+00081097581ADDAY141031AY221031GF107991071081004501999999MA1999999097471MD1110091+9999MW1021REMSYN072AAXX  02091 01001 41460 70705 10019 20008 39747 49758 51009 70242 878//;
0101010010999992012010210004+70933-008667FM-12+0009ENJA V0200801N007019999999N9999999N1+00241+00121097581ADDMA1999999097471MD1210041+9999REMSYN060AAXX  02101 01001 46/// /0807 10024 20012 39747 49758 52004;
0101010010999992012010211004+70933-008667FM-12+0009ENJA V0201001N006019999999N9999999N1+00171+00071097621ADDMA1999999097511MD1310051+9999REMSYN060AAXX  02111 01001 46/// /1006 10017 20007 39751 49762 53005;
0117010010999992012010212004+70933-008667FM-12+0009ENJA V0200901N007019999999N9999999N1+00161+00081097621ADDMA1999999097511MD1010041+9999REMSYN076AAXX  02121 01001 16/// /0907 10016 20008 39751 49762 50004 6//// 333 91113;
0101010010999992012010213004+70933-008667FM-12+0009ENJA V0201001N005019999999N9999999N1+00181+00111097671ADDMA1999999097561MD1110091+9999REMSYN060AAXX  02131 01001 46/// /1005 10018 20011 39756 49767 51009;
0101010010999992012010214004+70933-008667FM-12+0009ENJA V0201101N005019999999N9999999N1+00151+00081097711ADDMA1999999097601MD1310081+9999REMSYN060AAXX  02141 01001 46/// /1105 10015 20008 39760 49771 53008;
0161010010999992012010215004+70933-008667FM-12+0009ENJA V0201901N002010012019N0040001N1+00151+00091097761ADDAY141031AY221031GF108991081061001501999999MA1999999097651MD1210141+9999MW1401REMSYN072AAXX  02151 01001 41240 81902 10015 20009 39765 49776 52014 74042 886//;
0101010010999992012010216004+70933-008667FM-12+0009ENJA V0202001N001019999999N9999999N1+00151+00081097801ADDMA1999999097691MD1210131+9999REMSYN060AAXX  02161 01001 46/// /2001 10015 20008 39769 49780 52013;
0101010010999992012010217004+70933-008667FM-12+0009ENJA V0202101N001019999999N9999999N1+00141+00071097851ADDMA1999999097741MD1210141+9999REMSYN060AAXX  02171 01001 46/// /2101 10014 20007 39774 49785 52014;
0207010010999992012010218004+70933-008667FM-12+0009ENJA V0203101N001010021019N0025001N1+00131+00061097891ADDAA112003091AY141061AY221061GF108991071061002501071999KA1120M+00261MA1999999097781MD1210131+9999MW1101REMSYN094AAXX  02181 01001 11325 83101 10013 20006 39778 49789 52013 60032 71042 8767/ 333 10026 91108;
0101010010999992012010219004+70933-008667FM-12+0009ENJA V0201701N001019999999N9999999N1+00131+00061097951ADDMA1999999097841MD1310151+9999REMSYN060AAXX  02191 01001 46/// /1701 10013 20006 39784 49795 53015;
0101010010999992012010220004+70933-008667FM-12+0009ENJA V0200601N001019999999N9999999N1+00131+00061098021ADDMA1999999097911MD1310171+9999REMSYN060AAXX  02201 01001 46/// /0601 10013 20006 39791 49802 53017;
0101010010999992012010221004+70933-008667FM-12+0009ENJA V0201801N001019999999N9999999N1+00151+00081098091ADDMA1999999097981MD1210201+9999REMSYN060AAXX  02211 01001 46/// /1801 10015 20008 39798 49809 52020;
0101010010999992012010222004+70933-008667FM-12+0009ENJA V0201001N001019999999N9999999N1+00131+00061098111ADDMA1999999098001MD1110161+9999REMSYN060AAXX  02221 01001 46/// /1001 10013 20006 39800 49811 51016;
0101010010999992012010223004+70933-008667FM-12+0009ENJA V0200601N001019999999N9999999N1+00101+00041098141ADDMA1999999098031MD1110131+9999REMSYN060AAXX  02231 01001 46/// /0601 10010 20004 39803 49814 51013;
0091010010999992012010300004+70933-008667FM-12+0009ENJA V02099999999999999999N9999999N1+00121+00071999999REMSYN082AAXX  03001 01001 11X03 93401 10012 20007 39806 49817 52008 69911 75054 333 91103;
0101010010999992012010301004+70933-008667FM-12+0009ENJA V0200201N002019999999N9999999N1+00151+00101098191ADDMA1999999098081MD1210081+9999REMSYN060AAXX  03011 01001 46/// /0202 10015 20010 39808 49819 52008;
0101010010999992012010302004+70933-008667FM-12+0009ENJA V0200101N001019999999N9999999N1+00131+00081098211ADDMA1999999098101MD1210071+9999REMSYN060AAXX  03021 01001 46/// /0101 10013 20008 39810 49821 52007;
0101010010999992012010303004+70933-008667FM-12+0009ENJA V0203401N002019999999N9999999N1+00131+00061098211ADDMA1999999098101MD1210041+9999REMSYN060AAXX  03031 01001 46/// /3402 10013 20006 39810 49821 52004;
0101010010999992012010304004+70933-008667FM-12+0009ENJA V0203601N001019999999N9999999N1+00151+00001098201ADDMA1999999098091MD1210011+9999REMSYN060AAXX  03041 01001 46/// /3601 10015 21000 39809 49820 52001;
0101010010999992012010305004+70933-008667FM-12+0009ENJA V0200101N002019999999N9999999N1+00121-00081098201ADDMA1999999098091MD1410001+9999REMSYN060AAXX  03051 01001 46/// /0102 10012 21008 39809 49820 54001;
0288010010999992012010306004+70933-008667FM-12+0009ENJA V0203501N003012200019N0200001N1+00231-00121098171ADDAA112000091AA224003391AJ199991999999999AY151061AY211061GF104991031051012501031001IA1309KA1999N+00061MA1999999098061MD1710041+9999MW1021REMSYN106AAXX  03061 01001 11670 43503 10023 21012 39806 49817 57004 69912 70251 83530 333 20006 42999 70032 91106;EQDQ01  00002PRCP12Q02  09962SNDP  
0101010010999992012010307004+70933-008667FM-12+0009ENJA V0200301N002019999999N9999999N1+00181-00191098181ADDMA1999999098071MD1710031+9999REMSYN060AAXX  03071 01001 46/// /0302 10018 21019 39807 49818 57003;
0101010010999992012010308004+70933-008667FM-12+0009ENJA V0203301N006019999999N9999999N1+00191-00191098151ADDMA1999999098041MD1710051+9999REMSYN060AAXX  03081 01001 46/// /3306 10019 21019 39804 49815 57005;
0161010010999992012010309004+70933-008667FM-12+0009ENJA V0201001N003010075019N0200001N1+00271-00041098181ADDAY121031AY221031GF106991051051008001031001MA1999999098071MD1510011+9999MW1021REMSYN072AAXX  03091 01001 41570 61003 10027 21004 39807 49818 55001 70222 85530;
0101010010999992012010310004+70933-008667FM-12+0009ENJA V0202001N003019999999N9999999N1+00161+00011098141ADDMA1999999098031MD1810041+9999REMSYN060AAXX  03101 01001 46/// /2003 10016 20001 39803 49814 58004;
0101010010999992012010311004+70933-008667FM-12+0009ENJA V0203301N009019999999N9999999N1+00171+00031098091ADDMA1999999097981MD1810061+9999REMSYN060AAXX  03111 01001 46/// /3309 10017 20003 39798 49809 58006;
0227010010999992012010312004+70933-008667FM-12+0009ENJA V0203501N009010042019N0200001N1+00141+00051098071ADDAA106000091AY121061AY221061GF108991081051004501999999MA1999999097961MD1710111+9999MW1021SA1+0079REMSYN100AAXX  03121 01001 11470 83509 10014 20005 39796 49807 57011 60001 70222 885// 222// 00007 333 91113;EQDQ01  00002PRCP06
0101010010999992012010313004+70933-008667FM-12+0009ENJA V0203601N003019999999N9999999N1+00231+00071098051ADDMA1999999097941MD1710091+9999REMSYN060AAXX  03131 01001 46/// /3603 10023 20007 39794 49805 57009;
0101010010999992012010314004+70933-008667FM-12+0009ENJA V0200401N002019999999N9999999N1+00251+00111098051ADDMA1999999097941MD1710041+9999REMSYN060AAXX  03141 01001 46/// /0402 10025 20011 39794 49805 57004;
0161010010999992012010315004+70933-008667FM-12+0009ENJA V0200901N002010012019N0010001N1+00191+00071098051ADDAY141031AY221031GF108991081061001501999999MA1999999097941MD1710021+9999MW1101REMSYN072AAXX  03151 01001 41210 80902 10019 20007 39794 49805 57002 71042 886//;
0101010010999992012010316004+70933-008667FM-12+0009ENJA V0200901N004019999999N9999999N1+00161+00071098081ADDMA1999999097971MD1310031+9999REMSYN060AAXX  03161 01001 46/// /0904 10016 20007 39797 49808 53003;
0101010010999992012010317004+70933-008667FM-12+0009ENJA V0200901N003019999999N9999999N1+00131+00061098111ADDMA1999999098001MD1310061+9999REMSYN060AAXX  03171 01001 46/// /0903 10013 20006 39800 49811 53006;
0226010010999992012010318004+70933-008667FM-12+0009ENJA V0203101N001010012019N0015001N1+00111+00051098151ADDAA112000091AY151061AY241061GF108991081061001501999999KA1120M+00331MA1999999098041MD1210101+9999MW1101REMSYN094AAXX  03181 01001 11215 83101 10011 20005 39804 49815 52010 69902 71054 886// 333 10033 91112;EQDQ01  00002PRCP12
0101010010999992012010319004+70933-008667FM-12+0009ENJA V0203301N001019999999N9999999N1+00151+00091098161ADDMA1999999098051MD1210081+9999REMSYN060AAXX  03191 01001 46/// /3301 10015 20009 39805 49816 52008;
0101010010999992012010320004+70933-008667FM-12+0009ENJA V0209999C000019999999N9999999N1+00141+00081098191ADDMA1999999098081MD1210081+9999REMSYN060AAXX  03201 01001 46/// /0000 10014 20008 39808 49819 52008;
0101010010999992012010321004+70933-008667FM-12+0009ENJA V0203301N001019999999N9999999N1+00161+00111098201ADDMA1999999098091MD1210051+9999REMSYN060AAXX  03211 01001 46/// /3301 10016 20011 39809 49820 52005;
0101010010999992012010322004+70933-008667FM-12+0009ENJA V0200701N001019999999N9999999N1+00191+00131098191ADDMA1999999098081MD1010031+9999REMSYN060AAXX  03221 01001 46/// /0701 10019 20013 39808 49819 50003;
0101010010999992012010323004+70933-008667FM-12+0009ENJA V0202301N002019999999N9999999N1+00171+00111098161ADDMA1999999098051MD1810031+9999REMSYN060AAXX  03231 01001 46/// /2302 10017 20011 39805 49816 58003;
0188010010999992012010400004+70933-008667FM-12+0009ENJA V0200901N001010012019N0060001N1+00141+00061098181ADDAA106000021AY161061AY221061GF108991081061001501999999MA1999999098071MD1510021+9999MW1601REMSYN088AAXX  04001 01001 11256 80901 10014 20006 39807 49818 55002 69901 76062 886// 333 91104;
0101010010999992012010401004+70933-008667FM-12+0009ENJA V0203601N001019999999N9999999N1+00151+00081098161ADDMA1999999098051MD1510031+9999REMSYN060AAXX  04011 01001 46/// /3601 10015 20008 39805 49816 55003;
0101010010999992012010402004+70933-008667FM-12+0009ENJA V0200101N002019999999N9999999N1+00231+00121098151ADDMA1999999098041MD1010011+9999REMSYN060AAXX  04021 01001 46/// /0102 10023 20012 39804 49815 50001;
0101010010999992012010403004+70933-008667FM-12+0009ENJA V0202301N004019999999N9999999N1+00171+00061098111ADDMA1999999098001MD1810071+9999REMSYN060AAXX  04031 01001 46/// /2304 10017 20006 39800 49811 58007;
0101010010999992012010404004+70933-008667FM-12+0009ENJA V0203501N008019999999N9999999N1+00111+00021098071ADDMA1999999097961MD1810091+9999REMSYN060AAXX  04041 01001 46/// /3508 10011 20002 39796 49807 58009;
0101010010999992012010405004+70933-008667FM-12+0009ENJA V0203501N007019999999N9999999N1+00071-00031098061ADDMA1999999097951MD1810101+9999REMSYN060AAXX  04051 01001 46/// /3507 10007 21003 39795 49806 58010;
0272010010999992012010406004+70933-008667FM-12+0009ENJA V0203501N005010240019N0100001N1+00071-00011098061ADDAA112001091AA224001091AJ199991999999999AY171061AY261061GF108991041071002501021999IA1289KA1999N+00051MA1999999097951MD1510051+9999MW1701REMSYN106AAXX  04061 01001 11360 83505 10007 21001 39795 49806 55005 69992 77076 8472/ 333 20005 44999 70009 91114;EQDQ01  09962SNDP  
0101010010999992012010407004+70933-008667FM-12+0009ENJA V0202101N002019999999N9999999N1+00091-00011098021ADDMA1999999097911MD1810051+9999REMSYN060AAXX  04071 01001 46/// /2102 10009 21001 39791 49802 58005;
0101010010999992012010408004+70933-008667FM-12+0009ENJA V0203401N005019999999N9999999N1+00071-00041098001ADDMA1999999097891MD1810061+9999REMSYN060AAXX  04081 01001 46/// /3405 10007 21004 39789 49800 58006;
0161010010999992012010409004+70933-008667FM-12+0009ENJA V0201601N002010021019N0150001N1+00101+00001098021ADDAY171031AY221031GF108991081061002501999999MA1999999097911MD1510041+9999MW1021REMSYN072AAXX  04091 01001 41365 81602 10010 21000 39791 49802 55004 70272 886//;
0101010010999992012010410004+70933-008667FM-12+0009ENJA V0202701N002019999999N9999999N1+00121-00021097971ADDMA1999999097861MD1810061+9999REMSYN060AAXX  04101 01001 46/// /2702 10012 21002 39786 49797 58006;
0101010010999992012010411004+70933-008667FM-12+0009ENJA V0201101N001019999999N9999999N1+00061-00041097931ADDMA1999999097821MD1810061+9999REMSYN060AAXX  04111 01001 46/// /1101 10006 21004 39782 49793 58006;
0208010010999992012010412004+70933-008667FM-12+0009ENJA V0203501N007010240019N0150001N1+00061-00041097911ADDAA106000021AY171061AY221061GF108991041071002501021999MA1999999097801MD1710111+9999MW1701SA1+0079REMSYN100AAXX  04121 01001 11365 83507 10006 21004 39780 49791 57011 69921 77072 8472/ 222// 00007 333 91112;
0101010010999992012010413004+70933-008667FM-12+0009ENJA V0203601N009019999999N9999999N1+00061-00061097851ADDMA1999999097741MD1810111+9999REMSYN060AAXX  04131 01001 46/// /3609 10006 21006 39774 49785 58011;
0101010010999992012010414004+70933-008667FM-12+0009ENJA V0203401N007019999999N9999999N1+00041-00071097861ADDMA1999999097751MD1510081+9999REMSYN060AAXX  04141 01001 46/// /3407 10004 21007 39775 49786 55008;
0161010010999992012010415004+70933-008667FM-12+0009ENJA V0203401N001010021019N0100001N1+00071-00041097851ADDAY171031AY221031GF108991061071002501021999MA1999999097741MD1510051+9999MW1701REMSYN072AAXX  04151 01001 41360 83401 10007 21004 39774 49785 55005 77072 8672/;
0101010010999992012010417004+70933-008667FM-12+0009ENJA V0203401N004019999999N9999999N1+00071-00051097871ADDMA1999999097761MD1210011+9999REMSYN060AAXX  04171 01001 46/// /3404 10007 21005 39776 49787 52001;
0178010010999992012010418004+70933-008667FM-12+0009ENJA V0203401N007010120019N0200001N1+00091-00091097901ADDAA112000591AY171061AY221061GF108991061081008001011999MA1999999097791MD1210051+9999MW1221REMSYN078AAXX  04181 01001 11570 83407 10009 21009 39779 49790 52005 69942 72272 8681/;
0101010010999992012010419004+70933-008667FM-12+0009ENJA V0203501N004019999999N9999999N1+00071-00081097951ADDMA1999999097841MD1310091+9999REMSYN060AAXX  04191 01001 46/// /3504 10007 21008 39784 49795 53009;
0101010010999992012010420004+70933-008667FM-12+0009ENJA V0203501N010019999999N9999999N1-00021-00121098021ADDMA1999999097911MD1310151+9999REMSYN060AAXX  04201 01001 46/// /3510 11002 21012 39791 49802 53015;
0101010010999992012010421004+70933-008667FM-12+0009ENJA V0203601N011019999999N9999999N1-00051-00121098111ADDMA1999999097991MD1310201+9999REMSYN060AAXX  04211 01001 46/// /3611 11005 21012 39799 49811 53020;
0101010010999992012010422004+70933-008667FM-12+0009ENJA V0203601N011019999999N9999999N1-00071-00131098161ADDMA1999999098041MD1310201+9999REMSYN060AAXX  04221 01001 46/// /3611 11007 21013 39804 49816 53020;
0101010010999992012010423004+70933-008667FM-12+0009ENJA V0203501N008019999999N9999999N1-00021-00091098261ADDMA1999999098141MD1310231+9999REMSYN060AAXX  04231 01001 46/// /3508 11002 21009 39814 49826 53023;
0188010010999992012010500004+70933-008667FM-12+0009ENJA V0203601N010010240019N0150001N1-00031-00121098341ADDAA106000021AY171061AY221061GF105991031061001501031011MA1999999098221MD1310241+9999MW1011REMSYN088AAXX  05001 01001 11265 53610 11003 21012 39822 49834 53024 60001 70172 83631 333 91116;
0101010010999992012010501004+70933-008667FM-12+0009ENJA V0203501N009019999999N9999999N1+00011-00131098391ADDMA1999999098271MD1110231+9999REMSYN060AAXX  05011 01001 46/// /3509 10001 21013 39827 49839 51023;
0101010010999992012010502004+70933-008667FM-12+0009ENJA V0203401N008019999999N9999999N1+00011-00151098491ADDMA1999999098371MD1310241+9999REMSYN060AAXX  05021 01001 46/// /3408 10001 21015 39837 49849 53024;
0101010010999992012010503004+70933-008667FM-12+0009ENJA V0203401N010019999999N9999999N1-00051-00191098591ADDMA1999999098471MD1310251+9999REMSYN060AAXX  05031 01001 46/// /3410 11005 21019 39847 49859 53025;
0101010010999992012010504004+70933-008667FM-12+0009ENJA V0203401N008019999999N9999999N1-00011-00161098721ADDMA1999999098601MD1310331+9999REMSYN060AAXX  05041 01001 46/// /3408 11001 21016 39860 49872 53033;
0101010010999992012010505004+70933-008667FM-12+0009ENJA V0203301N009019999999N9999999N1+00001-00141098811ADDMA1999999098691MD1310311+9999REMSYN060AAXX  05051 01001 46/// /3309 10000 21014 39869 49881 53031;
0272010010999992012010506004+70933-008667FM-12+0009ENJA V0203401N010010240019N0150001N1+00001-00131098891ADDAA112000021AA224000591AJ199991999999999AY181061AY221061GF105991041081008001031011IA1289KA1999N-00071MA1999999098771MD1110301+9999MW1851REMSYN106AAXX  05061 01001 11565 53410 10000 21013 39877 49889 51030 69912 78582 84831 333 21007 44999 70005 91116;EQDQ01  09962SNDP  
0101010010999992012010507004+70933-008667FM-12+0009ENJA V0203301N011019999999N9999999N1-00011-00201098981ADDMA1999999098861MD1310261+9999REMSYN060AAXX  05071 01001 46/// /3311 11001 21020 39886 49898 53026;
0101010010999992012010508004+70933-008667FM-12+0009ENJA V0203301N010019999999N9999999N1-00011-00161099131ADDMA1999999099011MD1310321+9999REMSYN060AAXX  05081 01001 46/// /3310 11001 21016 39901 49913 53032;
0161010010999992012010509004+70933-008667FM-12+0009ENJA V0203301N013012200019N0200001N1-00021-00151099231ADDAY181031AY221031GF104991021081008001071011MA1999999099111MD1310341+9999MW1021REMSYN072AAXX  05091 01001 41570 43313 11002 21015 39911 49923 53034 70282 82871;
0101010010999992012010510004+70933-008667FM-12+0009ENJA V0203301N012019999999N9999999N1-00031-00151099351ADDMA1999999099231MD1210371+9999REMSYN060AAXX  05101 01001 46/// /3312 11003 21015 39923 49935 52037;
0101010010999992012010511004+70933-008667FM-12+0009ENJA V0203201N011019999999N9999999N1-00041-00141099481ADDMA1999999099361MD1310361+9999REMSYN060AAXX  05111 01001 46/// /3211 11004 21014 39936 49948 53036;
0208010010999992012010512004+70933-008667FM-12+0009ENJA V0203101N012010021019N0080001N1-00031-00121099581ADDAA106000391AY171061AY231061GF106991051061002501031011MA1999999099461MD1310351+9999MW1701SA1+0059REMSYN100AAXX  05121 01001 11358 63112 11003 21012 39946 49958 53035 69931 77073 85631 222// 00005 333 91116;
0101010010999992012010513004+70933-008667FM-12+0009ENJA V0203201N011019999999N9999999N1+00001-00091099681ADDMA1999999099561MD1110331+9999REMSYN060AAXX  05131 01001 46/// /3211 10000 21009 39956 49968 51033;
0101010010999992012010514004+70933-008667FM-12+0009ENJA V0203201N010019999999N9999999N1+00001-00101099811ADDMA1999999099691MD1310331+9999REMSYN060AAXX  05141 01001 46/// /3210 10000 21010 39969 49981 53033;
0161010010999992012010515004+70933-008667FM-12+0009ENJA V0203101N011010240019N0060001N1+00001-00111099911ADDAY171031AY231031GF106991041061002501011011MA1999999099791MD1210331+9999MW1701REMSYN072AAXX  05151 01001 41356 63111 10000 21011 39979 49991 52033 77073 84611;
0101010010999992012010516004+70933-008667FM-12+0009ENJA V0203001N013019999999N9999999N1-00031-00131099991ADDMA1999999099871MD1310301+9999REMSYN060AAXX  05161 01001 46/// /3013 11003 21013 39987 49999 53030;
0101010010999992012010517004+70933-008667FM-12+0009ENJA V0203101N012019999999N9999999N1-00051-00151100071ADDMA1999999099951MD1210251+9999REMSYN060AAXX  05171 01001 46/// /3112 11005 21015 39995 40007 52025;
0207010010999992012010518004+70933-008667FM-12+0009ENJA V0203001N013010021019N0050001N1-00081-00181100131ADDAA112000021AY171061AY231061GF108991081061002501999999KA1120M+00001MA1999999100011MD1210221+9999MW1381REMSYN094AAXX  05181 01001 11350 83013 11008 21018 30001 40013 52022 69902 73873 886// 333 10000 91117;
0101010010999992012010519004+70933-008667FM-12+0009ENJA V0203001N012019999999N9999999N1-00071-00171100201ADDMA1999999100081MD1210221+9999REMSYN060AAXX  05191 01001 46/// /3012 11007 21017 30008 40020 52022;
0101010010999992012010520004+70933-008667FM-12+0009ENJA V0203001N013019999999N9999999N1-00061-00171100271ADDMA1999999100151MD1210211+9999REMSYN060AAXX  05201 01001 46/// /3013 11006 21017 30015 40027 52021;
0101010010999992012010521004+70933-008667FM-12+0009ENJA V0203001N011019999999N9999999N1-00021-00161100411ADDMA1999999100291MD1310281+9999REMSYN060AAXX  05211 01001 46/// /3011 11002 21016 30029 40041 53028;
0101010010999992012010522004+70933-008667FM-12+0009ENJA V0203201N006019999999N9999999N1+00061-00191100461ADDMA1999999100341MD1310261+9999REMSYN060AAXX  05221 01001 46/// /3206 10006 21019 30034 40046 53026;
0101010010999992012010523004+70933-008667FM-12+0009ENJA V0203601N003019999999N9999999N1+00121-00131100541ADDMA1999999100421MD1110271+9999REMSYN060AAXX  05231 01001 46/// /3603 10012 21013 30042 40054 51027;
0117010010999992012010600004+70933-008667FM-12+0009ENJA V0201401N001019999999N9999999N1+00101-00101100631ADDMA1999999100511MD1310231+9999REMSYN076AAXX  06001 01001 16/// /1401 10010 21010 30051 40063 53023 6//// 333 91116;
0101010010999992012010601004+70933-008667FM-12+0009ENJA V0200301N002019999999N9999999N1+00091-00111100701ADDMA1999999100581MD1310241+9999REMSYN060AAXX  06011 01001 46/// /0302 10009 21011 30058 40070 53024;
0101010010999992012010602004+70933-008667FM-12+0009ENJA V0200801N005019999999N9999999N1+00121-00121100751ADDMA1999999100631MD1110211+9999REMSYN060AAXX  06021 01001 46/// /0805 10012 21012 30063 40075 51021;
0101010010999992012010603004+70933-008667FM-12+0009ENJA V0200801N005019999999N9999999N1+00091-00121100771ADDMA1999999100651MD1110141+9999REMSYN060AAXX  06031 01001 46/// /0805 10009 21012 30065 40077 51014;
0101010010999992012010604004+70933-008667FM-12+0009ENJA V0200901N006019999999N9999999N1+00091-00161100761ADDMA1999999100641MD1110061+9999REMSYN060AAXX  06041 01001 46/// /0906 10009 21016 30064 40076 51006;
0101010010999992012010605004+70933-008667FM-12+0009ENJA V0200801N006019999999N9999999N1+00061-00161100801ADDMA1999999100681MD1310051+9999REMSYN060AAXX  06051 01001 46/// /0806 10006 21016 30068 40080 53005;
0288010010999992012010606004+70933-008667FM-12+0009ENJA V0200801N007012200019N0200001N1+00021-00221100751ADDAA112000091AA224000021AJ199991999999999AY121061AY211061GF104991041011012501001001IA1289KA1999N-00101MA1999999100631MD1810031+9999MW1011REMSYN106AAXX  06061 01001 11670 40807 10002 21022 30063 40075 58003 60002 70121 84100 333 21010 44999 79999 91109;EQDQ01  00002PRCP12Q02  09962SNDP  
0101010010999992012010607004+70933-008667FM-12+0009ENJA V0200801N007019999999N9999999N1+00001-00191100731ADDMA1999999100611MD1810031+9999REMSYN060AAXX  06071 01001 46/// /0807 10000 21019 30061 40073 58003;
0101010010999992012010608004+70933-008667FM-12+0009ENJA V0200901N007019999999N9999999N1+00001-00191100731ADDMA1999999100611MD1510061+9999REMSYN060AAXX  06081 01001 46/// /0907 10000 21019 30061 40073 55006;
0161010010999992012010609004+70933-008667FM-12+0009ENJA V0200801N007010075019N0150001N1-00011-00221100721ADDAY121031AY211031GF108991081061008001999999MA1999999100601MD1510031+9999MW1031REMSYN072AAXX  06091 01001 41565 80807 11001 21022 30060 40072 55003 70321 886//;
0101010010999992012010610004+70933-008667FM-12+0009ENJA V0200701N007019999999N9999999N1-00021-00251100661ADDMA1999999100541MD1810071+9999REMSYN060AAXX  06101 01001 46/// /0707 11002 21025 30054 40066 58007;
0197010010999992012010612004+70933-008667FM-12+0009ENJA V0200801N008010240019N0150001N1-00021-00201100571ADDAA106000091AY121061AY211061GF107991041061012501041011MA1999999100451MD1810151+9999MW1021REMSYN078AAXX  06121 01001 11665 70808 11002 21020 30045 40057 58015 60001 70221 84641;EQDQ01  00002PRCP06
0101010010999992012010613004+70933-008667FM-12+0009ENJA V0200701N008019999999N9999999N1-00021-00281100491ADDMA1999999100371MD1810161+9999REMSYN060AAXX  06131 01001 46/// /0708 11002 21028 30037 40049 58016;
0101010010999992012010614004+70933-008667FM-12+0009ENJA V0200701N007019999999N9999999N1-00021-00251100441ADDMA1999999100321MD1710181+9999REMSYN060AAXX  06141 01001 46/// /0707 11002 21025 30032 40044 57018;
0161010010999992012010615004+70933-008667FM-12+0009ENJA V0200701N007010120019N0180001N1-00011-00251100361ADDAY121031AY211031GF106991051081008001031011MA1999999100241MD1810211+9999MW1021REMSYN072AAXX  06151 01001 41568 60707 11001 21025 30024 40036 58021 70221 85831;
0101010010999992012010616004+70933-008667FM-12+0009ENJA V0200801N008019999999N9999999N1-00011-00241100321ADDMA1999999100201MD1710171+9999REMSYN060AAXX  06161 01001 46/// /0808 11001 21024 30020 40032 57017;
0101010010999992012010617004+70933-008667FM-12+0009ENJA V0200701N006019999999N9999999N1+00001-00291100281ADDMA1999999100161MD1710161+9999REMSYN060AAXX  06171 01001 46/// /0706 10000 21029 30016 40028 57016;
0207010010999992012010618004+70933-008667FM-12+0009ENJA V0200801N007010240019N0150001N1+00001-00201100241ADDAA112000091AY121061AY221061GF105991041081012501061001MA1999999100121MD1710121+9999MW1021REMSYN088AAXX  06181 01001 11665 50807 10000 21020 30012 40024 57012 60002 70222 84860 333 91110;EQDQ01  00002PRCP12
0101010010999992012010619004+70933-008667FM-12+0009ENJA V0200701N004019999999N9999999N1+00001-00161100211ADDMA1999999100091MD1710111+9999REMSYN060AAXX  06191 01001 46/// /0704 10000 21016 30009 40021 57011;
0101010010999992012010620004+70933-008667FM-12+0009ENJA V0200401N003019999999N9999999N1-00031-00161100151ADDMA1999999100031MD1710131+9999REMSYN060AAXX  06201 01001 46/// /0403 11003 21016 30003 40015 57013;
0101010010999992012010621004+70933-008667FM-12+0009ENJA V0200601N007019999999N9999999N1+00051-00101100121ADDMA1999999100001MD1710121+9999REMSYN060AAXX  06211 01001 46/// /0607 10005 21010 30000 40012 57012;
0101010010999992012010622004+70933-008667FM-12+0009ENJA V0200801N006019999999N9999999N1+00041-00071100101ADDMA1999999099981MD1610111+9999REMSYN060AAXX  06221 01001 46/// /0806 10004 21007 39998 40010 56011;
0101010010999992012010623004+70933-008667FM-12+0009ENJA V0200801N007019999999N9999999N1+00031-00071100091ADDMA1999999099971MD1710061+9999REMSYN060AAXX  06231 01001 46/// /0807 10003 21007 39997 40009 57006;
0188010010999992012010700004+70933-008667FM-12+0009ENJA V0200801N005010090019N0150001N1+00051-00061100091ADDAA106000021AY181061AY221061GF107991061081004501061999MA1999999099971MD1510031+9999MW1261REMSYN088AAXX  07001 01001 11465 70805 10005 21006 39997 40009 55003 69901 72682 8686/ 333 91111;
0101010010999992012010701004+70933-008667FM-12+0009ENJA V0200701N007019999999N9999999N1+00041-00071100101ADDMA1999999099981MD1510001+9999REMSYN060AAXX  07011 01001 46/// /0707 10004 21007 39998 40010 55000;
0101010010999992012010702004+70933-008667FM-12+0009ENJA V0200801N008019999999N9999999N1+00051-00071100131ADDMA1999999100011MD1210041+9999REMSYN060AAXX  07021 01001 46/// /0808 10005 21007 30001 40013 52004;
0101010010999992012010703004+70933-008667FM-12+0009ENJA V0200701N008019999999N9999999N1+00061-00061100141ADDMA1999999100021MD1210051+9999REMSYN060AAXX  07031 01001 46/// /0708 10006 21006 30002 40014 52005;
0101010010999992012010704004+70933-008667FM-12+0009ENJA V0200701N008019999999N9999999N1+00051-00071100181ADDMA1999999100061MD1210081+9999REMSYN060AAXX  07041 01001 46/// /0708 10005 21007 30006 40018 52008;
0101010010999992012010705004+70933-008667FM-12+0009ENJA V0200601N007019999999N9999999N1+00021-00091100231ADDMA1999999100111MD1210101+9999REMSYN060AAXX  07051 01001 46/// /0607 10002 21009 30011 40023 52010;
0272010010999992012010706004+70933-008667FM-12+0009ENJA V0200601N008010090019N0150001N1+00031-00101100261ADDAA112000021AA224000021AJ199991999999999AY121061AY221061GF106991051081004501061001IA1289KA1999N-00121MA1999999100141MD1210121+9999MW1021REMSYN106AAXX  07061 01001 11465 60608 10003 21010 30014 40026 52012 69902 70222 85860 333 21012 44999 79999 91112;EQDQ01  09962SNDP  
0101010010999992012010707004+70933-008667FM-12+0009ENJA V0200701N008019999999N9999999N1+00041-00151100331ADDMA1999999100211MD1310151+9999REMSYN060AAXX  07071 01001 46/// /0708 10004 21015 30021 40033 53015;
0101010010999992012010708004+70933-008667FM-12+0009ENJA V0200601N008019999999N9999999N1+00041-00191100431ADDMA1999999100311MD1310201+9999REMSYN060AAXX  07081 01001 46/// /0608 10004 21019 30031 40043 53020;
0161010010999992012010709004+70933-008667FM-12+0009ENJA V0200301N002010090019N0150001N1+00011-00201100521ADDAY181031AY221031GF106991051081004501061001MA1999999100401MD1310251+9999MW1851REMSYN072AAXX  07091 01001 41465 60302 10001 21020 30040 40052 53025 78582 85860;
0101010010999992012010710004+70933-008667FM-12+0009ENJA V0202801N002019999999N9999999N1+00031-00311100561ADDMA1999999100441MD1110241+9999REMSYN060AAXX  07101 01001 46/// /2802 10003 21031 30044 40056 51024;
0101010010999992012010711004+70933-008667FM-12+0009ENJA V0203101N006019999999N9999999N1-00011-00321100621ADDMA1999999100501MD1210191+9999REMSYN060AAXX  07111 01001 46/// /3106 11001 21032 30050 40062 52019;
0208010010999992012010712004+70933-008667FM-12+0009ENJA V0203601N010010075019N0200001N1-00021-00231100661ADDAA106000021AY181061AY221061GF106991051051008001041011MA1999999100541MD1210141+9999MW1021SA1+0039REMSYN100AAXX  07121 01001 11570 63610 11002 21023 30054 40066 52014 60001 70282 85541 222// 00003 333 91113;
0101010010999992012010713004+70933-008667FM-12+0009ENJA V0203601N010019999999N9999999N1-00031-00261100721ADDMA1999999100601MD1310161+9999REMSYN060AAXX  07131 01001 46/// /3610 11003 21026 30060 40072 53016;
0101010010999992012010714004+70933-008667FM-12+0009ENJA V0203501N008019999999N9999999N1-00051-00311100781ADDMA1999999100661MD1310161+9999REMSYN060AAXX  07141 01001 46/// /3508 11005 21031 30066 40078 53016;
0161010010999992012010715004+70933-008667FM-12+0009ENJA V0203401N008012200019N0200001N1-00061-00361100851ADDAY121031AY211031GF103991021011008001061081MA1999999100731MD1210191+9999MW1011REMSYN072AAXX  07151 01001 41570 33408 11006 21036 30073 40085 52019 70121 82168;
0101010010999992012010716004+70933-008667FM-12+0009ENJA V0203501N007019999999N9999999N1-00061-00301100921ADDMA1999999100801MD1210201+9999REMSYN060AAXX  07161 01001 46/// /3507 11006 21030 30080 40092 52020;
0101010010999992012010717004+70933-008667FM-12+0009ENJA V0203401N009019999999N9999999N1-00061-00341100971ADDMA1999999100851MD1210181+9999REMSYN060AAXX  07171 01001 46/// /3409 11006 21034 30085 40097 52018;
0207010010999992012010718004+70933-008667FM-12+0009ENJA V0203401N007012200019N0250001N1-00081-00341101061ADDAA112000021AY121061AY211061GF104991041051008001001001KA1120M+00051MA1999999100941MD1310211+9999MW1021REMSYN094AAXX  07181 01001 11575 43407 11008 21034 30094 40106 53021 60002 70221 84500 333 10005 91113;
0101010010999992012010719004+70933-008667FM-12+0009ENJA V0203501N005019999999N9999999N1-00101-00421101091ADDMA1999999100971MD1210171+9999REMSYN060AAXX  07191 01001 46/// /3505 11010 21042 30097 40109 52017;
0101010010999992012010720004+70933-008667FM-12+0009ENJA V0203501N005019999999N9999999N1-00101-00381101131ADDMA1999999101011MD1110161+9999REMSYN060AAXX  07201 01001 46/// /3505 11010 21038 30101 40113 51016;
0101010010999992012010721004+70933-008667FM-12+0009ENJA V0203301N003019999999N9999999N1-00131-00421101191ADDMA1999999101071MD1210131+9999REMSYN060AAXX  07211 01001 46/// /3303 11013 21042 30107 40119 52013;
0101010010999992012010722004+70933-008667FM-12+0009ENJA V0203301N002019999999N9999999N1-00141-00431101231ADDMA1999999101111MD1210141+9999REMSYN060AAXX  07221 01001 46/// /3302 11014 21043 30111 40123 52014;
0101010010999992012010723004+70933-008667FM-12+0009ENJA V0202701N002019999999N9999999N1-00151-00451101271ADDMA1999999101151MD1210141+9999REMSYN060AAXX  07231 01001 46/// /2702 11015 21045 30115 40127 52014;
0207010010999992012010800004+70933-008667FM-12+0009ENJA V0203201N008012200019N0200001N1-00121-00421101251ADDAA106000091AY101061AY201061GF104991041021004501001001MA1999999101131MD1010071+9999MW1021REMSYN088AAXX  08001 01001 11470 43208 11012 21042 30113 40125 50007 60001 70200 84200 333 91112;EQDQ01  00002PRCP06
0101010010999992012010801004+70933-008667FM-12+0009ENJA V0203301N004019999999N9999999N1-00151-00431101261ADDMA1999999101141MD1010041+9999REMSYN060AAXX  08011 01001 46/// /3304 11015 21043 30114 40126 50004;
0101010010999992012010802004+70933-008667FM-12+0009ENJA V0203601N003019999999N9999999N1-00171-00401101281ADDMA1999999101161MD1210021+9999REMSYN060AAXX  08021 01001 46/// /3603 11017 21040 30116 40128 52002;
0101010010999992012010803004+70933-008667FM-12+0009ENJA V0203301N003019999999N9999999N1-00171-00441101301ADDMA1999999101181MD1210041+9999REMSYN060AAXX  08031 01001 46/// /3303 11017 21044 30118 40130 52004;
0101010010999992012010804004+70933-008667FM-12+0009ENJA V0203401N003019999999N9999999N1-00171-00501101301ADDMA1999999101181MD1310031+9999REMSYN060AAXX  08041 01001 46/// /3403 11017 21050 30118 40130 53003;
0101010010999992012010805004+70933-008667FM-12+0009ENJA V0203201N003019999999N9999999N1-00221-00591101271ADDMA1999999101151MD1810011+9999REMSYN060AAXX  08051 01001 46/// /3203 11022 21059 30115 40127 58001;
0288010010999992012010806004+70933-008667FM-12+0009ENJA V0203201N003012200019N0250001N1-00281-00611101251ADDAA112000091AA224000021AJ199991999999999AY101061AY201061GF103991021081008001061001IA1289KA1999N-00291MA1999999101131MD1810051+9999MW1021REMSYN106AAXX  08061 01001 11575 33203 11028 21061 30113 40125 58005 60002 70200 82860 333 21029 44999 70000 91109;EQDQ01  00002PRCP12Q02  09962SNDP  
0101010010999992012010807004+70933-008667FM-12+0009ENJA V0202801N002019999999N9999999N1-00371-00691101261ADDMA1999999101141MD1510031+9999REMSYN060AAXX  08071 01001 46/// /2802 11037 21069 30114 40126 55003;
0101010010999992012010808004+70933-008667FM-12+0009ENJA V0202701N003019999999N9999999N1-00441-00761101271ADDMA1999999101151MD1010001+9999REMSYN060AAXX  08081 01001 46/// /2703 11044 21076 30115 40127 50000;
0161010010999992012010809004+70933-008667FM-12+0009ENJA V0202701N001012200019N0250001N1-00451-00731101241ADDAY101031AY201031GF104991041051008001001001MA1999999101121MD1810011+9999MW1021REMSYN072AAXX  08091 01001 41575 42701 11045 21073 30112 40124 58001 70200 84500;
0101010010999992012010810004+70933-008667FM-12+0009ENJA V0202401N003019999999N9999999N1-00391-00671101221ADDMA1999999101101MD1710041+9999REMSYN060AAXX  08101 01001 46/// /2403 11039 21067 30110 40122 57004;
0101010010999992012010811004+70933-008667FM-12+0009ENJA V0202401N002019999999N9999999N1-00341-00601101151ADDMA1999999101031MD1810111+9999REMSYN060AAXX  08111 01001 46/// /2402 11034 21060 30103 40115 58011;
0227010010999992012010812004+70933-008667FM-12+0009ENJA V0202401N002010240019N0250001N1-00271-00541101151ADDAA106000091AY121061AY201061GF106991041051008001061001MA1999999101031MD1710091+9999MW1031SA1+0039REMSYN100AAXX  08121 01001 11575 62402 11027 21054 30103 40115 57009 60001 70320 84560 222// 00003 333 91105;EQDQ01  00002PRCP06
0101010010999992012010813004+70933-008667FM-12+0009ENJA V0201501N005019999999N9999999N1-00121-00411101091ADDMA1999999100971MD1810131+9999REMSYN060AAXX  08131 01001 46/// /1505 11012 21041 30097 40109 58013;
0101010010999992012010814004+70933-008667FM-12+0009ENJA V0201201N006019999999N9999999N1-00071-00351100951ADDMA1999999100831MD1810201+9999REMSYN060AAXX  08141 01001 46/// /1206 11007 21035 30083 40095 58020;
0161010010999992012010815004+70933-008667FM-12+0009ENJA V0201101N007010042019N0200001N1-00021-00211100791ADDAY121031AY221031GF107991051051004501031999MA1999999100671MD1810361+9999MW1021REMSYN072AAXX  08151 01001 41470 71107 11002 21021 30067 40079 58036 70222 8553/;
0101010010999992012010816004+70933-008667FM-12+0009ENJA V0201301N009019999999N9999999N1+00051-00221100691ADDMA1999999100571MD1610401+9999REMSYN060AAXX  08161 01001 46/// /1309 10005 21022 30057 40069 56040;
0101010010999992012010817004+70933-008667FM-12+0009ENJA V0201201N009019999999N9999999N1+00051-00201100551ADDMA1999999100431MD1610401+9999REMSYN060AAXX  08171 01001 46/// /1209 10005 21020 30043 40055 56040;
0226010010999992012010818004+70933-008667FM-12+0009ENJA V0201401N010010075019N0250001N1+00111-00201100441ADDAA112000091AY121061AY221061GF107991071051008001031999KA1120M+00111MA1999999100321MD1810351+9999MW1021REMSYN094AAXX  08181 01001 11575 71410 10011 21020 30032 40044 58035 60002 70222 8753/ 333 10011 91113;EQDQ01  00002PRCP12
0101010010999992012010819004+70933-008667FM-12+0009ENJA V0201401N010019999999N9999999N1+00141-00151100251ADDMA1999999100131MD1810441+9999REMSYN060AAXX  08191 01001 46/// /1410 10014 21015 30013 40025 58044;
0101010010999992012010820004+70933-008667FM-12+0009ENJA V0201301N011019999999N9999999N1+00161-00121100081ADDMA1999999099961MD1810471+9999REMSYN060AAXX  08201 01001 46/// /1311 10016 21012 39996 40008 58047;
0101010010999992012010821004+70933-008667FM-12+0009ENJA V0201301N013019999999N9999999N1+00181-00111099901ADDMA1999999099781MD1810541+9999REMSYN060AAXX  08211 01001 46/// /1313 10018 21011 39978 49990 58054;
0101010010999992012010822004+70933-008667FM-12+0009ENJA V0201301N013019999999N9999999N1+00221-00111099681ADDMA1999999099561MD1810571+9999REMSYN060AAXX  08221 01001 46/// /1313 10022 21011 39956 49968 58057;
0101010010999992012010823004+70933-008667FM-12+0009ENJA V0201301N015019999999N9999999N1+00231-00131099441ADDMA1999999099321MD1810641+9999REMSYN060AAXX  08231 01001 46/// /1315 10023 21013 39932 49944 58064;
0207010010999992012010900004+70933-008667FM-12+0009ENJA V0201301N016010042019N0150001N1+00251-00111099191ADDAA106000091AY121061AY221061GF108991081051004501999999MA1999999099071MD1810701+9999MW1021REMSYN088AAXX  09001 01001 11465 81316 10025 21011 39907 49919 58070 60001 70222 885// 333 91121;EQDQ01  00002PRCP06
0101010010999992012010901004+70933-008667FM-12+0009ENJA V0201301N018019999999N9999999N1+00211-00101098911ADDMA1999999098801MD1810761+9999REMSYN060AAXX  09011 01001 46/// /1318 10021 21010 39880 49891 58076;
0101010010999992012010902004+70933-008667FM-12+0009ENJA V0201301N016019999999N9999999N1+00111+00001098701ADDMA1999999098581MD1810741+9999REMSYN060AAXX  09021 01001 46/// /1316 10011 20000 39858 49870 58074;
0120010010999992012010903004+70933-008667FM-12+0009ENJA V0201201N017019999999N9999999N1+00121+00051098461ADDMA1999999098351MD1810722+9999REMSYN060AAXX  09031 01001 46/// /1217 10012 20005 39835 49846 58072;EQDQ01+000722APC3  
0101010010999992012010904004+70933-008667FM-12+0009ENJA V0201301N015019999999N9999999N1+00131+00061098311ADDMA1999999098201MD1810601+9999REMSYN060AAXX  09041 01001 46/// /1315 10013 20006 39820 49831 58060;
0101010010999992012010905004+70933-008667FM-12+0009ENJA V0201401N015019999999N9999999N1+00131+00051098161ADDMA1999999098051MD1610531+9999REMSYN060AAXX  09051 01001 46/// /1415 10013 20005 39805 49816 56053;
0272010010999992012010906004+70933-008667FM-12+0009ENJA V0201501N011010021019N0040001N1+00091+00021098021ADDAA112002091AA224002391AJ199991999999999AY171061AY261061GF108991081071002501999999IA1289KA1999N+00091MA1999999097911MD1710441+9999MW1691REMSYN106AAXX  09061 01001 11340 81511 10009 20002 39791 49802 57044 60022 76976 887// 333 20009 44999 70023 91130;EQDQ01  09962SNDP  
0101010010999992012010907004+70933-008667FM-12+0009ENJA V0201601N010019999999N9999999N1+00051+00001097921ADDMA1999999097811MD1810391+9999REMSYN060AAXX  09071 01001 46/// /1610 10005 21000 39781 49792 58039;
0101010010999992012010908004+70933-008667FM-12+0009ENJA V0202001N006019999999N9999999N1+00041-00011098001ADDMA1999999097891MD1510161+9999REMSYN060AAXX  09081 01001 46/// /2006 10004 21001 39789 49800 55016;
0161010010999992012010909004+70933-008667FM-12+0009ENJA V0201901N006010042019N0070001N1+00071+00021098111ADDAY171031AY221031GF108991081071004501999999MA1999999098001MD1310091+9999MW1681REMSYN072AAXX  09091 01001 41457 81906 10007 20002 39800 49811 53009 76872 887//;
0101010010999992012010910004+70933-008667FM-12+0009ENJA V0202001N007019999999N9999999N1+00091-00011098201ADDMA1999999098091MD1310281+9999REMSYN060AAXX  09101 01001 46/// /2007 10009 21001 39809 49820 53028;
0101010010999992012010911004+70933-008667FM-12+0009ENJA V0202001N008019999999N9999999N1+00091-00061098291ADDMA1999999098181MD1310291+9999REMSYN060AAXX  09111 01001 46/// /2008 10009 21006 39818 49829 53029;
0208010010999992012010912004+70933-008667FM-12+0009ENJA V0202001N005010042019N0150001N1+00091-00081098391ADDAA106001091AY171061AY221061GF108991081051004501999999MA1999999098281MD1310281+9999MW1021SA1+0049REMSYN100AAXX  09121 01001 11465 82005 10009 21008 39828 49839 53028 60011 70272 885// 222// 00004 333 91114;
0101010010999992012010913004+70933-008667FM-12+0009ENJA V0201701N006019999999N9999999N1+00091-00031098451ADDMA1999999098331MD1210241+9999REMSYN060AAXX  09131 01001 46/// /1706 10009 21003 39833 49845 52024;
0101010010999992012010914004+70933-008667FM-12+0009ENJA V0201601N006019999999N9999999N1+00091-00021098501ADDMA1999999098381MD1110191+9999REMSYN060AAXX  09141 01001 46/// /1606 10009 21002 39838 49850 51019;
0161010010999992012010915004+70933-008667FM-12+0009ENJA V0201801N008012200019N0150001N1+00091-00021098551ADDAY121031AY221031GF104991031061002501071001MA1999999098431MD1210161+9999MW1021REMSYN072AAXX  09151 01001 41365 41808 10009 21002 39843 49855 52016 70222 83670;
0101010010999992012010916004+70933-008667FM-12+0009ENJA V0201701N009019999999N9999999N1+00091+00001098581ADDMA1999999098461MD1210131+9999REMSYN060AAXX  09161 01001 46/// /1709 10009 21000 39846 49858 52013;
0101010010999992012010917004+70933-008667FM-12+0009ENJA V0201801N009019999999N9999999N1+00091-00011098621ADDMA1999999098501MD1210121+9999REMSYN060AAXX  09171 01001 46/// /1809 10009 21001 39850 49862 52012;
0207010010999992012010918004+70933-008667FM-12+0009ENJA V0201801N009010042019N0120001N1+00091-00021098651ADDAA112000021AY121061AY221061GF106991061061004501001001KA1120M+00101MA1999999098531MD1210101+9999MW1021REMSYN094AAXX  09181 01001 11462 61809 10009 21002 39853 49865 52010 69902 70222 86600 333 10010 91112;
0101010010999992012010919004+70933-008667FM-12+0009ENJA V0202001N007019999999N9999999N1+00061-00061098731ADDMA1999999098611MD1310151+9999REMSYN060AAXX  09191 01001 46/// /2007 10006 21006 39861 49873 53015;
0101010010999992012010920004+70933-008667FM-12+0009ENJA V0202101N005019999999N9999999N1+00021-00161098801ADDMA1999999098681MD1310181+9999REMSYN060AAXX  09201 01001 46/// /2105 10002 21016 39868 49880 53018;
0101010010999992012010921004+70933-008667FM-12+0009ENJA V0201901N006019999999N9999999N1+00031-00151098861ADDMA1999999098741MD1210211+9999REMSYN060AAXX  09211 01001 46/// /1906 10003 21015 39874 49886 52021;
0101010010999992012010922004+70933-008667FM-12+0009ENJA V0201801N009019999999N9999999N1+00051-00121098881ADDMA1999999098761MD1110161+9999REMSYN060AAXX  09221 01001 46/// /1809 10005 21012 39876 49888 51016;
0101010010999992012010923004+70933-008667FM-12+0009ENJA V0201801N009019999999N9999999N1+00051-00161098891ADDMA1999999098771MD1110091+9999REMSYN060AAXX  09231 01001 46/// /1809 10005 21016 39877 49889 51009;
0207010010999992012011000004+70933-008667FM-12+0009ENJA V0201701N007012200019N0250001N1+00051-00121098881ADDAA106000091AY121061AY201061GF102991021061004501001001MA1999999098761MD1210021+9999MW1011REMSYN088AAXX  10001 01001 11475 21707 10005 21012 39876 49888 52002 60001 70120 82600 333 91113;EQDQ01  00002PRCP06
0101010010999992012011001004+70933-008667FM-12+0009ENJA V0201601N007019999999N9999999N1+00051-00111098831ADDMA1999999098711MD1810051+9999REMSYN060AAXX  10011 01001 46/// /1607 10005 21011 39871 49883 58005;
0101010010999992012011002004+70933-008667FM-12+0009ENJA V0201501N007019999999N9999999N1+00051-00111098771ADDMA1999999098651MD1810121+9999REMSYN060AAXX  10021 01001 46/// /1507 10005 21011 39865 49877 58012;
0101010010999992012011003004+70933-008667FM-12+0009ENJA V0201201N006019999999N9999999N1+00081-00091098681ADDMA1999999098561MD1810211+9999REMSYN060AAXX  10031 01001 46/// /1206 10008 21009 39856 49868 58021;
0101010010999992012011004004+70933-008667FM-12+0009ENJA V0201101N007019999999N9999999N1+00111-00061098551ADDMA1999999098431MD1810281+9999REMSYN060AAXX  10041 01001 46/// /1107 10011 21006 39843 49855 58028;
0101010010999992012011005004+70933-008667FM-12+0009ENJA V0201101N005019999999N9999999N1+00101-00081098421ADDMA1999999098311MD1810341+9999REMSYN060AAXX  10051 01001 46/// /1105 10010 21008 39831 49842 58034;
0136010010999992012011006004+70933-008667FM-12+0009ENJA V0200801N008019999999N9999999N1+00151-00061098281ADDKA1999N-00031MA1999999098171MD1810391+9999REMSYN082AAXX  10061 01001 16/// /0808 10015 21006 39817 49828 58039 6//// 333 21003 91111;
0101010010999992012011007004+70933-008667FM-12+0009ENJA V0200801N008019999999N9999999N1+00141-00071098111ADDMA1999999098001MD1810431+9999REMSYN060AAXX  10071 01001 46/// /0808 10014 21007 39800 49811 58043;
0101010010999992012011008004+70933-008667FM-12+0009ENJA V0200801N009019999999N9999999N1+00131-00111097971ADDMA1999999097861MD1810451+9999REMSYN060AAXX  10081 01001 46/// /0809 10013 21011 39786 49797 58045;
0161010010999992012011009004+70933-008667FM-12+0009ENJA V0200701N010010042019N0150001N1+00161-00151097831ADDAY121031AY201031GF108991081061004501999999MA1999999097721MD1810451+9999MW1031REMSYN072AAXX  10091 01001 41465 80710 10016 21015 39772 49783 58045 70320 886//;
0101010010999992012011010004+70933-008667FM-12+0009ENJA V0200701N011019999999N9999999N1+00181-00121097691ADDMA1999999097581MD1810421+9999REMSYN060AAXX  10101 01001 46/// /0711 10018 21012 39758 49769 58042;
0101010010999992012011011004+70933-008667FM-12+0009ENJA V0200701N013019999999N9999999N1+00201-00111097491ADDMA1999999097381MD1810471+9999REMSYN060AAXX  10111 01001 46/// /0713 10020 21011 39738 49749 58047;
0208010010999992012011012004+70933-008667FM-12+0009ENJA V0200801N013010042019N0100001N1+00141-00031097351ADDAA106000021AY161061AY221061GF108991081071004501999999MA1999999097241MD1810481+9999MW1601SA1+0049REMSYN100AAXX  10121 01001 11460 80813 10014 21003 39724 49735 58048 69901 76062 887// 222// 00004 333 91121;
0101010010999992012011013004+70933-008667FM-12+0009ENJA V0200701N013019999999N9999999N1+00161-00011097221ADDMA1999999097111MD1610471+9999REMSYN060AAXX  10131 01001 46/// /0713 10016 21001 39711 49722 56047;
0101010010999992012011014004+70933-008667FM-12+0009ENJA V0200601N015019999999N9999999N1+00181-00071097051ADDMA1999999096941MD1810441+9999REMSYN060AAXX  10141 01001 46/// /0615 10018 21007 39694 49705 58044;
0161010010999992012011015004+70933-008667FM-12+0009ENJA V0200401N011010042019N0100001N1+00171-00071096941ADDAY161031AY221031GF108991081071004501999999MA1999999096831MD1710411+9999MW1021REMSYN072AAXX  10151 01001 41460 80411 10017 21007 39683 49694 57041 70262 887//;
0101010010999992012011016004+70933-008667FM-12+0009ENJA V0200501N014019999999N9999999N1+00231-00141096721ADDMA1999999096611MD1810501+9999REMSYN060AAXX  10161 01001 46/// /0514 10023 21014 39661 49672 58050;
0101010010999992012011017004+70933-008667FM-12+0009ENJA V0203401N009019999999N9999999N1+00161-00131096541ADDMA1999999096431MD1810511+9999REMSYN060AAXX  10171 01001 46/// /3409 10016 21013 39643 49654 58051;
0207010010999992012011018004+70933-008667FM-12+0009ENJA V0203201N005010042019N0050001N1+00191-00091096431ADDAA112000021AY171061AY261061GF108991081051004501999999KA1120M+00251MA1999999096321MD1610501+9999MW1681REMSYN094AAXX  10181 01001 11450 83205 10019 21009 39632 49643 56050 69912 76876 885// 333 10025 91124;
0101010010999992012011019004+70933-008667FM-12+0009ENJA V0203501N013019999999N9999999N1+00101-00071096331ADDMA1999999096221MD1610391+9999REMSYN060AAXX  10191 01001 46/// /3513 10010 21007 39622 49633 56039;
0101010010999992012011020004+70933-008667FM-12+0009ENJA V0203501N013019999999N9999999N1+00081-00051096251ADDMA1999999096141MD1810291+9999REMSYN060AAXX  10201 01001 46/// /3513 10008 21005 39614 49625 58029;
0101010010999992012011021004+70933-008667FM-12+0009ENJA V0203401N012019999999N9999999N1+00081-00061096131ADDMA1999999096021MD1810311+9999REMSYN060AAXX  10211 01001 46/// /3412 10008 21006 39602 49613 58031;
0101010010999992012011022004+70933-008667FM-12+0009ENJA V0203401N011019999999N9999999N1+00021-00121096071ADDMA1999999095961MD1810251+9999REMSYN060AAXX  10221 01001 46/// /3411 10002 21012 39596 49607 58025;
0101010010999992012011023004+70933-008667FM-12+0009ENJA V0203201N007019999999N9999999N1-00011-00111096041ADDMA1999999095931MD1610211+9999REMSYN060AAXX  10231 01001 46/// /3207 11001 21011 39593 49604 56021;
0188010010999992012011100004+70933-008667FM-12+0009ENJA V0202401N003010075019N0050001N1+00001-00121096011ADDAA106001091AY171061AY221061GF108991071051008001071999MA1999999095901MD1710121+9999MW1701REMSYN088AAXX  11001 01001 11550 82403 10000 21012 39590 49601 57012 69991 77072 8757/ 333 91119;
0101010010999992012011101004+70933-008667FM-12+0009ENJA V0201201N003019999999N9999999N1-00011-00101096051ADDMA1999999095941MD1510021+9999REMSYN060AAXX  11011 01001 46/// /1203 11001 21010 39594 49605 55002;
0101010010999992012011102004+70933-008667FM-12+0009ENJA V0201401N005019999999N9999999N1-00041-00131096141ADDMA1999999096031MD1310101+9999REMSYN060AAXX  11021 01001 46/// /1405 11004 21013 39603 49614 53010;
0101010010999992012011103004+70933-008667FM-12+0009ENJA V0201101N008019999999N9999999N1-00071-00141096331ADDMA1999999096221MD1310321+9999REMSYN060AAXX  11031 01001 46/// /1108 11007 21014 39622 49633 53032;
0101010010999992012011104004+70933-008667FM-12+0009ENJA V0200901N008019999999N9999999N1-00031-00081096561ADDMA1999999096451MD1310511+9999REMSYN060AAXX  11041 01001 46/// /0908 11003 21008 39645 49656 53051;
0101010010999992012011105004+70933-008667FM-12+0009ENJA V0200701N016019999999N9999999N1-00121-00151096851ADDMA1999999096741MD1310711+9999REMSYN060AAXX  11051 01001 46/// /0716 11012 21015 39674 49685 53071;
0272010010999992012011106004+70933-008667FM-12+0009ENJA V0200601N017010042019N0030001N1-00191-00211097181ADDAA112002092AA224001892AJ199991999999999AY171061AY231061GF108991081051004501999999IA1289KA1999N-00191MA1999999097071MD1310861+9999MW1701REMSYN106AAXX  11061 01001 11430 80617 11019 21021 39707 49718 53086 60022 77073 885// 333 21019 44999 70018 91124;EQDQ01  09962SNDP  
0101010010999992012011107004+70933-008667FM-12+0009ENJA V0200601N013019999999N9999999N1-00161-00221097471ADDMA1999999097361MD1310911+9999REMSYN060AAXX  11071 01001 46/// /0613 11016 21022 39736 49747 53091;
0101010010999992012011108004+70933-008667FM-12+0009ENJA V0200501N014019999999N9999999N1-00181-00301097791ADDMA1999999097671MD1310931+9999REMSYN060AAXX  11081 01001 46/// /0514 11018 21030 39767 49779 53093;
0161010010999992012011109004+70933-008667FM-12+0009ENJA V0200301N007010240019N0150001N1-00171-00351098011ADDAY171031AY221031GF105991041081008001061001MA1999999097891MD1310811+9999MW1021REMSYN072AAXX  11091 01001 41565 50307 11017 21035 39789 49801 53081 70272 84860;
0101010010999992012011110004+70933-008667FM-12+0009ENJA V0200201N012019999999N9999999N1-00131-00301098221ADDMA1999999098101MD1310741+9999REMSYN060AAXX  11101 01001 46/// /0212 11013 21030 39810 49822 53074;
0101010010999992012011111004+70933-008667FM-12+0009ENJA V0200101N012019999999N9999999N1-00101-00311098381ADDMA1999999098261MD1210591+9999REMSYN060AAXX  11111 01001 46/// /0112 11010 21031 39826 49838 52059;
0208010010999992012011112004+70933-008667FM-12+0009ENJA V0200101N011012200019N0200001N1-00091-00351098541ADDAA106000021AY171061AY201061GF103991021081012501061001MA1999999098421MD1110531+9999MW1021SA1+0049REMSYN100AAXX  11121 01001 11670 30111 11009 21035 39842 49854 51053 60001 70270 82860 222// 00004 333 91121;
0101010010999992012011113004+70933-008667FM-12+0009ENJA V0203501N012019999999N9999999N1-00081-00381098621ADDMA1999999098501MD1110401+9999REMSYN060AAXX  11131 01001 46/// /3512 11008 21038 39850 49862 51040;
0101010010999992012011114004+70933-008667FM-12+0009ENJA V0203401N008019999999N9999999N1-00041-00321098711ADDMA1999999098591MD1110331+9999REMSYN060AAXX  11141 01001 46/// /3408 11004 21032 39859 49871 51033;
0161010010999992012011115004+70933-008667FM-12+0009ENJA V0203401N009010042019N0060001N1-00031-00191098781ADDAY171031AY221031GF108991081051004501999999MA1999999098661MD1210241+9999MW1701REMSYN072AAXX  11151 01001 41456 83409 11003 21019 39866 49878 52024 77072 885//;
0101010010999992012011116004+70933-008667FM-12+0009ENJA V0203501N008019999999N9999999N1-00021-00331098841ADDMA1999999098721MD1210231+9999REMSYN060AAXX  11161 01001 46/// /3508 11002 21033 39872 49884 52023;
0101010010999992012011117004+70933-008667FM-12+0009ENJA V0203501N008019999999N9999999N1-00041-00201098881ADDMA1999999098761MD1210171+9999REMSYN060AAXX  11171 01001 46/// /3508 11004 21020 39876 49888 52017;
0207010010999992012011118004+70933-008667FM-12+0009ENJA V0203401N012010090019N0100001N1+00001-00151098921ADDAA112001091AY181061AY271061GF108991081081004501999999KA1120M+00001MA1999999098801MD1210141+9999MW1851REMSYN094AAXX  11181 01001 11460 83412 10000 21015 39880 49892 52014 60012 78587 888// 333 10000 91117;
0101010010999992012011119004+70933-008667FM-12+0009ENJA V0203301N010019999999N9999999N1-00061-00211098931ADDMA1999999098811MD1310081+9999REMSYN060AAXX  11191 01001 46/// /3310 11006 21021 39881 49893 53008;
0101010010999992012011120004+70933-008667FM-12+0009ENJA V0203501N007019999999N9999999N1-00021-00191099051ADDMA1999999098931MD1310171+9999REMSYN060AAXX  11201 01001 46/// /3507 11002 21019 39893 49905 53017;
0101010010999992012011121004+70933-008667FM-12+0009ENJA V0203601N012019999999N9999999N1-00111-00331099201ADDMA1999999099081MD1310281+9999REMSYN060AAXX  11211 01001 46/// /3612 11011 21033 39908 49920 53028;
0101010010999992012011122004+70933-008667FM-12+0009ENJA V0203501N010019999999N9999999N1-00031-00281099341ADDMA1999999099221MD1310421+9999REMSYN060AAXX  11221 01001 46/// /3510 11003 21028 39922 49934 53042;
0101010010999992012011123004+70933-008667FM-12+0009ENJA V0203601N010019999999N9999999N1-00011-00231099441ADDMA1999999099321MD1110391+9999REMSYN060AAXX  11231 01001 46/// /3610 11001 21023 39932 49944 51039;
0188010010999992012011200004+70933-008667FM-12+0009ENJA V0203501N009010090019N0150001N1-00041-00341099541ADDAA106000021AY181061AY221061GF106991051081004501061001MA1999999099421MD1110351+9999MW1851REMSYN088AAXX  12001 01001 11465 63509 11004 21034 39942 49954 51035 69911 78582 85860 333 91118;
0101010010999992012011201004+70933-008667FM-12+0009ENJA V0203401N011019999999N9999999N1-00011-00261099621ADDMA1999999099501MD1210281+9999REMSYN060AAXX  12011 01001 46/// /3411 11001 21026 39950 49962 52028;
0101010010999992012011202004+70933-008667FM-12+0009ENJA V0203501N009019999999N9999999N1+00011-00291099691ADDMA1999999099571MD1210251+9999REMSYN060AAXX  12021 01001 46/// /3509 10001 21029 39957 49969 52025;
0101010010999992012011203004+70933-008667FM-12+0009ENJA V0203501N012019999999N9999999N1+00001-00211099751ADDMA1999999099631MD1210211+9999REMSYN060AAXX  12031 01001 46/// /3512 10000 21021 39963 49975 52021;
0101010010999992012011204004+70933-008667FM-12+0009ENJA V0203501N011019999999N9999999N1-00081-00181099821ADDMA1999999099701MD1310201+9999REMSYN060AAXX  12041 01001 46/// /3511 11008 21018 39970 49982 53020;
0101010010999992012011205004+70933-008667FM-12+0009ENJA V0203501N014019999999N9999999N1-00051-00241099911ADDMA1999999099791MD1310221+9999REMSYN060AAXX  12051 01001 46/// /3514 11005 21024 39979 49991 53022;
0272010010999992012011206004+70933-008667FM-12+0009ENJA V0203401N013010060019N0060001N1-00111-00331099951ADDAA112001091AA224001891AJ199991999999999AY181061AY231061GF108991081081002501999999IA1289KA1999N-00141MA1999999099831MD1210201+9999MW1851REMSYN106AAXX  12061 01001 11356 83413 11011 21033 39983 49995 52020 69992 78583 888// 333 21014 44999 70019 91126;EQDQ01  09962SNDP  
0101010010999992012011207004+70933-008667FM-12+0009ENJA V0203401N013019999999N9999999N1-00251-00301100081ADDMA1999999099961MD1310261+9999REMSYN060AAXX  12071 01001 46/// /3413 11025 21030 39996 40008 53026;
0101010010999992012011208004+70933-008667FM-12+0009ENJA V0203401N013019999999N9999999N1-00241-00281100201ADDMA1999999100081MD1310301+9999REMSYN060AAXX  12081 01001 46/// /3413 11024 21028 30008 40020 53030;
0161010010999992012011209004+70933-008667FM-12+0009ENJA V0203501N014010060019N0040001N1-00181-00271100311ADDAY181031AY231031GF108991081081002501999999MA1999999100191MD1310351+9999MW1851REMSYN072AAXX  12091 01001 41340 83514 11018 21027 30019 40031 53035 78583 888//;
0101010010999992012011210004+70933-008667FM-12+0009ENJA V0203501N015019999999N9999999N1-00151-00311100491ADDMA1999999100371MD1310411+9999REMSYN060AAXX  12101 01001 46/// /3515 11015 21031 30037 40049 53041;
0101010010999992012011211004+70933-008667FM-12+0009ENJA V0203401N013019999999N9999999N1-00151-00311100621ADDMA1999999100501MD1310421+9999REMSYN060AAXX  12111 01001 46/// /3413 11015 21031 30050 40062 53042;
0208010010999992012011212004+70933-008667FM-12+0009ENJA V0203501N016010042019N0150001N1-00151-00331100751ADDAA106002091AY181061AY231061GF108991081051004501999999MA1999999100631MD1310451+9999MW1021SA1+0029REMSYN100AAXX  12121 01001 11465 83516 11015 21033 30063 40075 53045 60021 70283 885// 222// 00002 333 91128;
0101010010999992012011213004+70933-008667FM-12+0009ENJA V0203401N016019999999N9999999N1-00161-00311100801ADDMA1999999100681MD1110311+9999REMSYN060AAXX  12131 01001 46/// /3416 11016 21031 30068 40080 51031;
0101010010999992012011214004+70933-008667FM-12+0009ENJA V0203501N015019999999N9999999N1-00181-00341101021ADDMA1999999100901MD1310391+9999REMSYN060AAXX  12141 01001 46/// /3515 11018 21034 30090 40102 53039;
0161010010999992012011215004+70933-008667FM-12+0009ENJA V0203501N013010021019N0070001N1-00191-00341101161ADDAY171031AY221031GF108991061071002501021999MA1999999101041MD1310401+9999MW1701REMSYN072AAXX  12151 01001 41357 83513 11019 21034 30104 40116 53040 77072 8672/;
0101010010999992012011216004+70933-008667FM-12+0009ENJA V0203401N014019999999N9999999N1-00231-00371101221ADDMA1999999101101MD1110431+9999REMSYN060AAXX  12161 01001 46/// /3414 11023 21037 30110 40122 51043;
0101010010999992012011217004+70933-008667FM-12+0009ENJA V0203401N011019999999N9999999N1-00251-00391101381ADDMA1999999101261MD1310371+9999REMSYN060AAXX  12171 01001 46/// /3411 11025 21039 30126 40138 53037;
0207010010999992012011218004+70933-008667FM-12+0009ENJA V0203301N010010042019N0070001N1-00271-00431101481ADDAA112002091AY171061AY221061GF108991081071004501999999KA1120M-00121MA1999999101361MD1310321+9999MW1701REMSYN094AAXX  12181 01001 11457 83310 11027 21043 30136 40148 53032 60022 77072 887// 333 11012 91125;
0101010010999992012011219004+70933-008667FM-12+0009ENJA V0203501N008019999999N9999999N1-00261-00431101571ADDMA1999999101451MD1110351+9999REMSYN060AAXX  12191 01001 46/// /3508 11026 21043 30145 40157 51035;
0101010010999992012011220004+70933-008667FM-12+0009ENJA V0203501N008019999999N9999999N1-00271-00451101631ADDMA1999999101511MD1210251+9999REMSYN060AAXX  12201 01001 46/// /3508 11027 21045 30151 40163 52025;
0101010010999992012011221004+70933-008667FM-12+0009ENJA V0203501N008019999999N9999999N1-00261-00451101781ADDMA1999999101661MD1310291+9999REMSYN060AAXX  12211 01001 46/// /3508 11026 21045 30166 40178 53029;
0101010010999992012011222004+70933-008667FM-12+0009ENJA V0203401N006019999999N9999999N1-00261-00481101831ADDMA1999999101711MD1310251+9999REMSYN060AAXX  12221 01001 46/// /3406 11026 21048 30171 40183 53025;
0101010010999992012011223004+70933-008667FM-12+0009ENJA V0203401N007019999999N9999999N1-00281-00511101881ADDMA1999999101761MD1110251+9999REMSYN060AAXX  12231 01001 46/// /3407 11028 21051 30176 40188 51025;
0188010010999992012011300004+70933-008667FM-12+0009ENJA V0203101N004010042019N0250001N1-00291-00531101911ADDAA106000021AY171061AY221061GF107991061051004501071999MA1999999101791MD1110131+9999MW1021REMSYN088AAXX  13001 01001 11475 73104 11029 21053 30179 40191 51013 69921 70272 8657/ 333 91118;
0101010010999992012011301004+70933-008667FM-12+0009ENJA V0202901N005019999999N9999999N1-00341-00591101971ADDMA1999999101851MD1310141+9999REMSYN060AAXX  13011 01001 46/// /2905 11034 21059 30185 40197 53014;
0101010010999992012011302004+70933-008667FM-12+0009ENJA V0202901N005019999999N9999999N1-00351-00651101961ADDMA1999999101841MD1010081+9999REMSYN060AAXX  13021 01001 46/// /2905 11035 21065 30184 40196 50008;
0101010010999992012011303004+70933-008667FM-12+0009ENJA V0202001N002019999999N9999999N1-00361-00661101941ADDMA1999999101821MD1010021+9999REMSYN060AAXX  13031 01001 46/// /2002 11036 21066 30182 40194 50002;
0101010010999992012011304004+70933-008667FM-12+0009ENJA V0200301N001019999999N9999999N1-00371-00691101931ADDMA1999999101811MD1810031+9999REMSYN060AAXX  13041 01001 46/// /0301 11037 21069 30181 40193 58003;
0101010010999992012011305004+70933-008667FM-12+0009ENJA V0202501N004019999999N9999999N1-00391-00691101991ADDMA1999999101871MD1310031+9999REMSYN060AAXX  13051 01001 46/// /2504 11039 21069 30187 40199 53003;
0272010010999992012011306004+70933-008667FM-12+0009ENJA V0202401N002010240019N0250001N1-00441-00751101991ADDAA112000021AA224001891AJ199991999999999AY121061AY211061GF105991041011008001071011IA1289KA1999N-00451MA1999999101871MD1010051+9999MW1021REMSYN106AAXX  13061 01001 11575 52402 11044 21075 30187 40199 50005 69922 70221 84171 333 21045 44999 70019 91111;EQDQ01  09962SNDP  
0101010010999992012011307004+70933-008667FM-12+0009ENJA V0202501N001019999999N9999999N1-00441-00761101951ADDMA1999999101831MD1010021+9999REMSYN060AAXX  13071 01001 46/// /2501 11044 21076 30183 40195 50002;
0101010010999992012011308004+70933-008667FM-12+0009ENJA V0202201N002019999999N9999999N1-00351-00711101891ADDMA1999999101771MD1810101+9999REMSYN060AAXX  13081 01001 46/// /2202 11035 21071 30177 40189 58010;
0161010010999992012011309004+70933-008667FM-12+0009ENJA V0202001N005010075019N0200001N1-00251-00601101821ADDAY121031AY221031GF108991081051008001999999MA1999999101701MD1810161+9999MW1021REMSYN072AAXX  13091 01001 41570 82005 11025 21060 30170 40182 58016 70222 885//;
0101010010999992012011310004+70933-008667FM-12+0009ENJA V0202201N003019999999N9999999N1-00291-00651101781ADDMA1999999101661MD1710171+9999REMSYN060AAXX  13101 01001 46/// /2203 11029 21065 30166 40178 57017;
0101010010999992012011311004+70933-008667FM-12+0009ENJA V0201901N005019999999N9999999N1-00191-00491101701ADDMA1999999101581MD1810181+9999REMSYN060AAXX  13111 01001 46/// /1905 11019 21049 30158 40170 58018;
0227010010999992012011312004+70933-008667FM-12+0009ENJA V0201601N006010075019N0250001N1-00091-00291101611ADDAA106000091AY121061AY221061GF108991071051008001071999MA1999999101491MD1810211+9999MW1021SA1+0029REMSYN100AAXX  13121 01001 11575 81606 11009 21029 30149 40161 58021 60001 70222 8757/ 222// 00002 333 91108;EQDQ01  00002PRCP06
0101010010999992012011313004+70933-008667FM-12+0009ENJA V0201901N005019999999N9999999N1-00031-00231101571ADDMA1999999101451MD1610211+9999REMSYN060AAXX  13131 01001 46/// /1905 11003 21023 30145 40157 56021;
0101010010999992012011314004+70933-008667FM-12+0009ENJA V0201801N008019999999N9999999N1+00021-00221101491ADDMA1999999101371MD1610211+9999REMSYN060AAXX  13141 01001 46/// /1808 10002 21022 30137 40149 56021;
0161010010999992012011315004+70933-008667FM-12+0009ENJA V0201701N008010042019N0100001N1+00001-00161101381ADDAY171031AY221031GF108991081071004501999999MA1999999101261MD1810231+9999MW1711REMSYN072AAXX  13151 01001 41460 81708 10000 21016 30126 40138 58023 77172 887//;
0101010010999992012011316004+70933-008667FM-12+0009ENJA V0201601N010019999999N9999999N1+00001-00111101231ADDMA1999999101111MD1810341+9999REMSYN060AAXX  13161 01001 46/// /1610 10000 21011 30111 40123 58034;
0101010010999992012011317004+70933-008667FM-12+0009ENJA V0201601N009019999999N9999999N1+00031-00061101091ADDMA1999999100971MD1810401+9999REMSYN060AAXX  13171 01001 46/// /1609 10003 21006 30097 40109 58040;
0207010010999992012011318004+70933-008667FM-12+0009ENJA V0201601N009010042019N0080001N1+00061-00021100961ADDAA112000021AY171061AY221061GF108991081071004501999999KA1120M+00061MA1999999100841MD1810411+9999MW1701REMSYN094AAXX  13181 01001 11458 81609 10006 21002 30084 40096 58041 69902 77072 887// 333 10006 91112;
0101010010999992012011319004+70933-008667FM-12+0009ENJA V0201601N008019999999N9999999N1+00071+00001100821ADDMA1999999100701MD1810411+9999REMSYN060AAXX  13191 01001 46/// /1608 10007 21000 30070 40082 58041;
0101010010999992012011320004+70933-008667FM-12+0009ENJA V0201601N008019999999N9999999N1+00071+00011100671ADDMA1999999100551MD1810421+9999REMSYN060AAXX  13201 01001 46/// /1608 10007 20001 30055 40067 58042;
0101010010999992012011321004+70933-008667FM-12+0009ENJA V0201801N009019999999N9999999N1+00071+00011100591ADDMA1999999100471MD1610371+9999REMSYN060AAXX  13211 01001 46/// /1809 10007 20001 30047 40059 56037;
0101010010999992012011322004+70933-008667FM-12+0009ENJA V0202001N005019999999N9999999N1+00031-00021100501ADDMA1999999100381MD1610321+9999REMSYN060AAXX  13221 01001 46/// /2005 10003 21002 30038 40050 56032;
0101010010999992012011323004+70933-008667FM-12+0009ENJA V0201901N004019999999N9999999N1+00021-00031100381ADDMA1999999100261MD1810291+9999REMSYN060AAXX  13231 01001 46/// /1904 10002 21003 30026 40038 58029;
0188010010999992012011400004+70933-008667FM-12+0009ENJA V0201801N003010006019N0025001N1+00031-00011100301ADDAA106000021AY171061AY251061GF108991081071000751999999MA1999999100181MD1810291+9999MW1511REMSYN088AAXX  14001 01001 11125 81803 10003 21001 30018 40030 58029 69901 75175 887// 333 91112;
0101010010999992012011401004+70933-008667FM-12+0009ENJA V0201901N003019999999N9999999N1+00071+00031100221ADDMA1999999100101MD1610281+9999REMSYN060AAXX  14011 01001 46/// /1903 10007 20003 30010 40022 56028;
0101010010999992012011402004+70933-008667FM-12+0009ENJA V0203001N002019999999N9999999N1+00131+00091100141ADDMA1999999100021MD1710241+9999REMSYN060AAXX  14021 01001 46/// /3002 10013 20009 30002 40014 57024;
0101010010999992012011403004+70933-008667FM-12+0009ENJA V0203001N001019999999N9999999N1+00181+00131100071ADDMA1999999099951MD1710231+9999REMSYN060AAXX  14031 01001 46/// /3001 10018 20013 39995 40007 57023;
0101010010999992012011404004+70933-008667FM-12+0009ENJA V0201601N002019999999N9999999N1+00181+00121099981ADDMA1999999099861MD1810251+9999REMSYN060AAXX  14041 01001 46/// /1602 10018 20012 39986 49998 58025;
0101010010999992012011405004+70933-008667FM-12+0009ENJA V0200701N001019999999N9999999N1+00231+00141099921ADDMA1999999099801MD1610221+9999REMSYN060AAXX  14051 01001 46/// /0701 10023 20014 39980 49992 56022;
0272010010999992012011406004+70933-008667FM-12+0009ENJA V0201401N002010042019N0100001N1+00191+00091099901ADDAA112003091AA224003391AJ199991999999999AY161061AY221061GF108991081061004501999999IA1289KA1999N+00021MA1999999099781MD1610171+9999MW1021REMSYN106AAXX  14061 01001 11460 81402 10019 20009 39978 49990 56017 60032 70262 886// 333 20002 44999 70033 91106;EQDQ01  09962SNDP  
0101010010999992012011407004+70933-008667FM-12+0009ENJA V0200501N001019999999N9999999N1+00161+00071099841ADDMA1999999099721MD1810141+9999REMSYN060AAXX  14071 01001 46/// /0501 10016 20007 39972 49984 58014;
0101010010999992012011408004+70933-008667FM-12+0009ENJA V0201701N005019999999N9999999N1+00241+00121099761ADDMA1999999099641MD1810161+9999REMSYN060AAXX  14081 01001 46/// /1705 10024 20012 39964 49976 58016;
0161010010999992012011409004+70933-008667FM-12+0009ENJA V0201901N006010042019N0120001N1+00211+00091099761ADDAY121031AY221031GF108991081061004501999999MA1999999099641MD1510141+9999MW1021REMSYN072AAXX  14091 01001 41462 81906 10021 20009 39964 49976 55014 70222 886//;
0101010010999992012011410004+70933-008667FM-12+0009ENJA V0203101N003019999999N9999999N1+00291+00081099771ADDMA1999999099651MD1510061+9999REMSYN060AAXX  14101 01001 46/// /3103 10029 20008 39965 49977 55006;
0101010010999992012011411004+70933-008667FM-12+0009ENJA V0200101N002019999999N9999999N1+00181+00031099771ADDMA1999999099651MD1310021+9999REMSYN060AAXX  14111 01001 46/// /0102 10018 20003 39965 49977 53002;
0227010010999992012011412004+70933-008667FM-12+0009ENJA V0202001N006010075019N0150001N1+00141+00021099801ADDAA106000091AY121061AY221061GF106991051061008001031001MA1999999099681MD1210041+9999MW1021SA1+0039REMSYN100AAXX  14121 01001 11565 62006 10014 20002 39968 49980 52004 69901 70222 85630 222// 00003 333 91111;EQDQ01  00002PRCP06
0101010010999992012011413004+70933-008667FM-12+0009ENJA V0202001N005019999999N9999999N1+00121+00011099781ADDMA1999999099661MD1410001+9999REMSYN060AAXX  14131 01001 46/// /2005 10012 20001 39966 49978 54000;
0101010010999992012011414004+70933-008667FM-12+0009ENJA V0201901N007019999999N9999999N1+00111+00001099751ADDMA1999999099631MD1810031+9999REMSYN060AAXX  14141 01001 46/// /1907 10011 21000 39963 49975 58003;
0161010010999992012011415004+70933-008667FM-12+0009ENJA V0202001N005010075019N0100001N1+00101+00001099711ADDAY121031AY221031GF108991071061008001031999MA1999999099591MD1710081+9999MW1021REMSYN072AAXX  14151 01001 41560 82005 10010 20000 39959 49971 57008 70222 8763/;
0101010010999992012011416004+70933-008667FM-12+0009ENJA V0201001N002019999999N9999999N1+00121-00011099631ADDMA1999999099511MD1810151+9999REMSYN060AAXX  14161 01001 46/// /1002 10012 21001 39951 49963 58015;
0101010010999992012011417004+70933-008667FM-12+0009ENJA V0202001N002019999999N9999999N1+00101-00031099591ADDMA1999999099471MD1810161+9999REMSYN060AAXX  14171 01001 46/// /2002 10010 21003 39947 49959 58016;
0207010010999992012011418004+70933-008667FM-12+0009ENJA V0202101N001010075019N0100001N1+00091-00031099511ADDAA112000021AY171061AY221061GF108991071051008001071999KA1120M+00361MA1999999099391MD1810201+9999MW1701REMSYN094AAXX  14181 01001 11560 82101 10009 21003 39939 49951 58020 69902 77072 8757/ 333 10036 91111;
0101010010999992012011419004+70933-008667FM-12+0009ENJA V0200201N001019999999N9999999N1+00061-00051099441ADDMA1999999099321MD1810191+9999REMSYN060AAXX  14191 01001 46/// /0201 10006 21005 39932 49944 58019;
0101010010999992012011420004+70933-008667FM-12+0009ENJA V0200201N002019999999N9999999N1+00041-00041099331ADDMA1999999099211MD1810261+9999REMSYN060AAXX  14201 01001 46/// /0202 10004 21004 39921 49933 58026;
0101010010999992012011421004+70933-008667FM-12+0009ENJA V0202201N001019999999N9999999N1+00021-00051099271ADDMA1999999099151MD1810241+9999REMSYN060AAXX  14211 01001 46/// /2201 10002 21005 39915 49927 58024;
0101010010999992012011422004+70933-008667FM-12+0009ENJA V0203301N002019999999N9999999N1+00031-00041099111ADDMA1999999098991MD1810331+9999REMSYN060AAXX  14221 01001 46/// /3302 10003 21004 39899 49911 58033;
0101010010999992012011423004+70933-008667FM-12+0009ENJA V0203001N009019999999N9999999N1+00041-00101099081ADDMA1999999098961MD1610241+9999REMSYN060AAXX  14231 01001 46/// /3009 10004 21010 39896 49908 56024;
0117010010999992012011500004+70933-008667FM-12+0009ENJA V0202601N007019999999N9999999N1+00051-00111099111ADDMA1999999098991MD1510151+9999REMSYN076AAXX  15001 01001 16/// /2607 10005 21011 39899 49911 55015 6//// 333 91112;
0101010010999992012011501004+70933-008667FM-12+0009ENJA V0202601N005019999999N9999999N1+00041-00141099151ADDMA1999999099031MD1310041+9999REMSYN060AAXX  15011 01001 46/// /2605 10004 21014 39903 49915 53004;
0101010010999992012011502004+70933-008667FM-12+0009ENJA V0202401N009019999999N9999999N1+00011-00171099151ADDMA1999999099031MD1010061+9999REMSYN060AAXX  15021 01001 46/// /2409 10001 21017 39903 49915 50006;
0101010010999992012011503004+70933-008667FM-12+0009ENJA V0202301N010019999999N9999999N1+00021-00201099151ADDMA1999999099031MD1010041+9999REMSYN060AAXX  15031 01001 46/// /2310 10002 21020 39903 49915 50004;
0101010010999992012011504004+70933-008667FM-12+0009ENJA V0202501N012019999999N9999999N1-00091-00221099191ADDMA1999999099071MD1310051+9999REMSYN060AAXX  15041 01001 46/// /2512 11009 21022 39907 49919 53005;
0101010010999992012011505004+70933-008667FM-12+0009ENJA V0202501N014019999999N9999999N1-00261-00411099251ADDMA1999999099131MD1310111+9999REMSYN060AAXX  15051 01001 46/// /2514 11026 21041 39913 49925 53011;
0272010010999992012011506004+70933-008667FM-12+0009ENJA V0202601N011010075019N0060001N1-00291-00491099421ADDAA112005192AA224004692AJ199991999999999AY171061AY221061GF107991061051008001071999IA1289KA1999N-00291MA1999999099301MD1310271+9999MW1701REMSYN106AAXX  15061 01001 11556 72611 11029 21049 39930 49942 53027 60052 77072 8657/ 333 21029 44999 70045 91122;EQDQ01  09962SNDP  
0101010010999992012011507004+70933-008667FM-12+0009ENJA V0202701N011019999999N9999999N1-00321-00551099561ADDMA1999999099441MD1310371+9999REMSYN060AAXX  15071 01001 46/// /2711 11032 21055 39944 49956 53037;
0101010010999992012011508004+70933-008667FM-12+0009ENJA V0202901N008019999999N9999999N1-00321-00581099721ADDMA1999999099601MD1310471+9999REMSYN060AAXX  15081 01001 46/// /2908 11032 21058 39960 49972 53047;
0161010010999992012011509004+70933-008667FM-12+0009ENJA V0203001N007010075019N0150001N1-00361-00661099881ADDAY171031AY221031GF108991071051008001071999MA1999999099761MD1310461+9999MW1701REMSYN072AAXX  15091 01001 41565 83007 11036 21066 39976 49988 53046 77072 8757/;
0101010010999992012011510004+70933-008667FM-12+0009ENJA V0203001N008019999999N9999999N1-00441-00821100041ADDMA1999999099921MD1310471+9999REMSYN060AAXX  15101 01001 46/// /3008 11044 21082 39992 40004 53047;
0101010010999992012011511004+70933-008667FM-12+0009ENJA V0203201N005019999999N9999999N1-00481-00911100121ADDMA1999999100001MD1110401+9999REMSYN060AAXX  15111 01001 46/// /3205 11048 21091 30000 40012 51040;
0208010010999992012011512004+70933-008667FM-12+0009ENJA V0202701N004010240019N0200001N1-00471-00911100251ADDAA106000021AY171061AY221061GF105991041081008001061001MA1999999100131MD1310371+9999MW1021SA1+0039REMSYN100AAXX  15121 01001 11570 52704 11047 21091 30013 40025 53037 69911 70272 84860 222// 00003 333 91119;
0101010010999992012011513004+70933-008667FM-12+0009ENJA V0202501N004019999999N9999999N1-00471-00911100311ADDMA1999999100191MD1110271+9999REMSYN060AAXX  15131 01001 46/// /2504 11047 21091 30019 40031 51027;
0101010010999992012011514004+70933-008667FM-12+0009ENJA V0202201N003019999999N9999999N1-00481-00861100381ADDMA1999999100261MD1110271+9999REMSYN060AAXX  15141 01001 46/// /2203 11048 21086 30026 40038 51027;
0161010010999992012011515004+70933-008667FM-12+0009ENJA V0202301N002010075019N0200001N1-00411-00761100381ADDAY121031AY221031GF107991061051008001071999MA1999999100261MD1110131+9999MW1021REMSYN072AAXX  15151 01001 41570 72302 11041 21076 30026 40038 51013 70222 8657/;
0101010010999992012011516004+70933-008667FM-12+0009ENJA V0202401N004019999999N9999999N1-00441-00801100441ADDMA1999999100321MD1110131+9999REMSYN060AAXX  15161 01001 46/// /2404 11044 21080 30032 40044 51013;
0101010010999992012011517004+70933-008667FM-12+0009ENJA V0202401N003019999999N9999999N1-00471-00771100481ADDMA1999999100361MD1310091+9999REMSYN060AAXX  15171 01001 46/// /2403 11047 21077 30036 40048 53009;
0207010010999992012011518004+70933-008667FM-12+0009ENJA V0202301N004010075019N0200001N1-00411-00671100471ADDAA112000021AY121061AY221061GF106991051051008001061001KA1120M-00281MA1999999100351MD1010091+9999MW1021REMSYN094AAXX  15181 01001 11570 62304 11041 21067 30035 40047 50009 69912 70222 85560 333 11028 91108;
0101010010999992012011519004+70933-008667FM-12+0009ENJA V0202301N005019999999N9999999N1-00321-00581100451ADDMA1999999100331MD1010011+9999REMSYN060AAXX  15191 01001 46/// /2305 11032 21058 30033 40045 50001;
0101010010999992012011520004+70933-008667FM-12+0009ENJA V0202201N004019999999N9999999N1-00241-00471100441ADDMA1999999100321MD1710041+9999REMSYN060AAXX  15201 01001 46/// /2204 11024 21047 30032 40044 57004;
0101010010999992012011521004+70933-008667FM-12+0009ENJA V0202301N005019999999N9999999N1-00141-00421100421ADDMA1999999100301MD1710051+9999REMSYN060AAXX  15211 01001 46/// /2305 11014 21042 30030 40042 57005;
0101010010999992012011522004+70933-008667FM-12+0009ENJA V0202101N008019999999N9999999N1-00031-00361100421ADDMA1999999100301MD1510031+9999REMSYN060AAXX  15221 01001 46/// /2108 11003 21036 30030 40042 55003;
0101010010999992012011523004+70933-008667FM-12+0009ENJA V0202201N009019999999N9999999N1+00011-00381100431ADDMA1999999100311MD1510011+9999REMSYN060AAXX  15231 01001 46/// /2209 10001 21038 30031 40043 55001;
0188010010999992012011600004+70933-008667FM-12+0009ENJA V0202101N009010240019N0150001N1+00071-00371100451ADDAA106000021AY171061AY221061GF108991041071004501021999MA1999999100331MD1210031+9999MW1701REMSYN088AAXX  16001 01001 11465 82109 10007 21037 30033 40045 52003 69901 77072 8472/ 333 91114;
0101010010999992012011601004+70933-008667FM-12+0009ENJA V0202101N008019999999N9999999N1+00101-00291100471ADDMA1999999100351MD1210041+9999REMSYN060AAXX  16011 01001 46/// /2108 10010 21029 30035 40047 52004;
0101010010999992012011602004+70933-008667FM-12+0009ENJA V0202101N011019999999N9999999N1+00121-00321100451ADDMA1999999100331MD1010011+9999REMSYN060AAXX  16021 01001 46/// /2111 10012 21032 30033 40045 50001;
0101010010999992012011603004+70933-008667FM-12+0009ENJA V0202201N008019999999N9999999N1+00091-00351100441ADDMA1999999100321MD1810021+9999REMSYN060AAXX  16031 01001 46/// /2208 10009 21035 30032 40044 58002;
0101010010999992012011604004+70933-008667FM-12+0009ENJA V0202201N010019999999N9999999N1+00061-00341100441ADDMA1999999100321MD1710021+9999REMSYN060AAXX  16041 01001 46/// /2210 10006 21034 30032 40044 57002;
0101010010999992012011605004+70933-008667FM-12+0009ENJA V0202301N010019999999N9999999N1+00041-00421100421ADDMA1999999100301MD1810031+9999REMSYN060AAXX  16051 01001 46/// /2310 10004 21042 30030 40042 58003;
0272010010999992012011606004+70933-008667FM-12+0009ENJA V0202101N007010042019N0200001N1+00091-00301100421ADDAA112000021AA224000021AJ199991999999999AY171061AY221061GF108991081051004501999999IA1289KA1999N-00431MA1999999100301MD1810021+9999MW1021REMSYN106AAXX  16061 01001 11470 82107 10009 21030 30030 40042 58002 69902 70272 885// 333 21043 44999 70001 91115;EQDQ01  09962SNDP  
0101010010999992012011607004+70933-008667FM-12+0009ENJA V0202001N005019999999N9999999N1+00061-00111100381ADDMA1999999100261MD1710061+9999REMSYN060AAXX  16071 01001 46/// /2005 10006 21011 30026 40038 57006;
0101010010999992012011608004+70933-008667FM-12+0009ENJA V0201901N006019999999N9999999N1+00061-00061100341ADDMA1999999100221MD1810071+9999REMSYN060AAXX  16081 01001 46/// /1906 10006 21006 30022 40034 58007;
0161010010999992012011609004+70933-008667FM-12+0009ENJA V0201701N009010240019N0200001N1+00071-00051100291ADDAY121031AY221031GF106991041051004501061001MA1999999100171MD1810131+9999MW1011REMSYN072AAXX  16091 01001 41470 61709 10007 21005 30017 40029 58013 70122 84560;
0101010010999992012011610004+70933-008667FM-12+0009ENJA V0201801N006019999999N9999999N1+00071-00041100261ADDMA1999999100141MD1710121+9999REMSYN060AAXX  16101 01001 46/// /1806 10007 21004 30014 40026 57012;
0101010010999992012011611004+70933-008667FM-12+0009ENJA V0201901N005019999999N9999999N1+00041-00041100191ADDMA1999999100071MD1810161+9999REMSYN060AAXX  16111 01001 46/// /1905 10004 21004 30007 40019 58016;
0208010010999992012011612004+70933-008667FM-12+0009ENJA V0201901N006010012019N0080001N1+00001-00051100141ADDAA106000021AY171061AY221061GF108991061061001501021999MA1999999100021MD1810141+9999MW1681SA1+0039REMSYN100AAXX  16121 01001 11258 81906 10000 21005 30002 40014 58014 69901 76872 8662/ 222// 00003 333 91111;
0101010010999992012011613004+70933-008667FM-12+0009ENJA V0202001N004019999999N9999999N1+00001-00051100061ADDMA1999999099941MD1810201+9999REMSYN060AAXX  16131 01001 46/// /2004 10000 21005 39994 40006 58020;
0101010010999992012011614004+70933-008667FM-12+0009ENJA V0202001N005019999999N9999999N1+00011-00041100021ADDMA1999999099901MD1710171+9999REMSYN060AAXX  16141 01001 46/// /2005 10001 21004 39990 40002 57017;
0075010010999992012011615004+70933-008667FM-12+0009ENJA V02099999999999999999N9999999N1+00031-00011999999REMSYN066AAXX  16151 01001 41X07 91905 10003 21001 39987 49999 56016 74774;
0101010010999992012011616004+70933-008667FM-12+0009ENJA V0202001N005019999999N9999999N1+00041+00001099991ADDMA1999999099871MD1510061+9999REMSYN060AAXX  16161 01001 46/// /2005 10004 20000 39987 49999 55006;
0101010010999992012011617004+70933-008667FM-12+0009ENJA V0202101N004019999999N9999999N1+00021-00021099971ADDMA1999999099851MD1710041+9999REMSYN060AAXX  16171 01001 46/// /2104 10002 21002 39985 49997 57004;
0207010010999992012011618004+70933-008667FM-12+0009ENJA V0202101N004010021019N0100001N1+00051+00011099961ADDAA112000021AY171061AY241061GF108991061061002501071999KA1120M+00091MA1999999099841MD1810021+9999MW1021REMSYN094AAXX  16181 01001 11360 82104 10005 20001 39984 49996 58002 69912 70274 8667/ 333 10009 91106;
0101010010999992012011619004+70933-008667FM-12+0009ENJA V0201401N004019999999N9999999N1+00041+00001099961ADDMA1999999099841MD1510031+9999REMSYN060AAXX  16191 01001 46/// /1404 10004 20000 39984 49996 55003;
0101010010999992012011620004+70933-008667FM-12+0009ENJA V0201801N003019999999N9999999N1+00041+00011099981ADDMA1999999099861MD1510001+9999REMSYN060AAXX  16201 01001 46/// /1803 10004 20001 39986 49998 55000;
0101010010999992012011621004+70933-008667FM-12+0009ENJA V0201601N003019999999N9999999N1+00051+00021099981ADDMA1999999099861MD1210011+9999REMSYN060AAXX  16211 01001 46/// /1603 10005 20002 39986 49998 52001;
0101010010999992012011622004+70933-008667FM-12+0009ENJA V0201701N004019999999N9999999N1+00051+00021099961ADDMA1999999099841MD1410001+9999REMSYN060AAXX  16221 01001 46/// /1704 10005 20002 39984 49996 54000;
0101010010999992012011623004+70933-008667FM-12+0009ENJA V0201801N003019999999N9999999N1+00061+00031099961ADDMA1999999099841MD1710011+9999REMSYN060AAXX  16231 01001 46/// /1803 10006 20003 39984 49996 57001;
0188010010999992012011700004+70933-008667FM-12+0009ENJA V0202001N004010021019N0050001N1+00081+00051100011ADDAA106000021AY161061AY221061GF108991081071002501999999MA1999999099891MD1310031+9999MW1611REMSYN088AAXX  17001 01001 11350 82004 10008 20005 39989 40001 53003 69911 76162 887// 333 91108;
0101010010999992012011701004+70933-008667FM-12+0009ENJA V0201901N006019999999N9999999N1+00071+00041099951ADDMA1999999099831MD1810011+9999REMSYN060AAXX  17011 01001 46/// /1906 10007 20004 39983 49995 58001;
0101010010999992012011702004+70933-008667FM-12+0009ENJA V0202101N005019999999N9999999N1+00061+00031099941ADDMA1999999099821MD1810021+9999REMSYN060AAXX  17021 01001 46/// /2105 10006 20003 39982 49994 58002;
0101010010999992012011703004+70933-008667FM-12+0009ENJA V0201801N005019999999N9999999N1+00061+00031099931ADDMA1999999099811MD1610081+9999REMSYN060AAXX  17031 01001 46/// /1805 10006 20003 39981 49993 56008;
0101010010999992012011704004+70933-008667FM-12+0009ENJA V0202001N005019999999N9999999N1+00061+00031099901ADDMA1999999099781MD1710051+9999REMSYN060AAXX  17041 01001 46/// /2005 10006 20003 39978 49990 57005;
0101010010999992012011705004+70933-008667FM-12+0009ENJA V0202101N003019999999N9999999N1+00081+00051099851ADDMA1999999099731MD1810091+9999REMSYN060AAXX  17051 01001 46/// /2103 10008 20005 39973 49985 58009;
0109010010999992012011706004+70933-008667FM-12+0009ENJA V02099999999999999999N9999999N1+00081+00051999999REMSYN100AAXX  17061 01001 11X06 91903 10008 20005 39970 49982 57011 69922 76164 333 20004 44999 70003 91107;
0101010010999992012011707004+70933-008667FM-12+0009ENJA V0202101N002019999999N9999999N1+00081+00051099781ADDMA1999999099661MD1710121+9999REMSYN060AAXX  17071 01001 46/// /2102 10008 20005 39966 49978 57012;
0101010010999992012011708004+70933-008667FM-12+0009ENJA V0202001N003019999999N9999999N1+00111+00081099771ADDMA1999999099651MD1710081+9999REMSYN060AAXX  17081 01001 46/// /2003 10011 20008 39965 49977 57008;
0075010010999992012011709004+70933-008667FM-12+0009ENJA V02099999999999999999N9999999N1+00101+00071999999REMSYN066AAXX  17091 01001 41X05 91201 10010 20007 39963 49975 57007 76164;
0101010010999992012011710004+70933-008667FM-12+0009ENJA V0202801N001019999999N9999999N1+00141+00111099681ADDMA1999999099561MD1810101+9999REMSYN060AAXX  17101 01001 46/// /2801 10014 20011 39956 49968 58010;
0101010010999992012011711004+70933-008667FM-12+0009ENJA V0200801N004019999999N9999999N1+00171+00141099601ADDMA1999999099481MD1810171+9999REMSYN060AAXX  17111 01001 46/// /0804 10017 20014 39948 49960 58017;
0208010010999992012011712004+70933-008667FM-12+0009ENJA V0200901N005010012019N0025001N1+00181+00151099501ADDAA106001091AY161061AY241061GF108991071071001501021999MA1999999099381MD1810251+9999MW1631SA1+0049REMSYN100AAXX  17121 01001 11225 80905 10018 20015 39938 49950 58025 60011 76364 8772/ 222// 00004 333 91108;
0101010010999992012011713004+70933-008667FM-12+0009ENJA V0200701N005019999999N9999999N1+00171+00141099411ADDMA1999999099291MD1810281+9999REMSYN060AAXX  17131 01001 46/// /0705 10017 20014 39929 49941 58028;
0101010010999992012011714004+70933-008667FM-12+0009ENJA V0201101N007019999999N9999999N1+00211+00181099321ADDMA1999999099201MD1710281+9999REMSYN060AAXX  17141 01001 46/// /1107 10021 20018 39920 49932 57028;
0075010010999992012011715004+70933-008667FM-12+0009ENJA V02099999999999999999N9999999N1+00151+00121999999REMSYN066AAXX  17151 01001 41X08 91606 10015 20012 39918 49930 56020 74764;
0101010010999992012011716004+70933-008667FM-12+0009ENJA V0201601N006019999999N9999999N1+00141+00111099241ADDMA1999999099121MD1610171+9999REMSYN060AAXX  17161 01001 46/// /1606 10014 20011 39912 49924 56017;
0101010010999992012011717004+70933-008667FM-12+0009ENJA V0201601N008019999999N9999999N1+00161+00131099211ADDMA1999999099091MD1810111+9999REMSYN060AAXX  17171 01001 46/// /1608 10016 20013 39909 49921 58011;
0207010010999992012011718004+70933-008667FM-12+0009ENJA V0201501N008010012019N0030001N1+00131+00091099161ADDAA112000391AY151061AY241061GF108991081071001501999999KA1120M+00231MA1999999099041MD1710141+9999MW1511REMSYN094AAXX  17181 01001 11230 81508 10013 20009 39904 49916 57014 69932 75154 887// 333 10023 91113;
0101010010999992012011719004+70933-008667FM-12+0009ENJA V0201301N006019999999N9999999N1+00131+00091099081ADDMA1999999098961MD1810151+9999REMSYN060AAXX  17191 01001 46/// /1306 10013 20009 39896 49908 58015;
0101010010999992012011720004+70933-008667FM-12+0009ENJA V0201401N006019999999N9999999N1+00111+00071098991ADDMA1999999098871MD1810221+9999REMSYN060AAXX  17201 01001 46/// /1406 10011 20007 39887 49899 58022;
0101010010999992012011721004+70933-008667FM-12+0009ENJA V0201501N007019999999N9999999N1+00111+00081098891ADDMA1999999098771MD1810271+9999REMSYN060AAXX  17211 01001 46/// /1507 10011 20008 39877 49889 58027;
0101010010999992012011722004+70933-008667FM-12+0009ENJA V0201401N008019999999N9999999N1+00051+00011098801ADDMA1999999098681MD1710281+9999REMSYN060AAXX  17221 01001 46/// /1408 10005 20001 39868 49880 57028;
0101010010999992012011723004+70933-008667FM-12+0009ENJA V0201701N008019999999N9999999N1+00051+00011098751ADDMA1999999098631MD1610241+9999REMSYN060AAXX  17231 01001 46/// /1708 10005 20001 39863 49875 56024;
0188010010999992012011800004+70933-008667FM-12+0009ENJA V0201801N011010021019N0030001N1+00041+00011098781ADDAA106000891AY171061AY251061GF108991081091002501999999MA1999999098661MD1510111+9999MW1851REMSYN088AAXX  18001 01001 11330 81811 10004 20001 39866 49878 55011 69981 78575 889// 333 91113;
0101010010999992012011801004+70933-008667FM-12+0009ENJA V0202001N010019999999N9999999N1+00041+00001098801ADDMA1999999098681MD1510011+9999REMSYN060AAXX  18011 01001 46/// /2010 10004 21000 39868 49880 55001;
0101010010999992012011802004+70933-008667FM-12+0009ENJA V0201801N008019999999N9999999N1+00061+00001098801ADDMA1999999098681MD1210051+9999REMSYN060AAXX  18021 01001 46/// /1808 10006 21000 39868 49880 52005;
0101010010999992012011803004+70933-008667FM-12+0009ENJA V0201801N009019999999N9999999N1+00051-00051098751ADDMA1999999098631MD1810031+9999REMSYN060AAXX  18031 01001 46/// /1809 10005 21005 39863 49875 58003;
0101010010999992012011804004+70933-008667FM-12+0009ENJA V0201701N008019999999N9999999N1+00061-00031098651ADDMA1999999098531MD1810161+9999REMSYN060AAXX  18041 01001 46/// /1708 10006 21003 39853 49865 58016;
0101010010999992012011805004+70933-008667FM-12+0009ENJA V0201601N006019999999N9999999N1+00061-00021098531ADDMA1999999098411MD1810271+9999REMSYN060AAXX  18051 01001 46/// /1606 10006 21002 39841 49853 58027;
0272010010999992012011806004+70933-008667FM-12+0009ENJA V0200901N006010042019N0100001N1+00071+00001098391ADDAA112000021AA224000591AJ199991999999999AY171061AY251061GF108991081061004501999999IA1289KA1999N+00041MA1999999098281MD1810351+9999MW1021REMSYN106AAXX  18061 01001 11460 80906 10007 21000 39828 49839 58035 69912 70275 886// 333 20004 44999 70004 91114;EQDQ01  09962SNDP  
0101010010999992012011807004+70933-008667FM-12+0009ENJA V0200801N007019999999N9999999N1+00141+00071098241ADDMA1999999098131MD1810401+9999REMSYN060AAXX  18071 01001 46/// /0807 10014 20007 39813 49824 58040;
0101010010999992012011808004+70933-008667FM-12+0009ENJA V0200801N010019999999N9999999N1+00181+00081098081ADDMA1999999097971MD1810441+9999REMSYN060AAXX  18081 01001 46/// /0810 10018 20008 39797 49808 58044;
0161010010999992012011809004+70933-008667FM-12+0009ENJA V0200801N010010042019N0150001N1+00201+00081097941ADDAY121031AY221031GF108991081061004501999999MA1999999097831MD1810451+9999MW1021REMSYN072AAXX  18091 01001 41465 80810 10020 20008 39783 49794 58045 70222 886//;
0101010010999992012011810004+70933-008667FM-12+0009ENJA V0200701N012019999999N9999999N1+00181+00061097771ADDMA1999999097661MD1810471+9999REMSYN060AAXX  18101 01001 46/// /0712 10018 20006 39766 49777 58047;
0101010010999992012011811004+70933-008667FM-12+0009ENJA V0200601N011019999999N9999999N1+00251+00051097581ADDMA1999999097471MD1810501+9999REMSYN060AAXX  18111 01001 46/// /0611 10025 20005 39747 49758 58050;
0208010010999992012011812004+70933-008667FM-12+0009ENJA V0200601N011010042019N0050001N1+00221+00061097431ADDAA106001091AY151061AY221061GF108991081061004501999999MA1999999097321MD1810511+9999MW1511SA1+0059REMSYN100AAXX  18121 01001 11450 80611 10022 20006 39732 49743 58051 69991 75152 886// 222// 00005 333 91117;
0101010010999992012011813004+70933-008667FM-12+0009ENJA V0200701N011019999999N9999999N1+00261+00131097281ADDMA1999999097171MD1810491+9999REMSYN060AAXX  18131 01001 46/// /0711 10026 20013 39717 49728 58049;
0101010010999992012011814004+70933-008667FM-12+0009ENJA V0200801N010019999999N9999999N1+00241+00151097211ADDMA1999999097101MD1610371+9999REMSYN060AAXX  18141 01001 46/// /0810 10024 20015 39710 49721 56037;
0161010010999992012011815004+70933-008667FM-12+0009ENJA V0201101N007010042019N0050001N1+00171+00101097231ADDAY151031AY221031GF108991081061004501999999MA1999999097121MD1610201+9999MW1501REMSYN072AAXX  18151 01001 41450 81107 10017 20010 39712 49723 56020 75052 886//;
0101010010999992012011816004+70933-008667FM-12+0009ENJA V0201401N003019999999N9999999N1+00131+00061097271ADDMA1999999097161MD1510001+9999REMSYN060AAXX  18161 01001 46/// /1403 10013 20006 39716 49727 55000;
0101010010999992012011817004+70933-008667FM-12+0009ENJA V0209999C000019999999N9999999N1+00121+00051097301ADDMA1999999097191MD1210101+9999REMSYN060AAXX  18171 01001 46/// /0000 10012 20005 39719 49730 52010;
0207010010999992012011818004+70933-008667FM-12+0009ENJA V0200101N001010042019N0100001N1+00131+00061097331ADDAA112001091AY151061AY221061GF106991051061004501021001KA1120M+00281MA1999999097221MD1110101+9999MW1021REMSYN094AAXX  18181 01001 11460 60101 10013 20006 39722 49733 51010 60012 70252 85620 333 10028 91117;
0101010010999992012011819004+70933-008667FM-12+0009ENJA V0200101N001019999999N9999999N1+00151+00071097371ADDMA1999999097261MD1210101+9999REMSYN060AAXX  18191 01001 46/// /0101 10015 20007 39726 49737 52010;
0101010010999992012011820004+70933-008667FM-12+0009ENJA V0200301N001019999999N9999999N1+00131+00051097421ADDMA1999999097311MD1210111+9999REMSYN060AAXX  18201 01001 46/// /0301 10013 20005 39731 49742 52011;
0101010010999992012011821004+70933-008667FM-12+0009ENJA V0200301N001019999999N9999999N1+00121+00031097431ADDMA1999999097321MD1310101+9999REMSYN060AAXX  18211 01001 46/// /0301 10012 20003 39732 49743 53010;
0101010010999992012011822004+70933-008667FM-12+0009ENJA V0200101N001019999999N9999999N1+00121+00031097481ADDMA1999999097371MD1310111+9999REMSYN060AAXX  18221 01001 46/// /0101 10012 20003 39737 49748 53011;
0101010010999992012011823004+70933-008667FM-12+0009ENJA V0200101N002019999999N9999999N1+00091-00021097491ADDMA1999999097381MD1310081+9999REMSYN060AAXX  18231 01001 46/// /0102 10009 21002 39738 49749 53008;
0207010010999992012011900004+70933-008667FM-12+0009ENJA V0200201N001012200019N0100001N1+00141+00001097521ADDAA106000091AY121061AY221061GF104991031051008001071001MA1999999097411MD1110081+9999MW1021REMSYN088AAXX  19001 01001 11560 40201 10014 20000 39741 49752 51008 60001 70222 83570 333 91104;EQDQ01  00002PRCP06
0101010010999992012011901004+70933-008667FM-12+0009ENJA V0200501N003019999999N9999999N1+00141-00031097511ADDMA1999999097401MD1210031+9999REMSYN060AAXX  19011 01001 46/// /0503 10014 21003 39740 49751 52003;
0101010010999992012011902004+70933-008667FM-12+0009ENJA V0200601N006019999999N9999999N1+00271+00001097531ADDMA1999999097421MD1310041+9999REMSYN060AAXX  19021 01001 46/// /0606 10027 21000 39742 49753 53004;
0101010010999992012011903004+70933-008667FM-12+0009ENJA V0200201N004019999999N9999999N1+00261+00011097611ADDMA1999999097501MD1310091+9999REMSYN060AAXX  19031 01001 46/// /0204 10026 20001 39750 49761 53009;
